{
  "_format": "hh-sol-artifact-1",
  "contractName": "BetaTestingDetailsManager",
  "sourceName": "contracts/BetaTestingDetailsManager.sol",
  "abi": [
    {
      "inputs": [
        {
          "internalType": "uint256",
          "name": "",
          "type": "uint256"
        }
      ],
      "name": "betaTestingDetails",
      "outputs": [
        {
          "internalType": "uint256",
          "name": "targetNumbersOfTester",
          "type": "uint256"
        },
        {
          "internalType": "string",
          "name": "testingGoal",
          "type": "string"
        },
        {
          "internalType": "uint256",
          "name": "startingDate",
          "type": "uint256"
        },
        {
          "internalType": "uint256",
          "name": "endingDate",
          "type": "uint256"
        }
      ],
      "stateMutability": "view",
      "type": "function"
    },
    {
      "inputs": [
        {
          "internalType": "uint256",
          "name": "_productId",
          "type": "uint256"
        }
      ],
      "name": "getBetaTestingDetails",
      "outputs": [
        {
          "components": [
            {
              "internalType": "uint256",
              "name": "targetNumbersOfTester",
              "type": "uint256"
            },
            {
              "internalType": "string",
              "name": "testingGoal",
              "type": "string"
            },
            {
              "internalType": "string[]",
              "name": "goals",
              "type": "string[]"
            },
            {
              "internalType": "uint256",
              "name": "startingDate",
              "type": "uint256"
            },
            {
              "internalType": "uint256",
              "name": "endingDate",
              "type": "uint256"
            }
          ],
          "internalType": "struct BetaTestingDetailsManager.BetaTestingDetails",
          "name": "",
          "type": "tuple"
        }
      ],
      "stateMutability": "view",
      "type": "function"
    },
    {
      "inputs": [
        {
          "internalType": "uint256",
          "name": "_productId",
          "type": "uint256"
        },
        {
          "components": [
            {
              "internalType": "uint256",
              "name": "targetNumbersOfTester",
              "type": "uint256"
            },
            {
              "internalType": "string",
              "name": "testingGoal",
              "type": "string"
            },
            {
              "internalType": "string[]",
              "name": "goals",
              "type": "string[]"
            },
            {
              "internalType": "uint256",
              "name": "startingDate",
              "type": "uint256"
            },
            {
              "internalType": "uint256",
              "name": "endingDate",
              "type": "uint256"
            }
          ],
          "internalType": "struct BetaTestingDetailsManager.BetaTestingDetails",
          "name": "_details",
          "type": "tuple"
        }
      ],
      "name": "setBetaTestingDetails",
      "outputs": [],
      "stateMutability": "nonpayable",
      "type": "function"
    }
  ],
  "bytecode": "0x608060405234801561001057600080fd5b50610e1b806100206000396000f3fe608060405234801561001057600080fd5b50600436106100415760003560e01c80636f6f4a4c146100465780639afaea2e14610076578063a5de9755146100a9575b600080fd5b610060600480360381019061005b91906104f0565b6100c5565b60405161006d91906106fb565b60405180910390f35b610090600480360381019061008b91906104f0565b61027a565b6040516100a09493929190610776565b60405180910390f35b6100c360048036038101906100be9190610aab565b610332565b005b6100cd61039d565b6000808381526020019081526020016000206040518060a00160405290816000820154815260200160018201805461010490610b36565b80601f016020809104026020016040519081016040528092919081815260200182805461013090610b36565b801561017d5780601f106101525761010080835404028352916020019161017d565b820191906000526020600020905b81548152906001019060200180831161016057829003601f168201915b5050505050815260200160028201805480602002602001604051908101604052809291908181526020016000905b828210156102575783829060005260206000200180546101ca90610b36565b80601f01602080910402602001604051908101604052809291908181526020018280546101f690610b36565b80156102435780601f1061021857610100808354040283529160200191610243565b820191906000526020600020905b81548152906001019060200180831161022657829003601f168201915b5050505050815260200190600101906101ab565b505050508152602001600382015481526020016004820154815250509050919050565b60006020528060005260406000206000915090508060000154908060010180546102a390610b36565b80601f01602080910402602001604051908101604052809291908181526020018280546102cf90610b36565b801561031c5780601f106102f15761010080835404028352916020019161031c565b820191906000526020600020905b8154815290600101906020018083116102ff57829003601f168201915b5050505050908060030154908060040154905084565b806000808481526020019081526020016000206000820151816000015560208201518160010190816103649190610d13565b5060408201518160020190805190602001906103819291906103cc565b5060608201518160030155608082015181600401559050505050565b6040518060a0016040528060008152602001606081526020016060815260200160008152602001600081525090565b828054828255906000526020600020908101928215610414579160200282015b828111156104135782518290816104039190610d13565b50916020019190600101906103ec565b5b5090506104219190610425565b5090565b5b80821115610445576000818161043c9190610449565b50600101610426565b5090565b50805461045590610b36565b6000825580601f106104675750610486565b601f0160209004906000526020600020908101906104859190610489565b5b50565b5b808211156104a257600081600090555060010161048a565b5090565b6000604051905090565b600080fd5b600080fd5b6000819050919050565b6104cd816104ba565b81146104d857600080fd5b50565b6000813590506104ea816104c4565b92915050565b600060208284031215610506576105056104b0565b5b6000610514848285016104db565b91505092915050565b610526816104ba565b82525050565b600081519050919050565b600082825260208201905092915050565b60005b8381101561056657808201518184015260208101905061054b565b60008484015250505050565b6000601f19601f8301169050919050565b600061058e8261052c565b6105988185610537565b93506105a8818560208601610548565b6105b181610572565b840191505092915050565b600081519050919050565b600082825260208201905092915050565b6000819050602082019050919050565b60006105f48383610583565b905092915050565b6000602082019050919050565b6000610614826105bc565b61061e81856105c7565b935083602082028501610630856105d8565b8060005b8581101561066c578484038952815161064d85826105e8565b9450610658836105fc565b925060208a01995050600181019050610634565b50829750879550505050505092915050565b600060a083016000830151610696600086018261051d565b50602083015184820360208601526106ae8282610583565b915050604083015184820360408601526106c88282610609565b91505060608301516106dd606086018261051d565b5060808301516106f0608086018261051d565b508091505092915050565b60006020820190508181036000830152610715818461067e565b905092915050565b610726816104ba565b82525050565b600082825260208201905092915050565b60006107488261052c565b610752818561072c565b9350610762818560208601610548565b61076b81610572565b840191505092915050565b600060808201905061078b600083018761071d565b818103602083015261079d818661073d565b90506107ac604083018561071d565b6107b9606083018461071d565b95945050505050565b600080fd5b7f4e487b7100000000000000000000000000000000000000000000000000000000600052604160045260246000fd5b6107ff82610572565b810181811067ffffffffffffffff8211171561081e5761081d6107c7565b5b80604052505050565b60006108316104a6565b905061083d82826107f6565b919050565b600080fd5b600080fd5b600080fd5b600067ffffffffffffffff82111561086c5761086b6107c7565b5b61087582610572565b9050602081019050919050565b82818337600083830152505050565b60006108a461089f84610851565b610827565b9050828152602081018484840111156108c0576108bf61084c565b5b6108cb848285610882565b509392505050565b600082601f8301126108e8576108e7610847565b5b81356108f8848260208601610891565b91505092915050565b600067ffffffffffffffff82111561091c5761091b6107c7565b5b602082029050602081019050919050565b600080fd5b600061094561094084610901565b610827565b905080838252602082019050602084028301858111156109685761096761092d565b5b835b818110156109af57803567ffffffffffffffff81111561098d5761098c610847565b5b80860161099a89826108d3565b8552602085019450505060208101905061096a565b5050509392505050565b600082601f8301126109ce576109cd610847565b5b81356109de848260208601610932565b91505092915050565b600060a082840312156109fd576109fc6107c2565b5b610a0760a0610827565b90506000610a17848285016104db565b600083015250602082013567ffffffffffffffff811115610a3b57610a3a610842565b5b610a47848285016108d3565b602083015250604082013567ffffffffffffffff811115610a6b57610a6a610842565b5b610a77848285016109b9565b6040830152506060610a8b848285016104db565b6060830152506080610a9f848285016104db565b60808301525092915050565b60008060408385031215610ac257610ac16104b0565b5b6000610ad0858286016104db565b925050602083013567ffffffffffffffff811115610af157610af06104b5565b5b610afd858286016109e7565b9150509250929050565b7f4e487b7100000000000000000000000000000000000000000000000000000000600052602260045260246000fd5b60006002820490506001821680610b4e57607f821691505b602082108103610b6157610b60610b07565b5b50919050565b60008190508160005260206000209050919050565b60006020601f8301049050919050565b600082821b905092915050565b600060088302610bc97fffffffffffffffffffffffffffffffffffffffffffffffffffffffffffffffff82610b8c565b610bd38683610b8c565b95508019841693508086168417925050509392505050565b6000819050919050565b6000610c10610c0b610c06846104ba565b610beb565b6104ba565b9050919050565b6000819050919050565b610c2a83610bf5565b610c3e610c3682610c17565b848454610b99565b825550505050565b600090565b610c53610c46565b610c5e818484610c21565b505050565b5b81811015610c8257610c77600082610c4b565b600181019050610c64565b5050565b601f821115610cc757610c9881610b67565b610ca184610b7c565b81016020851015610cb0578190505b610cc4610cbc85610b7c565b830182610c63565b50505b505050565b600082821c905092915050565b6000610cea60001984600802610ccc565b1980831691505092915050565b6000610d038383610cd9565b9150826002028217905092915050565b610d1c8261052c565b67ffffffffffffffff811115610d3557610d346107c7565b5b610d3f8254610b36565b610d4a828285610c86565b600060209050601f831160018114610d7d5760008415610d6b578287015190505b610d758582610cf7565b865550610ddd565b601f198416610d8b86610b67565b60005b82811015610db357848901518255600182019150602085019450602081019050610d8e565b86831015610dd05784890151610dcc601f891682610cd9565b8355505b6001600288020188555050505b50505050505056fea2646970667358221220a4f5ea2ef38701742117fec8480e93342b2eb466fd7ba4e4d8f5f0559c7c04a664736f6c63430008180033",
  "linkReferences": {},
  "deployedLinkReferences": {}
}