{
  "_format": "hh-sol-artifact-1",
  "contractName": "Product",
  "sourceName": "contracts/Product.sol",
  "abi": [
    {
      "inputs": [
        {
          "internalType": "address",
          "name": "initialOwner",
          "type": "address"
        },
        {
          "internalType": "address",
          "name": "_betaTestingManager",
          "type": "address"
        }
      ],
      "stateMutability": "nonpayable",
      "type": "constructor"
    },
    {
      "inputs": [
        {
          "internalType": "address",
          "name": "owner",
          "type": "address"
        }
      ],
      "name": "OwnableInvalidOwner",
      "type": "error"
    },
    {
      "inputs": [
        {
          "internalType": "address",
          "name": "account",
          "type": "address"
        }
      ],
      "name": "OwnableUnauthorizedAccount",
      "type": "error"
    },
    {
      "anonymous": false,
      "inputs": [
        {
          "indexed": true,
          "internalType": "uint256",
          "name": "productId",
          "type": "uint256"
        },
        {
          "indexed": false,
          "internalType": "string",
          "name": "betaTestingLink",
          "type": "string"
        }
      ],
      "name": "BetaTestingLinkUpdated",
      "type": "event"
    },
    {
      "anonymous": false,
      "inputs": [
        {
          "indexed": true,
          "internalType": "address",
          "name": "previousOwner",
          "type": "address"
        },
        {
          "indexed": true,
          "internalType": "address",
          "name": "newOwner",
          "type": "address"
        }
      ],
      "name": "OwnershipTransferred",
      "type": "event"
    },
    {
      "anonymous": false,
      "inputs": [
        {
          "indexed": true,
          "internalType": "uint256",
          "name": "productId",
          "type": "uint256"
        },
        {
          "indexed": true,
          "internalType": "address",
          "name": "owner",
          "type": "address"
        },
        {
          "indexed": false,
          "internalType": "string",
          "name": "productName",
          "type": "string"
        },
        {
          "indexed": false,
          "internalType": "string",
          "name": "description",
          "type": "string"
        }
      ],
      "name": "ProductRegistered",
      "type": "event"
    },
    {
      "anonymous": false,
      "inputs": [
        {
          "indexed": true,
          "internalType": "uint256",
          "name": "productId",
          "type": "uint256"
        },
        {
          "indexed": true,
          "internalType": "address",
          "name": "user",
          "type": "address"
        }
      ],
      "name": "ProductUpvoted",
      "type": "event"
    },
    {
      "inputs": [],
      "name": "betaTestingManager",
      "outputs": [
        {
          "internalType": "contract BetaTestingDetailsManager",
          "name": "",
          "type": "address"
        }
      ],
      "stateMutability": "view",
      "type": "function"
    },
    {
      "inputs": [
        {
          "internalType": "uint256",
          "name": "_productId",
          "type": "uint256"
        }
      ],
      "name": "canBeListed",
      "outputs": [
        {
          "internalType": "bool",
          "name": "",
          "type": "bool"
        }
      ],
      "stateMutability": "view",
      "type": "function"
    },
    {
      "inputs": [],
      "name": "getListedProducts",
      "outputs": [
        {
          "components": [
            {
              "internalType": "uint256",
              "name": "id",
              "type": "uint256"
            },
            {
              "internalType": "address",
              "name": "owner",
              "type": "address"
            },
            {
              "components": [
                {
                  "internalType": "string",
                  "name": "productName",
                  "type": "string"
                },
                {
                  "internalType": "string",
                  "name": "tagLine",
                  "type": "string"
                },
                {
                  "internalType": "string",
                  "name": "productLink",
                  "type": "string"
                },
                {
                  "internalType": "string",
                  "name": "twitterLink",
                  "type": "string"
                },
                {
                  "internalType": "string",
                  "name": "description",
                  "type": "string"
                },
                {
                  "internalType": "bool",
                  "name": "isOpenSource",
                  "type": "bool"
                },
                {
                  "internalType": "string",
                  "name": "category",
                  "type": "string"
                },
                {
                  "internalType": "string",
                  "name": "thumbNail",
                  "type": "string"
                },
                {
                  "internalType": "string",
                  "name": "mediaFile",
                  "type": "string"
                },
                {
                  "internalType": "string",
                  "name": "loomLink",
                  "type": "string"
                },
                {
                  "internalType": "bool",
                  "name": "workedWithTeam",
                  "type": "bool"
                },
                {
                  "internalType": "string",
                  "name": "teamMembersInput",
                  "type": "string"
                },
                {
                  "internalType": "string",
                  "name": "pricingOption",
                  "type": "string"
                },
                {
                  "internalType": "string",
                  "name": "offer",
                  "type": "string"
                },
                {
                  "internalType": "string",
                  "name": "promoCode",
                  "type": "string"
                },
                {
                  "internalType": "string",
                  "name": "expirationDate",
                  "type": "string"
                },
                {
                  "internalType": "string",
                  "name": "betaTestingLink",
                  "type": "string"
                }
              ],
              "internalType": "struct Product.ProductDetails",
              "name": "details",
              "type": "tuple"
            },
            {
              "internalType": "uint256",
              "name": "upvotes",
              "type": "uint256"
            },
            {
              "internalType": "bool",
              "name": "betaTestingAvailable",
              "type": "bool"
            },
            {
              "internalType": "uint256",
              "name": "timestamp",
              "type": "uint256"
            }
          ],
          "internalType": "struct Product.ProductInfo[]",
          "name": "",
          "type": "tuple[]"
        }
      ],
      "stateMutability": "view",
      "type": "function"
    },
    {
      "inputs": [],
      "name": "getListedProductsAvailable",
      "outputs": [
        {
          "components": [
            {
              "internalType": "uint256",
              "name": "id",
              "type": "uint256"
            },
            {
              "internalType": "address",
              "name": "owner",
              "type": "address"
            },
            {
              "components": [
                {
                  "internalType": "string",
                  "name": "productName",
                  "type": "string"
                },
                {
                  "internalType": "string",
                  "name": "tagLine",
                  "type": "string"
                },
                {
                  "internalType": "string",
                  "name": "productLink",
                  "type": "string"
                },
                {
                  "internalType": "string",
                  "name": "twitterLink",
                  "type": "string"
                },
                {
                  "internalType": "string",
                  "name": "description",
                  "type": "string"
                },
                {
                  "internalType": "bool",
                  "name": "isOpenSource",
                  "type": "bool"
                },
                {
                  "internalType": "string",
                  "name": "category",
                  "type": "string"
                },
                {
                  "internalType": "string",
                  "name": "thumbNail",
                  "type": "string"
                },
                {
                  "internalType": "string",
                  "name": "mediaFile",
                  "type": "string"
                },
                {
                  "internalType": "string",
                  "name": "loomLink",
                  "type": "string"
                },
                {
                  "internalType": "bool",
                  "name": "workedWithTeam",
                  "type": "bool"
                },
                {
                  "internalType": "string",
                  "name": "teamMembersInput",
                  "type": "string"
                },
                {
                  "internalType": "string",
                  "name": "pricingOption",
                  "type": "string"
                },
                {
                  "internalType": "string",
                  "name": "offer",
                  "type": "string"
                },
                {
                  "internalType": "string",
                  "name": "promoCode",
                  "type": "string"
                },
                {
                  "internalType": "string",
                  "name": "expirationDate",
                  "type": "string"
                },
                {
                  "internalType": "string",
                  "name": "betaTestingLink",
                  "type": "string"
                }
              ],
              "internalType": "struct Product.ProductDetails",
              "name": "details",
              "type": "tuple"
            },
            {
              "internalType": "uint256",
              "name": "upvotes",
              "type": "uint256"
            },
            {
              "internalType": "bool",
              "name": "betaTestingAvailable",
              "type": "bool"
            },
            {
              "internalType": "uint256",
              "name": "timestamp",
              "type": "uint256"
            }
          ],
          "internalType": "struct Product.ProductInfo[]",
          "name": "",
          "type": "tuple[]"
        }
      ],
      "stateMutability": "view",
      "type": "function"
    },
    {
      "inputs": [
        {
          "internalType": "uint256",
          "name": "_productId",
          "type": "uint256"
        }
      ],
      "name": "getProduct",
      "outputs": [
        {
          "components": [
            {
              "internalType": "uint256",
              "name": "id",
              "type": "uint256"
            },
            {
              "internalType": "address",
              "name": "owner",
              "type": "address"
            },
            {
              "components": [
                {
                  "internalType": "string",
                  "name": "productName",
                  "type": "string"
                },
                {
                  "internalType": "string",
                  "name": "tagLine",
                  "type": "string"
                },
                {
                  "internalType": "string",
                  "name": "productLink",
                  "type": "string"
                },
                {
                  "internalType": "string",
                  "name": "twitterLink",
                  "type": "string"
                },
                {
                  "internalType": "string",
                  "name": "description",
                  "type": "string"
                },
                {
                  "internalType": "bool",
                  "name": "isOpenSource",
                  "type": "bool"
                },
                {
                  "internalType": "string",
                  "name": "category",
                  "type": "string"
                },
                {
                  "internalType": "string",
                  "name": "thumbNail",
                  "type": "string"
                },
                {
                  "internalType": "string",
                  "name": "mediaFile",
                  "type": "string"
                },
                {
                  "internalType": "string",
                  "name": "loomLink",
                  "type": "string"
                },
                {
                  "internalType": "bool",
                  "name": "workedWithTeam",
                  "type": "bool"
                },
                {
                  "internalType": "string",
                  "name": "teamMembersInput",
                  "type": "string"
                },
                {
                  "internalType": "string",
                  "name": "pricingOption",
                  "type": "string"
                },
                {
                  "internalType": "string",
                  "name": "offer",
                  "type": "string"
                },
                {
                  "internalType": "string",
                  "name": "promoCode",
                  "type": "string"
                },
                {
                  "internalType": "string",
                  "name": "expirationDate",
                  "type": "string"
                },
                {
                  "internalType": "string",
                  "name": "betaTestingLink",
                  "type": "string"
                }
              ],
              "internalType": "struct Product.ProductDetails",
              "name": "details",
              "type": "tuple"
            },
            {
              "internalType": "uint256",
              "name": "upvotes",
              "type": "uint256"
            },
            {
              "internalType": "bool",
              "name": "betaTestingAvailable",
              "type": "bool"
            },
            {
              "internalType": "uint256",
              "name": "timestamp",
              "type": "uint256"
            }
          ],
          "internalType": "struct Product.ProductInfo",
          "name": "",
          "type": "tuple"
        }
      ],
      "stateMutability": "view",
      "type": "function"
    },
    {
      "inputs": [
        {
          "internalType": "uint256",
          "name": "",
          "type": "uint256"
        },
        {
          "internalType": "address",
          "name": "",
          "type": "address"
        }
      ],
      "name": "hasUpvoted",
      "outputs": [
        {
          "internalType": "bool",
          "name": "",
          "type": "bool"
        }
      ],
      "stateMutability": "view",
      "type": "function"
    },
    {
      "inputs": [],
      "name": "owner",
      "outputs": [
        {
          "internalType": "address",
          "name": "",
          "type": "address"
        }
      ],
      "stateMutability": "view",
      "type": "function"
    },
    {
      "inputs": [
        {
          "internalType": "uint256",
          "name": "",
          "type": "uint256"
        }
      ],
      "name": "products",
      "outputs": [
        {
          "internalType": "uint256",
          "name": "id",
          "type": "uint256"
        },
        {
          "internalType": "address",
          "name": "owner",
          "type": "address"
        },
        {
          "components": [
            {
              "internalType": "string",
              "name": "productName",
              "type": "string"
            },
            {
              "internalType": "string",
              "name": "tagLine",
              "type": "string"
            },
            {
              "internalType": "string",
              "name": "productLink",
              "type": "string"
            },
            {
              "internalType": "string",
              "name": "twitterLink",
              "type": "string"
            },
            {
              "internalType": "string",
              "name": "description",
              "type": "string"
            },
            {
              "internalType": "bool",
              "name": "isOpenSource",
              "type": "bool"
            },
            {
              "internalType": "string",
              "name": "category",
              "type": "string"
            },
            {
              "internalType": "string",
              "name": "thumbNail",
              "type": "string"
            },
            {
              "internalType": "string",
              "name": "mediaFile",
              "type": "string"
            },
            {
              "internalType": "string",
              "name": "loomLink",
              "type": "string"
            },
            {
              "internalType": "bool",
              "name": "workedWithTeam",
              "type": "bool"
            },
            {
              "internalType": "string",
              "name": "teamMembersInput",
              "type": "string"
            },
            {
              "internalType": "string",
              "name": "pricingOption",
              "type": "string"
            },
            {
              "internalType": "string",
              "name": "offer",
              "type": "string"
            },
            {
              "internalType": "string",
              "name": "promoCode",
              "type": "string"
            },
            {
              "internalType": "string",
              "name": "expirationDate",
              "type": "string"
            },
            {
              "internalType": "string",
              "name": "betaTestingLink",
              "type": "string"
            }
          ],
          "internalType": "struct Product.ProductDetails",
          "name": "details",
          "type": "tuple"
        },
        {
          "internalType": "uint256",
          "name": "upvotes",
          "type": "uint256"
        },
        {
          "internalType": "bool",
          "name": "betaTestingAvailable",
          "type": "bool"
        },
        {
          "internalType": "uint256",
          "name": "timestamp",
          "type": "uint256"
        }
      ],
      "stateMutability": "view",
      "type": "function"
    },
    {
      "inputs": [
        {
          "internalType": "address",
          "name": "_owner",
          "type": "address"
        },
        {
          "components": [
            {
              "internalType": "string",
              "name": "productName",
              "type": "string"
            },
            {
              "internalType": "string",
              "name": "tagLine",
              "type": "string"
            },
            {
              "internalType": "string",
              "name": "productLink",
              "type": "string"
            },
            {
              "internalType": "string",
              "name": "twitterLink",
              "type": "string"
            },
            {
              "internalType": "string",
              "name": "description",
              "type": "string"
            },
            {
              "internalType": "bool",
              "name": "isOpenSource",
              "type": "bool"
            },
            {
              "internalType": "string",
              "name": "category",
              "type": "string"
            },
            {
              "internalType": "string",
              "name": "thumbNail",
              "type": "string"
            },
            {
              "internalType": "string",
              "name": "mediaFile",
              "type": "string"
            },
            {
              "internalType": "string",
              "name": "loomLink",
              "type": "string"
            },
            {
              "internalType": "bool",
              "name": "workedWithTeam",
              "type": "bool"
            },
            {
              "internalType": "string",
              "name": "teamMembersInput",
              "type": "string"
            },
            {
              "internalType": "string",
              "name": "pricingOption",
              "type": "string"
            },
            {
              "internalType": "string",
              "name": "offer",
              "type": "string"
            },
            {
              "internalType": "string",
              "name": "promoCode",
              "type": "string"
            },
            {
              "internalType": "string",
              "name": "expirationDate",
              "type": "string"
            },
            {
              "internalType": "string",
              "name": "betaTestingLink",
              "type": "string"
            }
          ],
          "internalType": "struct Product.ProductDetails",
          "name": "details",
          "type": "tuple"
        },
        {
          "internalType": "bool",
          "name": "betaTestingAvailable",
          "type": "bool"
        },
        {
          "components": [
            {
              "internalType": "string",
              "name": "contractAddress",
              "type": "string"
            },
            {
              "internalType": "uint256",
              "name": "targetNumbersOfTester",
              "type": "uint256"
            },
            {
              "internalType": "string",
              "name": "testingGoal",
              "type": "string"
            },
            {
              "internalType": "string[]",
              "name": "goals",
              "type": "string[]"
            },
            {
              "internalType": "uint256",
              "name": "startingDate",
              "type": "uint256"
            },
            {
              "internalType": "uint256",
              "name": "endingDate",
              "type": "uint256"
            },
            {
              "internalType": "string",
              "name": "featureLoomLink",
              "type": "string"
            }
          ],
          "internalType": "struct BetaTestingDetailsManager.BetaTestingDetails",
          "name": "betaDetails",
          "type": "tuple"
        }
      ],
      "name": "registerProduct",
      "outputs": [],
      "stateMutability": "nonpayable",
      "type": "function"
    },
    {
      "inputs": [],
      "name": "renounceOwnership",
      "outputs": [],
      "stateMutability": "nonpayable",
      "type": "function"
    },
    {
      "inputs": [
        {
          "internalType": "address",
          "name": "newOwner",
          "type": "address"
        }
      ],
      "name": "transferOwnership",
      "outputs": [],
      "stateMutability": "nonpayable",
      "type": "function"
    },
    {
      "inputs": [
        {
          "internalType": "uint256",
          "name": "_productId",
          "type": "uint256"
        },
        {
          "internalType": "string",
          "name": "_betaTestingLink",
          "type": "string"
        }
      ],
      "name": "updateBetaTestingLink",
      "outputs": [],
      "stateMutability": "nonpayable",
      "type": "function"
    },
    {
      "inputs": [
        {
          "internalType": "uint256",
          "name": "productId",
          "type": "uint256"
        },
        {
          "internalType": "address",
          "name": "upvoter",
          "type": "address"
        }
      ],
      "name": "upvoteProduct",
      "outputs": [],
      "stateMutability": "nonpayable",
      "type": "function"
    }
  ],
  "bytecode": "0x60806040523480156200001157600080fd5b5060405162005c0b38038062005c0b833981810160405281019062000037919062000236565b81600073ffffffffffffffffffffffffffffffffffffffff168173ffffffffffffffffffffffffffffffffffffffff1603620000ad5760006040517f1e4fbdf7000000000000000000000000000000000000000000000000000000008152600401620000a491906200028e565b60405180910390fd5b620000be816200010860201b60201c565b5080600460006101000a81548173ffffffffffffffffffffffffffffffffffffffff021916908373ffffffffffffffffffffffffffffffffffffffff1602179055505050620002ab565b60008060009054906101000a900473ffffffffffffffffffffffffffffffffffffffff169050816000806101000a81548173ffffffffffffffffffffffffffffffffffffffff021916908373ffffffffffffffffffffffffffffffffffffffff1602179055508173ffffffffffffffffffffffffffffffffffffffff168173ffffffffffffffffffffffffffffffffffffffff167f8be0079c531659141344cd1fd0a4f28419497f9722a3daafe3b4186f6b6457e060405160405180910390a35050565b600080fd5b600073ffffffffffffffffffffffffffffffffffffffff82169050919050565b6000620001fe82620001d1565b9050919050565b6200021081620001f1565b81146200021c57600080fd5b50565b600081519050620002308162000205565b92915050565b6000806040838503121562000250576200024f620001cc565b5b600062000260858286016200021f565b925050602062000273858286016200021f565b9150509250929050565b6200028881620001f1565b82525050565b6000602082019050620002a560008301846200027d565b92915050565b61595080620002bb6000396000f3fe608060405234801561001057600080fd5b50600436106100cf5760003560e01c80638da5cb5b1161008c578063b9db15b411610066578063b9db15b4146101f1578063e66f7f4614610221578063f1c88b4b1461023f578063f2fde38b1461026f576100cf565b80638da5cb5b146101855780638ea0c0d1146101a3578063a52c8658146101c1576100cf565b80632326af51146100d457806352cb26af146100f057806355110f141461010e57806363283c841461012a578063715018a6146101465780637acc0b2014610150575b600080fd5b6100ee60048036038101906100e99190614728565b61028b565b005b6100f8610668565b6040516101059190614b8d565b60405180910390f35b61012860048036038101906101239190614baf565b6110a3565b005b610144600480360381019061013f9190614c0b565b611238565b005b61014e6114b9565b005b61016a60048036038101906101659190614c4b565b6114cd565b60405161017c96959493929190614e74565b60405180910390f35b61018d611e05565b60405161019a9190614edc565b60405180910390f35b6101ab611e2e565b6040516101b89190614f56565b60405180910390f35b6101db60048036038101906101d69190614c0b565b611e54565b6040516101e89190614f71565b60405180910390f35b61020b60048036038101906102069190614c4b565b611e83565b6040516102189190615015565b60405180910390f35b610229612872565b6040516102369190614b8d565b60405180910390f35b61025960048036038101906102549190614c4b565b613301565b6040516102669190614f71565b60405180910390f35b61028960048036038101906102849190615037565b613d05565b005b6001600081548092919061029e90615093565b919050555060006001549050821561038957600084610200015151116102f9576040517f08c379a00000000000000000000000000000000000000000000000000000000081526004016102f090615138565b60405180910390fd5b600460009054906101000a900473ffffffffffffffffffffffffffffffffffffffff1673ffffffffffffffffffffffffffffffffffffffff16637d6614d582846040518363ffffffff1660e01b81526004016103569291906152cb565b600060405180830381600087803b15801561037057600080fd5b505af1158015610384573d6000803e3d6000fd5b505050505b6040518060c001604052808281526020018673ffffffffffffffffffffffffffffffffffffffff16815260200185815260200160008152602001841515815260200142815250600260008381526020019081526020016000206000820151816000015560208201518160010160006101000a81548173ffffffffffffffffffffffffffffffffffffffff021916908373ffffffffffffffffffffffffffffffffffffffff160217905550604082015181600201600082015181600001908161045191906154fd565b50602082015181600101908161046791906154fd565b50604082015181600201908161047d91906154fd565b50606082015181600301908161049391906154fd565b5060808201518160040190816104a991906154fd565b5060a08201518160050160006101000a81548160ff02191690831515021790555060c08201518160060190816104df91906154fd565b5060e08201518160070190816104f591906154fd565b5061010082015181600801908161050c91906154fd565b5061012082015181600901908161052391906154fd565b5061014082015181600a0160006101000a81548160ff02191690831515021790555061016082015181600b01908161055b91906154fd565b5061018082015181600c01908161057291906154fd565b506101a082015181600d01908161058991906154fd565b506101c082015181600e0190816105a091906154fd565b506101e082015181600f0190816105b791906154fd565b506102008201518160100190816105ce91906154fd565b5050506060820151816013015560808201518160140160006101000a81548160ff02191690831515021790555060a082015181601501559050508473ffffffffffffffffffffffffffffffffffffffff16817fb5744bf87060f3c128bd7ec7c73734981e2525b5958bd63d50320e2e282fb75786600001518760800151604051610659929190615608565b60405180910390a35050505050565b60606000600154905060008167ffffffffffffffff81111561068d5761068c614042565b5b6040519080825280602002602001820160405280156106c657816020015b6106b3613ede565b8152602001906001900390816106ab5790505b5090506000600190505b82811161109a57600260008281526020019081526020016000206040518060c0016040529081600082015481526020016001820160009054906101000a900473ffffffffffffffffffffffffffffffffffffffff1673ffffffffffffffffffffffffffffffffffffffff1673ffffffffffffffffffffffffffffffffffffffff16815260200160028201604051806102200160405290816000820180546107769061532a565b80601f01602080910402602001604051908101604052809291908181526020018280546107a29061532a565b80156107ef5780601f106107c4576101008083540402835291602001916107ef565b820191906000526020600020905b8154815290600101906020018083116107d257829003601f168201915b505050505081526020016001820180546108089061532a565b80601f01602080910402602001604051908101604052809291908181526020018280546108349061532a565b80156108815780601f1061085657610100808354040283529160200191610881565b820191906000526020600020905b81548152906001019060200180831161086457829003601f168201915b5050505050815260200160028201805461089a9061532a565b80601f01602080910402602001604051908101604052809291908181526020018280546108c69061532a565b80156109135780601f106108e857610100808354040283529160200191610913565b820191906000526020600020905b8154815290600101906020018083116108f657829003601f168201915b5050505050815260200160038201805461092c9061532a565b80601f01602080910402602001604051908101604052809291908181526020018280546109589061532a565b80156109a55780601f1061097a576101008083540402835291602001916109a5565b820191906000526020600020905b81548152906001019060200180831161098857829003601f168201915b505050505081526020016004820180546109be9061532a565b80601f01602080910402602001604051908101604052809291908181526020018280546109ea9061532a565b8015610a375780601f10610a0c57610100808354040283529160200191610a37565b820191906000526020600020905b815481529060010190602001808311610a1a57829003601f168201915b505050505081526020016005820160009054906101000a900460ff16151515158152602001600682018054610a6b9061532a565b80601f0160208091040260200160405190810160405280929190818152602001828054610a979061532a565b8015610ae45780601f10610ab957610100808354040283529160200191610ae4565b820191906000526020600020905b815481529060010190602001808311610ac757829003601f168201915b50505050508152602001600782018054610afd9061532a565b80601f0160208091040260200160405190810160405280929190818152602001828054610b299061532a565b8015610b765780601f10610b4b57610100808354040283529160200191610b76565b820191906000526020600020905b815481529060010190602001808311610b5957829003601f168201915b50505050508152602001600882018054610b8f9061532a565b80601f0160208091040260200160405190810160405280929190818152602001828054610bbb9061532a565b8015610c085780601f10610bdd57610100808354040283529160200191610c08565b820191906000526020600020905b815481529060010190602001808311610beb57829003601f168201915b50505050508152602001600982018054610c219061532a565b80601f0160208091040260200160405190810160405280929190818152602001828054610c4d9061532a565b8015610c9a5780601f10610c6f57610100808354040283529160200191610c9a565b820191906000526020600020905b815481529060010190602001808311610c7d57829003601f168201915b50505050508152602001600a820160009054906101000a900460ff16151515158152602001600b82018054610cce9061532a565b80601f0160208091040260200160405190810160405280929190818152602001828054610cfa9061532a565b8015610d475780601f10610d1c57610100808354040283529160200191610d47565b820191906000526020600020905b815481529060010190602001808311610d2a57829003601f168201915b50505050508152602001600c82018054610d609061532a565b80601f0160208091040260200160405190810160405280929190818152602001828054610d8c9061532a565b8015610dd95780601f10610dae57610100808354040283529160200191610dd9565b820191906000526020600020905b815481529060010190602001808311610dbc57829003601f168201915b50505050508152602001600d82018054610df29061532a565b80601f0160208091040260200160405190810160405280929190818152602001828054610e1e9061532a565b8015610e6b5780601f10610e4057610100808354040283529160200191610e6b565b820191906000526020600020905b815481529060010190602001808311610e4e57829003601f168201915b50505050508152602001600e82018054610e849061532a565b80601f0160208091040260200160405190810160405280929190818152602001828054610eb09061532a565b8015610efd5780601f10610ed257610100808354040283529160200191610efd565b820191906000526020600020905b815481529060010190602001808311610ee057829003601f168201915b50505050508152602001600f82018054610f169061532a565b80601f0160208091040260200160405190810160405280929190818152602001828054610f429061532a565b8015610f8f5780601f10610f6457610100808354040283529160200191610f8f565b820191906000526020600020905b815481529060010190602001808311610f7257829003601f168201915b50505050508152602001601082018054610fa89061532a565b80601f0160208091040260200160405190810160405280929190818152602001828054610fd49061532a565b80156110215780601f10610ff657610100808354040283529160200191611021565b820191906000526020600020905b81548152906001019060200180831161100457829003601f168201915b5050505050815250508152602001601382015481526020016014820160009054906101000a900460ff161515151581526020016015820154815250508260018361106b919061563f565b8151811061107c5761107b615673565b5b6020026020010181905250808061109290615093565b9150506106d0565b50809250505090565b81806002600083815260200190815260200160002060000154146110fc576040517f08c379a00000000000000000000000000000000000000000000000000000000081526004016110f3906156ee565b60405180910390fd5b823373ffffffffffffffffffffffffffffffffffffffff166002600083815260200190815260200160002060010160009054906101000a900473ffffffffffffffffffffffffffffffffffffffff1673ffffffffffffffffffffffffffffffffffffffff16146111a1576040517f08c379a000000000000000000000000000000000000000000000000000000000815260040161119890615780565b60405180910390fd5b826002600086815260200190815260200160002060020160100190816111c791906154fd565b5060008351116002600086815260200190815260200160002060140160006101000a81548160ff021916908315150217905550837f60b68b8d9dde04a1c7a3c8b7c6631c84bca71372b9f129b0958fd4d901a57e538460405161122a91906157a0565b60405180910390a250505050565b8180600260008381526020019081526020016000206000015414611291576040517f08c379a0000000000000000000000000000000000000000000000000000000008152600401611288906156ee565b60405180910390fd5b82828073ffffffffffffffffffffffffffffffffffffffff166002600084815260200190815260200160002060010160009054906101000a900473ffffffffffffffffffffffffffffffffffffffff1673ffffffffffffffffffffffffffffffffffffffff1603611337576040517f08c379a000000000000000000000000000000000000000000000000000000000815260040161132e90615834565b60405180910390fd5b84846003600083815260200190815260200160002060008273ffffffffffffffffffffffffffffffffffffffff1673ffffffffffffffffffffffffffffffffffffffff16815260200190815260200160002060009054906101000a900460ff16156113d7576040517f08c379a00000000000000000000000000000000000000000000000000000000081526004016113ce906158c6565b60405180910390fd5b6002600088815260200190815260200160002060130160008154809291906113fe90615093565b919050555060016003600089815260200190815260200160002060008873ffffffffffffffffffffffffffffffffffffffff1673ffffffffffffffffffffffffffffffffffffffff16815260200190815260200160002060006101000a81548160ff0219169083151502179055508573ffffffffffffffffffffffffffffffffffffffff16877f956f0f479292addd89f768b4b97612f546f78aae3d2b8a416a19c8b5b610b40560405160405180910390a350505050505050565b6114c1613d8b565b6114cb6000613e12565b565b60026020528060005260406000206000915090508060000154908060010160009054906101000a900473ffffffffffffffffffffffffffffffffffffffff1690806002016040518061022001604052908160008201805461152d9061532a565b80601f01602080910402602001604051908101604052809291908181526020018280546115599061532a565b80156115a65780601f1061157b576101008083540402835291602001916115a6565b820191906000526020600020905b81548152906001019060200180831161158957829003601f168201915b505050505081526020016001820180546115bf9061532a565b80601f01602080910402602001604051908101604052809291908181526020018280546115eb9061532a565b80156116385780601f1061160d57610100808354040283529160200191611638565b820191906000526020600020905b81548152906001019060200180831161161b57829003601f168201915b505050505081526020016002820180546116519061532a565b80601f016020809104026020016040519081016040528092919081815260200182805461167d9061532a565b80156116ca5780601f1061169f576101008083540402835291602001916116ca565b820191906000526020600020905b8154815290600101906020018083116116ad57829003601f168201915b505050505081526020016003820180546116e39061532a565b80601f016020809104026020016040519081016040528092919081815260200182805461170f9061532a565b801561175c5780601f106117315761010080835404028352916020019161175c565b820191906000526020600020905b81548152906001019060200180831161173f57829003601f168201915b505050505081526020016004820180546117759061532a565b80601f01602080910402602001604051908101604052809291908181526020018280546117a19061532a565b80156117ee5780601f106117c3576101008083540402835291602001916117ee565b820191906000526020600020905b8154815290600101906020018083116117d157829003601f168201915b505050505081526020016005820160009054906101000a900460ff161515151581526020016006820180546118229061532a565b80601f016020809104026020016040519081016040528092919081815260200182805461184e9061532a565b801561189b5780601f106118705761010080835404028352916020019161189b565b820191906000526020600020905b81548152906001019060200180831161187e57829003601f168201915b505050505081526020016007820180546118b49061532a565b80601f01602080910402602001604051908101604052809291908181526020018280546118e09061532a565b801561192d5780601f106119025761010080835404028352916020019161192d565b820191906000526020600020905b81548152906001019060200180831161191057829003601f168201915b505050505081526020016008820180546119469061532a565b80601f01602080910402602001604051908101604052809291908181526020018280546119729061532a565b80156119bf5780601f10611994576101008083540402835291602001916119bf565b820191906000526020600020905b8154815290600101906020018083116119a257829003601f168201915b505050505081526020016009820180546119d89061532a565b80601f0160208091040260200160405190810160405280929190818152602001828054611a049061532a565b8015611a515780601f10611a2657610100808354040283529160200191611a51565b820191906000526020600020905b815481529060010190602001808311611a3457829003601f168201915b50505050508152602001600a820160009054906101000a900460ff16151515158152602001600b82018054611a859061532a565b80601f0160208091040260200160405190810160405280929190818152602001828054611ab19061532a565b8015611afe5780601f10611ad357610100808354040283529160200191611afe565b820191906000526020600020905b815481529060010190602001808311611ae157829003601f168201915b50505050508152602001600c82018054611b179061532a565b80601f0160208091040260200160405190810160405280929190818152602001828054611b439061532a565b8015611b905780601f10611b6557610100808354040283529160200191611b90565b820191906000526020600020905b815481529060010190602001808311611b7357829003601f168201915b50505050508152602001600d82018054611ba99061532a565b80601f0160208091040260200160405190810160405280929190818152602001828054611bd59061532a565b8015611c225780601f10611bf757610100808354040283529160200191611c22565b820191906000526020600020905b815481529060010190602001808311611c0557829003601f168201915b50505050508152602001600e82018054611c3b9061532a565b80601f0160208091040260200160405190810160405280929190818152602001828054611c679061532a565b8015611cb45780601f10611c8957610100808354040283529160200191611cb4565b820191906000526020600020905b815481529060010190602001808311611c9757829003601f168201915b50505050508152602001600f82018054611ccd9061532a565b80601f0160208091040260200160405190810160405280929190818152602001828054611cf99061532a565b8015611d465780601f10611d1b57610100808354040283529160200191611d46565b820191906000526020600020905b815481529060010190602001808311611d2957829003601f168201915b50505050508152602001601082018054611d5f9061532a565b80601f0160208091040260200160405190810160405280929190818152602001828054611d8b9061532a565b8015611dd85780601f10611dad57610100808354040283529160200191611dd8565b820191906000526020600020905b815481529060010190602001808311611dbb57829003601f168201915b505050505081525050908060130154908060140160009054906101000a900460ff16908060150154905086565b60008060009054906101000a900473ffffffffffffffffffffffffffffffffffffffff16905090565b600460009054906101000a900473ffffffffffffffffffffffffffffffffffffffff1681565b60036020528160005260406000206020528060005260406000206000915091509054906101000a900460ff1681565b611e8b613ede565b8180600260008381526020019081526020016000206000015414611ee4576040517f08c379a0000000000000000000000000000000000000000000000000000000008152600401611edb906156ee565b60405180910390fd5b600260008481526020019081526020016000206040518060c0016040529081600082015481526020016001820160009054906101000a900473ffffffffffffffffffffffffffffffffffffffff1673ffffffffffffffffffffffffffffffffffffffff1673ffffffffffffffffffffffffffffffffffffffff1681526020016002820160405180610220016040529081600082018054611f839061532a565b80601f0160208091040260200160405190810160405280929190818152602001828054611faf9061532a565b8015611ffc5780601f10611fd157610100808354040283529160200191611ffc565b820191906000526020600020905b815481529060010190602001808311611fdf57829003601f168201915b505050505081526020016001820180546120159061532a565b80601f01602080910402602001604051908101604052809291908181526020018280546120419061532a565b801561208e5780601f106120635761010080835404028352916020019161208e565b820191906000526020600020905b81548152906001019060200180831161207157829003601f168201915b505050505081526020016002820180546120a79061532a565b80601f01602080910402602001604051908101604052809291908181526020018280546120d39061532a565b80156121205780601f106120f557610100808354040283529160200191612120565b820191906000526020600020905b81548152906001019060200180831161210357829003601f168201915b505050505081526020016003820180546121399061532a565b80601f01602080910402602001604051908101604052809291908181526020018280546121659061532a565b80156121b25780601f10612187576101008083540402835291602001916121b2565b820191906000526020600020905b81548152906001019060200180831161219557829003601f168201915b505050505081526020016004820180546121cb9061532a565b80601f01602080910402602001604051908101604052809291908181526020018280546121f79061532a565b80156122445780601f1061221957610100808354040283529160200191612244565b820191906000526020600020905b81548152906001019060200180831161222757829003601f168201915b505050505081526020016005820160009054906101000a900460ff161515151581526020016006820180546122789061532a565b80601f01602080910402602001604051908101604052809291908181526020018280546122a49061532a565b80156122f15780601f106122c6576101008083540402835291602001916122f1565b820191906000526020600020905b8154815290600101906020018083116122d457829003601f168201915b5050505050815260200160078201805461230a9061532a565b80601f01602080910402602001604051908101604052809291908181526020018280546123369061532a565b80156123835780601f1061235857610100808354040283529160200191612383565b820191906000526020600020905b81548152906001019060200180831161236657829003601f168201915b5050505050815260200160088201805461239c9061532a565b80601f01602080910402602001604051908101604052809291908181526020018280546123c89061532a565b80156124155780601f106123ea57610100808354040283529160200191612415565b820191906000526020600020905b8154815290600101906020018083116123f857829003601f168201915b5050505050815260200160098201805461242e9061532a565b80601f016020809104026020016040519081016040528092919081815260200182805461245a9061532a565b80156124a75780601f1061247c576101008083540402835291602001916124a7565b820191906000526020600020905b81548152906001019060200180831161248a57829003601f168201915b50505050508152602001600a820160009054906101000a900460ff16151515158152602001600b820180546124db9061532a565b80601f01602080910402602001604051908101604052809291908181526020018280546125079061532a565b80156125545780601f1061252957610100808354040283529160200191612554565b820191906000526020600020905b81548152906001019060200180831161253757829003601f168201915b50505050508152602001600c8201805461256d9061532a565b80601f01602080910402602001604051908101604052809291908181526020018280546125999061532a565b80156125e65780601f106125bb576101008083540402835291602001916125e6565b820191906000526020600020905b8154815290600101906020018083116125c957829003601f168201915b50505050508152602001600d820180546125ff9061532a565b80601f016020809104026020016040519081016040528092919081815260200182805461262b9061532a565b80156126785780601f1061264d57610100808354040283529160200191612678565b820191906000526020600020905b81548152906001019060200180831161265b57829003601f168201915b50505050508152602001600e820180546126919061532a565b80601f01602080910402602001604051908101604052809291908181526020018280546126bd9061532a565b801561270a5780601f106126df5761010080835404028352916020019161270a565b820191906000526020600020905b8154815290600101906020018083116126ed57829003601f168201915b50505050508152602001600f820180546127239061532a565b80601f016020809104026020016040519081016040528092919081815260200182805461274f9061532a565b801561279c5780601f106127715761010080835404028352916020019161279c565b820191906000526020600020905b81548152906001019060200180831161277f57829003601f168201915b505050505081526020016010820180546127b59061532a565b80601f01602080910402602001604051908101604052809291908181526020018280546127e19061532a565b801561282e5780601f106128035761010080835404028352916020019161282e565b820191906000526020600020905b81548152906001019060200180831161281157829003601f168201915b5050505050815250508152602001601382015481526020016014820160009054906101000a900460ff16151515158152602001601582015481525050915050919050565b606060006001549050600080600190505b8281116128ba5761289381613301565b156128a75781806128a390615093565b9250505b80806128b290615093565b915050612883565b5060008167ffffffffffffffff8111156128d7576128d6614042565b5b60405190808252806020026020018201604052801561291057816020015b6128fd613ede565b8152602001906001900390816128f55790505b509050600080600190505b8481116132f65761292b81613301565b156132e357600260008281526020019081526020016000206040518060c0016040529081600082015481526020016001820160009054906101000a900473ffffffffffffffffffffffffffffffffffffffff1673ffffffffffffffffffffffffffffffffffffffff1673ffffffffffffffffffffffffffffffffffffffff16815260200160028201604051806102200160405290816000820180546129cf9061532a565b80601f01602080910402602001604051908101604052809291908181526020018280546129fb9061532a565b8015612a485780601f10612a1d57610100808354040283529160200191612a48565b820191906000526020600020905b815481529060010190602001808311612a2b57829003601f168201915b50505050508152602001600182018054612a619061532a565b80601f0160208091040260200160405190810160405280929190818152602001828054612a8d9061532a565b8015612ada5780601f10612aaf57610100808354040283529160200191612ada565b820191906000526020600020905b815481529060010190602001808311612abd57829003601f168201915b50505050508152602001600282018054612af39061532a565b80601f0160208091040260200160405190810160405280929190818152602001828054612b1f9061532a565b8015612b6c5780601f10612b4157610100808354040283529160200191612b6c565b820191906000526020600020905b815481529060010190602001808311612b4f57829003601f168201915b50505050508152602001600382018054612b859061532a565b80601f0160208091040260200160405190810160405280929190818152602001828054612bb19061532a565b8015612bfe5780601f10612bd357610100808354040283529160200191612bfe565b820191906000526020600020905b815481529060010190602001808311612be157829003601f168201915b50505050508152602001600482018054612c179061532a565b80601f0160208091040260200160405190810160405280929190818152602001828054612c439061532a565b8015612c905780601f10612c6557610100808354040283529160200191612c90565b820191906000526020600020905b815481529060010190602001808311612c7357829003601f168201915b505050505081526020016005820160009054906101000a900460ff16151515158152602001600682018054612cc49061532a565b80601f0160208091040260200160405190810160405280929190818152602001828054612cf09061532a565b8015612d3d5780601f10612d1257610100808354040283529160200191612d3d565b820191906000526020600020905b815481529060010190602001808311612d2057829003601f168201915b50505050508152602001600782018054612d569061532a565b80601f0160208091040260200160405190810160405280929190818152602001828054612d829061532a565b8015612dcf5780601f10612da457610100808354040283529160200191612dcf565b820191906000526020600020905b815481529060010190602001808311612db257829003601f168201915b50505050508152602001600882018054612de89061532a565b80601f0160208091040260200160405190810160405280929190818152602001828054612e149061532a565b8015612e615780601f10612e3657610100808354040283529160200191612e61565b820191906000526020600020905b815481529060010190602001808311612e4457829003601f168201915b50505050508152602001600982018054612e7a9061532a565b80601f0160208091040260200160405190810160405280929190818152602001828054612ea69061532a565b8015612ef35780601f10612ec857610100808354040283529160200191612ef3565b820191906000526020600020905b815481529060010190602001808311612ed657829003601f168201915b50505050508152602001600a820160009054906101000a900460ff16151515158152602001600b82018054612f279061532a565b80601f0160208091040260200160405190810160405280929190818152602001828054612f539061532a565b8015612fa05780601f10612f7557610100808354040283529160200191612fa0565b820191906000526020600020905b815481529060010190602001808311612f8357829003601f168201915b50505050508152602001600c82018054612fb99061532a565b80601f0160208091040260200160405190810160405280929190818152602001828054612fe59061532a565b80156130325780601f1061300757610100808354040283529160200191613032565b820191906000526020600020905b81548152906001019060200180831161301557829003601f168201915b50505050508152602001600d8201805461304b9061532a565b80601f01602080910402602001604051908101604052809291908181526020018280546130779061532a565b80156130c45780601f10613099576101008083540402835291602001916130c4565b820191906000526020600020905b8154815290600101906020018083116130a757829003601f168201915b50505050508152602001600e820180546130dd9061532a565b80601f01602080910402602001604051908101604052809291908181526020018280546131099061532a565b80156131565780601f1061312b57610100808354040283529160200191613156565b820191906000526020600020905b81548152906001019060200180831161313957829003601f168201915b50505050508152602001600f8201805461316f9061532a565b80601f016020809104026020016040519081016040528092919081815260200182805461319b9061532a565b80156131e85780601f106131bd576101008083540402835291602001916131e8565b820191906000526020600020905b8154815290600101906020018083116131cb57829003601f168201915b505050505081526020016010820180546132019061532a565b80601f016020809104026020016040519081016040528092919081815260200182805461322d9061532a565b801561327a5780601f1061324f5761010080835404028352916020019161327a565b820191906000526020600020905b81548152906001019060200180831161325d57829003601f168201915b5050505050815250508152602001601382015481526020016014820160009054906101000a900460ff161515151581526020016015820154815250508383815181106132c9576132c8615673565b5b602002602001018190525081806132df90615093565b9250505b80806132ee90615093565b91505061291b565b508194505050505090565b6000818060026000838152602001908152602001600020600001541461335c576040517f08c379a0000000000000000000000000000000000000000000000000000000008152600401613353906156ee565b60405180910390fd5b6000600260008581526020019081526020016000206040518060c0016040529081600082015481526020016001820160009054906101000a900473ffffffffffffffffffffffffffffffffffffffff1673ffffffffffffffffffffffffffffffffffffffff1673ffffffffffffffffffffffffffffffffffffffff16815260200160028201604051806102200160405290816000820180546133fd9061532a565b80601f01602080910402602001604051908101604052809291908181526020018280546134299061532a565b80156134765780601f1061344b57610100808354040283529160200191613476565b820191906000526020600020905b81548152906001019060200180831161345957829003601f168201915b5050505050815260200160018201805461348f9061532a565b80601f01602080910402602001604051908101604052809291908181526020018280546134bb9061532a565b80156135085780601f106134dd57610100808354040283529160200191613508565b820191906000526020600020905b8154815290600101906020018083116134eb57829003601f168201915b505050505081526020016002820180546135219061532a565b80601f016020809104026020016040519081016040528092919081815260200182805461354d9061532a565b801561359a5780601f1061356f5761010080835404028352916020019161359a565b820191906000526020600020905b81548152906001019060200180831161357d57829003601f168201915b505050505081526020016003820180546135b39061532a565b80601f01602080910402602001604051908101604052809291908181526020018280546135df9061532a565b801561362c5780601f106136015761010080835404028352916020019161362c565b820191906000526020600020905b81548152906001019060200180831161360f57829003601f168201915b505050505081526020016004820180546136459061532a565b80601f01602080910402602001604051908101604052809291908181526020018280546136719061532a565b80156136be5780601f10613693576101008083540402835291602001916136be565b820191906000526020600020905b8154815290600101906020018083116136a157829003601f168201915b505050505081526020016005820160009054906101000a900460ff161515151581526020016006820180546136f29061532a565b80601f016020809104026020016040519081016040528092919081815260200182805461371e9061532a565b801561376b5780601f106137405761010080835404028352916020019161376b565b820191906000526020600020905b81548152906001019060200180831161374e57829003601f168201915b505050505081526020016007820180546137849061532a565b80601f01602080910402602001604051908101604052809291908181526020018280546137b09061532a565b80156137fd5780601f106137d2576101008083540402835291602001916137fd565b820191906000526020600020905b8154815290600101906020018083116137e057829003601f168201915b505050505081526020016008820180546138169061532a565b80601f01602080910402602001604051908101604052809291908181526020018280546138429061532a565b801561388f5780601f106138645761010080835404028352916020019161388f565b820191906000526020600020905b81548152906001019060200180831161387257829003601f168201915b505050505081526020016009820180546138a89061532a565b80601f01602080910402602001604051908101604052809291908181526020018280546138d49061532a565b80156139215780601f106138f657610100808354040283529160200191613921565b820191906000526020600020905b81548152906001019060200180831161390457829003601f168201915b50505050508152602001600a820160009054906101000a900460ff16151515158152602001600b820180546139559061532a565b80601f01602080910402602001604051908101604052809291908181526020018280546139819061532a565b80156139ce5780601f106139a3576101008083540402835291602001916139ce565b820191906000526020600020905b8154815290600101906020018083116139b157829003601f168201915b50505050508152602001600c820180546139e79061532a565b80601f0160208091040260200160405190810160405280929190818152602001828054613a139061532a565b8015613a605780601f10613a3557610100808354040283529160200191613a60565b820191906000526020600020905b815481529060010190602001808311613a4357829003601f168201915b50505050508152602001600d82018054613a799061532a565b80601f0160208091040260200160405190810160405280929190818152602001828054613aa59061532a565b8015613af25780601f10613ac757610100808354040283529160200191613af2565b820191906000526020600020905b815481529060010190602001808311613ad557829003601f168201915b50505050508152602001600e82018054613b0b9061532a565b80601f0160208091040260200160405190810160405280929190818152602001828054613b379061532a565b8015613b845780601f10613b5957610100808354040283529160200191613b84565b820191906000526020600020905b815481529060010190602001808311613b6757829003601f168201915b50505050508152602001600f82018054613b9d9061532a565b80601f0160208091040260200160405190810160405280929190818152602001828054613bc99061532a565b8015613c165780601f10613beb57610100808354040283529160200191613c16565b820191906000526020600020905b815481529060010190602001808311613bf957829003601f168201915b50505050508152602001601082018054613c2f9061532a565b80601f0160208091040260200160405190810160405280929190818152602001828054613c5b9061532a565b8015613ca85780601f10613c7d57610100808354040283529160200191613ca8565b820191906000526020600020905b815481529060010190602001808311613c8b57829003601f168201915b5050505050815250508152602001601382015481526020016014820160009054906101000a900460ff161515151581526020016015820154815250509050620151808160a00151613cf991906158e6565b42101592505050919050565b613d0d613d8b565b600073ffffffffffffffffffffffffffffffffffffffff168173ffffffffffffffffffffffffffffffffffffffff1603613d7f5760006040517f1e4fbdf7000000000000000000000000000000000000000000000000000000008152600401613d769190614edc565b60405180910390fd5b613d8881613e12565b50565b613d93613ed6565b73ffffffffffffffffffffffffffffffffffffffff16613db1611e05565b73ffffffffffffffffffffffffffffffffffffffff1614613e1057613dd4613ed6565b6040517f118cdaa7000000000000000000000000000000000000000000000000000000008152600401613e079190614edc565b60405180910390fd5b565b60008060009054906101000a900473ffffffffffffffffffffffffffffffffffffffff169050816000806101000a81548173ffffffffffffffffffffffffffffffffffffffff021916908373ffffffffffffffffffffffffffffffffffffffff1602179055508173ffffffffffffffffffffffffffffffffffffffff168173ffffffffffffffffffffffffffffffffffffffff167f8be0079c531659141344cd1fd0a4f28419497f9722a3daafe3b4186f6b6457e060405160405180910390a35050565b600033905090565b6040518060c0016040528060008152602001600073ffffffffffffffffffffffffffffffffffffffff168152602001613f15613f32565b815260200160008152602001600015158152602001600081525090565b6040518061022001604052806060815260200160608152602001606081526020016060815260200160608152602001600015158152602001606081526020016060815260200160608152602001606081526020016000151581526020016060815260200160608152602001606081526020016060815260200160608152602001606081525090565b6000604051905090565b600080fd5b600080fd5b600073ffffffffffffffffffffffffffffffffffffffff82169050919050565b6000613ff982613fce565b9050919050565b61400981613fee565b811461401457600080fd5b50565b60008135905061402681614000565b92915050565b600080fd5b6000601f19601f8301169050919050565b7f4e487b7100000000000000000000000000000000000000000000000000000000600052604160045260246000fd5b61407a82614031565b810181811067ffffffffffffffff8211171561409957614098614042565b5b80604052505050565b60006140ac613fba565b90506140b88282614071565b919050565b600080fd5b600080fd5b600080fd5b600067ffffffffffffffff8211156140e7576140e6614042565b5b6140f082614031565b9050602081019050919050565b82818337600083830152505050565b600061411f61411a846140cc565b6140a2565b90508281526020810184848401111561413b5761413a6140c7565b5b6141468482856140fd565b509392505050565b600082601f830112614163576141626140c2565b5b813561417384826020860161410c565b91505092915050565b60008115159050919050565b6141918161417c565b811461419c57600080fd5b50565b6000813590506141ae81614188565b92915050565b600061022082840312156141cb576141ca61402c565b5b6141d66102206140a2565b9050600082013567ffffffffffffffff8111156141f6576141f56140bd565b5b6142028482850161414e565b600083015250602082013567ffffffffffffffff811115614226576142256140bd565b5b6142328482850161414e565b602083015250604082013567ffffffffffffffff811115614256576142556140bd565b5b6142628482850161414e565b604083015250606082013567ffffffffffffffff811115614286576142856140bd565b5b6142928482850161414e565b606083015250608082013567ffffffffffffffff8111156142b6576142b56140bd565b5b6142c28482850161414e565b60808301525060a06142d68482850161419f565b60a08301525060c082013567ffffffffffffffff8111156142fa576142f96140bd565b5b6143068482850161414e565b60c08301525060e082013567ffffffffffffffff81111561432a576143296140bd565b5b6143368482850161414e565b60e08301525061010082013567ffffffffffffffff81111561435b5761435a6140bd565b5b6143678482850161414e565b6101008301525061012082013567ffffffffffffffff81111561438d5761438c6140bd565b5b6143998482850161414e565b610120830152506101406143af8482850161419f565b6101408301525061016082013567ffffffffffffffff8111156143d5576143d46140bd565b5b6143e18482850161414e565b6101608301525061018082013567ffffffffffffffff811115614407576144066140bd565b5b6144138482850161414e565b610180830152506101a082013567ffffffffffffffff811115614439576144386140bd565b5b6144458482850161414e565b6101a0830152506101c082013567ffffffffffffffff81111561446b5761446a6140bd565b5b6144778482850161414e565b6101c0830152506101e082013567ffffffffffffffff81111561449d5761449c6140bd565b5b6144a98482850161414e565b6101e08301525061020082013567ffffffffffffffff8111156144cf576144ce6140bd565b5b6144db8482850161414e565b6102008301525092915050565b6000819050919050565b6144fb816144e8565b811461450657600080fd5b50565b600081359050614518816144f2565b92915050565b600067ffffffffffffffff82111561453957614538614042565b5b602082029050602081019050919050565b600080fd5b600061456261455d8461451e565b6140a2565b905080838252602082019050602084028301858111156145855761458461454a565b5b835b818110156145cc57803567ffffffffffffffff8111156145aa576145a96140c2565b5b8086016145b7898261414e565b85526020850194505050602081019050614587565b5050509392505050565b600082601f8301126145eb576145ea6140c2565b5b81356145fb84826020860161454f565b91505092915050565b600060e0828403121561461a5761461961402c565b5b61462460e06140a2565b9050600082013567ffffffffffffffff811115614644576146436140bd565b5b6146508482850161414e565b600083015250602061466484828501614509565b602083015250604082013567ffffffffffffffff811115614688576146876140bd565b5b6146948482850161414e565b604083015250606082013567ffffffffffffffff8111156146b8576146b76140bd565b5b6146c4848285016145d6565b60608301525060806146d884828501614509565b60808301525060a06146ec84828501614509565b60a08301525060c082013567ffffffffffffffff8111156147105761470f6140bd565b5b61471c8482850161414e565b60c08301525092915050565b6000806000806080858703121561474257614741613fc4565b5b600061475087828801614017565b945050602085013567ffffffffffffffff81111561477157614770613fc9565b5b61477d878288016141b4565b935050604061478e8782880161419f565b925050606085013567ffffffffffffffff8111156147af576147ae613fc9565b5b6147bb87828801614604565b91505092959194509250565b600081519050919050565b600082825260208201905092915050565b6000819050602082019050919050565b6147fc816144e8565b82525050565b61480b81613fee565b82525050565b600081519050919050565b600082825260208201905092915050565b60005b8381101561484b578082015181840152602081019050614830565b60008484015250505050565b600061486282614811565b61486c818561481c565b935061487c81856020860161482d565b61488581614031565b840191505092915050565b6148998161417c565b82525050565b60006102208301600083015184820360008601526148bd8282614857565b915050602083015184820360208601526148d78282614857565b915050604083015184820360408601526148f18282614857565b9150506060830151848203606086015261490b8282614857565b915050608083015184820360808601526149258282614857565b91505060a083015161493a60a0860182614890565b5060c083015184820360c08601526149528282614857565b91505060e083015184820360e086015261496c8282614857565b9150506101008301518482036101008601526149888282614857565b9150506101208301518482036101208601526149a48282614857565b9150506101408301516149bb610140860182614890565b506101608301518482036101608601526149d58282614857565b9150506101808301518482036101808601526149f18282614857565b9150506101a08301518482036101a0860152614a0d8282614857565b9150506101c08301518482036101c0860152614a298282614857565b9150506101e08301518482036101e0860152614a458282614857565b915050610200830151848203610200860152614a618282614857565b9150508091505092915050565b600060c083016000830151614a8660008601826147f3565b506020830151614a996020860182614802565b5060408301518482036040860152614ab1828261489f565b9150506060830151614ac660608601826147f3565b506080830151614ad96080860182614890565b5060a0830151614aec60a08601826147f3565b508091505092915050565b6000614b038383614a6e565b905092915050565b6000602082019050919050565b6000614b23826147c7565b614b2d81856147d2565b935083602082028501614b3f856147e3565b8060005b85811015614b7b5784840389528151614b5c8582614af7565b9450614b6783614b0b565b925060208a01995050600181019050614b43565b50829750879550505050505092915050565b60006020820190508181036000830152614ba78184614b18565b905092915050565b60008060408385031215614bc657614bc5613fc4565b5b6000614bd485828601614509565b925050602083013567ffffffffffffffff811115614bf557614bf4613fc9565b5b614c018582860161414e565b9150509250929050565b60008060408385031215614c2257614c21613fc4565b5b6000614c3085828601614509565b9250506020614c4185828601614017565b9150509250929050565b600060208284031215614c6157614c60613fc4565b5b6000614c6f84828501614509565b91505092915050565b614c81816144e8565b82525050565b614c9081613fee565b82525050565b6000610220830160008301518482036000860152614cb48282614857565b91505060208301518482036020860152614cce8282614857565b91505060408301518482036040860152614ce88282614857565b91505060608301518482036060860152614d028282614857565b91505060808301518482036080860152614d1c8282614857565b91505060a0830151614d3160a0860182614890565b5060c083015184820360c0860152614d498282614857565b91505060e083015184820360e0860152614d638282614857565b915050610100830151848203610100860152614d7f8282614857565b915050610120830151848203610120860152614d9b8282614857565b915050610140830151614db2610140860182614890565b50610160830151848203610160860152614dcc8282614857565b915050610180830151848203610180860152614de88282614857565b9150506101a08301518482036101a0860152614e048282614857565b9150506101c08301518482036101c0860152614e208282614857565b9150506101e08301518482036101e0860152614e3c8282614857565b915050610200830151848203610200860152614e588282614857565b9150508091505092915050565b614e6e8161417c565b82525050565b600060c082019050614e896000830189614c78565b614e966020830188614c87565b8181036040830152614ea88187614c96565b9050614eb76060830186614c78565b614ec46080830185614e65565b614ed160a0830184614c78565b979650505050505050565b6000602082019050614ef16000830184614c87565b92915050565b6000819050919050565b6000614f1c614f17614f1284613fce565b614ef7565b613fce565b9050919050565b6000614f2e82614f01565b9050919050565b6000614f4082614f23565b9050919050565b614f5081614f35565b82525050565b6000602082019050614f6b6000830184614f47565b92915050565b6000602082019050614f866000830184614e65565b92915050565b600060c083016000830151614fa460008601826147f3565b506020830151614fb76020860182614802565b5060408301518482036040860152614fcf828261489f565b9150506060830151614fe460608601826147f3565b506080830151614ff76080860182614890565b5060a083015161500a60a08601826147f3565b508091505092915050565b6000602082019050818103600083015261502f8184614f8c565b905092915050565b60006020828403121561504d5761504c613fc4565b5b600061505b84828501614017565b91505092915050565b7f4e487b7100000000000000000000000000000000000000000000000000000000600052601160045260246000fd5b600061509e826144e8565b91507fffffffffffffffffffffffffffffffffffffffffffffffffffffffffffffffff82036150d0576150cf615064565b5b600182019050919050565b600082825260208201905092915050565b7f426574612074657374696e67206c696e6b207265717569726564000000000000600082015250565b6000615122601a836150db565b915061512d826150ec565b602082019050919050565b6000602082019050818103600083015261515181615115565b9050919050565b600081519050919050565b600082825260208201905092915050565b6000819050602082019050919050565b60006151908383614857565b905092915050565b6000602082019050919050565b60006151b082615158565b6151ba8185615163565b9350836020820285016151cc85615174565b8060005b8581101561520857848403895281516151e98582615184565b94506151f483615198565b925060208a019950506001810190506151d0565b50829750879550505050505092915050565b600060e08301600083015184820360008601526152378282614857565b915050602083015161524c60208601826147f3565b50604083015184820360408601526152648282614857565b9150506060830151848203606086015261527e82826151a5565b915050608083015161529360808601826147f3565b5060a08301516152a660a08601826147f3565b5060c083015184820360c08601526152be8282614857565b9150508091505092915050565b60006040820190506152e06000830185614c78565b81810360208301526152f2818461521a565b90509392505050565b7f4e487b7100000000000000000000000000000000000000000000000000000000600052602260045260246000fd5b6000600282049050600182168061534257607f821691505b602082108103615355576153546152fb565b5b50919050565b60008190508160005260206000209050919050565b60006020601f8301049050919050565b600082821b905092915050565b6000600883026153bd7fffffffffffffffffffffffffffffffffffffffffffffffffffffffffffffffff82615380565b6153c78683615380565b95508019841693508086168417925050509392505050565b60006153fa6153f56153f0846144e8565b614ef7565b6144e8565b9050919050565b6000819050919050565b615414836153df565b61542861542082615401565b84845461538d565b825550505050565b600090565b61543d615430565b61544881848461540b565b505050565b5b8181101561546c57615461600082615435565b60018101905061544e565b5050565b601f8211156154b1576154828161535b565b61548b84615370565b8101602085101561549a578190505b6154ae6154a685615370565b83018261544d565b50505b505050565b600082821c905092915050565b60006154d4600019846008026154b6565b1980831691505092915050565b60006154ed83836154c3565b9150826002028217905092915050565b61550682614811565b67ffffffffffffffff81111561551f5761551e614042565b5b615529825461532a565b615534828285615470565b600060209050601f8311600181146155675760008415615555578287015190505b61555f85826154e1565b8655506155c7565b601f1984166155758661535b565b60005b8281101561559d57848901518255600182019150602085019450602081019050615578565b868310156155ba57848901516155b6601f8916826154c3565b8355505b6001600288020188555050505b505050505050565b60006155da82614811565b6155e481856150db565b93506155f481856020860161482d565b6155fd81614031565b840191505092915050565b6000604082019050818103600083015261562281856155cf565b9050818103602083015261563681846155cf565b90509392505050565b600061564a826144e8565b9150615655836144e8565b925082820390508181111561566d5761566c615064565b5b92915050565b7f4e487b7100000000000000000000000000000000000000000000000000000000600052603260045260246000fd5b7f50726f6475637420646f6573206e6f7420657869737400000000000000000000600082015250565b60006156d86016836150db565b91506156e3826156a2565b602082019050919050565b60006020820190508181036000830152615707816156cb565b9050919050565b7f4f6e6c79207468652070726f64756374206f776e65722063616e20706572666f60008201527f726d207468697320616374696f6e000000000000000000000000000000000000602082015250565b600061576a602e836150db565b91506157758261570e565b604082019050919050565b600060208201905081810360008301526157998161575d565b9050919050565b600060208201905081810360008301526157ba81846155cf565b905092915050565b7f50726f64756374206f776e65722063616e6e6f74207570766f7465207468656960008201527f72206f776e2070726f6475637400000000000000000000000000000000000000602082015250565b600061581e602d836150db565b9150615829826157c2565b604082019050919050565b6000602082019050818103600083015261584d81615811565b9050919050565b7f557365722068617320616c7265616479207570766f746564207468697320707260008201527f6f64756374000000000000000000000000000000000000000000000000000000602082015250565b60006158b06025836150db565b91506158bb82615854565b604082019050919050565b600060208201905081810360008301526158df816158a3565b9050919050565b60006158f1826144e8565b91506158fc836144e8565b925082820190508082111561591457615913615064565b5b9291505056fea2646970667358221220be9f02150c78944b8484a50348c2c2899c221b2e6625b611853e63d6c0b6536c64736f6c63430008180033",
  "linkReferences": {},
  "deployedLinkReferences": {}
}