{
  "_format": "hh-sol-artifact-1",
  "contractName": "UserInfo",
  "sourceName": "contracts/UserInfo.sol",
  "abi": [
    {
      "anonymous": false,
      "inputs": [
        {
          "indexed": true,
          "internalType": "address",
          "name": "userAddress",
          "type": "address"
        },
        {
          "indexed": false,
          "internalType": "string",
          "name": "username",
          "type": "string"
        }
      ],
      "name": "UserAdded",
      "type": "event"
    },
    {
      "anonymous": false,
      "inputs": [
        {
          "indexed": true,
          "internalType": "address",
          "name": "userAddress",
          "type": "address"
        },
        {
          "indexed": false,
          "internalType": "string[]",
          "name": "interests",
          "type": "string[]"
        }
      ],
      "name": "UserInterestsUpdated",
      "type": "event"
    },
    {
      "anonymous": false,
      "inputs": [
        {
          "indexed": true,
          "internalType": "address",
          "name": "userAddress",
          "type": "address"
        },
        {
          "indexed": false,
          "internalType": "string",
          "name": "username",
          "type": "string"
        }
      ],
      "name": "UserUpdated",
      "type": "event"
    },
    {
      "inputs": [
        {
          "internalType": "address",
          "name": "userAddress",
          "type": "address"
        },
        {
          "internalType": "string",
          "name": "username",
          "type": "string"
        },
        {
          "internalType": "string",
          "name": "email",
          "type": "string"
        },
        {
          "internalType": "string",
          "name": "bio",
          "type": "string"
        },
        {
          "internalType": "string[]",
          "name": "interests",
          "type": "string[]"
        }
      ],
      "name": "addUser",
      "outputs": [],
      "stateMutability": "nonpayable",
      "type": "function"
    },
    {
      "inputs": [
        {
          "internalType": "address",
          "name": "userAddress",
          "type": "address"
        }
      ],
      "name": "deleteUser",
      "outputs": [],
      "stateMutability": "nonpayable",
      "type": "function"
    },
    {
      "inputs": [
        {
          "internalType": "address",
          "name": "userAddress",
          "type": "address"
        }
      ],
      "name": "getUser",
      "outputs": [
        {
          "internalType": "string",
          "name": "username",
          "type": "string"
        },
        {
          "internalType": "string",
          "name": "email",
          "type": "string"
        },
        {
          "internalType": "string",
          "name": "bio",
          "type": "string"
        },
        {
          "internalType": "string[]",
          "name": "interests",
          "type": "string[]"
        }
      ],
      "stateMutability": "view",
      "type": "function"
    },
    {
      "inputs": [
        {
          "internalType": "address",
          "name": "userAddress",
          "type": "address"
        }
      ],
      "name": "getUserInterests",
      "outputs": [
        {
          "internalType": "string[]",
          "name": "interests",
          "type": "string[]"
        }
      ],
      "stateMutability": "view",
      "type": "function"
    },
    {
      "inputs": [
        {
          "internalType": "address",
          "name": "userAddress",
          "type": "address"
        },
        {
          "internalType": "string",
          "name": "username",
          "type": "string"
        },
        {
          "internalType": "string",
          "name": "email",
          "type": "string"
        },
        {
          "internalType": "string",
          "name": "bio",
          "type": "string"
        }
      ],
      "name": "updateUser",
      "outputs": [],
      "stateMutability": "nonpayable",
      "type": "function"
    },
    {
      "inputs": [
        {
          "internalType": "address",
          "name": "userAddress",
          "type": "address"
        },
        {
          "internalType": "string[]",
          "name": "interests",
          "type": "string[]"
        }
      ],
      "name": "updateUserInterests",
      "outputs": [],
      "stateMutability": "nonpayable",
      "type": "function"
    },
    {
      "inputs": [
        {
          "internalType": "address",
          "name": "userAddress",
          "type": "address"
        }
      ],
      "name": "userExists",
      "outputs": [
        {
          "internalType": "bool",
          "name": "",
          "type": "bool"
        }
      ],
      "stateMutability": "view",
      "type": "function"
    }
  ],
  "bytecode": "0x608060405234801561001057600080fd5b5061187a806100206000396000f3fe608060405234801561001057600080fd5b506004361061007d5760003560e01c80636f77926b1161005b5780636f77926b146100ea5780637d8494bc1461011d578063ef0c886d1461014d578063f78ca672146101695761007d565b80630da4578b146100825780630e666e491461009e5780635c60f226146100ce575b600080fd5b61009c60048036038101906100979190610f09565b610185565b005b6100b860048036038101906100b39190610fc4565b6102e4565b6040516100c5919061100c565b60405180910390f35b6100e860048036038101906100e39190610fc4565b61033d565b005b61010460048036038101906100ff9190610fc4565b610453565b60405161011494939291906111b2565b60405180910390f35b61013760048036038101906101329190610fc4565b6107c4565b6040516101449190611213565b60405180910390f35b6101676004803603810190610162919061131b565b610970565b005b610183600480360381019061017e9190611406565b610b16565b005b8360008060008373ffffffffffffffffffffffffffffffffffffffff1673ffffffffffffffffffffffffffffffffffffffff16815260200190815260200160002060000180546101d490611491565b905011610216576040517f08c379a000000000000000000000000000000000000000000000000000000000815260040161020d9061150e565b60405180910390fd5b60008060008773ffffffffffffffffffffffffffffffffffffffff1673ffffffffffffffffffffffffffffffffffffffff16815260200190815260200160002090508481600001908161026991906116e4565b508381600101908161027b91906116e4565b508281600201908161028d91906116e4565b508573ffffffffffffffffffffffffffffffffffffffff167fd6136f3cad7c60bfc24bbf1548f39f766ca8bce104bf9adde3deb6237dec51df866040516102d491906117b6565b60405180910390a2505050505050565b6000806000808473ffffffffffffffffffffffffffffffffffffffff1673ffffffffffffffffffffffffffffffffffffffff168152602001908152602001600020600001805461033390611491565b9050119050919050565b8060008060008373ffffffffffffffffffffffffffffffffffffffff1673ffffffffffffffffffffffffffffffffffffffff168152602001908152602001600020600001805461038c90611491565b9050116103ce576040517f08c379a00000000000000000000000000000000000000000000000000000000081526004016103c59061150e565b60405180910390fd5b6000808373ffffffffffffffffffffffffffffffffffffffff1673ffffffffffffffffffffffffffffffffffffffff1681526020019081526020016000206000808201600061041d9190610c56565b60018201600061042d9190610c56565b60028201600061043d9190610c56565b60038201600061044d9190610c96565b50505050565b6060806060808460008060008373ffffffffffffffffffffffffffffffffffffffff1673ffffffffffffffffffffffffffffffffffffffff16815260200190815260200160002060000180546104a890611491565b9050116104ea576040517f08c379a00000000000000000000000000000000000000000000000000000000081526004016104e19061150e565b60405180910390fd5b60008060008873ffffffffffffffffffffffffffffffffffffffff1673ffffffffffffffffffffffffffffffffffffffff16815260200190815260200160002090508060000181600101826002018360030183805461054890611491565b80601f016020809104026020016040519081016040528092919081815260200182805461057490611491565b80156105c15780601f10610596576101008083540402835291602001916105c1565b820191906000526020600020905b8154815290600101906020018083116105a457829003601f168201915b505050505093508280546105d490611491565b80601f016020809104026020016040519081016040528092919081815260200182805461060090611491565b801561064d5780601f106106225761010080835404028352916020019161064d565b820191906000526020600020905b81548152906001019060200180831161063057829003601f168201915b5050505050925081805461066090611491565b80601f016020809104026020016040519081016040528092919081815260200182805461068c90611491565b80156106d95780601f106106ae576101008083540402835291602001916106d9565b820191906000526020600020905b8154815290600101906020018083116106bc57829003601f168201915b5050505050915080805480602002602001604051908101604052809291908181526020016000905b828210156107ad57838290600052602060002001805461072090611491565b80601f016020809104026020016040519081016040528092919081815260200182805461074c90611491565b80156107995780601f1061076e57610100808354040283529160200191610799565b820191906000526020600020905b81548152906001019060200180831161077c57829003601f168201915b505050505081526020019060010190610701565b505050509050955095509550955050509193509193565b60608160008060008373ffffffffffffffffffffffffffffffffffffffff1673ffffffffffffffffffffffffffffffffffffffff168152602001908152602001600020600001805461081590611491565b905011610857576040517f08c379a000000000000000000000000000000000000000000000000000000000815260040161084e9061150e565b60405180910390fd5b6000808473ffffffffffffffffffffffffffffffffffffffff1673ffffffffffffffffffffffffffffffffffffffff168152602001908152602001600020600301805480602002602001604051908101604052809291908181526020016000905b828210156109645783829060005260206000200180546108d790611491565b80601f016020809104026020016040519081016040528092919081815260200182805461090390611491565b80156109505780601f1061092557610100808354040283529160200191610950565b820191906000526020600020905b81548152906001019060200180831161093357829003601f168201915b5050505050815260200190600101906108b8565b50505050915050919050565b60008060008773ffffffffffffffffffffffffffffffffffffffff1673ffffffffffffffffffffffffffffffffffffffff16815260200190815260200160002060000180546109be90611491565b905014610a00576040517f08c379a00000000000000000000000000000000000000000000000000000000081526004016109f790611824565b60405180910390fd5b6040518060800160405280858152602001848152602001838152602001828152506000808773ffffffffffffffffffffffffffffffffffffffff1673ffffffffffffffffffffffffffffffffffffffff1681526020019081526020016000206000820151816000019081610a7491906116e4565b506020820151816001019081610a8a91906116e4565b506040820151816002019081610aa091906116e4565b506060820151816003019080519060200190610abd929190610cb7565b509050508473ffffffffffffffffffffffffffffffffffffffff167fa56e21173460286ea98fc3defc7671b9b8e2ff0c6acea8d6ed30b343724e23fa85604051610b0791906117b6565b60405180910390a25050505050565b8160008060008373ffffffffffffffffffffffffffffffffffffffff1673ffffffffffffffffffffffffffffffffffffffff1681526020019081526020016000206000018054610b6590611491565b905011610ba7576040517f08c379a0000000000000000000000000000000000000000000000000000000008152600401610b9e9061150e565b60405180910390fd5b60008060008573ffffffffffffffffffffffffffffffffffffffff1673ffffffffffffffffffffffffffffffffffffffff168152602001908152602001600020905082816003019080519060200190610c01929190610cb7565b508373ffffffffffffffffffffffffffffffffffffffff167f10d4a05fe562c87eeb724c04dacfc6b6a0e63b80cd3ddf42d58bb51058aaacda84604051610c489190611213565b60405180910390a250505050565b508054610c6290611491565b6000825580601f10610c745750610c93565b601f016020900490600052602060002090810190610c929190610d10565b5b50565b5080546000825590600052602060002090810190610cb49190610d2d565b50565b828054828255906000526020600020908101928215610cff579160200282015b82811115610cfe578251829081610cee91906116e4565b5091602001919060010190610cd7565b5b509050610d0c9190610d2d565b5090565b5b80821115610d29576000816000905550600101610d11565b5090565b5b80821115610d4d5760008181610d449190610c56565b50600101610d2e565b5090565b6000604051905090565b600080fd5b600080fd5b600073ffffffffffffffffffffffffffffffffffffffff82169050919050565b6000610d9082610d65565b9050919050565b610da081610d85565b8114610dab57600080fd5b50565b600081359050610dbd81610d97565b92915050565b600080fd5b600080fd5b6000601f19601f8301169050919050565b7f4e487b7100000000000000000000000000000000000000000000000000000000600052604160045260246000fd5b610e1682610dcd565b810181811067ffffffffffffffff82111715610e3557610e34610dde565b5b80604052505050565b6000610e48610d51565b9050610e548282610e0d565b919050565b600067ffffffffffffffff821115610e7457610e73610dde565b5b610e7d82610dcd565b9050602081019050919050565b82818337600083830152505050565b6000610eac610ea784610e59565b610e3e565b905082815260208101848484011115610ec857610ec7610dc8565b5b610ed3848285610e8a565b509392505050565b600082601f830112610ef057610eef610dc3565b5b8135610f00848260208601610e99565b91505092915050565b60008060008060808587031215610f2357610f22610d5b565b5b6000610f3187828801610dae565b945050602085013567ffffffffffffffff811115610f5257610f51610d60565b5b610f5e87828801610edb565b935050604085013567ffffffffffffffff811115610f7f57610f7e610d60565b5b610f8b87828801610edb565b925050606085013567ffffffffffffffff811115610fac57610fab610d60565b5b610fb887828801610edb565b91505092959194509250565b600060208284031215610fda57610fd9610d5b565b5b6000610fe884828501610dae565b91505092915050565b60008115159050919050565b61100681610ff1565b82525050565b60006020820190506110216000830184610ffd565b92915050565b600081519050919050565b600082825260208201905092915050565b60005b83811015611061578082015181840152602081019050611046565b60008484015250505050565b600061107882611027565b6110828185611032565b9350611092818560208601611043565b61109b81610dcd565b840191505092915050565b600081519050919050565b600082825260208201905092915050565b6000819050602082019050919050565b600082825260208201905092915050565b60006110ee82611027565b6110f881856110d2565b9350611108818560208601611043565b61111181610dcd565b840191505092915050565b600061112883836110e3565b905092915050565b6000602082019050919050565b6000611148826110a6565b61115281856110b1565b935083602082028501611164856110c2565b8060005b858110156111a05784840389528151611181858261111c565b945061118c83611130565b925060208a01995050600181019050611168565b50829750879550505050505092915050565b600060808201905081810360008301526111cc818761106d565b905081810360208301526111e0818661106d565b905081810360408301526111f4818561106d565b90508181036060830152611208818461113d565b905095945050505050565b6000602082019050818103600083015261122d818461113d565b905092915050565b600067ffffffffffffffff8211156112505761124f610dde565b5b602082029050602081019050919050565b600080fd5b600061127961127484611235565b610e3e565b9050808382526020820190506020840283018581111561129c5761129b611261565b5b835b818110156112e357803567ffffffffffffffff8111156112c1576112c0610dc3565b5b8086016112ce8982610edb565b8552602085019450505060208101905061129e565b5050509392505050565b600082601f83011261130257611301610dc3565b5b8135611312848260208601611266565b91505092915050565b600080600080600060a0868803121561133757611336610d5b565b5b600061134588828901610dae565b955050602086013567ffffffffffffffff81111561136657611365610d60565b5b61137288828901610edb565b945050604086013567ffffffffffffffff81111561139357611392610d60565b5b61139f88828901610edb565b935050606086013567ffffffffffffffff8111156113c0576113bf610d60565b5b6113cc88828901610edb565b925050608086013567ffffffffffffffff8111156113ed576113ec610d60565b5b6113f9888289016112ed565b9150509295509295909350565b6000806040838503121561141d5761141c610d5b565b5b600061142b85828601610dae565b925050602083013567ffffffffffffffff81111561144c5761144b610d60565b5b611458858286016112ed565b9150509250929050565b7f4e487b7100000000000000000000000000000000000000000000000000000000600052602260045260246000fd5b600060028204905060018216806114a957607f821691505b6020821081036114bc576114bb611462565b5b50919050565b7f5573657220646f6573206e6f7420657869737400000000000000000000000000600082015250565b60006114f8601383611032565b9150611503826114c2565b602082019050919050565b60006020820190508181036000830152611527816114eb565b9050919050565b60008190508160005260206000209050919050565b60006020601f8301049050919050565b600082821b905092915050565b6000600883026115907fffffffffffffffffffffffffffffffffffffffffffffffffffffffffffffffff82611553565b61159a8683611553565b95508019841693508086168417925050509392505050565b6000819050919050565b6000819050919050565b60006115e16115dc6115d7846115b2565b6115bc565b6115b2565b9050919050565b6000819050919050565b6115fb836115c6565b61160f611607826115e8565b848454611560565b825550505050565b600090565b611624611617565b61162f8184846115f2565b505050565b5b818110156116535761164860008261161c565b600181019050611635565b5050565b601f821115611698576116698161152e565b61167284611543565b81016020851015611681578190505b61169561168d85611543565b830182611634565b50505b505050565b600082821c905092915050565b60006116bb6000198460080261169d565b1980831691505092915050565b60006116d483836116aa565b9150826002028217905092915050565b6116ed82611027565b67ffffffffffffffff81111561170657611705610dde565b5b6117108254611491565b61171b828285611657565b600060209050601f83116001811461174e576000841561173c578287015190505b61174685826116c8565b8655506117ae565b601f19841661175c8661152e565b60005b828110156117845784890151825560018201915060208501945060208101905061175f565b868310156117a1578489015161179d601f8916826116aa565b8355505b6001600288020188555050505b505050505050565b600060208201905081810360008301526117d0818461106d565b905092915050565b7f5573657220616c72656164792065786973747300000000000000000000000000600082015250565b600061180e601383611032565b9150611819826117d8565b602082019050919050565b6000602082019050818103600083015261183d81611801565b905091905056fea2646970667358221220db9271e6aebd393cafca7663ed8b9de67c01f43bae6150671763f68f7df157ea64736f6c63430008180033",
  "linkReferences": {},
  "deployedLinkReferences": {}
}