{
  "_format": "hh-sol-artifact-1",
  "contractName": "Product",
  "sourceName": "contracts/Product.sol",
  "abi": [
    {
      "inputs": [
        {
          "internalType": "address",
          "name": "initialOwner",
          "type": "address"
        }
      ],
      "stateMutability": "nonpayable",
      "type": "constructor"
    },
    {
      "inputs": [
        {
          "internalType": "address",
          "name": "owner",
          "type": "address"
        }
      ],
      "name": "OwnableInvalidOwner",
      "type": "error"
    },
    {
      "inputs": [
        {
          "internalType": "address",
          "name": "account",
          "type": "address"
        }
      ],
      "name": "OwnableUnauthorizedAccount",
      "type": "error"
    },
    {
      "anonymous": false,
      "inputs": [
        {
          "indexed": true,
          "internalType": "uint256",
          "name": "productId",
          "type": "uint256"
        },
        {
          "indexed": false,
          "internalType": "string",
          "name": "betaTestingLink",
          "type": "string"
        }
      ],
      "name": "BetaTestingLinkUpdated",
      "type": "event"
    },
    {
      "anonymous": false,
      "inputs": [
        {
          "indexed": true,
          "internalType": "address",
          "name": "previousOwner",
          "type": "address"
        },
        {
          "indexed": true,
          "internalType": "address",
          "name": "newOwner",
          "type": "address"
        }
      ],
      "name": "OwnershipTransferred",
      "type": "event"
    },
    {
      "anonymous": false,
      "inputs": [
        {
          "indexed": true,
          "internalType": "uint256",
          "name": "productId",
          "type": "uint256"
        },
        {
          "indexed": true,
          "internalType": "address",
          "name": "owner",
          "type": "address"
        },
        {
          "indexed": false,
          "internalType": "string",
          "name": "productName",
          "type": "string"
        },
        {
          "indexed": false,
          "internalType": "string",
          "name": "description",
          "type": "string"
        }
      ],
      "name": "ProductRegistered",
      "type": "event"
    },
    {
      "anonymous": false,
      "inputs": [
        {
          "indexed": true,
          "internalType": "uint256",
          "name": "productId",
          "type": "uint256"
        },
        {
          "indexed": true,
          "internalType": "address",
          "name": "user",
          "type": "address"
        }
      ],
      "name": "ProductUpvoted",
      "type": "event"
    },
    {
      "inputs": [
        {
          "internalType": "uint256",
          "name": "",
          "type": "uint256"
        }
      ],
      "name": "betaTestingDetails",
      "outputs": [
        {
          "internalType": "string",
          "name": "contractAddress",
          "type": "string"
        },
        {
          "internalType": "uint256",
          "name": "targetNumbersOfTester",
          "type": "uint256"
        },
        {
          "internalType": "string",
          "name": "testingGoal",
          "type": "string"
        },
        {
          "internalType": "uint256",
          "name": "startingDate",
          "type": "uint256"
        },
        {
          "internalType": "uint256",
          "name": "endingDate",
          "type": "uint256"
        },
        {
          "internalType": "string",
          "name": "featureLoomLink",
          "type": "string"
        }
      ],
      "stateMutability": "view",
      "type": "function"
    },
    {
      "inputs": [
        {
          "internalType": "uint256",
          "name": "_productId",
          "type": "uint256"
        }
      ],
      "name": "canBeListed",
      "outputs": [
        {
          "internalType": "bool",
          "name": "",
          "type": "bool"
        }
      ],
      "stateMutability": "view",
      "type": "function"
    },
    {
      "inputs": [
        {
          "internalType": "uint256",
          "name": "_productId",
          "type": "uint256"
        }
      ],
      "name": "deleteProduct",
      "outputs": [],
      "stateMutability": "nonpayable",
      "type": "function"
    },
    {
      "inputs": [],
      "name": "getListedProducts",
      "outputs": [
        {
          "components": [
            {
              "components": [
                {
                  "internalType": "uint256",
                  "name": "id",
                  "type": "uint256"
                },
                {
                  "internalType": "address",
                  "name": "owner",
                  "type": "address"
                },
                {
                  "components": [
                    {
                      "internalType": "string",
                      "name": "productName",
                      "type": "string"
                    },
                    {
                      "internalType": "string",
                      "name": "tagLine",
                      "type": "string"
                    },
                    {
                      "internalType": "string",
                      "name": "productLink",
                      "type": "string"
                    },
                    {
                      "internalType": "string",
                      "name": "twitterLink",
                      "type": "string"
                    },
                    {
                      "internalType": "string",
                      "name": "description",
                      "type": "string"
                    },
                    {
                      "internalType": "bool",
                      "name": "isOpenSource",
                      "type": "bool"
                    },
                    {
                      "internalType": "string",
                      "name": "category",
                      "type": "string"
                    },
                    {
                      "internalType": "string",
                      "name": "thumbNail",
                      "type": "string"
                    },
                    {
                      "internalType": "string",
                      "name": "mediaFile",
                      "type": "string"
                    },
                    {
                      "internalType": "string",
                      "name": "loomLink",
                      "type": "string"
                    },
                    {
                      "internalType": "bool",
                      "name": "workedWithTeam",
                      "type": "bool"
                    },
                    {
                      "internalType": "string",
                      "name": "teamMembersInput",
                      "type": "string"
                    },
                    {
                      "internalType": "string",
                      "name": "pricingOption",
                      "type": "string"
                    },
                    {
                      "internalType": "string",
                      "name": "offer",
                      "type": "string"
                    },
                    {
                      "internalType": "string",
                      "name": "promoCode",
                      "type": "string"
                    },
                    {
                      "internalType": "string",
                      "name": "expirationDate",
                      "type": "string"
                    },
                    {
                      "internalType": "string",
                      "name": "betaTestingLink",
                      "type": "string"
                    }
                  ],
                  "internalType": "struct ProductLibrary.ProductDetails",
                  "name": "details",
                  "type": "tuple"
                },
                {
                  "internalType": "uint256",
                  "name": "upvotes",
                  "type": "uint256"
                },
                {
                  "internalType": "bool",
                  "name": "betaTestingAvailable",
                  "type": "bool"
                },
                {
                  "internalType": "uint256",
                  "name": "timestamp",
                  "type": "uint256"
                }
              ],
              "internalType": "struct ProductLibrary.ProductInfo",
              "name": "product",
              "type": "tuple"
            },
            {
              "components": [
                {
                  "internalType": "string",
                  "name": "contractAddress",
                  "type": "string"
                },
                {
                  "internalType": "uint256",
                  "name": "targetNumbersOfTester",
                  "type": "uint256"
                },
                {
                  "internalType": "string",
                  "name": "testingGoal",
                  "type": "string"
                },
                {
                  "internalType": "string[]",
                  "name": "goals",
                  "type": "string[]"
                },
                {
                  "internalType": "uint256",
                  "name": "startingDate",
                  "type": "uint256"
                },
                {
                  "internalType": "uint256",
                  "name": "endingDate",
                  "type": "uint256"
                },
                {
                  "internalType": "string",
                  "name": "featureLoomLink",
                  "type": "string"
                }
              ],
              "internalType": "struct BetaTestingDetailsLibrary.BetaTestingDetails",
              "name": "betaTestingDetails",
              "type": "tuple"
            },
            {
              "internalType": "bool",
              "name": "hasBetaTestingDetails",
              "type": "bool"
            }
          ],
          "internalType": "struct ProductLibrary.ProductWithBetaTesting[]",
          "name": "",
          "type": "tuple[]"
        }
      ],
      "stateMutability": "view",
      "type": "function"
    },
    {
      "inputs": [],
      "name": "getListedProductsAvailable",
      "outputs": [
        {
          "components": [
            {
              "components": [
                {
                  "internalType": "uint256",
                  "name": "id",
                  "type": "uint256"
                },
                {
                  "internalType": "address",
                  "name": "owner",
                  "type": "address"
                },
                {
                  "components": [
                    {
                      "internalType": "string",
                      "name": "productName",
                      "type": "string"
                    },
                    {
                      "internalType": "string",
                      "name": "tagLine",
                      "type": "string"
                    },
                    {
                      "internalType": "string",
                      "name": "productLink",
                      "type": "string"
                    },
                    {
                      "internalType": "string",
                      "name": "twitterLink",
                      "type": "string"
                    },
                    {
                      "internalType": "string",
                      "name": "description",
                      "type": "string"
                    },
                    {
                      "internalType": "bool",
                      "name": "isOpenSource",
                      "type": "bool"
                    },
                    {
                      "internalType": "string",
                      "name": "category",
                      "type": "string"
                    },
                    {
                      "internalType": "string",
                      "name": "thumbNail",
                      "type": "string"
                    },
                    {
                      "internalType": "string",
                      "name": "mediaFile",
                      "type": "string"
                    },
                    {
                      "internalType": "string",
                      "name": "loomLink",
                      "type": "string"
                    },
                    {
                      "internalType": "bool",
                      "name": "workedWithTeam",
                      "type": "bool"
                    },
                    {
                      "internalType": "string",
                      "name": "teamMembersInput",
                      "type": "string"
                    },
                    {
                      "internalType": "string",
                      "name": "pricingOption",
                      "type": "string"
                    },
                    {
                      "internalType": "string",
                      "name": "offer",
                      "type": "string"
                    },
                    {
                      "internalType": "string",
                      "name": "promoCode",
                      "type": "string"
                    },
                    {
                      "internalType": "string",
                      "name": "expirationDate",
                      "type": "string"
                    },
                    {
                      "internalType": "string",
                      "name": "betaTestingLink",
                      "type": "string"
                    }
                  ],
                  "internalType": "struct ProductLibrary.ProductDetails",
                  "name": "details",
                  "type": "tuple"
                },
                {
                  "internalType": "uint256",
                  "name": "upvotes",
                  "type": "uint256"
                },
                {
                  "internalType": "bool",
                  "name": "betaTestingAvailable",
                  "type": "bool"
                },
                {
                  "internalType": "uint256",
                  "name": "timestamp",
                  "type": "uint256"
                }
              ],
              "internalType": "struct ProductLibrary.ProductInfo",
              "name": "product",
              "type": "tuple"
            },
            {
              "components": [
                {
                  "internalType": "string",
                  "name": "contractAddress",
                  "type": "string"
                },
                {
                  "internalType": "uint256",
                  "name": "targetNumbersOfTester",
                  "type": "uint256"
                },
                {
                  "internalType": "string",
                  "name": "testingGoal",
                  "type": "string"
                },
                {
                  "internalType": "string[]",
                  "name": "goals",
                  "type": "string[]"
                },
                {
                  "internalType": "uint256",
                  "name": "startingDate",
                  "type": "uint256"
                },
                {
                  "internalType": "uint256",
                  "name": "endingDate",
                  "type": "uint256"
                },
                {
                  "internalType": "string",
                  "name": "featureLoomLink",
                  "type": "string"
                }
              ],
              "internalType": "struct BetaTestingDetailsLibrary.BetaTestingDetails",
              "name": "betaTestingDetails",
              "type": "tuple"
            },
            {
              "internalType": "bool",
              "name": "hasBetaTestingDetails",
              "type": "bool"
            }
          ],
          "internalType": "struct ProductLibrary.ProductWithBetaTesting[]",
          "name": "",
          "type": "tuple[]"
        }
      ],
      "stateMutability": "view",
      "type": "function"
    },
    {
      "inputs": [
        {
          "internalType": "uint256",
          "name": "_productId",
          "type": "uint256"
        }
      ],
      "name": "getProduct",
      "outputs": [
        {
          "components": [
            {
              "components": [
                {
                  "internalType": "uint256",
                  "name": "id",
                  "type": "uint256"
                },
                {
                  "internalType": "address",
                  "name": "owner",
                  "type": "address"
                },
                {
                  "components": [
                    {
                      "internalType": "string",
                      "name": "productName",
                      "type": "string"
                    },
                    {
                      "internalType": "string",
                      "name": "tagLine",
                      "type": "string"
                    },
                    {
                      "internalType": "string",
                      "name": "productLink",
                      "type": "string"
                    },
                    {
                      "internalType": "string",
                      "name": "twitterLink",
                      "type": "string"
                    },
                    {
                      "internalType": "string",
                      "name": "description",
                      "type": "string"
                    },
                    {
                      "internalType": "bool",
                      "name": "isOpenSource",
                      "type": "bool"
                    },
                    {
                      "internalType": "string",
                      "name": "category",
                      "type": "string"
                    },
                    {
                      "internalType": "string",
                      "name": "thumbNail",
                      "type": "string"
                    },
                    {
                      "internalType": "string",
                      "name": "mediaFile",
                      "type": "string"
                    },
                    {
                      "internalType": "string",
                      "name": "loomLink",
                      "type": "string"
                    },
                    {
                      "internalType": "bool",
                      "name": "workedWithTeam",
                      "type": "bool"
                    },
                    {
                      "internalType": "string",
                      "name": "teamMembersInput",
                      "type": "string"
                    },
                    {
                      "internalType": "string",
                      "name": "pricingOption",
                      "type": "string"
                    },
                    {
                      "internalType": "string",
                      "name": "offer",
                      "type": "string"
                    },
                    {
                      "internalType": "string",
                      "name": "promoCode",
                      "type": "string"
                    },
                    {
                      "internalType": "string",
                      "name": "expirationDate",
                      "type": "string"
                    },
                    {
                      "internalType": "string",
                      "name": "betaTestingLink",
                      "type": "string"
                    }
                  ],
                  "internalType": "struct ProductLibrary.ProductDetails",
                  "name": "details",
                  "type": "tuple"
                },
                {
                  "internalType": "uint256",
                  "name": "upvotes",
                  "type": "uint256"
                },
                {
                  "internalType": "bool",
                  "name": "betaTestingAvailable",
                  "type": "bool"
                },
                {
                  "internalType": "uint256",
                  "name": "timestamp",
                  "type": "uint256"
                }
              ],
              "internalType": "struct ProductLibrary.ProductInfo",
              "name": "product",
              "type": "tuple"
            },
            {
              "components": [
                {
                  "internalType": "string",
                  "name": "contractAddress",
                  "type": "string"
                },
                {
                  "internalType": "uint256",
                  "name": "targetNumbersOfTester",
                  "type": "uint256"
                },
                {
                  "internalType": "string",
                  "name": "testingGoal",
                  "type": "string"
                },
                {
                  "internalType": "string[]",
                  "name": "goals",
                  "type": "string[]"
                },
                {
                  "internalType": "uint256",
                  "name": "startingDate",
                  "type": "uint256"
                },
                {
                  "internalType": "uint256",
                  "name": "endingDate",
                  "type": "uint256"
                },
                {
                  "internalType": "string",
                  "name": "featureLoomLink",
                  "type": "string"
                }
              ],
              "internalType": "struct BetaTestingDetailsLibrary.BetaTestingDetails",
              "name": "betaTestingDetails",
              "type": "tuple"
            },
            {
              "internalType": "bool",
              "name": "hasBetaTestingDetails",
              "type": "bool"
            }
          ],
          "internalType": "struct ProductLibrary.ProductWithBetaTesting",
          "name": "",
          "type": "tuple"
        }
      ],
      "stateMutability": "view",
      "type": "function"
    },
    {
      "inputs": [
        {
          "internalType": "uint256",
          "name": "",
          "type": "uint256"
        },
        {
          "internalType": "address",
          "name": "",
          "type": "address"
        }
      ],
      "name": "hasUpvoted",
      "outputs": [
        {
          "internalType": "bool",
          "name": "",
          "type": "bool"
        }
      ],
      "stateMutability": "view",
      "type": "function"
    },
    {
      "inputs": [],
      "name": "owner",
      "outputs": [
        {
          "internalType": "address",
          "name": "",
          "type": "address"
        }
      ],
      "stateMutability": "view",
      "type": "function"
    },
    {
      "inputs": [
        {
          "internalType": "uint256",
          "name": "",
          "type": "uint256"
        }
      ],
      "name": "products",
      "outputs": [
        {
          "internalType": "uint256",
          "name": "id",
          "type": "uint256"
        },
        {
          "internalType": "address",
          "name": "owner",
          "type": "address"
        },
        {
          "components": [
            {
              "internalType": "string",
              "name": "productName",
              "type": "string"
            },
            {
              "internalType": "string",
              "name": "tagLine",
              "type": "string"
            },
            {
              "internalType": "string",
              "name": "productLink",
              "type": "string"
            },
            {
              "internalType": "string",
              "name": "twitterLink",
              "type": "string"
            },
            {
              "internalType": "string",
              "name": "description",
              "type": "string"
            },
            {
              "internalType": "bool",
              "name": "isOpenSource",
              "type": "bool"
            },
            {
              "internalType": "string",
              "name": "category",
              "type": "string"
            },
            {
              "internalType": "string",
              "name": "thumbNail",
              "type": "string"
            },
            {
              "internalType": "string",
              "name": "mediaFile",
              "type": "string"
            },
            {
              "internalType": "string",
              "name": "loomLink",
              "type": "string"
            },
            {
              "internalType": "bool",
              "name": "workedWithTeam",
              "type": "bool"
            },
            {
              "internalType": "string",
              "name": "teamMembersInput",
              "type": "string"
            },
            {
              "internalType": "string",
              "name": "pricingOption",
              "type": "string"
            },
            {
              "internalType": "string",
              "name": "offer",
              "type": "string"
            },
            {
              "internalType": "string",
              "name": "promoCode",
              "type": "string"
            },
            {
              "internalType": "string",
              "name": "expirationDate",
              "type": "string"
            },
            {
              "internalType": "string",
              "name": "betaTestingLink",
              "type": "string"
            }
          ],
          "internalType": "struct ProductLibrary.ProductDetails",
          "name": "details",
          "type": "tuple"
        },
        {
          "internalType": "uint256",
          "name": "upvotes",
          "type": "uint256"
        },
        {
          "internalType": "bool",
          "name": "betaTestingAvailable",
          "type": "bool"
        },
        {
          "internalType": "uint256",
          "name": "timestamp",
          "type": "uint256"
        }
      ],
      "stateMutability": "view",
      "type": "function"
    },
    {
      "inputs": [
        {
          "internalType": "address",
          "name": "_owner",
          "type": "address"
        },
        {
          "components": [
            {
              "internalType": "string",
              "name": "productName",
              "type": "string"
            },
            {
              "internalType": "string",
              "name": "tagLine",
              "type": "string"
            },
            {
              "internalType": "string",
              "name": "productLink",
              "type": "string"
            },
            {
              "internalType": "string",
              "name": "twitterLink",
              "type": "string"
            },
            {
              "internalType": "string",
              "name": "description",
              "type": "string"
            },
            {
              "internalType": "bool",
              "name": "isOpenSource",
              "type": "bool"
            },
            {
              "internalType": "string",
              "name": "category",
              "type": "string"
            },
            {
              "internalType": "string",
              "name": "thumbNail",
              "type": "string"
            },
            {
              "internalType": "string",
              "name": "mediaFile",
              "type": "string"
            },
            {
              "internalType": "string",
              "name": "loomLink",
              "type": "string"
            },
            {
              "internalType": "bool",
              "name": "workedWithTeam",
              "type": "bool"
            },
            {
              "internalType": "string",
              "name": "teamMembersInput",
              "type": "string"
            },
            {
              "internalType": "string",
              "name": "pricingOption",
              "type": "string"
            },
            {
              "internalType": "string",
              "name": "offer",
              "type": "string"
            },
            {
              "internalType": "string",
              "name": "promoCode",
              "type": "string"
            },
            {
              "internalType": "string",
              "name": "expirationDate",
              "type": "string"
            },
            {
              "internalType": "string",
              "name": "betaTestingLink",
              "type": "string"
            }
          ],
          "internalType": "struct ProductLibrary.ProductDetails",
          "name": "details",
          "type": "tuple"
        },
        {
          "internalType": "bool",
          "name": "betaTestingAvailable",
          "type": "bool"
        },
        {
          "components": [
            {
              "internalType": "string",
              "name": "contractAddress",
              "type": "string"
            },
            {
              "internalType": "uint256",
              "name": "targetNumbersOfTester",
              "type": "uint256"
            },
            {
              "internalType": "string",
              "name": "testingGoal",
              "type": "string"
            },
            {
              "internalType": "string[]",
              "name": "goals",
              "type": "string[]"
            },
            {
              "internalType": "uint256",
              "name": "startingDate",
              "type": "uint256"
            },
            {
              "internalType": "uint256",
              "name": "endingDate",
              "type": "uint256"
            },
            {
              "internalType": "string",
              "name": "featureLoomLink",
              "type": "string"
            }
          ],
          "internalType": "struct BetaTestingDetailsLibrary.BetaTestingDetails",
          "name": "betaDetails",
          "type": "tuple"
        }
      ],
      "name": "registerProduct",
      "outputs": [],
      "stateMutability": "nonpayable",
      "type": "function"
    },
    {
      "inputs": [],
      "name": "renounceOwnership",
      "outputs": [],
      "stateMutability": "nonpayable",
      "type": "function"
    },
    {
      "inputs": [
        {
          "internalType": "address",
          "name": "newOwner",
          "type": "address"
        }
      ],
      "name": "transferOwnership",
      "outputs": [],
      "stateMutability": "nonpayable",
      "type": "function"
    },
    {
      "inputs": [
        {
          "internalType": "uint256",
          "name": "_productId",
          "type": "uint256"
        },
        {
          "internalType": "string",
          "name": "_betaTestingLink",
          "type": "string"
        }
      ],
      "name": "updateBetaTestingLink",
      "outputs": [],
      "stateMutability": "nonpayable",
      "type": "function"
    },
    {
      "inputs": [
        {
          "internalType": "uint256",
          "name": "productId",
          "type": "uint256"
        },
        {
          "internalType": "address",
          "name": "upvoter",
          "type": "address"
        }
      ],
      "name": "upvoteProduct",
      "outputs": [],
      "stateMutability": "nonpayable",
      "type": "function"
    }
  ],
  "bytecode": "0x60806040523480156200001157600080fd5b506040516200547d3803806200547d8339818101604052810190620000379190620001f4565b80600073ffffffffffffffffffffffffffffffffffffffff168173ffffffffffffffffffffffffffffffffffffffff1603620000ad5760006040517f1e4fbdf7000000000000000000000000000000000000000000000000000000008152600401620000a4919062000237565b60405180910390fd5b620000be81620000c660201b60201c565b505062000254565b60008060009054906101000a900473ffffffffffffffffffffffffffffffffffffffff169050816000806101000a81548173ffffffffffffffffffffffffffffffffffffffff021916908373ffffffffffffffffffffffffffffffffffffffff1602179055508173ffffffffffffffffffffffffffffffffffffffff168173ffffffffffffffffffffffffffffffffffffffff167f8be0079c531659141344cd1fd0a4f28419497f9722a3daafe3b4186f6b6457e060405160405180910390a35050565b600080fd5b600073ffffffffffffffffffffffffffffffffffffffff82169050919050565b6000620001bc826200018f565b9050919050565b620001ce81620001af565b8114620001da57600080fd5b50565b600081519050620001ee81620001c3565b92915050565b6000602082840312156200020d576200020c6200018a565b5b60006200021d84828501620001dd565b91505092915050565b6200023181620001af565b82525050565b60006020820190506200024e600083018462000226565b92915050565b61521980620002646000396000f3fe608060405234801561001057600080fd5b50600436106100ea5760003560e01c80639afaea2e1161008c578063e66f7f4611610066578063e66f7f4614610253578063ed90c7b714610271578063f1c88b4b1461028d578063f2fde38b146102bd576100ea565b80639afaea2e146101be578063a52c8658146101f3578063b9db15b414610223576100ea565b806363283c84116100c857806363283c8414610145578063715018a6146101615780637acc0b201461016b5780638da5cb5b146101a0576100ea565b80632326af51146100ef57806352cb26af1461010b57806355110f1414610129575b600080fd5b61010960048036038101906101049190613e8c565b6102d9565b005b610113610795565b60405161012091906144bb565b60405180910390f35b610143600480360381019061013e91906144dd565b610853565b005b61015f600480360381019061015a9190614539565b6109e8565b005b610169610c69565b005b61018560048036038101906101809190614579565b610c7d565b604051610197969594939291906147a2565b60405180910390f35b6101a86115b5565b6040516101b5919061480a565b60405180910390f35b6101d860048036038101906101d39190614579565b6115de565b6040516101ea9695949392919061486f565b60405180910390f35b61020d60048036038101906102089190614539565b6117b2565b60405161021a91906148e5565b60405180910390f35b61023d60048036038101906102389190614579565b6117e1565b60405161024a9190614957565b60405180910390f35b61025b6124f3565b60405161026891906144bb565b60405180910390f35b61028b60048036038101906102869190614579565b612605565b005b6102a760048036038101906102a29190614579565b6128fe565b6040516102b491906148e5565b60405180910390f35b6102d760048036038101906102d29190614979565b613302565b005b82600081600001515111610322576040517f08c379a0000000000000000000000000000000000000000000000000000000008152600401610319906149f2565b60405180910390fd5b60008160800151511161036a576040517f08c379a000000000000000000000000000000000000000000000000000000000815260040161036190614a84565b60405180910390fd5b6000816040015151116103b2576040517f08c379a00000000000000000000000000000000000000000000000000000000081526004016103a990614af0565b60405180910390fd5b600160008154809291906103c590614b3f565b91905055506000600154905083156104b55760008561020001515111610420576040517f08c379a000000000000000000000000000000000000000000000000000000000815260040161041790614bd3565b60405180910390fd5b826004600083815260200190815260200160002060008201518160000190816104499190614dff565b506020820151816001015560408201518160020190816104699190614dff565b5060608201518160030190805190602001906104869291906134db565b506080820151816004015560a0820151816005015560c08201518160060190816104b09190614dff565b509050505b6040518060c001604052808281526020018773ffffffffffffffffffffffffffffffffffffffff16815260200186815260200160008152602001851515815260200142815250600260008381526020019081526020016000206000820151816000015560208201518160010160006101000a81548173ffffffffffffffffffffffffffffffffffffffff021916908373ffffffffffffffffffffffffffffffffffffffff160217905550604082015181600201600082015181600001908161057d9190614dff565b5060208201518160010190816105939190614dff565b5060408201518160020190816105a99190614dff565b5060608201518160030190816105bf9190614dff565b5060808201518160040190816105d59190614dff565b5060a08201518160050160006101000a81548160ff02191690831515021790555060c082015181600601908161060b9190614dff565b5060e08201518160070190816106219190614dff565b506101008201518160080190816106389190614dff565b5061012082015181600901908161064f9190614dff565b5061014082015181600a0160006101000a81548160ff02191690831515021790555061016082015181600b0190816106879190614dff565b5061018082015181600c01908161069e9190614dff565b506101a082015181600d0190816106b59190614dff565b506101c082015181600e0190816106cc9190614dff565b506101e082015181600f0190816106e39190614dff565b506102008201518160100190816106fa9190614dff565b5050506060820151816013015560808201518160140160006101000a81548160ff02191690831515021790555060a082015181601501559050508573ffffffffffffffffffffffffffffffffffffffff16817fb5744bf87060f3c128bd7ec7c73734981e2525b5958bd63d50320e2e282fb75787600001518860800151604051610785929190614ed1565b60405180910390a3505050505050565b60606000600154905060008167ffffffffffffffff8111156107ba576107b96137a6565b5b6040519080825280602002602001820160405280156107f357816020015b6107e0613534565b8152602001906001900390816107d85790505b5090506000600190505b82811161084a5761080d816117e1565b8260018361081b9190614f08565b8151811061082c5761082b614f3c565b5b6020026020010181905250808061084290614b3f565b9150506107fd565b50809250505090565b81806002600083815260200190815260200160002060000154146108ac576040517f08c379a00000000000000000000000000000000000000000000000000000000081526004016108a390614fb7565b60405180910390fd5b823373ffffffffffffffffffffffffffffffffffffffff166002600083815260200190815260200160002060010160009054906101000a900473ffffffffffffffffffffffffffffffffffffffff1673ffffffffffffffffffffffffffffffffffffffff1614610951576040517f08c379a000000000000000000000000000000000000000000000000000000000815260040161094890615049565b60405180910390fd5b826002600086815260200190815260200160002060020160100190816109779190614dff565b5060008351116002600086815260200190815260200160002060140160006101000a81548160ff021916908315150217905550837f60b68b8d9dde04a1c7a3c8b7c6631c84bca71372b9f129b0958fd4d901a57e53846040516109da9190615069565b60405180910390a250505050565b8180600260008381526020019081526020016000206000015414610a41576040517f08c379a0000000000000000000000000000000000000000000000000000000008152600401610a3890614fb7565b60405180910390fd5b82828073ffffffffffffffffffffffffffffffffffffffff166002600084815260200190815260200160002060010160009054906101000a900473ffffffffffffffffffffffffffffffffffffffff1673ffffffffffffffffffffffffffffffffffffffff1603610ae7576040517f08c379a0000000000000000000000000000000000000000000000000000000008152600401610ade906150fd565b60405180910390fd5b84846003600083815260200190815260200160002060008273ffffffffffffffffffffffffffffffffffffffff1673ffffffffffffffffffffffffffffffffffffffff16815260200190815260200160002060009054906101000a900460ff1615610b87576040517f08c379a0000000000000000000000000000000000000000000000000000000008152600401610b7e9061518f565b60405180910390fd5b600260008881526020019081526020016000206013016000815480929190610bae90614b3f565b919050555060016003600089815260200190815260200160002060008873ffffffffffffffffffffffffffffffffffffffff1673ffffffffffffffffffffffffffffffffffffffff16815260200190815260200160002060006101000a81548160ff0219169083151502179055508573ffffffffffffffffffffffffffffffffffffffff16877f956f0f479292addd89f768b4b97612f546f78aae3d2b8a416a19c8b5b610b40560405160405180910390a350505050505050565b610c71613388565b610c7b600061340f565b565b60026020528060005260406000206000915090508060000154908060010160009054906101000a900473ffffffffffffffffffffffffffffffffffffffff16908060020160405180610220016040529081600082018054610cdd90614c22565b80601f0160208091040260200160405190810160405280929190818152602001828054610d0990614c22565b8015610d565780601f10610d2b57610100808354040283529160200191610d56565b820191906000526020600020905b815481529060010190602001808311610d3957829003601f168201915b50505050508152602001600182018054610d6f90614c22565b80601f0160208091040260200160405190810160405280929190818152602001828054610d9b90614c22565b8015610de85780601f10610dbd57610100808354040283529160200191610de8565b820191906000526020600020905b815481529060010190602001808311610dcb57829003601f168201915b50505050508152602001600282018054610e0190614c22565b80601f0160208091040260200160405190810160405280929190818152602001828054610e2d90614c22565b8015610e7a5780601f10610e4f57610100808354040283529160200191610e7a565b820191906000526020600020905b815481529060010190602001808311610e5d57829003601f168201915b50505050508152602001600382018054610e9390614c22565b80601f0160208091040260200160405190810160405280929190818152602001828054610ebf90614c22565b8015610f0c5780601f10610ee157610100808354040283529160200191610f0c565b820191906000526020600020905b815481529060010190602001808311610eef57829003601f168201915b50505050508152602001600482018054610f2590614c22565b80601f0160208091040260200160405190810160405280929190818152602001828054610f5190614c22565b8015610f9e5780601f10610f7357610100808354040283529160200191610f9e565b820191906000526020600020905b815481529060010190602001808311610f8157829003601f168201915b505050505081526020016005820160009054906101000a900460ff16151515158152602001600682018054610fd290614c22565b80601f0160208091040260200160405190810160405280929190818152602001828054610ffe90614c22565b801561104b5780601f106110205761010080835404028352916020019161104b565b820191906000526020600020905b81548152906001019060200180831161102e57829003601f168201915b5050505050815260200160078201805461106490614c22565b80601f016020809104026020016040519081016040528092919081815260200182805461109090614c22565b80156110dd5780601f106110b2576101008083540402835291602001916110dd565b820191906000526020600020905b8154815290600101906020018083116110c057829003601f168201915b505050505081526020016008820180546110f690614c22565b80601f016020809104026020016040519081016040528092919081815260200182805461112290614c22565b801561116f5780601f106111445761010080835404028352916020019161116f565b820191906000526020600020905b81548152906001019060200180831161115257829003601f168201915b5050505050815260200160098201805461118890614c22565b80601f01602080910402602001604051908101604052809291908181526020018280546111b490614c22565b80156112015780601f106111d657610100808354040283529160200191611201565b820191906000526020600020905b8154815290600101906020018083116111e457829003601f168201915b50505050508152602001600a820160009054906101000a900460ff16151515158152602001600b8201805461123590614c22565b80601f016020809104026020016040519081016040528092919081815260200182805461126190614c22565b80156112ae5780601f10611283576101008083540402835291602001916112ae565b820191906000526020600020905b81548152906001019060200180831161129157829003601f168201915b50505050508152602001600c820180546112c790614c22565b80601f01602080910402602001604051908101604052809291908181526020018280546112f390614c22565b80156113405780601f1061131557610100808354040283529160200191611340565b820191906000526020600020905b81548152906001019060200180831161132357829003601f168201915b50505050508152602001600d8201805461135990614c22565b80601f016020809104026020016040519081016040528092919081815260200182805461138590614c22565b80156113d25780601f106113a7576101008083540402835291602001916113d2565b820191906000526020600020905b8154815290600101906020018083116113b557829003601f168201915b50505050508152602001600e820180546113eb90614c22565b80601f016020809104026020016040519081016040528092919081815260200182805461141790614c22565b80156114645780601f1061143957610100808354040283529160200191611464565b820191906000526020600020905b81548152906001019060200180831161144757829003601f168201915b50505050508152602001600f8201805461147d90614c22565b80601f01602080910402602001604051908101604052809291908181526020018280546114a990614c22565b80156114f65780601f106114cb576101008083540402835291602001916114f6565b820191906000526020600020905b8154815290600101906020018083116114d957829003601f168201915b5050505050815260200160108201805461150f90614c22565b80601f016020809104026020016040519081016040528092919081815260200182805461153b90614c22565b80156115885780601f1061155d57610100808354040283529160200191611588565b820191906000526020600020905b81548152906001019060200180831161156b57829003601f168201915b505050505081525050908060130154908060140160009054906101000a900460ff16908060150154905086565b60008060009054906101000a900473ffffffffffffffffffffffffffffffffffffffff16905090565b600460205280600052604060002060009150905080600001805461160190614c22565b80601f016020809104026020016040519081016040528092919081815260200182805461162d90614c22565b801561167a5780601f1061164f5761010080835404028352916020019161167a565b820191906000526020600020905b81548152906001019060200180831161165d57829003601f168201915b50505050509080600101549080600201805461169590614c22565b80601f01602080910402602001604051908101604052809291908181526020018280546116c190614c22565b801561170e5780601f106116e35761010080835404028352916020019161170e565b820191906000526020600020905b8154815290600101906020018083116116f157829003601f168201915b50505050509080600401549080600501549080600601805461172f90614c22565b80601f016020809104026020016040519081016040528092919081815260200182805461175b90614c22565b80156117a85780601f1061177d576101008083540402835291602001916117a8565b820191906000526020600020905b81548152906001019060200180831161178b57829003601f168201915b5050505050905086565b60036020528160005260406000206020528060005260406000206000915091509054906101000a900460ff1681565b6117e9613534565b8180600260008381526020019081526020016000206000015414611842576040517f08c379a000000000000000000000000000000000000000000000000000000000815260040161183990614fb7565b60405180910390fd5b61184a613534565b600260008581526020019081526020016000206040518060c0016040529081600082015481526020016001820160009054906101000a900473ffffffffffffffffffffffffffffffffffffffff1673ffffffffffffffffffffffffffffffffffffffff1673ffffffffffffffffffffffffffffffffffffffff16815260200160028201604051806102200160405290816000820180546118e990614c22565b80601f016020809104026020016040519081016040528092919081815260200182805461191590614c22565b80156119625780601f1061193757610100808354040283529160200191611962565b820191906000526020600020905b81548152906001019060200180831161194557829003601f168201915b5050505050815260200160018201805461197b90614c22565b80601f01602080910402602001604051908101604052809291908181526020018280546119a790614c22565b80156119f45780601f106119c9576101008083540402835291602001916119f4565b820191906000526020600020905b8154815290600101906020018083116119d757829003601f168201915b50505050508152602001600282018054611a0d90614c22565b80601f0160208091040260200160405190810160405280929190818152602001828054611a3990614c22565b8015611a865780601f10611a5b57610100808354040283529160200191611a86565b820191906000526020600020905b815481529060010190602001808311611a6957829003601f168201915b50505050508152602001600382018054611a9f90614c22565b80601f0160208091040260200160405190810160405280929190818152602001828054611acb90614c22565b8015611b185780601f10611aed57610100808354040283529160200191611b18565b820191906000526020600020905b815481529060010190602001808311611afb57829003601f168201915b50505050508152602001600482018054611b3190614c22565b80601f0160208091040260200160405190810160405280929190818152602001828054611b5d90614c22565b8015611baa5780601f10611b7f57610100808354040283529160200191611baa565b820191906000526020600020905b815481529060010190602001808311611b8d57829003601f168201915b505050505081526020016005820160009054906101000a900460ff16151515158152602001600682018054611bde90614c22565b80601f0160208091040260200160405190810160405280929190818152602001828054611c0a90614c22565b8015611c575780601f10611c2c57610100808354040283529160200191611c57565b820191906000526020600020905b815481529060010190602001808311611c3a57829003601f168201915b50505050508152602001600782018054611c7090614c22565b80601f0160208091040260200160405190810160405280929190818152602001828054611c9c90614c22565b8015611ce95780601f10611cbe57610100808354040283529160200191611ce9565b820191906000526020600020905b815481529060010190602001808311611ccc57829003601f168201915b50505050508152602001600882018054611d0290614c22565b80601f0160208091040260200160405190810160405280929190818152602001828054611d2e90614c22565b8015611d7b5780601f10611d5057610100808354040283529160200191611d7b565b820191906000526020600020905b815481529060010190602001808311611d5e57829003601f168201915b50505050508152602001600982018054611d9490614c22565b80601f0160208091040260200160405190810160405280929190818152602001828054611dc090614c22565b8015611e0d5780601f10611de257610100808354040283529160200191611e0d565b820191906000526020600020905b815481529060010190602001808311611df057829003601f168201915b50505050508152602001600a820160009054906101000a900460ff16151515158152602001600b82018054611e4190614c22565b80601f0160208091040260200160405190810160405280929190818152602001828054611e6d90614c22565b8015611eba5780601f10611e8f57610100808354040283529160200191611eba565b820191906000526020600020905b815481529060010190602001808311611e9d57829003601f168201915b50505050508152602001600c82018054611ed390614c22565b80601f0160208091040260200160405190810160405280929190818152602001828054611eff90614c22565b8015611f4c5780601f10611f2157610100808354040283529160200191611f4c565b820191906000526020600020905b815481529060010190602001808311611f2f57829003601f168201915b50505050508152602001600d82018054611f6590614c22565b80601f0160208091040260200160405190810160405280929190818152602001828054611f9190614c22565b8015611fde5780601f10611fb357610100808354040283529160200191611fde565b820191906000526020600020905b815481529060010190602001808311611fc157829003601f168201915b50505050508152602001600e82018054611ff790614c22565b80601f016020809104026020016040519081016040528092919081815260200182805461202390614c22565b80156120705780601f1061204557610100808354040283529160200191612070565b820191906000526020600020905b81548152906001019060200180831161205357829003601f168201915b50505050508152602001600f8201805461208990614c22565b80601f01602080910402602001604051908101604052809291908181526020018280546120b590614c22565b80156121025780601f106120d757610100808354040283529160200191612102565b820191906000526020600020905b8154815290600101906020018083116120e557829003601f168201915b5050505050815260200160108201805461211b90614c22565b80601f016020809104026020016040519081016040528092919081815260200182805461214790614c22565b80156121945780601f1061216957610100808354040283529160200191612194565b820191906000526020600020905b81548152906001019060200180831161217757829003601f168201915b5050505050815250508152602001601382015481526020016014820160009054906101000a900460ff1615151515815260200160158201548152505081600001819052506002600085815260200190815260200160002060140160009054906101000a900460ff168160400190151590811515815250508060400151156124e957600460008581526020019081526020016000206040518060e001604052908160008201805461224390614c22565b80601f016020809104026020016040519081016040528092919081815260200182805461226f90614c22565b80156122bc5780601f10612291576101008083540402835291602001916122bc565b820191906000526020600020905b81548152906001019060200180831161229f57829003601f168201915b50505050508152602001600182015481526020016002820180546122df90614c22565b80601f016020809104026020016040519081016040528092919081815260200182805461230b90614c22565b80156123585780601f1061232d57610100808354040283529160200191612358565b820191906000526020600020905b81548152906001019060200180831161233b57829003601f168201915b5050505050815260200160038201805480602002602001604051908101604052809291908181526020016000905b828210156124325783829060005260206000200180546123a590614c22565b80601f01602080910402602001604051908101604052809291908181526020018280546123d190614c22565b801561241e5780601f106123f35761010080835404028352916020019161241e565b820191906000526020600020905b81548152906001019060200180831161240157829003601f168201915b505050505081526020019060010190612386565b505050508152602001600482015481526020016005820154815260200160068201805461245e90614c22565b80601f016020809104026020016040519081016040528092919081815260200182805461248a90614c22565b80156124d75780601f106124ac576101008083540402835291602001916124d7565b820191906000526020600020905b8154815290600101906020018083116124ba57829003601f168201915b50505050508152505081602001819052505b8092505050919050565b606060006001549050600080600190505b82811161253b57612514816128fe565b1561252857818061252490614b3f565b9250505b808061253390614b3f565b915050612504565b5060008167ffffffffffffffff811115612558576125576137a6565b5b60405190808252806020026020018201604052801561259157816020015b61257e613534565b8152602001906001900390816125765790505b509050600080600190505b8481116125fa576125ac816128fe565b156125e7576125ba816117e1565b8383815181106125cd576125cc614f3c565b5b602002602001018190525081806125e390614b3f565b9250505b80806125f290614b3f565b91505061259c565b508194505050505090565b808060026000838152602001908152602001600020600001541461265e576040517f08c379a000000000000000000000000000000000000000000000000000000000815260040161265590614fb7565b60405180910390fd5b813373ffffffffffffffffffffffffffffffffffffffff166002600083815260200190815260200160002060010160009054906101000a900473ffffffffffffffffffffffffffffffffffffffff1673ffffffffffffffffffffffffffffffffffffffff1614612703576040517f08c379a00000000000000000000000000000000000000000000000000000000081526004016126fa90615049565b60405180910390fd5b600260008481526020019081526020016000206000808201600090556001820160006101000a81549073ffffffffffffffffffffffffffffffffffffffff0219169055600282016000808201600061275b9190613563565b60018201600061276b9190613563565b60028201600061277b9190613563565b60038201600061278b9190613563565b60048201600061279b9190613563565b6005820160006101000a81549060ff02191690556006820160006127bf9190613563565b6007820160006127cf9190613563565b6008820160006127df9190613563565b6009820160006127ef9190613563565b600a820160006101000a81549060ff0219169055600b820160006128139190613563565b600c820160006128239190613563565b600d820160006128339190613563565b600e820160006128439190613563565b600f820160006128539190613563565b6010820160006128639190613563565b505060138201600090556014820160006101000a81549060ff02191690556015820160009055505060046000848152602001908152602001600020600080820160006128af9190613563565b60018201600090556002820160006128c79190613563565b6003820160006128d791906135a3565b600482016000905560058201600090556006820160006128f79190613563565b5050505050565b60008180600260008381526020019081526020016000206000015414612959576040517f08c379a000000000000000000000000000000000000000000000000000000000815260040161295090614fb7565b60405180910390fd5b6000600260008581526020019081526020016000206040518060c0016040529081600082015481526020016001820160009054906101000a900473ffffffffffffffffffffffffffffffffffffffff1673ffffffffffffffffffffffffffffffffffffffff1673ffffffffffffffffffffffffffffffffffffffff16815260200160028201604051806102200160405290816000820180546129fa90614c22565b80601f0160208091040260200160405190810160405280929190818152602001828054612a2690614c22565b8015612a735780601f10612a4857610100808354040283529160200191612a73565b820191906000526020600020905b815481529060010190602001808311612a5657829003601f168201915b50505050508152602001600182018054612a8c90614c22565b80601f0160208091040260200160405190810160405280929190818152602001828054612ab890614c22565b8015612b055780601f10612ada57610100808354040283529160200191612b05565b820191906000526020600020905b815481529060010190602001808311612ae857829003601f168201915b50505050508152602001600282018054612b1e90614c22565b80601f0160208091040260200160405190810160405280929190818152602001828054612b4a90614c22565b8015612b975780601f10612b6c57610100808354040283529160200191612b97565b820191906000526020600020905b815481529060010190602001808311612b7a57829003601f168201915b50505050508152602001600382018054612bb090614c22565b80601f0160208091040260200160405190810160405280929190818152602001828054612bdc90614c22565b8015612c295780601f10612bfe57610100808354040283529160200191612c29565b820191906000526020600020905b815481529060010190602001808311612c0c57829003601f168201915b50505050508152602001600482018054612c4290614c22565b80601f0160208091040260200160405190810160405280929190818152602001828054612c6e90614c22565b8015612cbb5780601f10612c9057610100808354040283529160200191612cbb565b820191906000526020600020905b815481529060010190602001808311612c9e57829003601f168201915b505050505081526020016005820160009054906101000a900460ff16151515158152602001600682018054612cef90614c22565b80601f0160208091040260200160405190810160405280929190818152602001828054612d1b90614c22565b8015612d685780601f10612d3d57610100808354040283529160200191612d68565b820191906000526020600020905b815481529060010190602001808311612d4b57829003601f168201915b50505050508152602001600782018054612d8190614c22565b80601f0160208091040260200160405190810160405280929190818152602001828054612dad90614c22565b8015612dfa5780601f10612dcf57610100808354040283529160200191612dfa565b820191906000526020600020905b815481529060010190602001808311612ddd57829003601f168201915b50505050508152602001600882018054612e1390614c22565b80601f0160208091040260200160405190810160405280929190818152602001828054612e3f90614c22565b8015612e8c5780601f10612e6157610100808354040283529160200191612e8c565b820191906000526020600020905b815481529060010190602001808311612e6f57829003601f168201915b50505050508152602001600982018054612ea590614c22565b80601f0160208091040260200160405190810160405280929190818152602001828054612ed190614c22565b8015612f1e5780601f10612ef357610100808354040283529160200191612f1e565b820191906000526020600020905b815481529060010190602001808311612f0157829003601f168201915b50505050508152602001600a820160009054906101000a900460ff16151515158152602001600b82018054612f5290614c22565b80601f0160208091040260200160405190810160405280929190818152602001828054612f7e90614c22565b8015612fcb5780601f10612fa057610100808354040283529160200191612fcb565b820191906000526020600020905b815481529060010190602001808311612fae57829003601f168201915b50505050508152602001600c82018054612fe490614c22565b80601f016020809104026020016040519081016040528092919081815260200182805461301090614c22565b801561305d5780601f106130325761010080835404028352916020019161305d565b820191906000526020600020905b81548152906001019060200180831161304057829003601f168201915b50505050508152602001600d8201805461307690614c22565b80601f01602080910402602001604051908101604052809291908181526020018280546130a290614c22565b80156130ef5780601f106130c4576101008083540402835291602001916130ef565b820191906000526020600020905b8154815290600101906020018083116130d257829003601f168201915b50505050508152602001600e8201805461310890614c22565b80601f016020809104026020016040519081016040528092919081815260200182805461313490614c22565b80156131815780601f1061315657610100808354040283529160200191613181565b820191906000526020600020905b81548152906001019060200180831161316457829003601f168201915b50505050508152602001600f8201805461319a90614c22565b80601f01602080910402602001604051908101604052809291908181526020018280546131c690614c22565b80156132135780601f106131e857610100808354040283529160200191613213565b820191906000526020600020905b8154815290600101906020018083116131f657829003601f168201915b5050505050815260200160108201805461322c90614c22565b80601f016020809104026020016040519081016040528092919081815260200182805461325890614c22565b80156132a55780601f1061327a576101008083540402835291602001916132a5565b820191906000526020600020905b81548152906001019060200180831161328857829003601f168201915b5050505050815250508152602001601382015481526020016014820160009054906101000a900460ff161515151581526020016015820154815250509050620151808160a001516132f691906151af565b42101592505050919050565b61330a613388565b600073ffffffffffffffffffffffffffffffffffffffff168173ffffffffffffffffffffffffffffffffffffffff160361337c5760006040517f1e4fbdf7000000000000000000000000000000000000000000000000000000008152600401613373919061480a565b60405180910390fd5b6133858161340f565b50565b6133906134d3565b73ffffffffffffffffffffffffffffffffffffffff166133ae6115b5565b73ffffffffffffffffffffffffffffffffffffffff161461340d576133d16134d3565b6040517f118cdaa7000000000000000000000000000000000000000000000000000000008152600401613404919061480a565b60405180910390fd5b565b60008060009054906101000a900473ffffffffffffffffffffffffffffffffffffffff169050816000806101000a81548173ffffffffffffffffffffffffffffffffffffffff021916908373ffffffffffffffffffffffffffffffffffffffff1602179055508173ffffffffffffffffffffffffffffffffffffffff168173ffffffffffffffffffffffffffffffffffffffff167f8be0079c531659141344cd1fd0a4f28419497f9722a3daafe3b4186f6b6457e060405160405180910390a35050565b600033905090565b828054828255906000526020600020908101928215613523579160200282015b828111156135225782518290816135129190614dff565b50916020019190600101906134fb565b5b50905061353091906135c4565b5090565b60405180606001604052806135476135e8565b815260200161355461363c565b81526020016000151581525090565b50805461356f90614c22565b6000825580601f1061358157506135a0565b601f01602090049060005260206000209081019061359f9190613679565b5b50565b50805460008255906000526020600020908101906135c191906135c4565b50565b5b808211156135e457600081816135db9190613563565b506001016135c5565b5090565b6040518060c0016040528060008152602001600073ffffffffffffffffffffffffffffffffffffffff16815260200161361f613696565b815260200160008152602001600015158152602001600081525090565b6040518060e00160405280606081526020016000815260200160608152602001606081526020016000815260200160008152602001606081525090565b5b8082111561369257600081600090555060010161367a565b5090565b6040518061022001604052806060815260200160608152602001606081526020016060815260200160608152602001600015158152602001606081526020016060815260200160608152602001606081526020016000151581526020016060815260200160608152602001606081526020016060815260200160608152602001606081525090565b6000604051905090565b600080fd5b600080fd5b600073ffffffffffffffffffffffffffffffffffffffff82169050919050565b600061375d82613732565b9050919050565b61376d81613752565b811461377857600080fd5b50565b60008135905061378a81613764565b92915050565b600080fd5b6000601f19601f8301169050919050565b7f4e487b7100000000000000000000000000000000000000000000000000000000600052604160045260246000fd5b6137de82613795565b810181811067ffffffffffffffff821117156137fd576137fc6137a6565b5b80604052505050565b600061381061371e565b905061381c82826137d5565b919050565b600080fd5b600080fd5b600080fd5b600067ffffffffffffffff82111561384b5761384a6137a6565b5b61385482613795565b9050602081019050919050565b82818337600083830152505050565b600061388361387e84613830565b613806565b90508281526020810184848401111561389f5761389e61382b565b5b6138aa848285613861565b509392505050565b600082601f8301126138c7576138c6613826565b5b81356138d7848260208601613870565b91505092915050565b60008115159050919050565b6138f5816138e0565b811461390057600080fd5b50565b600081359050613912816138ec565b92915050565b6000610220828403121561392f5761392e613790565b5b61393a610220613806565b9050600082013567ffffffffffffffff81111561395a57613959613821565b5b613966848285016138b2565b600083015250602082013567ffffffffffffffff81111561398a57613989613821565b5b613996848285016138b2565b602083015250604082013567ffffffffffffffff8111156139ba576139b9613821565b5b6139c6848285016138b2565b604083015250606082013567ffffffffffffffff8111156139ea576139e9613821565b5b6139f6848285016138b2565b606083015250608082013567ffffffffffffffff811115613a1a57613a19613821565b5b613a26848285016138b2565b60808301525060a0613a3a84828501613903565b60a08301525060c082013567ffffffffffffffff811115613a5e57613a5d613821565b5b613a6a848285016138b2565b60c08301525060e082013567ffffffffffffffff811115613a8e57613a8d613821565b5b613a9a848285016138b2565b60e08301525061010082013567ffffffffffffffff811115613abf57613abe613821565b5b613acb848285016138b2565b6101008301525061012082013567ffffffffffffffff811115613af157613af0613821565b5b613afd848285016138b2565b61012083015250610140613b1384828501613903565b6101408301525061016082013567ffffffffffffffff811115613b3957613b38613821565b5b613b45848285016138b2565b6101608301525061018082013567ffffffffffffffff811115613b6b57613b6a613821565b5b613b77848285016138b2565b610180830152506101a082013567ffffffffffffffff811115613b9d57613b9c613821565b5b613ba9848285016138b2565b6101a0830152506101c082013567ffffffffffffffff811115613bcf57613bce613821565b5b613bdb848285016138b2565b6101c0830152506101e082013567ffffffffffffffff811115613c0157613c00613821565b5b613c0d848285016138b2565b6101e08301525061020082013567ffffffffffffffff811115613c3357613c32613821565b5b613c3f848285016138b2565b6102008301525092915050565b6000819050919050565b613c5f81613c4c565b8114613c6a57600080fd5b50565b600081359050613c7c81613c56565b92915050565b600067ffffffffffffffff821115613c9d57613c9c6137a6565b5b602082029050602081019050919050565b600080fd5b6000613cc6613cc184613c82565b613806565b90508083825260208201905060208402830185811115613ce957613ce8613cae565b5b835b81811015613d3057803567ffffffffffffffff811115613d0e57613d0d613826565b5b808601613d1b89826138b2565b85526020850194505050602081019050613ceb565b5050509392505050565b600082601f830112613d4f57613d4e613826565b5b8135613d5f848260208601613cb3565b91505092915050565b600060e08284031215613d7e57613d7d613790565b5b613d8860e0613806565b9050600082013567ffffffffffffffff811115613da857613da7613821565b5b613db4848285016138b2565b6000830152506020613dc884828501613c6d565b602083015250604082013567ffffffffffffffff811115613dec57613deb613821565b5b613df8848285016138b2565b604083015250606082013567ffffffffffffffff811115613e1c57613e1b613821565b5b613e2884828501613d3a565b6060830152506080613e3c84828501613c6d565b60808301525060a0613e5084828501613c6d565b60a08301525060c082013567ffffffffffffffff811115613e7457613e73613821565b5b613e80848285016138b2565b60c08301525092915050565b60008060008060808587031215613ea657613ea5613728565b5b6000613eb48782880161377b565b945050602085013567ffffffffffffffff811115613ed557613ed461372d565b5b613ee187828801613918565b9350506040613ef287828801613903565b925050606085013567ffffffffffffffff811115613f1357613f1261372d565b5b613f1f87828801613d68565b91505092959194509250565b600081519050919050565b600082825260208201905092915050565b6000819050602082019050919050565b613f6081613c4c565b82525050565b613f6f81613752565b82525050565b600081519050919050565b600082825260208201905092915050565b60005b83811015613faf578082015181840152602081019050613f94565b60008484015250505050565b6000613fc682613f75565b613fd08185613f80565b9350613fe0818560208601613f91565b613fe981613795565b840191505092915050565b613ffd816138e0565b82525050565b60006102208301600083015184820360008601526140218282613fbb565b9150506020830151848203602086015261403b8282613fbb565b915050604083015184820360408601526140558282613fbb565b9150506060830151848203606086015261406f8282613fbb565b915050608083015184820360808601526140898282613fbb565b91505060a083015161409e60a0860182613ff4565b5060c083015184820360c08601526140b68282613fbb565b91505060e083015184820360e08601526140d08282613fbb565b9150506101008301518482036101008601526140ec8282613fbb565b9150506101208301518482036101208601526141088282613fbb565b91505061014083015161411f610140860182613ff4565b506101608301518482036101608601526141398282613fbb565b9150506101808301518482036101808601526141558282613fbb565b9150506101a08301518482036101a08601526141718282613fbb565b9150506101c08301518482036101c086015261418d8282613fbb565b9150506101e08301518482036101e08601526141a98282613fbb565b9150506102008301518482036102008601526141c58282613fbb565b9150508091505092915050565b600060c0830160008301516141ea6000860182613f57565b5060208301516141fd6020860182613f66565b50604083015184820360408601526142158282614003565b915050606083015161422a6060860182613f57565b50608083015161423d6080860182613ff4565b5060a083015161425060a0860182613f57565b508091505092915050565b600081519050919050565b600082825260208201905092915050565b6000819050602082019050919050565b60006142938383613fbb565b905092915050565b6000602082019050919050565b60006142b38261425b565b6142bd8185614266565b9350836020820285016142cf85614277565b8060005b8581101561430b57848403895281516142ec8582614287565b94506142f78361429b565b925060208a019950506001810190506142d3565b50829750879550505050505092915050565b600060e083016000830151848203600086015261433a8282613fbb565b915050602083015161434f6020860182613f57565b50604083015184820360408601526143678282613fbb565b9150506060830151848203606086015261438182826142a8565b91505060808301516143966080860182613f57565b5060a08301516143a960a0860182613f57565b5060c083015184820360c08601526143c18282613fbb565b9150508091505092915050565b600060608301600083015184820360008601526143eb82826141d2565b91505060208301518482036020860152614405828261431d565b915050604083015161441a6040860182613ff4565b508091505092915050565b600061443183836143ce565b905092915050565b6000602082019050919050565b600061445182613f2b565b61445b8185613f36565b93508360208202850161446d85613f47565b8060005b858110156144a9578484038952815161448a8582614425565b945061449583614439565b925060208a01995050600181019050614471565b50829750879550505050505092915050565b600060208201905081810360008301526144d58184614446565b905092915050565b600080604083850312156144f4576144f3613728565b5b600061450285828601613c6d565b925050602083013567ffffffffffffffff8111156145235761452261372d565b5b61452f858286016138b2565b9150509250929050565b600080604083850312156145505761454f613728565b5b600061455e85828601613c6d565b925050602061456f8582860161377b565b9150509250929050565b60006020828403121561458f5761458e613728565b5b600061459d84828501613c6d565b91505092915050565b6145af81613c4c565b82525050565b6145be81613752565b82525050565b60006102208301600083015184820360008601526145e28282613fbb565b915050602083015184820360208601526145fc8282613fbb565b915050604083015184820360408601526146168282613fbb565b915050606083015184820360608601526146308282613fbb565b9150506080830151848203608086015261464a8282613fbb565b91505060a083015161465f60a0860182613ff4565b5060c083015184820360c08601526146778282613fbb565b91505060e083015184820360e08601526146918282613fbb565b9150506101008301518482036101008601526146ad8282613fbb565b9150506101208301518482036101208601526146c98282613fbb565b9150506101408301516146e0610140860182613ff4565b506101608301518482036101608601526146fa8282613fbb565b9150506101808301518482036101808601526147168282613fbb565b9150506101a08301518482036101a08601526147328282613fbb565b9150506101c08301518482036101c086015261474e8282613fbb565b9150506101e08301518482036101e086015261476a8282613fbb565b9150506102008301518482036102008601526147868282613fbb565b9150508091505092915050565b61479c816138e0565b82525050565b600060c0820190506147b760008301896145a6565b6147c460208301886145b5565b81810360408301526147d681876145c4565b90506147e560608301866145a6565b6147f26080830185614793565b6147ff60a08301846145a6565b979650505050505050565b600060208201905061481f60008301846145b5565b92915050565b600082825260208201905092915050565b600061484182613f75565b61484b8185614825565b935061485b818560208601613f91565b61486481613795565b840191505092915050565b600060c08201905081810360008301526148898189614836565b905061489860208301886145a6565b81810360408301526148aa8187614836565b90506148b960608301866145a6565b6148c660808301856145a6565b81810360a08301526148d88184614836565b9050979650505050505050565b60006020820190506148fa6000830184614793565b92915050565b6000606083016000830151848203600086015261491d82826141d2565b91505060208301518482036020860152614937828261431d565b915050604083015161494c6040860182613ff4565b508091505092915050565b600060208201905081810360008301526149718184614900565b905092915050565b60006020828403121561498f5761498e613728565b5b600061499d8482850161377b565b91505092915050565b7f50726f64756374206e616d652063616e6e6f7420626520656d70747900000000600082015250565b60006149dc601c83614825565b91506149e7826149a6565b602082019050919050565b60006020820190508181036000830152614a0b816149cf565b9050919050565b7f50726f64756374206465736372697074696f6e2063616e6e6f7420626520656d60008201527f7074790000000000000000000000000000000000000000000000000000000000602082015250565b6000614a6e602383614825565b9150614a7982614a12565b604082019050919050565b60006020820190508181036000830152614a9d81614a61565b9050919050565b7f50726f64756374206c696e6b2063616e6e6f7420626520656d70747900000000600082015250565b6000614ada601c83614825565b9150614ae582614aa4565b602082019050919050565b60006020820190508181036000830152614b0981614acd565b9050919050565b7f4e487b7100000000000000000000000000000000000000000000000000000000600052601160045260246000fd5b6000614b4a82613c4c565b91507fffffffffffffffffffffffffffffffffffffffffffffffffffffffffffffffff8203614b7c57614b7b614b10565b5b600182019050919050565b7f426574612074657374696e67206c696e6b207265717569726564000000000000600082015250565b6000614bbd601a83614825565b9150614bc882614b87565b602082019050919050565b60006020820190508181036000830152614bec81614bb0565b9050919050565b7f4e487b7100000000000000000000000000000000000000000000000000000000600052602260045260246000fd5b60006002820490506001821680614c3a57607f821691505b602082108103614c4d57614c4c614bf3565b5b50919050565b60008190508160005260206000209050919050565b60006020601f8301049050919050565b600082821b905092915050565b600060088302614cb57fffffffffffffffffffffffffffffffffffffffffffffffffffffffffffffffff82614c78565b614cbf8683614c78565b95508019841693508086168417925050509392505050565b6000819050919050565b6000614cfc614cf7614cf284613c4c565b614cd7565b613c4c565b9050919050565b6000819050919050565b614d1683614ce1565b614d2a614d2282614d03565b848454614c85565b825550505050565b600090565b614d3f614d32565b614d4a818484614d0d565b505050565b5b81811015614d6e57614d63600082614d37565b600181019050614d50565b5050565b601f821115614db357614d8481614c53565b614d8d84614c68565b81016020851015614d9c578190505b614db0614da885614c68565b830182614d4f565b50505b505050565b600082821c905092915050565b6000614dd660001984600802614db8565b1980831691505092915050565b6000614def8383614dc5565b9150826002028217905092915050565b614e0882613f75565b67ffffffffffffffff811115614e2157614e206137a6565b5b614e2b8254614c22565b614e36828285614d72565b600060209050601f831160018114614e695760008415614e57578287015190505b614e618582614de3565b865550614ec9565b601f198416614e7786614c53565b60005b82811015614e9f57848901518255600182019150602085019450602081019050614e7a565b86831015614ebc5784890151614eb8601f891682614dc5565b8355505b6001600288020188555050505b505050505050565b60006040820190508181036000830152614eeb8185614836565b90508181036020830152614eff8184614836565b90509392505050565b6000614f1382613c4c565b9150614f1e83613c4c565b9250828203905081811115614f3657614f35614b10565b5b92915050565b7f4e487b7100000000000000000000000000000000000000000000000000000000600052603260045260246000fd5b7f50726f6475637420646f6573206e6f7420657869737400000000000000000000600082015250565b6000614fa1601683614825565b9150614fac82614f6b565b602082019050919050565b60006020820190508181036000830152614fd081614f94565b9050919050565b7f4f6e6c79207468652070726f64756374206f776e65722063616e20706572666f60008201527f726d207468697320616374696f6e000000000000000000000000000000000000602082015250565b6000615033602e83614825565b915061503e82614fd7565b604082019050919050565b6000602082019050818103600083015261506281615026565b9050919050565b600060208201905081810360008301526150838184614836565b905092915050565b7f50726f64756374206f776e65722063616e6e6f74207570766f7465207468656960008201527f72206f776e2070726f6475637400000000000000000000000000000000000000602082015250565b60006150e7602d83614825565b91506150f28261508b565b604082019050919050565b60006020820190508181036000830152615116816150da565b9050919050565b7f557365722068617320616c7265616479207570766f746564207468697320707260008201527f6f64756374000000000000000000000000000000000000000000000000000000602082015250565b6000615179602583614825565b91506151848261511d565b604082019050919050565b600060208201905081810360008301526151a88161516c565b9050919050565b60006151ba82613c4c565b91506151c583613c4c565b92508282019050808211156151dd576151dc614b10565b5b9291505056fea2646970667358221220806488129afbce6057f2f434f17beb3e5a99f348422fccaf9baf9fa4c2a3faf664736f6c63430008180033",
  "linkReferences": {},
  "deployedLinkReferences": {}
}