{
  "_format": "hh-sol-artifact-1",
  "contractName": "ProductFindr",
  "sourceName": "contracts/ProductFindr.sol",
  "abi": [
    {
      "inputs": [
        {
          "internalType": "address",
          "name": "_productAddress",
          "type": "address"
        },
        {
          "internalType": "address",
          "name": "_commentAddress",
          "type": "address"
        },
        {
          "internalType": "address",
          "name": "_reviewAddress",
          "type": "address"
        },
        {
          "internalType": "address",
          "name": "_betaTestingManagerAddress",
          "type": "address"
        },
        {
          "internalType": "address",
          "name": "initialOwner",
          "type": "address"
        }
      ],
      "stateMutability": "nonpayable",
      "type": "constructor"
    },
    {
      "inputs": [
        {
          "internalType": "address",
          "name": "owner",
          "type": "address"
        }
      ],
      "name": "OwnableInvalidOwner",
      "type": "error"
    },
    {
      "inputs": [
        {
          "internalType": "address",
          "name": "account",
          "type": "address"
        }
      ],
      "name": "OwnableUnauthorizedAccount",
      "type": "error"
    },
    {
      "anonymous": false,
      "inputs": [
        {
          "indexed": true,
          "internalType": "address",
          "name": "previousOwner",
          "type": "address"
        },
        {
          "indexed": true,
          "internalType": "address",
          "name": "newOwner",
          "type": "address"
        }
      ],
      "name": "OwnershipTransferred",
      "type": "event"
    },
    {
      "anonymous": false,
      "inputs": [
        {
          "indexed": true,
          "internalType": "address",
          "name": "user",
          "type": "address"
        },
        {
          "indexed": false,
          "internalType": "uint256",
          "name": "reputation",
          "type": "uint256"
        }
      ],
      "name": "UserReputationUpdated",
      "type": "event"
    },
    {
      "inputs": [
        {
          "internalType": "address",
          "name": "_reviewer",
          "type": "address"
        },
        {
          "internalType": "uint256",
          "name": "_productId",
          "type": "uint256"
        },
        {
          "internalType": "string",
          "name": "_content",
          "type": "string"
        },
        {
          "internalType": "uint256",
          "name": "_rating",
          "type": "uint256"
        }
      ],
      "name": "addReview",
      "outputs": [],
      "stateMutability": "nonpayable",
      "type": "function"
    },
    {
      "inputs": [
        {
          "internalType": "uint256",
          "name": "_productId",
          "type": "uint256"
        },
        {
          "internalType": "string",
          "name": "_content",
          "type": "string"
        }
      ],
      "name": "commentOnProduct",
      "outputs": [],
      "stateMutability": "nonpayable",
      "type": "function"
    },
    {
      "inputs": [
        {
          "internalType": "uint256",
          "name": "_productId",
          "type": "uint256"
        },
        {
          "internalType": "uint256",
          "name": "_commentId",
          "type": "uint256"
        }
      ],
      "name": "getComment",
      "outputs": [
        {
          "components": [
            {
              "internalType": "address",
              "name": "commenter",
              "type": "address"
            },
            {
              "internalType": "string",
              "name": "content",
              "type": "string"
            },
            {
              "internalType": "uint256",
              "name": "timestamp",
              "type": "uint256"
            }
          ],
          "internalType": "struct Comment.CommentInfo",
          "name": "",
          "type": "tuple"
        }
      ],
      "stateMutability": "view",
      "type": "function"
    },
    {
      "inputs": [
        {
          "internalType": "uint256",
          "name": "_productId",
          "type": "uint256"
        },
        {
          "internalType": "uint256",
          "name": "_commentId",
          "type": "uint256"
        }
      ],
      "name": "getCommenter",
      "outputs": [
        {
          "internalType": "address",
          "name": "",
          "type": "address"
        }
      ],
      "stateMutability": "view",
      "type": "function"
    },
    {
      "inputs": [
        {
          "internalType": "uint256",
          "name": "_productId",
          "type": "uint256"
        }
      ],
      "name": "getComments",
      "outputs": [
        {
          "components": [
            {
              "internalType": "address",
              "name": "commenter",
              "type": "address"
            },
            {
              "internalType": "string",
              "name": "content",
              "type": "string"
            },
            {
              "internalType": "uint256",
              "name": "timestamp",
              "type": "uint256"
            }
          ],
          "internalType": "struct Comment.CommentInfo[]",
          "name": "",
          "type": "tuple[]"
        }
      ],
      "stateMutability": "view",
      "type": "function"
    },
    {
      "inputs": [
        {
          "internalType": "uint256",
          "name": "_productId",
          "type": "uint256"
        }
      ],
      "name": "getCommentsCount",
      "outputs": [
        {
          "internalType": "uint256",
          "name": "",
          "type": "uint256"
        }
      ],
      "stateMutability": "view",
      "type": "function"
    },
    {
      "inputs": [],
      "name": "getListedProducts",
      "outputs": [
        {
          "components": [
            {
              "components": [
                {
                  "internalType": "uint256",
                  "name": "id",
                  "type": "uint256"
                },
                {
                  "internalType": "address",
                  "name": "owner",
                  "type": "address"
                },
                {
                  "components": [
                    {
                      "internalType": "string",
                      "name": "productName",
                      "type": "string"
                    },
                    {
                      "internalType": "string",
                      "name": "tagLine",
                      "type": "string"
                    },
                    {
                      "internalType": "string",
                      "name": "productLink",
                      "type": "string"
                    },
                    {
                      "internalType": "string",
                      "name": "twitterLink",
                      "type": "string"
                    },
                    {
                      "internalType": "string",
                      "name": "description",
                      "type": "string"
                    },
                    {
                      "internalType": "bool",
                      "name": "isOpenSource",
                      "type": "bool"
                    },
                    {
                      "internalType": "string",
                      "name": "category",
                      "type": "string"
                    },
                    {
                      "internalType": "string",
                      "name": "thumbNail",
                      "type": "string"
                    },
                    {
                      "internalType": "string",
                      "name": "mediaFile",
                      "type": "string"
                    },
                    {
                      "internalType": "string",
                      "name": "loomLink",
                      "type": "string"
                    },
                    {
                      "internalType": "bool",
                      "name": "workedWithTeam",
                      "type": "bool"
                    },
                    {
                      "internalType": "string",
                      "name": "teamMembersInput",
                      "type": "string"
                    },
                    {
                      "internalType": "string",
                      "name": "pricingOption",
                      "type": "string"
                    },
                    {
                      "internalType": "string",
                      "name": "offer",
                      "type": "string"
                    },
                    {
                      "internalType": "string",
                      "name": "promoCode",
                      "type": "string"
                    },
                    {
                      "internalType": "string",
                      "name": "expirationDate",
                      "type": "string"
                    },
                    {
                      "internalType": "string",
                      "name": "betaTestingLink",
                      "type": "string"
                    }
                  ],
                  "internalType": "struct ProductLibrary.ProductDetails",
                  "name": "details",
                  "type": "tuple"
                },
                {
                  "internalType": "uint256",
                  "name": "upvotes",
                  "type": "uint256"
                },
                {
                  "internalType": "bool",
                  "name": "betaTestingAvailable",
                  "type": "bool"
                },
                {
                  "internalType": "uint256",
                  "name": "timestamp",
                  "type": "uint256"
                }
              ],
              "internalType": "struct ProductLibrary.ProductInfo",
              "name": "product",
              "type": "tuple"
            },
            {
              "components": [
                {
                  "internalType": "string",
                  "name": "contractAddress",
                  "type": "string"
                },
                {
                  "internalType": "uint256",
                  "name": "targetNumbersOfTester",
                  "type": "uint256"
                },
                {
                  "internalType": "string",
                  "name": "testingGoal",
                  "type": "string"
                },
                {
                  "internalType": "string[]",
                  "name": "goals",
                  "type": "string[]"
                },
                {
                  "internalType": "uint256",
                  "name": "startingDate",
                  "type": "uint256"
                },
                {
                  "internalType": "uint256",
                  "name": "endingDate",
                  "type": "uint256"
                },
                {
                  "internalType": "string",
                  "name": "featureLoomLink",
                  "type": "string"
                }
              ],
              "internalType": "struct BetaTestingDetailsLibrary.BetaTestingDetails",
              "name": "betaTestingDetails",
              "type": "tuple"
            },
            {
              "internalType": "bool",
              "name": "hasBetaTestingDetails",
              "type": "bool"
            }
          ],
          "internalType": "struct ProductLibrary.ProductWithBetaTesting[]",
          "name": "",
          "type": "tuple[]"
        }
      ],
      "stateMutability": "view",
      "type": "function"
    },
    {
      "inputs": [],
      "name": "getListedProductsAvailable",
      "outputs": [
        {
          "components": [
            {
              "components": [
                {
                  "internalType": "uint256",
                  "name": "id",
                  "type": "uint256"
                },
                {
                  "internalType": "address",
                  "name": "owner",
                  "type": "address"
                },
                {
                  "components": [
                    {
                      "internalType": "string",
                      "name": "productName",
                      "type": "string"
                    },
                    {
                      "internalType": "string",
                      "name": "tagLine",
                      "type": "string"
                    },
                    {
                      "internalType": "string",
                      "name": "productLink",
                      "type": "string"
                    },
                    {
                      "internalType": "string",
                      "name": "twitterLink",
                      "type": "string"
                    },
                    {
                      "internalType": "string",
                      "name": "description",
                      "type": "string"
                    },
                    {
                      "internalType": "bool",
                      "name": "isOpenSource",
                      "type": "bool"
                    },
                    {
                      "internalType": "string",
                      "name": "category",
                      "type": "string"
                    },
                    {
                      "internalType": "string",
                      "name": "thumbNail",
                      "type": "string"
                    },
                    {
                      "internalType": "string",
                      "name": "mediaFile",
                      "type": "string"
                    },
                    {
                      "internalType": "string",
                      "name": "loomLink",
                      "type": "string"
                    },
                    {
                      "internalType": "bool",
                      "name": "workedWithTeam",
                      "type": "bool"
                    },
                    {
                      "internalType": "string",
                      "name": "teamMembersInput",
                      "type": "string"
                    },
                    {
                      "internalType": "string",
                      "name": "pricingOption",
                      "type": "string"
                    },
                    {
                      "internalType": "string",
                      "name": "offer",
                      "type": "string"
                    },
                    {
                      "internalType": "string",
                      "name": "promoCode",
                      "type": "string"
                    },
                    {
                      "internalType": "string",
                      "name": "expirationDate",
                      "type": "string"
                    },
                    {
                      "internalType": "string",
                      "name": "betaTestingLink",
                      "type": "string"
                    }
                  ],
                  "internalType": "struct ProductLibrary.ProductDetails",
                  "name": "details",
                  "type": "tuple"
                },
                {
                  "internalType": "uint256",
                  "name": "upvotes",
                  "type": "uint256"
                },
                {
                  "internalType": "bool",
                  "name": "betaTestingAvailable",
                  "type": "bool"
                },
                {
                  "internalType": "uint256",
                  "name": "timestamp",
                  "type": "uint256"
                }
              ],
              "internalType": "struct ProductLibrary.ProductInfo",
              "name": "product",
              "type": "tuple"
            },
            {
              "components": [
                {
                  "internalType": "string",
                  "name": "contractAddress",
                  "type": "string"
                },
                {
                  "internalType": "uint256",
                  "name": "targetNumbersOfTester",
                  "type": "uint256"
                },
                {
                  "internalType": "string",
                  "name": "testingGoal",
                  "type": "string"
                },
                {
                  "internalType": "string[]",
                  "name": "goals",
                  "type": "string[]"
                },
                {
                  "internalType": "uint256",
                  "name": "startingDate",
                  "type": "uint256"
                },
                {
                  "internalType": "uint256",
                  "name": "endingDate",
                  "type": "uint256"
                },
                {
                  "internalType": "string",
                  "name": "featureLoomLink",
                  "type": "string"
                }
              ],
              "internalType": "struct BetaTestingDetailsLibrary.BetaTestingDetails",
              "name": "betaTestingDetails",
              "type": "tuple"
            },
            {
              "internalType": "bool",
              "name": "hasBetaTestingDetails",
              "type": "bool"
            }
          ],
          "internalType": "struct ProductLibrary.ProductWithBetaTesting[]",
          "name": "",
          "type": "tuple[]"
        }
      ],
      "stateMutability": "view",
      "type": "function"
    },
    {
      "inputs": [
        {
          "internalType": "uint256",
          "name": "_productId",
          "type": "uint256"
        }
      ],
      "name": "getProduct",
      "outputs": [
        {
          "components": [
            {
              "components": [
                {
                  "internalType": "uint256",
                  "name": "id",
                  "type": "uint256"
                },
                {
                  "internalType": "address",
                  "name": "owner",
                  "type": "address"
                },
                {
                  "components": [
                    {
                      "internalType": "string",
                      "name": "productName",
                      "type": "string"
                    },
                    {
                      "internalType": "string",
                      "name": "tagLine",
                      "type": "string"
                    },
                    {
                      "internalType": "string",
                      "name": "productLink",
                      "type": "string"
                    },
                    {
                      "internalType": "string",
                      "name": "twitterLink",
                      "type": "string"
                    },
                    {
                      "internalType": "string",
                      "name": "description",
                      "type": "string"
                    },
                    {
                      "internalType": "bool",
                      "name": "isOpenSource",
                      "type": "bool"
                    },
                    {
                      "internalType": "string",
                      "name": "category",
                      "type": "string"
                    },
                    {
                      "internalType": "string",
                      "name": "thumbNail",
                      "type": "string"
                    },
                    {
                      "internalType": "string",
                      "name": "mediaFile",
                      "type": "string"
                    },
                    {
                      "internalType": "string",
                      "name": "loomLink",
                      "type": "string"
                    },
                    {
                      "internalType": "bool",
                      "name": "workedWithTeam",
                      "type": "bool"
                    },
                    {
                      "internalType": "string",
                      "name": "teamMembersInput",
                      "type": "string"
                    },
                    {
                      "internalType": "string",
                      "name": "pricingOption",
                      "type": "string"
                    },
                    {
                      "internalType": "string",
                      "name": "offer",
                      "type": "string"
                    },
                    {
                      "internalType": "string",
                      "name": "promoCode",
                      "type": "string"
                    },
                    {
                      "internalType": "string",
                      "name": "expirationDate",
                      "type": "string"
                    },
                    {
                      "internalType": "string",
                      "name": "betaTestingLink",
                      "type": "string"
                    }
                  ],
                  "internalType": "struct ProductLibrary.ProductDetails",
                  "name": "details",
                  "type": "tuple"
                },
                {
                  "internalType": "uint256",
                  "name": "upvotes",
                  "type": "uint256"
                },
                {
                  "internalType": "bool",
                  "name": "betaTestingAvailable",
                  "type": "bool"
                },
                {
                  "internalType": "uint256",
                  "name": "timestamp",
                  "type": "uint256"
                }
              ],
              "internalType": "struct ProductLibrary.ProductInfo",
              "name": "product",
              "type": "tuple"
            },
            {
              "components": [
                {
                  "internalType": "string",
                  "name": "contractAddress",
                  "type": "string"
                },
                {
                  "internalType": "uint256",
                  "name": "targetNumbersOfTester",
                  "type": "uint256"
                },
                {
                  "internalType": "string",
                  "name": "testingGoal",
                  "type": "string"
                },
                {
                  "internalType": "string[]",
                  "name": "goals",
                  "type": "string[]"
                },
                {
                  "internalType": "uint256",
                  "name": "startingDate",
                  "type": "uint256"
                },
                {
                  "internalType": "uint256",
                  "name": "endingDate",
                  "type": "uint256"
                },
                {
                  "internalType": "string",
                  "name": "featureLoomLink",
                  "type": "string"
                }
              ],
              "internalType": "struct BetaTestingDetailsLibrary.BetaTestingDetails",
              "name": "betaTestingDetails",
              "type": "tuple"
            },
            {
              "internalType": "bool",
              "name": "hasBetaTestingDetails",
              "type": "bool"
            }
          ],
          "internalType": "struct ProductLibrary.ProductWithBetaTesting",
          "name": "",
          "type": "tuple"
        }
      ],
      "stateMutability": "view",
      "type": "function"
    },
    {
      "inputs": [
        {
          "internalType": "uint256",
          "name": "_productId",
          "type": "uint256"
        },
        {
          "internalType": "uint256",
          "name": "_reviewId",
          "type": "uint256"
        }
      ],
      "name": "getReview",
      "outputs": [
        {
          "components": [
            {
              "internalType": "address",
              "name": "reviewer",
              "type": "address"
            },
            {
              "internalType": "string",
              "name": "content",
              "type": "string"
            },
            {
              "internalType": "uint256",
              "name": "rating",
              "type": "uint256"
            },
            {
              "internalType": "uint256",
              "name": "timestamp",
              "type": "uint256"
            }
          ],
          "internalType": "struct Review.ReviewInfo",
          "name": "",
          "type": "tuple"
        }
      ],
      "stateMutability": "view",
      "type": "function"
    },
    {
      "inputs": [
        {
          "internalType": "uint256",
          "name": "_productId",
          "type": "uint256"
        },
        {
          "internalType": "uint256",
          "name": "_reviewId",
          "type": "uint256"
        }
      ],
      "name": "getReviewer",
      "outputs": [
        {
          "internalType": "address",
          "name": "",
          "type": "address"
        }
      ],
      "stateMutability": "view",
      "type": "function"
    },
    {
      "inputs": [
        {
          "internalType": "uint256",
          "name": "_productId",
          "type": "uint256"
        }
      ],
      "name": "getReviews",
      "outputs": [
        {
          "components": [
            {
              "internalType": "address",
              "name": "reviewer",
              "type": "address"
            },
            {
              "internalType": "string",
              "name": "content",
              "type": "string"
            },
            {
              "internalType": "uint256",
              "name": "rating",
              "type": "uint256"
            },
            {
              "internalType": "uint256",
              "name": "timestamp",
              "type": "uint256"
            }
          ],
          "internalType": "struct Review.ReviewInfo[]",
          "name": "",
          "type": "tuple[]"
        }
      ],
      "stateMutability": "view",
      "type": "function"
    },
    {
      "inputs": [
        {
          "internalType": "uint256",
          "name": "_productId",
          "type": "uint256"
        }
      ],
      "name": "getReviewsCount",
      "outputs": [
        {
          "internalType": "uint256",
          "name": "",
          "type": "uint256"
        }
      ],
      "stateMutability": "view",
      "type": "function"
    },
    {
      "inputs": [],
      "name": "owner",
      "outputs": [
        {
          "internalType": "address",
          "name": "",
          "type": "address"
        }
      ],
      "stateMutability": "view",
      "type": "function"
    },
    {
      "inputs": [
        {
          "internalType": "address",
          "name": "_owner",
          "type": "address"
        },
        {
          "components": [
            {
              "internalType": "string",
              "name": "productName",
              "type": "string"
            },
            {
              "internalType": "string",
              "name": "tagLine",
              "type": "string"
            },
            {
              "internalType": "string",
              "name": "productLink",
              "type": "string"
            },
            {
              "internalType": "string",
              "name": "twitterLink",
              "type": "string"
            },
            {
              "internalType": "string",
              "name": "description",
              "type": "string"
            },
            {
              "internalType": "bool",
              "name": "isOpenSource",
              "type": "bool"
            },
            {
              "internalType": "string",
              "name": "category",
              "type": "string"
            },
            {
              "internalType": "string",
              "name": "thumbNail",
              "type": "string"
            },
            {
              "internalType": "string",
              "name": "mediaFile",
              "type": "string"
            },
            {
              "internalType": "string",
              "name": "loomLink",
              "type": "string"
            },
            {
              "internalType": "bool",
              "name": "workedWithTeam",
              "type": "bool"
            },
            {
              "internalType": "string",
              "name": "teamMembersInput",
              "type": "string"
            },
            {
              "internalType": "string",
              "name": "pricingOption",
              "type": "string"
            },
            {
              "internalType": "string",
              "name": "offer",
              "type": "string"
            },
            {
              "internalType": "string",
              "name": "promoCode",
              "type": "string"
            },
            {
              "internalType": "string",
              "name": "expirationDate",
              "type": "string"
            },
            {
              "internalType": "string",
              "name": "betaTestingLink",
              "type": "string"
            }
          ],
          "internalType": "struct ProductLibrary.ProductDetails",
          "name": "details",
          "type": "tuple"
        },
        {
          "internalType": "bool",
          "name": "betaTestingAvailable",
          "type": "bool"
        },
        {
          "components": [
            {
              "internalType": "string",
              "name": "contractAddress",
              "type": "string"
            },
            {
              "internalType": "uint256",
              "name": "targetNumbersOfTester",
              "type": "uint256"
            },
            {
              "internalType": "string",
              "name": "testingGoal",
              "type": "string"
            },
            {
              "internalType": "string[]",
              "name": "goals",
              "type": "string[]"
            },
            {
              "internalType": "uint256",
              "name": "startingDate",
              "type": "uint256"
            },
            {
              "internalType": "uint256",
              "name": "endingDate",
              "type": "uint256"
            },
            {
              "internalType": "string",
              "name": "featureLoomLink",
              "type": "string"
            }
          ],
          "internalType": "struct BetaTestingDetailsLibrary.BetaTestingDetails",
          "name": "betaDetails",
          "type": "tuple"
        }
      ],
      "name": "registerProduct",
      "outputs": [],
      "stateMutability": "nonpayable",
      "type": "function"
    },
    {
      "inputs": [],
      "name": "renounceOwnership",
      "outputs": [],
      "stateMutability": "nonpayable",
      "type": "function"
    },
    {
      "inputs": [
        {
          "internalType": "address",
          "name": "newOwner",
          "type": "address"
        }
      ],
      "name": "transferOwnership",
      "outputs": [],
      "stateMutability": "nonpayable",
      "type": "function"
    },
    {
      "inputs": [
        {
          "internalType": "uint256",
          "name": "_productId",
          "type": "uint256"
        },
        {
          "internalType": "address",
          "name": "_upvoter",
          "type": "address"
        }
      ],
      "name": "upvoteProduct",
      "outputs": [],
      "stateMutability": "nonpayable",
      "type": "function"
    },
    {
      "inputs": [
        {
          "internalType": "address",
          "name": "",
          "type": "address"
        }
      ],
      "name": "userReputation",
      "outputs": [
        {
          "internalType": "uint256",
          "name": "",
          "type": "uint256"
        }
      ],
      "stateMutability": "view",
      "type": "function"
    }
  ],
  "bytecode": "0x60806040523480156200001157600080fd5b506040516200444e3803806200444e8339818101604052810190620000379190620002fc565b80600073ffffffffffffffffffffffffffffffffffffffff168173ffffffffffffffffffffffffffffffffffffffff1603620000ad5760006040517f1e4fbdf7000000000000000000000000000000000000000000000000000000008152600401620000a4919062000395565b60405180910390fd5b620000be81620001ce60201b60201c565b5084600160006101000a81548173ffffffffffffffffffffffffffffffffffffffff021916908373ffffffffffffffffffffffffffffffffffffffff16021790555083600260006101000a81548173ffffffffffffffffffffffffffffffffffffffff021916908373ffffffffffffffffffffffffffffffffffffffff16021790555082600360006101000a81548173ffffffffffffffffffffffffffffffffffffffff021916908373ffffffffffffffffffffffffffffffffffffffff16021790555081600460006101000a81548173ffffffffffffffffffffffffffffffffffffffff021916908373ffffffffffffffffffffffffffffffffffffffff1602179055505050505050620003b2565b60008060009054906101000a900473ffffffffffffffffffffffffffffffffffffffff169050816000806101000a81548173ffffffffffffffffffffffffffffffffffffffff021916908373ffffffffffffffffffffffffffffffffffffffff1602179055508173ffffffffffffffffffffffffffffffffffffffff168173ffffffffffffffffffffffffffffffffffffffff167f8be0079c531659141344cd1fd0a4f28419497f9722a3daafe3b4186f6b6457e060405160405180910390a35050565b600080fd5b600073ffffffffffffffffffffffffffffffffffffffff82169050919050565b6000620002c48262000297565b9050919050565b620002d681620002b7565b8114620002e257600080fd5b50565b600081519050620002f681620002cb565b92915050565b600080600080600060a086880312156200031b576200031a62000292565b5b60006200032b88828901620002e5565b95505060206200033e88828901620002e5565b94505060406200035188828901620002e5565b93505060606200036488828901620002e5565b92505060806200037788828901620002e5565b9150509295509295909350565b6200038f81620002b7565b82525050565b6000602082019050620003ac600083018462000384565b92915050565b61408c80620003c26000396000f3fe608060405234801561001057600080fd5b50600436106101215760003560e01c806382bb560b116100ad578063dcfe3e0811610071578063dcfe3e081461032c578063dfa505ed1461035c578063e503bb051461038c578063e66f7f46146103bc578063f2fde38b146103da57610121565b806382bb560b146102625780638da5cb5b1461027e5780639d4a22551461029c578063b9db15b4146102cc578063bf4f31b0146102fc57610121565b80634c9b78da116100f45780634c9b78da146101be57806352cb26af146101ee57806363283c841461020c578063715018a6146102285780637376ccfd1461023257610121565b80632326af511461012657806323edf69714610142578063395e3f1e14610172578063488927531461018e575b600080fd5b610140600480360381019061013b9190612111565b6103f6565b005b61015c600480360381019061015791906121b0565b610571565b604051610169919061238c565b60405180910390f35b61018c600480360381019061018791906123ae565b61061b565b005b6101a860048036038101906101a3919061240a565b6107d6565b6040516101b5919061249a565b60405180910390f35b6101d860048036038101906101d391906121b0565b610889565b6040516101e591906124cb565b60405180910390f35b6101f661092e565b60405161020391906129d9565b60405180910390f35b610226600480360381019061022191906129fb565b6109cb565b005b610230610d38565b005b61024c6004803603810190610247919061240a565b610d4c565b6040516102599190612a4a565b60405180910390f35b61027c60048036038101906102779190612a65565b610edb565b005b6102866110ee565b6040516102939190612a4a565b60405180910390f35b6102b660048036038101906102b191906121b0565b611117565b6040516102c39190612c0d565b60405180910390f35b6102e660048036038101906102e191906121b0565b6111c1565b6040516102f39190612c86565b60405180910390f35b6103166004803603810190610311919061240a565b611271565b6040516103239190612a4a565b60405180910390f35b610346600480360381019061034191906121b0565b611319565b60405161035391906124cb565b60405180910390f35b6103766004803603810190610371919061240a565b6113be565b6040516103839190612d0b565b60405180910390f35b6103a660048036038101906103a19190612d2d565b611558565b6040516103b391906124cb565b60405180910390f35b6103c4611570565b6040516103d191906129d9565b60405180910390f35b6103f460048036038101906103ef9190612d2d565b61160d565b005b600160009054906101000a900473ffffffffffffffffffffffffffffffffffffffff1673ffffffffffffffffffffffffffffffffffffffff16632326af51858585856040518563ffffffff1660e01b81526004016104579493929190612fe9565b600060405180830381600087803b15801561047157600080fd5b505af1158015610485573d6000803e3d6000fd5b50505050600560003373ffffffffffffffffffffffffffffffffffffffff1673ffffffffffffffffffffffffffffffffffffffff16815260200190815260200160002060008154809291906104d99061306b565b91905055503373ffffffffffffffffffffffffffffffffffffffff167f2ed0252b8901e5ebb800f47a9b16756f232137a30e26b272dae6b2a2baf4e002600560003373ffffffffffffffffffffffffffffffffffffffff1673ffffffffffffffffffffffffffffffffffffffff1681526020019081526020016000205460405161056391906124cb565b60405180910390a250505050565b6060600260009054906101000a900473ffffffffffffffffffffffffffffffffffffffff1673ffffffffffffffffffffffffffffffffffffffff166323edf697836040518263ffffffff1660e01b81526004016105ce91906124cb565b600060405180830381865afa1580156105eb573d6000803e3d6000fd5b505050506040513d6000823e3d601f19601f8201168201806040525081019061061491906132ae565b9050919050565b806000815111610660576040517f08c379a000000000000000000000000000000000000000000000000000000000815260040161065790613354565b60405180910390fd5b600260009054906101000a900473ffffffffffffffffffffffffffffffffffffffff1673ffffffffffffffffffffffffffffffffffffffff1663395e3f1e84846040518363ffffffff1660e01b81526004016106bd9291906133ad565b600060405180830381600087803b1580156106d757600080fd5b505af11580156106eb573d6000803e3d6000fd5b50505050600560003373ffffffffffffffffffffffffffffffffffffffff1673ffffffffffffffffffffffffffffffffffffffff168152602001908152602001600020600081548092919061073f9061306b565b91905055503373ffffffffffffffffffffffffffffffffffffffff167f2ed0252b8901e5ebb800f47a9b16756f232137a30e26b272dae6b2a2baf4e002600560003373ffffffffffffffffffffffffffffffffffffffff1673ffffffffffffffffffffffffffffffffffffffff168152602001908152602001600020546040516107c991906124cb565b60405180910390a2505050565b6107de6117e6565b600260009054906101000a900473ffffffffffffffffffffffffffffffffffffffff1673ffffffffffffffffffffffffffffffffffffffff16634889275384846040518363ffffffff1660e01b815260040161083b9291906133dd565b600060405180830381865afa158015610858573d6000803e3d6000fd5b505050506040513d6000823e3d601f19601f820116820180604052508101906108819190613406565b905092915050565b6000600260009054906101000a900473ffffffffffffffffffffffffffffffffffffffff1673ffffffffffffffffffffffffffffffffffffffff16634c9b78da836040518263ffffffff1660e01b81526004016108e691906124cb565b602060405180830381865afa158015610903573d6000803e3d6000fd5b505050506040513d601f19601f82011682018060405250810190610927919061344f565b9050919050565b6060600160009054906101000a900473ffffffffffffffffffffffffffffffffffffffff1673ffffffffffffffffffffffffffffffffffffffff166352cb26af6040518163ffffffff1660e01b8152600401600060405180830381865afa15801561099d573d6000803e3d6000fd5b505050506040513d6000823e3d601f19601f820116820180604052508101906109c69190613bd7565b905090565b600160009054906101000a900473ffffffffffffffffffffffffffffffffffffffff1673ffffffffffffffffffffffffffffffffffffffff166363283c8483836040518363ffffffff1660e01b8152600401610a28929190613c20565b600060405180830381600087803b158015610a4257600080fd5b505af1158015610a56573d6000803e3d6000fd5b5050505060056000600160009054906101000a900473ffffffffffffffffffffffffffffffffffffffff1673ffffffffffffffffffffffffffffffffffffffff1663b9db15b4856040518263ffffffff1660e01b8152600401610ab991906124cb565b600060405180830381865afa158015610ad6573d6000803e3d6000fd5b505050506040513d6000823e3d601f19601f82011682018060405250810190610aff9190613c49565b600001516020015173ffffffffffffffffffffffffffffffffffffffff1673ffffffffffffffffffffffffffffffffffffffff1681526020019081526020016000206000815480929190610b529061306b565b9190505550600160009054906101000a900473ffffffffffffffffffffffffffffffffffffffff1673ffffffffffffffffffffffffffffffffffffffff1663b9db15b4836040518263ffffffff1660e01b8152600401610bb291906124cb565b600060405180830381865afa158015610bcf573d6000803e3d6000fd5b505050506040513d6000823e3d601f19601f82011682018060405250810190610bf89190613c49565b600001516020015173ffffffffffffffffffffffffffffffffffffffff167f2ed0252b8901e5ebb800f47a9b16756f232137a30e26b272dae6b2a2baf4e00260056000600160009054906101000a900473ffffffffffffffffffffffffffffffffffffffff1673ffffffffffffffffffffffffffffffffffffffff1663b9db15b4876040518263ffffffff1660e01b8152600401610c9691906124cb565b600060405180830381865afa158015610cb3573d6000803e3d6000fd5b505050506040513d6000823e3d601f19601f82011682018060405250810190610cdc9190613c49565b600001516020015173ffffffffffffffffffffffffffffffffffffffff1673ffffffffffffffffffffffffffffffffffffffff16815260200190815260200160002054604051610d2c91906124cb565b60405180910390a25050565b610d40611693565b610d4a600061171a565b565b60008282600360009054906101000a900473ffffffffffffffffffffffffffffffffffffffff1673ffffffffffffffffffffffffffffffffffffffff16639d4a2255836040518263ffffffff1660e01b8152600401610dab91906124cb565b600060405180830381865afa158015610dc8573d6000803e3d6000fd5b505050506040513d6000823e3d601f19601f82011682018060405250810190610df19190613e07565b518110610e33576040517f08c379a0000000000000000000000000000000000000000000000000000000008152600401610e2a90613e9c565b60405180910390fd5b600360009054906101000a900473ffffffffffffffffffffffffffffffffffffffff1673ffffffffffffffffffffffffffffffffffffffff16637376ccfd86866040518363ffffffff1660e01b8152600401610e909291906133dd565b602060405180830381865afa158015610ead573d6000803e3d6000fd5b505050506040513d601f19601f82011682018060405250810190610ed19190613ebc565b9250505092915050565b816000815111610f20576040517f08c379a0000000000000000000000000000000000000000000000000000000008152600401610f1790613f35565b60405180910390fd5b81600081118015610f32575060058111155b610f71576040517f08c379a0000000000000000000000000000000000000000000000000000000008152600401610f6890613fa1565b60405180910390fd5b600360009054906101000a900473ffffffffffffffffffffffffffffffffffffffff1673ffffffffffffffffffffffffffffffffffffffff166382bb560b878787876040518563ffffffff1660e01b8152600401610fd29493929190613fc1565b600060405180830381600087803b158015610fec57600080fd5b505af1158015611000573d6000803e3d6000fd5b50505050600560003373ffffffffffffffffffffffffffffffffffffffff1673ffffffffffffffffffffffffffffffffffffffff16815260200190815260200160002060008154809291906110549061306b565b91905055503373ffffffffffffffffffffffffffffffffffffffff167f2ed0252b8901e5ebb800f47a9b16756f232137a30e26b272dae6b2a2baf4e002600560003373ffffffffffffffffffffffffffffffffffffffff1673ffffffffffffffffffffffffffffffffffffffff168152602001908152602001600020546040516110de91906124cb565b60405180910390a2505050505050565b60008060009054906101000a900473ffffffffffffffffffffffffffffffffffffffff16905090565b6060600360009054906101000a900473ffffffffffffffffffffffffffffffffffffffff1673ffffffffffffffffffffffffffffffffffffffff16639d4a2255836040518263ffffffff1660e01b815260040161117491906124cb565b600060405180830381865afa158015611191573d6000803e3d6000fd5b505050506040513d6000823e3d601f19601f820116820180604052508101906111ba9190613e07565b9050919050565b6111c961181d565b600160009054906101000a900473ffffffffffffffffffffffffffffffffffffffff1673ffffffffffffffffffffffffffffffffffffffff1663b9db15b4836040518263ffffffff1660e01b815260040161122491906124cb565b600060405180830381865afa158015611241573d6000803e3d6000fd5b505050506040513d6000823e3d601f19601f8201168201806040525081019061126a9190613c49565b9050919050565b6000600260009054906101000a900473ffffffffffffffffffffffffffffffffffffffff1673ffffffffffffffffffffffffffffffffffffffff1663bf4f31b084846040518363ffffffff1660e01b81526004016112d09291906133dd565b602060405180830381865afa1580156112ed573d6000803e3d6000fd5b505050506040513d601f19601f820116820180604052508101906113119190613ebc565b905092915050565b6000600360009054906101000a900473ffffffffffffffffffffffffffffffffffffffff1673ffffffffffffffffffffffffffffffffffffffff1663dcfe3e08836040518263ffffffff1660e01b815260040161137691906124cb565b602060405180830381865afa158015611393573d6000803e3d6000fd5b505050506040513d601f19601f820116820180604052508101906113b7919061344f565b9050919050565b6113c661184c565b8282600360009054906101000a900473ffffffffffffffffffffffffffffffffffffffff1673ffffffffffffffffffffffffffffffffffffffff16639d4a2255836040518263ffffffff1660e01b815260040161142391906124cb565b600060405180830381865afa158015611440573d6000803e3d6000fd5b505050506040513d6000823e3d601f19601f820116820180604052508101906114699190613e07565b5181106114ab576040517f08c379a00000000000000000000000000000000000000000000000000000000081526004016114a290613e9c565b60405180910390fd5b600360009054906101000a900473ffffffffffffffffffffffffffffffffffffffff1673ffffffffffffffffffffffffffffffffffffffff1663dfa505ed86866040518363ffffffff1660e01b81526004016115089291906133dd565b600060405180830381865afa158015611525573d6000803e3d6000fd5b505050506040513d6000823e3d601f19601f8201168201806040525081019061154e919061400d565b9250505092915050565b60056020528060005260406000206000915090505481565b6060600160009054906101000a900473ffffffffffffffffffffffffffffffffffffffff1673ffffffffffffffffffffffffffffffffffffffff1663e66f7f466040518163ffffffff1660e01b8152600401600060405180830381865afa1580156115df573d6000803e3d6000fd5b505050506040513d6000823e3d601f19601f820116820180604052508101906116089190613bd7565b905090565b611615611693565b600073ffffffffffffffffffffffffffffffffffffffff168173ffffffffffffffffffffffffffffffffffffffff16036116875760006040517f1e4fbdf700000000000000000000000000000000000000000000000000000000815260040161167e9190612a4a565b60405180910390fd5b6116908161171a565b50565b61169b6117de565b73ffffffffffffffffffffffffffffffffffffffff166116b96110ee565b73ffffffffffffffffffffffffffffffffffffffff1614611718576116dc6117de565b6040517f118cdaa700000000000000000000000000000000000000000000000000000000815260040161170f9190612a4a565b60405180910390fd5b565b60008060009054906101000a900473ffffffffffffffffffffffffffffffffffffffff169050816000806101000a81548173ffffffffffffffffffffffffffffffffffffffff021916908373ffffffffffffffffffffffffffffffffffffffff1602179055508173ffffffffffffffffffffffffffffffffffffffff168173ffffffffffffffffffffffffffffffffffffffff167f8be0079c531659141344cd1fd0a4f28419497f9722a3daafe3b4186f6b6457e060405160405180910390a35050565b600033905090565b6040518060600160405280600073ffffffffffffffffffffffffffffffffffffffff16815260200160608152602001600081525090565b604051806060016040528061183061188a565b815260200161183d6118de565b81526020016000151581525090565b6040518060800160405280600073ffffffffffffffffffffffffffffffffffffffff1681526020016060815260200160008152602001600081525090565b6040518060c0016040528060008152602001600073ffffffffffffffffffffffffffffffffffffffff1681526020016118c161191b565b815260200160008152602001600015158152602001600081525090565b6040518060e00160405280606081526020016000815260200160608152602001606081526020016000815260200160008152602001606081525090565b6040518061022001604052806060815260200160608152602001606081526020016060815260200160608152602001600015158152602001606081526020016060815260200160608152602001606081526020016000151581526020016060815260200160608152602001606081526020016060815260200160608152602001606081525090565b6000604051905090565b600080fd5b600080fd5b600073ffffffffffffffffffffffffffffffffffffffff82169050919050565b60006119e2826119b7565b9050919050565b6119f2816119d7565b81146119fd57600080fd5b50565b600081359050611a0f816119e9565b92915050565b600080fd5b6000601f19601f8301169050919050565b7f4e487b7100000000000000000000000000000000000000000000000000000000600052604160045260246000fd5b611a6382611a1a565b810181811067ffffffffffffffff82111715611a8257611a81611a2b565b5b80604052505050565b6000611a956119a3565b9050611aa18282611a5a565b919050565b600080fd5b600080fd5b600080fd5b600067ffffffffffffffff821115611ad057611acf611a2b565b5b611ad982611a1a565b9050602081019050919050565b82818337600083830152505050565b6000611b08611b0384611ab5565b611a8b565b905082815260208101848484011115611b2457611b23611ab0565b5b611b2f848285611ae6565b509392505050565b600082601f830112611b4c57611b4b611aab565b5b8135611b5c848260208601611af5565b91505092915050565b60008115159050919050565b611b7a81611b65565b8114611b8557600080fd5b50565b600081359050611b9781611b71565b92915050565b60006102208284031215611bb457611bb3611a15565b5b611bbf610220611a8b565b9050600082013567ffffffffffffffff811115611bdf57611bde611aa6565b5b611beb84828501611b37565b600083015250602082013567ffffffffffffffff811115611c0f57611c0e611aa6565b5b611c1b84828501611b37565b602083015250604082013567ffffffffffffffff811115611c3f57611c3e611aa6565b5b611c4b84828501611b37565b604083015250606082013567ffffffffffffffff811115611c6f57611c6e611aa6565b5b611c7b84828501611b37565b606083015250608082013567ffffffffffffffff811115611c9f57611c9e611aa6565b5b611cab84828501611b37565b60808301525060a0611cbf84828501611b88565b60a08301525060c082013567ffffffffffffffff811115611ce357611ce2611aa6565b5b611cef84828501611b37565b60c08301525060e082013567ffffffffffffffff811115611d1357611d12611aa6565b5b611d1f84828501611b37565b60e08301525061010082013567ffffffffffffffff811115611d4457611d43611aa6565b5b611d5084828501611b37565b6101008301525061012082013567ffffffffffffffff811115611d7657611d75611aa6565b5b611d8284828501611b37565b61012083015250610140611d9884828501611b88565b6101408301525061016082013567ffffffffffffffff811115611dbe57611dbd611aa6565b5b611dca84828501611b37565b6101608301525061018082013567ffffffffffffffff811115611df057611def611aa6565b5b611dfc84828501611b37565b610180830152506101a082013567ffffffffffffffff811115611e2257611e21611aa6565b5b611e2e84828501611b37565b6101a0830152506101c082013567ffffffffffffffff811115611e5457611e53611aa6565b5b611e6084828501611b37565b6101c0830152506101e082013567ffffffffffffffff811115611e8657611e85611aa6565b5b611e9284828501611b37565b6101e08301525061020082013567ffffffffffffffff811115611eb857611eb7611aa6565b5b611ec484828501611b37565b6102008301525092915050565b6000819050919050565b611ee481611ed1565b8114611eef57600080fd5b50565b600081359050611f0181611edb565b92915050565b600067ffffffffffffffff821115611f2257611f21611a2b565b5b602082029050602081019050919050565b600080fd5b6000611f4b611f4684611f07565b611a8b565b90508083825260208201905060208402830185811115611f6e57611f6d611f33565b5b835b81811015611fb557803567ffffffffffffffff811115611f9357611f92611aab565b5b808601611fa08982611b37565b85526020850194505050602081019050611f70565b5050509392505050565b600082601f830112611fd457611fd3611aab565b5b8135611fe4848260208601611f38565b91505092915050565b600060e0828403121561200357612002611a15565b5b61200d60e0611a8b565b9050600082013567ffffffffffffffff81111561202d5761202c611aa6565b5b61203984828501611b37565b600083015250602061204d84828501611ef2565b602083015250604082013567ffffffffffffffff81111561207157612070611aa6565b5b61207d84828501611b37565b604083015250606082013567ffffffffffffffff8111156120a1576120a0611aa6565b5b6120ad84828501611fbf565b60608301525060806120c184828501611ef2565b60808301525060a06120d584828501611ef2565b60a08301525060c082013567ffffffffffffffff8111156120f9576120f8611aa6565b5b61210584828501611b37565b60c08301525092915050565b6000806000806080858703121561212b5761212a6119ad565b5b600061213987828801611a00565b945050602085013567ffffffffffffffff81111561215a576121596119b2565b5b61216687828801611b9d565b935050604061217787828801611b88565b925050606085013567ffffffffffffffff811115612198576121976119b2565b5b6121a487828801611fed565b91505092959194509250565b6000602082840312156121c6576121c56119ad565b5b60006121d484828501611ef2565b91505092915050565b600081519050919050565b600082825260208201905092915050565b6000819050602082019050919050565b612212816119d7565b82525050565b600081519050919050565b600082825260208201905092915050565b60005b83811015612252578082015181840152602081019050612237565b60008484015250505050565b600061226982612218565b6122738185612223565b9350612283818560208601612234565b61228c81611a1a565b840191505092915050565b6122a081611ed1565b82525050565b60006060830160008301516122be6000860182612209565b50602083015184820360208601526122d6828261225e565b91505060408301516122eb6040860182612297565b508091505092915050565b600061230283836122a6565b905092915050565b6000602082019050919050565b6000612322826121dd565b61232c81856121e8565b93508360208202850161233e856121f9565b8060005b8581101561237a578484038952815161235b85826122f6565b94506123668361230a565b925060208a01995050600181019050612342565b50829750879550505050505092915050565b600060208201905081810360008301526123a68184612317565b905092915050565b600080604083850312156123c5576123c46119ad565b5b60006123d385828601611ef2565b925050602083013567ffffffffffffffff8111156123f4576123f36119b2565b5b61240085828601611b37565b9150509250929050565b60008060408385031215612421576124206119ad565b5b600061242f85828601611ef2565b925050602061244085828601611ef2565b9150509250929050565b60006060830160008301516124626000860182612209565b506020830151848203602086015261247a828261225e565b915050604083015161248f6040860182612297565b508091505092915050565b600060208201905081810360008301526124b4818461244a565b905092915050565b6124c581611ed1565b82525050565b60006020820190506124e060008301846124bc565b92915050565b600081519050919050565b600082825260208201905092915050565b6000819050602082019050919050565b61251b81611b65565b82525050565b600061022083016000830151848203600086015261253f828261225e565b91505060208301518482036020860152612559828261225e565b91505060408301518482036040860152612573828261225e565b9150506060830151848203606086015261258d828261225e565b915050608083015184820360808601526125a7828261225e565b91505060a08301516125bc60a0860182612512565b5060c083015184820360c08601526125d4828261225e565b91505060e083015184820360e08601526125ee828261225e565b91505061010083015184820361010086015261260a828261225e565b915050610120830151848203610120860152612626828261225e565b91505061014083015161263d610140860182612512565b50610160830151848203610160860152612657828261225e565b915050610180830151848203610180860152612673828261225e565b9150506101a08301518482036101a086015261268f828261225e565b9150506101c08301518482036101c08601526126ab828261225e565b9150506101e08301518482036101e08601526126c7828261225e565b9150506102008301518482036102008601526126e3828261225e565b9150508091505092915050565b600060c0830160008301516127086000860182612297565b50602083015161271b6020860182612209565b50604083015184820360408601526127338282612521565b91505060608301516127486060860182612297565b50608083015161275b6080860182612512565b5060a083015161276e60a0860182612297565b508091505092915050565b600081519050919050565b600082825260208201905092915050565b6000819050602082019050919050565b60006127b1838361225e565b905092915050565b6000602082019050919050565b60006127d182612779565b6127db8185612784565b9350836020820285016127ed85612795565b8060005b85811015612829578484038952815161280a85826127a5565b9450612815836127b9565b925060208a019950506001810190506127f1565b50829750879550505050505092915050565b600060e0830160008301518482036000860152612858828261225e565b915050602083015161286d6020860182612297565b5060408301518482036040860152612885828261225e565b9150506060830151848203606086015261289f82826127c6565b91505060808301516128b46080860182612297565b5060a08301516128c760a0860182612297565b5060c083015184820360c08601526128df828261225e565b9150508091505092915050565b6000606083016000830151848203600086015261290982826126f0565b91505060208301518482036020860152612923828261283b565b91505060408301516129386040860182612512565b508091505092915050565b600061294f83836128ec565b905092915050565b6000602082019050919050565b600061296f826124e6565b61297981856124f1565b93508360208202850161298b85612502565b8060005b858110156129c757848403895281516129a88582612943565b94506129b383612957565b925060208a0199505060018101905061298f565b50829750879550505050505092915050565b600060208201905081810360008301526129f38184612964565b905092915050565b60008060408385031215612a1257612a116119ad565b5b6000612a2085828601611ef2565b9250506020612a3185828601611a00565b9150509250929050565b612a44816119d7565b82525050565b6000602082019050612a5f6000830184612a3b565b92915050565b60008060008060808587031215612a7f57612a7e6119ad565b5b6000612a8d87828801611a00565b9450506020612a9e87828801611ef2565b935050604085013567ffffffffffffffff811115612abf57612abe6119b2565b5b612acb87828801611b37565b9250506060612adc87828801611ef2565b91505092959194509250565b600081519050919050565b600082825260208201905092915050565b6000819050602082019050919050565b6000608083016000830151612b2c6000860182612209565b5060208301518482036020860152612b44828261225e565b9150506040830151612b596040860182612297565b506060830151612b6c6060860182612297565b508091505092915050565b6000612b838383612b14565b905092915050565b6000602082019050919050565b6000612ba382612ae8565b612bad8185612af3565b935083602082028501612bbf85612b04565b8060005b85811015612bfb5784840389528151612bdc8582612b77565b9450612be783612b8b565b925060208a01995050600181019050612bc3565b50829750879550505050505092915050565b60006020820190508181036000830152612c278184612b98565b905092915050565b60006060830160008301518482036000860152612c4c82826126f0565b91505060208301518482036020860152612c66828261283b565b9150506040830151612c7b6040860182612512565b508091505092915050565b60006020820190508181036000830152612ca08184612c2f565b905092915050565b6000608083016000830151612cc06000860182612209565b5060208301518482036020860152612cd8828261225e565b9150506040830151612ced6040860182612297565b506060830151612d006060860182612297565b508091505092915050565b60006020820190508181036000830152612d258184612ca8565b905092915050565b600060208284031215612d4357612d426119ad565b5b6000612d5184828501611a00565b91505092915050565b6000610220830160008301518482036000860152612d78828261225e565b91505060208301518482036020860152612d92828261225e565b91505060408301518482036040860152612dac828261225e565b91505060608301518482036060860152612dc6828261225e565b91505060808301518482036080860152612de0828261225e565b91505060a0830151612df560a0860182612512565b5060c083015184820360c0860152612e0d828261225e565b91505060e083015184820360e0860152612e27828261225e565b915050610100830151848203610100860152612e43828261225e565b915050610120830151848203610120860152612e5f828261225e565b915050610140830151612e76610140860182612512565b50610160830151848203610160860152612e90828261225e565b915050610180830151848203610180860152612eac828261225e565b9150506101a08301518482036101a0860152612ec8828261225e565b9150506101c08301518482036101c0860152612ee4828261225e565b9150506101e08301518482036101e0860152612f00828261225e565b915050610200830151848203610200860152612f1c828261225e565b9150508091505092915050565b612f3281611b65565b82525050565b600060e0830160008301518482036000860152612f55828261225e565b9150506020830151612f6a6020860182612297565b5060408301518482036040860152612f82828261225e565b91505060608301518482036060860152612f9c82826127c6565b9150506080830151612fb16080860182612297565b5060a0830151612fc460a0860182612297565b5060c083015184820360c0860152612fdc828261225e565b9150508091505092915050565b6000608082019050612ffe6000830187612a3b565b81810360208301526130108186612d5a565b905061301f6040830185612f29565b81810360608301526130318184612f38565b905095945050505050565b7f4e487b7100000000000000000000000000000000000000000000000000000000600052601160045260246000fd5b600061307682611ed1565b91507fffffffffffffffffffffffffffffffffffffffffffffffffffffffffffffffff82036130a8576130a761303c565b5b600182019050919050565b600067ffffffffffffffff8211156130ce576130cd611a2b565b5b602082029050602081019050919050565b6000815190506130ee816119e9565b92915050565b600061310761310284611ab5565b611a8b565b90508281526020810184848401111561312357613122611ab0565b5b61312e848285612234565b509392505050565b600082601f83011261314b5761314a611aab565b5b815161315b8482602086016130f4565b91505092915050565b60008151905061317381611edb565b92915050565b60006060828403121561318f5761318e611a15565b5b6131996060611a8b565b905060006131a9848285016130df565b600083015250602082015167ffffffffffffffff8111156131cd576131cc611aa6565b5b6131d984828501613136565b60208301525060406131ed84828501613164565b60408301525092915050565b600061320c613207846130b3565b611a8b565b9050808382526020820190506020840283018581111561322f5761322e611f33565b5b835b8181101561327657805167ffffffffffffffff81111561325457613253611aab565b5b8086016132618982613179565b85526020850194505050602081019050613231565b5050509392505050565b600082601f83011261329557613294611aab565b5b81516132a58482602086016131f9565b91505092915050565b6000602082840312156132c4576132c36119ad565b5b600082015167ffffffffffffffff8111156132e2576132e16119b2565b5b6132ee84828501613280565b91505092915050565b600082825260208201905092915050565b7f436f6d6d656e7420636f6e74656e742063616e6e6f7420626520656d70747900600082015250565b600061333e601f836132f7565b915061334982613308565b602082019050919050565b6000602082019050818103600083015261336d81613331565b9050919050565b600061337f82612218565b61338981856132f7565b9350613399818560208601612234565b6133a281611a1a565b840191505092915050565b60006040820190506133c260008301856124bc565b81810360208301526133d48184613374565b90509392505050565b60006040820190506133f260008301856124bc565b6133ff60208301846124bc565b9392505050565b60006020828403121561341c5761341b6119ad565b5b600082015167ffffffffffffffff81111561343a576134396119b2565b5b61344684828501613179565b91505092915050565b600060208284031215613465576134646119ad565b5b600061347384828501613164565b91505092915050565b600067ffffffffffffffff82111561349757613496611a2b565b5b602082029050602081019050919050565b6000815190506134b781611b71565b92915050565b600061022082840312156134d4576134d3611a15565b5b6134df610220611a8b565b9050600082015167ffffffffffffffff8111156134ff576134fe611aa6565b5b61350b84828501613136565b600083015250602082015167ffffffffffffffff81111561352f5761352e611aa6565b5b61353b84828501613136565b602083015250604082015167ffffffffffffffff81111561355f5761355e611aa6565b5b61356b84828501613136565b604083015250606082015167ffffffffffffffff81111561358f5761358e611aa6565b5b61359b84828501613136565b606083015250608082015167ffffffffffffffff8111156135bf576135be611aa6565b5b6135cb84828501613136565b60808301525060a06135df848285016134a8565b60a08301525060c082015167ffffffffffffffff81111561360357613602611aa6565b5b61360f84828501613136565b60c08301525060e082015167ffffffffffffffff81111561363357613632611aa6565b5b61363f84828501613136565b60e08301525061010082015167ffffffffffffffff81111561366457613663611aa6565b5b61367084828501613136565b6101008301525061012082015167ffffffffffffffff81111561369657613695611aa6565b5b6136a284828501613136565b610120830152506101406136b8848285016134a8565b6101408301525061016082015167ffffffffffffffff8111156136de576136dd611aa6565b5b6136ea84828501613136565b6101608301525061018082015167ffffffffffffffff8111156137105761370f611aa6565b5b61371c84828501613136565b610180830152506101a082015167ffffffffffffffff81111561374257613741611aa6565b5b61374e84828501613136565b6101a0830152506101c082015167ffffffffffffffff81111561377457613773611aa6565b5b61378084828501613136565b6101c0830152506101e082015167ffffffffffffffff8111156137a6576137a5611aa6565b5b6137b284828501613136565b6101e08301525061020082015167ffffffffffffffff8111156137d8576137d7611aa6565b5b6137e484828501613136565b6102008301525092915050565b600060c0828403121561380757613806611a15565b5b61381160c0611a8b565b9050600061382184828501613164565b6000830152506020613835848285016130df565b602083015250604082015167ffffffffffffffff81111561385957613858611aa6565b5b613865848285016134bd565b604083015250606061387984828501613164565b606083015250608061388d848285016134a8565b60808301525060a06138a184828501613164565b60a08301525092915050565b60006138c06138bb84611f07565b611a8b565b905080838252602082019050602084028301858111156138e3576138e2611f33565b5b835b8181101561392a57805167ffffffffffffffff81111561390857613907611aab565b5b8086016139158982613136565b855260208501945050506020810190506138e5565b5050509392505050565b600082601f83011261394957613948611aab565b5b81516139598482602086016138ad565b91505092915050565b600060e0828403121561397857613977611a15565b5b61398260e0611a8b565b9050600082015167ffffffffffffffff8111156139a2576139a1611aa6565b5b6139ae84828501613136565b60008301525060206139c284828501613164565b602083015250604082015167ffffffffffffffff8111156139e6576139e5611aa6565b5b6139f284828501613136565b604083015250606082015167ffffffffffffffff811115613a1657613a15611aa6565b5b613a2284828501613934565b6060830152506080613a3684828501613164565b60808301525060a0613a4a84828501613164565b60a08301525060c082015167ffffffffffffffff811115613a6e57613a6d611aa6565b5b613a7a84828501613136565b60c08301525092915050565b600060608284031215613a9c57613a9b611a15565b5b613aa66060611a8b565b9050600082015167ffffffffffffffff811115613ac657613ac5611aa6565b5b613ad2848285016137f1565b600083015250602082015167ffffffffffffffff811115613af657613af5611aa6565b5b613b0284828501613962565b6020830152506040613b16848285016134a8565b60408301525092915050565b6000613b35613b308461347c565b611a8b565b90508083825260208201905060208402830185811115613b5857613b57611f33565b5b835b81811015613b9f57805167ffffffffffffffff811115613b7d57613b7c611aab565b5b808601613b8a8982613a86565b85526020850194505050602081019050613b5a565b5050509392505050565b600082601f830112613bbe57613bbd611aab565b5b8151613bce848260208601613b22565b91505092915050565b600060208284031215613bed57613bec6119ad565b5b600082015167ffffffffffffffff811115613c0b57613c0a6119b2565b5b613c1784828501613ba9565b91505092915050565b6000604082019050613c3560008301856124bc565b613c426020830184612a3b565b9392505050565b600060208284031215613c5f57613c5e6119ad565b5b600082015167ffffffffffffffff811115613c7d57613c7c6119b2565b5b613c8984828501613a86565b91505092915050565b600067ffffffffffffffff821115613cad57613cac611a2b565b5b602082029050602081019050919050565b600060808284031215613cd457613cd3611a15565b5b613cde6080611a8b565b90506000613cee848285016130df565b600083015250602082015167ffffffffffffffff811115613d1257613d11611aa6565b5b613d1e84828501613136565b6020830152506040613d3284828501613164565b6040830152506060613d4684828501613164565b60608301525092915050565b6000613d65613d6084613c92565b611a8b565b90508083825260208201905060208402830185811115613d8857613d87611f33565b5b835b81811015613dcf57805167ffffffffffffffff811115613dad57613dac611aab565b5b808601613dba8982613cbe565b85526020850194505050602081019050613d8a565b5050509392505050565b600082601f830112613dee57613ded611aab565b5b8151613dfe848260208601613d52565b91505092915050565b600060208284031215613e1d57613e1c6119ad565b5b600082015167ffffffffffffffff811115613e3b57613e3a6119b2565b5b613e4784828501613dd9565b91505092915050565b7f52657669657720646f6573206e6f742065786973740000000000000000000000600082015250565b6000613e866015836132f7565b9150613e9182613e50565b602082019050919050565b60006020820190508181036000830152613eb581613e79565b9050919050565b600060208284031215613ed257613ed16119ad565b5b6000613ee0848285016130df565b91505092915050565b7f52657669657720636f6e74656e742063616e6e6f7420626520656d7074790000600082015250565b6000613f1f601e836132f7565b9150613f2a82613ee9565b602082019050919050565b60006020820190508181036000830152613f4e81613f12565b9050919050565b7f526174696e67206d757374206265206265747765656e203120616e6420350000600082015250565b6000613f8b601e836132f7565b9150613f9682613f55565b602082019050919050565b60006020820190508181036000830152613fba81613f7e565b9050919050565b6000608082019050613fd66000830187612a3b565b613fe360208301866124bc565b8181036040830152613ff58185613374565b905061400460608301846124bc565b95945050505050565b600060208284031215614023576140226119ad565b5b600082015167ffffffffffffffff811115614041576140406119b2565b5b61404d84828501613cbe565b9150509291505056fea264697066735822122009f3e1130b131d64cc6973ee2d90d9f20a8ae7172a20178b452775862df666c264736f6c63430008180033",
  "linkReferences": {},
  "deployedLinkReferences": {}
}