{
  "_format": "hh-sol-artifact-1",
  "contractName": "ProductFindr",
  "sourceName": "contracts/ProductFindr.sol",
  "abi": [
    {
      "inputs": [
        {
          "internalType": "address",
          "name": "_productAddress",
          "type": "address"
        },
        {
          "internalType": "address",
          "name": "_commentAddress",
          "type": "address"
        },
        {
          "internalType": "address",
          "name": "_reviewAddress",
          "type": "address"
        },
        {
          "internalType": "address",
          "name": "initialOwner",
          "type": "address"
        }
      ],
      "stateMutability": "nonpayable",
      "type": "constructor"
    },
    {
      "inputs": [
        {
          "internalType": "address",
          "name": "owner",
          "type": "address"
        }
      ],
      "name": "OwnableInvalidOwner",
      "type": "error"
    },
    {
      "inputs": [
        {
          "internalType": "address",
          "name": "account",
          "type": "address"
        }
      ],
      "name": "OwnableUnauthorizedAccount",
      "type": "error"
    },
    {
      "anonymous": false,
      "inputs": [
        {
          "indexed": true,
          "internalType": "address",
          "name": "previousOwner",
          "type": "address"
        },
        {
          "indexed": true,
          "internalType": "address",
          "name": "newOwner",
          "type": "address"
        }
      ],
      "name": "OwnershipTransferred",
      "type": "event"
    },
    {
      "anonymous": false,
      "inputs": [
        {
          "indexed": true,
          "internalType": "address",
          "name": "user",
          "type": "address"
        },
        {
          "indexed": false,
          "internalType": "uint256",
          "name": "reputation",
          "type": "uint256"
        }
      ],
      "name": "UserReputationUpdated",
      "type": "event"
    },
    {
      "inputs": [
        {
          "internalType": "address",
          "name": "_reviewer",
          "type": "address"
        },
        {
          "internalType": "uint256",
          "name": "_productId",
          "type": "uint256"
        },
        {
          "internalType": "string",
          "name": "_content",
          "type": "string"
        },
        {
          "internalType": "uint256",
          "name": "_rating",
          "type": "uint256"
        }
      ],
      "name": "addReview",
      "outputs": [],
      "stateMutability": "nonpayable",
      "type": "function"
    },
    {
      "inputs": [
        {
          "internalType": "uint256",
          "name": "_productId",
          "type": "uint256"
        },
        {
          "internalType": "string",
          "name": "_content",
          "type": "string"
        }
      ],
      "name": "commentOnProduct",
      "outputs": [],
      "stateMutability": "nonpayable",
      "type": "function"
    },
    {
      "inputs": [
        {
          "internalType": "uint256",
          "name": "_productId",
          "type": "uint256"
        },
        {
          "internalType": "uint256",
          "name": "_commentId",
          "type": "uint256"
        }
      ],
      "name": "getComment",
      "outputs": [
        {
          "components": [
            {
              "internalType": "address",
              "name": "commenter",
              "type": "address"
            },
            {
              "internalType": "string",
              "name": "content",
              "type": "string"
            },
            {
              "internalType": "uint256",
              "name": "timestamp",
              "type": "uint256"
            }
          ],
          "internalType": "struct Comment.CommentInfo",
          "name": "",
          "type": "tuple"
        }
      ],
      "stateMutability": "view",
      "type": "function"
    },
    {
      "inputs": [
        {
          "internalType": "uint256",
          "name": "_productId",
          "type": "uint256"
        },
        {
          "internalType": "uint256",
          "name": "_commentId",
          "type": "uint256"
        }
      ],
      "name": "getCommenter",
      "outputs": [
        {
          "internalType": "address",
          "name": "",
          "type": "address"
        }
      ],
      "stateMutability": "view",
      "type": "function"
    },
    {
      "inputs": [
        {
          "internalType": "uint256",
          "name": "_productId",
          "type": "uint256"
        }
      ],
      "name": "getComments",
      "outputs": [
        {
          "components": [
            {
              "internalType": "address",
              "name": "commenter",
              "type": "address"
            },
            {
              "internalType": "string",
              "name": "content",
              "type": "string"
            },
            {
              "internalType": "uint256",
              "name": "timestamp",
              "type": "uint256"
            }
          ],
          "internalType": "struct Comment.CommentInfo[]",
          "name": "",
          "type": "tuple[]"
        }
      ],
      "stateMutability": "view",
      "type": "function"
    },
    {
      "inputs": [
        {
          "internalType": "uint256",
          "name": "_productId",
          "type": "uint256"
        }
      ],
      "name": "getCommentsCount",
      "outputs": [
        {
          "internalType": "uint256",
          "name": "",
          "type": "uint256"
        }
      ],
      "stateMutability": "view",
      "type": "function"
    },
    {
      "inputs": [],
      "name": "getListedProducts",
      "outputs": [
        {
          "components": [
            {
              "internalType": "uint256",
              "name": "id",
              "type": "uint256"
            },
            {
              "internalType": "address",
              "name": "owner",
              "type": "address"
            },
            {
              "components": [
                {
                  "internalType": "string",
                  "name": "productName",
                  "type": "string"
                },
                {
                  "internalType": "string",
                  "name": "tagLine",
                  "type": "string"
                },
                {
                  "internalType": "string",
                  "name": "productLink",
                  "type": "string"
                },
                {
                  "internalType": "string",
                  "name": "twitterLink",
                  "type": "string"
                },
                {
                  "internalType": "string",
                  "name": "description",
                  "type": "string"
                },
                {
                  "internalType": "bool",
                  "name": "isOpenSource",
                  "type": "bool"
                },
                {
                  "internalType": "string",
                  "name": "category",
                  "type": "string"
                },
                {
                  "internalType": "string",
                  "name": "thumbNail",
                  "type": "string"
                },
                {
                  "internalType": "string",
                  "name": "mediaFile",
                  "type": "string"
                },
                {
                  "internalType": "string",
                  "name": "loomLink",
                  "type": "string"
                },
                {
                  "internalType": "bool",
                  "name": "workedWithTeam",
                  "type": "bool"
                },
                {
                  "internalType": "string",
                  "name": "teamMembersInput",
                  "type": "string"
                },
                {
                  "internalType": "string",
                  "name": "pricingOption",
                  "type": "string"
                },
                {
                  "internalType": "string",
                  "name": "offer",
                  "type": "string"
                },
                {
                  "internalType": "string",
                  "name": "promoCode",
                  "type": "string"
                },
                {
                  "internalType": "string",
                  "name": "expirationDate",
                  "type": "string"
                },
                {
                  "internalType": "string",
                  "name": "betaTestingLink",
                  "type": "string"
                }
              ],
              "internalType": "struct Product.ProductDetails",
              "name": "details",
              "type": "tuple"
            },
            {
              "internalType": "uint256",
              "name": "upvotes",
              "type": "uint256"
            },
            {
              "internalType": "bool",
              "name": "betaTestingAvailable",
              "type": "bool"
            },
            {
              "internalType": "uint256",
              "name": "timestamp",
              "type": "uint256"
            }
          ],
          "internalType": "struct Product.ProductInfo[]",
          "name": "",
          "type": "tuple[]"
        }
      ],
      "stateMutability": "view",
      "type": "function"
    },
    {
      "inputs": [
        {
          "internalType": "uint256",
          "name": "_productId",
          "type": "uint256"
        }
      ],
      "name": "getProduct",
      "outputs": [
        {
          "components": [
            {
              "internalType": "uint256",
              "name": "id",
              "type": "uint256"
            },
            {
              "internalType": "address",
              "name": "owner",
              "type": "address"
            },
            {
              "components": [
                {
                  "internalType": "string",
                  "name": "productName",
                  "type": "string"
                },
                {
                  "internalType": "string",
                  "name": "tagLine",
                  "type": "string"
                },
                {
                  "internalType": "string",
                  "name": "productLink",
                  "type": "string"
                },
                {
                  "internalType": "string",
                  "name": "twitterLink",
                  "type": "string"
                },
                {
                  "internalType": "string",
                  "name": "description",
                  "type": "string"
                },
                {
                  "internalType": "bool",
                  "name": "isOpenSource",
                  "type": "bool"
                },
                {
                  "internalType": "string",
                  "name": "category",
                  "type": "string"
                },
                {
                  "internalType": "string",
                  "name": "thumbNail",
                  "type": "string"
                },
                {
                  "internalType": "string",
                  "name": "mediaFile",
                  "type": "string"
                },
                {
                  "internalType": "string",
                  "name": "loomLink",
                  "type": "string"
                },
                {
                  "internalType": "bool",
                  "name": "workedWithTeam",
                  "type": "bool"
                },
                {
                  "internalType": "string",
                  "name": "teamMembersInput",
                  "type": "string"
                },
                {
                  "internalType": "string",
                  "name": "pricingOption",
                  "type": "string"
                },
                {
                  "internalType": "string",
                  "name": "offer",
                  "type": "string"
                },
                {
                  "internalType": "string",
                  "name": "promoCode",
                  "type": "string"
                },
                {
                  "internalType": "string",
                  "name": "expirationDate",
                  "type": "string"
                },
                {
                  "internalType": "string",
                  "name": "betaTestingLink",
                  "type": "string"
                }
              ],
              "internalType": "struct Product.ProductDetails",
              "name": "details",
              "type": "tuple"
            },
            {
              "internalType": "uint256",
              "name": "upvotes",
              "type": "uint256"
            },
            {
              "internalType": "bool",
              "name": "betaTestingAvailable",
              "type": "bool"
            },
            {
              "internalType": "uint256",
              "name": "timestamp",
              "type": "uint256"
            }
          ],
          "internalType": "struct Product.ProductInfo",
          "name": "",
          "type": "tuple"
        }
      ],
      "stateMutability": "view",
      "type": "function"
    },
    {
      "inputs": [
        {
          "internalType": "uint256",
          "name": "_productId",
          "type": "uint256"
        },
        {
          "internalType": "uint256",
          "name": "_reviewId",
          "type": "uint256"
        }
      ],
      "name": "getReview",
      "outputs": [
        {
          "components": [
            {
              "internalType": "address",
              "name": "reviewer",
              "type": "address"
            },
            {
              "internalType": "string",
              "name": "content",
              "type": "string"
            },
            {
              "internalType": "uint256",
              "name": "rating",
              "type": "uint256"
            },
            {
              "internalType": "uint256",
              "name": "timestamp",
              "type": "uint256"
            }
          ],
          "internalType": "struct Review.ReviewInfo",
          "name": "",
          "type": "tuple"
        }
      ],
      "stateMutability": "view",
      "type": "function"
    },
    {
      "inputs": [
        {
          "internalType": "uint256",
          "name": "_productId",
          "type": "uint256"
        },
        {
          "internalType": "uint256",
          "name": "_reviewId",
          "type": "uint256"
        }
      ],
      "name": "getReviewer",
      "outputs": [
        {
          "internalType": "address",
          "name": "",
          "type": "address"
        }
      ],
      "stateMutability": "view",
      "type": "function"
    },
    {
      "inputs": [
        {
          "internalType": "uint256",
          "name": "_productId",
          "type": "uint256"
        }
      ],
      "name": "getReviews",
      "outputs": [
        {
          "components": [
            {
              "internalType": "address",
              "name": "reviewer",
              "type": "address"
            },
            {
              "internalType": "string",
              "name": "content",
              "type": "string"
            },
            {
              "internalType": "uint256",
              "name": "rating",
              "type": "uint256"
            },
            {
              "internalType": "uint256",
              "name": "timestamp",
              "type": "uint256"
            }
          ],
          "internalType": "struct Review.ReviewInfo[]",
          "name": "",
          "type": "tuple[]"
        }
      ],
      "stateMutability": "view",
      "type": "function"
    },
    {
      "inputs": [
        {
          "internalType": "uint256",
          "name": "_productId",
          "type": "uint256"
        }
      ],
      "name": "getReviewsCount",
      "outputs": [
        {
          "internalType": "uint256",
          "name": "",
          "type": "uint256"
        }
      ],
      "stateMutability": "view",
      "type": "function"
    },
    {
      "inputs": [],
      "name": "owner",
      "outputs": [
        {
          "internalType": "address",
          "name": "",
          "type": "address"
        }
      ],
      "stateMutability": "view",
      "type": "function"
    },
    {
      "inputs": [
        {
          "internalType": "address",
          "name": "_owner",
          "type": "address"
        },
        {
          "components": [
            {
              "internalType": "string",
              "name": "productName",
              "type": "string"
            },
            {
              "internalType": "string",
              "name": "tagLine",
              "type": "string"
            },
            {
              "internalType": "string",
              "name": "productLink",
              "type": "string"
            },
            {
              "internalType": "string",
              "name": "twitterLink",
              "type": "string"
            },
            {
              "internalType": "string",
              "name": "description",
              "type": "string"
            },
            {
              "internalType": "bool",
              "name": "isOpenSource",
              "type": "bool"
            },
            {
              "internalType": "string",
              "name": "category",
              "type": "string"
            },
            {
              "internalType": "string",
              "name": "thumbNail",
              "type": "string"
            },
            {
              "internalType": "string",
              "name": "mediaFile",
              "type": "string"
            },
            {
              "internalType": "string",
              "name": "loomLink",
              "type": "string"
            },
            {
              "internalType": "bool",
              "name": "workedWithTeam",
              "type": "bool"
            },
            {
              "internalType": "string",
              "name": "teamMembersInput",
              "type": "string"
            },
            {
              "internalType": "string",
              "name": "pricingOption",
              "type": "string"
            },
            {
              "internalType": "string",
              "name": "offer",
              "type": "string"
            },
            {
              "internalType": "string",
              "name": "promoCode",
              "type": "string"
            },
            {
              "internalType": "string",
              "name": "expirationDate",
              "type": "string"
            },
            {
              "internalType": "string",
              "name": "betaTestingLink",
              "type": "string"
            }
          ],
          "internalType": "struct Product.ProductDetails",
          "name": "details",
          "type": "tuple"
        }
      ],
      "name": "registerProduct",
      "outputs": [],
      "stateMutability": "nonpayable",
      "type": "function"
    },
    {
      "inputs": [],
      "name": "renounceOwnership",
      "outputs": [],
      "stateMutability": "nonpayable",
      "type": "function"
    },
    {
      "inputs": [
        {
          "internalType": "address",
          "name": "newOwner",
          "type": "address"
        }
      ],
      "name": "transferOwnership",
      "outputs": [],
      "stateMutability": "nonpayable",
      "type": "function"
    },
    {
      "inputs": [
        {
          "internalType": "uint256",
          "name": "_productId",
          "type": "uint256"
        },
        {
          "internalType": "address",
          "name": "_upvoter",
          "type": "address"
        }
      ],
      "name": "upvoteProduct",
      "outputs": [],
      "stateMutability": "nonpayable",
      "type": "function"
    },
    {
      "inputs": [
        {
          "internalType": "address",
          "name": "",
          "type": "address"
        }
      ],
      "name": "userReputation",
      "outputs": [
        {
          "internalType": "uint256",
          "name": "",
          "type": "uint256"
        }
      ],
      "stateMutability": "view",
      "type": "function"
    }
  ],
  "bytecode": "0x60806040523480156200001157600080fd5b5060405162003958380380620039588339818101604052810190620000379190620002ba565b80600073ffffffffffffffffffffffffffffffffffffffff168173ffffffffffffffffffffffffffffffffffffffff1603620000ad5760006040517f1e4fbdf7000000000000000000000000000000000000000000000000000000008152600401620000a491906200033d565b60405180910390fd5b620000be816200018c60201b60201c565b5083600160006101000a81548173ffffffffffffffffffffffffffffffffffffffff021916908373ffffffffffffffffffffffffffffffffffffffff16021790555082600260006101000a81548173ffffffffffffffffffffffffffffffffffffffff021916908373ffffffffffffffffffffffffffffffffffffffff16021790555081600360006101000a81548173ffffffffffffffffffffffffffffffffffffffff021916908373ffffffffffffffffffffffffffffffffffffffff160217905550505050506200035a565b60008060009054906101000a900473ffffffffffffffffffffffffffffffffffffffff169050816000806101000a81548173ffffffffffffffffffffffffffffffffffffffff021916908373ffffffffffffffffffffffffffffffffffffffff1602179055508173ffffffffffffffffffffffffffffffffffffffff168173ffffffffffffffffffffffffffffffffffffffff167f8be0079c531659141344cd1fd0a4f28419497f9722a3daafe3b4186f6b6457e060405160405180910390a35050565b600080fd5b600073ffffffffffffffffffffffffffffffffffffffff82169050919050565b6000620002828262000255565b9050919050565b620002948162000275565b8114620002a057600080fd5b50565b600081519050620002b48162000289565b92915050565b60008060008060808587031215620002d757620002d662000250565b5b6000620002e787828801620002a3565b9450506020620002fa87828801620002a3565b93505060406200030d87828801620002a3565b92505060606200032087828801620002a3565b91505092959194509250565b620003378162000275565b82525050565b60006020820190506200035460008301846200032c565b92915050565b6135ee806200036a6000396000f3fe608060405234801561001057600080fd5b50600436106101165760003560e01c806382bb560b116100a2578063bf4f31b011610071578063bf4f31b0146102f1578063dcfe3e0814610321578063dfa505ed14610351578063e503bb0514610381578063f2fde38b146103b157610116565b806382bb560b146102575780638da5cb5b146102735780639d4a225514610291578063b9db15b4146102c157610116565b806352cb26af116100e957806352cb26af146101c7578063577ac4af146101e557806363283c8414610201578063715018a61461021d5780637376ccfd1461022757610116565b806323edf6971461011b578063395e3f1e1461014b57806348892753146101675780634c9b78da14610197575b600080fd5b610135600480360381019061013091906117cb565b6103cd565b60405161014291906119ea565b60405180910390f35b61016560048036038101906101609190611b41565b610477565b005b610181600480360381019061017c9190611b9d565b6105ec565b60405161018e9190611c2d565b60405180910390f35b6101b160048036038101906101ac91906117cb565b61069f565b6040516101be9190611c5e565b60405180910390f35b6101cf610744565b6040516101dc9190611fae565b60405180910390f35b6101ff60048036038101906101fa9190612366565b6107e1565b005b61021b600480360381019061021691906123c2565b610956565b005b610225610cb7565b005b610241600480360381019061023c9190611b9d565b610ccb565b60405161024e9190612411565b60405180910390f35b610271600480360381019061026c919061242c565b610e5a565b005b61027b610fd5565b6040516102889190612411565b60405180910390f35b6102ab60048036038101906102a691906117cb565b610ffe565b6040516102b891906125d4565b60405180910390f35b6102db60048036038101906102d691906117cb565b6110a8565b6040516102e8919061267f565b60405180910390f35b61030b60048036038101906103069190611b9d565b611158565b6040516103189190612411565b60405180910390f35b61033b600480360381019061033691906117cb565b611200565b6040516103489190611c5e565b60405180910390f35b61036b60048036038101906103669190611b9d565b6112a5565b6040516103789190612704565b60405180910390f35b61039b60048036038101906103969190612726565b61143f565b6040516103a89190611c5e565b60405180910390f35b6103cb60048036038101906103c69190612726565b611457565b005b6060600260009054906101000a900473ffffffffffffffffffffffffffffffffffffffff1673ffffffffffffffffffffffffffffffffffffffff166323edf697836040518263ffffffff1660e01b815260040161042a9190611c5e565b600060405180830381865afa158015610447573d6000803e3d6000fd5b505050506040513d6000823e3d601f19601f820116820180604052508101906104709190612953565b9050919050565b600260009054906101000a900473ffffffffffffffffffffffffffffffffffffffff1673ffffffffffffffffffffffffffffffffffffffff1663395e3f1e83836040518363ffffffff1660e01b81526004016104d49291906129e6565b600060405180830381600087803b1580156104ee57600080fd5b505af1158015610502573d6000803e3d6000fd5b50505050600460003373ffffffffffffffffffffffffffffffffffffffff1673ffffffffffffffffffffffffffffffffffffffff168152602001908152602001600020600081548092919061055690612a45565b91905055503373ffffffffffffffffffffffffffffffffffffffff167f2ed0252b8901e5ebb800f47a9b16756f232137a30e26b272dae6b2a2baf4e002600460003373ffffffffffffffffffffffffffffffffffffffff1673ffffffffffffffffffffffffffffffffffffffff168152602001908152602001600020546040516105e09190611c5e565b60405180910390a25050565b6105f4611630565b600260009054906101000a900473ffffffffffffffffffffffffffffffffffffffff1673ffffffffffffffffffffffffffffffffffffffff16634889275384846040518363ffffffff1660e01b8152600401610651929190612a8d565b600060405180830381865afa15801561066e573d6000803e3d6000fd5b505050506040513d6000823e3d601f19601f820116820180604052508101906106979190612ab6565b905092915050565b6000600260009054906101000a900473ffffffffffffffffffffffffffffffffffffffff1673ffffffffffffffffffffffffffffffffffffffff16634c9b78da836040518263ffffffff1660e01b81526004016106fc9190611c5e565b602060405180830381865afa158015610719573d6000803e3d6000fd5b505050506040513d601f19601f8201168201806040525081019061073d9190612aff565b9050919050565b6060600160009054906101000a900473ffffffffffffffffffffffffffffffffffffffff1673ffffffffffffffffffffffffffffffffffffffff166352cb26af6040518163ffffffff1660e01b8152600401600060405180830381865afa1580156107b3573d6000803e3d6000fd5b505050506040513d6000823e3d601f19601f820116820180604052508101906107dc9190613012565b905090565b600160009054906101000a900473ffffffffffffffffffffffffffffffffffffffff1673ffffffffffffffffffffffffffffffffffffffff1663577ac4af83836040518363ffffffff1660e01b815260040161083e92919061322a565b600060405180830381600087803b15801561085857600080fd5b505af115801561086c573d6000803e3d6000fd5b50505050600460003373ffffffffffffffffffffffffffffffffffffffff1673ffffffffffffffffffffffffffffffffffffffff16815260200190815260200160002060008154809291906108c090612a45565b91905055503373ffffffffffffffffffffffffffffffffffffffff167f2ed0252b8901e5ebb800f47a9b16756f232137a30e26b272dae6b2a2baf4e002600460003373ffffffffffffffffffffffffffffffffffffffff1673ffffffffffffffffffffffffffffffffffffffff1681526020019081526020016000205460405161094a9190611c5e565b60405180910390a25050565b600160009054906101000a900473ffffffffffffffffffffffffffffffffffffffff1673ffffffffffffffffffffffffffffffffffffffff166363283c8483836040518363ffffffff1660e01b81526004016109b392919061325a565b600060405180830381600087803b1580156109cd57600080fd5b505af11580156109e1573d6000803e3d6000fd5b5050505060046000600160009054906101000a900473ffffffffffffffffffffffffffffffffffffffff1673ffffffffffffffffffffffffffffffffffffffff1663b9db15b4856040518263ffffffff1660e01b8152600401610a449190611c5e565b600060405180830381865afa158015610a61573d6000803e3d6000fd5b505050506040513d6000823e3d601f19601f82011682018060405250810190610a8a9190613283565b6020015173ffffffffffffffffffffffffffffffffffffffff1673ffffffffffffffffffffffffffffffffffffffff1681526020019081526020016000206000815480929190610ad990612a45565b9190505550600160009054906101000a900473ffffffffffffffffffffffffffffffffffffffff1673ffffffffffffffffffffffffffffffffffffffff1663b9db15b4836040518263ffffffff1660e01b8152600401610b399190611c5e565b600060405180830381865afa158015610b56573d6000803e3d6000fd5b505050506040513d6000823e3d601f19601f82011682018060405250810190610b7f9190613283565b6020015173ffffffffffffffffffffffffffffffffffffffff167f2ed0252b8901e5ebb800f47a9b16756f232137a30e26b272dae6b2a2baf4e00260046000600160009054906101000a900473ffffffffffffffffffffffffffffffffffffffff1673ffffffffffffffffffffffffffffffffffffffff1663b9db15b4876040518263ffffffff1660e01b8152600401610c199190611c5e565b600060405180830381865afa158015610c36573d6000803e3d6000fd5b505050506040513d6000823e3d601f19601f82011682018060405250810190610c5f9190613283565b6020015173ffffffffffffffffffffffffffffffffffffffff1673ffffffffffffffffffffffffffffffffffffffff16815260200190815260200160002054604051610cab9190611c5e565b60405180910390a25050565b610cbf6114dd565b610cc96000611564565b565b60008282600360009054906101000a900473ffffffffffffffffffffffffffffffffffffffff1673ffffffffffffffffffffffffffffffffffffffff16639d4a2255836040518263ffffffff1660e01b8152600401610d2a9190611c5e565b600060405180830381865afa158015610d47573d6000803e3d6000fd5b505050506040513d6000823e3d601f19601f82011682018060405250810190610d709190613441565b518110610db2576040517f08c379a0000000000000000000000000000000000000000000000000000000008152600401610da9906134d6565b60405180910390fd5b600360009054906101000a900473ffffffffffffffffffffffffffffffffffffffff1673ffffffffffffffffffffffffffffffffffffffff16637376ccfd86866040518363ffffffff1660e01b8152600401610e0f929190612a8d565b602060405180830381865afa158015610e2c573d6000803e3d6000fd5b505050506040513d601f19601f82011682018060405250810190610e5091906134f6565b9250505092915050565b600360009054906101000a900473ffffffffffffffffffffffffffffffffffffffff1673ffffffffffffffffffffffffffffffffffffffff166382bb560b858585856040518563ffffffff1660e01b8152600401610ebb9493929190613523565b600060405180830381600087803b158015610ed557600080fd5b505af1158015610ee9573d6000803e3d6000fd5b50505050600460003373ffffffffffffffffffffffffffffffffffffffff1673ffffffffffffffffffffffffffffffffffffffff1681526020019081526020016000206000815480929190610f3d90612a45565b91905055503373ffffffffffffffffffffffffffffffffffffffff167f2ed0252b8901e5ebb800f47a9b16756f232137a30e26b272dae6b2a2baf4e002600460003373ffffffffffffffffffffffffffffffffffffffff1673ffffffffffffffffffffffffffffffffffffffff16815260200190815260200160002054604051610fc79190611c5e565b60405180910390a250505050565b60008060009054906101000a900473ffffffffffffffffffffffffffffffffffffffff16905090565b6060600360009054906101000a900473ffffffffffffffffffffffffffffffffffffffff1673ffffffffffffffffffffffffffffffffffffffff16639d4a2255836040518263ffffffff1660e01b815260040161105b9190611c5e565b600060405180830381865afa158015611078573d6000803e3d6000fd5b505050506040513d6000823e3d601f19601f820116820180604052508101906110a19190613441565b9050919050565b6110b0611667565b600160009054906101000a900473ffffffffffffffffffffffffffffffffffffffff1673ffffffffffffffffffffffffffffffffffffffff1663b9db15b4836040518263ffffffff1660e01b815260040161110b9190611c5e565b600060405180830381865afa158015611128573d6000803e3d6000fd5b505050506040513d6000823e3d601f19601f820116820180604052508101906111519190613283565b9050919050565b6000600260009054906101000a900473ffffffffffffffffffffffffffffffffffffffff1673ffffffffffffffffffffffffffffffffffffffff1663bf4f31b084846040518363ffffffff1660e01b81526004016111b7929190612a8d565b602060405180830381865afa1580156111d4573d6000803e3d6000fd5b505050506040513d601f19601f820116820180604052508101906111f891906134f6565b905092915050565b6000600360009054906101000a900473ffffffffffffffffffffffffffffffffffffffff1673ffffffffffffffffffffffffffffffffffffffff1663dcfe3e08836040518263ffffffff1660e01b815260040161125d9190611c5e565b602060405180830381865afa15801561127a573d6000803e3d6000fd5b505050506040513d601f19601f8201168201806040525081019061129e9190612aff565b9050919050565b6112ad6116bb565b8282600360009054906101000a900473ffffffffffffffffffffffffffffffffffffffff1673ffffffffffffffffffffffffffffffffffffffff16639d4a2255836040518263ffffffff1660e01b815260040161130a9190611c5e565b600060405180830381865afa158015611327573d6000803e3d6000fd5b505050506040513d6000823e3d601f19601f820116820180604052508101906113509190613441565b518110611392576040517f08c379a0000000000000000000000000000000000000000000000000000000008152600401611389906134d6565b60405180910390fd5b600360009054906101000a900473ffffffffffffffffffffffffffffffffffffffff1673ffffffffffffffffffffffffffffffffffffffff1663dfa505ed86866040518363ffffffff1660e01b81526004016113ef929190612a8d565b600060405180830381865afa15801561140c573d6000803e3d6000fd5b505050506040513d6000823e3d601f19601f82011682018060405250810190611435919061356f565b9250505092915050565b60046020528060005260406000206000915090505481565b61145f6114dd565b600073ffffffffffffffffffffffffffffffffffffffff168173ffffffffffffffffffffffffffffffffffffffff16036114d15760006040517f1e4fbdf70000000000000000000000000000000000000000000000000000000081526004016114c89190612411565b60405180910390fd5b6114da81611564565b50565b6114e5611628565b73ffffffffffffffffffffffffffffffffffffffff16611503610fd5565b73ffffffffffffffffffffffffffffffffffffffff161461156257611526611628565b6040517f118cdaa70000000000000000000000000000000000000000000000000000000081526004016115599190612411565b60405180910390fd5b565b60008060009054906101000a900473ffffffffffffffffffffffffffffffffffffffff169050816000806101000a81548173ffffffffffffffffffffffffffffffffffffffff021916908373ffffffffffffffffffffffffffffffffffffffff1602179055508173ffffffffffffffffffffffffffffffffffffffff168173ffffffffffffffffffffffffffffffffffffffff167f8be0079c531659141344cd1fd0a4f28419497f9722a3daafe3b4186f6b6457e060405160405180910390a35050565b600033905090565b6040518060600160405280600073ffffffffffffffffffffffffffffffffffffffff16815260200160608152602001600081525090565b6040518060c0016040528060008152602001600073ffffffffffffffffffffffffffffffffffffffff16815260200161169e6116f9565b815260200160008152602001600015158152602001600081525090565b6040518060800160405280600073ffffffffffffffffffffffffffffffffffffffff1681526020016060815260200160008152602001600081525090565b6040518061022001604052806060815260200160608152602001606081526020016060815260200160608152602001600015158152602001606081526020016060815260200160608152602001606081526020016000151581526020016060815260200160608152602001606081526020016060815260200160608152602001606081525090565b6000604051905090565b600080fd5b600080fd5b6000819050919050565b6117a881611795565b81146117b357600080fd5b50565b6000813590506117c58161179f565b92915050565b6000602082840312156117e1576117e061178b565b5b60006117ef848285016117b6565b91505092915050565b600081519050919050565b600082825260208201905092915050565b6000819050602082019050919050565b600073ffffffffffffffffffffffffffffffffffffffff82169050919050565b600061184f82611824565b9050919050565b61185f81611844565b82525050565b600081519050919050565b600082825260208201905092915050565b60005b8381101561189f578082015181840152602081019050611884565b60008484015250505050565b6000601f19601f8301169050919050565b60006118c782611865565b6118d18185611870565b93506118e1818560208601611881565b6118ea816118ab565b840191505092915050565b6118fe81611795565b82525050565b600060608301600083015161191c6000860182611856565b506020830151848203602086015261193482826118bc565b915050604083015161194960408601826118f5565b508091505092915050565b60006119608383611904565b905092915050565b6000602082019050919050565b6000611980826117f8565b61198a8185611803565b93508360208202850161199c85611814565b8060005b858110156119d857848403895281516119b98582611954565b94506119c483611968565b925060208a019950506001810190506119a0565b50829750879550505050505092915050565b60006020820190508181036000830152611a048184611975565b905092915050565b600080fd5b600080fd5b7f4e487b7100000000000000000000000000000000000000000000000000000000600052604160045260246000fd5b611a4e826118ab565b810181811067ffffffffffffffff82111715611a6d57611a6c611a16565b5b80604052505050565b6000611a80611781565b9050611a8c8282611a45565b919050565b600067ffffffffffffffff821115611aac57611aab611a16565b5b611ab5826118ab565b9050602081019050919050565b82818337600083830152505050565b6000611ae4611adf84611a91565b611a76565b905082815260208101848484011115611b0057611aff611a11565b5b611b0b848285611ac2565b509392505050565b600082601f830112611b2857611b27611a0c565b5b8135611b38848260208601611ad1565b91505092915050565b60008060408385031215611b5857611b5761178b565b5b6000611b66858286016117b6565b925050602083013567ffffffffffffffff811115611b8757611b86611790565b5b611b9385828601611b13565b9150509250929050565b60008060408385031215611bb457611bb361178b565b5b6000611bc2858286016117b6565b9250506020611bd3858286016117b6565b9150509250929050565b6000606083016000830151611bf56000860182611856565b5060208301518482036020860152611c0d82826118bc565b9150506040830151611c2260408601826118f5565b508091505092915050565b60006020820190508181036000830152611c478184611bdd565b905092915050565b611c5881611795565b82525050565b6000602082019050611c736000830184611c4f565b92915050565b600081519050919050565b600082825260208201905092915050565b6000819050602082019050919050565b60008115159050919050565b611cba81611ca5565b82525050565b6000610220830160008301518482036000860152611cde82826118bc565b91505060208301518482036020860152611cf882826118bc565b91505060408301518482036040860152611d1282826118bc565b91505060608301518482036060860152611d2c82826118bc565b91505060808301518482036080860152611d4682826118bc565b91505060a0830151611d5b60a0860182611cb1565b5060c083015184820360c0860152611d7382826118bc565b91505060e083015184820360e0860152611d8d82826118bc565b915050610100830151848203610100860152611da982826118bc565b915050610120830151848203610120860152611dc582826118bc565b915050610140830151611ddc610140860182611cb1565b50610160830151848203610160860152611df682826118bc565b915050610180830151848203610180860152611e1282826118bc565b9150506101a08301518482036101a0860152611e2e82826118bc565b9150506101c08301518482036101c0860152611e4a82826118bc565b9150506101e08301518482036101e0860152611e6682826118bc565b915050610200830151848203610200860152611e8282826118bc565b9150508091505092915050565b600060c083016000830151611ea760008601826118f5565b506020830151611eba6020860182611856565b5060408301518482036040860152611ed28282611cc0565b9150506060830151611ee760608601826118f5565b506080830151611efa6080860182611cb1565b5060a0830151611f0d60a08601826118f5565b508091505092915050565b6000611f248383611e8f565b905092915050565b6000602082019050919050565b6000611f4482611c79565b611f4e8185611c84565b935083602082028501611f6085611c95565b8060005b85811015611f9c5784840389528151611f7d8582611f18565b9450611f8883611f2c565b925060208a01995050600181019050611f64565b50829750879550505050505092915050565b60006020820190508181036000830152611fc88184611f39565b905092915050565b611fd981611844565b8114611fe457600080fd5b50565b600081359050611ff681611fd0565b92915050565b600080fd5b600080fd5b61200f81611ca5565b811461201a57600080fd5b50565b60008135905061202c81612006565b92915050565b6000610220828403121561204957612048611ffc565b5b612054610220611a76565b9050600082013567ffffffffffffffff81111561207457612073612001565b5b61208084828501611b13565b600083015250602082013567ffffffffffffffff8111156120a4576120a3612001565b5b6120b084828501611b13565b602083015250604082013567ffffffffffffffff8111156120d4576120d3612001565b5b6120e084828501611b13565b604083015250606082013567ffffffffffffffff81111561210457612103612001565b5b61211084828501611b13565b606083015250608082013567ffffffffffffffff81111561213457612133612001565b5b61214084828501611b13565b60808301525060a06121548482850161201d565b60a08301525060c082013567ffffffffffffffff81111561217857612177612001565b5b61218484828501611b13565b60c08301525060e082013567ffffffffffffffff8111156121a8576121a7612001565b5b6121b484828501611b13565b60e08301525061010082013567ffffffffffffffff8111156121d9576121d8612001565b5b6121e584828501611b13565b6101008301525061012082013567ffffffffffffffff81111561220b5761220a612001565b5b61221784828501611b13565b6101208301525061014061222d8482850161201d565b6101408301525061016082013567ffffffffffffffff81111561225357612252612001565b5b61225f84828501611b13565b6101608301525061018082013567ffffffffffffffff81111561228557612284612001565b5b61229184828501611b13565b610180830152506101a082013567ffffffffffffffff8111156122b7576122b6612001565b5b6122c384828501611b13565b6101a0830152506101c082013567ffffffffffffffff8111156122e9576122e8612001565b5b6122f584828501611b13565b6101c0830152506101e082013567ffffffffffffffff81111561231b5761231a612001565b5b61232784828501611b13565b6101e08301525061020082013567ffffffffffffffff81111561234d5761234c612001565b5b61235984828501611b13565b6102008301525092915050565b6000806040838503121561237d5761237c61178b565b5b600061238b85828601611fe7565b925050602083013567ffffffffffffffff8111156123ac576123ab611790565b5b6123b885828601612032565b9150509250929050565b600080604083850312156123d9576123d861178b565b5b60006123e7858286016117b6565b92505060206123f885828601611fe7565b9150509250929050565b61240b81611844565b82525050565b60006020820190506124266000830184612402565b92915050565b600080600080608085870312156124465761244561178b565b5b600061245487828801611fe7565b9450506020612465878288016117b6565b935050604085013567ffffffffffffffff81111561248657612485611790565b5b61249287828801611b13565b92505060606124a3878288016117b6565b91505092959194509250565b600081519050919050565b600082825260208201905092915050565b6000819050602082019050919050565b60006080830160008301516124f36000860182611856565b506020830151848203602086015261250b82826118bc565b915050604083015161252060408601826118f5565b50606083015161253360608601826118f5565b508091505092915050565b600061254a83836124db565b905092915050565b6000602082019050919050565b600061256a826124af565b61257481856124ba565b935083602082028501612586856124cb565b8060005b858110156125c257848403895281516125a3858261253e565b94506125ae83612552565b925060208a0199505060018101905061258a565b50829750879550505050505092915050565b600060208201905081810360008301526125ee818461255f565b905092915050565b600060c08301600083015161260e60008601826118f5565b5060208301516126216020860182611856565b50604083015184820360408601526126398282611cc0565b915050606083015161264e60608601826118f5565b5060808301516126616080860182611cb1565b5060a083015161267460a08601826118f5565b508091505092915050565b6000602082019050818103600083015261269981846125f6565b905092915050565b60006080830160008301516126b96000860182611856565b50602083015184820360208601526126d182826118bc565b91505060408301516126e660408601826118f5565b5060608301516126f960608601826118f5565b508091505092915050565b6000602082019050818103600083015261271e81846126a1565b905092915050565b60006020828403121561273c5761273b61178b565b5b600061274a84828501611fe7565b91505092915050565b600067ffffffffffffffff82111561276e5761276d611a16565b5b602082029050602081019050919050565b600080fd5b60008151905061279381611fd0565b92915050565b60006127ac6127a784611a91565b611a76565b9050828152602081018484840111156127c8576127c7611a11565b5b6127d3848285611881565b509392505050565b600082601f8301126127f0576127ef611a0c565b5b8151612800848260208601612799565b91505092915050565b6000815190506128188161179f565b92915050565b60006060828403121561283457612833611ffc565b5b61283e6060611a76565b9050600061284e84828501612784565b600083015250602082015167ffffffffffffffff81111561287257612871612001565b5b61287e848285016127db565b602083015250604061289284828501612809565b60408301525092915050565b60006128b16128ac84612753565b611a76565b905080838252602082019050602084028301858111156128d4576128d361277f565b5b835b8181101561291b57805167ffffffffffffffff8111156128f9576128f8611a0c565b5b808601612906898261281e565b855260208501945050506020810190506128d6565b5050509392505050565b600082601f83011261293a57612939611a0c565b5b815161294a84826020860161289e565b91505092915050565b6000602082840312156129695761296861178b565b5b600082015167ffffffffffffffff81111561298757612986611790565b5b61299384828501612925565b91505092915050565b600082825260208201905092915050565b60006129b882611865565b6129c2818561299c565b93506129d2818560208601611881565b6129db816118ab565b840191505092915050565b60006040820190506129fb6000830185611c4f565b8181036020830152612a0d81846129ad565b90509392505050565b7f4e487b7100000000000000000000000000000000000000000000000000000000600052601160045260246000fd5b6000612a5082611795565b91507fffffffffffffffffffffffffffffffffffffffffffffffffffffffffffffffff8203612a8257612a81612a16565b5b600182019050919050565b6000604082019050612aa26000830185611c4f565b612aaf6020830184611c4f565b9392505050565b600060208284031215612acc57612acb61178b565b5b600082015167ffffffffffffffff811115612aea57612ae9611790565b5b612af68482850161281e565b91505092915050565b600060208284031215612b1557612b1461178b565b5b6000612b2384828501612809565b91505092915050565b600067ffffffffffffffff821115612b4757612b46611a16565b5b602082029050602081019050919050565b600081519050612b6781612006565b92915050565b60006102208284031215612b8457612b83611ffc565b5b612b8f610220611a76565b9050600082015167ffffffffffffffff811115612baf57612bae612001565b5b612bbb848285016127db565b600083015250602082015167ffffffffffffffff811115612bdf57612bde612001565b5b612beb848285016127db565b602083015250604082015167ffffffffffffffff811115612c0f57612c0e612001565b5b612c1b848285016127db565b604083015250606082015167ffffffffffffffff811115612c3f57612c3e612001565b5b612c4b848285016127db565b606083015250608082015167ffffffffffffffff811115612c6f57612c6e612001565b5b612c7b848285016127db565b60808301525060a0612c8f84828501612b58565b60a08301525060c082015167ffffffffffffffff811115612cb357612cb2612001565b5b612cbf848285016127db565b60c08301525060e082015167ffffffffffffffff811115612ce357612ce2612001565b5b612cef848285016127db565b60e08301525061010082015167ffffffffffffffff811115612d1457612d13612001565b5b612d20848285016127db565b6101008301525061012082015167ffffffffffffffff811115612d4657612d45612001565b5b612d52848285016127db565b61012083015250610140612d6884828501612b58565b6101408301525061016082015167ffffffffffffffff811115612d8e57612d8d612001565b5b612d9a848285016127db565b6101608301525061018082015167ffffffffffffffff811115612dc057612dbf612001565b5b612dcc848285016127db565b610180830152506101a082015167ffffffffffffffff811115612df257612df1612001565b5b612dfe848285016127db565b6101a0830152506101c082015167ffffffffffffffff811115612e2457612e23612001565b5b612e30848285016127db565b6101c0830152506101e082015167ffffffffffffffff811115612e5657612e55612001565b5b612e62848285016127db565b6101e08301525061020082015167ffffffffffffffff811115612e8857612e87612001565b5b612e94848285016127db565b6102008301525092915050565b600060c08284031215612eb757612eb6611ffc565b5b612ec160c0611a76565b90506000612ed184828501612809565b6000830152506020612ee584828501612784565b602083015250604082015167ffffffffffffffff811115612f0957612f08612001565b5b612f1584828501612b6d565b6040830152506060612f2984828501612809565b6060830152506080612f3d84828501612b58565b60808301525060a0612f5184828501612809565b60a08301525092915050565b6000612f70612f6b84612b2c565b611a76565b90508083825260208201905060208402830185811115612f9357612f9261277f565b5b835b81811015612fda57805167ffffffffffffffff811115612fb857612fb7611a0c565b5b808601612fc58982612ea1565b85526020850194505050602081019050612f95565b5050509392505050565b600082601f830112612ff957612ff8611a0c565b5b8151613009848260208601612f5d565b91505092915050565b6000602082840312156130285761302761178b565b5b600082015167ffffffffffffffff81111561304657613045611790565b5b61305284828501612fe4565b91505092915050565b600061022083016000830151848203600086015261307982826118bc565b9150506020830151848203602086015261309382826118bc565b915050604083015184820360408601526130ad82826118bc565b915050606083015184820360608601526130c782826118bc565b915050608083015184820360808601526130e182826118bc565b91505060a08301516130f660a0860182611cb1565b5060c083015184820360c086015261310e82826118bc565b91505060e083015184820360e086015261312882826118bc565b91505061010083015184820361010086015261314482826118bc565b91505061012083015184820361012086015261316082826118bc565b915050610140830151613177610140860182611cb1565b5061016083015184820361016086015261319182826118bc565b9150506101808301518482036101808601526131ad82826118bc565b9150506101a08301518482036101a08601526131c982826118bc565b9150506101c08301518482036101c08601526131e582826118bc565b9150506101e08301518482036101e086015261320182826118bc565b91505061020083015184820361020086015261321d82826118bc565b9150508091505092915050565b600060408201905061323f6000830185612402565b8181036020830152613251818461305b565b90509392505050565b600060408201905061326f6000830185611c4f565b61327c6020830184612402565b9392505050565b6000602082840312156132995761329861178b565b5b600082015167ffffffffffffffff8111156132b7576132b6611790565b5b6132c384828501612ea1565b91505092915050565b600067ffffffffffffffff8211156132e7576132e6611a16565b5b602082029050602081019050919050565b60006080828403121561330e5761330d611ffc565b5b6133186080611a76565b9050600061332884828501612784565b600083015250602082015167ffffffffffffffff81111561334c5761334b612001565b5b613358848285016127db565b602083015250604061336c84828501612809565b604083015250606061338084828501612809565b60608301525092915050565b600061339f61339a846132cc565b611a76565b905080838252602082019050602084028301858111156133c2576133c161277f565b5b835b8181101561340957805167ffffffffffffffff8111156133e7576133e6611a0c565b5b8086016133f489826132f8565b855260208501945050506020810190506133c4565b5050509392505050565b600082601f83011261342857613427611a0c565b5b815161343884826020860161338c565b91505092915050565b6000602082840312156134575761345661178b565b5b600082015167ffffffffffffffff81111561347557613474611790565b5b61348184828501613413565b91505092915050565b7f52657669657720646f6573206e6f742065786973740000000000000000000000600082015250565b60006134c060158361299c565b91506134cb8261348a565b602082019050919050565b600060208201905081810360008301526134ef816134b3565b9050919050565b60006020828403121561350c5761350b61178b565b5b600061351a84828501612784565b91505092915050565b60006080820190506135386000830187612402565b6135456020830186611c4f565b818103604083015261355781856129ad565b90506135666060830184611c4f565b95945050505050565b6000602082840312156135855761358461178b565b5b600082015167ffffffffffffffff8111156135a3576135a2611790565b5b6135af848285016132f8565b9150509291505056fea26469706673582212200f60735f5a0ae8bd03c100ac709ab6d7c9a0c108046ffdd14fa5e5de32b0424d64736f6c63430008180033",
  "linkReferences": {},
  "deployedLinkReferences": {}
}