{
  "_format": "hh-sol-artifact-1",
  "contractName": "Product",
  "sourceName": "contracts/Product.sol",
  "abi": [
    {
      "inputs": [
        {
          "internalType": "address",
          "name": "initialOwner",
          "type": "address"
        }
      ],
      "stateMutability": "nonpayable",
      "type": "constructor"
    },
    {
      "inputs": [
        {
          "internalType": "address",
          "name": "owner",
          "type": "address"
        }
      ],
      "name": "OwnableInvalidOwner",
      "type": "error"
    },
    {
      "inputs": [
        {
          "internalType": "address",
          "name": "account",
          "type": "address"
        }
      ],
      "name": "OwnableUnauthorizedAccount",
      "type": "error"
    },
    {
      "anonymous": false,
      "inputs": [
        {
          "indexed": true,
          "internalType": "uint256",
          "name": "productId",
          "type": "uint256"
        },
        {
          "indexed": false,
          "internalType": "string",
          "name": "betaTestingLink",
          "type": "string"
        }
      ],
      "name": "BetaTestingLinkUpdated",
      "type": "event"
    },
    {
      "anonymous": false,
      "inputs": [
        {
          "indexed": true,
          "internalType": "address",
          "name": "previousOwner",
          "type": "address"
        },
        {
          "indexed": true,
          "internalType": "address",
          "name": "newOwner",
          "type": "address"
        }
      ],
      "name": "OwnershipTransferred",
      "type": "event"
    },
    {
      "anonymous": false,
      "inputs": [
        {
          "indexed": true,
          "internalType": "uint256",
          "name": "productId",
          "type": "uint256"
        },
        {
          "indexed": true,
          "internalType": "address",
          "name": "owner",
          "type": "address"
        },
        {
          "indexed": false,
          "internalType": "string",
          "name": "productName",
          "type": "string"
        },
        {
          "indexed": false,
          "internalType": "string",
          "name": "description",
          "type": "string"
        }
      ],
      "name": "ProductRegistered",
      "type": "event"
    },
    {
      "anonymous": false,
      "inputs": [
        {
          "indexed": true,
          "internalType": "uint256",
          "name": "productId",
          "type": "uint256"
        },
        {
          "indexed": true,
          "internalType": "address",
          "name": "user",
          "type": "address"
        }
      ],
      "name": "ProductUpvoted",
      "type": "event"
    },
    {
      "inputs": [
        {
          "internalType": "uint256",
          "name": "_productId",
          "type": "uint256"
        }
      ],
      "name": "canBeListed",
      "outputs": [
        {
          "internalType": "bool",
          "name": "",
          "type": "bool"
        }
      ],
      "stateMutability": "view",
      "type": "function"
    },
    {
      "inputs": [],
      "name": "getListedProducts",
      "outputs": [
        {
          "components": [
            {
              "internalType": "uint256",
              "name": "id",
              "type": "uint256"
            },
            {
              "internalType": "address",
              "name": "owner",
              "type": "address"
            },
            {
              "components": [
                {
                  "internalType": "string",
                  "name": "productName",
                  "type": "string"
                },
                {
                  "internalType": "string",
                  "name": "tagLine",
                  "type": "string"
                },
                {
                  "internalType": "string",
                  "name": "productLink",
                  "type": "string"
                },
                {
                  "internalType": "string",
                  "name": "twitterLink",
                  "type": "string"
                },
                {
                  "internalType": "string",
                  "name": "description",
                  "type": "string"
                },
                {
                  "internalType": "bool",
                  "name": "isOpenSource",
                  "type": "bool"
                },
                {
                  "internalType": "string",
                  "name": "category",
                  "type": "string"
                },
                {
                  "internalType": "string",
                  "name": "thumbNail",
                  "type": "string"
                },
                {
                  "internalType": "string",
                  "name": "mediaFile",
                  "type": "string"
                },
                {
                  "internalType": "string",
                  "name": "loomLink",
                  "type": "string"
                },
                {
                  "internalType": "bool",
                  "name": "workedWithTeam",
                  "type": "bool"
                },
                {
                  "internalType": "string",
                  "name": "teamMembersInput",
                  "type": "string"
                },
                {
                  "internalType": "string",
                  "name": "pricingOption",
                  "type": "string"
                },
                {
                  "internalType": "string",
                  "name": "offer",
                  "type": "string"
                },
                {
                  "internalType": "string",
                  "name": "promoCode",
                  "type": "string"
                },
                {
                  "internalType": "string",
                  "name": "expirationDate",
                  "type": "string"
                },
                {
                  "internalType": "string",
                  "name": "betaTestingLink",
                  "type": "string"
                }
              ],
              "internalType": "struct Product.ProductDetails",
              "name": "details",
              "type": "tuple"
            },
            {
              "internalType": "uint256",
              "name": "upvotes",
              "type": "uint256"
            },
            {
              "internalType": "bool",
              "name": "betaTestingAvailable",
              "type": "bool"
            },
            {
              "internalType": "uint256",
              "name": "timestamp",
              "type": "uint256"
            }
          ],
          "internalType": "struct Product.ProductInfo[]",
          "name": "",
          "type": "tuple[]"
        }
      ],
      "stateMutability": "view",
      "type": "function"
    },
    {
      "inputs": [
        {
          "internalType": "uint256",
          "name": "_productId",
          "type": "uint256"
        }
      ],
      "name": "getProduct",
      "outputs": [
        {
          "components": [
            {
              "internalType": "uint256",
              "name": "id",
              "type": "uint256"
            },
            {
              "internalType": "address",
              "name": "owner",
              "type": "address"
            },
            {
              "components": [
                {
                  "internalType": "string",
                  "name": "productName",
                  "type": "string"
                },
                {
                  "internalType": "string",
                  "name": "tagLine",
                  "type": "string"
                },
                {
                  "internalType": "string",
                  "name": "productLink",
                  "type": "string"
                },
                {
                  "internalType": "string",
                  "name": "twitterLink",
                  "type": "string"
                },
                {
                  "internalType": "string",
                  "name": "description",
                  "type": "string"
                },
                {
                  "internalType": "bool",
                  "name": "isOpenSource",
                  "type": "bool"
                },
                {
                  "internalType": "string",
                  "name": "category",
                  "type": "string"
                },
                {
                  "internalType": "string",
                  "name": "thumbNail",
                  "type": "string"
                },
                {
                  "internalType": "string",
                  "name": "mediaFile",
                  "type": "string"
                },
                {
                  "internalType": "string",
                  "name": "loomLink",
                  "type": "string"
                },
                {
                  "internalType": "bool",
                  "name": "workedWithTeam",
                  "type": "bool"
                },
                {
                  "internalType": "string",
                  "name": "teamMembersInput",
                  "type": "string"
                },
                {
                  "internalType": "string",
                  "name": "pricingOption",
                  "type": "string"
                },
                {
                  "internalType": "string",
                  "name": "offer",
                  "type": "string"
                },
                {
                  "internalType": "string",
                  "name": "promoCode",
                  "type": "string"
                },
                {
                  "internalType": "string",
                  "name": "expirationDate",
                  "type": "string"
                },
                {
                  "internalType": "string",
                  "name": "betaTestingLink",
                  "type": "string"
                }
              ],
              "internalType": "struct Product.ProductDetails",
              "name": "details",
              "type": "tuple"
            },
            {
              "internalType": "uint256",
              "name": "upvotes",
              "type": "uint256"
            },
            {
              "internalType": "bool",
              "name": "betaTestingAvailable",
              "type": "bool"
            },
            {
              "internalType": "uint256",
              "name": "timestamp",
              "type": "uint256"
            }
          ],
          "internalType": "struct Product.ProductInfo",
          "name": "",
          "type": "tuple"
        }
      ],
      "stateMutability": "view",
      "type": "function"
    },
    {
      "inputs": [
        {
          "internalType": "uint256",
          "name": "",
          "type": "uint256"
        },
        {
          "internalType": "address",
          "name": "",
          "type": "address"
        }
      ],
      "name": "hasUpvoted",
      "outputs": [
        {
          "internalType": "bool",
          "name": "",
          "type": "bool"
        }
      ],
      "stateMutability": "view",
      "type": "function"
    },
    {
      "inputs": [],
      "name": "owner",
      "outputs": [
        {
          "internalType": "address",
          "name": "",
          "type": "address"
        }
      ],
      "stateMutability": "view",
      "type": "function"
    },
    {
      "inputs": [
        {
          "internalType": "uint256",
          "name": "",
          "type": "uint256"
        }
      ],
      "name": "products",
      "outputs": [
        {
          "internalType": "uint256",
          "name": "id",
          "type": "uint256"
        },
        {
          "internalType": "address",
          "name": "owner",
          "type": "address"
        },
        {
          "components": [
            {
              "internalType": "string",
              "name": "productName",
              "type": "string"
            },
            {
              "internalType": "string",
              "name": "tagLine",
              "type": "string"
            },
            {
              "internalType": "string",
              "name": "productLink",
              "type": "string"
            },
            {
              "internalType": "string",
              "name": "twitterLink",
              "type": "string"
            },
            {
              "internalType": "string",
              "name": "description",
              "type": "string"
            },
            {
              "internalType": "bool",
              "name": "isOpenSource",
              "type": "bool"
            },
            {
              "internalType": "string",
              "name": "category",
              "type": "string"
            },
            {
              "internalType": "string",
              "name": "thumbNail",
              "type": "string"
            },
            {
              "internalType": "string",
              "name": "mediaFile",
              "type": "string"
            },
            {
              "internalType": "string",
              "name": "loomLink",
              "type": "string"
            },
            {
              "internalType": "bool",
              "name": "workedWithTeam",
              "type": "bool"
            },
            {
              "internalType": "string",
              "name": "teamMembersInput",
              "type": "string"
            },
            {
              "internalType": "string",
              "name": "pricingOption",
              "type": "string"
            },
            {
              "internalType": "string",
              "name": "offer",
              "type": "string"
            },
            {
              "internalType": "string",
              "name": "promoCode",
              "type": "string"
            },
            {
              "internalType": "string",
              "name": "expirationDate",
              "type": "string"
            },
            {
              "internalType": "string",
              "name": "betaTestingLink",
              "type": "string"
            }
          ],
          "internalType": "struct Product.ProductDetails",
          "name": "details",
          "type": "tuple"
        },
        {
          "internalType": "uint256",
          "name": "upvotes",
          "type": "uint256"
        },
        {
          "internalType": "bool",
          "name": "betaTestingAvailable",
          "type": "bool"
        },
        {
          "internalType": "uint256",
          "name": "timestamp",
          "type": "uint256"
        }
      ],
      "stateMutability": "view",
      "type": "function"
    },
    {
      "inputs": [
        {
          "internalType": "address",
          "name": "_owner",
          "type": "address"
        },
        {
          "components": [
            {
              "internalType": "string",
              "name": "productName",
              "type": "string"
            },
            {
              "internalType": "string",
              "name": "tagLine",
              "type": "string"
            },
            {
              "internalType": "string",
              "name": "productLink",
              "type": "string"
            },
            {
              "internalType": "string",
              "name": "twitterLink",
              "type": "string"
            },
            {
              "internalType": "string",
              "name": "description",
              "type": "string"
            },
            {
              "internalType": "bool",
              "name": "isOpenSource",
              "type": "bool"
            },
            {
              "internalType": "string",
              "name": "category",
              "type": "string"
            },
            {
              "internalType": "string",
              "name": "thumbNail",
              "type": "string"
            },
            {
              "internalType": "string",
              "name": "mediaFile",
              "type": "string"
            },
            {
              "internalType": "string",
              "name": "loomLink",
              "type": "string"
            },
            {
              "internalType": "bool",
              "name": "workedWithTeam",
              "type": "bool"
            },
            {
              "internalType": "string",
              "name": "teamMembersInput",
              "type": "string"
            },
            {
              "internalType": "string",
              "name": "pricingOption",
              "type": "string"
            },
            {
              "internalType": "string",
              "name": "offer",
              "type": "string"
            },
            {
              "internalType": "string",
              "name": "promoCode",
              "type": "string"
            },
            {
              "internalType": "string",
              "name": "expirationDate",
              "type": "string"
            },
            {
              "internalType": "string",
              "name": "betaTestingLink",
              "type": "string"
            }
          ],
          "internalType": "struct Product.ProductDetails",
          "name": "details",
          "type": "tuple"
        }
      ],
      "name": "registerProduct",
      "outputs": [],
      "stateMutability": "nonpayable",
      "type": "function"
    },
    {
      "inputs": [],
      "name": "renounceOwnership",
      "outputs": [],
      "stateMutability": "nonpayable",
      "type": "function"
    },
    {
      "inputs": [
        {
          "internalType": "address",
          "name": "newOwner",
          "type": "address"
        }
      ],
      "name": "transferOwnership",
      "outputs": [],
      "stateMutability": "nonpayable",
      "type": "function"
    },
    {
      "inputs": [
        {
          "internalType": "uint256",
          "name": "_productId",
          "type": "uint256"
        },
        {
          "internalType": "string",
          "name": "_betaTestingLink",
          "type": "string"
        }
      ],
      "name": "updateBetaTestingLink",
      "outputs": [],
      "stateMutability": "nonpayable",
      "type": "function"
    },
    {
      "inputs": [
        {
          "internalType": "uint256",
          "name": "productId",
          "type": "uint256"
        },
        {
          "internalType": "address",
          "name": "upvoter",
          "type": "address"
        }
      ],
      "name": "upvoteProduct",
      "outputs": [],
      "stateMutability": "nonpayable",
      "type": "function"
    }
  ],
  "bytecode": "0x60806040523480156200001157600080fd5b5060405162004b2e38038062004b2e8339818101604052810190620000379190620001f4565b80600073ffffffffffffffffffffffffffffffffffffffff168173ffffffffffffffffffffffffffffffffffffffff1603620000ad5760006040517f1e4fbdf7000000000000000000000000000000000000000000000000000000008152600401620000a4919062000237565b60405180910390fd5b620000be81620000c660201b60201c565b505062000254565b60008060009054906101000a900473ffffffffffffffffffffffffffffffffffffffff169050816000806101000a81548173ffffffffffffffffffffffffffffffffffffffff021916908373ffffffffffffffffffffffffffffffffffffffff1602179055508173ffffffffffffffffffffffffffffffffffffffff168173ffffffffffffffffffffffffffffffffffffffff167f8be0079c531659141344cd1fd0a4f28419497f9722a3daafe3b4186f6b6457e060405160405180910390a35050565b600080fd5b600073ffffffffffffffffffffffffffffffffffffffff82169050919050565b6000620001bc826200018f565b9050919050565b620001ce81620001af565b8114620001da57600080fd5b50565b600081519050620001ee81620001c3565b92915050565b6000602082840312156200020d576200020c6200018a565b5b60006200021d84828501620001dd565b91505092915050565b6200023181620001af565b82525050565b60006020820190506200024e600083018462000226565b92915050565b6148ca80620002646000396000f3fe608060405234801561001057600080fd5b50600436106100a95760003560e01c80637acc0b20116100715780637acc0b201461012a5780638da5cb5b1461015f578063a52c86581461017d578063b9db15b4146101ad578063f1c88b4b146101dd578063f2fde38b1461020d576100a9565b806352cb26af146100ae57806355110f14146100cc578063577ac4af146100e857806363283c8414610104578063715018a614610120575b600080fd5b6100b6610229565b6040516100c39190613853565b60405180910390f35b6100e660048036038101906100e191906139ea565b610cb8565b005b61010260048036038101906100fd9190613ddc565b610e4d565b005b61011e60048036038101906101199190613e38565b611152565b005b6101286113d3565b005b610144600480360381019061013f9190613e78565b6113e7565b604051610156969594939291906140a1565b60405180910390f35b610167611d1f565b6040516101749190614109565b60405180910390f35b61019760048036038101906101929190613e38565b611d48565b6040516101a49190614124565b60405180910390f35b6101c760048036038101906101c29190613e78565b611d77565b6040516101d491906141c8565b60405180910390f35b6101f760048036038101906101f29190613e78565b612766565b6040516102049190614124565b60405180910390f35b610227600480360381019061022291906141ea565b61317f565b005b606060006001549050600080600190505b8281116102715761024a81612766565b1561025e57818061025a90614246565b9250505b808061026990614246565b91505061023a565b5060008167ffffffffffffffff81111561028e5761028d6138bf565b5b6040519080825280602002602001820160405280156102c757816020015b6102b4613358565b8152602001906001900390816102ac5790505b509050600080600190505b848111610cad576102e281612766565b15610c9a57600260008281526020019081526020016000206040518060c0016040529081600082015481526020016001820160009054906101000a900473ffffffffffffffffffffffffffffffffffffffff1673ffffffffffffffffffffffffffffffffffffffff1673ffffffffffffffffffffffffffffffffffffffff1681526020016002820160405180610220016040529081600082018054610386906142bd565b80601f01602080910402602001604051908101604052809291908181526020018280546103b2906142bd565b80156103ff5780601f106103d4576101008083540402835291602001916103ff565b820191906000526020600020905b8154815290600101906020018083116103e257829003601f168201915b50505050508152602001600182018054610418906142bd565b80601f0160208091040260200160405190810160405280929190818152602001828054610444906142bd565b80156104915780601f1061046657610100808354040283529160200191610491565b820191906000526020600020905b81548152906001019060200180831161047457829003601f168201915b505050505081526020016002820180546104aa906142bd565b80601f01602080910402602001604051908101604052809291908181526020018280546104d6906142bd565b80156105235780601f106104f857610100808354040283529160200191610523565b820191906000526020600020905b81548152906001019060200180831161050657829003601f168201915b5050505050815260200160038201805461053c906142bd565b80601f0160208091040260200160405190810160405280929190818152602001828054610568906142bd565b80156105b55780601f1061058a576101008083540402835291602001916105b5565b820191906000526020600020905b81548152906001019060200180831161059857829003601f168201915b505050505081526020016004820180546105ce906142bd565b80601f01602080910402602001604051908101604052809291908181526020018280546105fa906142bd565b80156106475780601f1061061c57610100808354040283529160200191610647565b820191906000526020600020905b81548152906001019060200180831161062a57829003601f168201915b505050505081526020016005820160009054906101000a900460ff1615151515815260200160068201805461067b906142bd565b80601f01602080910402602001604051908101604052809291908181526020018280546106a7906142bd565b80156106f45780601f106106c9576101008083540402835291602001916106f4565b820191906000526020600020905b8154815290600101906020018083116106d757829003601f168201915b5050505050815260200160078201805461070d906142bd565b80601f0160208091040260200160405190810160405280929190818152602001828054610739906142bd565b80156107865780601f1061075b57610100808354040283529160200191610786565b820191906000526020600020905b81548152906001019060200180831161076957829003601f168201915b5050505050815260200160088201805461079f906142bd565b80601f01602080910402602001604051908101604052809291908181526020018280546107cb906142bd565b80156108185780601f106107ed57610100808354040283529160200191610818565b820191906000526020600020905b8154815290600101906020018083116107fb57829003601f168201915b50505050508152602001600982018054610831906142bd565b80601f016020809104026020016040519081016040528092919081815260200182805461085d906142bd565b80156108aa5780601f1061087f576101008083540402835291602001916108aa565b820191906000526020600020905b81548152906001019060200180831161088d57829003601f168201915b50505050508152602001600a820160009054906101000a900460ff16151515158152602001600b820180546108de906142bd565b80601f016020809104026020016040519081016040528092919081815260200182805461090a906142bd565b80156109575780601f1061092c57610100808354040283529160200191610957565b820191906000526020600020905b81548152906001019060200180831161093a57829003601f168201915b50505050508152602001600c82018054610970906142bd565b80601f016020809104026020016040519081016040528092919081815260200182805461099c906142bd565b80156109e95780601f106109be576101008083540402835291602001916109e9565b820191906000526020600020905b8154815290600101906020018083116109cc57829003601f168201915b50505050508152602001600d82018054610a02906142bd565b80601f0160208091040260200160405190810160405280929190818152602001828054610a2e906142bd565b8015610a7b5780601f10610a5057610100808354040283529160200191610a7b565b820191906000526020600020905b815481529060010190602001808311610a5e57829003601f168201915b50505050508152602001600e82018054610a94906142bd565b80601f0160208091040260200160405190810160405280929190818152602001828054610ac0906142bd565b8015610b0d5780601f10610ae257610100808354040283529160200191610b0d565b820191906000526020600020905b815481529060010190602001808311610af057829003601f168201915b50505050508152602001600f82018054610b26906142bd565b80601f0160208091040260200160405190810160405280929190818152602001828054610b52906142bd565b8015610b9f5780601f10610b7457610100808354040283529160200191610b9f565b820191906000526020600020905b815481529060010190602001808311610b8257829003601f168201915b50505050508152602001601082018054610bb8906142bd565b80601f0160208091040260200160405190810160405280929190818152602001828054610be4906142bd565b8015610c315780601f10610c0657610100808354040283529160200191610c31565b820191906000526020600020905b815481529060010190602001808311610c1457829003601f168201915b5050505050815250508152602001601382015481526020016014820160009054906101000a900460ff16151515158152602001601582015481525050838381518110610c8057610c7f6142ee565b5b60200260200101819052508180610c9690614246565b9250505b8080610ca590614246565b9150506102d2565b508194505050505090565b8180600260008381526020019081526020016000206000015414610d11576040517f08c379a0000000000000000000000000000000000000000000000000000000008152600401610d089061437a565b60405180910390fd5b823373ffffffffffffffffffffffffffffffffffffffff166002600083815260200190815260200160002060010160009054906101000a900473ffffffffffffffffffffffffffffffffffffffff1673ffffffffffffffffffffffffffffffffffffffff1614610db6576040517f08c379a0000000000000000000000000000000000000000000000000000000008152600401610dad9061440c565b60405180910390fd5b82600260008681526020019081526020016000206002016010019081610ddc91906145d8565b5060008351116002600086815260200190815260200160002060140160006101000a81548160ff021916908315150217905550837f60b68b8d9dde04a1c7a3c8b7c6631c84bca71372b9f129b0958fd4d901a57e5384604051610e3f91906146e3565b60405180910390a250505050565b60016000815480929190610e6090614246565b9190505550600060015490506040518060c001604052808281526020018473ffffffffffffffffffffffffffffffffffffffff16815260200183815260200160008152602001600084610200015151111515815260200142815250600260008381526020019081526020016000206000820151816000015560208201518160010160006101000a81548173ffffffffffffffffffffffffffffffffffffffff021916908373ffffffffffffffffffffffffffffffffffffffff1602179055506040820151816002016000820151816000019081610f3d91906145d8565b506020820151816001019081610f5391906145d8565b506040820151816002019081610f6991906145d8565b506060820151816003019081610f7f91906145d8565b506080820151816004019081610f9591906145d8565b5060a08201518160050160006101000a81548160ff02191690831515021790555060c0820151816006019081610fcb91906145d8565b5060e0820151816007019081610fe191906145d8565b50610100820151816008019081610ff891906145d8565b5061012082015181600901908161100f91906145d8565b5061014082015181600a0160006101000a81548160ff02191690831515021790555061016082015181600b01908161104791906145d8565b5061018082015181600c01908161105e91906145d8565b506101a082015181600d01908161107591906145d8565b506101c082015181600e01908161108c91906145d8565b506101e082015181600f0190816110a391906145d8565b506102008201518160100190816110ba91906145d8565b5050506060820151816013015560808201518160140160006101000a81548160ff02191690831515021790555060a082015181601501559050508273ffffffffffffffffffffffffffffffffffffffff16817fb5744bf87060f3c128bd7ec7c73734981e2525b5958bd63d50320e2e282fb75784600001518560800151604051611145929190614705565b60405180910390a3505050565b81806002600083815260200190815260200160002060000154146111ab576040517f08c379a00000000000000000000000000000000000000000000000000000000081526004016111a29061437a565b60405180910390fd5b82828073ffffffffffffffffffffffffffffffffffffffff166002600084815260200190815260200160002060010160009054906101000a900473ffffffffffffffffffffffffffffffffffffffff1673ffffffffffffffffffffffffffffffffffffffff1603611251576040517f08c379a0000000000000000000000000000000000000000000000000000000008152600401611248906147ae565b60405180910390fd5b84846003600083815260200190815260200160002060008273ffffffffffffffffffffffffffffffffffffffff1673ffffffffffffffffffffffffffffffffffffffff16815260200190815260200160002060009054906101000a900460ff16156112f1576040517f08c379a00000000000000000000000000000000000000000000000000000000081526004016112e890614840565b60405180910390fd5b60026000888152602001908152602001600020601301600081548092919061131890614246565b919050555060016003600089815260200190815260200160002060008873ffffffffffffffffffffffffffffffffffffffff1673ffffffffffffffffffffffffffffffffffffffff16815260200190815260200160002060006101000a81548160ff0219169083151502179055508573ffffffffffffffffffffffffffffffffffffffff16877f956f0f479292addd89f768b4b97612f546f78aae3d2b8a416a19c8b5b610b40560405160405180910390a350505050505050565b6113db613205565b6113e5600061328c565b565b60026020528060005260406000206000915090508060000154908060010160009054906101000a900473ffffffffffffffffffffffffffffffffffffffff16908060020160405180610220016040529081600082018054611447906142bd565b80601f0160208091040260200160405190810160405280929190818152602001828054611473906142bd565b80156114c05780601f10611495576101008083540402835291602001916114c0565b820191906000526020600020905b8154815290600101906020018083116114a357829003601f168201915b505050505081526020016001820180546114d9906142bd565b80601f0160208091040260200160405190810160405280929190818152602001828054611505906142bd565b80156115525780601f1061152757610100808354040283529160200191611552565b820191906000526020600020905b81548152906001019060200180831161153557829003601f168201915b5050505050815260200160028201805461156b906142bd565b80601f0160208091040260200160405190810160405280929190818152602001828054611597906142bd565b80156115e45780601f106115b9576101008083540402835291602001916115e4565b820191906000526020600020905b8154815290600101906020018083116115c757829003601f168201915b505050505081526020016003820180546115fd906142bd565b80601f0160208091040260200160405190810160405280929190818152602001828054611629906142bd565b80156116765780601f1061164b57610100808354040283529160200191611676565b820191906000526020600020905b81548152906001019060200180831161165957829003601f168201915b5050505050815260200160048201805461168f906142bd565b80601f01602080910402602001604051908101604052809291908181526020018280546116bb906142bd565b80156117085780601f106116dd57610100808354040283529160200191611708565b820191906000526020600020905b8154815290600101906020018083116116eb57829003601f168201915b505050505081526020016005820160009054906101000a900460ff1615151515815260200160068201805461173c906142bd565b80601f0160208091040260200160405190810160405280929190818152602001828054611768906142bd565b80156117b55780601f1061178a576101008083540402835291602001916117b5565b820191906000526020600020905b81548152906001019060200180831161179857829003601f168201915b505050505081526020016007820180546117ce906142bd565b80601f01602080910402602001604051908101604052809291908181526020018280546117fa906142bd565b80156118475780601f1061181c57610100808354040283529160200191611847565b820191906000526020600020905b81548152906001019060200180831161182a57829003601f168201915b50505050508152602001600882018054611860906142bd565b80601f016020809104026020016040519081016040528092919081815260200182805461188c906142bd565b80156118d95780601f106118ae576101008083540402835291602001916118d9565b820191906000526020600020905b8154815290600101906020018083116118bc57829003601f168201915b505050505081526020016009820180546118f2906142bd565b80601f016020809104026020016040519081016040528092919081815260200182805461191e906142bd565b801561196b5780601f106119405761010080835404028352916020019161196b565b820191906000526020600020905b81548152906001019060200180831161194e57829003601f168201915b50505050508152602001600a820160009054906101000a900460ff16151515158152602001600b8201805461199f906142bd565b80601f01602080910402602001604051908101604052809291908181526020018280546119cb906142bd565b8015611a185780601f106119ed57610100808354040283529160200191611a18565b820191906000526020600020905b8154815290600101906020018083116119fb57829003601f168201915b50505050508152602001600c82018054611a31906142bd565b80601f0160208091040260200160405190810160405280929190818152602001828054611a5d906142bd565b8015611aaa5780601f10611a7f57610100808354040283529160200191611aaa565b820191906000526020600020905b815481529060010190602001808311611a8d57829003601f168201915b50505050508152602001600d82018054611ac3906142bd565b80601f0160208091040260200160405190810160405280929190818152602001828054611aef906142bd565b8015611b3c5780601f10611b1157610100808354040283529160200191611b3c565b820191906000526020600020905b815481529060010190602001808311611b1f57829003601f168201915b50505050508152602001600e82018054611b55906142bd565b80601f0160208091040260200160405190810160405280929190818152602001828054611b81906142bd565b8015611bce5780601f10611ba357610100808354040283529160200191611bce565b820191906000526020600020905b815481529060010190602001808311611bb157829003601f168201915b50505050508152602001600f82018054611be7906142bd565b80601f0160208091040260200160405190810160405280929190818152602001828054611c13906142bd565b8015611c605780601f10611c3557610100808354040283529160200191611c60565b820191906000526020600020905b815481529060010190602001808311611c4357829003601f168201915b50505050508152602001601082018054611c79906142bd565b80601f0160208091040260200160405190810160405280929190818152602001828054611ca5906142bd565b8015611cf25780601f10611cc757610100808354040283529160200191611cf2565b820191906000526020600020905b815481529060010190602001808311611cd557829003601f168201915b505050505081525050908060130154908060140160009054906101000a900460ff16908060150154905086565b60008060009054906101000a900473ffffffffffffffffffffffffffffffffffffffff16905090565b60036020528160005260406000206020528060005260406000206000915091509054906101000a900460ff1681565b611d7f613358565b8180600260008381526020019081526020016000206000015414611dd8576040517f08c379a0000000000000000000000000000000000000000000000000000000008152600401611dcf9061437a565b60405180910390fd5b600260008481526020019081526020016000206040518060c0016040529081600082015481526020016001820160009054906101000a900473ffffffffffffffffffffffffffffffffffffffff1673ffffffffffffffffffffffffffffffffffffffff1673ffffffffffffffffffffffffffffffffffffffff1681526020016002820160405180610220016040529081600082018054611e77906142bd565b80601f0160208091040260200160405190810160405280929190818152602001828054611ea3906142bd565b8015611ef05780601f10611ec557610100808354040283529160200191611ef0565b820191906000526020600020905b815481529060010190602001808311611ed357829003601f168201915b50505050508152602001600182018054611f09906142bd565b80601f0160208091040260200160405190810160405280929190818152602001828054611f35906142bd565b8015611f825780601f10611f5757610100808354040283529160200191611f82565b820191906000526020600020905b815481529060010190602001808311611f6557829003601f168201915b50505050508152602001600282018054611f9b906142bd565b80601f0160208091040260200160405190810160405280929190818152602001828054611fc7906142bd565b80156120145780601f10611fe957610100808354040283529160200191612014565b820191906000526020600020905b815481529060010190602001808311611ff757829003601f168201915b5050505050815260200160038201805461202d906142bd565b80601f0160208091040260200160405190810160405280929190818152602001828054612059906142bd565b80156120a65780601f1061207b576101008083540402835291602001916120a6565b820191906000526020600020905b81548152906001019060200180831161208957829003601f168201915b505050505081526020016004820180546120bf906142bd565b80601f01602080910402602001604051908101604052809291908181526020018280546120eb906142bd565b80156121385780601f1061210d57610100808354040283529160200191612138565b820191906000526020600020905b81548152906001019060200180831161211b57829003601f168201915b505050505081526020016005820160009054906101000a900460ff1615151515815260200160068201805461216c906142bd565b80601f0160208091040260200160405190810160405280929190818152602001828054612198906142bd565b80156121e55780601f106121ba576101008083540402835291602001916121e5565b820191906000526020600020905b8154815290600101906020018083116121c857829003601f168201915b505050505081526020016007820180546121fe906142bd565b80601f016020809104026020016040519081016040528092919081815260200182805461222a906142bd565b80156122775780601f1061224c57610100808354040283529160200191612277565b820191906000526020600020905b81548152906001019060200180831161225a57829003601f168201915b50505050508152602001600882018054612290906142bd565b80601f01602080910402602001604051908101604052809291908181526020018280546122bc906142bd565b80156123095780601f106122de57610100808354040283529160200191612309565b820191906000526020600020905b8154815290600101906020018083116122ec57829003601f168201915b50505050508152602001600982018054612322906142bd565b80601f016020809104026020016040519081016040528092919081815260200182805461234e906142bd565b801561239b5780601f106123705761010080835404028352916020019161239b565b820191906000526020600020905b81548152906001019060200180831161237e57829003601f168201915b50505050508152602001600a820160009054906101000a900460ff16151515158152602001600b820180546123cf906142bd565b80601f01602080910402602001604051908101604052809291908181526020018280546123fb906142bd565b80156124485780601f1061241d57610100808354040283529160200191612448565b820191906000526020600020905b81548152906001019060200180831161242b57829003601f168201915b50505050508152602001600c82018054612461906142bd565b80601f016020809104026020016040519081016040528092919081815260200182805461248d906142bd565b80156124da5780601f106124af576101008083540402835291602001916124da565b820191906000526020600020905b8154815290600101906020018083116124bd57829003601f168201915b50505050508152602001600d820180546124f3906142bd565b80601f016020809104026020016040519081016040528092919081815260200182805461251f906142bd565b801561256c5780601f106125415761010080835404028352916020019161256c565b820191906000526020600020905b81548152906001019060200180831161254f57829003601f168201915b50505050508152602001600e82018054612585906142bd565b80601f01602080910402602001604051908101604052809291908181526020018280546125b1906142bd565b80156125fe5780601f106125d3576101008083540402835291602001916125fe565b820191906000526020600020905b8154815290600101906020018083116125e157829003601f168201915b50505050508152602001600f82018054612617906142bd565b80601f0160208091040260200160405190810160405280929190818152602001828054612643906142bd565b80156126905780601f1061266557610100808354040283529160200191612690565b820191906000526020600020905b81548152906001019060200180831161267357829003601f168201915b505050505081526020016010820180546126a9906142bd565b80601f01602080910402602001604051908101604052809291908181526020018280546126d5906142bd565b80156127225780601f106126f757610100808354040283529160200191612722565b820191906000526020600020905b81548152906001019060200180831161270557829003601f168201915b5050505050815250508152602001601382015481526020016014820160009054906101000a900460ff16151515158152602001601582015481525050915050919050565b600081806002600083815260200190815260200160002060000154146127c1576040517f08c379a00000000000000000000000000000000000000000000000000000000081526004016127b89061437a565b60405180910390fd5b6000600260008581526020019081526020016000206040518060c0016040529081600082015481526020016001820160009054906101000a900473ffffffffffffffffffffffffffffffffffffffff1673ffffffffffffffffffffffffffffffffffffffff1673ffffffffffffffffffffffffffffffffffffffff1681526020016002820160405180610220016040529081600082018054612862906142bd565b80601f016020809104026020016040519081016040528092919081815260200182805461288e906142bd565b80156128db5780601f106128b0576101008083540402835291602001916128db565b820191906000526020600020905b8154815290600101906020018083116128be57829003601f168201915b505050505081526020016001820180546128f4906142bd565b80601f0160208091040260200160405190810160405280929190818152602001828054612920906142bd565b801561296d5780601f106129425761010080835404028352916020019161296d565b820191906000526020600020905b81548152906001019060200180831161295057829003601f168201915b50505050508152602001600282018054612986906142bd565b80601f01602080910402602001604051908101604052809291908181526020018280546129b2906142bd565b80156129ff5780601f106129d4576101008083540402835291602001916129ff565b820191906000526020600020905b8154815290600101906020018083116129e257829003601f168201915b50505050508152602001600382018054612a18906142bd565b80601f0160208091040260200160405190810160405280929190818152602001828054612a44906142bd565b8015612a915780601f10612a6657610100808354040283529160200191612a91565b820191906000526020600020905b815481529060010190602001808311612a7457829003601f168201915b50505050508152602001600482018054612aaa906142bd565b80601f0160208091040260200160405190810160405280929190818152602001828054612ad6906142bd565b8015612b235780601f10612af857610100808354040283529160200191612b23565b820191906000526020600020905b815481529060010190602001808311612b0657829003601f168201915b505050505081526020016005820160009054906101000a900460ff16151515158152602001600682018054612b57906142bd565b80601f0160208091040260200160405190810160405280929190818152602001828054612b83906142bd565b8015612bd05780601f10612ba557610100808354040283529160200191612bd0565b820191906000526020600020905b815481529060010190602001808311612bb357829003601f168201915b50505050508152602001600782018054612be9906142bd565b80601f0160208091040260200160405190810160405280929190818152602001828054612c15906142bd565b8015612c625780601f10612c3757610100808354040283529160200191612c62565b820191906000526020600020905b815481529060010190602001808311612c4557829003601f168201915b50505050508152602001600882018054612c7b906142bd565b80601f0160208091040260200160405190810160405280929190818152602001828054612ca7906142bd565b8015612cf45780601f10612cc957610100808354040283529160200191612cf4565b820191906000526020600020905b815481529060010190602001808311612cd757829003601f168201915b50505050508152602001600982018054612d0d906142bd565b80601f0160208091040260200160405190810160405280929190818152602001828054612d39906142bd565b8015612d865780601f10612d5b57610100808354040283529160200191612d86565b820191906000526020600020905b815481529060010190602001808311612d6957829003601f168201915b50505050508152602001600a820160009054906101000a900460ff16151515158152602001600b82018054612dba906142bd565b80601f0160208091040260200160405190810160405280929190818152602001828054612de6906142bd565b8015612e335780601f10612e0857610100808354040283529160200191612e33565b820191906000526020600020905b815481529060010190602001808311612e1657829003601f168201915b50505050508152602001600c82018054612e4c906142bd565b80601f0160208091040260200160405190810160405280929190818152602001828054612e78906142bd565b8015612ec55780601f10612e9a57610100808354040283529160200191612ec5565b820191906000526020600020905b815481529060010190602001808311612ea857829003601f168201915b50505050508152602001600d82018054612ede906142bd565b80601f0160208091040260200160405190810160405280929190818152602001828054612f0a906142bd565b8015612f575780601f10612f2c57610100808354040283529160200191612f57565b820191906000526020600020905b815481529060010190602001808311612f3a57829003601f168201915b50505050508152602001600e82018054612f70906142bd565b80601f0160208091040260200160405190810160405280929190818152602001828054612f9c906142bd565b8015612fe95780601f10612fbe57610100808354040283529160200191612fe9565b820191906000526020600020905b815481529060010190602001808311612fcc57829003601f168201915b50505050508152602001600f82018054613002906142bd565b80601f016020809104026020016040519081016040528092919081815260200182805461302e906142bd565b801561307b5780601f106130505761010080835404028352916020019161307b565b820191906000526020600020905b81548152906001019060200180831161305e57829003601f168201915b50505050508152602001601082018054613094906142bd565b80601f01602080910402602001604051908101604052809291908181526020018280546130c0906142bd565b801561310d5780601f106130e25761010080835404028352916020019161310d565b820191906000526020600020905b8154815290600101906020018083116130f057829003601f168201915b5050505050815250508152602001601382015481526020016014820160009054906101000a900460ff16151515158152602001601582015481525050905080608001511561315f576001925050613179565b620151808160a001516131729190614860565b4210159250505b50919050565b613187613205565b600073ffffffffffffffffffffffffffffffffffffffff168173ffffffffffffffffffffffffffffffffffffffff16036131f95760006040517f1e4fbdf70000000000000000000000000000000000000000000000000000000081526004016131f09190614109565b60405180910390fd5b6132028161328c565b50565b61320d613350565b73ffffffffffffffffffffffffffffffffffffffff1661322b611d1f565b73ffffffffffffffffffffffffffffffffffffffff161461328a5761324e613350565b6040517f118cdaa70000000000000000000000000000000000000000000000000000000081526004016132819190614109565b60405180910390fd5b565b60008060009054906101000a900473ffffffffffffffffffffffffffffffffffffffff169050816000806101000a81548173ffffffffffffffffffffffffffffffffffffffff021916908373ffffffffffffffffffffffffffffffffffffffff1602179055508173ffffffffffffffffffffffffffffffffffffffff168173ffffffffffffffffffffffffffffffffffffffff167f8be0079c531659141344cd1fd0a4f28419497f9722a3daafe3b4186f6b6457e060405160405180910390a35050565b600033905090565b6040518060c0016040528060008152602001600073ffffffffffffffffffffffffffffffffffffffff16815260200161338f6133ac565b815260200160008152602001600015158152602001600081525090565b6040518061022001604052806060815260200160608152602001606081526020016060815260200160608152602001600015158152602001606081526020016060815260200160608152602001606081526020016000151581526020016060815260200160608152602001606081526020016060815260200160608152602001606081525090565b600081519050919050565b600082825260208201905092915050565b6000819050602082019050919050565b6000819050919050565b61347381613460565b82525050565b600073ffffffffffffffffffffffffffffffffffffffff82169050919050565b60006134a482613479565b9050919050565b6134b481613499565b82525050565b600081519050919050565b600082825260208201905092915050565b60005b838110156134f45780820151818401526020810190506134d9565b60008484015250505050565b6000601f19601f8301169050919050565b600061351c826134ba565b61352681856134c5565b93506135368185602086016134d6565b61353f81613500565b840191505092915050565b60008115159050919050565b61355f8161354a565b82525050565b60006102208301600083015184820360008601526135838282613511565b9150506020830151848203602086015261359d8282613511565b915050604083015184820360408601526135b78282613511565b915050606083015184820360608601526135d18282613511565b915050608083015184820360808601526135eb8282613511565b91505060a083015161360060a0860182613556565b5060c083015184820360c08601526136188282613511565b91505060e083015184820360e08601526136328282613511565b91505061010083015184820361010086015261364e8282613511565b91505061012083015184820361012086015261366a8282613511565b915050610140830151613681610140860182613556565b5061016083015184820361016086015261369b8282613511565b9150506101808301518482036101808601526136b78282613511565b9150506101a08301518482036101a08601526136d38282613511565b9150506101c08301518482036101c08601526136ef8282613511565b9150506101e08301518482036101e086015261370b8282613511565b9150506102008301518482036102008601526137278282613511565b9150508091505092915050565b600060c08301600083015161374c600086018261346a565b50602083015161375f60208601826134ab565b50604083015184820360408601526137778282613565565b915050606083015161378c606086018261346a565b50608083015161379f6080860182613556565b5060a08301516137b260a086018261346a565b508091505092915050565b60006137c98383613734565b905092915050565b6000602082019050919050565b60006137e982613434565b6137f3818561343f565b93508360208202850161380585613450565b8060005b85811015613841578484038952815161382285826137bd565b945061382d836137d1565b925060208a01995050600181019050613809565b50829750879550505050505092915050565b6000602082019050818103600083015261386d81846137de565b905092915050565b6000604051905090565b600080fd5b600080fd5b61389281613460565b811461389d57600080fd5b50565b6000813590506138af81613889565b92915050565b600080fd5b600080fd5b7f4e487b7100000000000000000000000000000000000000000000000000000000600052604160045260246000fd5b6138f782613500565b810181811067ffffffffffffffff82111715613916576139156138bf565b5b80604052505050565b6000613929613875565b905061393582826138ee565b919050565b600067ffffffffffffffff821115613955576139546138bf565b5b61395e82613500565b9050602081019050919050565b82818337600083830152505050565b600061398d6139888461393a565b61391f565b9050828152602081018484840111156139a9576139a86138ba565b5b6139b484828561396b565b509392505050565b600082601f8301126139d1576139d06138b5565b5b81356139e184826020860161397a565b91505092915050565b60008060408385031215613a0157613a0061387f565b5b6000613a0f858286016138a0565b925050602083013567ffffffffffffffff811115613a3057613a2f613884565b5b613a3c858286016139bc565b9150509250929050565b613a4f81613499565b8114613a5a57600080fd5b50565b600081359050613a6c81613a46565b92915050565b600080fd5b600080fd5b613a858161354a565b8114613a9057600080fd5b50565b600081359050613aa281613a7c565b92915050565b60006102208284031215613abf57613abe613a72565b5b613aca61022061391f565b9050600082013567ffffffffffffffff811115613aea57613ae9613a77565b5b613af6848285016139bc565b600083015250602082013567ffffffffffffffff811115613b1a57613b19613a77565b5b613b26848285016139bc565b602083015250604082013567ffffffffffffffff811115613b4a57613b49613a77565b5b613b56848285016139bc565b604083015250606082013567ffffffffffffffff811115613b7a57613b79613a77565b5b613b86848285016139bc565b606083015250608082013567ffffffffffffffff811115613baa57613ba9613a77565b5b613bb6848285016139bc565b60808301525060a0613bca84828501613a93565b60a08301525060c082013567ffffffffffffffff811115613bee57613bed613a77565b5b613bfa848285016139bc565b60c08301525060e082013567ffffffffffffffff811115613c1e57613c1d613a77565b5b613c2a848285016139bc565b60e08301525061010082013567ffffffffffffffff811115613c4f57613c4e613a77565b5b613c5b848285016139bc565b6101008301525061012082013567ffffffffffffffff811115613c8157613c80613a77565b5b613c8d848285016139bc565b61012083015250610140613ca384828501613a93565b6101408301525061016082013567ffffffffffffffff811115613cc957613cc8613a77565b5b613cd5848285016139bc565b6101608301525061018082013567ffffffffffffffff811115613cfb57613cfa613a77565b5b613d07848285016139bc565b610180830152506101a082013567ffffffffffffffff811115613d2d57613d2c613a77565b5b613d39848285016139bc565b6101a0830152506101c082013567ffffffffffffffff811115613d5f57613d5e613a77565b5b613d6b848285016139bc565b6101c0830152506101e082013567ffffffffffffffff811115613d9157613d90613a77565b5b613d9d848285016139bc565b6101e08301525061020082013567ffffffffffffffff811115613dc357613dc2613a77565b5b613dcf848285016139bc565b6102008301525092915050565b60008060408385031215613df357613df261387f565b5b6000613e0185828601613a5d565b925050602083013567ffffffffffffffff811115613e2257613e21613884565b5b613e2e85828601613aa8565b9150509250929050565b60008060408385031215613e4f57613e4e61387f565b5b6000613e5d858286016138a0565b9250506020613e6e85828601613a5d565b9150509250929050565b600060208284031215613e8e57613e8d61387f565b5b6000613e9c848285016138a0565b91505092915050565b613eae81613460565b82525050565b613ebd81613499565b82525050565b6000610220830160008301518482036000860152613ee18282613511565b91505060208301518482036020860152613efb8282613511565b91505060408301518482036040860152613f158282613511565b91505060608301518482036060860152613f2f8282613511565b91505060808301518482036080860152613f498282613511565b91505060a0830151613f5e60a0860182613556565b5060c083015184820360c0860152613f768282613511565b91505060e083015184820360e0860152613f908282613511565b915050610100830151848203610100860152613fac8282613511565b915050610120830151848203610120860152613fc88282613511565b915050610140830151613fdf610140860182613556565b50610160830151848203610160860152613ff98282613511565b9150506101808301518482036101808601526140158282613511565b9150506101a08301518482036101a08601526140318282613511565b9150506101c08301518482036101c086015261404d8282613511565b9150506101e08301518482036101e08601526140698282613511565b9150506102008301518482036102008601526140858282613511565b9150508091505092915050565b61409b8161354a565b82525050565b600060c0820190506140b66000830189613ea5565b6140c36020830188613eb4565b81810360408301526140d58187613ec3565b90506140e46060830186613ea5565b6140f16080830185614092565b6140fe60a0830184613ea5565b979650505050505050565b600060208201905061411e6000830184613eb4565b92915050565b60006020820190506141396000830184614092565b92915050565b600060c083016000830151614157600086018261346a565b50602083015161416a60208601826134ab565b50604083015184820360408601526141828282613565565b9150506060830151614197606086018261346a565b5060808301516141aa6080860182613556565b5060a08301516141bd60a086018261346a565b508091505092915050565b600060208201905081810360008301526141e2818461413f565b905092915050565b600060208284031215614200576141ff61387f565b5b600061420e84828501613a5d565b91505092915050565b7f4e487b7100000000000000000000000000000000000000000000000000000000600052601160045260246000fd5b600061425182613460565b91507fffffffffffffffffffffffffffffffffffffffffffffffffffffffffffffffff820361428357614282614217565b5b600182019050919050565b7f4e487b7100000000000000000000000000000000000000000000000000000000600052602260045260246000fd5b600060028204905060018216806142d557607f821691505b6020821081036142e8576142e761428e565b5b50919050565b7f4e487b7100000000000000000000000000000000000000000000000000000000600052603260045260246000fd5b600082825260208201905092915050565b7f50726f6475637420646f6573206e6f7420657869737400000000000000000000600082015250565b600061436460168361431d565b915061436f8261432e565b602082019050919050565b6000602082019050818103600083015261439381614357565b9050919050565b7f4f6e6c79207468652070726f64756374206f776e65722063616e20706572666f60008201527f726d207468697320616374696f6e000000000000000000000000000000000000602082015250565b60006143f6602e8361431d565b91506144018261439a565b604082019050919050565b60006020820190508181036000830152614425816143e9565b9050919050565b60008190508160005260206000209050919050565b60006020601f8301049050919050565b600082821b905092915050565b60006008830261448e7fffffffffffffffffffffffffffffffffffffffffffffffffffffffffffffffff82614451565b6144988683614451565b95508019841693508086168417925050509392505050565b6000819050919050565b60006144d56144d06144cb84613460565b6144b0565b613460565b9050919050565b6000819050919050565b6144ef836144ba565b6145036144fb826144dc565b84845461445e565b825550505050565b600090565b61451861450b565b6145238184846144e6565b505050565b5b818110156145475761453c600082614510565b600181019050614529565b5050565b601f82111561458c5761455d8161442c565b61456684614441565b81016020851015614575578190505b61458961458185614441565b830182614528565b50505b505050565b600082821c905092915050565b60006145af60001984600802614591565b1980831691505092915050565b60006145c8838361459e565b9150826002028217905092915050565b6145e1826134ba565b67ffffffffffffffff8111156145fa576145f96138bf565b5b61460482546142bd565b61460f82828561454b565b600060209050601f8311600181146146425760008415614630578287015190505b61463a85826145bc565b8655506146a2565b601f1984166146508661442c565b60005b8281101561467857848901518255600182019150602085019450602081019050614653565b868310156146955784890151614691601f89168261459e565b8355505b6001600288020188555050505b505050505050565b60006146b5826134ba565b6146bf818561431d565b93506146cf8185602086016134d6565b6146d881613500565b840191505092915050565b600060208201905081810360008301526146fd81846146aa565b905092915050565b6000604082019050818103600083015261471f81856146aa565b9050818103602083015261473381846146aa565b90509392505050565b7f50726f64756374206f776e65722063616e6e6f74207570766f7465207468656960008201527f72206f776e2070726f6475637400000000000000000000000000000000000000602082015250565b6000614798602d8361431d565b91506147a38261473c565b604082019050919050565b600060208201905081810360008301526147c78161478b565b9050919050565b7f557365722068617320616c7265616479207570766f746564207468697320707260008201527f6f64756374000000000000000000000000000000000000000000000000000000602082015250565b600061482a60258361431d565b9150614835826147ce565b604082019050919050565b600060208201905081810360008301526148598161481d565b9050919050565b600061486b82613460565b915061487683613460565b925082820190508082111561488e5761488d614217565b5b9291505056fea26469706673582212203718f04938c58feb172026b24932469801fdd9371560d3ea756363d8acc5676064736f6c63430008180033",
  "linkReferences": {},
  "deployedLinkReferences": {}
}