{
  "_format": "hh-sol-artifact-1",
  "contractName": "Review",
  "sourceName": "contracts/Review.sol",
  "abi": [
    {
      "inputs": [
        {
          "internalType": "address",
          "name": "_productAddress",
          "type": "address"
        }
      ],
      "stateMutability": "nonpayable",
      "type": "constructor"
    },
    {
      "anonymous": false,
      "inputs": [
        {
          "indexed": true,
          "internalType": "uint256",
          "name": "productId",
          "type": "uint256"
        },
        {
          "indexed": true,
          "internalType": "address",
          "name": "reviewer",
          "type": "address"
        },
        {
          "indexed": false,
          "internalType": "string",
          "name": "content",
          "type": "string"
        },
        {
          "indexed": false,
          "internalType": "uint256",
          "name": "rating",
          "type": "uint256"
        }
      ],
      "name": "ReviewAdded",
      "type": "event"
    },
    {
      "inputs": [
        {
          "internalType": "address",
          "name": "_reviewer",
          "type": "address"
        },
        {
          "internalType": "uint256",
          "name": "_productId",
          "type": "uint256"
        },
        {
          "internalType": "string",
          "name": "_content",
          "type": "string"
        },
        {
          "internalType": "uint256",
          "name": "_rating",
          "type": "uint256"
        }
      ],
      "name": "addReview",
      "outputs": [],
      "stateMutability": "nonpayable",
      "type": "function"
    },
    {
      "inputs": [
        {
          "internalType": "uint256",
          "name": "_productId",
          "type": "uint256"
        },
        {
          "internalType": "uint256",
          "name": "_reviewId",
          "type": "uint256"
        }
      ],
      "name": "getReview",
      "outputs": [
        {
          "components": [
            {
              "internalType": "address",
              "name": "reviewer",
              "type": "address"
            },
            {
              "internalType": "string",
              "name": "content",
              "type": "string"
            },
            {
              "internalType": "uint256",
              "name": "rating",
              "type": "uint256"
            },
            {
              "internalType": "uint256",
              "name": "timestamp",
              "type": "uint256"
            }
          ],
          "internalType": "struct Review.ReviewInfo",
          "name": "",
          "type": "tuple"
        }
      ],
      "stateMutability": "view",
      "type": "function"
    },
    {
      "inputs": [
        {
          "internalType": "uint256",
          "name": "_productId",
          "type": "uint256"
        },
        {
          "internalType": "uint256",
          "name": "_reviewId",
          "type": "uint256"
        }
      ],
      "name": "getReviewer",
      "outputs": [
        {
          "internalType": "address",
          "name": "",
          "type": "address"
        }
      ],
      "stateMutability": "view",
      "type": "function"
    },
    {
      "inputs": [
        {
          "internalType": "uint256",
          "name": "_productId",
          "type": "uint256"
        }
      ],
      "name": "getReviews",
      "outputs": [
        {
          "components": [
            {
              "internalType": "address",
              "name": "reviewer",
              "type": "address"
            },
            {
              "internalType": "string",
              "name": "content",
              "type": "string"
            },
            {
              "internalType": "uint256",
              "name": "rating",
              "type": "uint256"
            },
            {
              "internalType": "uint256",
              "name": "timestamp",
              "type": "uint256"
            }
          ],
          "internalType": "struct Review.ReviewInfo[]",
          "name": "",
          "type": "tuple[]"
        }
      ],
      "stateMutability": "view",
      "type": "function"
    },
    {
      "inputs": [
        {
          "internalType": "uint256",
          "name": "_productId",
          "type": "uint256"
        }
      ],
      "name": "getReviewsCount",
      "outputs": [
        {
          "internalType": "uint256",
          "name": "",
          "type": "uint256"
        }
      ],
      "stateMutability": "view",
      "type": "function"
    }
  ],
  "bytecode": "0x60a06040523480156200001157600080fd5b5060405162001d1638038062001d168339818101604052810190620000379190620000dc565b8073ffffffffffffffffffffffffffffffffffffffff1660808173ffffffffffffffffffffffffffffffffffffffff1681525050506200010e565b600080fd5b600073ffffffffffffffffffffffffffffffffffffffff82169050919050565b6000620000a48262000077565b9050919050565b620000b68162000097565b8114620000c257600080fd5b50565b600081519050620000d681620000ab565b92915050565b600060208284031215620000f557620000f462000072565b5b60006200010584828501620000c5565b91505092915050565b608051611bd0620001466000396000818161013e015281816102dd01528181610599015281816107ec01526108f70152611bd06000f3fe608060405234801561001057600080fd5b50600436106100575760003560e01c80637376ccfd1461005c57806382bb560b1461008c5780639d4a2255146100a8578063dcfe3e08146100d8578063dfa505ed14610108575b600080fd5b61007660048036038101906100719190610bfd565b610138565b6040516100839190610c7e565b60405180910390f35b6100a660048036038101906100a19190610e0b565b6102d9565b005b6100c260048036038101906100bd9190610e8e565b610593565b6040516100cf919061107d565b60405180910390f35b6100f260048036038101906100ed9190610e8e565b6107e6565b6040516100ff91906110ae565b60405180910390f35b610122600480360381019061011d9190610bfd565b6108eb565b60405161012f919061112c565b60405180910390f35b600082807f000000000000000000000000000000000000000000000000000000000000000073ffffffffffffffffffffffffffffffffffffffff1663b9db15b4836040518263ffffffff1660e01b815260040161019591906110ae565b600060405180830381865afa1580156101b2573d6000803e3d6000fd5b505050506040513d6000823e3d601f19601f820116820180604052508101906101db919061161a565b600001511461021f576040517f08c379a0000000000000000000000000000000000000000000000000000000008152600401610216906116c0565b60405180910390fd5b8383600080838152602001908152602001600020805490508110610278576040517f08c379a000000000000000000000000000000000000000000000000000000000815260040161026f9061172c565b60405180910390fd5b600080878152602001908152602001600020858154811061029c5761029b61174c565b5b906000526020600020906004020160000160009054906101000a900473ffffffffffffffffffffffffffffffffffffffff16935050505092915050565b82807f000000000000000000000000000000000000000000000000000000000000000073ffffffffffffffffffffffffffffffffffffffff1663b9db15b4836040518263ffffffff1660e01b815260040161033491906110ae565b600060405180830381865afa158015610351573d6000803e3d6000fd5b505050506040513d6000823e3d601f19601f8201168201806040525081019061037a919061161a565b60000151146103be576040517f08c379a00000000000000000000000000000000000000000000000000000000081526004016103b5906116c0565b60405180910390fd5b816000811180156103d0575060058111155b61040f576040517f08c379a0000000000000000000000000000000000000000000000000000000008152600401610406906117c7565b60405180910390fd5b836000815111610454576040517f08c379a000000000000000000000000000000000000000000000000000000000815260040161044b90611833565b60405180910390fd5b60008087815260200190815260200160002060405180608001604052808973ffffffffffffffffffffffffffffffffffffffff16815260200187815260200186815260200142815250908060018154018082558091505060019003906000526020600020906004020160009091909190915060008201518160000160006101000a81548173ffffffffffffffffffffffffffffffffffffffff021916908373ffffffffffffffffffffffffffffffffffffffff16021790555060208201518160010190816105229190611a5f565b50604082015181600201556060820151816003015550508673ffffffffffffffffffffffffffffffffffffffff16867ff5b48fcd3f5e0ef5f6f5a50588fc666bda623b19888849dd6149681e96b637358787604051610582929190611b6a565b60405180910390a350505050505050565b606081807f000000000000000000000000000000000000000000000000000000000000000073ffffffffffffffffffffffffffffffffffffffff1663b9db15b4836040518263ffffffff1660e01b81526004016105f091906110ae565b600060405180830381865afa15801561060d573d6000803e3d6000fd5b505050506040513d6000823e3d601f19601f82011682018060405250810190610636919061161a565b600001511461067a576040517f08c379a0000000000000000000000000000000000000000000000000000000008152600401610671906116c0565b60405180910390fd5b600080848152602001908152602001600020805480602002602001604051908101604052809291908181526020016000905b828210156107da57838290600052602060002090600402016040518060800160405290816000820160009054906101000a900473ffffffffffffffffffffffffffffffffffffffff1673ffffffffffffffffffffffffffffffffffffffff1673ffffffffffffffffffffffffffffffffffffffff16815260200160018201805461073590611882565b80601f016020809104026020016040519081016040528092919081815260200182805461076190611882565b80156107ae5780601f10610783576101008083540402835291602001916107ae565b820191906000526020600020905b81548152906001019060200180831161079157829003601f168201915b5050505050815260200160028201548152602001600382015481525050815260200190600101906106ac565b50505050915050919050565b600081807f000000000000000000000000000000000000000000000000000000000000000073ffffffffffffffffffffffffffffffffffffffff1663b9db15b4836040518263ffffffff1660e01b815260040161084391906110ae565b600060405180830381865afa158015610860573d6000803e3d6000fd5b505050506040513d6000823e3d601f19601f82011682018060405250810190610889919061161a565b60000151146108cd576040517f08c379a00000000000000000000000000000000000000000000000000000000081526004016108c4906116c0565b60405180910390fd5b60008084815260200190815260200160002080549050915050919050565b6108f3610b75565b82807f000000000000000000000000000000000000000000000000000000000000000073ffffffffffffffffffffffffffffffffffffffff1663b9db15b4836040518263ffffffff1660e01b815260040161094e91906110ae565b600060405180830381865afa15801561096b573d6000803e3d6000fd5b505050506040513d6000823e3d601f19601f82011682018060405250810190610994919061161a565b60000151146109d8576040517f08c379a00000000000000000000000000000000000000000000000000000000081526004016109cf906116c0565b60405180910390fd5b8383600080838152602001908152602001600020805490508110610a31576040517f08c379a0000000000000000000000000000000000000000000000000000000008152600401610a289061172c565b60405180910390fd5b6000808781526020019081526020016000208581548110610a5557610a5461174c565b5b90600052602060002090600402016040518060800160405290816000820160009054906101000a900473ffffffffffffffffffffffffffffffffffffffff1673ffffffffffffffffffffffffffffffffffffffff1673ffffffffffffffffffffffffffffffffffffffff168152602001600182018054610ad490611882565b80601f0160208091040260200160405190810160405280929190818152602001828054610b0090611882565b8015610b4d5780601f10610b2257610100808354040283529160200191610b4d565b820191906000526020600020905b815481529060010190602001808311610b3057829003601f168201915b5050505050815260200160028201548152602001600382015481525050935050505092915050565b6040518060800160405280600073ffffffffffffffffffffffffffffffffffffffff1681526020016060815260200160008152602001600081525090565b6000604051905090565b600080fd5b600080fd5b6000819050919050565b610bda81610bc7565b8114610be557600080fd5b50565b600081359050610bf781610bd1565b92915050565b60008060408385031215610c1457610c13610bbd565b5b6000610c2285828601610be8565b9250506020610c3385828601610be8565b9150509250929050565b600073ffffffffffffffffffffffffffffffffffffffff82169050919050565b6000610c6882610c3d565b9050919050565b610c7881610c5d565b82525050565b6000602082019050610c936000830184610c6f565b92915050565b610ca281610c5d565b8114610cad57600080fd5b50565b600081359050610cbf81610c99565b92915050565b600080fd5b600080fd5b6000601f19601f8301169050919050565b7f4e487b7100000000000000000000000000000000000000000000000000000000600052604160045260246000fd5b610d1882610ccf565b810181811067ffffffffffffffff82111715610d3757610d36610ce0565b5b80604052505050565b6000610d4a610bb3565b9050610d568282610d0f565b919050565b600067ffffffffffffffff821115610d7657610d75610ce0565b5b610d7f82610ccf565b9050602081019050919050565b82818337600083830152505050565b6000610dae610da984610d5b565b610d40565b905082815260208101848484011115610dca57610dc9610cca565b5b610dd5848285610d8c565b509392505050565b600082601f830112610df257610df1610cc5565b5b8135610e02848260208601610d9b565b91505092915050565b60008060008060808587031215610e2557610e24610bbd565b5b6000610e3387828801610cb0565b9450506020610e4487828801610be8565b935050604085013567ffffffffffffffff811115610e6557610e64610bc2565b5b610e7187828801610ddd565b9250506060610e8287828801610be8565b91505092959194509250565b600060208284031215610ea457610ea3610bbd565b5b6000610eb284828501610be8565b91505092915050565b600081519050919050565b600082825260208201905092915050565b6000819050602082019050919050565b610ef081610c5d565b82525050565b600081519050919050565b600082825260208201905092915050565b60005b83811015610f30578082015181840152602081019050610f15565b60008484015250505050565b6000610f4782610ef6565b610f518185610f01565b9350610f61818560208601610f12565b610f6a81610ccf565b840191505092915050565b610f7e81610bc7565b82525050565b6000608083016000830151610f9c6000860182610ee7565b5060208301518482036020860152610fb48282610f3c565b9150506040830151610fc96040860182610f75565b506060830151610fdc6060860182610f75565b508091505092915050565b6000610ff38383610f84565b905092915050565b6000602082019050919050565b600061101382610ebb565b61101d8185610ec6565b93508360208202850161102f85610ed7565b8060005b8581101561106b578484038952815161104c8582610fe7565b945061105783610ffb565b925060208a01995050600181019050611033565b50829750879550505050505092915050565b600060208201905081810360008301526110978184611008565b905092915050565b6110a881610bc7565b82525050565b60006020820190506110c3600083018461109f565b92915050565b60006080830160008301516110e16000860182610ee7565b50602083015184820360208601526110f98282610f3c565b915050604083015161110e6040860182610f75565b5060608301516111216060860182610f75565b508091505092915050565b6000602082019050818103600083015261114681846110c9565b905092915050565b600080fd5b600080fd5b60008151905061116781610bd1565b92915050565b60008151905061117c81610c99565b92915050565b600061119561119084610d5b565b610d40565b9050828152602081018484840111156111b1576111b0610cca565b5b6111bc848285610f12565b509392505050565b600082601f8301126111d9576111d8610cc5565b5b81516111e9848260208601611182565b91505092915050565b60008115159050919050565b611207816111f2565b811461121257600080fd5b50565b600081519050611224816111fe565b92915050565b600061022082840312156112415761124061114e565b5b61124c610220610d40565b9050600082015167ffffffffffffffff81111561126c5761126b611153565b5b611278848285016111c4565b600083015250602082015167ffffffffffffffff81111561129c5761129b611153565b5b6112a8848285016111c4565b602083015250604082015167ffffffffffffffff8111156112cc576112cb611153565b5b6112d8848285016111c4565b604083015250606082015167ffffffffffffffff8111156112fc576112fb611153565b5b611308848285016111c4565b606083015250608082015167ffffffffffffffff81111561132c5761132b611153565b5b611338848285016111c4565b60808301525060a061134c84828501611215565b60a08301525060c082015167ffffffffffffffff8111156113705761136f611153565b5b61137c848285016111c4565b60c08301525060e082015167ffffffffffffffff8111156113a05761139f611153565b5b6113ac848285016111c4565b60e08301525061010082015167ffffffffffffffff8111156113d1576113d0611153565b5b6113dd848285016111c4565b6101008301525061012082015167ffffffffffffffff81111561140357611402611153565b5b61140f848285016111c4565b6101208301525061014061142584828501611215565b6101408301525061016082015167ffffffffffffffff81111561144b5761144a611153565b5b611457848285016111c4565b6101608301525061018082015167ffffffffffffffff81111561147d5761147c611153565b5b611489848285016111c4565b610180830152506101a082015167ffffffffffffffff8111156114af576114ae611153565b5b6114bb848285016111c4565b6101a0830152506101c082015167ffffffffffffffff8111156114e1576114e0611153565b5b6114ed848285016111c4565b6101c0830152506101e082015167ffffffffffffffff81111561151357611512611153565b5b61151f848285016111c4565b6101e08301525061020082015167ffffffffffffffff81111561154557611544611153565b5b611551848285016111c4565b6102008301525092915050565b600060c082840312156115745761157361114e565b5b61157e60c0610d40565b9050600061158e84828501611158565b60008301525060206115a28482850161116d565b602083015250604082015167ffffffffffffffff8111156115c6576115c5611153565b5b6115d28482850161122a565b60408301525060606115e684828501611158565b60608301525060806115fa84828501611215565b60808301525060a061160e84828501611158565b60a08301525092915050565b6000602082840312156116305761162f610bbd565b5b600082015167ffffffffffffffff81111561164e5761164d610bc2565b5b61165a8482850161155e565b91505092915050565b600082825260208201905092915050565b7f50726f6475637420646f6573206e6f7420657869737400000000000000000000600082015250565b60006116aa601683611663565b91506116b582611674565b602082019050919050565b600060208201905081810360008301526116d98161169d565b9050919050565b7f52657669657720646f6573206e6f742065786973740000000000000000000000600082015250565b6000611716601583611663565b9150611721826116e0565b602082019050919050565b6000602082019050818103600083015261174581611709565b9050919050565b7f4e487b7100000000000000000000000000000000000000000000000000000000600052603260045260246000fd5b7f526174696e67206d757374206265206265747765656e203120616e6420350000600082015250565b60006117b1601e83611663565b91506117bc8261177b565b602082019050919050565b600060208201905081810360008301526117e0816117a4565b9050919050565b7f52657669657720636f6e74656e742063616e6e6f7420626520656d7074790000600082015250565b600061181d601e83611663565b9150611828826117e7565b602082019050919050565b6000602082019050818103600083015261184c81611810565b9050919050565b7f4e487b7100000000000000000000000000000000000000000000000000000000600052602260045260246000fd5b6000600282049050600182168061189a57607f821691505b6020821081036118ad576118ac611853565b5b50919050565b60008190508160005260206000209050919050565b60006020601f8301049050919050565b600082821b905092915050565b6000600883026119157fffffffffffffffffffffffffffffffffffffffffffffffffffffffffffffffff826118d8565b61191f86836118d8565b95508019841693508086168417925050509392505050565b6000819050919050565b600061195c61195761195284610bc7565b611937565b610bc7565b9050919050565b6000819050919050565b61197683611941565b61198a61198282611963565b8484546118e5565b825550505050565b600090565b61199f611992565b6119aa81848461196d565b505050565b5b818110156119ce576119c3600082611997565b6001810190506119b0565b5050565b601f821115611a13576119e4816118b3565b6119ed846118c8565b810160208510156119fc578190505b611a10611a08856118c8565b8301826119af565b50505b505050565b600082821c905092915050565b6000611a3660001984600802611a18565b1980831691505092915050565b6000611a4f8383611a25565b9150826002028217905092915050565b611a6882610ef6565b67ffffffffffffffff811115611a8157611a80610ce0565b5b611a8b8254611882565b611a968282856119d2565b600060209050601f831160018114611ac95760008415611ab7578287015190505b611ac18582611a43565b865550611b29565b601f198416611ad7866118b3565b60005b82811015611aff57848901518255600182019150602085019450602081019050611ada565b86831015611b1c5784890151611b18601f891682611a25565b8355505b6001600288020188555050505b505050505050565b6000611b3c82610ef6565b611b468185611663565b9350611b56818560208601610f12565b611b5f81610ccf565b840191505092915050565b60006040820190508181036000830152611b848185611b31565b9050611b93602083018461109f565b939250505056fea2646970667358221220e171b8038b43c6916777c1634499d062e25a367d488f9fe0b3592bedbb118baa64736f6c63430008180033",
  "linkReferences": {},
  "deployedLinkReferences": {}
}