{
  "_format": "hh-sol-artifact-1",
  "contractName": "UserInfo",
  "sourceName": "contracts/UserInfo.sol",
  "abi": [
    {
      "anonymous": false,
      "inputs": [
        {
          "indexed": true,
          "internalType": "address",
          "name": "userAddress",
          "type": "address"
        },
        {
          "indexed": false,
          "internalType": "string",
          "name": "username",
          "type": "string"
        }
      ],
      "name": "UserAdded",
      "type": "event"
    },
    {
      "anonymous": false,
      "inputs": [
        {
          "indexed": true,
          "internalType": "address",
          "name": "userAddress",
          "type": "address"
        }
      ],
      "name": "UserDeleted",
      "type": "event"
    },
    {
      "anonymous": false,
      "inputs": [
        {
          "indexed": true,
          "internalType": "address",
          "name": "userAddress",
          "type": "address"
        },
        {
          "indexed": false,
          "internalType": "string[]",
          "name": "interests",
          "type": "string[]"
        }
      ],
      "name": "UserInterestsUpdated",
      "type": "event"
    },
    {
      "anonymous": false,
      "inputs": [
        {
          "indexed": true,
          "internalType": "address",
          "name": "userAddress",
          "type": "address"
        },
        {
          "indexed": false,
          "internalType": "string",
          "name": "username",
          "type": "string"
        }
      ],
      "name": "UserUpdated",
      "type": "event"
    },
    {
      "inputs": [
        {
          "internalType": "address",
          "name": "userAddress",
          "type": "address"
        },
        {
          "internalType": "string",
          "name": "username",
          "type": "string"
        },
        {
          "internalType": "string",
          "name": "email",
          "type": "string"
        },
        {
          "internalType": "string",
          "name": "bio",
          "type": "string"
        },
        {
          "internalType": "string[]",
          "name": "interests",
          "type": "string[]"
        }
      ],
      "name": "addUser",
      "outputs": [],
      "stateMutability": "nonpayable",
      "type": "function"
    },
    {
      "inputs": [
        {
          "internalType": "address",
          "name": "userAddress",
          "type": "address"
        }
      ],
      "name": "deleteUser",
      "outputs": [],
      "stateMutability": "nonpayable",
      "type": "function"
    },
    {
      "inputs": [],
      "name": "getAllUsernamesAddressesAndEmails",
      "outputs": [
        {
          "internalType": "string[]",
          "name": "usernames",
          "type": "string[]"
        },
        {
          "internalType": "address[]",
          "name": "addresses",
          "type": "address[]"
        },
        {
          "internalType": "string[]",
          "name": "emails",
          "type": "string[]"
        }
      ],
      "stateMutability": "view",
      "type": "function"
    },
    {
      "inputs": [],
      "name": "getAllUsers",
      "outputs": [
        {
          "components": [
            {
              "internalType": "string",
              "name": "username",
              "type": "string"
            },
            {
              "internalType": "string",
              "name": "email",
              "type": "string"
            },
            {
              "internalType": "string",
              "name": "bio",
              "type": "string"
            },
            {
              "internalType": "string[]",
              "name": "interests",
              "type": "string[]"
            }
          ],
          "internalType": "struct UserInfo.User[]",
          "name": "",
          "type": "tuple[]"
        }
      ],
      "stateMutability": "view",
      "type": "function"
    },
    {
      "inputs": [
        {
          "internalType": "address",
          "name": "userAddress",
          "type": "address"
        }
      ],
      "name": "getUser",
      "outputs": [
        {
          "internalType": "string",
          "name": "username",
          "type": "string"
        },
        {
          "internalType": "string",
          "name": "email",
          "type": "string"
        },
        {
          "internalType": "string",
          "name": "bio",
          "type": "string"
        },
        {
          "internalType": "string[]",
          "name": "interests",
          "type": "string[]"
        }
      ],
      "stateMutability": "view",
      "type": "function"
    },
    {
      "inputs": [
        {
          "internalType": "address",
          "name": "userAddress",
          "type": "address"
        }
      ],
      "name": "getUserByAddress",
      "outputs": [
        {
          "internalType": "string",
          "name": "username",
          "type": "string"
        },
        {
          "internalType": "string",
          "name": "email",
          "type": "string"
        },
        {
          "internalType": "string",
          "name": "bio",
          "type": "string"
        },
        {
          "internalType": "string[]",
          "name": "interests",
          "type": "string[]"
        }
      ],
      "stateMutability": "view",
      "type": "function"
    },
    {
      "inputs": [
        {
          "internalType": "string",
          "name": "userEmail",
          "type": "string"
        }
      ],
      "name": "getUserByEmail",
      "outputs": [
        {
          "internalType": "string",
          "name": "username",
          "type": "string"
        },
        {
          "internalType": "string",
          "name": "email",
          "type": "string"
        },
        {
          "internalType": "string",
          "name": "bio",
          "type": "string"
        },
        {
          "internalType": "string[]",
          "name": "interests",
          "type": "string[]"
        }
      ],
      "stateMutability": "view",
      "type": "function"
    },
    {
      "inputs": [
        {
          "internalType": "address",
          "name": "userAddress",
          "type": "address"
        }
      ],
      "name": "getUserInterests",
      "outputs": [
        {
          "internalType": "string[]",
          "name": "interests",
          "type": "string[]"
        }
      ],
      "stateMutability": "view",
      "type": "function"
    },
    {
      "inputs": [
        {
          "internalType": "address",
          "name": "userAddress",
          "type": "address"
        },
        {
          "internalType": "string",
          "name": "username",
          "type": "string"
        },
        {
          "internalType": "string",
          "name": "email",
          "type": "string"
        },
        {
          "internalType": "string",
          "name": "bio",
          "type": "string"
        }
      ],
      "name": "updateUser",
      "outputs": [],
      "stateMutability": "nonpayable",
      "type": "function"
    },
    {
      "inputs": [
        {
          "internalType": "address",
          "name": "userAddress",
          "type": "address"
        },
        {
          "internalType": "string[]",
          "name": "interests",
          "type": "string[]"
        }
      ],
      "name": "updateUserInterests",
      "outputs": [],
      "stateMutability": "nonpayable",
      "type": "function"
    },
    {
      "inputs": [
        {
          "internalType": "address",
          "name": "userAddress",
          "type": "address"
        }
      ],
      "name": "userExists",
      "outputs": [
        {
          "internalType": "bool",
          "name": "",
          "type": "bool"
        }
      ],
      "stateMutability": "view",
      "type": "function"
    }
  ],
  "bytecode": "0x608060405234801561001057600080fd5b506136a0806100206000396000f3fe608060405234801561001057600080fd5b50600436106100a95760003560e01c806369c212f61161007157806369c212f6146101695780636f77926b1461019c5780637d8494bc146101cf578063e2842d79146101ff578063ef0c886d1461021d578063f78ca67214610239576100a9565b80630da4578b146100ae5780630e666e49146100ca57806318046ae1146100fa5780632030e8c21461012d5780635c60f2261461014d575b600080fd5b6100c860048036038101906100c39190612630565b610255565b005b6100e460048036038101906100df91906126eb565b610656565b6040516100f19190612733565b60405180910390f35b610114600480360381019061010f919061274e565b6106af565b6040516101249493929190612922565b60405180910390f35b610135610a41565b60405161014493929190612a41565b60405180910390f35b610167600480360381019061016291906126eb565b610d85565b005b610183600480360381019061017e91906126eb565b6110e6565b6040516101939493929190612922565b60405180910390f35b6101b660048036038101906101b191906126eb565b611455565b6040516101c69493929190612922565b60405180910390f35b6101e960048036038101906101e491906126eb565b6117c6565b6040516101f69190612a8d565b60405180910390f35b610207611972565b6040516102149190612c6f565b60405180910390f35b61023760048036038101906102329190612d77565b611d31565b005b610253600480360381019061024e9190612e62565b61217b565b005b8360008060008373ffffffffffffffffffffffffffffffffffffffff1673ffffffffffffffffffffffffffffffffffffffff16815260200190815260200160002060000180546102a490612eed565b9050116102e6576040517f08c379a00000000000000000000000000000000000000000000000000000000081526004016102dd90612f6a565b60405180910390fd5b82600581511180156102f9575060648151105b610338576040517f08c379a000000000000000000000000000000000000000000000000000000000815260040161032f90612fd6565b60405180910390fd5b610341816122bb565b610380576040517f08c379a000000000000000000000000000000000000000000000000000000000815260040161037790613042565b60405180910390fd5b8460028151118015610393575060328151105b6103d2576040517f08c379a00000000000000000000000000000000000000000000000000000000081526004016103c9906130ae565b60405180910390fd5b836101f4815110610418576040517f08c379a000000000000000000000000000000000000000000000000000000000815260040161040f9061311a565b60405180910390fd5b85600073ffffffffffffffffffffffffffffffffffffffff166001826040516104419190613176565b908152602001604051809103902060009054906101000a900473ffffffffffffffffffffffffffffffffffffffff1673ffffffffffffffffffffffffffffffffffffffff16146104c6576040517f08c379a00000000000000000000000000000000000000000000000000000000081526004016104bd906131d9565b60405180910390fd5b60008060008b73ffffffffffffffffffffffffffffffffffffffff1673ffffffffffffffffffffffffffffffffffffffff1681526020019081526020016000209050600060018260010160405161051d9190613291565b908152602001604051809103902060006101000a81548173ffffffffffffffffffffffffffffffffffffffff021916908373ffffffffffffffffffffffffffffffffffffffff1602179055508881600001908161057a9190613449565b508781600101908161058c9190613449565b508681600201908161059e9190613449565b50896001896040516105b09190613176565b908152602001604051809103902060006101000a81548173ffffffffffffffffffffffffffffffffffffffff021916908373ffffffffffffffffffffffffffffffffffffffff1602179055508973ffffffffffffffffffffffffffffffffffffffff167fd6136f3cad7c60bfc24bbf1548f39f766ca8bce104bf9adde3deb6237dec51df8a604051610642919061351b565b60405180910390a250505050505050505050565b6000806000808473ffffffffffffffffffffffffffffffffffffffff1673ffffffffffffffffffffffffffffffffffffffff16815260200190815260200160002060000180546106a590612eed565b9050119050919050565b60608060608060006001866040516106c79190613176565b908152602001604051809103902060009054906101000a900473ffffffffffffffffffffffffffffffffffffffff169050600073ffffffffffffffffffffffffffffffffffffffff168173ffffffffffffffffffffffffffffffffffffffff1603610767576040517f08c379a000000000000000000000000000000000000000000000000000000000815260040161075e90612f6a565b60405180910390fd5b60008060008373ffffffffffffffffffffffffffffffffffffffff1673ffffffffffffffffffffffffffffffffffffffff1681526020019081526020016000209050806000018160010182600201836003018380546107c590612eed565b80601f01602080910402602001604051908101604052809291908181526020018280546107f190612eed565b801561083e5780601f106108135761010080835404028352916020019161083e565b820191906000526020600020905b81548152906001019060200180831161082157829003601f168201915b5050505050935082805461085190612eed565b80601f016020809104026020016040519081016040528092919081815260200182805461087d90612eed565b80156108ca5780601f1061089f576101008083540402835291602001916108ca565b820191906000526020600020905b8154815290600101906020018083116108ad57829003601f168201915b505050505092508180546108dd90612eed565b80601f016020809104026020016040519081016040528092919081815260200182805461090990612eed565b80156109565780601f1061092b57610100808354040283529160200191610956565b820191906000526020600020905b81548152906001019060200180831161093957829003601f168201915b5050505050915080805480602002602001604051908101604052809291908181526020016000905b82821015610a2a57838290600052602060002001805461099d90612eed565b80601f01602080910402602001604051908101604052809291908181526020018280546109c990612eed565b8015610a165780601f106109eb57610100808354040283529160200191610a16565b820191906000526020600020905b8154815290600101906020018083116109f957829003601f168201915b50505050508152602001906001019061097e565b505050509050955095509550955050509193509193565b6060806060600060028054905090508067ffffffffffffffff811115610a6a57610a69612505565b5b604051908082528060200260200182016040528015610a9d57816020015b6060815260200190600190039081610a885790505b5093508067ffffffffffffffff811115610aba57610ab9612505565b5b604051908082528060200260200182016040528015610ae85781602001602082028036833780820191505090505b5092508067ffffffffffffffff811115610b0557610b04612505565b5b604051908082528060200260200182016040528015610b3857816020015b6060815260200190600190039081610b235790505b50915060005b81811015610d7e57600060028281548110610b5c57610b5b61353d565b5b9060005260206000200160009054906101000a900473ffffffffffffffffffffffffffffffffffffffff16905060008060008373ffffffffffffffffffffffffffffffffffffffff1673ffffffffffffffffffffffffffffffffffffffff1681526020019081526020016000209050806000018054610bda90612eed565b80601f0160208091040260200160405190810160405280929190818152602001828054610c0690612eed565b8015610c535780601f10610c2857610100808354040283529160200191610c53565b820191906000526020600020905b815481529060010190602001808311610c3657829003601f168201915b5050505050878481518110610c6b57610c6a61353d565b5b602002602001018190525081868481518110610c8a57610c8961353d565b5b602002602001019073ffffffffffffffffffffffffffffffffffffffff16908173ffffffffffffffffffffffffffffffffffffffff1681525050806001018054610cd390612eed565b80601f0160208091040260200160405190810160405280929190818152602001828054610cff90612eed565b8015610d4c5780601f10610d2157610100808354040283529160200191610d4c565b820191906000526020600020905b815481529060010190602001808311610d2f57829003601f168201915b5050505050858481518110610d6457610d6361353d565b5b602002602001018190525050508080600101915050610b3e565b5050909192565b8060008060008373ffffffffffffffffffffffffffffffffffffffff1673ffffffffffffffffffffffffffffffffffffffff1681526020019081526020016000206000018054610dd490612eed565b905011610e16576040517f08c379a0000000000000000000000000000000000000000000000000000000008152600401610e0d90612f6a565b60405180910390fd5b60016000808473ffffffffffffffffffffffffffffffffffffffff1673ffffffffffffffffffffffffffffffffffffffff168152602001908152602001600020600101604051610e669190613291565b908152602001604051809103902060006101000a81549073ffffffffffffffffffffffffffffffffffffffff02191690556000808373ffffffffffffffffffffffffffffffffffffffff1673ffffffffffffffffffffffffffffffffffffffff16815260200190815260200160002060008082016000610ee69190612355565b600182016000610ef69190612355565b600282016000610f069190612355565b600382016000610f169190612395565b505060005b60028054905081101561109e578273ffffffffffffffffffffffffffffffffffffffff1660028281548110610f5357610f5261353d565b5b9060005260206000200160009054906101000a900473ffffffffffffffffffffffffffffffffffffffff1673ffffffffffffffffffffffffffffffffffffffff16036110915760026001600280549050610fad919061359b565b81548110610fbe57610fbd61353d565b5b9060005260206000200160009054906101000a900473ffffffffffffffffffffffffffffffffffffffff1660028281548110610ffd57610ffc61353d565b5b9060005260206000200160006101000a81548173ffffffffffffffffffffffffffffffffffffffff021916908373ffffffffffffffffffffffffffffffffffffffff1602179055506002805480611057576110566135cf565b5b6001900381819060005260206000200160006101000a81549073ffffffffffffffffffffffffffffffffffffffff0219169055905561109e565b8080600101915050610f1b565b508173ffffffffffffffffffffffffffffffffffffffff167f4bc56f1321288dfb5b416cb3a7fd188723979f9e866c91d88eccf7fca039d03960405160405180910390a25050565b60608060608060008060008773ffffffffffffffffffffffffffffffffffffffff1673ffffffffffffffffffffffffffffffffffffffff168152602001908152602001600020600001805461113a90612eed565b90501161117c576040517f08c379a000000000000000000000000000000000000000000000000000000000815260040161117390612f6a565b60405180910390fd5b60008060008773ffffffffffffffffffffffffffffffffffffffff1673ffffffffffffffffffffffffffffffffffffffff1681526020019081526020016000209050806000018160010182600201836003018380546111da90612eed565b80601f016020809104026020016040519081016040528092919081815260200182805461120690612eed565b80156112535780601f1061122857610100808354040283529160200191611253565b820191906000526020600020905b81548152906001019060200180831161123657829003601f168201915b5050505050935082805461126690612eed565b80601f016020809104026020016040519081016040528092919081815260200182805461129290612eed565b80156112df5780601f106112b4576101008083540402835291602001916112df565b820191906000526020600020905b8154815290600101906020018083116112c257829003601f168201915b505050505092508180546112f290612eed565b80601f016020809104026020016040519081016040528092919081815260200182805461131e90612eed565b801561136b5780601f106113405761010080835404028352916020019161136b565b820191906000526020600020905b81548152906001019060200180831161134e57829003601f168201915b5050505050915080805480602002602001604051908101604052809291908181526020016000905b8282101561143f5783829060005260206000200180546113b290612eed565b80601f01602080910402602001604051908101604052809291908181526020018280546113de90612eed565b801561142b5780601f106114005761010080835404028352916020019161142b565b820191906000526020600020905b81548152906001019060200180831161140e57829003601f168201915b505050505081526020019060010190611393565b5050505090509450945094509450509193509193565b6060806060808460008060008373ffffffffffffffffffffffffffffffffffffffff1673ffffffffffffffffffffffffffffffffffffffff16815260200190815260200160002060000180546114aa90612eed565b9050116114ec576040517f08c379a00000000000000000000000000000000000000000000000000000000081526004016114e390612f6a565b60405180910390fd5b60008060008873ffffffffffffffffffffffffffffffffffffffff1673ffffffffffffffffffffffffffffffffffffffff16815260200190815260200160002090508060000181600101826002018360030183805461154a90612eed565b80601f016020809104026020016040519081016040528092919081815260200182805461157690612eed565b80156115c35780601f10611598576101008083540402835291602001916115c3565b820191906000526020600020905b8154815290600101906020018083116115a657829003601f168201915b505050505093508280546115d690612eed565b80601f016020809104026020016040519081016040528092919081815260200182805461160290612eed565b801561164f5780601f106116245761010080835404028352916020019161164f565b820191906000526020600020905b81548152906001019060200180831161163257829003601f168201915b5050505050925081805461166290612eed565b80601f016020809104026020016040519081016040528092919081815260200182805461168e90612eed565b80156116db5780601f106116b0576101008083540402835291602001916116db565b820191906000526020600020905b8154815290600101906020018083116116be57829003601f168201915b5050505050915080805480602002602001604051908101604052809291908181526020016000905b828210156117af57838290600052602060002001805461172290612eed565b80601f016020809104026020016040519081016040528092919081815260200182805461174e90612eed565b801561179b5780601f106117705761010080835404028352916020019161179b565b820191906000526020600020905b81548152906001019060200180831161177e57829003601f168201915b505050505081526020019060010190611703565b505050509050955095509550955050509193509193565b60608160008060008373ffffffffffffffffffffffffffffffffffffffff1673ffffffffffffffffffffffffffffffffffffffff168152602001908152602001600020600001805461181790612eed565b905011611859576040517f08c379a000000000000000000000000000000000000000000000000000000000815260040161185090612f6a565b60405180910390fd5b6000808473ffffffffffffffffffffffffffffffffffffffff1673ffffffffffffffffffffffffffffffffffffffff168152602001908152602001600020600301805480602002602001604051908101604052809291908181526020016000905b828210156119665783829060005260206000200180546118d990612eed565b80601f016020809104026020016040519081016040528092919081815260200182805461190590612eed565b80156119525780601f1061192757610100808354040283529160200191611952565b820191906000526020600020905b81548152906001019060200180831161193557829003601f168201915b5050505050815260200190600101906118ba565b50505050915050919050565b60606000600280549050905060008167ffffffffffffffff81111561199a57611999612505565b5b6040519080825280602002602001820160405280156119d357816020015b6119c06123b6565b8152602001906001900390816119b85790505b50905060005b82811015611d28576000600282815481106119f7576119f661353d565b5b9060005260206000200160009054906101000a900473ffffffffffffffffffffffffffffffffffffffff1690506000808273ffffffffffffffffffffffffffffffffffffffff1673ffffffffffffffffffffffffffffffffffffffff168152602001908152602001600020604051806080016040529081600082018054611a7d90612eed565b80601f0160208091040260200160405190810160405280929190818152602001828054611aa990612eed565b8015611af65780601f10611acb57610100808354040283529160200191611af6565b820191906000526020600020905b815481529060010190602001808311611ad957829003601f168201915b50505050508152602001600182018054611b0f90612eed565b80601f0160208091040260200160405190810160405280929190818152602001828054611b3b90612eed565b8015611b885780601f10611b5d57610100808354040283529160200191611b88565b820191906000526020600020905b815481529060010190602001808311611b6b57829003601f168201915b50505050508152602001600282018054611ba190612eed565b80601f0160208091040260200160405190810160405280929190818152602001828054611bcd90612eed565b8015611c1a5780601f10611bef57610100808354040283529160200191611c1a565b820191906000526020600020905b815481529060010190602001808311611bfd57829003601f168201915b5050505050815260200160038201805480602002602001604051908101604052809291908181526020016000905b82821015611cf4578382906000526020600020018054611c6790612eed565b80601f0160208091040260200160405190810160405280929190818152602001828054611c9390612eed565b8015611ce05780601f10611cb557610100808354040283529160200191611ce0565b820191906000526020600020905b815481529060010190602001808311611cc357829003601f168201915b505050505081526020019060010190611c48565b5050505081525050838381518110611d0f57611d0e61353d565b5b60200260200101819052505080806001019150506119d9565b50809250505090565b8260058151118015611d44575060648151105b611d83576040517f08c379a0000000000000000000000000000000000000000000000000000000008152600401611d7a90612fd6565b60405180910390fd5b611d8c816122bb565b611dcb576040517f08c379a0000000000000000000000000000000000000000000000000000000008152600401611dc290613042565b60405180910390fd5b8460028151118015611dde575060328151105b611e1d576040517f08c379a0000000000000000000000000000000000000000000000000000000008152600401611e14906130ae565b60405180910390fd5b836101f4815110611e63576040517f08c379a0000000000000000000000000000000000000000000000000000000008152600401611e5a9061311a565b60405180910390fd5b85600073ffffffffffffffffffffffffffffffffffffffff16600182604051611e8c9190613176565b908152602001604051809103902060009054906101000a900473ffffffffffffffffffffffffffffffffffffffff1673ffffffffffffffffffffffffffffffffffffffff1614611f11576040517f08c379a0000000000000000000000000000000000000000000000000000000008152600401611f08906131d9565b60405180910390fd5b60008060008b73ffffffffffffffffffffffffffffffffffffffff1673ffffffffffffffffffffffffffffffffffffffff1681526020019081526020016000206000018054611f5f90612eed565b905014611fa1576040517f08c379a0000000000000000000000000000000000000000000000000000000008152600401611f989061364a565b60405180910390fd5b6040518060800160405280898152602001888152602001878152602001868152506000808b73ffffffffffffffffffffffffffffffffffffffff1673ffffffffffffffffffffffffffffffffffffffff16815260200190815260200160002060008201518160000190816120159190613449565b50602082015181600101908161202b9190613449565b5060408201518160020190816120419190613449565b50606082015181600301908051906020019061205e9291906123de565b50905050886001886040516120739190613176565b908152602001604051809103902060006101000a81548173ffffffffffffffffffffffffffffffffffffffff021916908373ffffffffffffffffffffffffffffffffffffffff1602179055506002899080600181540180825580915050600190039060005260206000200160009091909190916101000a81548173ffffffffffffffffffffffffffffffffffffffff021916908373ffffffffffffffffffffffffffffffffffffffff1602179055508873ffffffffffffffffffffffffffffffffffffffff167fa56e21173460286ea98fc3defc7671b9b8e2ff0c6acea8d6ed30b343724e23fa89604051612168919061351b565b60405180910390a2505050505050505050565b8160008060008373ffffffffffffffffffffffffffffffffffffffff1673ffffffffffffffffffffffffffffffffffffffff16815260200190815260200160002060000180546121ca90612eed565b90501161220c576040517f08c379a000000000000000000000000000000000000000000000000000000000815260040161220390612f6a565b60405180910390fd5b60008060008573ffffffffffffffffffffffffffffffffffffffff1673ffffffffffffffffffffffffffffffffffffffff1681526020019081526020016000209050828160030190805190602001906122669291906123de565b508373ffffffffffffffffffffffffffffffffffffffff167f10d4a05fe562c87eeb724c04dacfc6b6a0e63b80cd3ddf42d58bb51058aaacda846040516122ad9190612a8d565b60405180910390a250505050565b6000808290506000805b825181101561234a577f40000000000000000000000000000000000000000000000000000000000000008382815181106123025761230161353d565b5b602001015160f81c60f81b7effffffffffffffffffffffffffffffffffffffffffffffffffffffffffffff19160361233d576001915061234a565b80806001019150506122c5565b508092505050919050565b50805461236190612eed565b6000825580601f106123735750612392565b601f0160209004906000526020600020908101906123919190612437565b5b50565b50805460008255906000526020600020908101906123b39190612454565b50565b6040518060800160405280606081526020016060815260200160608152602001606081525090565b828054828255906000526020600020908101928215612426579160200282015b828111156124255782518290816124159190613449565b50916020019190600101906123fe565b5b5090506124339190612454565b5090565b5b80821115612450576000816000905550600101612438565b5090565b5b80821115612474576000818161246b9190612355565b50600101612455565b5090565b6000604051905090565b600080fd5b600080fd5b600073ffffffffffffffffffffffffffffffffffffffff82169050919050565b60006124b78261248c565b9050919050565b6124c7816124ac565b81146124d257600080fd5b50565b6000813590506124e4816124be565b92915050565b600080fd5b600080fd5b6000601f19601f8301169050919050565b7f4e487b7100000000000000000000000000000000000000000000000000000000600052604160045260246000fd5b61253d826124f4565b810181811067ffffffffffffffff8211171561255c5761255b612505565b5b80604052505050565b600061256f612478565b905061257b8282612534565b919050565b600067ffffffffffffffff82111561259b5761259a612505565b5b6125a4826124f4565b9050602081019050919050565b82818337600083830152505050565b60006125d36125ce84612580565b612565565b9050828152602081018484840111156125ef576125ee6124ef565b5b6125fa8482856125b1565b509392505050565b600082601f830112612617576126166124ea565b5b81356126278482602086016125c0565b91505092915050565b6000806000806080858703121561264a57612649612482565b5b6000612658878288016124d5565b945050602085013567ffffffffffffffff81111561267957612678612487565b5b61268587828801612602565b935050604085013567ffffffffffffffff8111156126a6576126a5612487565b5b6126b287828801612602565b925050606085013567ffffffffffffffff8111156126d3576126d2612487565b5b6126df87828801612602565b91505092959194509250565b60006020828403121561270157612700612482565b5b600061270f848285016124d5565b91505092915050565b60008115159050919050565b61272d81612718565b82525050565b60006020820190506127486000830184612724565b92915050565b60006020828403121561276457612763612482565b5b600082013567ffffffffffffffff81111561278257612781612487565b5b61278e84828501612602565b91505092915050565b600081519050919050565b600082825260208201905092915050565b60005b838110156127d15780820151818401526020810190506127b6565b60008484015250505050565b60006127e882612797565b6127f281856127a2565b93506128028185602086016127b3565b61280b816124f4565b840191505092915050565b600081519050919050565b600082825260208201905092915050565b6000819050602082019050919050565b600082825260208201905092915050565b600061285e82612797565b6128688185612842565b93506128788185602086016127b3565b612881816124f4565b840191505092915050565b60006128988383612853565b905092915050565b6000602082019050919050565b60006128b882612816565b6128c28185612821565b9350836020820285016128d485612832565b8060005b8581101561291057848403895281516128f1858261288c565b94506128fc836128a0565b925060208a019950506001810190506128d8565b50829750879550505050505092915050565b6000608082019050818103600083015261293c81876127dd565b9050818103602083015261295081866127dd565b9050818103604083015261296481856127dd565b9050818103606083015261297881846128ad565b905095945050505050565b600081519050919050565b600082825260208201905092915050565b6000819050602082019050919050565b6129b8816124ac565b82525050565b60006129ca83836129af565b60208301905092915050565b6000602082019050919050565b60006129ee82612983565b6129f8818561298e565b9350612a038361299f565b8060005b83811015612a34578151612a1b88826129be565b9750612a26836129d6565b925050600181019050612a07565b5085935050505092915050565b60006060820190508181036000830152612a5b81866128ad565b90508181036020830152612a6f81856129e3565b90508181036040830152612a8381846128ad565b9050949350505050565b60006020820190508181036000830152612aa781846128ad565b905092915050565b600081519050919050565b600082825260208201905092915050565b6000819050602082019050919050565b600082825260208201905092915050565b6000612af782612816565b612b018185612adb565b935083602082028501612b1385612832565b8060005b85811015612b4f5784840389528151612b30858261288c565b9450612b3b836128a0565b925060208a01995050600181019050612b17565b50829750879550505050505092915050565b60006080830160008301518482036000860152612b7e8282612853565b91505060208301518482036020860152612b988282612853565b91505060408301518482036040860152612bb28282612853565b91505060608301518482036060860152612bcc8282612aec565b9150508091505092915050565b6000612be58383612b61565b905092915050565b6000602082019050919050565b6000612c0582612aaf565b612c0f8185612aba565b935083602082028501612c2185612acb565b8060005b85811015612c5d5784840389528151612c3e8582612bd9565b9450612c4983612bed565b925060208a01995050600181019050612c25565b50829750879550505050505092915050565b60006020820190508181036000830152612c898184612bfa565b905092915050565b600067ffffffffffffffff821115612cac57612cab612505565b5b602082029050602081019050919050565b600080fd5b6000612cd5612cd084612c91565b612565565b90508083825260208201905060208402830185811115612cf857612cf7612cbd565b5b835b81811015612d3f57803567ffffffffffffffff811115612d1d57612d1c6124ea565b5b808601612d2a8982612602565b85526020850194505050602081019050612cfa565b5050509392505050565b600082601f830112612d5e57612d5d6124ea565b5b8135612d6e848260208601612cc2565b91505092915050565b600080600080600060a08688031215612d9357612d92612482565b5b6000612da1888289016124d5565b955050602086013567ffffffffffffffff811115612dc257612dc1612487565b5b612dce88828901612602565b945050604086013567ffffffffffffffff811115612def57612dee612487565b5b612dfb88828901612602565b935050606086013567ffffffffffffffff811115612e1c57612e1b612487565b5b612e2888828901612602565b925050608086013567ffffffffffffffff811115612e4957612e48612487565b5b612e5588828901612d49565b9150509295509295909350565b60008060408385031215612e7957612e78612482565b5b6000612e87858286016124d5565b925050602083013567ffffffffffffffff811115612ea857612ea7612487565b5b612eb485828601612d49565b9150509250929050565b7f4e487b7100000000000000000000000000000000000000000000000000000000600052602260045260246000fd5b60006002820490506001821680612f0557607f821691505b602082108103612f1857612f17612ebe565b5b50919050565b7f5573657220646f6573206e6f7420657869737400000000000000000000000000600082015250565b6000612f546013836127a2565b9150612f5f82612f1e565b602082019050919050565b60006020820190508181036000830152612f8381612f47565b9050919050565b7f496e76616c696420656d61696c206c656e677468000000000000000000000000600082015250565b6000612fc06014836127a2565b9150612fcb82612f8a565b602082019050919050565b60006020820190508181036000830152612fef81612fb3565b9050919050565b7f496e76616c696420656d61696c20666f726d6174000000000000000000000000600082015250565b600061302c6014836127a2565b915061303782612ff6565b602082019050919050565b6000602082019050818103600083015261305b8161301f565b9050919050565b7f496e76616c696420757365726e616d65206c656e677468000000000000000000600082015250565b60006130986017836127a2565b91506130a382613062565b602082019050919050565b600060208201905081810360008301526130c78161308b565b9050919050565b7f42696f20746f6f206c6f6e670000000000000000000000000000000000000000600082015250565b6000613104600c836127a2565b915061310f826130ce565b602082019050919050565b60006020820190508181036000830152613133816130f7565b9050919050565b600081905092915050565b600061315082612797565b61315a818561313a565b935061316a8185602086016127b3565b80840191505092915050565b60006131828284613145565b915081905092915050565b7f456d61696c20616c726561647920757365640000000000000000000000000000600082015250565b60006131c36012836127a2565b91506131ce8261318d565b602082019050919050565b600060208201905081810360008301526131f2816131b6565b9050919050565b60008190508160005260206000209050919050565b6000815461321b81612eed565b613225818661313a565b94506001821660008114613240576001811461325557613288565b60ff1983168652811515820286019350613288565b61325e856131f9565b60005b8381101561328057815481890152600182019150602081019050613261565b838801955050505b50505092915050565b600061329d828461320e565b915081905092915050565b60006020601f8301049050919050565b600082821b905092915050565b6000600883026132f57fffffffffffffffffffffffffffffffffffffffffffffffffffffffffffffffff826132b8565b6132ff86836132b8565b95508019841693508086168417925050509392505050565b6000819050919050565b6000819050919050565b600061334661334161333c84613317565b613321565b613317565b9050919050565b6000819050919050565b6133608361332b565b61337461336c8261334d565b8484546132c5565b825550505050565b600090565b61338961337c565b613394818484613357565b505050565b5b818110156133b8576133ad600082613381565b60018101905061339a565b5050565b601f8211156133fd576133ce816131f9565b6133d7846132a8565b810160208510156133e6578190505b6133fa6133f2856132a8565b830182613399565b50505b505050565b600082821c905092915050565b600061342060001984600802613402565b1980831691505092915050565b6000613439838361340f565b9150826002028217905092915050565b61345282612797565b67ffffffffffffffff81111561346b5761346a612505565b5b6134758254612eed565b6134808282856133bc565b600060209050601f8311600181146134b357600084156134a1578287015190505b6134ab858261342d565b865550613513565b601f1984166134c1866131f9565b60005b828110156134e9578489015182556001820191506020850194506020810190506134c4565b868310156135065784890151613502601f89168261340f565b8355505b6001600288020188555050505b505050505050565b6000602082019050818103600083015261353581846127dd565b905092915050565b7f4e487b7100000000000000000000000000000000000000000000000000000000600052603260045260246000fd5b7f4e487b7100000000000000000000000000000000000000000000000000000000600052601160045260246000fd5b60006135a682613317565b91506135b183613317565b92508282039050818111156135c9576135c861356c565b5b92915050565b7f4e487b7100000000000000000000000000000000000000000000000000000000600052603160045260246000fd5b7f5573657220616c72656164792065786973747300000000000000000000000000600082015250565b60006136346013836127a2565b915061363f826135fe565b602082019050919050565b6000602082019050818103600083015261366381613627565b905091905056fea264697066735822122071b514126e2cf7d935c0c129a316679ac66fa0f2b1e0d56e3ad2aeb604f8392264736f6c63430008180033",
  "linkReferences": {},
  "deployedLinkReferences": {}
}