{
  "_format": "hh-sol-artifact-1",
  "contractName": "ProductFindr",
  "sourceName": "contracts/ProductFindr.sol",
  "abi": [
    {
      "inputs": [
        {
          "internalType": "address",
          "name": "_productAddress",
          "type": "address"
        },
        {
          "internalType": "address",
          "name": "_commentAddress",
          "type": "address"
        },
        {
          "internalType": "address",
          "name": "_reviewAddress",
          "type": "address"
        },
        {
          "internalType": "address",
          "name": "initialOwner",
          "type": "address"
        }
      ],
      "stateMutability": "nonpayable",
      "type": "constructor"
    },
    {
      "inputs": [
        {
          "internalType": "address",
          "name": "owner",
          "type": "address"
        }
      ],
      "name": "OwnableInvalidOwner",
      "type": "error"
    },
    {
      "inputs": [
        {
          "internalType": "address",
          "name": "account",
          "type": "address"
        }
      ],
      "name": "OwnableUnauthorizedAccount",
      "type": "error"
    },
    {
      "anonymous": false,
      "inputs": [
        {
          "indexed": true,
          "internalType": "address",
          "name": "previousOwner",
          "type": "address"
        },
        {
          "indexed": true,
          "internalType": "address",
          "name": "newOwner",
          "type": "address"
        }
      ],
      "name": "OwnershipTransferred",
      "type": "event"
    },
    {
      "anonymous": false,
      "inputs": [
        {
          "indexed": true,
          "internalType": "address",
          "name": "user",
          "type": "address"
        },
        {
          "indexed": false,
          "internalType": "uint256",
          "name": "reputation",
          "type": "uint256"
        }
      ],
      "name": "UserReputationUpdated",
      "type": "event"
    },
    {
      "inputs": [
        {
          "internalType": "address",
          "name": "_reviewer",
          "type": "address"
        },
        {
          "internalType": "uint256",
          "name": "_productId",
          "type": "uint256"
        },
        {
          "internalType": "string",
          "name": "_content",
          "type": "string"
        },
        {
          "internalType": "uint256",
          "name": "_rating",
          "type": "uint256"
        }
      ],
      "name": "addReview",
      "outputs": [],
      "stateMutability": "nonpayable",
      "type": "function"
    },
    {
      "inputs": [
        {
          "internalType": "uint256",
          "name": "_productId",
          "type": "uint256"
        },
        {
          "internalType": "string",
          "name": "_content",
          "type": "string"
        }
      ],
      "name": "commentOnProduct",
      "outputs": [],
      "stateMutability": "nonpayable",
      "type": "function"
    },
    {
      "inputs": [
        {
          "internalType": "uint256",
          "name": "_productId",
          "type": "uint256"
        },
        {
          "internalType": "uint256",
          "name": "_commentId",
          "type": "uint256"
        }
      ],
      "name": "getComment",
      "outputs": [
        {
          "components": [
            {
              "internalType": "address",
              "name": "commenter",
              "type": "address"
            },
            {
              "internalType": "string",
              "name": "content",
              "type": "string"
            },
            {
              "internalType": "uint256",
              "name": "timestamp",
              "type": "uint256"
            }
          ],
          "internalType": "struct Comment.CommentInfo",
          "name": "",
          "type": "tuple"
        }
      ],
      "stateMutability": "view",
      "type": "function"
    },
    {
      "inputs": [
        {
          "internalType": "uint256",
          "name": "_productId",
          "type": "uint256"
        },
        {
          "internalType": "uint256",
          "name": "_commentId",
          "type": "uint256"
        }
      ],
      "name": "getCommenter",
      "outputs": [
        {
          "internalType": "address",
          "name": "",
          "type": "address"
        }
      ],
      "stateMutability": "view",
      "type": "function"
    },
    {
      "inputs": [
        {
          "internalType": "uint256",
          "name": "_productId",
          "type": "uint256"
        }
      ],
      "name": "getComments",
      "outputs": [
        {
          "components": [
            {
              "internalType": "address",
              "name": "commenter",
              "type": "address"
            },
            {
              "internalType": "string",
              "name": "content",
              "type": "string"
            },
            {
              "internalType": "uint256",
              "name": "timestamp",
              "type": "uint256"
            }
          ],
          "internalType": "struct Comment.CommentInfo[]",
          "name": "",
          "type": "tuple[]"
        }
      ],
      "stateMutability": "view",
      "type": "function"
    },
    {
      "inputs": [
        {
          "internalType": "uint256",
          "name": "_productId",
          "type": "uint256"
        }
      ],
      "name": "getCommentsCount",
      "outputs": [
        {
          "internalType": "uint256",
          "name": "",
          "type": "uint256"
        }
      ],
      "stateMutability": "view",
      "type": "function"
    },
    {
      "inputs": [],
      "name": "getListedProducts",
      "outputs": [
        {
          "components": [
            {
              "internalType": "uint256",
              "name": "id",
              "type": "uint256"
            },
            {
              "internalType": "address",
              "name": "owner",
              "type": "address"
            },
            {
              "components": [
                {
                  "internalType": "string",
                  "name": "productName",
                  "type": "string"
                },
                {
                  "internalType": "string",
                  "name": "tagLine",
                  "type": "string"
                },
                {
                  "internalType": "string",
                  "name": "productLink",
                  "type": "string"
                },
                {
                  "internalType": "string",
                  "name": "twitterLink",
                  "type": "string"
                },
                {
                  "internalType": "string",
                  "name": "description",
                  "type": "string"
                },
                {
                  "internalType": "bool",
                  "name": "isOpenSource",
                  "type": "bool"
                },
                {
                  "internalType": "string",
                  "name": "category",
                  "type": "string"
                },
                {
                  "internalType": "string",
                  "name": "thumbNail",
                  "type": "string"
                },
                {
                  "internalType": "string",
                  "name": "mediaFile",
                  "type": "string"
                },
                {
                  "internalType": "string",
                  "name": "loomLink",
                  "type": "string"
                },
                {
                  "internalType": "bool",
                  "name": "workedWithTeam",
                  "type": "bool"
                },
                {
                  "internalType": "string",
                  "name": "teamMembersInput",
                  "type": "string"
                },
                {
                  "internalType": "string",
                  "name": "pricingOption",
                  "type": "string"
                },
                {
                  "internalType": "string",
                  "name": "offer",
                  "type": "string"
                },
                {
                  "internalType": "string",
                  "name": "promoCode",
                  "type": "string"
                },
                {
                  "internalType": "string",
                  "name": "expirationDate",
                  "type": "string"
                },
                {
                  "internalType": "string",
                  "name": "betaTestingLink",
                  "type": "string"
                }
              ],
              "internalType": "struct Product.ProductDetails",
              "name": "details",
              "type": "tuple"
            },
            {
              "internalType": "uint256",
              "name": "upvotes",
              "type": "uint256"
            },
            {
              "internalType": "bool",
              "name": "betaTestingAvailable",
              "type": "bool"
            },
            {
              "internalType": "uint256",
              "name": "timestamp",
              "type": "uint256"
            }
          ],
          "internalType": "struct Product.ProductInfo[]",
          "name": "",
          "type": "tuple[]"
        }
      ],
      "stateMutability": "view",
      "type": "function"
    },
    {
      "inputs": [],
      "name": "getListedProductsAvailable",
      "outputs": [
        {
          "components": [
            {
              "internalType": "uint256",
              "name": "id",
              "type": "uint256"
            },
            {
              "internalType": "address",
              "name": "owner",
              "type": "address"
            },
            {
              "components": [
                {
                  "internalType": "string",
                  "name": "productName",
                  "type": "string"
                },
                {
                  "internalType": "string",
                  "name": "tagLine",
                  "type": "string"
                },
                {
                  "internalType": "string",
                  "name": "productLink",
                  "type": "string"
                },
                {
                  "internalType": "string",
                  "name": "twitterLink",
                  "type": "string"
                },
                {
                  "internalType": "string",
                  "name": "description",
                  "type": "string"
                },
                {
                  "internalType": "bool",
                  "name": "isOpenSource",
                  "type": "bool"
                },
                {
                  "internalType": "string",
                  "name": "category",
                  "type": "string"
                },
                {
                  "internalType": "string",
                  "name": "thumbNail",
                  "type": "string"
                },
                {
                  "internalType": "string",
                  "name": "mediaFile",
                  "type": "string"
                },
                {
                  "internalType": "string",
                  "name": "loomLink",
                  "type": "string"
                },
                {
                  "internalType": "bool",
                  "name": "workedWithTeam",
                  "type": "bool"
                },
                {
                  "internalType": "string",
                  "name": "teamMembersInput",
                  "type": "string"
                },
                {
                  "internalType": "string",
                  "name": "pricingOption",
                  "type": "string"
                },
                {
                  "internalType": "string",
                  "name": "offer",
                  "type": "string"
                },
                {
                  "internalType": "string",
                  "name": "promoCode",
                  "type": "string"
                },
                {
                  "internalType": "string",
                  "name": "expirationDate",
                  "type": "string"
                },
                {
                  "internalType": "string",
                  "name": "betaTestingLink",
                  "type": "string"
                }
              ],
              "internalType": "struct Product.ProductDetails",
              "name": "details",
              "type": "tuple"
            },
            {
              "internalType": "uint256",
              "name": "upvotes",
              "type": "uint256"
            },
            {
              "internalType": "bool",
              "name": "betaTestingAvailable",
              "type": "bool"
            },
            {
              "internalType": "uint256",
              "name": "timestamp",
              "type": "uint256"
            }
          ],
          "internalType": "struct Product.ProductInfo[]",
          "name": "",
          "type": "tuple[]"
        }
      ],
      "stateMutability": "view",
      "type": "function"
    },
    {
      "inputs": [
        {
          "internalType": "uint256",
          "name": "_productId",
          "type": "uint256"
        }
      ],
      "name": "getProduct",
      "outputs": [
        {
          "components": [
            {
              "internalType": "uint256",
              "name": "id",
              "type": "uint256"
            },
            {
              "internalType": "address",
              "name": "owner",
              "type": "address"
            },
            {
              "components": [
                {
                  "internalType": "string",
                  "name": "productName",
                  "type": "string"
                },
                {
                  "internalType": "string",
                  "name": "tagLine",
                  "type": "string"
                },
                {
                  "internalType": "string",
                  "name": "productLink",
                  "type": "string"
                },
                {
                  "internalType": "string",
                  "name": "twitterLink",
                  "type": "string"
                },
                {
                  "internalType": "string",
                  "name": "description",
                  "type": "string"
                },
                {
                  "internalType": "bool",
                  "name": "isOpenSource",
                  "type": "bool"
                },
                {
                  "internalType": "string",
                  "name": "category",
                  "type": "string"
                },
                {
                  "internalType": "string",
                  "name": "thumbNail",
                  "type": "string"
                },
                {
                  "internalType": "string",
                  "name": "mediaFile",
                  "type": "string"
                },
                {
                  "internalType": "string",
                  "name": "loomLink",
                  "type": "string"
                },
                {
                  "internalType": "bool",
                  "name": "workedWithTeam",
                  "type": "bool"
                },
                {
                  "internalType": "string",
                  "name": "teamMembersInput",
                  "type": "string"
                },
                {
                  "internalType": "string",
                  "name": "pricingOption",
                  "type": "string"
                },
                {
                  "internalType": "string",
                  "name": "offer",
                  "type": "string"
                },
                {
                  "internalType": "string",
                  "name": "promoCode",
                  "type": "string"
                },
                {
                  "internalType": "string",
                  "name": "expirationDate",
                  "type": "string"
                },
                {
                  "internalType": "string",
                  "name": "betaTestingLink",
                  "type": "string"
                }
              ],
              "internalType": "struct Product.ProductDetails",
              "name": "details",
              "type": "tuple"
            },
            {
              "internalType": "uint256",
              "name": "upvotes",
              "type": "uint256"
            },
            {
              "internalType": "bool",
              "name": "betaTestingAvailable",
              "type": "bool"
            },
            {
              "internalType": "uint256",
              "name": "timestamp",
              "type": "uint256"
            }
          ],
          "internalType": "struct Product.ProductInfo",
          "name": "",
          "type": "tuple"
        }
      ],
      "stateMutability": "view",
      "type": "function"
    },
    {
      "inputs": [
        {
          "internalType": "uint256",
          "name": "_productId",
          "type": "uint256"
        },
        {
          "internalType": "uint256",
          "name": "_reviewId",
          "type": "uint256"
        }
      ],
      "name": "getReview",
      "outputs": [
        {
          "components": [
            {
              "internalType": "address",
              "name": "reviewer",
              "type": "address"
            },
            {
              "internalType": "string",
              "name": "content",
              "type": "string"
            },
            {
              "internalType": "uint256",
              "name": "rating",
              "type": "uint256"
            },
            {
              "internalType": "uint256",
              "name": "timestamp",
              "type": "uint256"
            }
          ],
          "internalType": "struct Review.ReviewInfo",
          "name": "",
          "type": "tuple"
        }
      ],
      "stateMutability": "view",
      "type": "function"
    },
    {
      "inputs": [
        {
          "internalType": "uint256",
          "name": "_productId",
          "type": "uint256"
        },
        {
          "internalType": "uint256",
          "name": "_reviewId",
          "type": "uint256"
        }
      ],
      "name": "getReviewer",
      "outputs": [
        {
          "internalType": "address",
          "name": "",
          "type": "address"
        }
      ],
      "stateMutability": "view",
      "type": "function"
    },
    {
      "inputs": [
        {
          "internalType": "uint256",
          "name": "_productId",
          "type": "uint256"
        }
      ],
      "name": "getReviews",
      "outputs": [
        {
          "components": [
            {
              "internalType": "address",
              "name": "reviewer",
              "type": "address"
            },
            {
              "internalType": "string",
              "name": "content",
              "type": "string"
            },
            {
              "internalType": "uint256",
              "name": "rating",
              "type": "uint256"
            },
            {
              "internalType": "uint256",
              "name": "timestamp",
              "type": "uint256"
            }
          ],
          "internalType": "struct Review.ReviewInfo[]",
          "name": "",
          "type": "tuple[]"
        }
      ],
      "stateMutability": "view",
      "type": "function"
    },
    {
      "inputs": [
        {
          "internalType": "uint256",
          "name": "_productId",
          "type": "uint256"
        }
      ],
      "name": "getReviewsCount",
      "outputs": [
        {
          "internalType": "uint256",
          "name": "",
          "type": "uint256"
        }
      ],
      "stateMutability": "view",
      "type": "function"
    },
    {
      "inputs": [],
      "name": "owner",
      "outputs": [
        {
          "internalType": "address",
          "name": "",
          "type": "address"
        }
      ],
      "stateMutability": "view",
      "type": "function"
    },
    {
      "inputs": [
        {
          "internalType": "address",
          "name": "_owner",
          "type": "address"
        },
        {
          "components": [
            {
              "internalType": "string",
              "name": "productName",
              "type": "string"
            },
            {
              "internalType": "string",
              "name": "tagLine",
              "type": "string"
            },
            {
              "internalType": "string",
              "name": "productLink",
              "type": "string"
            },
            {
              "internalType": "string",
              "name": "twitterLink",
              "type": "string"
            },
            {
              "internalType": "string",
              "name": "description",
              "type": "string"
            },
            {
              "internalType": "bool",
              "name": "isOpenSource",
              "type": "bool"
            },
            {
              "internalType": "string",
              "name": "category",
              "type": "string"
            },
            {
              "internalType": "string",
              "name": "thumbNail",
              "type": "string"
            },
            {
              "internalType": "string",
              "name": "mediaFile",
              "type": "string"
            },
            {
              "internalType": "string",
              "name": "loomLink",
              "type": "string"
            },
            {
              "internalType": "bool",
              "name": "workedWithTeam",
              "type": "bool"
            },
            {
              "internalType": "string",
              "name": "teamMembersInput",
              "type": "string"
            },
            {
              "internalType": "string",
              "name": "pricingOption",
              "type": "string"
            },
            {
              "internalType": "string",
              "name": "offer",
              "type": "string"
            },
            {
              "internalType": "string",
              "name": "promoCode",
              "type": "string"
            },
            {
              "internalType": "string",
              "name": "expirationDate",
              "type": "string"
            },
            {
              "internalType": "string",
              "name": "betaTestingLink",
              "type": "string"
            }
          ],
          "internalType": "struct Product.ProductDetails",
          "name": "details",
          "type": "tuple"
        }
      ],
      "name": "registerProduct",
      "outputs": [],
      "stateMutability": "nonpayable",
      "type": "function"
    },
    {
      "inputs": [],
      "name": "renounceOwnership",
      "outputs": [],
      "stateMutability": "nonpayable",
      "type": "function"
    },
    {
      "inputs": [
        {
          "internalType": "address",
          "name": "newOwner",
          "type": "address"
        }
      ],
      "name": "transferOwnership",
      "outputs": [],
      "stateMutability": "nonpayable",
      "type": "function"
    },
    {
      "inputs": [
        {
          "internalType": "uint256",
          "name": "_productId",
          "type": "uint256"
        },
        {
          "internalType": "address",
          "name": "_upvoter",
          "type": "address"
        }
      ],
      "name": "upvoteProduct",
      "outputs": [],
      "stateMutability": "nonpayable",
      "type": "function"
    },
    {
      "inputs": [
        {
          "internalType": "address",
          "name": "",
          "type": "address"
        }
      ],
      "name": "userReputation",
      "outputs": [
        {
          "internalType": "uint256",
          "name": "",
          "type": "uint256"
        }
      ],
      "stateMutability": "view",
      "type": "function"
    }
  ],
  "bytecode": "0x60806040523480156200001157600080fd5b5060405162003a1e38038062003a1e8339818101604052810190620000379190620002ba565b80600073ffffffffffffffffffffffffffffffffffffffff168173ffffffffffffffffffffffffffffffffffffffff1603620000ad5760006040517f1e4fbdf7000000000000000000000000000000000000000000000000000000008152600401620000a491906200033d565b60405180910390fd5b620000be816200018c60201b60201c565b5083600160006101000a81548173ffffffffffffffffffffffffffffffffffffffff021916908373ffffffffffffffffffffffffffffffffffffffff16021790555082600260006101000a81548173ffffffffffffffffffffffffffffffffffffffff021916908373ffffffffffffffffffffffffffffffffffffffff16021790555081600360006101000a81548173ffffffffffffffffffffffffffffffffffffffff021916908373ffffffffffffffffffffffffffffffffffffffff160217905550505050506200035a565b60008060009054906101000a900473ffffffffffffffffffffffffffffffffffffffff169050816000806101000a81548173ffffffffffffffffffffffffffffffffffffffff021916908373ffffffffffffffffffffffffffffffffffffffff1602179055508173ffffffffffffffffffffffffffffffffffffffff168173ffffffffffffffffffffffffffffffffffffffff167f8be0079c531659141344cd1fd0a4f28419497f9722a3daafe3b4186f6b6457e060405160405180910390a35050565b600080fd5b600073ffffffffffffffffffffffffffffffffffffffff82169050919050565b6000620002828262000255565b9050919050565b620002948162000275565b8114620002a057600080fd5b50565b600081519050620002b48162000289565b92915050565b60008060008060808587031215620002d757620002d662000250565b5b6000620002e787828801620002a3565b9450506020620002fa87828801620002a3565b93505060406200030d87828801620002a3565b92505060606200032087828801620002a3565b91505092959194509250565b620003378162000275565b82525050565b60006020820190506200035460008301846200032c565b92915050565b6136b4806200036a6000396000f3fe608060405234801561001057600080fd5b50600436106101215760003560e01c806382bb560b116100ad578063dcfe3e0811610071578063dcfe3e081461032c578063dfa505ed1461035c578063e503bb051461038c578063e66f7f46146103bc578063f2fde38b146103da57610121565b806382bb560b146102625780638da5cb5b1461027e5780639d4a22551461029c578063b9db15b4146102cc578063bf4f31b0146102fc57610121565b806352cb26af116100f457806352cb26af146101d2578063577ac4af146101f057806363283c841461020c578063715018a6146102285780637376ccfd1461023257610121565b806323edf69714610126578063395e3f1e1461015657806348892753146101725780634c9b78da146101a2575b600080fd5b610140600480360381019061013b9190611891565b6103f6565b60405161014d9190611ab0565b60405180910390f35b610170600480360381019061016b9190611c07565b6104a0565b005b61018c60048036038101906101879190611c63565b610615565b6040516101999190611cf3565b60405180910390f35b6101bc60048036038101906101b79190611891565b6106c8565b6040516101c99190611d24565b60405180910390f35b6101da61076d565b6040516101e79190612074565b60405180910390f35b61020a6004803603810190610205919061242c565b61080a565b005b61022660048036038101906102219190612488565b61097f565b005b610230610ce0565b005b61024c60048036038101906102479190611c63565b610cf4565b60405161025991906124d7565b60405180910390f35b61027c600480360381019061027791906124f2565b610e83565b005b610286610ffe565b60405161029391906124d7565b60405180910390f35b6102b660048036038101906102b19190611891565b611027565b6040516102c3919061269a565b60405180910390f35b6102e660048036038101906102e19190611891565b6110d1565b6040516102f39190612745565b60405180910390f35b61031660048036038101906103119190611c63565b611181565b60405161032391906124d7565b60405180910390f35b61034660048036038101906103419190611891565b611229565b6040516103539190611d24565b60405180910390f35b61037660048036038101906103719190611c63565b6112ce565b60405161038391906127ca565b60405180910390f35b6103a660048036038101906103a191906127ec565b611468565b6040516103b39190611d24565b60405180910390f35b6103c4611480565b6040516103d19190612074565b60405180910390f35b6103f460048036038101906103ef91906127ec565b61151d565b005b6060600260009054906101000a900473ffffffffffffffffffffffffffffffffffffffff1673ffffffffffffffffffffffffffffffffffffffff166323edf697836040518263ffffffff1660e01b81526004016104539190611d24565b600060405180830381865afa158015610470573d6000803e3d6000fd5b505050506040513d6000823e3d601f19601f820116820180604052508101906104999190612a19565b9050919050565b600260009054906101000a900473ffffffffffffffffffffffffffffffffffffffff1673ffffffffffffffffffffffffffffffffffffffff1663395e3f1e83836040518363ffffffff1660e01b81526004016104fd929190612aac565b600060405180830381600087803b15801561051757600080fd5b505af115801561052b573d6000803e3d6000fd5b50505050600460003373ffffffffffffffffffffffffffffffffffffffff1673ffffffffffffffffffffffffffffffffffffffff168152602001908152602001600020600081548092919061057f90612b0b565b91905055503373ffffffffffffffffffffffffffffffffffffffff167f2ed0252b8901e5ebb800f47a9b16756f232137a30e26b272dae6b2a2baf4e002600460003373ffffffffffffffffffffffffffffffffffffffff1673ffffffffffffffffffffffffffffffffffffffff168152602001908152602001600020546040516106099190611d24565b60405180910390a25050565b61061d6116f6565b600260009054906101000a900473ffffffffffffffffffffffffffffffffffffffff1673ffffffffffffffffffffffffffffffffffffffff16634889275384846040518363ffffffff1660e01b815260040161067a929190612b53565b600060405180830381865afa158015610697573d6000803e3d6000fd5b505050506040513d6000823e3d601f19601f820116820180604052508101906106c09190612b7c565b905092915050565b6000600260009054906101000a900473ffffffffffffffffffffffffffffffffffffffff1673ffffffffffffffffffffffffffffffffffffffff16634c9b78da836040518263ffffffff1660e01b81526004016107259190611d24565b602060405180830381865afa158015610742573d6000803e3d6000fd5b505050506040513d601f19601f820116820180604052508101906107669190612bc5565b9050919050565b6060600160009054906101000a900473ffffffffffffffffffffffffffffffffffffffff1673ffffffffffffffffffffffffffffffffffffffff166352cb26af6040518163ffffffff1660e01b8152600401600060405180830381865afa1580156107dc573d6000803e3d6000fd5b505050506040513d6000823e3d601f19601f8201168201806040525081019061080591906130d8565b905090565b600160009054906101000a900473ffffffffffffffffffffffffffffffffffffffff1673ffffffffffffffffffffffffffffffffffffffff1663577ac4af83836040518363ffffffff1660e01b81526004016108679291906132f0565b600060405180830381600087803b15801561088157600080fd5b505af1158015610895573d6000803e3d6000fd5b50505050600460003373ffffffffffffffffffffffffffffffffffffffff1673ffffffffffffffffffffffffffffffffffffffff16815260200190815260200160002060008154809291906108e990612b0b565b91905055503373ffffffffffffffffffffffffffffffffffffffff167f2ed0252b8901e5ebb800f47a9b16756f232137a30e26b272dae6b2a2baf4e002600460003373ffffffffffffffffffffffffffffffffffffffff1673ffffffffffffffffffffffffffffffffffffffff168152602001908152602001600020546040516109739190611d24565b60405180910390a25050565b600160009054906101000a900473ffffffffffffffffffffffffffffffffffffffff1673ffffffffffffffffffffffffffffffffffffffff166363283c8483836040518363ffffffff1660e01b81526004016109dc929190613320565b600060405180830381600087803b1580156109f657600080fd5b505af1158015610a0a573d6000803e3d6000fd5b5050505060046000600160009054906101000a900473ffffffffffffffffffffffffffffffffffffffff1673ffffffffffffffffffffffffffffffffffffffff1663b9db15b4856040518263ffffffff1660e01b8152600401610a6d9190611d24565b600060405180830381865afa158015610a8a573d6000803e3d6000fd5b505050506040513d6000823e3d601f19601f82011682018060405250810190610ab39190613349565b6020015173ffffffffffffffffffffffffffffffffffffffff1673ffffffffffffffffffffffffffffffffffffffff1681526020019081526020016000206000815480929190610b0290612b0b565b9190505550600160009054906101000a900473ffffffffffffffffffffffffffffffffffffffff1673ffffffffffffffffffffffffffffffffffffffff1663b9db15b4836040518263ffffffff1660e01b8152600401610b629190611d24565b600060405180830381865afa158015610b7f573d6000803e3d6000fd5b505050506040513d6000823e3d601f19601f82011682018060405250810190610ba89190613349565b6020015173ffffffffffffffffffffffffffffffffffffffff167f2ed0252b8901e5ebb800f47a9b16756f232137a30e26b272dae6b2a2baf4e00260046000600160009054906101000a900473ffffffffffffffffffffffffffffffffffffffff1673ffffffffffffffffffffffffffffffffffffffff1663b9db15b4876040518263ffffffff1660e01b8152600401610c429190611d24565b600060405180830381865afa158015610c5f573d6000803e3d6000fd5b505050506040513d6000823e3d601f19601f82011682018060405250810190610c889190613349565b6020015173ffffffffffffffffffffffffffffffffffffffff1673ffffffffffffffffffffffffffffffffffffffff16815260200190815260200160002054604051610cd49190611d24565b60405180910390a25050565b610ce86115a3565b610cf2600061162a565b565b60008282600360009054906101000a900473ffffffffffffffffffffffffffffffffffffffff1673ffffffffffffffffffffffffffffffffffffffff16639d4a2255836040518263ffffffff1660e01b8152600401610d539190611d24565b600060405180830381865afa158015610d70573d6000803e3d6000fd5b505050506040513d6000823e3d601f19601f82011682018060405250810190610d999190613507565b518110610ddb576040517f08c379a0000000000000000000000000000000000000000000000000000000008152600401610dd29061359c565b60405180910390fd5b600360009054906101000a900473ffffffffffffffffffffffffffffffffffffffff1673ffffffffffffffffffffffffffffffffffffffff16637376ccfd86866040518363ffffffff1660e01b8152600401610e38929190612b53565b602060405180830381865afa158015610e55573d6000803e3d6000fd5b505050506040513d601f19601f82011682018060405250810190610e7991906135bc565b9250505092915050565b600360009054906101000a900473ffffffffffffffffffffffffffffffffffffffff1673ffffffffffffffffffffffffffffffffffffffff166382bb560b858585856040518563ffffffff1660e01b8152600401610ee494939291906135e9565b600060405180830381600087803b158015610efe57600080fd5b505af1158015610f12573d6000803e3d6000fd5b50505050600460003373ffffffffffffffffffffffffffffffffffffffff1673ffffffffffffffffffffffffffffffffffffffff1681526020019081526020016000206000815480929190610f6690612b0b565b91905055503373ffffffffffffffffffffffffffffffffffffffff167f2ed0252b8901e5ebb800f47a9b16756f232137a30e26b272dae6b2a2baf4e002600460003373ffffffffffffffffffffffffffffffffffffffff1673ffffffffffffffffffffffffffffffffffffffff16815260200190815260200160002054604051610ff09190611d24565b60405180910390a250505050565b60008060009054906101000a900473ffffffffffffffffffffffffffffffffffffffff16905090565b6060600360009054906101000a900473ffffffffffffffffffffffffffffffffffffffff1673ffffffffffffffffffffffffffffffffffffffff16639d4a2255836040518263ffffffff1660e01b81526004016110849190611d24565b600060405180830381865afa1580156110a1573d6000803e3d6000fd5b505050506040513d6000823e3d601f19601f820116820180604052508101906110ca9190613507565b9050919050565b6110d961172d565b600160009054906101000a900473ffffffffffffffffffffffffffffffffffffffff1673ffffffffffffffffffffffffffffffffffffffff1663b9db15b4836040518263ffffffff1660e01b81526004016111349190611d24565b600060405180830381865afa158015611151573d6000803e3d6000fd5b505050506040513d6000823e3d601f19601f8201168201806040525081019061117a9190613349565b9050919050565b6000600260009054906101000a900473ffffffffffffffffffffffffffffffffffffffff1673ffffffffffffffffffffffffffffffffffffffff1663bf4f31b084846040518363ffffffff1660e01b81526004016111e0929190612b53565b602060405180830381865afa1580156111fd573d6000803e3d6000fd5b505050506040513d601f19601f8201168201806040525081019061122191906135bc565b905092915050565b6000600360009054906101000a900473ffffffffffffffffffffffffffffffffffffffff1673ffffffffffffffffffffffffffffffffffffffff1663dcfe3e08836040518263ffffffff1660e01b81526004016112869190611d24565b602060405180830381865afa1580156112a3573d6000803e3d6000fd5b505050506040513d601f19601f820116820180604052508101906112c79190612bc5565b9050919050565b6112d6611781565b8282600360009054906101000a900473ffffffffffffffffffffffffffffffffffffffff1673ffffffffffffffffffffffffffffffffffffffff16639d4a2255836040518263ffffffff1660e01b81526004016113339190611d24565b600060405180830381865afa158015611350573d6000803e3d6000fd5b505050506040513d6000823e3d601f19601f820116820180604052508101906113799190613507565b5181106113bb576040517f08c379a00000000000000000000000000000000000000000000000000000000081526004016113b29061359c565b60405180910390fd5b600360009054906101000a900473ffffffffffffffffffffffffffffffffffffffff1673ffffffffffffffffffffffffffffffffffffffff1663dfa505ed86866040518363ffffffff1660e01b8152600401611418929190612b53565b600060405180830381865afa158015611435573d6000803e3d6000fd5b505050506040513d6000823e3d601f19601f8201168201806040525081019061145e9190613635565b9250505092915050565b60046020528060005260406000206000915090505481565b6060600160009054906101000a900473ffffffffffffffffffffffffffffffffffffffff1673ffffffffffffffffffffffffffffffffffffffff1663e66f7f466040518163ffffffff1660e01b8152600401600060405180830381865afa1580156114ef573d6000803e3d6000fd5b505050506040513d6000823e3d601f19601f8201168201806040525081019061151891906130d8565b905090565b6115256115a3565b600073ffffffffffffffffffffffffffffffffffffffff168173ffffffffffffffffffffffffffffffffffffffff16036115975760006040517f1e4fbdf700000000000000000000000000000000000000000000000000000000815260040161158e91906124d7565b60405180910390fd5b6115a08161162a565b50565b6115ab6116ee565b73ffffffffffffffffffffffffffffffffffffffff166115c9610ffe565b73ffffffffffffffffffffffffffffffffffffffff1614611628576115ec6116ee565b6040517f118cdaa700000000000000000000000000000000000000000000000000000000815260040161161f91906124d7565b60405180910390fd5b565b60008060009054906101000a900473ffffffffffffffffffffffffffffffffffffffff169050816000806101000a81548173ffffffffffffffffffffffffffffffffffffffff021916908373ffffffffffffffffffffffffffffffffffffffff1602179055508173ffffffffffffffffffffffffffffffffffffffff168173ffffffffffffffffffffffffffffffffffffffff167f8be0079c531659141344cd1fd0a4f28419497f9722a3daafe3b4186f6b6457e060405160405180910390a35050565b600033905090565b6040518060600160405280600073ffffffffffffffffffffffffffffffffffffffff16815260200160608152602001600081525090565b6040518060c0016040528060008152602001600073ffffffffffffffffffffffffffffffffffffffff1681526020016117646117bf565b815260200160008152602001600015158152602001600081525090565b6040518060800160405280600073ffffffffffffffffffffffffffffffffffffffff1681526020016060815260200160008152602001600081525090565b6040518061022001604052806060815260200160608152602001606081526020016060815260200160608152602001600015158152602001606081526020016060815260200160608152602001606081526020016000151581526020016060815260200160608152602001606081526020016060815260200160608152602001606081525090565b6000604051905090565b600080fd5b600080fd5b6000819050919050565b61186e8161185b565b811461187957600080fd5b50565b60008135905061188b81611865565b92915050565b6000602082840312156118a7576118a6611851565b5b60006118b58482850161187c565b91505092915050565b600081519050919050565b600082825260208201905092915050565b6000819050602082019050919050565b600073ffffffffffffffffffffffffffffffffffffffff82169050919050565b6000611915826118ea565b9050919050565b6119258161190a565b82525050565b600081519050919050565b600082825260208201905092915050565b60005b8381101561196557808201518184015260208101905061194a565b60008484015250505050565b6000601f19601f8301169050919050565b600061198d8261192b565b6119978185611936565b93506119a7818560208601611947565b6119b081611971565b840191505092915050565b6119c48161185b565b82525050565b60006060830160008301516119e2600086018261191c565b50602083015184820360208601526119fa8282611982565b9150506040830151611a0f60408601826119bb565b508091505092915050565b6000611a2683836119ca565b905092915050565b6000602082019050919050565b6000611a46826118be565b611a5081856118c9565b935083602082028501611a62856118da565b8060005b85811015611a9e5784840389528151611a7f8582611a1a565b9450611a8a83611a2e565b925060208a01995050600181019050611a66565b50829750879550505050505092915050565b60006020820190508181036000830152611aca8184611a3b565b905092915050565b600080fd5b600080fd5b7f4e487b7100000000000000000000000000000000000000000000000000000000600052604160045260246000fd5b611b1482611971565b810181811067ffffffffffffffff82111715611b3357611b32611adc565b5b80604052505050565b6000611b46611847565b9050611b528282611b0b565b919050565b600067ffffffffffffffff821115611b7257611b71611adc565b5b611b7b82611971565b9050602081019050919050565b82818337600083830152505050565b6000611baa611ba584611b57565b611b3c565b905082815260208101848484011115611bc657611bc5611ad7565b5b611bd1848285611b88565b509392505050565b600082601f830112611bee57611bed611ad2565b5b8135611bfe848260208601611b97565b91505092915050565b60008060408385031215611c1e57611c1d611851565b5b6000611c2c8582860161187c565b925050602083013567ffffffffffffffff811115611c4d57611c4c611856565b5b611c5985828601611bd9565b9150509250929050565b60008060408385031215611c7a57611c79611851565b5b6000611c888582860161187c565b9250506020611c998582860161187c565b9150509250929050565b6000606083016000830151611cbb600086018261191c565b5060208301518482036020860152611cd38282611982565b9150506040830151611ce860408601826119bb565b508091505092915050565b60006020820190508181036000830152611d0d8184611ca3565b905092915050565b611d1e8161185b565b82525050565b6000602082019050611d396000830184611d15565b92915050565b600081519050919050565b600082825260208201905092915050565b6000819050602082019050919050565b60008115159050919050565b611d8081611d6b565b82525050565b6000610220830160008301518482036000860152611da48282611982565b91505060208301518482036020860152611dbe8282611982565b91505060408301518482036040860152611dd88282611982565b91505060608301518482036060860152611df28282611982565b91505060808301518482036080860152611e0c8282611982565b91505060a0830151611e2160a0860182611d77565b5060c083015184820360c0860152611e398282611982565b91505060e083015184820360e0860152611e538282611982565b915050610100830151848203610100860152611e6f8282611982565b915050610120830151848203610120860152611e8b8282611982565b915050610140830151611ea2610140860182611d77565b50610160830151848203610160860152611ebc8282611982565b915050610180830151848203610180860152611ed88282611982565b9150506101a08301518482036101a0860152611ef48282611982565b9150506101c08301518482036101c0860152611f108282611982565b9150506101e08301518482036101e0860152611f2c8282611982565b915050610200830151848203610200860152611f488282611982565b9150508091505092915050565b600060c083016000830151611f6d60008601826119bb565b506020830151611f80602086018261191c565b5060408301518482036040860152611f988282611d86565b9150506060830151611fad60608601826119bb565b506080830151611fc06080860182611d77565b5060a0830151611fd360a08601826119bb565b508091505092915050565b6000611fea8383611f55565b905092915050565b6000602082019050919050565b600061200a82611d3f565b6120148185611d4a565b93508360208202850161202685611d5b565b8060005b8581101561206257848403895281516120438582611fde565b945061204e83611ff2565b925060208a0199505060018101905061202a565b50829750879550505050505092915050565b6000602082019050818103600083015261208e8184611fff565b905092915050565b61209f8161190a565b81146120aa57600080fd5b50565b6000813590506120bc81612096565b92915050565b600080fd5b600080fd5b6120d581611d6b565b81146120e057600080fd5b50565b6000813590506120f2816120cc565b92915050565b6000610220828403121561210f5761210e6120c2565b5b61211a610220611b3c565b9050600082013567ffffffffffffffff81111561213a576121396120c7565b5b61214684828501611bd9565b600083015250602082013567ffffffffffffffff81111561216a576121696120c7565b5b61217684828501611bd9565b602083015250604082013567ffffffffffffffff81111561219a576121996120c7565b5b6121a684828501611bd9565b604083015250606082013567ffffffffffffffff8111156121ca576121c96120c7565b5b6121d684828501611bd9565b606083015250608082013567ffffffffffffffff8111156121fa576121f96120c7565b5b61220684828501611bd9565b60808301525060a061221a848285016120e3565b60a08301525060c082013567ffffffffffffffff81111561223e5761223d6120c7565b5b61224a84828501611bd9565b60c08301525060e082013567ffffffffffffffff81111561226e5761226d6120c7565b5b61227a84828501611bd9565b60e08301525061010082013567ffffffffffffffff81111561229f5761229e6120c7565b5b6122ab84828501611bd9565b6101008301525061012082013567ffffffffffffffff8111156122d1576122d06120c7565b5b6122dd84828501611bd9565b610120830152506101406122f3848285016120e3565b6101408301525061016082013567ffffffffffffffff811115612319576123186120c7565b5b61232584828501611bd9565b6101608301525061018082013567ffffffffffffffff81111561234b5761234a6120c7565b5b61235784828501611bd9565b610180830152506101a082013567ffffffffffffffff81111561237d5761237c6120c7565b5b61238984828501611bd9565b6101a0830152506101c082013567ffffffffffffffff8111156123af576123ae6120c7565b5b6123bb84828501611bd9565b6101c0830152506101e082013567ffffffffffffffff8111156123e1576123e06120c7565b5b6123ed84828501611bd9565b6101e08301525061020082013567ffffffffffffffff811115612413576124126120c7565b5b61241f84828501611bd9565b6102008301525092915050565b6000806040838503121561244357612442611851565b5b6000612451858286016120ad565b925050602083013567ffffffffffffffff81111561247257612471611856565b5b61247e858286016120f8565b9150509250929050565b6000806040838503121561249f5761249e611851565b5b60006124ad8582860161187c565b92505060206124be858286016120ad565b9150509250929050565b6124d18161190a565b82525050565b60006020820190506124ec60008301846124c8565b92915050565b6000806000806080858703121561250c5761250b611851565b5b600061251a878288016120ad565b945050602061252b8782880161187c565b935050604085013567ffffffffffffffff81111561254c5761254b611856565b5b61255887828801611bd9565b92505060606125698782880161187c565b91505092959194509250565b600081519050919050565b600082825260208201905092915050565b6000819050602082019050919050565b60006080830160008301516125b9600086018261191c565b50602083015184820360208601526125d18282611982565b91505060408301516125e660408601826119bb565b5060608301516125f960608601826119bb565b508091505092915050565b600061261083836125a1565b905092915050565b6000602082019050919050565b600061263082612575565b61263a8185612580565b93508360208202850161264c85612591565b8060005b8581101561268857848403895281516126698582612604565b945061267483612618565b925060208a01995050600181019050612650565b50829750879550505050505092915050565b600060208201905081810360008301526126b48184612625565b905092915050565b600060c0830160008301516126d460008601826119bb565b5060208301516126e7602086018261191c565b50604083015184820360408601526126ff8282611d86565b915050606083015161271460608601826119bb565b5060808301516127276080860182611d77565b5060a083015161273a60a08601826119bb565b508091505092915050565b6000602082019050818103600083015261275f81846126bc565b905092915050565b600060808301600083015161277f600086018261191c565b50602083015184820360208601526127978282611982565b91505060408301516127ac60408601826119bb565b5060608301516127bf60608601826119bb565b508091505092915050565b600060208201905081810360008301526127e48184612767565b905092915050565b60006020828403121561280257612801611851565b5b6000612810848285016120ad565b91505092915050565b600067ffffffffffffffff82111561283457612833611adc565b5b602082029050602081019050919050565b600080fd5b60008151905061285981612096565b92915050565b600061287261286d84611b57565b611b3c565b90508281526020810184848401111561288e5761288d611ad7565b5b612899848285611947565b509392505050565b600082601f8301126128b6576128b5611ad2565b5b81516128c684826020860161285f565b91505092915050565b6000815190506128de81611865565b92915050565b6000606082840312156128fa576128f96120c2565b5b6129046060611b3c565b905060006129148482850161284a565b600083015250602082015167ffffffffffffffff811115612938576129376120c7565b5b612944848285016128a1565b6020830152506040612958848285016128cf565b60408301525092915050565b600061297761297284612819565b611b3c565b9050808382526020820190506020840283018581111561299a57612999612845565b5b835b818110156129e157805167ffffffffffffffff8111156129bf576129be611ad2565b5b8086016129cc89826128e4565b8552602085019450505060208101905061299c565b5050509392505050565b600082601f830112612a00576129ff611ad2565b5b8151612a10848260208601612964565b91505092915050565b600060208284031215612a2f57612a2e611851565b5b600082015167ffffffffffffffff811115612a4d57612a4c611856565b5b612a59848285016129eb565b91505092915050565b600082825260208201905092915050565b6000612a7e8261192b565b612a888185612a62565b9350612a98818560208601611947565b612aa181611971565b840191505092915050565b6000604082019050612ac16000830185611d15565b8181036020830152612ad38184612a73565b90509392505050565b7f4e487b7100000000000000000000000000000000000000000000000000000000600052601160045260246000fd5b6000612b168261185b565b91507fffffffffffffffffffffffffffffffffffffffffffffffffffffffffffffffff8203612b4857612b47612adc565b5b600182019050919050565b6000604082019050612b686000830185611d15565b612b756020830184611d15565b9392505050565b600060208284031215612b9257612b91611851565b5b600082015167ffffffffffffffff811115612bb057612baf611856565b5b612bbc848285016128e4565b91505092915050565b600060208284031215612bdb57612bda611851565b5b6000612be9848285016128cf565b91505092915050565b600067ffffffffffffffff821115612c0d57612c0c611adc565b5b602082029050602081019050919050565b600081519050612c2d816120cc565b92915050565b60006102208284031215612c4a57612c496120c2565b5b612c55610220611b3c565b9050600082015167ffffffffffffffff811115612c7557612c746120c7565b5b612c81848285016128a1565b600083015250602082015167ffffffffffffffff811115612ca557612ca46120c7565b5b612cb1848285016128a1565b602083015250604082015167ffffffffffffffff811115612cd557612cd46120c7565b5b612ce1848285016128a1565b604083015250606082015167ffffffffffffffff811115612d0557612d046120c7565b5b612d11848285016128a1565b606083015250608082015167ffffffffffffffff811115612d3557612d346120c7565b5b612d41848285016128a1565b60808301525060a0612d5584828501612c1e565b60a08301525060c082015167ffffffffffffffff811115612d7957612d786120c7565b5b612d85848285016128a1565b60c08301525060e082015167ffffffffffffffff811115612da957612da86120c7565b5b612db5848285016128a1565b60e08301525061010082015167ffffffffffffffff811115612dda57612dd96120c7565b5b612de6848285016128a1565b6101008301525061012082015167ffffffffffffffff811115612e0c57612e0b6120c7565b5b612e18848285016128a1565b61012083015250610140612e2e84828501612c1e565b6101408301525061016082015167ffffffffffffffff811115612e5457612e536120c7565b5b612e60848285016128a1565b6101608301525061018082015167ffffffffffffffff811115612e8657612e856120c7565b5b612e92848285016128a1565b610180830152506101a082015167ffffffffffffffff811115612eb857612eb76120c7565b5b612ec4848285016128a1565b6101a0830152506101c082015167ffffffffffffffff811115612eea57612ee96120c7565b5b612ef6848285016128a1565b6101c0830152506101e082015167ffffffffffffffff811115612f1c57612f1b6120c7565b5b612f28848285016128a1565b6101e08301525061020082015167ffffffffffffffff811115612f4e57612f4d6120c7565b5b612f5a848285016128a1565b6102008301525092915050565b600060c08284031215612f7d57612f7c6120c2565b5b612f8760c0611b3c565b90506000612f97848285016128cf565b6000830152506020612fab8482850161284a565b602083015250604082015167ffffffffffffffff811115612fcf57612fce6120c7565b5b612fdb84828501612c33565b6040830152506060612fef848285016128cf565b606083015250608061300384828501612c1e565b60808301525060a0613017848285016128cf565b60a08301525092915050565b600061303661303184612bf2565b611b3c565b9050808382526020820190506020840283018581111561305957613058612845565b5b835b818110156130a057805167ffffffffffffffff81111561307e5761307d611ad2565b5b80860161308b8982612f67565b8552602085019450505060208101905061305b565b5050509392505050565b600082601f8301126130bf576130be611ad2565b5b81516130cf848260208601613023565b91505092915050565b6000602082840312156130ee576130ed611851565b5b600082015167ffffffffffffffff81111561310c5761310b611856565b5b613118848285016130aa565b91505092915050565b600061022083016000830151848203600086015261313f8282611982565b915050602083015184820360208601526131598282611982565b915050604083015184820360408601526131738282611982565b9150506060830151848203606086015261318d8282611982565b915050608083015184820360808601526131a78282611982565b91505060a08301516131bc60a0860182611d77565b5060c083015184820360c08601526131d48282611982565b91505060e083015184820360e08601526131ee8282611982565b91505061010083015184820361010086015261320a8282611982565b9150506101208301518482036101208601526132268282611982565b91505061014083015161323d610140860182611d77565b506101608301518482036101608601526132578282611982565b9150506101808301518482036101808601526132738282611982565b9150506101a08301518482036101a086015261328f8282611982565b9150506101c08301518482036101c08601526132ab8282611982565b9150506101e08301518482036101e08601526132c78282611982565b9150506102008301518482036102008601526132e38282611982565b9150508091505092915050565b600060408201905061330560008301856124c8565b81810360208301526133178184613121565b90509392505050565b60006040820190506133356000830185611d15565b61334260208301846124c8565b9392505050565b60006020828403121561335f5761335e611851565b5b600082015167ffffffffffffffff81111561337d5761337c611856565b5b61338984828501612f67565b91505092915050565b600067ffffffffffffffff8211156133ad576133ac611adc565b5b602082029050602081019050919050565b6000608082840312156133d4576133d36120c2565b5b6133de6080611b3c565b905060006133ee8482850161284a565b600083015250602082015167ffffffffffffffff811115613412576134116120c7565b5b61341e848285016128a1565b6020830152506040613432848285016128cf565b6040830152506060613446848285016128cf565b60608301525092915050565b600061346561346084613392565b611b3c565b9050808382526020820190506020840283018581111561348857613487612845565b5b835b818110156134cf57805167ffffffffffffffff8111156134ad576134ac611ad2565b5b8086016134ba89826133be565b8552602085019450505060208101905061348a565b5050509392505050565b600082601f8301126134ee576134ed611ad2565b5b81516134fe848260208601613452565b91505092915050565b60006020828403121561351d5761351c611851565b5b600082015167ffffffffffffffff81111561353b5761353a611856565b5b613547848285016134d9565b91505092915050565b7f52657669657720646f6573206e6f742065786973740000000000000000000000600082015250565b6000613586601583612a62565b915061359182613550565b602082019050919050565b600060208201905081810360008301526135b581613579565b9050919050565b6000602082840312156135d2576135d1611851565b5b60006135e08482850161284a565b91505092915050565b60006080820190506135fe60008301876124c8565b61360b6020830186611d15565b818103604083015261361d8185612a73565b905061362c6060830184611d15565b95945050505050565b60006020828403121561364b5761364a611851565b5b600082015167ffffffffffffffff81111561366957613668611856565b5b613675848285016133be565b9150509291505056fea264697066735822122003d56f206f29d73358110b682e981052a284126c1e41893e5d94c6e777ef862764736f6c63430008180033",
  "linkReferences": {},
  "deployedLinkReferences": {}
}