{
  "_format": "hh-sol-artifact-1",
  "contractName": "Comment",
  "sourceName": "contracts/Comment.sol",
  "abi": [
    {
      "inputs": [
        {
          "internalType": "address",
          "name": "_productAddress",
          "type": "address"
        }
      ],
      "stateMutability": "nonpayable",
      "type": "constructor"
    },
    {
      "anonymous": false,
      "inputs": [
        {
          "indexed": true,
          "internalType": "uint256",
          "name": "productId",
          "type": "uint256"
        },
        {
          "indexed": true,
          "internalType": "address",
          "name": "commenter",
          "type": "address"
        },
        {
          "indexed": false,
          "internalType": "string",
          "name": "content",
          "type": "string"
        }
      ],
      "name": "CommentAdded",
      "type": "event"
    },
    {
      "inputs": [
        {
          "internalType": "uint256",
          "name": "_productId",
          "type": "uint256"
        },
        {
          "internalType": "string",
          "name": "_content",
          "type": "string"
        }
      ],
      "name": "commentOnProduct",
      "outputs": [],
      "stateMutability": "nonpayable",
      "type": "function"
    },
    {
      "inputs": [
        {
          "internalType": "uint256",
          "name": "_productId",
          "type": "uint256"
        },
        {
          "internalType": "uint256",
          "name": "_commentId",
          "type": "uint256"
        }
      ],
      "name": "getComment",
      "outputs": [
        {
          "components": [
            {
              "internalType": "address",
              "name": "commenter",
              "type": "address"
            },
            {
              "internalType": "string",
              "name": "content",
              "type": "string"
            },
            {
              "internalType": "uint256",
              "name": "timestamp",
              "type": "uint256"
            }
          ],
          "internalType": "struct Comment.CommentInfo",
          "name": "",
          "type": "tuple"
        }
      ],
      "stateMutability": "view",
      "type": "function"
    },
    {
      "inputs": [
        {
          "internalType": "uint256",
          "name": "_productId",
          "type": "uint256"
        },
        {
          "internalType": "uint256",
          "name": "_commentId",
          "type": "uint256"
        }
      ],
      "name": "getCommenter",
      "outputs": [
        {
          "internalType": "address",
          "name": "",
          "type": "address"
        }
      ],
      "stateMutability": "view",
      "type": "function"
    },
    {
      "inputs": [
        {
          "internalType": "uint256",
          "name": "_productId",
          "type": "uint256"
        }
      ],
      "name": "getComments",
      "outputs": [
        {
          "components": [
            {
              "internalType": "address",
              "name": "commenter",
              "type": "address"
            },
            {
              "internalType": "string",
              "name": "content",
              "type": "string"
            },
            {
              "internalType": "uint256",
              "name": "timestamp",
              "type": "uint256"
            }
          ],
          "internalType": "struct Comment.CommentInfo[]",
          "name": "",
          "type": "tuple[]"
        }
      ],
      "stateMutability": "view",
      "type": "function"
    },
    {
      "inputs": [
        {
          "internalType": "uint256",
          "name": "_productId",
          "type": "uint256"
        }
      ],
      "name": "getCommentsCount",
      "outputs": [
        {
          "internalType": "uint256",
          "name": "",
          "type": "uint256"
        }
      ],
      "stateMutability": "view",
      "type": "function"
    },
    {
      "inputs": [
        {
          "internalType": "uint256",
          "name": "",
          "type": "uint256"
        },
        {
          "internalType": "uint256",
          "name": "",
          "type": "uint256"
        }
      ],
      "name": "productComments",
      "outputs": [
        {
          "internalType": "address",
          "name": "commenter",
          "type": "address"
        },
        {
          "internalType": "string",
          "name": "content",
          "type": "string"
        },
        {
          "internalType": "uint256",
          "name": "timestamp",
          "type": "uint256"
        }
      ],
      "stateMutability": "view",
      "type": "function"
    }
  ],
  "bytecode": "0x60806040523480156200001157600080fd5b5060405162001fc838038062001fc88339818101604052810190620000379190620000e8565b806000806101000a81548173ffffffffffffffffffffffffffffffffffffffff021916908373ffffffffffffffffffffffffffffffffffffffff160217905550506200011a565b600080fd5b600073ffffffffffffffffffffffffffffffffffffffff82169050919050565b6000620000b08262000083565b9050919050565b620000c281620000a3565b8114620000ce57600080fd5b50565b600081519050620000e281620000b7565b92915050565b6000602082840312156200010157620001006200007e565b5b60006200011184828501620000d1565b91505092915050565b611e9e806200012a6000396000f3fe608060405234801561001057600080fd5b50600436106100625760003560e01c806323edf69714610067578063395e3f1e146100975780634091e119146100b357806348892753146100e55780634c9b78da14610115578063bf4f31b014610145575b600080fd5b610081600480360381019061007c9190610cc3565b610175565b60405161008e9190610ee2565b60405180910390f35b6100b160048036038101906100ac9190611039565b6103c3565b005b6100cd60048036038101906100c89190611095565b61061c565b6040516100dc9392919061113d565b60405180910390f35b6100ff60048036038101906100fa9190611095565b61070b565b60405161010c91906111cb565b60405180910390f35b61012f600480360381019061012a9190610cc3565b610991565b60405161013c91906111ed565b60405180910390f35b61015f600480360381019061015a9190611095565b610a9b565b60405161016c9190611208565b60405180910390f35b6060818060008054906101000a900473ffffffffffffffffffffffffffffffffffffffff1673ffffffffffffffffffffffffffffffffffffffff1663b9db15b4836040518263ffffffff1660e01b81526004016101d291906111ed565b600060405180830381865afa1580156101ef573d6000803e3d6000fd5b505050506040513d6000823e3d601f19601f8201168201806040525081019061021891906119ac565b600001516000015114610260576040517f08c379a000000000000000000000000000000000000000000000000000000000815260040161025790611a41565b60405180910390fd5b60016000848152602001908152602001600020805480602002602001604051908101604052809291908181526020016000905b828210156103b757838290600052602060002090600302016040518060600160405290816000820160009054906101000a900473ffffffffffffffffffffffffffffffffffffffff1673ffffffffffffffffffffffffffffffffffffffff1673ffffffffffffffffffffffffffffffffffffffff16815260200160018201805461031c90611a90565b80601f016020809104026020016040519081016040528092919081815260200182805461034890611a90565b80156103955780601f1061036a57610100808354040283529160200191610395565b820191906000526020600020905b81548152906001019060200180831161037857829003601f168201915b5050505050815260200160028201548152505081526020019060010190610293565b50505050915050919050565b818060008054906101000a900473ffffffffffffffffffffffffffffffffffffffff1673ffffffffffffffffffffffffffffffffffffffff1663b9db15b4836040518263ffffffff1660e01b815260040161041e91906111ed565b600060405180830381865afa15801561043b573d6000803e3d6000fd5b505050506040513d6000823e3d601f19601f8201168201806040525081019061046491906119ac565b6000015160000151146104ac576040517f08c379a00000000000000000000000000000000000000000000000000000000081526004016104a390611a41565b60405180910390fd5b8160008151116104f1576040517f08c379a00000000000000000000000000000000000000000000000000000000081526004016104e890611b0d565b60405180910390fd5b6001600085815260200190815260200160002060405180606001604052803373ffffffffffffffffffffffffffffffffffffffff16815260200185815260200142815250908060018154018082558091505060019003906000526020600020906003020160009091909190915060008201518160000160006101000a81548173ffffffffffffffffffffffffffffffffffffffff021916908373ffffffffffffffffffffffffffffffffffffffff16021790555060208201518160010190816105ba9190611cd9565b506040820151816002015550503373ffffffffffffffffffffffffffffffffffffffff16847fcc2d7dd2085ae6644799a42c0174adf9afc10a43f26db5eac3ddd1f96d1d64be8560405161060e9190611dab565b60405180910390a350505050565b6001602052816000526040600020818154811061063857600080fd5b9060005260206000209060030201600091509150508060000160009054906101000a900473ffffffffffffffffffffffffffffffffffffffff169080600101805461068290611a90565b80601f01602080910402602001604051908101604052809291908181526020018280546106ae90611a90565b80156106fb5780601f106106d0576101008083540402835291602001916106fb565b820191906000526020600020905b8154815290600101906020018083116106de57829003601f168201915b5050505050908060020154905083565b610713610c42565b828060008054906101000a900473ffffffffffffffffffffffffffffffffffffffff1673ffffffffffffffffffffffffffffffffffffffff1663b9db15b4836040518263ffffffff1660e01b815260040161076e91906111ed565b600060405180830381865afa15801561078b573d6000803e3d6000fd5b505050506040513d6000823e3d601f19601f820116820180604052508101906107b491906119ac565b6000015160000151146107fc576040517f08c379a00000000000000000000000000000000000000000000000000000000081526004016107f390611a41565b60405180910390fd5b838360016000838152602001908152602001600020805490508110610856576040517f08c379a000000000000000000000000000000000000000000000000000000000815260040161084d90611e19565b60405180910390fd5b60016000878152602001908152602001600020858154811061087b5761087a611e39565b5b90600052602060002090600302016040518060600160405290816000820160009054906101000a900473ffffffffffffffffffffffffffffffffffffffff1673ffffffffffffffffffffffffffffffffffffffff1673ffffffffffffffffffffffffffffffffffffffff1681526020016001820180546108fa90611a90565b80601f016020809104026020016040519081016040528092919081815260200182805461092690611a90565b80156109735780601f1061094857610100808354040283529160200191610973565b820191906000526020600020905b81548152906001019060200180831161095657829003601f168201915b50505050508152602001600282015481525050935050505092915050565b6000818060008054906101000a900473ffffffffffffffffffffffffffffffffffffffff1673ffffffffffffffffffffffffffffffffffffffff1663b9db15b4836040518263ffffffff1660e01b81526004016109ee91906111ed565b600060405180830381865afa158015610a0b573d6000803e3d6000fd5b505050506040513d6000823e3d601f19601f82011682018060405250810190610a3491906119ac565b600001516000015114610a7c576040517f08c379a0000000000000000000000000000000000000000000000000000000008152600401610a7390611a41565b60405180910390fd5b6001600084815260200190815260200160002080549050915050919050565b6000828060008054906101000a900473ffffffffffffffffffffffffffffffffffffffff1673ffffffffffffffffffffffffffffffffffffffff1663b9db15b4836040518263ffffffff1660e01b8152600401610af891906111ed565b600060405180830381865afa158015610b15573d6000803e3d6000fd5b505050506040513d6000823e3d601f19601f82011682018060405250810190610b3e91906119ac565b600001516000015114610b86576040517f08c379a0000000000000000000000000000000000000000000000000000000008152600401610b7d90611a41565b60405180910390fd5b838360016000838152602001908152602001600020805490508110610be0576040517f08c379a0000000000000000000000000000000000000000000000000000000008152600401610bd790611e19565b60405180910390fd5b600160008781526020019081526020016000208581548110610c0557610c04611e39565b5b906000526020600020906003020160000160009054906101000a900473ffffffffffffffffffffffffffffffffffffffff16935050505092915050565b6040518060600160405280600073ffffffffffffffffffffffffffffffffffffffff16815260200160608152602001600081525090565b6000604051905090565b600080fd5b600080fd5b6000819050919050565b610ca081610c8d565b8114610cab57600080fd5b50565b600081359050610cbd81610c97565b92915050565b600060208284031215610cd957610cd8610c83565b5b6000610ce784828501610cae565b91505092915050565b600081519050919050565b600082825260208201905092915050565b6000819050602082019050919050565b600073ffffffffffffffffffffffffffffffffffffffff82169050919050565b6000610d4782610d1c565b9050919050565b610d5781610d3c565b82525050565b600081519050919050565b600082825260208201905092915050565b60005b83811015610d97578082015181840152602081019050610d7c565b60008484015250505050565b6000601f19601f8301169050919050565b6000610dbf82610d5d565b610dc98185610d68565b9350610dd9818560208601610d79565b610de281610da3565b840191505092915050565b610df681610c8d565b82525050565b6000606083016000830151610e146000860182610d4e565b5060208301518482036020860152610e2c8282610db4565b9150506040830151610e416040860182610ded565b508091505092915050565b6000610e588383610dfc565b905092915050565b6000602082019050919050565b6000610e7882610cf0565b610e828185610cfb565b935083602082028501610e9485610d0c565b8060005b85811015610ed05784840389528151610eb18582610e4c565b9450610ebc83610e60565b925060208a01995050600181019050610e98565b50829750879550505050505092915050565b60006020820190508181036000830152610efc8184610e6d565b905092915050565b600080fd5b600080fd5b7f4e487b7100000000000000000000000000000000000000000000000000000000600052604160045260246000fd5b610f4682610da3565b810181811067ffffffffffffffff82111715610f6557610f64610f0e565b5b80604052505050565b6000610f78610c79565b9050610f848282610f3d565b919050565b600067ffffffffffffffff821115610fa457610fa3610f0e565b5b610fad82610da3565b9050602081019050919050565b82818337600083830152505050565b6000610fdc610fd784610f89565b610f6e565b905082815260208101848484011115610ff857610ff7610f09565b5b611003848285610fba565b509392505050565b600082601f8301126110205761101f610f04565b5b8135611030848260208601610fc9565b91505092915050565b600080604083850312156110505761104f610c83565b5b600061105e85828601610cae565b925050602083013567ffffffffffffffff81111561107f5761107e610c88565b5b61108b8582860161100b565b9150509250929050565b600080604083850312156110ac576110ab610c83565b5b60006110ba85828601610cae565b92505060206110cb85828601610cae565b9150509250929050565b6110de81610d3c565b82525050565b600082825260208201905092915050565b600061110082610d5d565b61110a81856110e4565b935061111a818560208601610d79565b61112381610da3565b840191505092915050565b61113781610c8d565b82525050565b600060608201905061115260008301866110d5565b818103602083015261116481856110f5565b9050611173604083018461112e565b949350505050565b60006060830160008301516111936000860182610d4e565b50602083015184820360208601526111ab8282610db4565b91505060408301516111c06040860182610ded565b508091505092915050565b600060208201905081810360008301526111e5818461117b565b905092915050565b6000602082019050611202600083018461112e565b92915050565b600060208201905061121d60008301846110d5565b92915050565b600080fd5b600080fd5b60008151905061123c81610c97565b92915050565b61124b81610d3c565b811461125657600080fd5b50565b60008151905061126881611242565b92915050565b600061128161127c84610f89565b610f6e565b90508281526020810184848401111561129d5761129c610f09565b5b6112a8848285610d79565b509392505050565b600082601f8301126112c5576112c4610f04565b5b81516112d584826020860161126e565b91505092915050565b60008115159050919050565b6112f3816112de565b81146112fe57600080fd5b50565b600081519050611310816112ea565b92915050565b6000610220828403121561132d5761132c611223565b5b611338610220610f6e565b9050600082015167ffffffffffffffff81111561135857611357611228565b5b611364848285016112b0565b600083015250602082015167ffffffffffffffff81111561138857611387611228565b5b611394848285016112b0565b602083015250604082015167ffffffffffffffff8111156113b8576113b7611228565b5b6113c4848285016112b0565b604083015250606082015167ffffffffffffffff8111156113e8576113e7611228565b5b6113f4848285016112b0565b606083015250608082015167ffffffffffffffff81111561141857611417611228565b5b611424848285016112b0565b60808301525060a061143884828501611301565b60a08301525060c082015167ffffffffffffffff81111561145c5761145b611228565b5b611468848285016112b0565b60c08301525060e082015167ffffffffffffffff81111561148c5761148b611228565b5b611498848285016112b0565b60e08301525061010082015167ffffffffffffffff8111156114bd576114bc611228565b5b6114c9848285016112b0565b6101008301525061012082015167ffffffffffffffff8111156114ef576114ee611228565b5b6114fb848285016112b0565b6101208301525061014061151184828501611301565b6101408301525061016082015167ffffffffffffffff81111561153757611536611228565b5b611543848285016112b0565b6101608301525061018082015167ffffffffffffffff81111561156957611568611228565b5b611575848285016112b0565b610180830152506101a082015167ffffffffffffffff81111561159b5761159a611228565b5b6115a7848285016112b0565b6101a0830152506101c082015167ffffffffffffffff8111156115cd576115cc611228565b5b6115d9848285016112b0565b6101c0830152506101e082015167ffffffffffffffff8111156115ff576115fe611228565b5b61160b848285016112b0565b6101e08301525061020082015167ffffffffffffffff81111561163157611630611228565b5b61163d848285016112b0565b6102008301525092915050565b600060c082840312156116605761165f611223565b5b61166a60c0610f6e565b9050600061167a8482850161122d565b600083015250602061168e84828501611259565b602083015250604082015167ffffffffffffffff8111156116b2576116b1611228565b5b6116be84828501611316565b60408301525060606116d28482850161122d565b60608301525060806116e684828501611301565b60808301525060a06116fa8482850161122d565b60a08301525092915050565b600067ffffffffffffffff82111561172157611720610f0e565b5b602082029050602081019050919050565b600080fd5b600061174a61174584611706565b610f6e565b9050808382526020820190506020840283018581111561176d5761176c611732565b5b835b818110156117b457805167ffffffffffffffff81111561179257611791610f04565b5b80860161179f89826112b0565b8552602085019450505060208101905061176f565b5050509392505050565b600082601f8301126117d3576117d2610f04565b5b81516117e3848260208601611737565b91505092915050565b600060e0828403121561180257611801611223565b5b61180c60e0610f6e565b9050600082015167ffffffffffffffff81111561182c5761182b611228565b5b611838848285016112b0565b600083015250602061184c8482850161122d565b602083015250604082015167ffffffffffffffff8111156118705761186f611228565b5b61187c848285016112b0565b604083015250606082015167ffffffffffffffff8111156118a05761189f611228565b5b6118ac848285016117be565b60608301525060806118c08482850161122d565b60808301525060a06118d48482850161122d565b60a08301525060c082015167ffffffffffffffff8111156118f8576118f7611228565b5b611904848285016112b0565b60c08301525092915050565b60006060828403121561192657611925611223565b5b6119306060610f6e565b9050600082015167ffffffffffffffff8111156119505761194f611228565b5b61195c8482850161164a565b600083015250602082015167ffffffffffffffff8111156119805761197f611228565b5b61198c848285016117ec565b60208301525060406119a084828501611301565b60408301525092915050565b6000602082840312156119c2576119c1610c83565b5b600082015167ffffffffffffffff8111156119e0576119df610c88565b5b6119ec84828501611910565b91505092915050565b7f50726f6475637420646f6573206e6f7420657869737400000000000000000000600082015250565b6000611a2b6016836110e4565b9150611a36826119f5565b602082019050919050565b60006020820190508181036000830152611a5a81611a1e565b9050919050565b7f4e487b7100000000000000000000000000000000000000000000000000000000600052602260045260246000fd5b60006002820490506001821680611aa857607f821691505b602082108103611abb57611aba611a61565b5b50919050565b7f436f6d6d656e7420636f6e74656e742063616e6e6f7420626520656d70747900600082015250565b6000611af7601f836110e4565b9150611b0282611ac1565b602082019050919050565b60006020820190508181036000830152611b2681611aea565b9050919050565b60008190508160005260206000209050919050565b60006020601f8301049050919050565b600082821b905092915050565b600060088302611b8f7fffffffffffffffffffffffffffffffffffffffffffffffffffffffffffffffff82611b52565b611b998683611b52565b95508019841693508086168417925050509392505050565b6000819050919050565b6000611bd6611bd1611bcc84610c8d565b611bb1565b610c8d565b9050919050565b6000819050919050565b611bf083611bbb565b611c04611bfc82611bdd565b848454611b5f565b825550505050565b600090565b611c19611c0c565b611c24818484611be7565b505050565b5b81811015611c4857611c3d600082611c11565b600181019050611c2a565b5050565b601f821115611c8d57611c5e81611b2d565b611c6784611b42565b81016020851015611c76578190505b611c8a611c8285611b42565b830182611c29565b50505b505050565b600082821c905092915050565b6000611cb060001984600802611c92565b1980831691505092915050565b6000611cc98383611c9f565b9150826002028217905092915050565b611ce282610d5d565b67ffffffffffffffff811115611cfb57611cfa610f0e565b5b611d058254611a90565b611d10828285611c4c565b600060209050601f831160018114611d435760008415611d31578287015190505b611d3b8582611cbd565b865550611da3565b601f198416611d5186611b2d565b60005b82811015611d7957848901518255600182019150602085019450602081019050611d54565b86831015611d965784890151611d92601f891682611c9f565b8355505b6001600288020188555050505b505050505050565b60006020820190508181036000830152611dc581846110f5565b905092915050565b7f436f6d6d656e7420646f6573206e6f7420657869737400000000000000000000600082015250565b6000611e036016836110e4565b9150611e0e82611dcd565b602082019050919050565b60006020820190508181036000830152611e3281611df6565b9050919050565b7f4e487b7100000000000000000000000000000000000000000000000000000000600052603260045260246000fdfea264697066735822122071f8e6ff148e0a88c29c6c78d89f931c4e9074431a987f6e785c80d243158e8564736f6c63430008180033",
  "linkReferences": {},
  "deployedLinkReferences": {}
}