{
  "_format": "hh-sol-artifact-1",
  "contractName": "BetaTestingDetailsManager",
  "sourceName": "contracts/BetaTestingDetailsManager.sol",
  "abi": [
    {
      "inputs": [
        {
          "internalType": "uint256",
          "name": "",
          "type": "uint256"
        }
      ],
      "name": "betaTestingDetails",
      "outputs": [
        {
          "internalType": "string",
          "name": "contractAddress",
          "type": "string"
        },
        {
          "internalType": "uint256",
          "name": "targetNumbersOfTester",
          "type": "uint256"
        },
        {
          "internalType": "string",
          "name": "testingGoal",
          "type": "string"
        },
        {
          "internalType": "uint256",
          "name": "startingDate",
          "type": "uint256"
        },
        {
          "internalType": "uint256",
          "name": "endingDate",
          "type": "uint256"
        },
        {
          "internalType": "string",
          "name": "featureLoomLink",
          "type": "string"
        }
      ],
      "stateMutability": "view",
      "type": "function"
    },
    {
      "inputs": [
        {
          "internalType": "uint256",
          "name": "_productId",
          "type": "uint256"
        }
      ],
      "name": "getBetaTestingDetails",
      "outputs": [
        {
          "components": [
            {
              "internalType": "string",
              "name": "contractAddress",
              "type": "string"
            },
            {
              "internalType": "uint256",
              "name": "targetNumbersOfTester",
              "type": "uint256"
            },
            {
              "internalType": "string",
              "name": "testingGoal",
              "type": "string"
            },
            {
              "internalType": "string[]",
              "name": "goals",
              "type": "string[]"
            },
            {
              "internalType": "uint256",
              "name": "startingDate",
              "type": "uint256"
            },
            {
              "internalType": "uint256",
              "name": "endingDate",
              "type": "uint256"
            },
            {
              "internalType": "string",
              "name": "featureLoomLink",
              "type": "string"
            }
          ],
          "internalType": "struct BetaTestingDetailsManager.BetaTestingDetails",
          "name": "",
          "type": "tuple"
        }
      ],
      "stateMutability": "view",
      "type": "function"
    },
    {
      "inputs": [
        {
          "internalType": "uint256",
          "name": "_productId",
          "type": "uint256"
        },
        {
          "components": [
            {
              "internalType": "string",
              "name": "contractAddress",
              "type": "string"
            },
            {
              "internalType": "uint256",
              "name": "targetNumbersOfTester",
              "type": "uint256"
            },
            {
              "internalType": "string",
              "name": "testingGoal",
              "type": "string"
            },
            {
              "internalType": "string[]",
              "name": "goals",
              "type": "string[]"
            },
            {
              "internalType": "uint256",
              "name": "startingDate",
              "type": "uint256"
            },
            {
              "internalType": "uint256",
              "name": "endingDate",
              "type": "uint256"
            },
            {
              "internalType": "string",
              "name": "featureLoomLink",
              "type": "string"
            }
          ],
          "internalType": "struct BetaTestingDetailsManager.BetaTestingDetails",
          "name": "_details",
          "type": "tuple"
        }
      ],
      "name": "setBetaTestingDetails",
      "outputs": [],
      "stateMutability": "nonpayable",
      "type": "function"
    }
  ],
  "bytecode": "0x608060405234801561001057600080fd5b50611155806100206000396000f3fe608060405234801561001057600080fd5b50600436106100415760003560e01c80636f6f4a4c146100465780637d6614d5146100765780639afaea2e14610092575b600080fd5b610060600480360381019061005b919061076c565b6100c7565b60405161006d91906109ab565b60405180910390f35b610090600480360381019061008b9190610d16565b6103a0565b005b6100ac60048036038101906100a7919061076c565b610437565b6040516100be96959493929190610dcb565b60405180910390f35b6100cf61060b565b6000808381526020019081526020016000206040518060e00160405290816000820180546100fc90610e70565b80601f016020809104026020016040519081016040528092919081815260200182805461012890610e70565b80156101755780601f1061014a57610100808354040283529160200191610175565b820191906000526020600020905b81548152906001019060200180831161015857829003601f168201915b505050505081526020016001820154815260200160028201805461019890610e70565b80601f01602080910402602001604051908101604052809291908181526020018280546101c490610e70565b80156102115780601f106101e657610100808354040283529160200191610211565b820191906000526020600020905b8154815290600101906020018083116101f457829003601f168201915b5050505050815260200160038201805480602002602001604051908101604052809291908181526020016000905b828210156102eb57838290600052602060002001805461025e90610e70565b80601f016020809104026020016040519081016040528092919081815260200182805461028a90610e70565b80156102d75780601f106102ac576101008083540402835291602001916102d7565b820191906000526020600020905b8154815290600101906020018083116102ba57829003601f168201915b50505050508152602001906001019061023f565b505050508152602001600482015481526020016005820154815260200160068201805461031790610e70565b80601f016020809104026020016040519081016040528092919081815260200182805461034390610e70565b80156103905780601f1061036557610100808354040283529160200191610390565b820191906000526020600020905b81548152906001019060200180831161037357829003601f168201915b5050505050815250509050919050565b8060008084815260200190815260200160002060008201518160000190816103c8919061104d565b506020820151816001015560408201518160020190816103e8919061104d565b506060820151816003019080519060200190610405929190610648565b506080820151816004015560a0820151816005015560c082015181600601908161042f919061104d565b509050505050565b600060205280600052604060002060009150905080600001805461045a90610e70565b80601f016020809104026020016040519081016040528092919081815260200182805461048690610e70565b80156104d35780601f106104a8576101008083540402835291602001916104d3565b820191906000526020600020905b8154815290600101906020018083116104b657829003601f168201915b5050505050908060010154908060020180546104ee90610e70565b80601f016020809104026020016040519081016040528092919081815260200182805461051a90610e70565b80156105675780601f1061053c57610100808354040283529160200191610567565b820191906000526020600020905b81548152906001019060200180831161054a57829003601f168201915b50505050509080600401549080600501549080600601805461058890610e70565b80601f01602080910402602001604051908101604052809291908181526020018280546105b490610e70565b80156106015780601f106105d657610100808354040283529160200191610601565b820191906000526020600020905b8154815290600101906020018083116105e457829003601f168201915b5050505050905086565b6040518060e00160405280606081526020016000815260200160608152602001606081526020016000815260200160008152602001606081525090565b828054828255906000526020600020908101928215610690579160200282015b8281111561068f57825182908161067f919061104d565b5091602001919060010190610668565b5b50905061069d91906106a1565b5090565b5b808211156106c157600081816106b891906106c5565b506001016106a2565b5090565b5080546106d190610e70565b6000825580601f106106e35750610702565b601f0160209004906000526020600020908101906107019190610705565b5b50565b5b8082111561071e576000816000905550600101610706565b5090565b6000604051905090565b600080fd5b600080fd5b6000819050919050565b61074981610736565b811461075457600080fd5b50565b60008135905061076681610740565b92915050565b6000602082840312156107825761078161072c565b5b600061079084828501610757565b91505092915050565b600081519050919050565b600082825260208201905092915050565b60005b838110156107d35780820151818401526020810190506107b8565b60008484015250505050565b6000601f19601f8301169050919050565b60006107fb82610799565b61080581856107a4565b93506108158185602086016107b5565b61081e816107df565b840191505092915050565b61083281610736565b82525050565b600081519050919050565b600082825260208201905092915050565b6000819050602082019050919050565b600061087083836107f0565b905092915050565b6000602082019050919050565b600061089082610838565b61089a8185610843565b9350836020820285016108ac85610854565b8060005b858110156108e857848403895281516108c98582610864565b94506108d483610878565b925060208a019950506001810190506108b0565b50829750879550505050505092915050565b600060e083016000830151848203600086015261091782826107f0565b915050602083015161092c6020860182610829565b506040830151848203604086015261094482826107f0565b9150506060830151848203606086015261095e8282610885565b91505060808301516109736080860182610829565b5060a083015161098660a0860182610829565b5060c083015184820360c086015261099e82826107f0565b9150508091505092915050565b600060208201905081810360008301526109c581846108fa565b905092915050565b600080fd5b7f4e487b7100000000000000000000000000000000000000000000000000000000600052604160045260246000fd5b610a0a826107df565b810181811067ffffffffffffffff82111715610a2957610a286109d2565b5b80604052505050565b6000610a3c610722565b9050610a488282610a01565b919050565b600080fd5b600080fd5b600080fd5b600067ffffffffffffffff821115610a7757610a766109d2565b5b610a80826107df565b9050602081019050919050565b82818337600083830152505050565b6000610aaf610aaa84610a5c565b610a32565b905082815260208101848484011115610acb57610aca610a57565b5b610ad6848285610a8d565b509392505050565b600082601f830112610af357610af2610a52565b5b8135610b03848260208601610a9c565b91505092915050565b600067ffffffffffffffff821115610b2757610b266109d2565b5b602082029050602081019050919050565b600080fd5b6000610b50610b4b84610b0c565b610a32565b90508083825260208201905060208402830185811115610b7357610b72610b38565b5b835b81811015610bba57803567ffffffffffffffff811115610b9857610b97610a52565b5b808601610ba58982610ade565b85526020850194505050602081019050610b75565b5050509392505050565b600082601f830112610bd957610bd8610a52565b5b8135610be9848260208601610b3d565b91505092915050565b600060e08284031215610c0857610c076109cd565b5b610c1260e0610a32565b9050600082013567ffffffffffffffff811115610c3257610c31610a4d565b5b610c3e84828501610ade565b6000830152506020610c5284828501610757565b602083015250604082013567ffffffffffffffff811115610c7657610c75610a4d565b5b610c8284828501610ade565b604083015250606082013567ffffffffffffffff811115610ca657610ca5610a4d565b5b610cb284828501610bc4565b6060830152506080610cc684828501610757565b60808301525060a0610cda84828501610757565b60a08301525060c082013567ffffffffffffffff811115610cfe57610cfd610a4d565b5b610d0a84828501610ade565b60c08301525092915050565b60008060408385031215610d2d57610d2c61072c565b5b6000610d3b85828601610757565b925050602083013567ffffffffffffffff811115610d5c57610d5b610731565b5b610d6885828601610bf2565b9150509250929050565b600082825260208201905092915050565b6000610d8e82610799565b610d988185610d72565b9350610da88185602086016107b5565b610db1816107df565b840191505092915050565b610dc581610736565b82525050565b600060c0820190508181036000830152610de58189610d83565b9050610df46020830188610dbc565b8181036040830152610e068187610d83565b9050610e156060830186610dbc565b610e226080830185610dbc565b81810360a0830152610e348184610d83565b9050979650505050505050565b7f4e487b7100000000000000000000000000000000000000000000000000000000600052602260045260246000fd5b60006002820490506001821680610e8857607f821691505b602082108103610e9b57610e9a610e41565b5b50919050565b60008190508160005260206000209050919050565b60006020601f8301049050919050565b600082821b905092915050565b600060088302610f037fffffffffffffffffffffffffffffffffffffffffffffffffffffffffffffffff82610ec6565b610f0d8683610ec6565b95508019841693508086168417925050509392505050565b6000819050919050565b6000610f4a610f45610f4084610736565b610f25565b610736565b9050919050565b6000819050919050565b610f6483610f2f565b610f78610f7082610f51565b848454610ed3565b825550505050565b600090565b610f8d610f80565b610f98818484610f5b565b505050565b5b81811015610fbc57610fb1600082610f85565b600181019050610f9e565b5050565b601f82111561100157610fd281610ea1565b610fdb84610eb6565b81016020851015610fea578190505b610ffe610ff685610eb6565b830182610f9d565b50505b505050565b600082821c905092915050565b600061102460001984600802611006565b1980831691505092915050565b600061103d8383611013565b9150826002028217905092915050565b61105682610799565b67ffffffffffffffff81111561106f5761106e6109d2565b5b6110798254610e70565b611084828285610fc0565b600060209050601f8311600181146110b757600084156110a5578287015190505b6110af8582611031565b865550611117565b601f1984166110c586610ea1565b60005b828110156110ed578489015182556001820191506020850194506020810190506110c8565b8683101561110a5784890151611106601f891682611013565b8355505b6001600288020188555050505b50505050505056fea264697066735822122061fe5ebb6c8f928fb45ee577f87a01d1fd1e683504c0548d66a7752de97207f564736f6c63430008180033",
  "linkReferences": {},
  "deployedLinkReferences": {}
}