{
  "_format": "hh-sol-artifact-1",
  "contractName": "Review",
  "sourceName": "contracts/Review.sol",
  "abi": [
    {
      "inputs": [
        {
          "internalType": "address",
          "name": "_productAddress",
          "type": "address"
        }
      ],
      "stateMutability": "nonpayable",
      "type": "constructor"
    },
    {
      "anonymous": false,
      "inputs": [
        {
          "indexed": true,
          "internalType": "uint256",
          "name": "productId",
          "type": "uint256"
        },
        {
          "indexed": true,
          "internalType": "address",
          "name": "reviewer",
          "type": "address"
        },
        {
          "indexed": false,
          "internalType": "string",
          "name": "content",
          "type": "string"
        },
        {
          "indexed": false,
          "internalType": "uint256",
          "name": "rating",
          "type": "uint256"
        }
      ],
      "name": "ReviewAdded",
      "type": "event"
    },
    {
      "inputs": [
        {
          "internalType": "address",
          "name": "_reviewer",
          "type": "address"
        },
        {
          "internalType": "uint256",
          "name": "_productId",
          "type": "uint256"
        },
        {
          "internalType": "string",
          "name": "_content",
          "type": "string"
        },
        {
          "internalType": "uint256",
          "name": "_rating",
          "type": "uint256"
        }
      ],
      "name": "addReview",
      "outputs": [],
      "stateMutability": "nonpayable",
      "type": "function"
    },
    {
      "inputs": [
        {
          "internalType": "uint256",
          "name": "_productId",
          "type": "uint256"
        },
        {
          "internalType": "uint256",
          "name": "_reviewId",
          "type": "uint256"
        }
      ],
      "name": "getReview",
      "outputs": [
        {
          "components": [
            {
              "internalType": "address",
              "name": "reviewer",
              "type": "address"
            },
            {
              "internalType": "string",
              "name": "content",
              "type": "string"
            },
            {
              "internalType": "uint256",
              "name": "rating",
              "type": "uint256"
            },
            {
              "internalType": "uint256",
              "name": "timestamp",
              "type": "uint256"
            }
          ],
          "internalType": "struct Review.ReviewInfo",
          "name": "",
          "type": "tuple"
        }
      ],
      "stateMutability": "view",
      "type": "function"
    },
    {
      "inputs": [
        {
          "internalType": "uint256",
          "name": "_productId",
          "type": "uint256"
        },
        {
          "internalType": "uint256",
          "name": "_reviewId",
          "type": "uint256"
        }
      ],
      "name": "getReviewer",
      "outputs": [
        {
          "internalType": "address",
          "name": "",
          "type": "address"
        }
      ],
      "stateMutability": "view",
      "type": "function"
    },
    {
      "inputs": [
        {
          "internalType": "uint256",
          "name": "_productId",
          "type": "uint256"
        }
      ],
      "name": "getReviews",
      "outputs": [
        {
          "components": [
            {
              "internalType": "address",
              "name": "reviewer",
              "type": "address"
            },
            {
              "internalType": "string",
              "name": "content",
              "type": "string"
            },
            {
              "internalType": "uint256",
              "name": "rating",
              "type": "uint256"
            },
            {
              "internalType": "uint256",
              "name": "timestamp",
              "type": "uint256"
            }
          ],
          "internalType": "struct Review.ReviewInfo[]",
          "name": "",
          "type": "tuple[]"
        }
      ],
      "stateMutability": "view",
      "type": "function"
    },
    {
      "inputs": [
        {
          "internalType": "uint256",
          "name": "_productId",
          "type": "uint256"
        }
      ],
      "name": "getReviewsCount",
      "outputs": [
        {
          "internalType": "uint256",
          "name": "",
          "type": "uint256"
        }
      ],
      "stateMutability": "view",
      "type": "function"
    },
    {
      "inputs": [
        {
          "internalType": "uint256",
          "name": "",
          "type": "uint256"
        },
        {
          "internalType": "uint256",
          "name": "",
          "type": "uint256"
        }
      ],
      "name": "productReviews",
      "outputs": [
        {
          "internalType": "address",
          "name": "reviewer",
          "type": "address"
        },
        {
          "internalType": "string",
          "name": "content",
          "type": "string"
        },
        {
          "internalType": "uint256",
          "name": "rating",
          "type": "uint256"
        },
        {
          "internalType": "uint256",
          "name": "timestamp",
          "type": "uint256"
        }
      ],
      "stateMutability": "view",
      "type": "function"
    }
  ],
  "bytecode": "0x60806040523480156200001157600080fd5b50604051620022e4380380620022e48339818101604052810190620000379190620000e8565b806000806101000a81548173ffffffffffffffffffffffffffffffffffffffff021916908373ffffffffffffffffffffffffffffffffffffffff160217905550506200011a565b600080fd5b600073ffffffffffffffffffffffffffffffffffffffff82169050919050565b6000620000b08262000083565b9050919050565b620000c281620000a3565b8114620000ce57600080fd5b50565b600081519050620000e281620000b7565b92915050565b6000602082840312156200010157620001006200007e565b5b60006200011184828501620000d1565b91505092915050565b6121ba806200012a6000396000f3fe608060405234801561001057600080fd5b50600436106100625760003560e01c80637376ccfd1461006757806382bb560b146100975780639d4a2255146100b3578063dcfe3e08146100e3578063dfa505ed14610113578063f2943dce14610143575b600080fd5b610081600480360381019061007c9190610e63565b610176565b60405161008e9190610ee4565b60405180910390f35b6100b160048036038101906100ac9190611071565b61031d565b005b6100cd60048036038101906100c891906110f4565b6106f4565b6040516100da91906112e3565b60405180910390f35b6100fd60048036038101906100f891906110f4565b61094c565b60405161010a9190611314565b60405180910390f35b61012d60048036038101906101289190610e63565b610a56565b60405161013a9190611392565b60405180910390f35b61015d60048036038101906101589190610e63565b610ce6565b60405161016d94939291906113fe565b60405180910390f35b6000828060008054906101000a900473ffffffffffffffffffffffffffffffffffffffff1673ffffffffffffffffffffffffffffffffffffffff1663b9db15b4836040518263ffffffff1660e01b81526004016101d39190611314565b600060405180830381865afa1580156101f0573d6000803e3d6000fd5b505050506040513d6000823e3d601f19601f820116820180604052508101906102199190611bbc565b600001516000015114610261576040517f08c379a000000000000000000000000000000000000000000000000000000000815260040161025890611c51565b60405180910390fd5b8383600160008381526020019081526020016000208054905081106102bb576040517f08c379a00000000000000000000000000000000000000000000000000000000081526004016102b290611cbd565b60405180910390fd5b6001600087815260200190815260200160002085815481106102e0576102df611cdd565b5b906000526020600020906004020160000160009054906101000a900473ffffffffffffffffffffffffffffffffffffffff16935050505092915050565b828060008054906101000a900473ffffffffffffffffffffffffffffffffffffffff1673ffffffffffffffffffffffffffffffffffffffff1663b9db15b4836040518263ffffffff1660e01b81526004016103789190611314565b600060405180830381865afa158015610395573d6000803e3d6000fd5b505050506040513d6000823e3d601f19601f820116820180604052508101906103be9190611bbc565b600001516000015114610406576040517f08c379a00000000000000000000000000000000000000000000000000000000081526004016103fd90611c51565b60405180910390fd5b81600081118015610418575060058111155b610457576040517f08c379a000000000000000000000000000000000000000000000000000000000815260040161044e90611d58565b60405180910390fd5b83600081511161049c576040517f08c379a000000000000000000000000000000000000000000000000000000000815260040161049390611dc4565b60405180910390fd5b85878073ffffffffffffffffffffffffffffffffffffffff1660008054906101000a900473ffffffffffffffffffffffffffffffffffffffff1673ffffffffffffffffffffffffffffffffffffffff1663b9db15b4846040518263ffffffff1660e01b815260040161050e9190611314565b600060405180830381865afa15801561052b573d6000803e3d6000fd5b505050506040513d6000823e3d601f19601f820116820180604052508101906105549190611bbc565b600001516020015173ffffffffffffffffffffffffffffffffffffffff16036105b2576040517f08c379a00000000000000000000000000000000000000000000000000000000081526004016105a990611e56565b60405180910390fd5b6001600089815260200190815260200160002060405180608001604052808b73ffffffffffffffffffffffffffffffffffffffff16815260200189815260200188815260200142815250908060018154018082558091505060019003906000526020600020906004020160009091909190915060008201518160000160006101000a81548173ffffffffffffffffffffffffffffffffffffffff021916908373ffffffffffffffffffffffffffffffffffffffff16021790555060208201518160010190816106819190612082565b50604082015181600201556060820151816003015550508873ffffffffffffffffffffffffffffffffffffffff16887ff5b48fcd3f5e0ef5f6f5a50588fc666bda623b19888849dd6149681e96b6373589896040516106e1929190612154565b60405180910390a3505050505050505050565b6060818060008054906101000a900473ffffffffffffffffffffffffffffffffffffffff1673ffffffffffffffffffffffffffffffffffffffff1663b9db15b4836040518263ffffffff1660e01b81526004016107519190611314565b600060405180830381865afa15801561076e573d6000803e3d6000fd5b505050506040513d6000823e3d601f19601f820116820180604052508101906107979190611bbc565b6000015160000151146107df576040517f08c379a00000000000000000000000000000000000000000000000000000000081526004016107d690611c51565b60405180910390fd5b60016000848152602001908152602001600020805480602002602001604051908101604052809291908181526020016000905b8282101561094057838290600052602060002090600402016040518060800160405290816000820160009054906101000a900473ffffffffffffffffffffffffffffffffffffffff1673ffffffffffffffffffffffffffffffffffffffff1673ffffffffffffffffffffffffffffffffffffffff16815260200160018201805461089b90611ea5565b80601f01602080910402602001604051908101604052809291908181526020018280546108c790611ea5565b80156109145780601f106108e957610100808354040283529160200191610914565b820191906000526020600020905b8154815290600101906020018083116108f757829003601f168201915b505050505081526020016002820154815260200160038201548152505081526020019060010190610812565b50505050915050919050565b6000818060008054906101000a900473ffffffffffffffffffffffffffffffffffffffff1673ffffffffffffffffffffffffffffffffffffffff1663b9db15b4836040518263ffffffff1660e01b81526004016109a99190611314565b600060405180830381865afa1580156109c6573d6000803e3d6000fd5b505050506040513d6000823e3d601f19601f820116820180604052508101906109ef9190611bbc565b600001516000015114610a37576040517f08c379a0000000000000000000000000000000000000000000000000000000008152600401610a2e90611c51565b60405180910390fd5b6001600084815260200190815260200160002080549050915050919050565b610a5e610ddb565b828060008054906101000a900473ffffffffffffffffffffffffffffffffffffffff1673ffffffffffffffffffffffffffffffffffffffff1663b9db15b4836040518263ffffffff1660e01b8152600401610ab99190611314565b600060405180830381865afa158015610ad6573d6000803e3d6000fd5b505050506040513d6000823e3d601f19601f82011682018060405250810190610aff9190611bbc565b600001516000015114610b47576040517f08c379a0000000000000000000000000000000000000000000000000000000008152600401610b3e90611c51565b60405180910390fd5b838360016000838152602001908152602001600020805490508110610ba1576040517f08c379a0000000000000000000000000000000000000000000000000000000008152600401610b9890611cbd565b60405180910390fd5b600160008781526020019081526020016000208581548110610bc657610bc5611cdd565b5b90600052602060002090600402016040518060800160405290816000820160009054906101000a900473ffffffffffffffffffffffffffffffffffffffff1673ffffffffffffffffffffffffffffffffffffffff1673ffffffffffffffffffffffffffffffffffffffff168152602001600182018054610c4590611ea5565b80601f0160208091040260200160405190810160405280929190818152602001828054610c7190611ea5565b8015610cbe5780601f10610c9357610100808354040283529160200191610cbe565b820191906000526020600020905b815481529060010190602001808311610ca157829003601f168201915b5050505050815260200160028201548152602001600382015481525050935050505092915050565b60016020528160005260406000208181548110610d0257600080fd5b9060005260206000209060040201600091509150508060000160009054906101000a900473ffffffffffffffffffffffffffffffffffffffff1690806001018054610d4c90611ea5565b80601f0160208091040260200160405190810160405280929190818152602001828054610d7890611ea5565b8015610dc55780601f10610d9a57610100808354040283529160200191610dc5565b820191906000526020600020905b815481529060010190602001808311610da857829003601f168201915b5050505050908060020154908060030154905084565b6040518060800160405280600073ffffffffffffffffffffffffffffffffffffffff1681526020016060815260200160008152602001600081525090565b6000604051905090565b600080fd5b600080fd5b6000819050919050565b610e4081610e2d565b8114610e4b57600080fd5b50565b600081359050610e5d81610e37565b92915050565b60008060408385031215610e7a57610e79610e23565b5b6000610e8885828601610e4e565b9250506020610e9985828601610e4e565b9150509250929050565b600073ffffffffffffffffffffffffffffffffffffffff82169050919050565b6000610ece82610ea3565b9050919050565b610ede81610ec3565b82525050565b6000602082019050610ef96000830184610ed5565b92915050565b610f0881610ec3565b8114610f1357600080fd5b50565b600081359050610f2581610eff565b92915050565b600080fd5b600080fd5b6000601f19601f8301169050919050565b7f4e487b7100000000000000000000000000000000000000000000000000000000600052604160045260246000fd5b610f7e82610f35565b810181811067ffffffffffffffff82111715610f9d57610f9c610f46565b5b80604052505050565b6000610fb0610e19565b9050610fbc8282610f75565b919050565b600067ffffffffffffffff821115610fdc57610fdb610f46565b5b610fe582610f35565b9050602081019050919050565b82818337600083830152505050565b600061101461100f84610fc1565b610fa6565b9050828152602081018484840111156110305761102f610f30565b5b61103b848285610ff2565b509392505050565b600082601f83011261105857611057610f2b565b5b8135611068848260208601611001565b91505092915050565b6000806000806080858703121561108b5761108a610e23565b5b600061109987828801610f16565b94505060206110aa87828801610e4e565b935050604085013567ffffffffffffffff8111156110cb576110ca610e28565b5b6110d787828801611043565b92505060606110e887828801610e4e565b91505092959194509250565b60006020828403121561110a57611109610e23565b5b600061111884828501610e4e565b91505092915050565b600081519050919050565b600082825260208201905092915050565b6000819050602082019050919050565b61115681610ec3565b82525050565b600081519050919050565b600082825260208201905092915050565b60005b8381101561119657808201518184015260208101905061117b565b60008484015250505050565b60006111ad8261115c565b6111b78185611167565b93506111c7818560208601611178565b6111d081610f35565b840191505092915050565b6111e481610e2d565b82525050565b6000608083016000830151611202600086018261114d565b506020830151848203602086015261121a82826111a2565b915050604083015161122f60408601826111db565b50606083015161124260608601826111db565b508091505092915050565b600061125983836111ea565b905092915050565b6000602082019050919050565b600061127982611121565b611283818561112c565b9350836020820285016112958561113d565b8060005b858110156112d157848403895281516112b2858261124d565b94506112bd83611261565b925060208a01995050600181019050611299565b50829750879550505050505092915050565b600060208201905081810360008301526112fd818461126e565b905092915050565b61130e81610e2d565b82525050565b60006020820190506113296000830184611305565b92915050565b6000608083016000830151611347600086018261114d565b506020830151848203602086015261135f82826111a2565b915050604083015161137460408601826111db565b50606083015161138760608601826111db565b508091505092915050565b600060208201905081810360008301526113ac818461132f565b905092915050565b600082825260208201905092915050565b60006113d08261115c565b6113da81856113b4565b93506113ea818560208601611178565b6113f381610f35565b840191505092915050565b60006080820190506114136000830187610ed5565b818103602083015261142581866113c5565b90506114346040830185611305565b6114416060830184611305565b95945050505050565b600080fd5b600080fd5b60008151905061146381610e37565b92915050565b60008151905061147881610eff565b92915050565b600061149161148c84610fc1565b610fa6565b9050828152602081018484840111156114ad576114ac610f30565b5b6114b8848285611178565b509392505050565b600082601f8301126114d5576114d4610f2b565b5b81516114e584826020860161147e565b91505092915050565b60008115159050919050565b611503816114ee565b811461150e57600080fd5b50565b600081519050611520816114fa565b92915050565b6000610220828403121561153d5761153c61144a565b5b611548610220610fa6565b9050600082015167ffffffffffffffff8111156115685761156761144f565b5b611574848285016114c0565b600083015250602082015167ffffffffffffffff8111156115985761159761144f565b5b6115a4848285016114c0565b602083015250604082015167ffffffffffffffff8111156115c8576115c761144f565b5b6115d4848285016114c0565b604083015250606082015167ffffffffffffffff8111156115f8576115f761144f565b5b611604848285016114c0565b606083015250608082015167ffffffffffffffff8111156116285761162761144f565b5b611634848285016114c0565b60808301525060a061164884828501611511565b60a08301525060c082015167ffffffffffffffff81111561166c5761166b61144f565b5b611678848285016114c0565b60c08301525060e082015167ffffffffffffffff81111561169c5761169b61144f565b5b6116a8848285016114c0565b60e08301525061010082015167ffffffffffffffff8111156116cd576116cc61144f565b5b6116d9848285016114c0565b6101008301525061012082015167ffffffffffffffff8111156116ff576116fe61144f565b5b61170b848285016114c0565b6101208301525061014061172184828501611511565b6101408301525061016082015167ffffffffffffffff8111156117475761174661144f565b5b611753848285016114c0565b6101608301525061018082015167ffffffffffffffff8111156117795761177861144f565b5b611785848285016114c0565b610180830152506101a082015167ffffffffffffffff8111156117ab576117aa61144f565b5b6117b7848285016114c0565b6101a0830152506101c082015167ffffffffffffffff8111156117dd576117dc61144f565b5b6117e9848285016114c0565b6101c0830152506101e082015167ffffffffffffffff81111561180f5761180e61144f565b5b61181b848285016114c0565b6101e08301525061020082015167ffffffffffffffff8111156118415761184061144f565b5b61184d848285016114c0565b6102008301525092915050565b600060c082840312156118705761186f61144a565b5b61187a60c0610fa6565b9050600061188a84828501611454565b600083015250602061189e84828501611469565b602083015250604082015167ffffffffffffffff8111156118c2576118c161144f565b5b6118ce84828501611526565b60408301525060606118e284828501611454565b60608301525060806118f684828501611511565b60808301525060a061190a84828501611454565b60a08301525092915050565b600067ffffffffffffffff82111561193157611930610f46565b5b602082029050602081019050919050565b600080fd5b600061195a61195584611916565b610fa6565b9050808382526020820190506020840283018581111561197d5761197c611942565b5b835b818110156119c457805167ffffffffffffffff8111156119a2576119a1610f2b565b5b8086016119af89826114c0565b8552602085019450505060208101905061197f565b5050509392505050565b600082601f8301126119e3576119e2610f2b565b5b81516119f3848260208601611947565b91505092915050565b600060e08284031215611a1257611a1161144a565b5b611a1c60e0610fa6565b9050600082015167ffffffffffffffff811115611a3c57611a3b61144f565b5b611a48848285016114c0565b6000830152506020611a5c84828501611454565b602083015250604082015167ffffffffffffffff811115611a8057611a7f61144f565b5b611a8c848285016114c0565b604083015250606082015167ffffffffffffffff811115611ab057611aaf61144f565b5b611abc848285016119ce565b6060830152506080611ad084828501611454565b60808301525060a0611ae484828501611454565b60a08301525060c082015167ffffffffffffffff811115611b0857611b0761144f565b5b611b14848285016114c0565b60c08301525092915050565b600060608284031215611b3657611b3561144a565b5b611b406060610fa6565b9050600082015167ffffffffffffffff811115611b6057611b5f61144f565b5b611b6c8482850161185a565b600083015250602082015167ffffffffffffffff811115611b9057611b8f61144f565b5b611b9c848285016119fc565b6020830152506040611bb084828501611511565b60408301525092915050565b600060208284031215611bd257611bd1610e23565b5b600082015167ffffffffffffffff811115611bf057611bef610e28565b5b611bfc84828501611b20565b91505092915050565b7f50726f6475637420646f6573206e6f7420657869737400000000000000000000600082015250565b6000611c3b6016836113b4565b9150611c4682611c05565b602082019050919050565b60006020820190508181036000830152611c6a81611c2e565b9050919050565b7f52657669657720646f6573206e6f742065786973740000000000000000000000600082015250565b6000611ca76015836113b4565b9150611cb282611c71565b602082019050919050565b60006020820190508181036000830152611cd681611c9a565b9050919050565b7f4e487b7100000000000000000000000000000000000000000000000000000000600052603260045260246000fd5b7f526174696e67206d757374206265206265747765656e203120616e6420350000600082015250565b6000611d42601e836113b4565b9150611d4d82611d0c565b602082019050919050565b60006020820190508181036000830152611d7181611d35565b9050919050565b7f52657669657720636f6e74656e742063616e6e6f7420626520656d7074790000600082015250565b6000611dae601e836113b4565b9150611db982611d78565b602082019050919050565b60006020820190508181036000830152611ddd81611da1565b9050919050565b7f50726f64756374206f776e65722063616e6e6f7420726576696577207468656960008201527f72206f776e2070726f6475637400000000000000000000000000000000000000602082015250565b6000611e40602d836113b4565b9150611e4b82611de4565b604082019050919050565b60006020820190508181036000830152611e6f81611e33565b9050919050565b7f4e487b7100000000000000000000000000000000000000000000000000000000600052602260045260246000fd5b60006002820490506001821680611ebd57607f821691505b602082108103611ed057611ecf611e76565b5b50919050565b60008190508160005260206000209050919050565b60006020601f8301049050919050565b600082821b905092915050565b600060088302611f387fffffffffffffffffffffffffffffffffffffffffffffffffffffffffffffffff82611efb565b611f428683611efb565b95508019841693508086168417925050509392505050565b6000819050919050565b6000611f7f611f7a611f7584610e2d565b611f5a565b610e2d565b9050919050565b6000819050919050565b611f9983611f64565b611fad611fa582611f86565b848454611f08565b825550505050565b600090565b611fc2611fb5565b611fcd818484611f90565b505050565b5b81811015611ff157611fe6600082611fba565b600181019050611fd3565b5050565b601f8211156120365761200781611ed6565b61201084611eeb565b8101602085101561201f578190505b61203361202b85611eeb565b830182611fd2565b50505b505050565b600082821c905092915050565b60006120596000198460080261203b565b1980831691505092915050565b60006120728383612048565b9150826002028217905092915050565b61208b8261115c565b67ffffffffffffffff8111156120a4576120a3610f46565b5b6120ae8254611ea5565b6120b9828285611ff5565b600060209050601f8311600181146120ec57600084156120da578287015190505b6120e48582612066565b86555061214c565b601f1984166120fa86611ed6565b60005b82811015612122578489015182556001820191506020850194506020810190506120fd565b8683101561213f578489015161213b601f891682612048565b8355505b6001600288020188555050505b505050505050565b6000604082019050818103600083015261216e81856113c5565b905061217d6020830184611305565b939250505056fea2646970667358221220fa4be45462329aee07ea420a4226cbad4922b5c648162fe22cdc0cc98343e65464736f6c63430008180033",
  "linkReferences": {},
  "deployedLinkReferences": {}
}