{
  "_format": "hh-sol-artifact-1",
  "contractName": "Product",
  "sourceName": "contracts/Product.sol",
  "abi": [
    {
      "inputs": [
        {
          "internalType": "address",
          "name": "initialOwner",
          "type": "address"
        }
      ],
      "stateMutability": "nonpayable",
      "type": "constructor"
    },
    {
      "inputs": [
        {
          "internalType": "address",
          "name": "owner",
          "type": "address"
        }
      ],
      "name": "OwnableInvalidOwner",
      "type": "error"
    },
    {
      "inputs": [
        {
          "internalType": "address",
          "name": "account",
          "type": "address"
        }
      ],
      "name": "OwnableUnauthorizedAccount",
      "type": "error"
    },
    {
      "anonymous": false,
      "inputs": [
        {
          "indexed": true,
          "internalType": "uint256",
          "name": "productId",
          "type": "uint256"
        },
        {
          "indexed": false,
          "internalType": "string",
          "name": "betaTestingLink",
          "type": "string"
        }
      ],
      "name": "BetaTestingLinkUpdated",
      "type": "event"
    },
    {
      "anonymous": false,
      "inputs": [
        {
          "indexed": true,
          "internalType": "address",
          "name": "previousOwner",
          "type": "address"
        },
        {
          "indexed": true,
          "internalType": "address",
          "name": "newOwner",
          "type": "address"
        }
      ],
      "name": "OwnershipTransferred",
      "type": "event"
    },
    {
      "anonymous": false,
      "inputs": [
        {
          "indexed": true,
          "internalType": "uint256",
          "name": "productId",
          "type": "uint256"
        },
        {
          "indexed": true,
          "internalType": "address",
          "name": "owner",
          "type": "address"
        },
        {
          "indexed": false,
          "internalType": "string",
          "name": "productName",
          "type": "string"
        },
        {
          "indexed": false,
          "internalType": "string",
          "name": "description",
          "type": "string"
        }
      ],
      "name": "ProductRegistered",
      "type": "event"
    },
    {
      "anonymous": false,
      "inputs": [
        {
          "indexed": true,
          "internalType": "uint256",
          "name": "productId",
          "type": "uint256"
        },
        {
          "indexed": true,
          "internalType": "address",
          "name": "user",
          "type": "address"
        }
      ],
      "name": "ProductUpvoted",
      "type": "event"
    },
    {
      "inputs": [
        {
          "internalType": "uint256",
          "name": "_productId",
          "type": "uint256"
        }
      ],
      "name": "canBeListed",
      "outputs": [
        {
          "internalType": "bool",
          "name": "",
          "type": "bool"
        }
      ],
      "stateMutability": "view",
      "type": "function"
    },
    {
      "inputs": [
        {
          "internalType": "uint256",
          "name": "start",
          "type": "uint256"
        },
        {
          "internalType": "uint256",
          "name": "count",
          "type": "uint256"
        }
      ],
      "name": "getListedProducts",
      "outputs": [
        {
          "components": [
            {
              "internalType": "uint256",
              "name": "id",
              "type": "uint256"
            },
            {
              "internalType": "address",
              "name": "owner",
              "type": "address"
            },
            {
              "components": [
                {
                  "internalType": "string",
                  "name": "productName",
                  "type": "string"
                },
                {
                  "internalType": "string",
                  "name": "tagLine",
                  "type": "string"
                },
                {
                  "internalType": "string",
                  "name": "productLink",
                  "type": "string"
                },
                {
                  "internalType": "string",
                  "name": "twitterLink",
                  "type": "string"
                },
                {
                  "internalType": "string",
                  "name": "description",
                  "type": "string"
                },
                {
                  "internalType": "bool",
                  "name": "isOpenSource",
                  "type": "bool"
                },
                {
                  "internalType": "string",
                  "name": "category",
                  "type": "string"
                },
                {
                  "internalType": "string",
                  "name": "thumbNail",
                  "type": "string"
                },
                {
                  "internalType": "string",
                  "name": "mediaFile",
                  "type": "string"
                },
                {
                  "internalType": "string",
                  "name": "loomLink",
                  "type": "string"
                },
                {
                  "internalType": "bool",
                  "name": "workedWithTeam",
                  "type": "bool"
                },
                {
                  "internalType": "string",
                  "name": "teamMembersInput",
                  "type": "string"
                },
                {
                  "internalType": "string",
                  "name": "pricingOption",
                  "type": "string"
                },
                {
                  "internalType": "string",
                  "name": "offer",
                  "type": "string"
                },
                {
                  "internalType": "string",
                  "name": "promoCode",
                  "type": "string"
                },
                {
                  "internalType": "string",
                  "name": "expirationDate",
                  "type": "string"
                },
                {
                  "internalType": "string",
                  "name": "betaTestingLink",
                  "type": "string"
                }
              ],
              "internalType": "struct Product.ProductDetails",
              "name": "details",
              "type": "tuple"
            },
            {
              "internalType": "uint256",
              "name": "upvotes",
              "type": "uint256"
            },
            {
              "internalType": "bool",
              "name": "betaTestingAvailable",
              "type": "bool"
            },
            {
              "internalType": "uint256",
              "name": "timestamp",
              "type": "uint256"
            }
          ],
          "internalType": "struct Product.ProductInfo[]",
          "name": "",
          "type": "tuple[]"
        }
      ],
      "stateMutability": "view",
      "type": "function"
    },
    {
      "inputs": [
        {
          "internalType": "uint256",
          "name": "_productId",
          "type": "uint256"
        }
      ],
      "name": "getProduct",
      "outputs": [
        {
          "components": [
            {
              "internalType": "uint256",
              "name": "id",
              "type": "uint256"
            },
            {
              "internalType": "address",
              "name": "owner",
              "type": "address"
            },
            {
              "components": [
                {
                  "internalType": "string",
                  "name": "productName",
                  "type": "string"
                },
                {
                  "internalType": "string",
                  "name": "tagLine",
                  "type": "string"
                },
                {
                  "internalType": "string",
                  "name": "productLink",
                  "type": "string"
                },
                {
                  "internalType": "string",
                  "name": "twitterLink",
                  "type": "string"
                },
                {
                  "internalType": "string",
                  "name": "description",
                  "type": "string"
                },
                {
                  "internalType": "bool",
                  "name": "isOpenSource",
                  "type": "bool"
                },
                {
                  "internalType": "string",
                  "name": "category",
                  "type": "string"
                },
                {
                  "internalType": "string",
                  "name": "thumbNail",
                  "type": "string"
                },
                {
                  "internalType": "string",
                  "name": "mediaFile",
                  "type": "string"
                },
                {
                  "internalType": "string",
                  "name": "loomLink",
                  "type": "string"
                },
                {
                  "internalType": "bool",
                  "name": "workedWithTeam",
                  "type": "bool"
                },
                {
                  "internalType": "string",
                  "name": "teamMembersInput",
                  "type": "string"
                },
                {
                  "internalType": "string",
                  "name": "pricingOption",
                  "type": "string"
                },
                {
                  "internalType": "string",
                  "name": "offer",
                  "type": "string"
                },
                {
                  "internalType": "string",
                  "name": "promoCode",
                  "type": "string"
                },
                {
                  "internalType": "string",
                  "name": "expirationDate",
                  "type": "string"
                },
                {
                  "internalType": "string",
                  "name": "betaTestingLink",
                  "type": "string"
                }
              ],
              "internalType": "struct Product.ProductDetails",
              "name": "details",
              "type": "tuple"
            },
            {
              "internalType": "uint256",
              "name": "upvotes",
              "type": "uint256"
            },
            {
              "internalType": "bool",
              "name": "betaTestingAvailable",
              "type": "bool"
            },
            {
              "internalType": "uint256",
              "name": "timestamp",
              "type": "uint256"
            }
          ],
          "internalType": "struct Product.ProductInfo",
          "name": "",
          "type": "tuple"
        }
      ],
      "stateMutability": "view",
      "type": "function"
    },
    {
      "inputs": [
        {
          "internalType": "uint256",
          "name": "",
          "type": "uint256"
        },
        {
          "internalType": "address",
          "name": "",
          "type": "address"
        }
      ],
      "name": "hasUpvoted",
      "outputs": [
        {
          "internalType": "bool",
          "name": "",
          "type": "bool"
        }
      ],
      "stateMutability": "view",
      "type": "function"
    },
    {
      "inputs": [],
      "name": "owner",
      "outputs": [
        {
          "internalType": "address",
          "name": "",
          "type": "address"
        }
      ],
      "stateMutability": "view",
      "type": "function"
    },
    {
      "inputs": [
        {
          "internalType": "uint256",
          "name": "",
          "type": "uint256"
        }
      ],
      "name": "products",
      "outputs": [
        {
          "internalType": "uint256",
          "name": "id",
          "type": "uint256"
        },
        {
          "internalType": "address",
          "name": "owner",
          "type": "address"
        },
        {
          "components": [
            {
              "internalType": "string",
              "name": "productName",
              "type": "string"
            },
            {
              "internalType": "string",
              "name": "tagLine",
              "type": "string"
            },
            {
              "internalType": "string",
              "name": "productLink",
              "type": "string"
            },
            {
              "internalType": "string",
              "name": "twitterLink",
              "type": "string"
            },
            {
              "internalType": "string",
              "name": "description",
              "type": "string"
            },
            {
              "internalType": "bool",
              "name": "isOpenSource",
              "type": "bool"
            },
            {
              "internalType": "string",
              "name": "category",
              "type": "string"
            },
            {
              "internalType": "string",
              "name": "thumbNail",
              "type": "string"
            },
            {
              "internalType": "string",
              "name": "mediaFile",
              "type": "string"
            },
            {
              "internalType": "string",
              "name": "loomLink",
              "type": "string"
            },
            {
              "internalType": "bool",
              "name": "workedWithTeam",
              "type": "bool"
            },
            {
              "internalType": "string",
              "name": "teamMembersInput",
              "type": "string"
            },
            {
              "internalType": "string",
              "name": "pricingOption",
              "type": "string"
            },
            {
              "internalType": "string",
              "name": "offer",
              "type": "string"
            },
            {
              "internalType": "string",
              "name": "promoCode",
              "type": "string"
            },
            {
              "internalType": "string",
              "name": "expirationDate",
              "type": "string"
            },
            {
              "internalType": "string",
              "name": "betaTestingLink",
              "type": "string"
            }
          ],
          "internalType": "struct Product.ProductDetails",
          "name": "details",
          "type": "tuple"
        },
        {
          "internalType": "uint256",
          "name": "upvotes",
          "type": "uint256"
        },
        {
          "internalType": "bool",
          "name": "betaTestingAvailable",
          "type": "bool"
        },
        {
          "internalType": "uint256",
          "name": "timestamp",
          "type": "uint256"
        }
      ],
      "stateMutability": "view",
      "type": "function"
    },
    {
      "inputs": [
        {
          "internalType": "address",
          "name": "_owner",
          "type": "address"
        },
        {
          "components": [
            {
              "internalType": "string",
              "name": "productName",
              "type": "string"
            },
            {
              "internalType": "string",
              "name": "tagLine",
              "type": "string"
            },
            {
              "internalType": "string",
              "name": "productLink",
              "type": "string"
            },
            {
              "internalType": "string",
              "name": "twitterLink",
              "type": "string"
            },
            {
              "internalType": "string",
              "name": "description",
              "type": "string"
            },
            {
              "internalType": "bool",
              "name": "isOpenSource",
              "type": "bool"
            },
            {
              "internalType": "string",
              "name": "category",
              "type": "string"
            },
            {
              "internalType": "string",
              "name": "thumbNail",
              "type": "string"
            },
            {
              "internalType": "string",
              "name": "mediaFile",
              "type": "string"
            },
            {
              "internalType": "string",
              "name": "loomLink",
              "type": "string"
            },
            {
              "internalType": "bool",
              "name": "workedWithTeam",
              "type": "bool"
            },
            {
              "internalType": "string",
              "name": "teamMembersInput",
              "type": "string"
            },
            {
              "internalType": "string",
              "name": "pricingOption",
              "type": "string"
            },
            {
              "internalType": "string",
              "name": "offer",
              "type": "string"
            },
            {
              "internalType": "string",
              "name": "promoCode",
              "type": "string"
            },
            {
              "internalType": "string",
              "name": "expirationDate",
              "type": "string"
            },
            {
              "internalType": "string",
              "name": "betaTestingLink",
              "type": "string"
            }
          ],
          "internalType": "struct Product.ProductDetails",
          "name": "details",
          "type": "tuple"
        }
      ],
      "name": "registerProduct",
      "outputs": [],
      "stateMutability": "nonpayable",
      "type": "function"
    },
    {
      "inputs": [],
      "name": "renounceOwnership",
      "outputs": [],
      "stateMutability": "nonpayable",
      "type": "function"
    },
    {
      "inputs": [
        {
          "internalType": "address",
          "name": "newOwner",
          "type": "address"
        }
      ],
      "name": "transferOwnership",
      "outputs": [],
      "stateMutability": "nonpayable",
      "type": "function"
    },
    {
      "inputs": [
        {
          "internalType": "uint256",
          "name": "_productId",
          "type": "uint256"
        },
        {
          "internalType": "string",
          "name": "_betaTestingLink",
          "type": "string"
        }
      ],
      "name": "updateBetaTestingLink",
      "outputs": [],
      "stateMutability": "nonpayable",
      "type": "function"
    },
    {
      "inputs": [
        {
          "internalType": "uint256",
          "name": "productId",
          "type": "uint256"
        },
        {
          "internalType": "address",
          "name": "upvoter",
          "type": "address"
        }
      ],
      "name": "upvoteProduct",
      "outputs": [],
      "stateMutability": "nonpayable",
      "type": "function"
    }
  ],
  "bytecode": "0x60806040523480156200001157600080fd5b5060405162004bad38038062004bad8339818101604052810190620000379190620001f4565b80600073ffffffffffffffffffffffffffffffffffffffff168173ffffffffffffffffffffffffffffffffffffffff1603620000ad5760006040517f1e4fbdf7000000000000000000000000000000000000000000000000000000008152600401620000a4919062000237565b60405180910390fd5b620000be81620000c660201b60201c565b505062000254565b60008060009054906101000a900473ffffffffffffffffffffffffffffffffffffffff169050816000806101000a81548173ffffffffffffffffffffffffffffffffffffffff021916908373ffffffffffffffffffffffffffffffffffffffff1602179055508173ffffffffffffffffffffffffffffffffffffffff168173ffffffffffffffffffffffffffffffffffffffff167f8be0079c531659141344cd1fd0a4f28419497f9722a3daafe3b4186f6b6457e060405160405180910390a35050565b600080fd5b600073ffffffffffffffffffffffffffffffffffffffff82169050919050565b6000620001bc826200018f565b9050919050565b620001ce81620001af565b8114620001da57600080fd5b50565b600081519050620001ee81620001c3565b92915050565b6000602082840312156200020d576200020c6200018a565b5b60006200021d84828501620001dd565b91505092915050565b6200023181620001af565b82525050565b60006020820190506200024e600083018462000226565b92915050565b61494980620002646000396000f3fe608060405234801561001057600080fd5b50600436106100a95760003560e01c80637acc0b20116100715780637acc0b201461013c5780638da5cb5b14610171578063a52c86581461018f578063b9db15b4146101bf578063f1c88b4b146101ef578063f2fde38b1461021f576100a9565b806355110f14146100ae578063577ac4af146100ca57806363283c84146100e65780636a1a7e0e14610102578063715018a614610132575b600080fd5b6100c860048036038101906100c39190613603565b61023b565b005b6100e460048036038101906100df9190613a33565b6103d0565b005b61010060048036038101906100fb9190613a8f565b6106d5565b005b61011c60048036038101906101179190613acf565b610956565b6040516101299190613ed5565b60405180910390f35b61013a611412565b005b61015660048036038101906101519190613ef7565b611426565b60405161016896959493929190614120565b60405180910390f35b610179611d5e565b6040516101869190614188565b60405180910390f35b6101a960048036038101906101a49190613a8f565b611d87565b6040516101b691906141a3565b60405180910390f35b6101d960048036038101906101d49190613ef7565b611db6565b6040516101e69190614247565b60405180910390f35b61020960048036038101906102049190613ef7565b6127a5565b60405161021691906141a3565b60405180910390f35b61023960048036038101906102349190614269565b6131be565b005b8180600260008381526020019081526020016000206000015414610294576040517f08c379a000000000000000000000000000000000000000000000000000000000815260040161028b906142f3565b60405180910390fd5b823373ffffffffffffffffffffffffffffffffffffffff166002600083815260200190815260200160002060010160009054906101000a900473ffffffffffffffffffffffffffffffffffffffff1673ffffffffffffffffffffffffffffffffffffffff1614610339576040517f08c379a000000000000000000000000000000000000000000000000000000000815260040161033090614385565b60405180910390fd5b8260026000868152602001908152602001600020600201601001908161035f91906145b1565b5060008351116002600086815260200190815260200160002060140160006101000a81548160ff021916908315150217905550837f60b68b8d9dde04a1c7a3c8b7c6631c84bca71372b9f129b0958fd4d901a57e53846040516103c291906146bc565b60405180910390a250505050565b600160008154809291906103e39061470d565b9190505550600060015490506040518060c001604052808281526020018473ffffffffffffffffffffffffffffffffffffffff16815260200183815260200160008152602001600084610200015151111515815260200142815250600260008381526020019081526020016000206000820151816000015560208201518160010160006101000a81548173ffffffffffffffffffffffffffffffffffffffff021916908373ffffffffffffffffffffffffffffffffffffffff16021790555060408201518160020160008201518160000190816104c091906145b1565b5060208201518160010190816104d691906145b1565b5060408201518160020190816104ec91906145b1565b50606082015181600301908161050291906145b1565b50608082015181600401908161051891906145b1565b5060a08201518160050160006101000a81548160ff02191690831515021790555060c082015181600601908161054e91906145b1565b5060e082015181600701908161056491906145b1565b5061010082015181600801908161057b91906145b1565b5061012082015181600901908161059291906145b1565b5061014082015181600a0160006101000a81548160ff02191690831515021790555061016082015181600b0190816105ca91906145b1565b5061018082015181600c0190816105e191906145b1565b506101a082015181600d0190816105f891906145b1565b506101c082015181600e01908161060f91906145b1565b506101e082015181600f01908161062691906145b1565b5061020082015181601001908161063d91906145b1565b5050506060820151816013015560808201518160140160006101000a81548160ff02191690831515021790555060a082015181601501559050508273ffffffffffffffffffffffffffffffffffffffff16817fb5744bf87060f3c128bd7ec7c73734981e2525b5958bd63d50320e2e282fb757846000015185608001516040516106c8929190614755565b60405180910390a3505050565b818060026000838152602001908152602001600020600001541461072e576040517f08c379a0000000000000000000000000000000000000000000000000000000008152600401610725906142f3565b60405180910390fd5b82828073ffffffffffffffffffffffffffffffffffffffff166002600084815260200190815260200160002060010160009054906101000a900473ffffffffffffffffffffffffffffffffffffffff1673ffffffffffffffffffffffffffffffffffffffff16036107d4576040517f08c379a00000000000000000000000000000000000000000000000000000000081526004016107cb906147fe565b60405180910390fd5b84846003600083815260200190815260200160002060008273ffffffffffffffffffffffffffffffffffffffff1673ffffffffffffffffffffffffffffffffffffffff16815260200190815260200160002060009054906101000a900460ff1615610874576040517f08c379a000000000000000000000000000000000000000000000000000000000815260040161086b90614890565b60405180910390fd5b60026000888152602001908152602001600020601301600081548092919061089b9061470d565b919050555060016003600089815260200190815260200160002060008873ffffffffffffffffffffffffffffffffffffffff1673ffffffffffffffffffffffffffffffffffffffff16815260200190815260200160002060006101000a81548160ff0219169083151502179055508573ffffffffffffffffffffffffffffffffffffffff16877f956f0f479292addd89f768b4b97612f546f78aae3d2b8a416a19c8b5b610b40560405160405180910390a350505050505050565b60606000808490505b838561096b91906148b0565b8110801561097b57506001548111155b156109b057610989816127a5565b1561099d5781806109999061470d565b9250505b80806109a89061470d565b91505061095f565b5060008167ffffffffffffffff8111156109cd576109cc6134d8565b5b604051908082528060200260200182016040528015610a0657816020015b6109f3613397565b8152602001906001900390816109eb5790505b5090506000808690505b8587610a1c91906148b0565b81108015610a2c57506001548111155b1561140557610a3a816127a5565b156113f257600260008281526020019081526020016000206040518060c0016040529081600082015481526020016001820160009054906101000a900473ffffffffffffffffffffffffffffffffffffffff1673ffffffffffffffffffffffffffffffffffffffff1673ffffffffffffffffffffffffffffffffffffffff1681526020016002820160405180610220016040529081600082018054610ade906143d4565b80601f0160208091040260200160405190810160405280929190818152602001828054610b0a906143d4565b8015610b575780601f10610b2c57610100808354040283529160200191610b57565b820191906000526020600020905b815481529060010190602001808311610b3a57829003601f168201915b50505050508152602001600182018054610b70906143d4565b80601f0160208091040260200160405190810160405280929190818152602001828054610b9c906143d4565b8015610be95780601f10610bbe57610100808354040283529160200191610be9565b820191906000526020600020905b815481529060010190602001808311610bcc57829003601f168201915b50505050508152602001600282018054610c02906143d4565b80601f0160208091040260200160405190810160405280929190818152602001828054610c2e906143d4565b8015610c7b5780601f10610c5057610100808354040283529160200191610c7b565b820191906000526020600020905b815481529060010190602001808311610c5e57829003601f168201915b50505050508152602001600382018054610c94906143d4565b80601f0160208091040260200160405190810160405280929190818152602001828054610cc0906143d4565b8015610d0d5780601f10610ce257610100808354040283529160200191610d0d565b820191906000526020600020905b815481529060010190602001808311610cf057829003601f168201915b50505050508152602001600482018054610d26906143d4565b80601f0160208091040260200160405190810160405280929190818152602001828054610d52906143d4565b8015610d9f5780601f10610d7457610100808354040283529160200191610d9f565b820191906000526020600020905b815481529060010190602001808311610d8257829003601f168201915b505050505081526020016005820160009054906101000a900460ff16151515158152602001600682018054610dd3906143d4565b80601f0160208091040260200160405190810160405280929190818152602001828054610dff906143d4565b8015610e4c5780601f10610e2157610100808354040283529160200191610e4c565b820191906000526020600020905b815481529060010190602001808311610e2f57829003601f168201915b50505050508152602001600782018054610e65906143d4565b80601f0160208091040260200160405190810160405280929190818152602001828054610e91906143d4565b8015610ede5780601f10610eb357610100808354040283529160200191610ede565b820191906000526020600020905b815481529060010190602001808311610ec157829003601f168201915b50505050508152602001600882018054610ef7906143d4565b80601f0160208091040260200160405190810160405280929190818152602001828054610f23906143d4565b8015610f705780601f10610f4557610100808354040283529160200191610f70565b820191906000526020600020905b815481529060010190602001808311610f5357829003601f168201915b50505050508152602001600982018054610f89906143d4565b80601f0160208091040260200160405190810160405280929190818152602001828054610fb5906143d4565b80156110025780601f10610fd757610100808354040283529160200191611002565b820191906000526020600020905b815481529060010190602001808311610fe557829003601f168201915b50505050508152602001600a820160009054906101000a900460ff16151515158152602001600b82018054611036906143d4565b80601f0160208091040260200160405190810160405280929190818152602001828054611062906143d4565b80156110af5780601f10611084576101008083540402835291602001916110af565b820191906000526020600020905b81548152906001019060200180831161109257829003601f168201915b50505050508152602001600c820180546110c8906143d4565b80601f01602080910402602001604051908101604052809291908181526020018280546110f4906143d4565b80156111415780601f1061111657610100808354040283529160200191611141565b820191906000526020600020905b81548152906001019060200180831161112457829003601f168201915b50505050508152602001600d8201805461115a906143d4565b80601f0160208091040260200160405190810160405280929190818152602001828054611186906143d4565b80156111d35780601f106111a8576101008083540402835291602001916111d3565b820191906000526020600020905b8154815290600101906020018083116111b657829003601f168201915b50505050508152602001600e820180546111ec906143d4565b80601f0160208091040260200160405190810160405280929190818152602001828054611218906143d4565b80156112655780601f1061123a57610100808354040283529160200191611265565b820191906000526020600020905b81548152906001019060200180831161124857829003601f168201915b50505050508152602001600f8201805461127e906143d4565b80601f01602080910402602001604051908101604052809291908181526020018280546112aa906143d4565b80156112f75780601f106112cc576101008083540402835291602001916112f7565b820191906000526020600020905b8154815290600101906020018083116112da57829003601f168201915b50505050508152602001601082018054611310906143d4565b80601f016020809104026020016040519081016040528092919081815260200182805461133c906143d4565b80156113895780601f1061135e57610100808354040283529160200191611389565b820191906000526020600020905b81548152906001019060200180831161136c57829003601f168201915b5050505050815250508152602001601382015481526020016014820160009054906101000a900460ff161515151581526020016015820154815250508383815181106113d8576113d76148e4565b5b602002602001018190525081806113ee9061470d565b9250505b80806113fd9061470d565b915050610a10565b5081935050505092915050565b61141a613244565b61142460006132cb565b565b60026020528060005260406000206000915090508060000154908060010160009054906101000a900473ffffffffffffffffffffffffffffffffffffffff16908060020160405180610220016040529081600082018054611486906143d4565b80601f01602080910402602001604051908101604052809291908181526020018280546114b2906143d4565b80156114ff5780601f106114d4576101008083540402835291602001916114ff565b820191906000526020600020905b8154815290600101906020018083116114e257829003601f168201915b50505050508152602001600182018054611518906143d4565b80601f0160208091040260200160405190810160405280929190818152602001828054611544906143d4565b80156115915780601f1061156657610100808354040283529160200191611591565b820191906000526020600020905b81548152906001019060200180831161157457829003601f168201915b505050505081526020016002820180546115aa906143d4565b80601f01602080910402602001604051908101604052809291908181526020018280546115d6906143d4565b80156116235780601f106115f857610100808354040283529160200191611623565b820191906000526020600020905b81548152906001019060200180831161160657829003601f168201915b5050505050815260200160038201805461163c906143d4565b80601f0160208091040260200160405190810160405280929190818152602001828054611668906143d4565b80156116b55780601f1061168a576101008083540402835291602001916116b5565b820191906000526020600020905b81548152906001019060200180831161169857829003601f168201915b505050505081526020016004820180546116ce906143d4565b80601f01602080910402602001604051908101604052809291908181526020018280546116fa906143d4565b80156117475780601f1061171c57610100808354040283529160200191611747565b820191906000526020600020905b81548152906001019060200180831161172a57829003601f168201915b505050505081526020016005820160009054906101000a900460ff1615151515815260200160068201805461177b906143d4565b80601f01602080910402602001604051908101604052809291908181526020018280546117a7906143d4565b80156117f45780601f106117c9576101008083540402835291602001916117f4565b820191906000526020600020905b8154815290600101906020018083116117d757829003601f168201915b5050505050815260200160078201805461180d906143d4565b80601f0160208091040260200160405190810160405280929190818152602001828054611839906143d4565b80156118865780601f1061185b57610100808354040283529160200191611886565b820191906000526020600020905b81548152906001019060200180831161186957829003601f168201915b5050505050815260200160088201805461189f906143d4565b80601f01602080910402602001604051908101604052809291908181526020018280546118cb906143d4565b80156119185780601f106118ed57610100808354040283529160200191611918565b820191906000526020600020905b8154815290600101906020018083116118fb57829003601f168201915b50505050508152602001600982018054611931906143d4565b80601f016020809104026020016040519081016040528092919081815260200182805461195d906143d4565b80156119aa5780601f1061197f576101008083540402835291602001916119aa565b820191906000526020600020905b81548152906001019060200180831161198d57829003601f168201915b50505050508152602001600a820160009054906101000a900460ff16151515158152602001600b820180546119de906143d4565b80601f0160208091040260200160405190810160405280929190818152602001828054611a0a906143d4565b8015611a575780601f10611a2c57610100808354040283529160200191611a57565b820191906000526020600020905b815481529060010190602001808311611a3a57829003601f168201915b50505050508152602001600c82018054611a70906143d4565b80601f0160208091040260200160405190810160405280929190818152602001828054611a9c906143d4565b8015611ae95780601f10611abe57610100808354040283529160200191611ae9565b820191906000526020600020905b815481529060010190602001808311611acc57829003601f168201915b50505050508152602001600d82018054611b02906143d4565b80601f0160208091040260200160405190810160405280929190818152602001828054611b2e906143d4565b8015611b7b5780601f10611b5057610100808354040283529160200191611b7b565b820191906000526020600020905b815481529060010190602001808311611b5e57829003601f168201915b50505050508152602001600e82018054611b94906143d4565b80601f0160208091040260200160405190810160405280929190818152602001828054611bc0906143d4565b8015611c0d5780601f10611be257610100808354040283529160200191611c0d565b820191906000526020600020905b815481529060010190602001808311611bf057829003601f168201915b50505050508152602001600f82018054611c26906143d4565b80601f0160208091040260200160405190810160405280929190818152602001828054611c52906143d4565b8015611c9f5780601f10611c7457610100808354040283529160200191611c9f565b820191906000526020600020905b815481529060010190602001808311611c8257829003601f168201915b50505050508152602001601082018054611cb8906143d4565b80601f0160208091040260200160405190810160405280929190818152602001828054611ce4906143d4565b8015611d315780601f10611d0657610100808354040283529160200191611d31565b820191906000526020600020905b815481529060010190602001808311611d1457829003601f168201915b505050505081525050908060130154908060140160009054906101000a900460ff16908060150154905086565b60008060009054906101000a900473ffffffffffffffffffffffffffffffffffffffff16905090565b60036020528160005260406000206020528060005260406000206000915091509054906101000a900460ff1681565b611dbe613397565b8180600260008381526020019081526020016000206000015414611e17576040517f08c379a0000000000000000000000000000000000000000000000000000000008152600401611e0e906142f3565b60405180910390fd5b600260008481526020019081526020016000206040518060c0016040529081600082015481526020016001820160009054906101000a900473ffffffffffffffffffffffffffffffffffffffff1673ffffffffffffffffffffffffffffffffffffffff1673ffffffffffffffffffffffffffffffffffffffff1681526020016002820160405180610220016040529081600082018054611eb6906143d4565b80601f0160208091040260200160405190810160405280929190818152602001828054611ee2906143d4565b8015611f2f5780601f10611f0457610100808354040283529160200191611f2f565b820191906000526020600020905b815481529060010190602001808311611f1257829003601f168201915b50505050508152602001600182018054611f48906143d4565b80601f0160208091040260200160405190810160405280929190818152602001828054611f74906143d4565b8015611fc15780601f10611f9657610100808354040283529160200191611fc1565b820191906000526020600020905b815481529060010190602001808311611fa457829003601f168201915b50505050508152602001600282018054611fda906143d4565b80601f0160208091040260200160405190810160405280929190818152602001828054612006906143d4565b80156120535780601f1061202857610100808354040283529160200191612053565b820191906000526020600020905b81548152906001019060200180831161203657829003601f168201915b5050505050815260200160038201805461206c906143d4565b80601f0160208091040260200160405190810160405280929190818152602001828054612098906143d4565b80156120e55780601f106120ba576101008083540402835291602001916120e5565b820191906000526020600020905b8154815290600101906020018083116120c857829003601f168201915b505050505081526020016004820180546120fe906143d4565b80601f016020809104026020016040519081016040528092919081815260200182805461212a906143d4565b80156121775780601f1061214c57610100808354040283529160200191612177565b820191906000526020600020905b81548152906001019060200180831161215a57829003601f168201915b505050505081526020016005820160009054906101000a900460ff161515151581526020016006820180546121ab906143d4565b80601f01602080910402602001604051908101604052809291908181526020018280546121d7906143d4565b80156122245780601f106121f957610100808354040283529160200191612224565b820191906000526020600020905b81548152906001019060200180831161220757829003601f168201915b5050505050815260200160078201805461223d906143d4565b80601f0160208091040260200160405190810160405280929190818152602001828054612269906143d4565b80156122b65780601f1061228b576101008083540402835291602001916122b6565b820191906000526020600020905b81548152906001019060200180831161229957829003601f168201915b505050505081526020016008820180546122cf906143d4565b80601f01602080910402602001604051908101604052809291908181526020018280546122fb906143d4565b80156123485780601f1061231d57610100808354040283529160200191612348565b820191906000526020600020905b81548152906001019060200180831161232b57829003601f168201915b50505050508152602001600982018054612361906143d4565b80601f016020809104026020016040519081016040528092919081815260200182805461238d906143d4565b80156123da5780601f106123af576101008083540402835291602001916123da565b820191906000526020600020905b8154815290600101906020018083116123bd57829003601f168201915b50505050508152602001600a820160009054906101000a900460ff16151515158152602001600b8201805461240e906143d4565b80601f016020809104026020016040519081016040528092919081815260200182805461243a906143d4565b80156124875780601f1061245c57610100808354040283529160200191612487565b820191906000526020600020905b81548152906001019060200180831161246a57829003601f168201915b50505050508152602001600c820180546124a0906143d4565b80601f01602080910402602001604051908101604052809291908181526020018280546124cc906143d4565b80156125195780601f106124ee57610100808354040283529160200191612519565b820191906000526020600020905b8154815290600101906020018083116124fc57829003601f168201915b50505050508152602001600d82018054612532906143d4565b80601f016020809104026020016040519081016040528092919081815260200182805461255e906143d4565b80156125ab5780601f10612580576101008083540402835291602001916125ab565b820191906000526020600020905b81548152906001019060200180831161258e57829003601f168201915b50505050508152602001600e820180546125c4906143d4565b80601f01602080910402602001604051908101604052809291908181526020018280546125f0906143d4565b801561263d5780601f106126125761010080835404028352916020019161263d565b820191906000526020600020905b81548152906001019060200180831161262057829003601f168201915b50505050508152602001600f82018054612656906143d4565b80601f0160208091040260200160405190810160405280929190818152602001828054612682906143d4565b80156126cf5780601f106126a4576101008083540402835291602001916126cf565b820191906000526020600020905b8154815290600101906020018083116126b257829003601f168201915b505050505081526020016010820180546126e8906143d4565b80601f0160208091040260200160405190810160405280929190818152602001828054612714906143d4565b80156127615780601f1061273657610100808354040283529160200191612761565b820191906000526020600020905b81548152906001019060200180831161274457829003601f168201915b5050505050815250508152602001601382015481526020016014820160009054906101000a900460ff16151515158152602001601582015481525050915050919050565b60008180600260008381526020019081526020016000206000015414612800576040517f08c379a00000000000000000000000000000000000000000000000000000000081526004016127f7906142f3565b60405180910390fd5b6000600260008581526020019081526020016000206040518060c0016040529081600082015481526020016001820160009054906101000a900473ffffffffffffffffffffffffffffffffffffffff1673ffffffffffffffffffffffffffffffffffffffff1673ffffffffffffffffffffffffffffffffffffffff16815260200160028201604051806102200160405290816000820180546128a1906143d4565b80601f01602080910402602001604051908101604052809291908181526020018280546128cd906143d4565b801561291a5780601f106128ef5761010080835404028352916020019161291a565b820191906000526020600020905b8154815290600101906020018083116128fd57829003601f168201915b50505050508152602001600182018054612933906143d4565b80601f016020809104026020016040519081016040528092919081815260200182805461295f906143d4565b80156129ac5780601f10612981576101008083540402835291602001916129ac565b820191906000526020600020905b81548152906001019060200180831161298f57829003601f168201915b505050505081526020016002820180546129c5906143d4565b80601f01602080910402602001604051908101604052809291908181526020018280546129f1906143d4565b8015612a3e5780601f10612a1357610100808354040283529160200191612a3e565b820191906000526020600020905b815481529060010190602001808311612a2157829003601f168201915b50505050508152602001600382018054612a57906143d4565b80601f0160208091040260200160405190810160405280929190818152602001828054612a83906143d4565b8015612ad05780601f10612aa557610100808354040283529160200191612ad0565b820191906000526020600020905b815481529060010190602001808311612ab357829003601f168201915b50505050508152602001600482018054612ae9906143d4565b80601f0160208091040260200160405190810160405280929190818152602001828054612b15906143d4565b8015612b625780601f10612b3757610100808354040283529160200191612b62565b820191906000526020600020905b815481529060010190602001808311612b4557829003601f168201915b505050505081526020016005820160009054906101000a900460ff16151515158152602001600682018054612b96906143d4565b80601f0160208091040260200160405190810160405280929190818152602001828054612bc2906143d4565b8015612c0f5780601f10612be457610100808354040283529160200191612c0f565b820191906000526020600020905b815481529060010190602001808311612bf257829003601f168201915b50505050508152602001600782018054612c28906143d4565b80601f0160208091040260200160405190810160405280929190818152602001828054612c54906143d4565b8015612ca15780601f10612c7657610100808354040283529160200191612ca1565b820191906000526020600020905b815481529060010190602001808311612c8457829003601f168201915b50505050508152602001600882018054612cba906143d4565b80601f0160208091040260200160405190810160405280929190818152602001828054612ce6906143d4565b8015612d335780601f10612d0857610100808354040283529160200191612d33565b820191906000526020600020905b815481529060010190602001808311612d1657829003601f168201915b50505050508152602001600982018054612d4c906143d4565b80601f0160208091040260200160405190810160405280929190818152602001828054612d78906143d4565b8015612dc55780601f10612d9a57610100808354040283529160200191612dc5565b820191906000526020600020905b815481529060010190602001808311612da857829003601f168201915b50505050508152602001600a820160009054906101000a900460ff16151515158152602001600b82018054612df9906143d4565b80601f0160208091040260200160405190810160405280929190818152602001828054612e25906143d4565b8015612e725780601f10612e4757610100808354040283529160200191612e72565b820191906000526020600020905b815481529060010190602001808311612e5557829003601f168201915b50505050508152602001600c82018054612e8b906143d4565b80601f0160208091040260200160405190810160405280929190818152602001828054612eb7906143d4565b8015612f045780601f10612ed957610100808354040283529160200191612f04565b820191906000526020600020905b815481529060010190602001808311612ee757829003601f168201915b50505050508152602001600d82018054612f1d906143d4565b80601f0160208091040260200160405190810160405280929190818152602001828054612f49906143d4565b8015612f965780601f10612f6b57610100808354040283529160200191612f96565b820191906000526020600020905b815481529060010190602001808311612f7957829003601f168201915b50505050508152602001600e82018054612faf906143d4565b80601f0160208091040260200160405190810160405280929190818152602001828054612fdb906143d4565b80156130285780601f10612ffd57610100808354040283529160200191613028565b820191906000526020600020905b81548152906001019060200180831161300b57829003601f168201915b50505050508152602001600f82018054613041906143d4565b80601f016020809104026020016040519081016040528092919081815260200182805461306d906143d4565b80156130ba5780601f1061308f576101008083540402835291602001916130ba565b820191906000526020600020905b81548152906001019060200180831161309d57829003601f168201915b505050505081526020016010820180546130d3906143d4565b80601f01602080910402602001604051908101604052809291908181526020018280546130ff906143d4565b801561314c5780601f106131215761010080835404028352916020019161314c565b820191906000526020600020905b81548152906001019060200180831161312f57829003601f168201915b5050505050815250508152602001601382015481526020016014820160009054906101000a900460ff16151515158152602001601582015481525050905080608001511561319e5760019250506131b8565b620151808160a001516131b191906148b0565b4210159250505b50919050565b6131c6613244565b600073ffffffffffffffffffffffffffffffffffffffff168173ffffffffffffffffffffffffffffffffffffffff16036132385760006040517f1e4fbdf700000000000000000000000000000000000000000000000000000000815260040161322f9190614188565b60405180910390fd5b613241816132cb565b50565b61324c61338f565b73ffffffffffffffffffffffffffffffffffffffff1661326a611d5e565b73ffffffffffffffffffffffffffffffffffffffff16146132c95761328d61338f565b6040517f118cdaa70000000000000000000000000000000000000000000000000000000081526004016132c09190614188565b60405180910390fd5b565b60008060009054906101000a900473ffffffffffffffffffffffffffffffffffffffff169050816000806101000a81548173ffffffffffffffffffffffffffffffffffffffff021916908373ffffffffffffffffffffffffffffffffffffffff1602179055508173ffffffffffffffffffffffffffffffffffffffff168173ffffffffffffffffffffffffffffffffffffffff167f8be0079c531659141344cd1fd0a4f28419497f9722a3daafe3b4186f6b6457e060405160405180910390a35050565b600033905090565b6040518060c0016040528060008152602001600073ffffffffffffffffffffffffffffffffffffffff1681526020016133ce6133eb565b815260200160008152602001600015158152602001600081525090565b6040518061022001604052806060815260200160608152602001606081526020016060815260200160608152602001600015158152602001606081526020016060815260200160608152602001606081526020016000151581526020016060815260200160608152602001606081526020016060815260200160608152602001606081525090565b6000604051905090565b600080fd5b600080fd5b6000819050919050565b61349a81613487565b81146134a557600080fd5b50565b6000813590506134b781613491565b92915050565b600080fd5b600080fd5b6000601f19601f8301169050919050565b7f4e487b7100000000000000000000000000000000000000000000000000000000600052604160045260246000fd5b613510826134c7565b810181811067ffffffffffffffff8211171561352f5761352e6134d8565b5b80604052505050565b6000613542613473565b905061354e8282613507565b919050565b600067ffffffffffffffff82111561356e5761356d6134d8565b5b613577826134c7565b9050602081019050919050565b82818337600083830152505050565b60006135a66135a184613553565b613538565b9050828152602081018484840111156135c2576135c16134c2565b5b6135cd848285613584565b509392505050565b600082601f8301126135ea576135e96134bd565b5b81356135fa848260208601613593565b91505092915050565b6000806040838503121561361a5761361961347d565b5b6000613628858286016134a8565b925050602083013567ffffffffffffffff81111561364957613648613482565b5b613655858286016135d5565b9150509250929050565b600073ffffffffffffffffffffffffffffffffffffffff82169050919050565b600061368a8261365f565b9050919050565b61369a8161367f565b81146136a557600080fd5b50565b6000813590506136b781613691565b92915050565b600080fd5b600080fd5b60008115159050919050565b6136dc816136c7565b81146136e757600080fd5b50565b6000813590506136f9816136d3565b92915050565b60006102208284031215613716576137156136bd565b5b613721610220613538565b9050600082013567ffffffffffffffff811115613741576137406136c2565b5b61374d848285016135d5565b600083015250602082013567ffffffffffffffff811115613771576137706136c2565b5b61377d848285016135d5565b602083015250604082013567ffffffffffffffff8111156137a1576137a06136c2565b5b6137ad848285016135d5565b604083015250606082013567ffffffffffffffff8111156137d1576137d06136c2565b5b6137dd848285016135d5565b606083015250608082013567ffffffffffffffff811115613801576138006136c2565b5b61380d848285016135d5565b60808301525060a0613821848285016136ea565b60a08301525060c082013567ffffffffffffffff811115613845576138446136c2565b5b613851848285016135d5565b60c08301525060e082013567ffffffffffffffff811115613875576138746136c2565b5b613881848285016135d5565b60e08301525061010082013567ffffffffffffffff8111156138a6576138a56136c2565b5b6138b2848285016135d5565b6101008301525061012082013567ffffffffffffffff8111156138d8576138d76136c2565b5b6138e4848285016135d5565b610120830152506101406138fa848285016136ea565b6101408301525061016082013567ffffffffffffffff8111156139205761391f6136c2565b5b61392c848285016135d5565b6101608301525061018082013567ffffffffffffffff811115613952576139516136c2565b5b61395e848285016135d5565b610180830152506101a082013567ffffffffffffffff811115613984576139836136c2565b5b613990848285016135d5565b6101a0830152506101c082013567ffffffffffffffff8111156139b6576139b56136c2565b5b6139c2848285016135d5565b6101c0830152506101e082013567ffffffffffffffff8111156139e8576139e76136c2565b5b6139f4848285016135d5565b6101e08301525061020082013567ffffffffffffffff811115613a1a57613a196136c2565b5b613a26848285016135d5565b6102008301525092915050565b60008060408385031215613a4a57613a4961347d565b5b6000613a58858286016136a8565b925050602083013567ffffffffffffffff811115613a7957613a78613482565b5b613a85858286016136ff565b9150509250929050565b60008060408385031215613aa657613aa561347d565b5b6000613ab4858286016134a8565b9250506020613ac5858286016136a8565b9150509250929050565b60008060408385031215613ae657613ae561347d565b5b6000613af4858286016134a8565b9250506020613b05858286016134a8565b9150509250929050565b600081519050919050565b600082825260208201905092915050565b6000819050602082019050919050565b613b4481613487565b82525050565b613b538161367f565b82525050565b600081519050919050565b600082825260208201905092915050565b60005b83811015613b93578082015181840152602081019050613b78565b60008484015250505050565b6000613baa82613b59565b613bb48185613b64565b9350613bc4818560208601613b75565b613bcd816134c7565b840191505092915050565b613be1816136c7565b82525050565b6000610220830160008301518482036000860152613c058282613b9f565b91505060208301518482036020860152613c1f8282613b9f565b91505060408301518482036040860152613c398282613b9f565b91505060608301518482036060860152613c538282613b9f565b91505060808301518482036080860152613c6d8282613b9f565b91505060a0830151613c8260a0860182613bd8565b5060c083015184820360c0860152613c9a8282613b9f565b91505060e083015184820360e0860152613cb48282613b9f565b915050610100830151848203610100860152613cd08282613b9f565b915050610120830151848203610120860152613cec8282613b9f565b915050610140830151613d03610140860182613bd8565b50610160830151848203610160860152613d1d8282613b9f565b915050610180830151848203610180860152613d398282613b9f565b9150506101a08301518482036101a0860152613d558282613b9f565b9150506101c08301518482036101c0860152613d718282613b9f565b9150506101e08301518482036101e0860152613d8d8282613b9f565b915050610200830151848203610200860152613da98282613b9f565b9150508091505092915050565b600060c083016000830151613dce6000860182613b3b565b506020830151613de16020860182613b4a565b5060408301518482036040860152613df98282613be7565b9150506060830151613e0e6060860182613b3b565b506080830151613e216080860182613bd8565b5060a0830151613e3460a0860182613b3b565b508091505092915050565b6000613e4b8383613db6565b905092915050565b6000602082019050919050565b6000613e6b82613b0f565b613e758185613b1a565b935083602082028501613e8785613b2b565b8060005b85811015613ec35784840389528151613ea48582613e3f565b9450613eaf83613e53565b925060208a01995050600181019050613e8b565b50829750879550505050505092915050565b60006020820190508181036000830152613eef8184613e60565b905092915050565b600060208284031215613f0d57613f0c61347d565b5b6000613f1b848285016134a8565b91505092915050565b613f2d81613487565b82525050565b613f3c8161367f565b82525050565b6000610220830160008301518482036000860152613f608282613b9f565b91505060208301518482036020860152613f7a8282613b9f565b91505060408301518482036040860152613f948282613b9f565b91505060608301518482036060860152613fae8282613b9f565b91505060808301518482036080860152613fc88282613b9f565b91505060a0830151613fdd60a0860182613bd8565b5060c083015184820360c0860152613ff58282613b9f565b91505060e083015184820360e086015261400f8282613b9f565b91505061010083015184820361010086015261402b8282613b9f565b9150506101208301518482036101208601526140478282613b9f565b91505061014083015161405e610140860182613bd8565b506101608301518482036101608601526140788282613b9f565b9150506101808301518482036101808601526140948282613b9f565b9150506101a08301518482036101a08601526140b08282613b9f565b9150506101c08301518482036101c08601526140cc8282613b9f565b9150506101e08301518482036101e08601526140e88282613b9f565b9150506102008301518482036102008601526141048282613b9f565b9150508091505092915050565b61411a816136c7565b82525050565b600060c0820190506141356000830189613f24565b6141426020830188613f33565b81810360408301526141548187613f42565b90506141636060830186613f24565b6141706080830185614111565b61417d60a0830184613f24565b979650505050505050565b600060208201905061419d6000830184613f33565b92915050565b60006020820190506141b86000830184614111565b92915050565b600060c0830160008301516141d66000860182613b3b565b5060208301516141e96020860182613b4a565b50604083015184820360408601526142018282613be7565b91505060608301516142166060860182613b3b565b5060808301516142296080860182613bd8565b5060a083015161423c60a0860182613b3b565b508091505092915050565b6000602082019050818103600083015261426181846141be565b905092915050565b60006020828403121561427f5761427e61347d565b5b600061428d848285016136a8565b91505092915050565b600082825260208201905092915050565b7f50726f6475637420646f6573206e6f7420657869737400000000000000000000600082015250565b60006142dd601683614296565b91506142e8826142a7565b602082019050919050565b6000602082019050818103600083015261430c816142d0565b9050919050565b7f4f6e6c79207468652070726f64756374206f776e65722063616e20706572666f60008201527f726d207468697320616374696f6e000000000000000000000000000000000000602082015250565b600061436f602e83614296565b915061437a82614313565b604082019050919050565b6000602082019050818103600083015261439e81614362565b9050919050565b7f4e487b7100000000000000000000000000000000000000000000000000000000600052602260045260246000fd5b600060028204905060018216806143ec57607f821691505b6020821081036143ff576143fe6143a5565b5b50919050565b60008190508160005260206000209050919050565b60006020601f8301049050919050565b600082821b905092915050565b6000600883026144677fffffffffffffffffffffffffffffffffffffffffffffffffffffffffffffffff8261442a565b614471868361442a565b95508019841693508086168417925050509392505050565b6000819050919050565b60006144ae6144a96144a484613487565b614489565b613487565b9050919050565b6000819050919050565b6144c883614493565b6144dc6144d4826144b5565b848454614437565b825550505050565b600090565b6144f16144e4565b6144fc8184846144bf565b505050565b5b81811015614520576145156000826144e9565b600181019050614502565b5050565b601f8211156145655761453681614405565b61453f8461441a565b8101602085101561454e578190505b61456261455a8561441a565b830182614501565b50505b505050565b600082821c905092915050565b60006145886000198460080261456a565b1980831691505092915050565b60006145a18383614577565b9150826002028217905092915050565b6145ba82613b59565b67ffffffffffffffff8111156145d3576145d26134d8565b5b6145dd82546143d4565b6145e8828285614524565b600060209050601f83116001811461461b5760008415614609578287015190505b6146138582614595565b86555061467b565b601f19841661462986614405565b60005b828110156146515784890151825560018201915060208501945060208101905061462c565b8683101561466e578489015161466a601f891682614577565b8355505b6001600288020188555050505b505050505050565b600061468e82613b59565b6146988185614296565b93506146a8818560208601613b75565b6146b1816134c7565b840191505092915050565b600060208201905081810360008301526146d68184614683565b905092915050565b7f4e487b7100000000000000000000000000000000000000000000000000000000600052601160045260246000fd5b600061471882613487565b91507fffffffffffffffffffffffffffffffffffffffffffffffffffffffffffffffff820361474a576147496146de565b5b600182019050919050565b6000604082019050818103600083015261476f8185614683565b905081810360208301526147838184614683565b90509392505050565b7f50726f64756374206f776e65722063616e6e6f74207570766f7465207468656960008201527f72206f776e2070726f6475637400000000000000000000000000000000000000602082015250565b60006147e8602d83614296565b91506147f38261478c565b604082019050919050565b60006020820190508181036000830152614817816147db565b9050919050565b7f557365722068617320616c7265616479207570766f746564207468697320707260008201527f6f64756374000000000000000000000000000000000000000000000000000000602082015250565b600061487a602583614296565b91506148858261481e565b604082019050919050565b600060208201905081810360008301526148a98161486d565b9050919050565b60006148bb82613487565b91506148c683613487565b92508282019050808211156148de576148dd6146de565b5b92915050565b7f4e487b7100000000000000000000000000000000000000000000000000000000600052603260045260246000fdfea2646970667358221220eeb947176d0cfd79fa91dd158355a4caf96f479ac53df164815cb92cdee4a8bf64736f6c63430008180033",
  "linkReferences": {},
  "deployedLinkReferences": {}
}