{
  "_format": "hh-sol-artifact-1",
  "contractName": "ProductFindr",
  "sourceName": "contracts/ProductFindr.sol",
  "abi": [
    {
      "inputs": [
        {
          "internalType": "address",
          "name": "_productAddress",
          "type": "address"
        },
        {
          "internalType": "address",
          "name": "_commentAddress",
          "type": "address"
        },
        {
          "internalType": "address",
          "name": "_reviewAddress",
          "type": "address"
        },
        {
          "internalType": "address",
          "name": "initialOwner",
          "type": "address"
        }
      ],
      "stateMutability": "nonpayable",
      "type": "constructor"
    },
    {
      "inputs": [
        {
          "internalType": "address",
          "name": "owner",
          "type": "address"
        }
      ],
      "name": "OwnableInvalidOwner",
      "type": "error"
    },
    {
      "inputs": [
        {
          "internalType": "address",
          "name": "account",
          "type": "address"
        }
      ],
      "name": "OwnableUnauthorizedAccount",
      "type": "error"
    },
    {
      "anonymous": false,
      "inputs": [
        {
          "indexed": true,
          "internalType": "address",
          "name": "previousOwner",
          "type": "address"
        },
        {
          "indexed": true,
          "internalType": "address",
          "name": "newOwner",
          "type": "address"
        }
      ],
      "name": "OwnershipTransferred",
      "type": "event"
    },
    {
      "anonymous": false,
      "inputs": [
        {
          "indexed": true,
          "internalType": "address",
          "name": "user",
          "type": "address"
        },
        {
          "indexed": false,
          "internalType": "uint256",
          "name": "reputation",
          "type": "uint256"
        }
      ],
      "name": "UserReputationUpdated",
      "type": "event"
    },
    {
      "inputs": [
        {
          "internalType": "address",
          "name": "_reviewer",
          "type": "address"
        },
        {
          "internalType": "uint256",
          "name": "_productId",
          "type": "uint256"
        },
        {
          "internalType": "string",
          "name": "_content",
          "type": "string"
        },
        {
          "internalType": "uint256",
          "name": "_rating",
          "type": "uint256"
        }
      ],
      "name": "addReview",
      "outputs": [],
      "stateMutability": "nonpayable",
      "type": "function"
    },
    {
      "inputs": [
        {
          "internalType": "uint256",
          "name": "_productId",
          "type": "uint256"
        },
        {
          "internalType": "string",
          "name": "_content",
          "type": "string"
        }
      ],
      "name": "commentOnProduct",
      "outputs": [],
      "stateMutability": "nonpayable",
      "type": "function"
    },
    {
      "inputs": [
        {
          "internalType": "uint256",
          "name": "_productId",
          "type": "uint256"
        },
        {
          "internalType": "uint256",
          "name": "_commentId",
          "type": "uint256"
        }
      ],
      "name": "getComment",
      "outputs": [
        {
          "components": [
            {
              "internalType": "address",
              "name": "commenter",
              "type": "address"
            },
            {
              "internalType": "string",
              "name": "content",
              "type": "string"
            },
            {
              "internalType": "uint256",
              "name": "timestamp",
              "type": "uint256"
            }
          ],
          "internalType": "struct Comment.CommentInfo",
          "name": "",
          "type": "tuple"
        }
      ],
      "stateMutability": "view",
      "type": "function"
    },
    {
      "inputs": [
        {
          "internalType": "uint256",
          "name": "_productId",
          "type": "uint256"
        },
        {
          "internalType": "uint256",
          "name": "_commentId",
          "type": "uint256"
        }
      ],
      "name": "getCommenter",
      "outputs": [
        {
          "internalType": "address",
          "name": "",
          "type": "address"
        }
      ],
      "stateMutability": "view",
      "type": "function"
    },
    {
      "inputs": [
        {
          "internalType": "uint256",
          "name": "_productId",
          "type": "uint256"
        }
      ],
      "name": "getComments",
      "outputs": [
        {
          "components": [
            {
              "internalType": "address",
              "name": "commenter",
              "type": "address"
            },
            {
              "internalType": "string",
              "name": "content",
              "type": "string"
            },
            {
              "internalType": "uint256",
              "name": "timestamp",
              "type": "uint256"
            }
          ],
          "internalType": "struct Comment.CommentInfo[]",
          "name": "",
          "type": "tuple[]"
        }
      ],
      "stateMutability": "view",
      "type": "function"
    },
    {
      "inputs": [
        {
          "internalType": "uint256",
          "name": "_productId",
          "type": "uint256"
        }
      ],
      "name": "getCommentsCount",
      "outputs": [
        {
          "internalType": "uint256",
          "name": "",
          "type": "uint256"
        }
      ],
      "stateMutability": "view",
      "type": "function"
    },
    {
      "inputs": [
        {
          "internalType": "uint256",
          "name": "start",
          "type": "uint256"
        },
        {
          "internalType": "uint256",
          "name": "count",
          "type": "uint256"
        }
      ],
      "name": "getListedProducts",
      "outputs": [
        {
          "components": [
            {
              "internalType": "uint256",
              "name": "id",
              "type": "uint256"
            },
            {
              "internalType": "address",
              "name": "owner",
              "type": "address"
            },
            {
              "components": [
                {
                  "internalType": "string",
                  "name": "productName",
                  "type": "string"
                },
                {
                  "internalType": "string",
                  "name": "tagLine",
                  "type": "string"
                },
                {
                  "internalType": "string",
                  "name": "productLink",
                  "type": "string"
                },
                {
                  "internalType": "string",
                  "name": "twitterLink",
                  "type": "string"
                },
                {
                  "internalType": "string",
                  "name": "description",
                  "type": "string"
                },
                {
                  "internalType": "bool",
                  "name": "isOpenSource",
                  "type": "bool"
                },
                {
                  "internalType": "string",
                  "name": "category",
                  "type": "string"
                },
                {
                  "internalType": "string",
                  "name": "thumbNail",
                  "type": "string"
                },
                {
                  "internalType": "string",
                  "name": "mediaFile",
                  "type": "string"
                },
                {
                  "internalType": "string",
                  "name": "loomLink",
                  "type": "string"
                },
                {
                  "internalType": "bool",
                  "name": "workedWithTeam",
                  "type": "bool"
                },
                {
                  "internalType": "string",
                  "name": "teamMembersInput",
                  "type": "string"
                },
                {
                  "internalType": "string",
                  "name": "pricingOption",
                  "type": "string"
                },
                {
                  "internalType": "string",
                  "name": "offer",
                  "type": "string"
                },
                {
                  "internalType": "string",
                  "name": "promoCode",
                  "type": "string"
                },
                {
                  "internalType": "string",
                  "name": "expirationDate",
                  "type": "string"
                },
                {
                  "internalType": "string",
                  "name": "betaTestingLink",
                  "type": "string"
                }
              ],
              "internalType": "struct Product.ProductDetails",
              "name": "details",
              "type": "tuple"
            },
            {
              "internalType": "uint256",
              "name": "upvotes",
              "type": "uint256"
            },
            {
              "internalType": "bool",
              "name": "betaTestingAvailable",
              "type": "bool"
            },
            {
              "internalType": "uint256",
              "name": "timestamp",
              "type": "uint256"
            }
          ],
          "internalType": "struct Product.ProductInfo[]",
          "name": "",
          "type": "tuple[]"
        }
      ],
      "stateMutability": "view",
      "type": "function"
    },
    {
      "inputs": [
        {
          "internalType": "uint256",
          "name": "_productId",
          "type": "uint256"
        }
      ],
      "name": "getProduct",
      "outputs": [
        {
          "components": [
            {
              "internalType": "uint256",
              "name": "id",
              "type": "uint256"
            },
            {
              "internalType": "address",
              "name": "owner",
              "type": "address"
            },
            {
              "components": [
                {
                  "internalType": "string",
                  "name": "productName",
                  "type": "string"
                },
                {
                  "internalType": "string",
                  "name": "tagLine",
                  "type": "string"
                },
                {
                  "internalType": "string",
                  "name": "productLink",
                  "type": "string"
                },
                {
                  "internalType": "string",
                  "name": "twitterLink",
                  "type": "string"
                },
                {
                  "internalType": "string",
                  "name": "description",
                  "type": "string"
                },
                {
                  "internalType": "bool",
                  "name": "isOpenSource",
                  "type": "bool"
                },
                {
                  "internalType": "string",
                  "name": "category",
                  "type": "string"
                },
                {
                  "internalType": "string",
                  "name": "thumbNail",
                  "type": "string"
                },
                {
                  "internalType": "string",
                  "name": "mediaFile",
                  "type": "string"
                },
                {
                  "internalType": "string",
                  "name": "loomLink",
                  "type": "string"
                },
                {
                  "internalType": "bool",
                  "name": "workedWithTeam",
                  "type": "bool"
                },
                {
                  "internalType": "string",
                  "name": "teamMembersInput",
                  "type": "string"
                },
                {
                  "internalType": "string",
                  "name": "pricingOption",
                  "type": "string"
                },
                {
                  "internalType": "string",
                  "name": "offer",
                  "type": "string"
                },
                {
                  "internalType": "string",
                  "name": "promoCode",
                  "type": "string"
                },
                {
                  "internalType": "string",
                  "name": "expirationDate",
                  "type": "string"
                },
                {
                  "internalType": "string",
                  "name": "betaTestingLink",
                  "type": "string"
                }
              ],
              "internalType": "struct Product.ProductDetails",
              "name": "details",
              "type": "tuple"
            },
            {
              "internalType": "uint256",
              "name": "upvotes",
              "type": "uint256"
            },
            {
              "internalType": "bool",
              "name": "betaTestingAvailable",
              "type": "bool"
            },
            {
              "internalType": "uint256",
              "name": "timestamp",
              "type": "uint256"
            }
          ],
          "internalType": "struct Product.ProductInfo",
          "name": "",
          "type": "tuple"
        }
      ],
      "stateMutability": "view",
      "type": "function"
    },
    {
      "inputs": [
        {
          "internalType": "uint256",
          "name": "_productId",
          "type": "uint256"
        },
        {
          "internalType": "uint256",
          "name": "_reviewId",
          "type": "uint256"
        }
      ],
      "name": "getReview",
      "outputs": [
        {
          "components": [
            {
              "internalType": "address",
              "name": "reviewer",
              "type": "address"
            },
            {
              "internalType": "string",
              "name": "content",
              "type": "string"
            },
            {
              "internalType": "uint256",
              "name": "rating",
              "type": "uint256"
            },
            {
              "internalType": "uint256",
              "name": "timestamp",
              "type": "uint256"
            }
          ],
          "internalType": "struct Review.ReviewInfo",
          "name": "",
          "type": "tuple"
        }
      ],
      "stateMutability": "view",
      "type": "function"
    },
    {
      "inputs": [
        {
          "internalType": "uint256",
          "name": "_productId",
          "type": "uint256"
        },
        {
          "internalType": "uint256",
          "name": "_reviewId",
          "type": "uint256"
        }
      ],
      "name": "getReviewer",
      "outputs": [
        {
          "internalType": "address",
          "name": "",
          "type": "address"
        }
      ],
      "stateMutability": "view",
      "type": "function"
    },
    {
      "inputs": [
        {
          "internalType": "uint256",
          "name": "_productId",
          "type": "uint256"
        }
      ],
      "name": "getReviews",
      "outputs": [
        {
          "components": [
            {
              "internalType": "address",
              "name": "reviewer",
              "type": "address"
            },
            {
              "internalType": "string",
              "name": "content",
              "type": "string"
            },
            {
              "internalType": "uint256",
              "name": "rating",
              "type": "uint256"
            },
            {
              "internalType": "uint256",
              "name": "timestamp",
              "type": "uint256"
            }
          ],
          "internalType": "struct Review.ReviewInfo[]",
          "name": "",
          "type": "tuple[]"
        }
      ],
      "stateMutability": "view",
      "type": "function"
    },
    {
      "inputs": [
        {
          "internalType": "uint256",
          "name": "_productId",
          "type": "uint256"
        }
      ],
      "name": "getReviewsCount",
      "outputs": [
        {
          "internalType": "uint256",
          "name": "",
          "type": "uint256"
        }
      ],
      "stateMutability": "view",
      "type": "function"
    },
    {
      "inputs": [],
      "name": "owner",
      "outputs": [
        {
          "internalType": "address",
          "name": "",
          "type": "address"
        }
      ],
      "stateMutability": "view",
      "type": "function"
    },
    {
      "inputs": [
        {
          "internalType": "address",
          "name": "_owner",
          "type": "address"
        },
        {
          "components": [
            {
              "internalType": "string",
              "name": "productName",
              "type": "string"
            },
            {
              "internalType": "string",
              "name": "tagLine",
              "type": "string"
            },
            {
              "internalType": "string",
              "name": "productLink",
              "type": "string"
            },
            {
              "internalType": "string",
              "name": "twitterLink",
              "type": "string"
            },
            {
              "internalType": "string",
              "name": "description",
              "type": "string"
            },
            {
              "internalType": "bool",
              "name": "isOpenSource",
              "type": "bool"
            },
            {
              "internalType": "string",
              "name": "category",
              "type": "string"
            },
            {
              "internalType": "string",
              "name": "thumbNail",
              "type": "string"
            },
            {
              "internalType": "string",
              "name": "mediaFile",
              "type": "string"
            },
            {
              "internalType": "string",
              "name": "loomLink",
              "type": "string"
            },
            {
              "internalType": "bool",
              "name": "workedWithTeam",
              "type": "bool"
            },
            {
              "internalType": "string",
              "name": "teamMembersInput",
              "type": "string"
            },
            {
              "internalType": "string",
              "name": "pricingOption",
              "type": "string"
            },
            {
              "internalType": "string",
              "name": "offer",
              "type": "string"
            },
            {
              "internalType": "string",
              "name": "promoCode",
              "type": "string"
            },
            {
              "internalType": "string",
              "name": "expirationDate",
              "type": "string"
            },
            {
              "internalType": "string",
              "name": "betaTestingLink",
              "type": "string"
            }
          ],
          "internalType": "struct Product.ProductDetails",
          "name": "details",
          "type": "tuple"
        }
      ],
      "name": "registerProduct",
      "outputs": [],
      "stateMutability": "nonpayable",
      "type": "function"
    },
    {
      "inputs": [],
      "name": "renounceOwnership",
      "outputs": [],
      "stateMutability": "nonpayable",
      "type": "function"
    },
    {
      "inputs": [
        {
          "internalType": "address",
          "name": "newOwner",
          "type": "address"
        }
      ],
      "name": "transferOwnership",
      "outputs": [],
      "stateMutability": "nonpayable",
      "type": "function"
    },
    {
      "inputs": [
        {
          "internalType": "uint256",
          "name": "_productId",
          "type": "uint256"
        },
        {
          "internalType": "address",
          "name": "_upvoter",
          "type": "address"
        }
      ],
      "name": "upvoteProduct",
      "outputs": [],
      "stateMutability": "nonpayable",
      "type": "function"
    },
    {
      "inputs": [
        {
          "internalType": "address",
          "name": "",
          "type": "address"
        }
      ],
      "name": "userReputation",
      "outputs": [
        {
          "internalType": "uint256",
          "name": "",
          "type": "uint256"
        }
      ],
      "stateMutability": "view",
      "type": "function"
    }
  ],
  "bytecode": "0x60806040523480156200001157600080fd5b506040516200397a3803806200397a8339818101604052810190620000379190620002ba565b80600073ffffffffffffffffffffffffffffffffffffffff168173ffffffffffffffffffffffffffffffffffffffff1603620000ad5760006040517f1e4fbdf7000000000000000000000000000000000000000000000000000000008152600401620000a491906200033d565b60405180910390fd5b620000be816200018c60201b60201c565b5083600160006101000a81548173ffffffffffffffffffffffffffffffffffffffff021916908373ffffffffffffffffffffffffffffffffffffffff16021790555082600260006101000a81548173ffffffffffffffffffffffffffffffffffffffff021916908373ffffffffffffffffffffffffffffffffffffffff16021790555081600360006101000a81548173ffffffffffffffffffffffffffffffffffffffff021916908373ffffffffffffffffffffffffffffffffffffffff160217905550505050506200035a565b60008060009054906101000a900473ffffffffffffffffffffffffffffffffffffffff169050816000806101000a81548173ffffffffffffffffffffffffffffffffffffffff021916908373ffffffffffffffffffffffffffffffffffffffff1602179055508173ffffffffffffffffffffffffffffffffffffffff168173ffffffffffffffffffffffffffffffffffffffff167f8be0079c531659141344cd1fd0a4f28419497f9722a3daafe3b4186f6b6457e060405160405180910390a35050565b600080fd5b600073ffffffffffffffffffffffffffffffffffffffff82169050919050565b6000620002828262000255565b9050919050565b620002948162000275565b8114620002a057600080fd5b50565b600081519050620002b48162000289565b92915050565b60008060008060808587031215620002d757620002d662000250565b5b6000620002e787828801620002a3565b9450506020620002fa87828801620002a3565b93505060406200030d87828801620002a3565b92505060606200032087828801620002a3565b91505092959194509250565b620003378162000275565b82525050565b60006020820190506200035460008301846200032c565b92915050565b613610806200036a6000396000f3fe608060405234801561001057600080fd5b50600436106101165760003560e01c806382bb560b116100a2578063bf4f31b011610071578063bf4f31b014610303578063dcfe3e0814610333578063dfa505ed14610363578063e503bb0514610393578063f2fde38b146103c357610116565b806382bb560b146102695780638da5cb5b146102855780639d4a2255146102a3578063b9db15b4146102d357610116565b8063577ac4af116100e9578063577ac4af146101c757806363283c84146101e35780636a1a7e0e146101ff578063715018a61461022f5780637376ccfd1461023957610116565b806323edf6971461011b578063395e3f1e1461014b57806348892753146101675780634c9b78da14610197575b600080fd5b610135600480360381019061013091906117ed565b6103df565b6040516101429190611a0c565b60405180910390f35b61016560048036038101906101609190611b63565b610489565b005b610181600480360381019061017c9190611bbf565b6105fe565b60405161018e9190611c4f565b60405180910390f35b6101b160048036038101906101ac91906117ed565b6106b1565b6040516101be9190611c80565b60405180910390f35b6101e160048036038101906101dc919061203d565b610756565b005b6101fd60048036038101906101f89190612099565b6108cb565b005b61021960048036038101906102149190611bbf565b610c2c565b6040516102269190612402565b60405180910390f35b610237610cd9565b005b610253600480360381019061024e9190611bbf565b610ced565b6040516102609190612433565b60405180910390f35b610283600480360381019061027e919061244e565b610e7c565b005b61028d610ff7565b60405161029a9190612433565b60405180910390f35b6102bd60048036038101906102b891906117ed565b611020565b6040516102ca91906125f6565b60405180910390f35b6102ed60048036038101906102e891906117ed565b6110ca565b6040516102fa91906126a1565b60405180910390f35b61031d60048036038101906103189190611bbf565b61117a565b60405161032a9190612433565b60405180910390f35b61034d600480360381019061034891906117ed565b611222565b60405161035a9190611c80565b60405180910390f35b61037d60048036038101906103789190611bbf565b6112c7565b60405161038a9190612726565b60405180910390f35b6103ad60048036038101906103a89190612748565b611461565b6040516103ba9190611c80565b60405180910390f35b6103dd60048036038101906103d89190612748565b611479565b005b6060600260009054906101000a900473ffffffffffffffffffffffffffffffffffffffff1673ffffffffffffffffffffffffffffffffffffffff166323edf697836040518263ffffffff1660e01b815260040161043c9190611c80565b600060405180830381865afa158015610459573d6000803e3d6000fd5b505050506040513d6000823e3d601f19601f820116820180604052508101906104829190612975565b9050919050565b600260009054906101000a900473ffffffffffffffffffffffffffffffffffffffff1673ffffffffffffffffffffffffffffffffffffffff1663395e3f1e83836040518363ffffffff1660e01b81526004016104e6929190612a08565b600060405180830381600087803b15801561050057600080fd5b505af1158015610514573d6000803e3d6000fd5b50505050600460003373ffffffffffffffffffffffffffffffffffffffff1673ffffffffffffffffffffffffffffffffffffffff168152602001908152602001600020600081548092919061056890612a67565b91905055503373ffffffffffffffffffffffffffffffffffffffff167f2ed0252b8901e5ebb800f47a9b16756f232137a30e26b272dae6b2a2baf4e002600460003373ffffffffffffffffffffffffffffffffffffffff1673ffffffffffffffffffffffffffffffffffffffff168152602001908152602001600020546040516105f29190611c80565b60405180910390a25050565b610606611652565b600260009054906101000a900473ffffffffffffffffffffffffffffffffffffffff1673ffffffffffffffffffffffffffffffffffffffff16634889275384846040518363ffffffff1660e01b8152600401610663929190612aaf565b600060405180830381865afa158015610680573d6000803e3d6000fd5b505050506040513d6000823e3d601f19601f820116820180604052508101906106a99190612ad8565b905092915050565b6000600260009054906101000a900473ffffffffffffffffffffffffffffffffffffffff1673ffffffffffffffffffffffffffffffffffffffff16634c9b78da836040518263ffffffff1660e01b815260040161070e9190611c80565b602060405180830381865afa15801561072b573d6000803e3d6000fd5b505050506040513d601f19601f8201168201806040525081019061074f9190612b21565b9050919050565b600160009054906101000a900473ffffffffffffffffffffffffffffffffffffffff1673ffffffffffffffffffffffffffffffffffffffff1663577ac4af83836040518363ffffffff1660e01b81526004016107b3929190612d1d565b600060405180830381600087803b1580156107cd57600080fd5b505af11580156107e1573d6000803e3d6000fd5b50505050600460003373ffffffffffffffffffffffffffffffffffffffff1673ffffffffffffffffffffffffffffffffffffffff168152602001908152602001600020600081548092919061083590612a67565b91905055503373ffffffffffffffffffffffffffffffffffffffff167f2ed0252b8901e5ebb800f47a9b16756f232137a30e26b272dae6b2a2baf4e002600460003373ffffffffffffffffffffffffffffffffffffffff1673ffffffffffffffffffffffffffffffffffffffff168152602001908152602001600020546040516108bf9190611c80565b60405180910390a25050565b600160009054906101000a900473ffffffffffffffffffffffffffffffffffffffff1673ffffffffffffffffffffffffffffffffffffffff166363283c8483836040518363ffffffff1660e01b8152600401610928929190612d4d565b600060405180830381600087803b15801561094257600080fd5b505af1158015610956573d6000803e3d6000fd5b5050505060046000600160009054906101000a900473ffffffffffffffffffffffffffffffffffffffff1673ffffffffffffffffffffffffffffffffffffffff1663b9db15b4856040518263ffffffff1660e01b81526004016109b99190611c80565b600060405180830381865afa1580156109d6573d6000803e3d6000fd5b505050506040513d6000823e3d601f19601f820116820180604052508101906109ff919061317b565b6020015173ffffffffffffffffffffffffffffffffffffffff1673ffffffffffffffffffffffffffffffffffffffff1681526020019081526020016000206000815480929190610a4e90612a67565b9190505550600160009054906101000a900473ffffffffffffffffffffffffffffffffffffffff1673ffffffffffffffffffffffffffffffffffffffff1663b9db15b4836040518263ffffffff1660e01b8152600401610aae9190611c80565b600060405180830381865afa158015610acb573d6000803e3d6000fd5b505050506040513d6000823e3d601f19601f82011682018060405250810190610af4919061317b565b6020015173ffffffffffffffffffffffffffffffffffffffff167f2ed0252b8901e5ebb800f47a9b16756f232137a30e26b272dae6b2a2baf4e00260046000600160009054906101000a900473ffffffffffffffffffffffffffffffffffffffff1673ffffffffffffffffffffffffffffffffffffffff1663b9db15b4876040518263ffffffff1660e01b8152600401610b8e9190611c80565b600060405180830381865afa158015610bab573d6000803e3d6000fd5b505050506040513d6000823e3d601f19601f82011682018060405250810190610bd4919061317b565b6020015173ffffffffffffffffffffffffffffffffffffffff1673ffffffffffffffffffffffffffffffffffffffff16815260200190815260200160002054604051610c209190611c80565b60405180910390a25050565b6060600160009054906101000a900473ffffffffffffffffffffffffffffffffffffffff1673ffffffffffffffffffffffffffffffffffffffff16636a1a7e0e84846040518363ffffffff1660e01b8152600401610c8b929190612aaf565b600060405180830381865afa158015610ca8573d6000803e3d6000fd5b505050506040513d6000823e3d601f19601f82011682018060405250810190610cd191906132a5565b905092915050565b610ce16114ff565b610ceb6000611586565b565b60008282600360009054906101000a900473ffffffffffffffffffffffffffffffffffffffff1673ffffffffffffffffffffffffffffffffffffffff16639d4a2255836040518263ffffffff1660e01b8152600401610d4c9190611c80565b600060405180830381865afa158015610d69573d6000803e3d6000fd5b505050506040513d6000823e3d601f19601f82011682018060405250810190610d929190613463565b518110610dd4576040517f08c379a0000000000000000000000000000000000000000000000000000000008152600401610dcb906134f8565b60405180910390fd5b600360009054906101000a900473ffffffffffffffffffffffffffffffffffffffff1673ffffffffffffffffffffffffffffffffffffffff16637376ccfd86866040518363ffffffff1660e01b8152600401610e31929190612aaf565b602060405180830381865afa158015610e4e573d6000803e3d6000fd5b505050506040513d601f19601f82011682018060405250810190610e729190613518565b9250505092915050565b600360009054906101000a900473ffffffffffffffffffffffffffffffffffffffff1673ffffffffffffffffffffffffffffffffffffffff166382bb560b858585856040518563ffffffff1660e01b8152600401610edd9493929190613545565b600060405180830381600087803b158015610ef757600080fd5b505af1158015610f0b573d6000803e3d6000fd5b50505050600460003373ffffffffffffffffffffffffffffffffffffffff1673ffffffffffffffffffffffffffffffffffffffff1681526020019081526020016000206000815480929190610f5f90612a67565b91905055503373ffffffffffffffffffffffffffffffffffffffff167f2ed0252b8901e5ebb800f47a9b16756f232137a30e26b272dae6b2a2baf4e002600460003373ffffffffffffffffffffffffffffffffffffffff1673ffffffffffffffffffffffffffffffffffffffff16815260200190815260200160002054604051610fe99190611c80565b60405180910390a250505050565b60008060009054906101000a900473ffffffffffffffffffffffffffffffffffffffff16905090565b6060600360009054906101000a900473ffffffffffffffffffffffffffffffffffffffff1673ffffffffffffffffffffffffffffffffffffffff16639d4a2255836040518263ffffffff1660e01b815260040161107d9190611c80565b600060405180830381865afa15801561109a573d6000803e3d6000fd5b505050506040513d6000823e3d601f19601f820116820180604052508101906110c39190613463565b9050919050565b6110d2611689565b600160009054906101000a900473ffffffffffffffffffffffffffffffffffffffff1673ffffffffffffffffffffffffffffffffffffffff1663b9db15b4836040518263ffffffff1660e01b815260040161112d9190611c80565b600060405180830381865afa15801561114a573d6000803e3d6000fd5b505050506040513d6000823e3d601f19601f82011682018060405250810190611173919061317b565b9050919050565b6000600260009054906101000a900473ffffffffffffffffffffffffffffffffffffffff1673ffffffffffffffffffffffffffffffffffffffff1663bf4f31b084846040518363ffffffff1660e01b81526004016111d9929190612aaf565b602060405180830381865afa1580156111f6573d6000803e3d6000fd5b505050506040513d601f19601f8201168201806040525081019061121a9190613518565b905092915050565b6000600360009054906101000a900473ffffffffffffffffffffffffffffffffffffffff1673ffffffffffffffffffffffffffffffffffffffff1663dcfe3e08836040518263ffffffff1660e01b815260040161127f9190611c80565b602060405180830381865afa15801561129c573d6000803e3d6000fd5b505050506040513d601f19601f820116820180604052508101906112c09190612b21565b9050919050565b6112cf6116dd565b8282600360009054906101000a900473ffffffffffffffffffffffffffffffffffffffff1673ffffffffffffffffffffffffffffffffffffffff16639d4a2255836040518263ffffffff1660e01b815260040161132c9190611c80565b600060405180830381865afa158015611349573d6000803e3d6000fd5b505050506040513d6000823e3d601f19601f820116820180604052508101906113729190613463565b5181106113b4576040517f08c379a00000000000000000000000000000000000000000000000000000000081526004016113ab906134f8565b60405180910390fd5b600360009054906101000a900473ffffffffffffffffffffffffffffffffffffffff1673ffffffffffffffffffffffffffffffffffffffff1663dfa505ed86866040518363ffffffff1660e01b8152600401611411929190612aaf565b600060405180830381865afa15801561142e573d6000803e3d6000fd5b505050506040513d6000823e3d601f19601f820116820180604052508101906114579190613591565b9250505092915050565b60046020528060005260406000206000915090505481565b6114816114ff565b600073ffffffffffffffffffffffffffffffffffffffff168173ffffffffffffffffffffffffffffffffffffffff16036114f35760006040517f1e4fbdf70000000000000000000000000000000000000000000000000000000081526004016114ea9190612433565b60405180910390fd5b6114fc81611586565b50565b61150761164a565b73ffffffffffffffffffffffffffffffffffffffff16611525610ff7565b73ffffffffffffffffffffffffffffffffffffffff16146115845761154861164a565b6040517f118cdaa700000000000000000000000000000000000000000000000000000000815260040161157b9190612433565b60405180910390fd5b565b60008060009054906101000a900473ffffffffffffffffffffffffffffffffffffffff169050816000806101000a81548173ffffffffffffffffffffffffffffffffffffffff021916908373ffffffffffffffffffffffffffffffffffffffff1602179055508173ffffffffffffffffffffffffffffffffffffffff168173ffffffffffffffffffffffffffffffffffffffff167f8be0079c531659141344cd1fd0a4f28419497f9722a3daafe3b4186f6b6457e060405160405180910390a35050565b600033905090565b6040518060600160405280600073ffffffffffffffffffffffffffffffffffffffff16815260200160608152602001600081525090565b6040518060c0016040528060008152602001600073ffffffffffffffffffffffffffffffffffffffff1681526020016116c061171b565b815260200160008152602001600015158152602001600081525090565b6040518060800160405280600073ffffffffffffffffffffffffffffffffffffffff1681526020016060815260200160008152602001600081525090565b6040518061022001604052806060815260200160608152602001606081526020016060815260200160608152602001600015158152602001606081526020016060815260200160608152602001606081526020016000151581526020016060815260200160608152602001606081526020016060815260200160608152602001606081525090565b6000604051905090565b600080fd5b600080fd5b6000819050919050565b6117ca816117b7565b81146117d557600080fd5b50565b6000813590506117e7816117c1565b92915050565b600060208284031215611803576118026117ad565b5b6000611811848285016117d8565b91505092915050565b600081519050919050565b600082825260208201905092915050565b6000819050602082019050919050565b600073ffffffffffffffffffffffffffffffffffffffff82169050919050565b600061187182611846565b9050919050565b61188181611866565b82525050565b600081519050919050565b600082825260208201905092915050565b60005b838110156118c15780820151818401526020810190506118a6565b60008484015250505050565b6000601f19601f8301169050919050565b60006118e982611887565b6118f38185611892565b93506119038185602086016118a3565b61190c816118cd565b840191505092915050565b611920816117b7565b82525050565b600060608301600083015161193e6000860182611878565b506020830151848203602086015261195682826118de565b915050604083015161196b6040860182611917565b508091505092915050565b60006119828383611926565b905092915050565b6000602082019050919050565b60006119a28261181a565b6119ac8185611825565b9350836020820285016119be85611836565b8060005b858110156119fa57848403895281516119db8582611976565b94506119e68361198a565b925060208a019950506001810190506119c2565b50829750879550505050505092915050565b60006020820190508181036000830152611a268184611997565b905092915050565b600080fd5b600080fd5b7f4e487b7100000000000000000000000000000000000000000000000000000000600052604160045260246000fd5b611a70826118cd565b810181811067ffffffffffffffff82111715611a8f57611a8e611a38565b5b80604052505050565b6000611aa26117a3565b9050611aae8282611a67565b919050565b600067ffffffffffffffff821115611ace57611acd611a38565b5b611ad7826118cd565b9050602081019050919050565b82818337600083830152505050565b6000611b06611b0184611ab3565b611a98565b905082815260208101848484011115611b2257611b21611a33565b5b611b2d848285611ae4565b509392505050565b600082601f830112611b4a57611b49611a2e565b5b8135611b5a848260208601611af3565b91505092915050565b60008060408385031215611b7a57611b796117ad565b5b6000611b88858286016117d8565b925050602083013567ffffffffffffffff811115611ba957611ba86117b2565b5b611bb585828601611b35565b9150509250929050565b60008060408385031215611bd657611bd56117ad565b5b6000611be4858286016117d8565b9250506020611bf5858286016117d8565b9150509250929050565b6000606083016000830151611c176000860182611878565b5060208301518482036020860152611c2f82826118de565b9150506040830151611c446040860182611917565b508091505092915050565b60006020820190508181036000830152611c698184611bff565b905092915050565b611c7a816117b7565b82525050565b6000602082019050611c956000830184611c71565b92915050565b611ca481611866565b8114611caf57600080fd5b50565b600081359050611cc181611c9b565b92915050565b600080fd5b600080fd5b60008115159050919050565b611ce681611cd1565b8114611cf157600080fd5b50565b600081359050611d0381611cdd565b92915050565b60006102208284031215611d2057611d1f611cc7565b5b611d2b610220611a98565b9050600082013567ffffffffffffffff811115611d4b57611d4a611ccc565b5b611d5784828501611b35565b600083015250602082013567ffffffffffffffff811115611d7b57611d7a611ccc565b5b611d8784828501611b35565b602083015250604082013567ffffffffffffffff811115611dab57611daa611ccc565b5b611db784828501611b35565b604083015250606082013567ffffffffffffffff811115611ddb57611dda611ccc565b5b611de784828501611b35565b606083015250608082013567ffffffffffffffff811115611e0b57611e0a611ccc565b5b611e1784828501611b35565b60808301525060a0611e2b84828501611cf4565b60a08301525060c082013567ffffffffffffffff811115611e4f57611e4e611ccc565b5b611e5b84828501611b35565b60c08301525060e082013567ffffffffffffffff811115611e7f57611e7e611ccc565b5b611e8b84828501611b35565b60e08301525061010082013567ffffffffffffffff811115611eb057611eaf611ccc565b5b611ebc84828501611b35565b6101008301525061012082013567ffffffffffffffff811115611ee257611ee1611ccc565b5b611eee84828501611b35565b61012083015250610140611f0484828501611cf4565b6101408301525061016082013567ffffffffffffffff811115611f2a57611f29611ccc565b5b611f3684828501611b35565b6101608301525061018082013567ffffffffffffffff811115611f5c57611f5b611ccc565b5b611f6884828501611b35565b610180830152506101a082013567ffffffffffffffff811115611f8e57611f8d611ccc565b5b611f9a84828501611b35565b6101a0830152506101c082013567ffffffffffffffff811115611fc057611fbf611ccc565b5b611fcc84828501611b35565b6101c0830152506101e082013567ffffffffffffffff811115611ff257611ff1611ccc565b5b611ffe84828501611b35565b6101e08301525061020082013567ffffffffffffffff81111561202457612023611ccc565b5b61203084828501611b35565b6102008301525092915050565b60008060408385031215612054576120536117ad565b5b600061206285828601611cb2565b925050602083013567ffffffffffffffff811115612083576120826117b2565b5b61208f85828601611d09565b9150509250929050565b600080604083850312156120b0576120af6117ad565b5b60006120be858286016117d8565b92505060206120cf85828601611cb2565b9150509250929050565b600081519050919050565b600082825260208201905092915050565b6000819050602082019050919050565b61210e81611cd1565b82525050565b600061022083016000830151848203600086015261213282826118de565b9150506020830151848203602086015261214c82826118de565b9150506040830151848203604086015261216682826118de565b9150506060830151848203606086015261218082826118de565b9150506080830151848203608086015261219a82826118de565b91505060a08301516121af60a0860182612105565b5060c083015184820360c08601526121c782826118de565b91505060e083015184820360e08601526121e182826118de565b9150506101008301518482036101008601526121fd82826118de565b91505061012083015184820361012086015261221982826118de565b915050610140830151612230610140860182612105565b5061016083015184820361016086015261224a82826118de565b91505061018083015184820361018086015261226682826118de565b9150506101a08301518482036101a086015261228282826118de565b9150506101c08301518482036101c086015261229e82826118de565b9150506101e08301518482036101e08601526122ba82826118de565b9150506102008301518482036102008601526122d682826118de565b9150508091505092915050565b600060c0830160008301516122fb6000860182611917565b50602083015161230e6020860182611878565b50604083015184820360408601526123268282612114565b915050606083015161233b6060860182611917565b50608083015161234e6080860182612105565b5060a083015161236160a0860182611917565b508091505092915050565b600061237883836122e3565b905092915050565b6000602082019050919050565b6000612398826120d9565b6123a281856120e4565b9350836020820285016123b4856120f5565b8060005b858110156123f057848403895281516123d1858261236c565b94506123dc83612380565b925060208a019950506001810190506123b8565b50829750879550505050505092915050565b6000602082019050818103600083015261241c818461238d565b905092915050565b61242d81611866565b82525050565b60006020820190506124486000830184612424565b92915050565b60008060008060808587031215612468576124676117ad565b5b600061247687828801611cb2565b9450506020612487878288016117d8565b935050604085013567ffffffffffffffff8111156124a8576124a76117b2565b5b6124b487828801611b35565b92505060606124c5878288016117d8565b91505092959194509250565b600081519050919050565b600082825260208201905092915050565b6000819050602082019050919050565b60006080830160008301516125156000860182611878565b506020830151848203602086015261252d82826118de565b91505060408301516125426040860182611917565b5060608301516125556060860182611917565b508091505092915050565b600061256c83836124fd565b905092915050565b6000602082019050919050565b600061258c826124d1565b61259681856124dc565b9350836020820285016125a8856124ed565b8060005b858110156125e457848403895281516125c58582612560565b94506125d083612574565b925060208a019950506001810190506125ac565b50829750879550505050505092915050565b600060208201905081810360008301526126108184612581565b905092915050565b600060c0830160008301516126306000860182611917565b5060208301516126436020860182611878565b506040830151848203604086015261265b8282612114565b91505060608301516126706060860182611917565b5060808301516126836080860182612105565b5060a083015161269660a0860182611917565b508091505092915050565b600060208201905081810360008301526126bb8184612618565b905092915050565b60006080830160008301516126db6000860182611878565b50602083015184820360208601526126f382826118de565b91505060408301516127086040860182611917565b50606083015161271b6060860182611917565b508091505092915050565b6000602082019050818103600083015261274081846126c3565b905092915050565b60006020828403121561275e5761275d6117ad565b5b600061276c84828501611cb2565b91505092915050565b600067ffffffffffffffff8211156127905761278f611a38565b5b602082029050602081019050919050565b600080fd5b6000815190506127b581611c9b565b92915050565b60006127ce6127c984611ab3565b611a98565b9050828152602081018484840111156127ea576127e9611a33565b5b6127f58482856118a3565b509392505050565b600082601f83011261281257612811611a2e565b5b81516128228482602086016127bb565b91505092915050565b60008151905061283a816117c1565b92915050565b60006060828403121561285657612855611cc7565b5b6128606060611a98565b90506000612870848285016127a6565b600083015250602082015167ffffffffffffffff81111561289457612893611ccc565b5b6128a0848285016127fd565b60208301525060406128b48482850161282b565b60408301525092915050565b60006128d36128ce84612775565b611a98565b905080838252602082019050602084028301858111156128f6576128f56127a1565b5b835b8181101561293d57805167ffffffffffffffff81111561291b5761291a611a2e565b5b8086016129288982612840565b855260208501945050506020810190506128f8565b5050509392505050565b600082601f83011261295c5761295b611a2e565b5b815161296c8482602086016128c0565b91505092915050565b60006020828403121561298b5761298a6117ad565b5b600082015167ffffffffffffffff8111156129a9576129a86117b2565b5b6129b584828501612947565b91505092915050565b600082825260208201905092915050565b60006129da82611887565b6129e481856129be565b93506129f48185602086016118a3565b6129fd816118cd565b840191505092915050565b6000604082019050612a1d6000830185611c71565b8181036020830152612a2f81846129cf565b90509392505050565b7f4e487b7100000000000000000000000000000000000000000000000000000000600052601160045260246000fd5b6000612a72826117b7565b91507fffffffffffffffffffffffffffffffffffffffffffffffffffffffffffffffff8203612aa457612aa3612a38565b5b600182019050919050565b6000604082019050612ac46000830185611c71565b612ad16020830184611c71565b9392505050565b600060208284031215612aee57612aed6117ad565b5b600082015167ffffffffffffffff811115612b0c57612b0b6117b2565b5b612b1884828501612840565b91505092915050565b600060208284031215612b3757612b366117ad565b5b6000612b458482850161282b565b91505092915050565b6000610220830160008301518482036000860152612b6c82826118de565b91505060208301518482036020860152612b8682826118de565b91505060408301518482036040860152612ba082826118de565b91505060608301518482036060860152612bba82826118de565b91505060808301518482036080860152612bd482826118de565b91505060a0830151612be960a0860182612105565b5060c083015184820360c0860152612c0182826118de565b91505060e083015184820360e0860152612c1b82826118de565b915050610100830151848203610100860152612c3782826118de565b915050610120830151848203610120860152612c5382826118de565b915050610140830151612c6a610140860182612105565b50610160830151848203610160860152612c8482826118de565b915050610180830151848203610180860152612ca082826118de565b9150506101a08301518482036101a0860152612cbc82826118de565b9150506101c08301518482036101c0860152612cd882826118de565b9150506101e08301518482036101e0860152612cf482826118de565b915050610200830151848203610200860152612d1082826118de565b9150508091505092915050565b6000604082019050612d326000830185612424565b8181036020830152612d448184612b4e565b90509392505050565b6000604082019050612d626000830185611c71565b612d6f6020830184612424565b9392505050565b600081519050612d8581611cdd565b92915050565b60006102208284031215612da257612da1611cc7565b5b612dad610220611a98565b9050600082015167ffffffffffffffff811115612dcd57612dcc611ccc565b5b612dd9848285016127fd565b600083015250602082015167ffffffffffffffff811115612dfd57612dfc611ccc565b5b612e09848285016127fd565b602083015250604082015167ffffffffffffffff811115612e2d57612e2c611ccc565b5b612e39848285016127fd565b604083015250606082015167ffffffffffffffff811115612e5d57612e5c611ccc565b5b612e69848285016127fd565b606083015250608082015167ffffffffffffffff811115612e8d57612e8c611ccc565b5b612e99848285016127fd565b60808301525060a0612ead84828501612d76565b60a08301525060c082015167ffffffffffffffff811115612ed157612ed0611ccc565b5b612edd848285016127fd565b60c08301525060e082015167ffffffffffffffff811115612f0157612f00611ccc565b5b612f0d848285016127fd565b60e08301525061010082015167ffffffffffffffff811115612f3257612f31611ccc565b5b612f3e848285016127fd565b6101008301525061012082015167ffffffffffffffff811115612f6457612f63611ccc565b5b612f70848285016127fd565b61012083015250610140612f8684828501612d76565b6101408301525061016082015167ffffffffffffffff811115612fac57612fab611ccc565b5b612fb8848285016127fd565b6101608301525061018082015167ffffffffffffffff811115612fde57612fdd611ccc565b5b612fea848285016127fd565b610180830152506101a082015167ffffffffffffffff8111156130105761300f611ccc565b5b61301c848285016127fd565b6101a0830152506101c082015167ffffffffffffffff81111561304257613041611ccc565b5b61304e848285016127fd565b6101c0830152506101e082015167ffffffffffffffff81111561307457613073611ccc565b5b613080848285016127fd565b6101e08301525061020082015167ffffffffffffffff8111156130a6576130a5611ccc565b5b6130b2848285016127fd565b6102008301525092915050565b600060c082840312156130d5576130d4611cc7565b5b6130df60c0611a98565b905060006130ef8482850161282b565b6000830152506020613103848285016127a6565b602083015250604082015167ffffffffffffffff81111561312757613126611ccc565b5b61313384828501612d8b565b60408301525060606131478482850161282b565b606083015250608061315b84828501612d76565b60808301525060a061316f8482850161282b565b60a08301525092915050565b600060208284031215613191576131906117ad565b5b600082015167ffffffffffffffff8111156131af576131ae6117b2565b5b6131bb848285016130bf565b91505092915050565b600067ffffffffffffffff8211156131df576131de611a38565b5b602082029050602081019050919050565b60006132036131fe846131c4565b611a98565b90508083825260208201905060208402830185811115613226576132256127a1565b5b835b8181101561326d57805167ffffffffffffffff81111561324b5761324a611a2e565b5b80860161325889826130bf565b85526020850194505050602081019050613228565b5050509392505050565b600082601f83011261328c5761328b611a2e565b5b815161329c8482602086016131f0565b91505092915050565b6000602082840312156132bb576132ba6117ad565b5b600082015167ffffffffffffffff8111156132d9576132d86117b2565b5b6132e584828501613277565b91505092915050565b600067ffffffffffffffff82111561330957613308611a38565b5b602082029050602081019050919050565b6000608082840312156133305761332f611cc7565b5b61333a6080611a98565b9050600061334a848285016127a6565b600083015250602082015167ffffffffffffffff81111561336e5761336d611ccc565b5b61337a848285016127fd565b602083015250604061338e8482850161282b565b60408301525060606133a28482850161282b565b60608301525092915050565b60006133c16133bc846132ee565b611a98565b905080838252602082019050602084028301858111156133e4576133e36127a1565b5b835b8181101561342b57805167ffffffffffffffff81111561340957613408611a2e565b5b808601613416898261331a565b855260208501945050506020810190506133e6565b5050509392505050565b600082601f83011261344a57613449611a2e565b5b815161345a8482602086016133ae565b91505092915050565b600060208284031215613479576134786117ad565b5b600082015167ffffffffffffffff811115613497576134966117b2565b5b6134a384828501613435565b91505092915050565b7f52657669657720646f6573206e6f742065786973740000000000000000000000600082015250565b60006134e26015836129be565b91506134ed826134ac565b602082019050919050565b60006020820190508181036000830152613511816134d5565b9050919050565b60006020828403121561352e5761352d6117ad565b5b600061353c848285016127a6565b91505092915050565b600060808201905061355a6000830187612424565b6135676020830186611c71565b818103604083015261357981856129cf565b90506135886060830184611c71565b95945050505050565b6000602082840312156135a7576135a66117ad565b5b600082015167ffffffffffffffff8111156135c5576135c46117b2565b5b6135d18482850161331a565b9150509291505056fea2646970667358221220aac377501b468db89dfd1707f6ced0c46532bfcc0c717f33b89de221889e6eeb64736f6c63430008180033",
  "linkReferences": {},
  "deployedLinkReferences": {}
}