{
  "_format": "hh-sol-artifact-1",
  "contractName": "Product",
  "sourceName": "contracts/Product.sol",
  "abi": [
    {
      "inputs": [
        {
          "internalType": "address",
          "name": "initialOwner",
          "type": "address"
        }
      ],
      "stateMutability": "nonpayable",
      "type": "constructor"
    },
    {
      "inputs": [
        {
          "internalType": "address",
          "name": "owner",
          "type": "address"
        }
      ],
      "name": "OwnableInvalidOwner",
      "type": "error"
    },
    {
      "inputs": [
        {
          "internalType": "address",
          "name": "account",
          "type": "address"
        }
      ],
      "name": "OwnableUnauthorizedAccount",
      "type": "error"
    },
    {
      "anonymous": false,
      "inputs": [
        {
          "indexed": true,
          "internalType": "uint256",
          "name": "productId",
          "type": "uint256"
        },
        {
          "indexed": false,
          "internalType": "string",
          "name": "betaTestingLink",
          "type": "string"
        }
      ],
      "name": "BetaTestingLinkUpdated",
      "type": "event"
    },
    {
      "anonymous": false,
      "inputs": [
        {
          "indexed": true,
          "internalType": "address",
          "name": "previousOwner",
          "type": "address"
        },
        {
          "indexed": true,
          "internalType": "address",
          "name": "newOwner",
          "type": "address"
        }
      ],
      "name": "OwnershipTransferred",
      "type": "event"
    },
    {
      "anonymous": false,
      "inputs": [
        {
          "indexed": true,
          "internalType": "uint256",
          "name": "productId",
          "type": "uint256"
        },
        {
          "indexed": true,
          "internalType": "address",
          "name": "owner",
          "type": "address"
        },
        {
          "indexed": false,
          "internalType": "string",
          "name": "productName",
          "type": "string"
        },
        {
          "indexed": false,
          "internalType": "string",
          "name": "description",
          "type": "string"
        }
      ],
      "name": "ProductRegistered",
      "type": "event"
    },
    {
      "anonymous": false,
      "inputs": [
        {
          "indexed": true,
          "internalType": "uint256",
          "name": "productId",
          "type": "uint256"
        },
        {
          "indexed": true,
          "internalType": "address",
          "name": "user",
          "type": "address"
        }
      ],
      "name": "ProductUpvoted",
      "type": "event"
    },
    {
      "inputs": [
        {
          "internalType": "uint256",
          "name": "_productId",
          "type": "uint256"
        }
      ],
      "name": "canBeListed",
      "outputs": [
        {
          "internalType": "bool",
          "name": "",
          "type": "bool"
        }
      ],
      "stateMutability": "view",
      "type": "function"
    },
    {
      "inputs": [],
      "name": "getListedProducts",
      "outputs": [
        {
          "components": [
            {
              "internalType": "uint256",
              "name": "id",
              "type": "uint256"
            },
            {
              "internalType": "address",
              "name": "owner",
              "type": "address"
            },
            {
              "components": [
                {
                  "internalType": "string",
                  "name": "productName",
                  "type": "string"
                },
                {
                  "internalType": "string",
                  "name": "tagLine",
                  "type": "string"
                },
                {
                  "internalType": "string",
                  "name": "productLink",
                  "type": "string"
                },
                {
                  "internalType": "string",
                  "name": "twitterLink",
                  "type": "string"
                },
                {
                  "internalType": "string",
                  "name": "description",
                  "type": "string"
                },
                {
                  "internalType": "bool",
                  "name": "isOpenSource",
                  "type": "bool"
                },
                {
                  "internalType": "string",
                  "name": "category",
                  "type": "string"
                },
                {
                  "internalType": "string",
                  "name": "thumbNail",
                  "type": "string"
                },
                {
                  "internalType": "string",
                  "name": "mediaFile",
                  "type": "string"
                },
                {
                  "internalType": "string",
                  "name": "loomLink",
                  "type": "string"
                },
                {
                  "internalType": "bool",
                  "name": "workedWithTeam",
                  "type": "bool"
                },
                {
                  "internalType": "string",
                  "name": "teamMembersInput",
                  "type": "string"
                },
                {
                  "internalType": "string",
                  "name": "pricingOption",
                  "type": "string"
                },
                {
                  "internalType": "string",
                  "name": "offer",
                  "type": "string"
                },
                {
                  "internalType": "string",
                  "name": "promoCode",
                  "type": "string"
                },
                {
                  "internalType": "string",
                  "name": "expirationDate",
                  "type": "string"
                },
                {
                  "internalType": "string",
                  "name": "betaTestingLink",
                  "type": "string"
                }
              ],
              "internalType": "struct Product.ProductDetails",
              "name": "details",
              "type": "tuple"
            },
            {
              "internalType": "uint256",
              "name": "upvotes",
              "type": "uint256"
            },
            {
              "internalType": "bool",
              "name": "betaTestingAvailable",
              "type": "bool"
            },
            {
              "internalType": "uint256",
              "name": "timestamp",
              "type": "uint256"
            }
          ],
          "internalType": "struct Product.ProductInfo[]",
          "name": "",
          "type": "tuple[]"
        }
      ],
      "stateMutability": "view",
      "type": "function"
    },
    {
      "inputs": [],
      "name": "getListedProductsAvailable",
      "outputs": [
        {
          "components": [
            {
              "internalType": "uint256",
              "name": "id",
              "type": "uint256"
            },
            {
              "internalType": "address",
              "name": "owner",
              "type": "address"
            },
            {
              "components": [
                {
                  "internalType": "string",
                  "name": "productName",
                  "type": "string"
                },
                {
                  "internalType": "string",
                  "name": "tagLine",
                  "type": "string"
                },
                {
                  "internalType": "string",
                  "name": "productLink",
                  "type": "string"
                },
                {
                  "internalType": "string",
                  "name": "twitterLink",
                  "type": "string"
                },
                {
                  "internalType": "string",
                  "name": "description",
                  "type": "string"
                },
                {
                  "internalType": "bool",
                  "name": "isOpenSource",
                  "type": "bool"
                },
                {
                  "internalType": "string",
                  "name": "category",
                  "type": "string"
                },
                {
                  "internalType": "string",
                  "name": "thumbNail",
                  "type": "string"
                },
                {
                  "internalType": "string",
                  "name": "mediaFile",
                  "type": "string"
                },
                {
                  "internalType": "string",
                  "name": "loomLink",
                  "type": "string"
                },
                {
                  "internalType": "bool",
                  "name": "workedWithTeam",
                  "type": "bool"
                },
                {
                  "internalType": "string",
                  "name": "teamMembersInput",
                  "type": "string"
                },
                {
                  "internalType": "string",
                  "name": "pricingOption",
                  "type": "string"
                },
                {
                  "internalType": "string",
                  "name": "offer",
                  "type": "string"
                },
                {
                  "internalType": "string",
                  "name": "promoCode",
                  "type": "string"
                },
                {
                  "internalType": "string",
                  "name": "expirationDate",
                  "type": "string"
                },
                {
                  "internalType": "string",
                  "name": "betaTestingLink",
                  "type": "string"
                }
              ],
              "internalType": "struct Product.ProductDetails",
              "name": "details",
              "type": "tuple"
            },
            {
              "internalType": "uint256",
              "name": "upvotes",
              "type": "uint256"
            },
            {
              "internalType": "bool",
              "name": "betaTestingAvailable",
              "type": "bool"
            },
            {
              "internalType": "uint256",
              "name": "timestamp",
              "type": "uint256"
            }
          ],
          "internalType": "struct Product.ProductInfo[]",
          "name": "",
          "type": "tuple[]"
        }
      ],
      "stateMutability": "view",
      "type": "function"
    },
    {
      "inputs": [
        {
          "internalType": "uint256",
          "name": "_productId",
          "type": "uint256"
        }
      ],
      "name": "getProduct",
      "outputs": [
        {
          "components": [
            {
              "internalType": "uint256",
              "name": "id",
              "type": "uint256"
            },
            {
              "internalType": "address",
              "name": "owner",
              "type": "address"
            },
            {
              "components": [
                {
                  "internalType": "string",
                  "name": "productName",
                  "type": "string"
                },
                {
                  "internalType": "string",
                  "name": "tagLine",
                  "type": "string"
                },
                {
                  "internalType": "string",
                  "name": "productLink",
                  "type": "string"
                },
                {
                  "internalType": "string",
                  "name": "twitterLink",
                  "type": "string"
                },
                {
                  "internalType": "string",
                  "name": "description",
                  "type": "string"
                },
                {
                  "internalType": "bool",
                  "name": "isOpenSource",
                  "type": "bool"
                },
                {
                  "internalType": "string",
                  "name": "category",
                  "type": "string"
                },
                {
                  "internalType": "string",
                  "name": "thumbNail",
                  "type": "string"
                },
                {
                  "internalType": "string",
                  "name": "mediaFile",
                  "type": "string"
                },
                {
                  "internalType": "string",
                  "name": "loomLink",
                  "type": "string"
                },
                {
                  "internalType": "bool",
                  "name": "workedWithTeam",
                  "type": "bool"
                },
                {
                  "internalType": "string",
                  "name": "teamMembersInput",
                  "type": "string"
                },
                {
                  "internalType": "string",
                  "name": "pricingOption",
                  "type": "string"
                },
                {
                  "internalType": "string",
                  "name": "offer",
                  "type": "string"
                },
                {
                  "internalType": "string",
                  "name": "promoCode",
                  "type": "string"
                },
                {
                  "internalType": "string",
                  "name": "expirationDate",
                  "type": "string"
                },
                {
                  "internalType": "string",
                  "name": "betaTestingLink",
                  "type": "string"
                }
              ],
              "internalType": "struct Product.ProductDetails",
              "name": "details",
              "type": "tuple"
            },
            {
              "internalType": "uint256",
              "name": "upvotes",
              "type": "uint256"
            },
            {
              "internalType": "bool",
              "name": "betaTestingAvailable",
              "type": "bool"
            },
            {
              "internalType": "uint256",
              "name": "timestamp",
              "type": "uint256"
            }
          ],
          "internalType": "struct Product.ProductInfo",
          "name": "",
          "type": "tuple"
        }
      ],
      "stateMutability": "view",
      "type": "function"
    },
    {
      "inputs": [
        {
          "internalType": "uint256",
          "name": "",
          "type": "uint256"
        },
        {
          "internalType": "address",
          "name": "",
          "type": "address"
        }
      ],
      "name": "hasUpvoted",
      "outputs": [
        {
          "internalType": "bool",
          "name": "",
          "type": "bool"
        }
      ],
      "stateMutability": "view",
      "type": "function"
    },
    {
      "inputs": [],
      "name": "owner",
      "outputs": [
        {
          "internalType": "address",
          "name": "",
          "type": "address"
        }
      ],
      "stateMutability": "view",
      "type": "function"
    },
    {
      "inputs": [
        {
          "internalType": "uint256",
          "name": "",
          "type": "uint256"
        }
      ],
      "name": "products",
      "outputs": [
        {
          "internalType": "uint256",
          "name": "id",
          "type": "uint256"
        },
        {
          "internalType": "address",
          "name": "owner",
          "type": "address"
        },
        {
          "components": [
            {
              "internalType": "string",
              "name": "productName",
              "type": "string"
            },
            {
              "internalType": "string",
              "name": "tagLine",
              "type": "string"
            },
            {
              "internalType": "string",
              "name": "productLink",
              "type": "string"
            },
            {
              "internalType": "string",
              "name": "twitterLink",
              "type": "string"
            },
            {
              "internalType": "string",
              "name": "description",
              "type": "string"
            },
            {
              "internalType": "bool",
              "name": "isOpenSource",
              "type": "bool"
            },
            {
              "internalType": "string",
              "name": "category",
              "type": "string"
            },
            {
              "internalType": "string",
              "name": "thumbNail",
              "type": "string"
            },
            {
              "internalType": "string",
              "name": "mediaFile",
              "type": "string"
            },
            {
              "internalType": "string",
              "name": "loomLink",
              "type": "string"
            },
            {
              "internalType": "bool",
              "name": "workedWithTeam",
              "type": "bool"
            },
            {
              "internalType": "string",
              "name": "teamMembersInput",
              "type": "string"
            },
            {
              "internalType": "string",
              "name": "pricingOption",
              "type": "string"
            },
            {
              "internalType": "string",
              "name": "offer",
              "type": "string"
            },
            {
              "internalType": "string",
              "name": "promoCode",
              "type": "string"
            },
            {
              "internalType": "string",
              "name": "expirationDate",
              "type": "string"
            },
            {
              "internalType": "string",
              "name": "betaTestingLink",
              "type": "string"
            }
          ],
          "internalType": "struct Product.ProductDetails",
          "name": "details",
          "type": "tuple"
        },
        {
          "internalType": "uint256",
          "name": "upvotes",
          "type": "uint256"
        },
        {
          "internalType": "bool",
          "name": "betaTestingAvailable",
          "type": "bool"
        },
        {
          "internalType": "uint256",
          "name": "timestamp",
          "type": "uint256"
        }
      ],
      "stateMutability": "view",
      "type": "function"
    },
    {
      "inputs": [
        {
          "internalType": "address",
          "name": "_owner",
          "type": "address"
        },
        {
          "components": [
            {
              "internalType": "string",
              "name": "productName",
              "type": "string"
            },
            {
              "internalType": "string",
              "name": "tagLine",
              "type": "string"
            },
            {
              "internalType": "string",
              "name": "productLink",
              "type": "string"
            },
            {
              "internalType": "string",
              "name": "twitterLink",
              "type": "string"
            },
            {
              "internalType": "string",
              "name": "description",
              "type": "string"
            },
            {
              "internalType": "bool",
              "name": "isOpenSource",
              "type": "bool"
            },
            {
              "internalType": "string",
              "name": "category",
              "type": "string"
            },
            {
              "internalType": "string",
              "name": "thumbNail",
              "type": "string"
            },
            {
              "internalType": "string",
              "name": "mediaFile",
              "type": "string"
            },
            {
              "internalType": "string",
              "name": "loomLink",
              "type": "string"
            },
            {
              "internalType": "bool",
              "name": "workedWithTeam",
              "type": "bool"
            },
            {
              "internalType": "string",
              "name": "teamMembersInput",
              "type": "string"
            },
            {
              "internalType": "string",
              "name": "pricingOption",
              "type": "string"
            },
            {
              "internalType": "string",
              "name": "offer",
              "type": "string"
            },
            {
              "internalType": "string",
              "name": "promoCode",
              "type": "string"
            },
            {
              "internalType": "string",
              "name": "expirationDate",
              "type": "string"
            },
            {
              "internalType": "string",
              "name": "betaTestingLink",
              "type": "string"
            }
          ],
          "internalType": "struct Product.ProductDetails",
          "name": "details",
          "type": "tuple"
        }
      ],
      "name": "registerProduct",
      "outputs": [],
      "stateMutability": "nonpayable",
      "type": "function"
    },
    {
      "inputs": [],
      "name": "renounceOwnership",
      "outputs": [],
      "stateMutability": "nonpayable",
      "type": "function"
    },
    {
      "inputs": [
        {
          "internalType": "address",
          "name": "newOwner",
          "type": "address"
        }
      ],
      "name": "transferOwnership",
      "outputs": [],
      "stateMutability": "nonpayable",
      "type": "function"
    },
    {
      "inputs": [
        {
          "internalType": "uint256",
          "name": "_productId",
          "type": "uint256"
        },
        {
          "internalType": "string",
          "name": "_betaTestingLink",
          "type": "string"
        }
      ],
      "name": "updateBetaTestingLink",
      "outputs": [],
      "stateMutability": "nonpayable",
      "type": "function"
    },
    {
      "inputs": [
        {
          "internalType": "uint256",
          "name": "productId",
          "type": "uint256"
        },
        {
          "internalType": "address",
          "name": "upvoter",
          "type": "address"
        }
      ],
      "name": "upvoteProduct",
      "outputs": [],
      "stateMutability": "nonpayable",
      "type": "function"
    }
  ],
  "bytecode": "0x60806040523480156200001157600080fd5b50604051620055c6380380620055c68339818101604052810190620000379190620001f4565b80600073ffffffffffffffffffffffffffffffffffffffff168173ffffffffffffffffffffffffffffffffffffffff1603620000ad5760006040517f1e4fbdf7000000000000000000000000000000000000000000000000000000008152600401620000a4919062000237565b60405180910390fd5b620000be81620000c660201b60201c565b505062000254565b60008060009054906101000a900473ffffffffffffffffffffffffffffffffffffffff169050816000806101000a81548173ffffffffffffffffffffffffffffffffffffffff021916908373ffffffffffffffffffffffffffffffffffffffff1602179055508173ffffffffffffffffffffffffffffffffffffffff168173ffffffffffffffffffffffffffffffffffffffff167f8be0079c531659141344cd1fd0a4f28419497f9722a3daafe3b4186f6b6457e060405160405180910390a35050565b600080fd5b600073ffffffffffffffffffffffffffffffffffffffff82169050919050565b6000620001bc826200018f565b9050919050565b620001ce81620001af565b8114620001da57600080fd5b50565b600081519050620001ee81620001c3565b92915050565b6000602082840312156200020d576200020c6200018a565b5b60006200021d84828501620001dd565b91505092915050565b6200023181620001af565b82525050565b60006020820190506200024e600083018462000226565b92915050565b61536280620002646000396000f3fe608060405234801561001057600080fd5b50600436106100b45760003560e01c80638da5cb5b116100715780638da5cb5b1461016a578063a52c865814610188578063b9db15b4146101b8578063e66f7f46146101e8578063f1c88b4b14610206578063f2fde38b14610236576100b4565b806352cb26af146100b957806355110f14146100d7578063577ac4af146100f357806363283c841461010f578063715018a61461012b5780637acc0b2014610135575b600080fd5b6100c1610252565b6040516100ce91906142b7565b60405180910390f35b6100f160048036038101906100ec919061444e565b610c8d565b005b61010d60048036038101906101089190614840565b610e22565b005b6101296004803603810190610124919061489c565b611127565b005b6101336113a8565b005b61014f600480360381019061014a91906148dc565b6113bc565b60405161016196959493929190614b05565b60405180910390f35b610172611cf4565b60405161017f9190614b6d565b60405180910390f35b6101a2600480360381019061019d919061489c565b611d1d565b6040516101af9190614b88565b60405180910390f35b6101d260048036038101906101cd91906148dc565b611d4c565b6040516101df9190614c2c565b60405180910390f35b6101f061273b565b6040516101fd91906142b7565b60405180910390f35b610220600480360381019061021b91906148dc565b6131ca565b60405161022d9190614b88565b60405180910390f35b610250600480360381019061024b9190614c4e565b613be3565b005b60606000600154905060008167ffffffffffffffff81111561027757610276614323565b5b6040519080825280602002602001820160405280156102b057816020015b61029d613dbc565b8152602001906001900390816102955790505b5090506000600190505b828111610c8457600260008281526020019081526020016000206040518060c0016040529081600082015481526020016001820160009054906101000a900473ffffffffffffffffffffffffffffffffffffffff1673ffffffffffffffffffffffffffffffffffffffff1673ffffffffffffffffffffffffffffffffffffffff168152602001600282016040518061022001604052908160008201805461036090614caa565b80601f016020809104026020016040519081016040528092919081815260200182805461038c90614caa565b80156103d95780601f106103ae576101008083540402835291602001916103d9565b820191906000526020600020905b8154815290600101906020018083116103bc57829003601f168201915b505050505081526020016001820180546103f290614caa565b80601f016020809104026020016040519081016040528092919081815260200182805461041e90614caa565b801561046b5780601f106104405761010080835404028352916020019161046b565b820191906000526020600020905b81548152906001019060200180831161044e57829003601f168201915b5050505050815260200160028201805461048490614caa565b80601f01602080910402602001604051908101604052809291908181526020018280546104b090614caa565b80156104fd5780601f106104d2576101008083540402835291602001916104fd565b820191906000526020600020905b8154815290600101906020018083116104e057829003601f168201915b5050505050815260200160038201805461051690614caa565b80601f016020809104026020016040519081016040528092919081815260200182805461054290614caa565b801561058f5780601f106105645761010080835404028352916020019161058f565b820191906000526020600020905b81548152906001019060200180831161057257829003601f168201915b505050505081526020016004820180546105a890614caa565b80601f01602080910402602001604051908101604052809291908181526020018280546105d490614caa565b80156106215780601f106105f657610100808354040283529160200191610621565b820191906000526020600020905b81548152906001019060200180831161060457829003601f168201915b505050505081526020016005820160009054906101000a900460ff1615151515815260200160068201805461065590614caa565b80601f016020809104026020016040519081016040528092919081815260200182805461068190614caa565b80156106ce5780601f106106a3576101008083540402835291602001916106ce565b820191906000526020600020905b8154815290600101906020018083116106b157829003601f168201915b505050505081526020016007820180546106e790614caa565b80601f016020809104026020016040519081016040528092919081815260200182805461071390614caa565b80156107605780601f1061073557610100808354040283529160200191610760565b820191906000526020600020905b81548152906001019060200180831161074357829003601f168201915b5050505050815260200160088201805461077990614caa565b80601f01602080910402602001604051908101604052809291908181526020018280546107a590614caa565b80156107f25780601f106107c7576101008083540402835291602001916107f2565b820191906000526020600020905b8154815290600101906020018083116107d557829003601f168201915b5050505050815260200160098201805461080b90614caa565b80601f016020809104026020016040519081016040528092919081815260200182805461083790614caa565b80156108845780601f1061085957610100808354040283529160200191610884565b820191906000526020600020905b81548152906001019060200180831161086757829003601f168201915b50505050508152602001600a820160009054906101000a900460ff16151515158152602001600b820180546108b890614caa565b80601f01602080910402602001604051908101604052809291908181526020018280546108e490614caa565b80156109315780601f1061090657610100808354040283529160200191610931565b820191906000526020600020905b81548152906001019060200180831161091457829003601f168201915b50505050508152602001600c8201805461094a90614caa565b80601f016020809104026020016040519081016040528092919081815260200182805461097690614caa565b80156109c35780601f10610998576101008083540402835291602001916109c3565b820191906000526020600020905b8154815290600101906020018083116109a657829003601f168201915b50505050508152602001600d820180546109dc90614caa565b80601f0160208091040260200160405190810160405280929190818152602001828054610a0890614caa565b8015610a555780601f10610a2a57610100808354040283529160200191610a55565b820191906000526020600020905b815481529060010190602001808311610a3857829003601f168201915b50505050508152602001600e82018054610a6e90614caa565b80601f0160208091040260200160405190810160405280929190818152602001828054610a9a90614caa565b8015610ae75780601f10610abc57610100808354040283529160200191610ae7565b820191906000526020600020905b815481529060010190602001808311610aca57829003601f168201915b50505050508152602001600f82018054610b0090614caa565b80601f0160208091040260200160405190810160405280929190818152602001828054610b2c90614caa565b8015610b795780601f10610b4e57610100808354040283529160200191610b79565b820191906000526020600020905b815481529060010190602001808311610b5c57829003601f168201915b50505050508152602001601082018054610b9290614caa565b80601f0160208091040260200160405190810160405280929190818152602001828054610bbe90614caa565b8015610c0b5780601f10610be057610100808354040283529160200191610c0b565b820191906000526020600020905b815481529060010190602001808311610bee57829003601f168201915b5050505050815250508152602001601382015481526020016014820160009054906101000a900460ff1615151515815260200160158201548152505082600183610c559190614d0a565b81518110610c6657610c65614d3e565b5b60200260200101819052508080610c7c90614d6d565b9150506102ba565b50809250505090565b8180600260008381526020019081526020016000206000015414610ce6576040517f08c379a0000000000000000000000000000000000000000000000000000000008152600401610cdd90614e12565b60405180910390fd5b823373ffffffffffffffffffffffffffffffffffffffff166002600083815260200190815260200160002060010160009054906101000a900473ffffffffffffffffffffffffffffffffffffffff1673ffffffffffffffffffffffffffffffffffffffff1614610d8b576040517f08c379a0000000000000000000000000000000000000000000000000000000008152600401610d8290614ea4565b60405180910390fd5b82600260008681526020019081526020016000206002016010019081610db19190615070565b5060008351116002600086815260200190815260200160002060140160006101000a81548160ff021916908315150217905550837f60b68b8d9dde04a1c7a3c8b7c6631c84bca71372b9f129b0958fd4d901a57e5384604051610e14919061517b565b60405180910390a250505050565b60016000815480929190610e3590614d6d565b9190505550600060015490506040518060c001604052808281526020018473ffffffffffffffffffffffffffffffffffffffff16815260200183815260200160008152602001600084610200015151111515815260200142815250600260008381526020019081526020016000206000820151816000015560208201518160010160006101000a81548173ffffffffffffffffffffffffffffffffffffffff021916908373ffffffffffffffffffffffffffffffffffffffff1602179055506040820151816002016000820151816000019081610f129190615070565b506020820151816001019081610f289190615070565b506040820151816002019081610f3e9190615070565b506060820151816003019081610f549190615070565b506080820151816004019081610f6a9190615070565b5060a08201518160050160006101000a81548160ff02191690831515021790555060c0820151816006019081610fa09190615070565b5060e0820151816007019081610fb69190615070565b50610100820151816008019081610fcd9190615070565b50610120820151816009019081610fe49190615070565b5061014082015181600a0160006101000a81548160ff02191690831515021790555061016082015181600b01908161101c9190615070565b5061018082015181600c0190816110339190615070565b506101a082015181600d01908161104a9190615070565b506101c082015181600e0190816110619190615070565b506101e082015181600f0190816110789190615070565b5061020082015181601001908161108f9190615070565b5050506060820151816013015560808201518160140160006101000a81548160ff02191690831515021790555060a082015181601501559050508273ffffffffffffffffffffffffffffffffffffffff16817fb5744bf87060f3c128bd7ec7c73734981e2525b5958bd63d50320e2e282fb7578460000151856080015160405161111a92919061519d565b60405180910390a3505050565b8180600260008381526020019081526020016000206000015414611180576040517f08c379a000000000000000000000000000000000000000000000000000000000815260040161117790614e12565b60405180910390fd5b82828073ffffffffffffffffffffffffffffffffffffffff166002600084815260200190815260200160002060010160009054906101000a900473ffffffffffffffffffffffffffffffffffffffff1673ffffffffffffffffffffffffffffffffffffffff1603611226576040517f08c379a000000000000000000000000000000000000000000000000000000000815260040161121d90615246565b60405180910390fd5b84846003600083815260200190815260200160002060008273ffffffffffffffffffffffffffffffffffffffff1673ffffffffffffffffffffffffffffffffffffffff16815260200190815260200160002060009054906101000a900460ff16156112c6576040517f08c379a00000000000000000000000000000000000000000000000000000000081526004016112bd906152d8565b60405180910390fd5b6002600088815260200190815260200160002060130160008154809291906112ed90614d6d565b919050555060016003600089815260200190815260200160002060008873ffffffffffffffffffffffffffffffffffffffff1673ffffffffffffffffffffffffffffffffffffffff16815260200190815260200160002060006101000a81548160ff0219169083151502179055508573ffffffffffffffffffffffffffffffffffffffff16877f956f0f479292addd89f768b4b97612f546f78aae3d2b8a416a19c8b5b610b40560405160405180910390a350505050505050565b6113b0613c69565b6113ba6000613cf0565b565b60026020528060005260406000206000915090508060000154908060010160009054906101000a900473ffffffffffffffffffffffffffffffffffffffff1690806002016040518061022001604052908160008201805461141c90614caa565b80601f016020809104026020016040519081016040528092919081815260200182805461144890614caa565b80156114955780601f1061146a57610100808354040283529160200191611495565b820191906000526020600020905b81548152906001019060200180831161147857829003601f168201915b505050505081526020016001820180546114ae90614caa565b80601f01602080910402602001604051908101604052809291908181526020018280546114da90614caa565b80156115275780601f106114fc57610100808354040283529160200191611527565b820191906000526020600020905b81548152906001019060200180831161150a57829003601f168201915b5050505050815260200160028201805461154090614caa565b80601f016020809104026020016040519081016040528092919081815260200182805461156c90614caa565b80156115b95780601f1061158e576101008083540402835291602001916115b9565b820191906000526020600020905b81548152906001019060200180831161159c57829003601f168201915b505050505081526020016003820180546115d290614caa565b80601f01602080910402602001604051908101604052809291908181526020018280546115fe90614caa565b801561164b5780601f106116205761010080835404028352916020019161164b565b820191906000526020600020905b81548152906001019060200180831161162e57829003601f168201915b5050505050815260200160048201805461166490614caa565b80601f016020809104026020016040519081016040528092919081815260200182805461169090614caa565b80156116dd5780601f106116b2576101008083540402835291602001916116dd565b820191906000526020600020905b8154815290600101906020018083116116c057829003601f168201915b505050505081526020016005820160009054906101000a900460ff1615151515815260200160068201805461171190614caa565b80601f016020809104026020016040519081016040528092919081815260200182805461173d90614caa565b801561178a5780601f1061175f5761010080835404028352916020019161178a565b820191906000526020600020905b81548152906001019060200180831161176d57829003601f168201915b505050505081526020016007820180546117a390614caa565b80601f01602080910402602001604051908101604052809291908181526020018280546117cf90614caa565b801561181c5780601f106117f15761010080835404028352916020019161181c565b820191906000526020600020905b8154815290600101906020018083116117ff57829003601f168201915b5050505050815260200160088201805461183590614caa565b80601f016020809104026020016040519081016040528092919081815260200182805461186190614caa565b80156118ae5780601f10611883576101008083540402835291602001916118ae565b820191906000526020600020905b81548152906001019060200180831161189157829003601f168201915b505050505081526020016009820180546118c790614caa565b80601f01602080910402602001604051908101604052809291908181526020018280546118f390614caa565b80156119405780601f1061191557610100808354040283529160200191611940565b820191906000526020600020905b81548152906001019060200180831161192357829003601f168201915b50505050508152602001600a820160009054906101000a900460ff16151515158152602001600b8201805461197490614caa565b80601f01602080910402602001604051908101604052809291908181526020018280546119a090614caa565b80156119ed5780601f106119c2576101008083540402835291602001916119ed565b820191906000526020600020905b8154815290600101906020018083116119d057829003601f168201915b50505050508152602001600c82018054611a0690614caa565b80601f0160208091040260200160405190810160405280929190818152602001828054611a3290614caa565b8015611a7f5780601f10611a5457610100808354040283529160200191611a7f565b820191906000526020600020905b815481529060010190602001808311611a6257829003601f168201915b50505050508152602001600d82018054611a9890614caa565b80601f0160208091040260200160405190810160405280929190818152602001828054611ac490614caa565b8015611b115780601f10611ae657610100808354040283529160200191611b11565b820191906000526020600020905b815481529060010190602001808311611af457829003601f168201915b50505050508152602001600e82018054611b2a90614caa565b80601f0160208091040260200160405190810160405280929190818152602001828054611b5690614caa565b8015611ba35780601f10611b7857610100808354040283529160200191611ba3565b820191906000526020600020905b815481529060010190602001808311611b8657829003601f168201915b50505050508152602001600f82018054611bbc90614caa565b80601f0160208091040260200160405190810160405280929190818152602001828054611be890614caa565b8015611c355780601f10611c0a57610100808354040283529160200191611c35565b820191906000526020600020905b815481529060010190602001808311611c1857829003601f168201915b50505050508152602001601082018054611c4e90614caa565b80601f0160208091040260200160405190810160405280929190818152602001828054611c7a90614caa565b8015611cc75780601f10611c9c57610100808354040283529160200191611cc7565b820191906000526020600020905b815481529060010190602001808311611caa57829003601f168201915b505050505081525050908060130154908060140160009054906101000a900460ff16908060150154905086565b60008060009054906101000a900473ffffffffffffffffffffffffffffffffffffffff16905090565b60036020528160005260406000206020528060005260406000206000915091509054906101000a900460ff1681565b611d54613dbc565b8180600260008381526020019081526020016000206000015414611dad576040517f08c379a0000000000000000000000000000000000000000000000000000000008152600401611da490614e12565b60405180910390fd5b600260008481526020019081526020016000206040518060c0016040529081600082015481526020016001820160009054906101000a900473ffffffffffffffffffffffffffffffffffffffff1673ffffffffffffffffffffffffffffffffffffffff1673ffffffffffffffffffffffffffffffffffffffff1681526020016002820160405180610220016040529081600082018054611e4c90614caa565b80601f0160208091040260200160405190810160405280929190818152602001828054611e7890614caa565b8015611ec55780601f10611e9a57610100808354040283529160200191611ec5565b820191906000526020600020905b815481529060010190602001808311611ea857829003601f168201915b50505050508152602001600182018054611ede90614caa565b80601f0160208091040260200160405190810160405280929190818152602001828054611f0a90614caa565b8015611f575780601f10611f2c57610100808354040283529160200191611f57565b820191906000526020600020905b815481529060010190602001808311611f3a57829003601f168201915b50505050508152602001600282018054611f7090614caa565b80601f0160208091040260200160405190810160405280929190818152602001828054611f9c90614caa565b8015611fe95780601f10611fbe57610100808354040283529160200191611fe9565b820191906000526020600020905b815481529060010190602001808311611fcc57829003601f168201915b5050505050815260200160038201805461200290614caa565b80601f016020809104026020016040519081016040528092919081815260200182805461202e90614caa565b801561207b5780601f106120505761010080835404028352916020019161207b565b820191906000526020600020905b81548152906001019060200180831161205e57829003601f168201915b5050505050815260200160048201805461209490614caa565b80601f01602080910402602001604051908101604052809291908181526020018280546120c090614caa565b801561210d5780601f106120e25761010080835404028352916020019161210d565b820191906000526020600020905b8154815290600101906020018083116120f057829003601f168201915b505050505081526020016005820160009054906101000a900460ff1615151515815260200160068201805461214190614caa565b80601f016020809104026020016040519081016040528092919081815260200182805461216d90614caa565b80156121ba5780601f1061218f576101008083540402835291602001916121ba565b820191906000526020600020905b81548152906001019060200180831161219d57829003601f168201915b505050505081526020016007820180546121d390614caa565b80601f01602080910402602001604051908101604052809291908181526020018280546121ff90614caa565b801561224c5780601f106122215761010080835404028352916020019161224c565b820191906000526020600020905b81548152906001019060200180831161222f57829003601f168201915b5050505050815260200160088201805461226590614caa565b80601f016020809104026020016040519081016040528092919081815260200182805461229190614caa565b80156122de5780601f106122b3576101008083540402835291602001916122de565b820191906000526020600020905b8154815290600101906020018083116122c157829003601f168201915b505050505081526020016009820180546122f790614caa565b80601f016020809104026020016040519081016040528092919081815260200182805461232390614caa565b80156123705780601f1061234557610100808354040283529160200191612370565b820191906000526020600020905b81548152906001019060200180831161235357829003601f168201915b50505050508152602001600a820160009054906101000a900460ff16151515158152602001600b820180546123a490614caa565b80601f01602080910402602001604051908101604052809291908181526020018280546123d090614caa565b801561241d5780601f106123f25761010080835404028352916020019161241d565b820191906000526020600020905b81548152906001019060200180831161240057829003601f168201915b50505050508152602001600c8201805461243690614caa565b80601f016020809104026020016040519081016040528092919081815260200182805461246290614caa565b80156124af5780601f10612484576101008083540402835291602001916124af565b820191906000526020600020905b81548152906001019060200180831161249257829003601f168201915b50505050508152602001600d820180546124c890614caa565b80601f01602080910402602001604051908101604052809291908181526020018280546124f490614caa565b80156125415780601f1061251657610100808354040283529160200191612541565b820191906000526020600020905b81548152906001019060200180831161252457829003601f168201915b50505050508152602001600e8201805461255a90614caa565b80601f016020809104026020016040519081016040528092919081815260200182805461258690614caa565b80156125d35780601f106125a8576101008083540402835291602001916125d3565b820191906000526020600020905b8154815290600101906020018083116125b657829003601f168201915b50505050508152602001600f820180546125ec90614caa565b80601f016020809104026020016040519081016040528092919081815260200182805461261890614caa565b80156126655780601f1061263a57610100808354040283529160200191612665565b820191906000526020600020905b81548152906001019060200180831161264857829003601f168201915b5050505050815260200160108201805461267e90614caa565b80601f01602080910402602001604051908101604052809291908181526020018280546126aa90614caa565b80156126f75780601f106126cc576101008083540402835291602001916126f7565b820191906000526020600020905b8154815290600101906020018083116126da57829003601f168201915b5050505050815250508152602001601382015481526020016014820160009054906101000a900460ff16151515158152602001601582015481525050915050919050565b606060006001549050600080600190505b8281116127835761275c816131ca565b1561277057818061276c90614d6d565b9250505b808061277b90614d6d565b91505061274c565b5060008167ffffffffffffffff8111156127a05761279f614323565b5b6040519080825280602002602001820160405280156127d957816020015b6127c6613dbc565b8152602001906001900390816127be5790505b509050600080600190505b8481116131bf576127f4816131ca565b156131ac57600260008281526020019081526020016000206040518060c0016040529081600082015481526020016001820160009054906101000a900473ffffffffffffffffffffffffffffffffffffffff1673ffffffffffffffffffffffffffffffffffffffff1673ffffffffffffffffffffffffffffffffffffffff168152602001600282016040518061022001604052908160008201805461289890614caa565b80601f01602080910402602001604051908101604052809291908181526020018280546128c490614caa565b80156129115780601f106128e657610100808354040283529160200191612911565b820191906000526020600020905b8154815290600101906020018083116128f457829003601f168201915b5050505050815260200160018201805461292a90614caa565b80601f016020809104026020016040519081016040528092919081815260200182805461295690614caa565b80156129a35780601f10612978576101008083540402835291602001916129a3565b820191906000526020600020905b81548152906001019060200180831161298657829003601f168201915b505050505081526020016002820180546129bc90614caa565b80601f01602080910402602001604051908101604052809291908181526020018280546129e890614caa565b8015612a355780601f10612a0a57610100808354040283529160200191612a35565b820191906000526020600020905b815481529060010190602001808311612a1857829003601f168201915b50505050508152602001600382018054612a4e90614caa565b80601f0160208091040260200160405190810160405280929190818152602001828054612a7a90614caa565b8015612ac75780601f10612a9c57610100808354040283529160200191612ac7565b820191906000526020600020905b815481529060010190602001808311612aaa57829003601f168201915b50505050508152602001600482018054612ae090614caa565b80601f0160208091040260200160405190810160405280929190818152602001828054612b0c90614caa565b8015612b595780601f10612b2e57610100808354040283529160200191612b59565b820191906000526020600020905b815481529060010190602001808311612b3c57829003601f168201915b505050505081526020016005820160009054906101000a900460ff16151515158152602001600682018054612b8d90614caa565b80601f0160208091040260200160405190810160405280929190818152602001828054612bb990614caa565b8015612c065780601f10612bdb57610100808354040283529160200191612c06565b820191906000526020600020905b815481529060010190602001808311612be957829003601f168201915b50505050508152602001600782018054612c1f90614caa565b80601f0160208091040260200160405190810160405280929190818152602001828054612c4b90614caa565b8015612c985780601f10612c6d57610100808354040283529160200191612c98565b820191906000526020600020905b815481529060010190602001808311612c7b57829003601f168201915b50505050508152602001600882018054612cb190614caa565b80601f0160208091040260200160405190810160405280929190818152602001828054612cdd90614caa565b8015612d2a5780601f10612cff57610100808354040283529160200191612d2a565b820191906000526020600020905b815481529060010190602001808311612d0d57829003601f168201915b50505050508152602001600982018054612d4390614caa565b80601f0160208091040260200160405190810160405280929190818152602001828054612d6f90614caa565b8015612dbc5780601f10612d9157610100808354040283529160200191612dbc565b820191906000526020600020905b815481529060010190602001808311612d9f57829003601f168201915b50505050508152602001600a820160009054906101000a900460ff16151515158152602001600b82018054612df090614caa565b80601f0160208091040260200160405190810160405280929190818152602001828054612e1c90614caa565b8015612e695780601f10612e3e57610100808354040283529160200191612e69565b820191906000526020600020905b815481529060010190602001808311612e4c57829003601f168201915b50505050508152602001600c82018054612e8290614caa565b80601f0160208091040260200160405190810160405280929190818152602001828054612eae90614caa565b8015612efb5780601f10612ed057610100808354040283529160200191612efb565b820191906000526020600020905b815481529060010190602001808311612ede57829003601f168201915b50505050508152602001600d82018054612f1490614caa565b80601f0160208091040260200160405190810160405280929190818152602001828054612f4090614caa565b8015612f8d5780601f10612f6257610100808354040283529160200191612f8d565b820191906000526020600020905b815481529060010190602001808311612f7057829003601f168201915b50505050508152602001600e82018054612fa690614caa565b80601f0160208091040260200160405190810160405280929190818152602001828054612fd290614caa565b801561301f5780601f10612ff45761010080835404028352916020019161301f565b820191906000526020600020905b81548152906001019060200180831161300257829003601f168201915b50505050508152602001600f8201805461303890614caa565b80601f016020809104026020016040519081016040528092919081815260200182805461306490614caa565b80156130b15780601f10613086576101008083540402835291602001916130b1565b820191906000526020600020905b81548152906001019060200180831161309457829003601f168201915b505050505081526020016010820180546130ca90614caa565b80601f01602080910402602001604051908101604052809291908181526020018280546130f690614caa565b80156131435780601f1061311857610100808354040283529160200191613143565b820191906000526020600020905b81548152906001019060200180831161312657829003601f168201915b5050505050815250508152602001601382015481526020016014820160009054906101000a900460ff1615151515815260200160158201548152505083838151811061319257613191614d3e565b5b602002602001018190525081806131a890614d6d565b9250505b80806131b790614d6d565b9150506127e4565b508194505050505090565b60008180600260008381526020019081526020016000206000015414613225576040517f08c379a000000000000000000000000000000000000000000000000000000000815260040161321c90614e12565b60405180910390fd5b6000600260008581526020019081526020016000206040518060c0016040529081600082015481526020016001820160009054906101000a900473ffffffffffffffffffffffffffffffffffffffff1673ffffffffffffffffffffffffffffffffffffffff1673ffffffffffffffffffffffffffffffffffffffff16815260200160028201604051806102200160405290816000820180546132c690614caa565b80601f01602080910402602001604051908101604052809291908181526020018280546132f290614caa565b801561333f5780601f106133145761010080835404028352916020019161333f565b820191906000526020600020905b81548152906001019060200180831161332257829003601f168201915b5050505050815260200160018201805461335890614caa565b80601f016020809104026020016040519081016040528092919081815260200182805461338490614caa565b80156133d15780601f106133a6576101008083540402835291602001916133d1565b820191906000526020600020905b8154815290600101906020018083116133b457829003601f168201915b505050505081526020016002820180546133ea90614caa565b80601f016020809104026020016040519081016040528092919081815260200182805461341690614caa565b80156134635780601f1061343857610100808354040283529160200191613463565b820191906000526020600020905b81548152906001019060200180831161344657829003601f168201915b5050505050815260200160038201805461347c90614caa565b80601f01602080910402602001604051908101604052809291908181526020018280546134a890614caa565b80156134f55780601f106134ca576101008083540402835291602001916134f5565b820191906000526020600020905b8154815290600101906020018083116134d857829003601f168201915b5050505050815260200160048201805461350e90614caa565b80601f016020809104026020016040519081016040528092919081815260200182805461353a90614caa565b80156135875780601f1061355c57610100808354040283529160200191613587565b820191906000526020600020905b81548152906001019060200180831161356a57829003601f168201915b505050505081526020016005820160009054906101000a900460ff161515151581526020016006820180546135bb90614caa565b80601f01602080910402602001604051908101604052809291908181526020018280546135e790614caa565b80156136345780601f1061360957610100808354040283529160200191613634565b820191906000526020600020905b81548152906001019060200180831161361757829003601f168201915b5050505050815260200160078201805461364d90614caa565b80601f016020809104026020016040519081016040528092919081815260200182805461367990614caa565b80156136c65780601f1061369b576101008083540402835291602001916136c6565b820191906000526020600020905b8154815290600101906020018083116136a957829003601f168201915b505050505081526020016008820180546136df90614caa565b80601f016020809104026020016040519081016040528092919081815260200182805461370b90614caa565b80156137585780601f1061372d57610100808354040283529160200191613758565b820191906000526020600020905b81548152906001019060200180831161373b57829003601f168201915b5050505050815260200160098201805461377190614caa565b80601f016020809104026020016040519081016040528092919081815260200182805461379d90614caa565b80156137ea5780601f106137bf576101008083540402835291602001916137ea565b820191906000526020600020905b8154815290600101906020018083116137cd57829003601f168201915b50505050508152602001600a820160009054906101000a900460ff16151515158152602001600b8201805461381e90614caa565b80601f016020809104026020016040519081016040528092919081815260200182805461384a90614caa565b80156138975780601f1061386c57610100808354040283529160200191613897565b820191906000526020600020905b81548152906001019060200180831161387a57829003601f168201915b50505050508152602001600c820180546138b090614caa565b80601f01602080910402602001604051908101604052809291908181526020018280546138dc90614caa565b80156139295780601f106138fe57610100808354040283529160200191613929565b820191906000526020600020905b81548152906001019060200180831161390c57829003601f168201915b50505050508152602001600d8201805461394290614caa565b80601f016020809104026020016040519081016040528092919081815260200182805461396e90614caa565b80156139bb5780601f10613990576101008083540402835291602001916139bb565b820191906000526020600020905b81548152906001019060200180831161399e57829003601f168201915b50505050508152602001600e820180546139d490614caa565b80601f0160208091040260200160405190810160405280929190818152602001828054613a0090614caa565b8015613a4d5780601f10613a2257610100808354040283529160200191613a4d565b820191906000526020600020905b815481529060010190602001808311613a3057829003601f168201915b50505050508152602001600f82018054613a6690614caa565b80601f0160208091040260200160405190810160405280929190818152602001828054613a9290614caa565b8015613adf5780601f10613ab457610100808354040283529160200191613adf565b820191906000526020600020905b815481529060010190602001808311613ac257829003601f168201915b50505050508152602001601082018054613af890614caa565b80601f0160208091040260200160405190810160405280929190818152602001828054613b2490614caa565b8015613b715780601f10613b4657610100808354040283529160200191613b71565b820191906000526020600020905b815481529060010190602001808311613b5457829003601f168201915b5050505050815250508152602001601382015481526020016014820160009054906101000a900460ff161515151581526020016015820154815250509050806080015115613bc3576001925050613bdd565b620151808160a00151613bd691906152f8565b4210159250505b50919050565b613beb613c69565b600073ffffffffffffffffffffffffffffffffffffffff168173ffffffffffffffffffffffffffffffffffffffff1603613c5d5760006040517f1e4fbdf7000000000000000000000000000000000000000000000000000000008152600401613c549190614b6d565b60405180910390fd5b613c6681613cf0565b50565b613c71613db4565b73ffffffffffffffffffffffffffffffffffffffff16613c8f611cf4565b73ffffffffffffffffffffffffffffffffffffffff1614613cee57613cb2613db4565b6040517f118cdaa7000000000000000000000000000000000000000000000000000000008152600401613ce59190614b6d565b60405180910390fd5b565b60008060009054906101000a900473ffffffffffffffffffffffffffffffffffffffff169050816000806101000a81548173ffffffffffffffffffffffffffffffffffffffff021916908373ffffffffffffffffffffffffffffffffffffffff1602179055508173ffffffffffffffffffffffffffffffffffffffff168173ffffffffffffffffffffffffffffffffffffffff167f8be0079c531659141344cd1fd0a4f28419497f9722a3daafe3b4186f6b6457e060405160405180910390a35050565b600033905090565b6040518060c0016040528060008152602001600073ffffffffffffffffffffffffffffffffffffffff168152602001613df3613e10565b815260200160008152602001600015158152602001600081525090565b6040518061022001604052806060815260200160608152602001606081526020016060815260200160608152602001600015158152602001606081526020016060815260200160608152602001606081526020016000151581526020016060815260200160608152602001606081526020016060815260200160608152602001606081525090565b600081519050919050565b600082825260208201905092915050565b6000819050602082019050919050565b6000819050919050565b613ed781613ec4565b82525050565b600073ffffffffffffffffffffffffffffffffffffffff82169050919050565b6000613f0882613edd565b9050919050565b613f1881613efd565b82525050565b600081519050919050565b600082825260208201905092915050565b60005b83811015613f58578082015181840152602081019050613f3d565b60008484015250505050565b6000601f19601f8301169050919050565b6000613f8082613f1e565b613f8a8185613f29565b9350613f9a818560208601613f3a565b613fa381613f64565b840191505092915050565b60008115159050919050565b613fc381613fae565b82525050565b6000610220830160008301518482036000860152613fe78282613f75565b915050602083015184820360208601526140018282613f75565b9150506040830151848203604086015261401b8282613f75565b915050606083015184820360608601526140358282613f75565b9150506080830151848203608086015261404f8282613f75565b91505060a083015161406460a0860182613fba565b5060c083015184820360c086015261407c8282613f75565b91505060e083015184820360e08601526140968282613f75565b9150506101008301518482036101008601526140b28282613f75565b9150506101208301518482036101208601526140ce8282613f75565b9150506101408301516140e5610140860182613fba565b506101608301518482036101608601526140ff8282613f75565b91505061018083015184820361018086015261411b8282613f75565b9150506101a08301518482036101a08601526141378282613f75565b9150506101c08301518482036101c08601526141538282613f75565b9150506101e08301518482036101e086015261416f8282613f75565b91505061020083015184820361020086015261418b8282613f75565b9150508091505092915050565b600060c0830160008301516141b06000860182613ece565b5060208301516141c36020860182613f0f565b50604083015184820360408601526141db8282613fc9565b91505060608301516141f06060860182613ece565b5060808301516142036080860182613fba565b5060a083015161421660a0860182613ece565b508091505092915050565b600061422d8383614198565b905092915050565b6000602082019050919050565b600061424d82613e98565b6142578185613ea3565b93508360208202850161426985613eb4565b8060005b858110156142a557848403895281516142868582614221565b945061429183614235565b925060208a0199505060018101905061426d565b50829750879550505050505092915050565b600060208201905081810360008301526142d18184614242565b905092915050565b6000604051905090565b600080fd5b600080fd5b6142f681613ec4565b811461430157600080fd5b50565b600081359050614313816142ed565b92915050565b600080fd5b600080fd5b7f4e487b7100000000000000000000000000000000000000000000000000000000600052604160045260246000fd5b61435b82613f64565b810181811067ffffffffffffffff8211171561437a57614379614323565b5b80604052505050565b600061438d6142d9565b90506143998282614352565b919050565b600067ffffffffffffffff8211156143b9576143b8614323565b5b6143c282613f64565b9050602081019050919050565b82818337600083830152505050565b60006143f16143ec8461439e565b614383565b90508281526020810184848401111561440d5761440c61431e565b5b6144188482856143cf565b509392505050565b600082601f83011261443557614434614319565b5b81356144458482602086016143de565b91505092915050565b60008060408385031215614465576144646142e3565b5b600061447385828601614304565b925050602083013567ffffffffffffffff811115614494576144936142e8565b5b6144a085828601614420565b9150509250929050565b6144b381613efd565b81146144be57600080fd5b50565b6000813590506144d0816144aa565b92915050565b600080fd5b600080fd5b6144e981613fae565b81146144f457600080fd5b50565b600081359050614506816144e0565b92915050565b60006102208284031215614523576145226144d6565b5b61452e610220614383565b9050600082013567ffffffffffffffff81111561454e5761454d6144db565b5b61455a84828501614420565b600083015250602082013567ffffffffffffffff81111561457e5761457d6144db565b5b61458a84828501614420565b602083015250604082013567ffffffffffffffff8111156145ae576145ad6144db565b5b6145ba84828501614420565b604083015250606082013567ffffffffffffffff8111156145de576145dd6144db565b5b6145ea84828501614420565b606083015250608082013567ffffffffffffffff81111561460e5761460d6144db565b5b61461a84828501614420565b60808301525060a061462e848285016144f7565b60a08301525060c082013567ffffffffffffffff811115614652576146516144db565b5b61465e84828501614420565b60c08301525060e082013567ffffffffffffffff811115614682576146816144db565b5b61468e84828501614420565b60e08301525061010082013567ffffffffffffffff8111156146b3576146b26144db565b5b6146bf84828501614420565b6101008301525061012082013567ffffffffffffffff8111156146e5576146e46144db565b5b6146f184828501614420565b61012083015250610140614707848285016144f7565b6101408301525061016082013567ffffffffffffffff81111561472d5761472c6144db565b5b61473984828501614420565b6101608301525061018082013567ffffffffffffffff81111561475f5761475e6144db565b5b61476b84828501614420565b610180830152506101a082013567ffffffffffffffff811115614791576147906144db565b5b61479d84828501614420565b6101a0830152506101c082013567ffffffffffffffff8111156147c3576147c26144db565b5b6147cf84828501614420565b6101c0830152506101e082013567ffffffffffffffff8111156147f5576147f46144db565b5b61480184828501614420565b6101e08301525061020082013567ffffffffffffffff811115614827576148266144db565b5b61483384828501614420565b6102008301525092915050565b60008060408385031215614857576148566142e3565b5b6000614865858286016144c1565b925050602083013567ffffffffffffffff811115614886576148856142e8565b5b6148928582860161450c565b9150509250929050565b600080604083850312156148b3576148b26142e3565b5b60006148c185828601614304565b92505060206148d2858286016144c1565b9150509250929050565b6000602082840312156148f2576148f16142e3565b5b600061490084828501614304565b91505092915050565b61491281613ec4565b82525050565b61492181613efd565b82525050565b60006102208301600083015184820360008601526149458282613f75565b9150506020830151848203602086015261495f8282613f75565b915050604083015184820360408601526149798282613f75565b915050606083015184820360608601526149938282613f75565b915050608083015184820360808601526149ad8282613f75565b91505060a08301516149c260a0860182613fba565b5060c083015184820360c08601526149da8282613f75565b91505060e083015184820360e08601526149f48282613f75565b915050610100830151848203610100860152614a108282613f75565b915050610120830151848203610120860152614a2c8282613f75565b915050610140830151614a43610140860182613fba565b50610160830151848203610160860152614a5d8282613f75565b915050610180830151848203610180860152614a798282613f75565b9150506101a08301518482036101a0860152614a958282613f75565b9150506101c08301518482036101c0860152614ab18282613f75565b9150506101e08301518482036101e0860152614acd8282613f75565b915050610200830151848203610200860152614ae98282613f75565b9150508091505092915050565b614aff81613fae565b82525050565b600060c082019050614b1a6000830189614909565b614b276020830188614918565b8181036040830152614b398187614927565b9050614b486060830186614909565b614b556080830185614af6565b614b6260a0830184614909565b979650505050505050565b6000602082019050614b826000830184614918565b92915050565b6000602082019050614b9d6000830184614af6565b92915050565b600060c083016000830151614bbb6000860182613ece565b506020830151614bce6020860182613f0f565b5060408301518482036040860152614be68282613fc9565b9150506060830151614bfb6060860182613ece565b506080830151614c0e6080860182613fba565b5060a0830151614c2160a0860182613ece565b508091505092915050565b60006020820190508181036000830152614c468184614ba3565b905092915050565b600060208284031215614c6457614c636142e3565b5b6000614c72848285016144c1565b91505092915050565b7f4e487b7100000000000000000000000000000000000000000000000000000000600052602260045260246000fd5b60006002820490506001821680614cc257607f821691505b602082108103614cd557614cd4614c7b565b5b50919050565b7f4e487b7100000000000000000000000000000000000000000000000000000000600052601160045260246000fd5b6000614d1582613ec4565b9150614d2083613ec4565b9250828203905081811115614d3857614d37614cdb565b5b92915050565b7f4e487b7100000000000000000000000000000000000000000000000000000000600052603260045260246000fd5b6000614d7882613ec4565b91507fffffffffffffffffffffffffffffffffffffffffffffffffffffffffffffffff8203614daa57614da9614cdb565b5b600182019050919050565b600082825260208201905092915050565b7f50726f6475637420646f6573206e6f7420657869737400000000000000000000600082015250565b6000614dfc601683614db5565b9150614e0782614dc6565b602082019050919050565b60006020820190508181036000830152614e2b81614def565b9050919050565b7f4f6e6c79207468652070726f64756374206f776e65722063616e20706572666f60008201527f726d207468697320616374696f6e000000000000000000000000000000000000602082015250565b6000614e8e602e83614db5565b9150614e9982614e32565b604082019050919050565b60006020820190508181036000830152614ebd81614e81565b9050919050565b60008190508160005260206000209050919050565b60006020601f8301049050919050565b600082821b905092915050565b600060088302614f267fffffffffffffffffffffffffffffffffffffffffffffffffffffffffffffffff82614ee9565b614f308683614ee9565b95508019841693508086168417925050509392505050565b6000819050919050565b6000614f6d614f68614f6384613ec4565b614f48565b613ec4565b9050919050565b6000819050919050565b614f8783614f52565b614f9b614f9382614f74565b848454614ef6565b825550505050565b600090565b614fb0614fa3565b614fbb818484614f7e565b505050565b5b81811015614fdf57614fd4600082614fa8565b600181019050614fc1565b5050565b601f82111561502457614ff581614ec4565b614ffe84614ed9565b8101602085101561500d578190505b61502161501985614ed9565b830182614fc0565b50505b505050565b600082821c905092915050565b600061504760001984600802615029565b1980831691505092915050565b60006150608383615036565b9150826002028217905092915050565b61507982613f1e565b67ffffffffffffffff81111561509257615091614323565b5b61509c8254614caa565b6150a7828285614fe3565b600060209050601f8311600181146150da57600084156150c8578287015190505b6150d28582615054565b86555061513a565b601f1984166150e886614ec4565b60005b82811015615110578489015182556001820191506020850194506020810190506150eb565b8683101561512d5784890151615129601f891682615036565b8355505b6001600288020188555050505b505050505050565b600061514d82613f1e565b6151578185614db5565b9350615167818560208601613f3a565b61517081613f64565b840191505092915050565b600060208201905081810360008301526151958184615142565b905092915050565b600060408201905081810360008301526151b78185615142565b905081810360208301526151cb8184615142565b90509392505050565b7f50726f64756374206f776e65722063616e6e6f74207570766f7465207468656960008201527f72206f776e2070726f6475637400000000000000000000000000000000000000602082015250565b6000615230602d83614db5565b915061523b826151d4565b604082019050919050565b6000602082019050818103600083015261525f81615223565b9050919050565b7f557365722068617320616c7265616479207570766f746564207468697320707260008201527f6f64756374000000000000000000000000000000000000000000000000000000602082015250565b60006152c2602583614db5565b91506152cd82615266565b604082019050919050565b600060208201905081810360008301526152f1816152b5565b9050919050565b600061530382613ec4565b915061530e83613ec4565b925082820190508082111561532657615325614cdb565b5b9291505056fea2646970667358221220cff36e6592b63ad99ba170803a00d974f9bf075b8c7a634c5c64d11c87d91a9b64736f6c63430008180033",
  "linkReferences": {},
  "deployedLinkReferences": {}
}