{
  "_format": "hh-sol-artifact-1",
  "contractName": "Comment",
  "sourceName": "contracts/Comment.sol",
  "abi": [
    {
      "inputs": [
        {
          "internalType": "address",
          "name": "_productAddress",
          "type": "address"
        }
      ],
      "stateMutability": "nonpayable",
      "type": "constructor"
    },
    {
      "anonymous": false,
      "inputs": [
        {
          "indexed": true,
          "internalType": "uint256",
          "name": "productId",
          "type": "uint256"
        },
        {
          "indexed": true,
          "internalType": "address",
          "name": "commenter",
          "type": "address"
        },
        {
          "indexed": false,
          "internalType": "string",
          "name": "content",
          "type": "string"
        }
      ],
      "name": "CommentAdded",
      "type": "event"
    },
    {
      "inputs": [
        {
          "internalType": "uint256",
          "name": "_productId",
          "type": "uint256"
        },
        {
          "internalType": "string",
          "name": "_content",
          "type": "string"
        }
      ],
      "name": "commentOnProduct",
      "outputs": [],
      "stateMutability": "nonpayable",
      "type": "function"
    },
    {
      "inputs": [
        {
          "internalType": "uint256",
          "name": "_productId",
          "type": "uint256"
        },
        {
          "internalType": "uint256",
          "name": "_commentId",
          "type": "uint256"
        }
      ],
      "name": "getComment",
      "outputs": [
        {
          "components": [
            {
              "internalType": "address",
              "name": "commenter",
              "type": "address"
            },
            {
              "internalType": "string",
              "name": "content",
              "type": "string"
            },
            {
              "internalType": "uint256",
              "name": "timestamp",
              "type": "uint256"
            }
          ],
          "internalType": "struct Comment.CommentInfo",
          "name": "",
          "type": "tuple"
        }
      ],
      "stateMutability": "view",
      "type": "function"
    },
    {
      "inputs": [
        {
          "internalType": "uint256",
          "name": "_productId",
          "type": "uint256"
        },
        {
          "internalType": "uint256",
          "name": "_commentId",
          "type": "uint256"
        }
      ],
      "name": "getCommenter",
      "outputs": [
        {
          "internalType": "address",
          "name": "",
          "type": "address"
        }
      ],
      "stateMutability": "view",
      "type": "function"
    },
    {
      "inputs": [
        {
          "internalType": "uint256",
          "name": "_productId",
          "type": "uint256"
        }
      ],
      "name": "getComments",
      "outputs": [
        {
          "components": [
            {
              "internalType": "address",
              "name": "commenter",
              "type": "address"
            },
            {
              "internalType": "string",
              "name": "content",
              "type": "string"
            },
            {
              "internalType": "uint256",
              "name": "timestamp",
              "type": "uint256"
            }
          ],
          "internalType": "struct Comment.CommentInfo[]",
          "name": "",
          "type": "tuple[]"
        }
      ],
      "stateMutability": "view",
      "type": "function"
    },
    {
      "inputs": [
        {
          "internalType": "uint256",
          "name": "_productId",
          "type": "uint256"
        }
      ],
      "name": "getCommentsCount",
      "outputs": [
        {
          "internalType": "uint256",
          "name": "",
          "type": "uint256"
        }
      ],
      "stateMutability": "view",
      "type": "function"
    },
    {
      "inputs": [
        {
          "internalType": "uint256",
          "name": "",
          "type": "uint256"
        },
        {
          "internalType": "uint256",
          "name": "",
          "type": "uint256"
        }
      ],
      "name": "productComments",
      "outputs": [
        {
          "internalType": "address",
          "name": "commenter",
          "type": "address"
        },
        {
          "internalType": "string",
          "name": "content",
          "type": "string"
        },
        {
          "internalType": "uint256",
          "name": "timestamp",
          "type": "uint256"
        }
      ],
      "stateMutability": "view",
      "type": "function"
    }
  ],
  "bytecode": "0x60806040523480156200001157600080fd5b5060405162001c5c38038062001c5c8339818101604052810190620000379190620000e8565b806000806101000a81548173ffffffffffffffffffffffffffffffffffffffff021916908373ffffffffffffffffffffffffffffffffffffffff160217905550506200011a565b600080fd5b600073ffffffffffffffffffffffffffffffffffffffff82169050919050565b6000620000b08262000083565b9050919050565b620000c281620000a3565b8114620000ce57600080fd5b50565b600081519050620000e281620000b7565b92915050565b6000602082840312156200010157620001006200007e565b5b60006200011184828501620000d1565b91505092915050565b611b32806200012a6000396000f3fe608060405234801561001057600080fd5b50600436106100625760003560e01c806323edf69714610067578063395e3f1e146100975780634091e119146100b357806348892753146100e55780634c9b78da14610115578063bf4f31b014610145575b600080fd5b610081600480360381019061007c9190610c69565b610175565b60405161008e9190610e88565b60405180910390f35b6100b160048036038101906100ac9190610fdf565b6103bf565b005b6100cd60048036038101906100c8919061103b565b6105ce565b6040516100dc939291906110e3565b60405180910390f35b6100ff60048036038101906100fa919061103b565b6106bd565b60405161010c9190611171565b60405180910390f35b61012f600480360381019061012a9190610c69565b61093f565b60405161013c9190611193565b60405180910390f35b61015f600480360381019061015a919061103b565b610a45565b60405161016c91906111ae565b60405180910390f35b6060818060008054906101000a900473ffffffffffffffffffffffffffffffffffffffff1673ffffffffffffffffffffffffffffffffffffffff1663b9db15b4836040518263ffffffff1660e01b81526004016101d29190611193565b600060405180830381865afa1580156101ef573d6000803e3d6000fd5b505050506040513d6000823e3d601f19601f8201168201806040525081019061021891906116ac565b600001511461025c576040517f08c379a000000000000000000000000000000000000000000000000000000000815260040161025390611741565b60405180910390fd5b60016000848152602001908152602001600020805480602002602001604051908101604052809291908181526020016000905b828210156103b357838290600052602060002090600302016040518060600160405290816000820160009054906101000a900473ffffffffffffffffffffffffffffffffffffffff1673ffffffffffffffffffffffffffffffffffffffff1673ffffffffffffffffffffffffffffffffffffffff16815260200160018201805461031890611790565b80601f016020809104026020016040519081016040528092919081815260200182805461034490611790565b80156103915780601f1061036657610100808354040283529160200191610391565b820191906000526020600020905b81548152906001019060200180831161037457829003601f168201915b505050505081526020016002820154815250508152602001906001019061028f565b50505050915050919050565b818060008054906101000a900473ffffffffffffffffffffffffffffffffffffffff1673ffffffffffffffffffffffffffffffffffffffff1663b9db15b4836040518263ffffffff1660e01b815260040161041a9190611193565b600060405180830381865afa158015610437573d6000803e3d6000fd5b505050506040513d6000823e3d601f19601f8201168201806040525081019061046091906116ac565b60000151146104a4576040517f08c379a000000000000000000000000000000000000000000000000000000000815260040161049b90611741565b60405180910390fd5b6001600084815260200190815260200160002060405180606001604052803373ffffffffffffffffffffffffffffffffffffffff16815260200184815260200142815250908060018154018082558091505060019003906000526020600020906003020160009091909190915060008201518160000160006101000a81548173ffffffffffffffffffffffffffffffffffffffff021916908373ffffffffffffffffffffffffffffffffffffffff160217905550602082015181600101908161056d919061196d565b506040820151816002015550503373ffffffffffffffffffffffffffffffffffffffff16837fcc2d7dd2085ae6644799a42c0174adf9afc10a43f26db5eac3ddd1f96d1d64be846040516105c19190611a3f565b60405180910390a3505050565b600160205281600052604060002081815481106105ea57600080fd5b9060005260206000209060030201600091509150508060000160009054906101000a900473ffffffffffffffffffffffffffffffffffffffff169080600101805461063490611790565b80601f016020809104026020016040519081016040528092919081815260200182805461066090611790565b80156106ad5780601f10610682576101008083540402835291602001916106ad565b820191906000526020600020905b81548152906001019060200180831161069057829003601f168201915b5050505050908060020154905083565b6106c5610be8565b828060008054906101000a900473ffffffffffffffffffffffffffffffffffffffff1673ffffffffffffffffffffffffffffffffffffffff1663b9db15b4836040518263ffffffff1660e01b81526004016107209190611193565b600060405180830381865afa15801561073d573d6000803e3d6000fd5b505050506040513d6000823e3d601f19601f8201168201806040525081019061076691906116ac565b60000151146107aa576040517f08c379a00000000000000000000000000000000000000000000000000000000081526004016107a190611741565b60405180910390fd5b838360016000838152602001908152602001600020805490508110610804576040517f08c379a00000000000000000000000000000000000000000000000000000000081526004016107fb90611aad565b60405180910390fd5b60016000878152602001908152602001600020858154811061082957610828611acd565b5b90600052602060002090600302016040518060600160405290816000820160009054906101000a900473ffffffffffffffffffffffffffffffffffffffff1673ffffffffffffffffffffffffffffffffffffffff1673ffffffffffffffffffffffffffffffffffffffff1681526020016001820180546108a890611790565b80601f01602080910402602001604051908101604052809291908181526020018280546108d490611790565b80156109215780601f106108f657610100808354040283529160200191610921565b820191906000526020600020905b81548152906001019060200180831161090457829003601f168201915b50505050508152602001600282015481525050935050505092915050565b6000818060008054906101000a900473ffffffffffffffffffffffffffffffffffffffff1673ffffffffffffffffffffffffffffffffffffffff1663b9db15b4836040518263ffffffff1660e01b815260040161099c9190611193565b600060405180830381865afa1580156109b9573d6000803e3d6000fd5b505050506040513d6000823e3d601f19601f820116820180604052508101906109e291906116ac565b6000015114610a26576040517f08c379a0000000000000000000000000000000000000000000000000000000008152600401610a1d90611741565b60405180910390fd5b6001600084815260200190815260200160002080549050915050919050565b6000828060008054906101000a900473ffffffffffffffffffffffffffffffffffffffff1673ffffffffffffffffffffffffffffffffffffffff1663b9db15b4836040518263ffffffff1660e01b8152600401610aa29190611193565b600060405180830381865afa158015610abf573d6000803e3d6000fd5b505050506040513d6000823e3d601f19601f82011682018060405250810190610ae891906116ac565b6000015114610b2c576040517f08c379a0000000000000000000000000000000000000000000000000000000008152600401610b2390611741565b60405180910390fd5b838360016000838152602001908152602001600020805490508110610b86576040517f08c379a0000000000000000000000000000000000000000000000000000000008152600401610b7d90611aad565b60405180910390fd5b600160008781526020019081526020016000208581548110610bab57610baa611acd565b5b906000526020600020906003020160000160009054906101000a900473ffffffffffffffffffffffffffffffffffffffff16935050505092915050565b6040518060600160405280600073ffffffffffffffffffffffffffffffffffffffff16815260200160608152602001600081525090565b6000604051905090565b600080fd5b600080fd5b6000819050919050565b610c4681610c33565b8114610c5157600080fd5b50565b600081359050610c6381610c3d565b92915050565b600060208284031215610c7f57610c7e610c29565b5b6000610c8d84828501610c54565b91505092915050565b600081519050919050565b600082825260208201905092915050565b6000819050602082019050919050565b600073ffffffffffffffffffffffffffffffffffffffff82169050919050565b6000610ced82610cc2565b9050919050565b610cfd81610ce2565b82525050565b600081519050919050565b600082825260208201905092915050565b60005b83811015610d3d578082015181840152602081019050610d22565b60008484015250505050565b6000601f19601f8301169050919050565b6000610d6582610d03565b610d6f8185610d0e565b9350610d7f818560208601610d1f565b610d8881610d49565b840191505092915050565b610d9c81610c33565b82525050565b6000606083016000830151610dba6000860182610cf4565b5060208301518482036020860152610dd28282610d5a565b9150506040830151610de76040860182610d93565b508091505092915050565b6000610dfe8383610da2565b905092915050565b6000602082019050919050565b6000610e1e82610c96565b610e288185610ca1565b935083602082028501610e3a85610cb2565b8060005b85811015610e765784840389528151610e578582610df2565b9450610e6283610e06565b925060208a01995050600181019050610e3e565b50829750879550505050505092915050565b60006020820190508181036000830152610ea28184610e13565b905092915050565b600080fd5b600080fd5b7f4e487b7100000000000000000000000000000000000000000000000000000000600052604160045260246000fd5b610eec82610d49565b810181811067ffffffffffffffff82111715610f0b57610f0a610eb4565b5b80604052505050565b6000610f1e610c1f565b9050610f2a8282610ee3565b919050565b600067ffffffffffffffff821115610f4a57610f49610eb4565b5b610f5382610d49565b9050602081019050919050565b82818337600083830152505050565b6000610f82610f7d84610f2f565b610f14565b905082815260208101848484011115610f9e57610f9d610eaf565b5b610fa9848285610f60565b509392505050565b600082601f830112610fc657610fc5610eaa565b5b8135610fd6848260208601610f6f565b91505092915050565b60008060408385031215610ff657610ff5610c29565b5b600061100485828601610c54565b925050602083013567ffffffffffffffff81111561102557611024610c2e565b5b61103185828601610fb1565b9150509250929050565b6000806040838503121561105257611051610c29565b5b600061106085828601610c54565b925050602061107185828601610c54565b9150509250929050565b61108481610ce2565b82525050565b600082825260208201905092915050565b60006110a682610d03565b6110b0818561108a565b93506110c0818560208601610d1f565b6110c981610d49565b840191505092915050565b6110dd81610c33565b82525050565b60006060820190506110f8600083018661107b565b818103602083015261110a818561109b565b905061111960408301846110d4565b949350505050565b60006060830160008301516111396000860182610cf4565b50602083015184820360208601526111518282610d5a565b91505060408301516111666040860182610d93565b508091505092915050565b6000602082019050818103600083015261118b8184611121565b905092915050565b60006020820190506111a860008301846110d4565b92915050565b60006020820190506111c3600083018461107b565b92915050565b600080fd5b600080fd5b6000815190506111e281610c3d565b92915050565b6111f181610ce2565b81146111fc57600080fd5b50565b60008151905061120e816111e8565b92915050565b600061122761122284610f2f565b610f14565b90508281526020810184848401111561124357611242610eaf565b5b61124e848285610d1f565b509392505050565b600082601f83011261126b5761126a610eaa565b5b815161127b848260208601611214565b91505092915050565b60008115159050919050565b61129981611284565b81146112a457600080fd5b50565b6000815190506112b681611290565b92915050565b600061022082840312156112d3576112d26111c9565b5b6112de610220610f14565b9050600082015167ffffffffffffffff8111156112fe576112fd6111ce565b5b61130a84828501611256565b600083015250602082015167ffffffffffffffff81111561132e5761132d6111ce565b5b61133a84828501611256565b602083015250604082015167ffffffffffffffff81111561135e5761135d6111ce565b5b61136a84828501611256565b604083015250606082015167ffffffffffffffff81111561138e5761138d6111ce565b5b61139a84828501611256565b606083015250608082015167ffffffffffffffff8111156113be576113bd6111ce565b5b6113ca84828501611256565b60808301525060a06113de848285016112a7565b60a08301525060c082015167ffffffffffffffff811115611402576114016111ce565b5b61140e84828501611256565b60c08301525060e082015167ffffffffffffffff811115611432576114316111ce565b5b61143e84828501611256565b60e08301525061010082015167ffffffffffffffff811115611463576114626111ce565b5b61146f84828501611256565b6101008301525061012082015167ffffffffffffffff811115611495576114946111ce565b5b6114a184828501611256565b610120830152506101406114b7848285016112a7565b6101408301525061016082015167ffffffffffffffff8111156114dd576114dc6111ce565b5b6114e984828501611256565b6101608301525061018082015167ffffffffffffffff81111561150f5761150e6111ce565b5b61151b84828501611256565b610180830152506101a082015167ffffffffffffffff811115611541576115406111ce565b5b61154d84828501611256565b6101a0830152506101c082015167ffffffffffffffff811115611573576115726111ce565b5b61157f84828501611256565b6101c0830152506101e082015167ffffffffffffffff8111156115a5576115a46111ce565b5b6115b184828501611256565b6101e08301525061020082015167ffffffffffffffff8111156115d7576115d66111ce565b5b6115e384828501611256565b6102008301525092915050565b600060c08284031215611606576116056111c9565b5b61161060c0610f14565b90506000611620848285016111d3565b6000830152506020611634848285016111ff565b602083015250604082015167ffffffffffffffff811115611658576116576111ce565b5b611664848285016112bc565b6040830152506060611678848285016111d3565b606083015250608061168c848285016112a7565b60808301525060a06116a0848285016111d3565b60a08301525092915050565b6000602082840312156116c2576116c1610c29565b5b600082015167ffffffffffffffff8111156116e0576116df610c2e565b5b6116ec848285016115f0565b91505092915050565b7f50726f6475637420646f6573206e6f7420657869737400000000000000000000600082015250565b600061172b60168361108a565b9150611736826116f5565b602082019050919050565b6000602082019050818103600083015261175a8161171e565b9050919050565b7f4e487b7100000000000000000000000000000000000000000000000000000000600052602260045260246000fd5b600060028204905060018216806117a857607f821691505b6020821081036117bb576117ba611761565b5b50919050565b60008190508160005260206000209050919050565b60006020601f8301049050919050565b600082821b905092915050565b6000600883026118237fffffffffffffffffffffffffffffffffffffffffffffffffffffffffffffffff826117e6565b61182d86836117e6565b95508019841693508086168417925050509392505050565b6000819050919050565b600061186a61186561186084610c33565b611845565b610c33565b9050919050565b6000819050919050565b6118848361184f565b61189861189082611871565b8484546117f3565b825550505050565b600090565b6118ad6118a0565b6118b881848461187b565b505050565b5b818110156118dc576118d16000826118a5565b6001810190506118be565b5050565b601f821115611921576118f2816117c1565b6118fb846117d6565b8101602085101561190a578190505b61191e611916856117d6565b8301826118bd565b50505b505050565b600082821c905092915050565b600061194460001984600802611926565b1980831691505092915050565b600061195d8383611933565b9150826002028217905092915050565b61197682610d03565b67ffffffffffffffff81111561198f5761198e610eb4565b5b6119998254611790565b6119a48282856118e0565b600060209050601f8311600181146119d757600084156119c5578287015190505b6119cf8582611951565b865550611a37565b601f1984166119e5866117c1565b60005b82811015611a0d578489015182556001820191506020850194506020810190506119e8565b86831015611a2a5784890151611a26601f891682611933565b8355505b6001600288020188555050505b505050505050565b60006020820190508181036000830152611a59818461109b565b905092915050565b7f436f6d6d656e7420646f6573206e6f7420657869737400000000000000000000600082015250565b6000611a9760168361108a565b9150611aa282611a61565b602082019050919050565b60006020820190508181036000830152611ac681611a8a565b9050919050565b7f4e487b7100000000000000000000000000000000000000000000000000000000600052603260045260246000fdfea26469706673582212204b41eb1870df45314f5e1a3d120fa6e5954b97870696fd909fa3d671299ece4a64736f6c63430008180033",
  "linkReferences": {},
  "deployedLinkReferences": {}
}