{
  "_format": "hh-sol-artifact-1",
  "contractName": "ProductFindr",
  "sourceName": "contracts/ProductFindr.sol",
  "abi": [
    {
      "inputs": [
        {
          "internalType": "address",
          "name": "_productAddress",
          "type": "address"
        },
        {
          "internalType": "address",
          "name": "_commentAddress",
          "type": "address"
        },
        {
          "internalType": "address",
          "name": "_reviewAddress",
          "type": "address"
        },
        {
          "internalType": "address",
          "name": "_betaTestingManagerAddress",
          "type": "address"
        },
        {
          "internalType": "address",
          "name": "initialOwner",
          "type": "address"
        }
      ],
      "stateMutability": "nonpayable",
      "type": "constructor"
    },
    {
      "inputs": [
        {
          "internalType": "address",
          "name": "owner",
          "type": "address"
        }
      ],
      "name": "OwnableInvalidOwner",
      "type": "error"
    },
    {
      "inputs": [
        {
          "internalType": "address",
          "name": "account",
          "type": "address"
        }
      ],
      "name": "OwnableUnauthorizedAccount",
      "type": "error"
    },
    {
      "anonymous": false,
      "inputs": [
        {
          "indexed": true,
          "internalType": "address",
          "name": "previousOwner",
          "type": "address"
        },
        {
          "indexed": true,
          "internalType": "address",
          "name": "newOwner",
          "type": "address"
        }
      ],
      "name": "OwnershipTransferred",
      "type": "event"
    },
    {
      "anonymous": false,
      "inputs": [
        {
          "indexed": true,
          "internalType": "address",
          "name": "user",
          "type": "address"
        },
        {
          "indexed": false,
          "internalType": "uint256",
          "name": "reputation",
          "type": "uint256"
        }
      ],
      "name": "UserReputationUpdated",
      "type": "event"
    },
    {
      "inputs": [
        {
          "internalType": "address",
          "name": "_reviewer",
          "type": "address"
        },
        {
          "internalType": "uint256",
          "name": "_productId",
          "type": "uint256"
        },
        {
          "internalType": "string",
          "name": "_content",
          "type": "string"
        },
        {
          "internalType": "uint256",
          "name": "_rating",
          "type": "uint256"
        }
      ],
      "name": "addReview",
      "outputs": [],
      "stateMutability": "nonpayable",
      "type": "function"
    },
    {
      "inputs": [
        {
          "internalType": "uint256",
          "name": "_productId",
          "type": "uint256"
        }
      ],
      "name": "canBeListed",
      "outputs": [
        {
          "internalType": "bool",
          "name": "",
          "type": "bool"
        }
      ],
      "stateMutability": "view",
      "type": "function"
    },
    {
      "inputs": [
        {
          "internalType": "uint256",
          "name": "_productId",
          "type": "uint256"
        },
        {
          "internalType": "string",
          "name": "_content",
          "type": "string"
        }
      ],
      "name": "commentOnProduct",
      "outputs": [],
      "stateMutability": "nonpayable",
      "type": "function"
    },
    {
      "inputs": [
        {
          "internalType": "uint256",
          "name": "_productId",
          "type": "uint256"
        },
        {
          "internalType": "uint256",
          "name": "_commentId",
          "type": "uint256"
        }
      ],
      "name": "getComment",
      "outputs": [
        {
          "components": [
            {
              "internalType": "address",
              "name": "commenter",
              "type": "address"
            },
            {
              "internalType": "string",
              "name": "content",
              "type": "string"
            },
            {
              "internalType": "uint256",
              "name": "timestamp",
              "type": "uint256"
            }
          ],
          "internalType": "struct Comment.CommentInfo",
          "name": "",
          "type": "tuple"
        }
      ],
      "stateMutability": "view",
      "type": "function"
    },
    {
      "inputs": [
        {
          "internalType": "uint256",
          "name": "_productId",
          "type": "uint256"
        },
        {
          "internalType": "uint256",
          "name": "_commentId",
          "type": "uint256"
        }
      ],
      "name": "getCommenter",
      "outputs": [
        {
          "internalType": "address",
          "name": "",
          "type": "address"
        }
      ],
      "stateMutability": "view",
      "type": "function"
    },
    {
      "inputs": [
        {
          "internalType": "uint256",
          "name": "_productId",
          "type": "uint256"
        }
      ],
      "name": "getComments",
      "outputs": [
        {
          "components": [
            {
              "internalType": "address",
              "name": "commenter",
              "type": "address"
            },
            {
              "internalType": "string",
              "name": "content",
              "type": "string"
            },
            {
              "internalType": "uint256",
              "name": "timestamp",
              "type": "uint256"
            }
          ],
          "internalType": "struct Comment.CommentInfo[]",
          "name": "",
          "type": "tuple[]"
        }
      ],
      "stateMutability": "view",
      "type": "function"
    },
    {
      "inputs": [
        {
          "internalType": "uint256",
          "name": "_productId",
          "type": "uint256"
        }
      ],
      "name": "getCommentsCount",
      "outputs": [
        {
          "internalType": "uint256",
          "name": "",
          "type": "uint256"
        }
      ],
      "stateMutability": "view",
      "type": "function"
    },
    {
      "inputs": [],
      "name": "getListedProducts",
      "outputs": [
        {
          "components": [
            {
              "components": [
                {
                  "internalType": "uint256",
                  "name": "id",
                  "type": "uint256"
                },
                {
                  "internalType": "address",
                  "name": "owner",
                  "type": "address"
                },
                {
                  "components": [
                    {
                      "internalType": "string",
                      "name": "productName",
                      "type": "string"
                    },
                    {
                      "internalType": "string",
                      "name": "tagLine",
                      "type": "string"
                    },
                    {
                      "internalType": "string",
                      "name": "productLink",
                      "type": "string"
                    },
                    {
                      "internalType": "string",
                      "name": "twitterLink",
                      "type": "string"
                    },
                    {
                      "internalType": "string",
                      "name": "description",
                      "type": "string"
                    },
                    {
                      "internalType": "bool",
                      "name": "isOpenSource",
                      "type": "bool"
                    },
                    {
                      "internalType": "string",
                      "name": "category",
                      "type": "string"
                    },
                    {
                      "internalType": "string",
                      "name": "thumbNail",
                      "type": "string"
                    },
                    {
                      "internalType": "string",
                      "name": "mediaFile",
                      "type": "string"
                    },
                    {
                      "internalType": "string",
                      "name": "loomLink",
                      "type": "string"
                    },
                    {
                      "internalType": "bool",
                      "name": "workedWithTeam",
                      "type": "bool"
                    },
                    {
                      "internalType": "string",
                      "name": "teamMembersInput",
                      "type": "string"
                    },
                    {
                      "internalType": "string",
                      "name": "pricingOption",
                      "type": "string"
                    },
                    {
                      "internalType": "string",
                      "name": "offer",
                      "type": "string"
                    },
                    {
                      "internalType": "string",
                      "name": "promoCode",
                      "type": "string"
                    },
                    {
                      "internalType": "string",
                      "name": "expirationDate",
                      "type": "string"
                    },
                    {
                      "internalType": "string",
                      "name": "betaTestingLink",
                      "type": "string"
                    }
                  ],
                  "internalType": "struct ProductLibrary.ProductDetails",
                  "name": "details",
                  "type": "tuple"
                },
                {
                  "internalType": "uint256",
                  "name": "upvotes",
                  "type": "uint256"
                },
                {
                  "internalType": "bool",
                  "name": "betaTestingAvailable",
                  "type": "bool"
                },
                {
                  "internalType": "uint256",
                  "name": "timestamp",
                  "type": "uint256"
                }
              ],
              "internalType": "struct ProductLibrary.ProductInfo",
              "name": "product",
              "type": "tuple"
            },
            {
              "components": [
                {
                  "internalType": "string",
                  "name": "contractAddress",
                  "type": "string"
                },
                {
                  "internalType": "uint256",
                  "name": "targetNumbersOfTester",
                  "type": "uint256"
                },
                {
                  "internalType": "string",
                  "name": "testingGoal",
                  "type": "string"
                },
                {
                  "internalType": "string[]",
                  "name": "goals",
                  "type": "string[]"
                },
                {
                  "internalType": "uint256",
                  "name": "startingDate",
                  "type": "uint256"
                },
                {
                  "internalType": "uint256",
                  "name": "endingDate",
                  "type": "uint256"
                },
                {
                  "internalType": "string",
                  "name": "featureLoomLink",
                  "type": "string"
                }
              ],
              "internalType": "struct BetaTestingDetailsLibrary.BetaTestingDetails",
              "name": "betaTestingDetails",
              "type": "tuple"
            },
            {
              "internalType": "bool",
              "name": "hasBetaTestingDetails",
              "type": "bool"
            }
          ],
          "internalType": "struct ProductLibrary.ProductWithBetaTesting[]",
          "name": "",
          "type": "tuple[]"
        }
      ],
      "stateMutability": "view",
      "type": "function"
    },
    {
      "inputs": [],
      "name": "getListedProductsAvailable",
      "outputs": [
        {
          "components": [
            {
              "components": [
                {
                  "internalType": "uint256",
                  "name": "id",
                  "type": "uint256"
                },
                {
                  "internalType": "address",
                  "name": "owner",
                  "type": "address"
                },
                {
                  "components": [
                    {
                      "internalType": "string",
                      "name": "productName",
                      "type": "string"
                    },
                    {
                      "internalType": "string",
                      "name": "tagLine",
                      "type": "string"
                    },
                    {
                      "internalType": "string",
                      "name": "productLink",
                      "type": "string"
                    },
                    {
                      "internalType": "string",
                      "name": "twitterLink",
                      "type": "string"
                    },
                    {
                      "internalType": "string",
                      "name": "description",
                      "type": "string"
                    },
                    {
                      "internalType": "bool",
                      "name": "isOpenSource",
                      "type": "bool"
                    },
                    {
                      "internalType": "string",
                      "name": "category",
                      "type": "string"
                    },
                    {
                      "internalType": "string",
                      "name": "thumbNail",
                      "type": "string"
                    },
                    {
                      "internalType": "string",
                      "name": "mediaFile",
                      "type": "string"
                    },
                    {
                      "internalType": "string",
                      "name": "loomLink",
                      "type": "string"
                    },
                    {
                      "internalType": "bool",
                      "name": "workedWithTeam",
                      "type": "bool"
                    },
                    {
                      "internalType": "string",
                      "name": "teamMembersInput",
                      "type": "string"
                    },
                    {
                      "internalType": "string",
                      "name": "pricingOption",
                      "type": "string"
                    },
                    {
                      "internalType": "string",
                      "name": "offer",
                      "type": "string"
                    },
                    {
                      "internalType": "string",
                      "name": "promoCode",
                      "type": "string"
                    },
                    {
                      "internalType": "string",
                      "name": "expirationDate",
                      "type": "string"
                    },
                    {
                      "internalType": "string",
                      "name": "betaTestingLink",
                      "type": "string"
                    }
                  ],
                  "internalType": "struct ProductLibrary.ProductDetails",
                  "name": "details",
                  "type": "tuple"
                },
                {
                  "internalType": "uint256",
                  "name": "upvotes",
                  "type": "uint256"
                },
                {
                  "internalType": "bool",
                  "name": "betaTestingAvailable",
                  "type": "bool"
                },
                {
                  "internalType": "uint256",
                  "name": "timestamp",
                  "type": "uint256"
                }
              ],
              "internalType": "struct ProductLibrary.ProductInfo",
              "name": "product",
              "type": "tuple"
            },
            {
              "components": [
                {
                  "internalType": "string",
                  "name": "contractAddress",
                  "type": "string"
                },
                {
                  "internalType": "uint256",
                  "name": "targetNumbersOfTester",
                  "type": "uint256"
                },
                {
                  "internalType": "string",
                  "name": "testingGoal",
                  "type": "string"
                },
                {
                  "internalType": "string[]",
                  "name": "goals",
                  "type": "string[]"
                },
                {
                  "internalType": "uint256",
                  "name": "startingDate",
                  "type": "uint256"
                },
                {
                  "internalType": "uint256",
                  "name": "endingDate",
                  "type": "uint256"
                },
                {
                  "internalType": "string",
                  "name": "featureLoomLink",
                  "type": "string"
                }
              ],
              "internalType": "struct BetaTestingDetailsLibrary.BetaTestingDetails",
              "name": "betaTestingDetails",
              "type": "tuple"
            },
            {
              "internalType": "bool",
              "name": "hasBetaTestingDetails",
              "type": "bool"
            }
          ],
          "internalType": "struct ProductLibrary.ProductWithBetaTesting[]",
          "name": "",
          "type": "tuple[]"
        }
      ],
      "stateMutability": "view",
      "type": "function"
    },
    {
      "inputs": [
        {
          "internalType": "uint256",
          "name": "_productId",
          "type": "uint256"
        }
      ],
      "name": "getProduct",
      "outputs": [
        {
          "components": [
            {
              "components": [
                {
                  "internalType": "uint256",
                  "name": "id",
                  "type": "uint256"
                },
                {
                  "internalType": "address",
                  "name": "owner",
                  "type": "address"
                },
                {
                  "components": [
                    {
                      "internalType": "string",
                      "name": "productName",
                      "type": "string"
                    },
                    {
                      "internalType": "string",
                      "name": "tagLine",
                      "type": "string"
                    },
                    {
                      "internalType": "string",
                      "name": "productLink",
                      "type": "string"
                    },
                    {
                      "internalType": "string",
                      "name": "twitterLink",
                      "type": "string"
                    },
                    {
                      "internalType": "string",
                      "name": "description",
                      "type": "string"
                    },
                    {
                      "internalType": "bool",
                      "name": "isOpenSource",
                      "type": "bool"
                    },
                    {
                      "internalType": "string",
                      "name": "category",
                      "type": "string"
                    },
                    {
                      "internalType": "string",
                      "name": "thumbNail",
                      "type": "string"
                    },
                    {
                      "internalType": "string",
                      "name": "mediaFile",
                      "type": "string"
                    },
                    {
                      "internalType": "string",
                      "name": "loomLink",
                      "type": "string"
                    },
                    {
                      "internalType": "bool",
                      "name": "workedWithTeam",
                      "type": "bool"
                    },
                    {
                      "internalType": "string",
                      "name": "teamMembersInput",
                      "type": "string"
                    },
                    {
                      "internalType": "string",
                      "name": "pricingOption",
                      "type": "string"
                    },
                    {
                      "internalType": "string",
                      "name": "offer",
                      "type": "string"
                    },
                    {
                      "internalType": "string",
                      "name": "promoCode",
                      "type": "string"
                    },
                    {
                      "internalType": "string",
                      "name": "expirationDate",
                      "type": "string"
                    },
                    {
                      "internalType": "string",
                      "name": "betaTestingLink",
                      "type": "string"
                    }
                  ],
                  "internalType": "struct ProductLibrary.ProductDetails",
                  "name": "details",
                  "type": "tuple"
                },
                {
                  "internalType": "uint256",
                  "name": "upvotes",
                  "type": "uint256"
                },
                {
                  "internalType": "bool",
                  "name": "betaTestingAvailable",
                  "type": "bool"
                },
                {
                  "internalType": "uint256",
                  "name": "timestamp",
                  "type": "uint256"
                }
              ],
              "internalType": "struct ProductLibrary.ProductInfo",
              "name": "product",
              "type": "tuple"
            },
            {
              "components": [
                {
                  "internalType": "string",
                  "name": "contractAddress",
                  "type": "string"
                },
                {
                  "internalType": "uint256",
                  "name": "targetNumbersOfTester",
                  "type": "uint256"
                },
                {
                  "internalType": "string",
                  "name": "testingGoal",
                  "type": "string"
                },
                {
                  "internalType": "string[]",
                  "name": "goals",
                  "type": "string[]"
                },
                {
                  "internalType": "uint256",
                  "name": "startingDate",
                  "type": "uint256"
                },
                {
                  "internalType": "uint256",
                  "name": "endingDate",
                  "type": "uint256"
                },
                {
                  "internalType": "string",
                  "name": "featureLoomLink",
                  "type": "string"
                }
              ],
              "internalType": "struct BetaTestingDetailsLibrary.BetaTestingDetails",
              "name": "betaTestingDetails",
              "type": "tuple"
            },
            {
              "internalType": "bool",
              "name": "hasBetaTestingDetails",
              "type": "bool"
            }
          ],
          "internalType": "struct ProductLibrary.ProductWithBetaTesting",
          "name": "",
          "type": "tuple"
        }
      ],
      "stateMutability": "view",
      "type": "function"
    },
    {
      "inputs": [
        {
          "internalType": "uint256",
          "name": "_productId",
          "type": "uint256"
        },
        {
          "internalType": "uint256",
          "name": "_reviewId",
          "type": "uint256"
        }
      ],
      "name": "getReview",
      "outputs": [
        {
          "components": [
            {
              "internalType": "address",
              "name": "reviewer",
              "type": "address"
            },
            {
              "internalType": "string",
              "name": "content",
              "type": "string"
            },
            {
              "internalType": "uint256",
              "name": "rating",
              "type": "uint256"
            },
            {
              "internalType": "uint256",
              "name": "timestamp",
              "type": "uint256"
            }
          ],
          "internalType": "struct Review.ReviewInfo",
          "name": "",
          "type": "tuple"
        }
      ],
      "stateMutability": "view",
      "type": "function"
    },
    {
      "inputs": [
        {
          "internalType": "uint256",
          "name": "_productId",
          "type": "uint256"
        },
        {
          "internalType": "uint256",
          "name": "_reviewId",
          "type": "uint256"
        }
      ],
      "name": "getReviewer",
      "outputs": [
        {
          "internalType": "address",
          "name": "",
          "type": "address"
        }
      ],
      "stateMutability": "view",
      "type": "function"
    },
    {
      "inputs": [
        {
          "internalType": "uint256",
          "name": "_productId",
          "type": "uint256"
        }
      ],
      "name": "getReviews",
      "outputs": [
        {
          "components": [
            {
              "internalType": "address",
              "name": "reviewer",
              "type": "address"
            },
            {
              "internalType": "string",
              "name": "content",
              "type": "string"
            },
            {
              "internalType": "uint256",
              "name": "rating",
              "type": "uint256"
            },
            {
              "internalType": "uint256",
              "name": "timestamp",
              "type": "uint256"
            }
          ],
          "internalType": "struct Review.ReviewInfo[]",
          "name": "",
          "type": "tuple[]"
        }
      ],
      "stateMutability": "view",
      "type": "function"
    },
    {
      "inputs": [
        {
          "internalType": "uint256",
          "name": "_productId",
          "type": "uint256"
        }
      ],
      "name": "getReviewsCount",
      "outputs": [
        {
          "internalType": "uint256",
          "name": "",
          "type": "uint256"
        }
      ],
      "stateMutability": "view",
      "type": "function"
    },
    {
      "inputs": [],
      "name": "owner",
      "outputs": [
        {
          "internalType": "address",
          "name": "",
          "type": "address"
        }
      ],
      "stateMutability": "view",
      "type": "function"
    },
    {
      "inputs": [
        {
          "internalType": "address",
          "name": "_owner",
          "type": "address"
        },
        {
          "components": [
            {
              "internalType": "string",
              "name": "productName",
              "type": "string"
            },
            {
              "internalType": "string",
              "name": "tagLine",
              "type": "string"
            },
            {
              "internalType": "string",
              "name": "productLink",
              "type": "string"
            },
            {
              "internalType": "string",
              "name": "twitterLink",
              "type": "string"
            },
            {
              "internalType": "string",
              "name": "description",
              "type": "string"
            },
            {
              "internalType": "bool",
              "name": "isOpenSource",
              "type": "bool"
            },
            {
              "internalType": "string",
              "name": "category",
              "type": "string"
            },
            {
              "internalType": "string",
              "name": "thumbNail",
              "type": "string"
            },
            {
              "internalType": "string",
              "name": "mediaFile",
              "type": "string"
            },
            {
              "internalType": "string",
              "name": "loomLink",
              "type": "string"
            },
            {
              "internalType": "bool",
              "name": "workedWithTeam",
              "type": "bool"
            },
            {
              "internalType": "string",
              "name": "teamMembersInput",
              "type": "string"
            },
            {
              "internalType": "string",
              "name": "pricingOption",
              "type": "string"
            },
            {
              "internalType": "string",
              "name": "offer",
              "type": "string"
            },
            {
              "internalType": "string",
              "name": "promoCode",
              "type": "string"
            },
            {
              "internalType": "string",
              "name": "expirationDate",
              "type": "string"
            },
            {
              "internalType": "string",
              "name": "betaTestingLink",
              "type": "string"
            }
          ],
          "internalType": "struct ProductLibrary.ProductDetails",
          "name": "details",
          "type": "tuple"
        },
        {
          "internalType": "bool",
          "name": "betaTestingAvailable",
          "type": "bool"
        },
        {
          "components": [
            {
              "internalType": "string",
              "name": "contractAddress",
              "type": "string"
            },
            {
              "internalType": "uint256",
              "name": "targetNumbersOfTester",
              "type": "uint256"
            },
            {
              "internalType": "string",
              "name": "testingGoal",
              "type": "string"
            },
            {
              "internalType": "string[]",
              "name": "goals",
              "type": "string[]"
            },
            {
              "internalType": "uint256",
              "name": "startingDate",
              "type": "uint256"
            },
            {
              "internalType": "uint256",
              "name": "endingDate",
              "type": "uint256"
            },
            {
              "internalType": "string",
              "name": "featureLoomLink",
              "type": "string"
            }
          ],
          "internalType": "struct BetaTestingDetailsLibrary.BetaTestingDetails",
          "name": "betaDetails",
          "type": "tuple"
        }
      ],
      "name": "registerProduct",
      "outputs": [],
      "stateMutability": "nonpayable",
      "type": "function"
    },
    {
      "inputs": [],
      "name": "renounceOwnership",
      "outputs": [],
      "stateMutability": "nonpayable",
      "type": "function"
    },
    {
      "inputs": [
        {
          "internalType": "address",
          "name": "newOwner",
          "type": "address"
        }
      ],
      "name": "transferOwnership",
      "outputs": [],
      "stateMutability": "nonpayable",
      "type": "function"
    },
    {
      "inputs": [
        {
          "internalType": "uint256",
          "name": "_productId",
          "type": "uint256"
        },
        {
          "internalType": "address",
          "name": "_upvoter",
          "type": "address"
        }
      ],
      "name": "upvoteProduct",
      "outputs": [],
      "stateMutability": "nonpayable",
      "type": "function"
    },
    {
      "inputs": [
        {
          "internalType": "address",
          "name": "",
          "type": "address"
        }
      ],
      "name": "userReputation",
      "outputs": [
        {
          "internalType": "uint256",
          "name": "",
          "type": "uint256"
        }
      ],
      "stateMutability": "view",
      "type": "function"
    }
  ],
  "bytecode": "0x60806040523480156200001157600080fd5b5060405162004576380380620045768339818101604052810190620000379190620002fc565b80600073ffffffffffffffffffffffffffffffffffffffff168173ffffffffffffffffffffffffffffffffffffffff1603620000ad5760006040517f1e4fbdf7000000000000000000000000000000000000000000000000000000008152600401620000a4919062000395565b60405180910390fd5b620000be81620001ce60201b60201c565b5084600160006101000a81548173ffffffffffffffffffffffffffffffffffffffff021916908373ffffffffffffffffffffffffffffffffffffffff16021790555083600260006101000a81548173ffffffffffffffffffffffffffffffffffffffff021916908373ffffffffffffffffffffffffffffffffffffffff16021790555082600360006101000a81548173ffffffffffffffffffffffffffffffffffffffff021916908373ffffffffffffffffffffffffffffffffffffffff16021790555081600460006101000a81548173ffffffffffffffffffffffffffffffffffffffff021916908373ffffffffffffffffffffffffffffffffffffffff1602179055505050505050620003b2565b60008060009054906101000a900473ffffffffffffffffffffffffffffffffffffffff169050816000806101000a81548173ffffffffffffffffffffffffffffffffffffffff021916908373ffffffffffffffffffffffffffffffffffffffff1602179055508173ffffffffffffffffffffffffffffffffffffffff168173ffffffffffffffffffffffffffffffffffffffff167f8be0079c531659141344cd1fd0a4f28419497f9722a3daafe3b4186f6b6457e060405160405180910390a35050565b600080fd5b600073ffffffffffffffffffffffffffffffffffffffff82169050919050565b6000620002c48262000297565b9050919050565b620002d681620002b7565b8114620002e257600080fd5b50565b600081519050620002f681620002cb565b92915050565b600080600080600060a086880312156200031b576200031a62000292565b5b60006200032b88828901620002e5565b95505060206200033e88828901620002e5565b94505060406200035188828901620002e5565b93505060606200036488828901620002e5565b92505060806200037788828901620002e5565b9150509295509295909350565b6200038f81620002b7565b82525050565b6000602082019050620003ac600083018462000384565b92915050565b6141b480620003c26000396000f3fe608060405234801561001057600080fd5b506004361061012c5760003560e01c80638da5cb5b116100ad578063dfa505ed11610071578063dfa505ed14610367578063e503bb0514610397578063e66f7f46146103c7578063f1c88b4b146103e5578063f2fde38b146104155761012c565b80638da5cb5b146102895780639d4a2255146102a7578063b9db15b4146102d7578063bf4f31b014610307578063dcfe3e08146103375761012c565b806352cb26af116100f457806352cb26af146101f957806363283c8414610217578063715018a6146102335780637376ccfd1461023d57806382bb560b1461026d5761012c565b80632326af511461013157806323edf6971461014d578063395e3f1e1461017d57806348892753146101995780634c9b78da146101c9575b600080fd5b61014b600480360381019061014691906121f1565b610431565b005b61016760048036038101906101629190612290565b6105ac565b604051610174919061246c565b60405180910390f35b6101976004803603810190610192919061248e565b610656565b005b6101b360048036038101906101ae91906124ea565b610811565b6040516101c0919061257a565b60405180910390f35b6101e360048036038101906101de9190612290565b6108c4565b6040516101f091906125ab565b60405180910390f35b610201610969565b60405161020e9190612ab9565b60405180910390f35b610231600480360381019061022c9190612adb565b610a06565b005b61023b610d73565b005b610257600480360381019061025291906124ea565b610d87565b6040516102649190612b2a565b60405180910390f35b61028760048036038101906102829190612b45565b610f16565b005b610291611129565b60405161029e9190612b2a565b60405180910390f35b6102c160048036038101906102bc9190612290565b611152565b6040516102ce9190612ced565b60405180910390f35b6102f160048036038101906102ec9190612290565b6111fc565b6040516102fe9190612d66565b60405180910390f35b610321600480360381019061031c91906124ea565b6112ac565b60405161032e9190612b2a565b60405180910390f35b610351600480360381019061034c9190612290565b611354565b60405161035e91906125ab565b60405180910390f35b610381600480360381019061037c91906124ea565b6113f9565b60405161038e9190612deb565b60405180910390f35b6103b160048036038101906103ac9190612e0d565b611593565b6040516103be91906125ab565b60405180910390f35b6103cf6115ab565b6040516103dc9190612ab9565b60405180910390f35b6103ff60048036038101906103fa9190612290565b611648565b60405161040c9190612e49565b60405180910390f35b61042f600480360381019061042a9190612e0d565b6116ed565b005b600160009054906101000a900473ffffffffffffffffffffffffffffffffffffffff1673ffffffffffffffffffffffffffffffffffffffff16632326af51858585856040518563ffffffff1660e01b815260040161049294939291906130e4565b600060405180830381600087803b1580156104ac57600080fd5b505af11580156104c0573d6000803e3d6000fd5b50505050600560003373ffffffffffffffffffffffffffffffffffffffff1673ffffffffffffffffffffffffffffffffffffffff168152602001908152602001600020600081548092919061051490613166565b91905055503373ffffffffffffffffffffffffffffffffffffffff167f2ed0252b8901e5ebb800f47a9b16756f232137a30e26b272dae6b2a2baf4e002600560003373ffffffffffffffffffffffffffffffffffffffff1673ffffffffffffffffffffffffffffffffffffffff1681526020019081526020016000205460405161059e91906125ab565b60405180910390a250505050565b6060600260009054906101000a900473ffffffffffffffffffffffffffffffffffffffff1673ffffffffffffffffffffffffffffffffffffffff166323edf697836040518263ffffffff1660e01b815260040161060991906125ab565b600060405180830381865afa158015610626573d6000803e3d6000fd5b505050506040513d6000823e3d601f19601f8201168201806040525081019061064f91906133a9565b9050919050565b80600081511161069b576040517f08c379a00000000000000000000000000000000000000000000000000000000081526004016106929061344f565b60405180910390fd5b600260009054906101000a900473ffffffffffffffffffffffffffffffffffffffff1673ffffffffffffffffffffffffffffffffffffffff1663395e3f1e84846040518363ffffffff1660e01b81526004016106f89291906134a8565b600060405180830381600087803b15801561071257600080fd5b505af1158015610726573d6000803e3d6000fd5b50505050600560003373ffffffffffffffffffffffffffffffffffffffff1673ffffffffffffffffffffffffffffffffffffffff168152602001908152602001600020600081548092919061077a90613166565b91905055503373ffffffffffffffffffffffffffffffffffffffff167f2ed0252b8901e5ebb800f47a9b16756f232137a30e26b272dae6b2a2baf4e002600560003373ffffffffffffffffffffffffffffffffffffffff1673ffffffffffffffffffffffffffffffffffffffff1681526020019081526020016000205460405161080491906125ab565b60405180910390a2505050565b6108196118c6565b600260009054906101000a900473ffffffffffffffffffffffffffffffffffffffff1673ffffffffffffffffffffffffffffffffffffffff16634889275384846040518363ffffffff1660e01b81526004016108769291906134d8565b600060405180830381865afa158015610893573d6000803e3d6000fd5b505050506040513d6000823e3d601f19601f820116820180604052508101906108bc9190613501565b905092915050565b6000600260009054906101000a900473ffffffffffffffffffffffffffffffffffffffff1673ffffffffffffffffffffffffffffffffffffffff16634c9b78da836040518263ffffffff1660e01b815260040161092191906125ab565b602060405180830381865afa15801561093e573d6000803e3d6000fd5b505050506040513d601f19601f82011682018060405250810190610962919061354a565b9050919050565b6060600160009054906101000a900473ffffffffffffffffffffffffffffffffffffffff1673ffffffffffffffffffffffffffffffffffffffff166352cb26af6040518163ffffffff1660e01b8152600401600060405180830381865afa1580156109d8573d6000803e3d6000fd5b505050506040513d6000823e3d601f19601f82011682018060405250810190610a019190613cd2565b905090565b600160009054906101000a900473ffffffffffffffffffffffffffffffffffffffff1673ffffffffffffffffffffffffffffffffffffffff166363283c8483836040518363ffffffff1660e01b8152600401610a63929190613d1b565b600060405180830381600087803b158015610a7d57600080fd5b505af1158015610a91573d6000803e3d6000fd5b5050505060056000600160009054906101000a900473ffffffffffffffffffffffffffffffffffffffff1673ffffffffffffffffffffffffffffffffffffffff1663b9db15b4856040518263ffffffff1660e01b8152600401610af491906125ab565b600060405180830381865afa158015610b11573d6000803e3d6000fd5b505050506040513d6000823e3d601f19601f82011682018060405250810190610b3a9190613d44565b600001516020015173ffffffffffffffffffffffffffffffffffffffff1673ffffffffffffffffffffffffffffffffffffffff1681526020019081526020016000206000815480929190610b8d90613166565b9190505550600160009054906101000a900473ffffffffffffffffffffffffffffffffffffffff1673ffffffffffffffffffffffffffffffffffffffff1663b9db15b4836040518263ffffffff1660e01b8152600401610bed91906125ab565b600060405180830381865afa158015610c0a573d6000803e3d6000fd5b505050506040513d6000823e3d601f19601f82011682018060405250810190610c339190613d44565b600001516020015173ffffffffffffffffffffffffffffffffffffffff167f2ed0252b8901e5ebb800f47a9b16756f232137a30e26b272dae6b2a2baf4e00260056000600160009054906101000a900473ffffffffffffffffffffffffffffffffffffffff1673ffffffffffffffffffffffffffffffffffffffff1663b9db15b4876040518263ffffffff1660e01b8152600401610cd191906125ab565b600060405180830381865afa158015610cee573d6000803e3d6000fd5b505050506040513d6000823e3d601f19601f82011682018060405250810190610d179190613d44565b600001516020015173ffffffffffffffffffffffffffffffffffffffff1673ffffffffffffffffffffffffffffffffffffffff16815260200190815260200160002054604051610d6791906125ab565b60405180910390a25050565b610d7b611773565b610d8560006117fa565b565b60008282600360009054906101000a900473ffffffffffffffffffffffffffffffffffffffff1673ffffffffffffffffffffffffffffffffffffffff16639d4a2255836040518263ffffffff1660e01b8152600401610de691906125ab565b600060405180830381865afa158015610e03573d6000803e3d6000fd5b505050506040513d6000823e3d601f19601f82011682018060405250810190610e2c9190613f02565b518110610e6e576040517f08c379a0000000000000000000000000000000000000000000000000000000008152600401610e6590613f97565b60405180910390fd5b600360009054906101000a900473ffffffffffffffffffffffffffffffffffffffff1673ffffffffffffffffffffffffffffffffffffffff16637376ccfd86866040518363ffffffff1660e01b8152600401610ecb9291906134d8565b602060405180830381865afa158015610ee8573d6000803e3d6000fd5b505050506040513d601f19601f82011682018060405250810190610f0c9190613fb7565b9250505092915050565b816000815111610f5b576040517f08c379a0000000000000000000000000000000000000000000000000000000008152600401610f5290614030565b60405180910390fd5b81600081118015610f6d575060058111155b610fac576040517f08c379a0000000000000000000000000000000000000000000000000000000008152600401610fa39061409c565b60405180910390fd5b600360009054906101000a900473ffffffffffffffffffffffffffffffffffffffff1673ffffffffffffffffffffffffffffffffffffffff166382bb560b878787876040518563ffffffff1660e01b815260040161100d94939291906140bc565b600060405180830381600087803b15801561102757600080fd5b505af115801561103b573d6000803e3d6000fd5b50505050600560003373ffffffffffffffffffffffffffffffffffffffff1673ffffffffffffffffffffffffffffffffffffffff168152602001908152602001600020600081548092919061108f90613166565b91905055503373ffffffffffffffffffffffffffffffffffffffff167f2ed0252b8901e5ebb800f47a9b16756f232137a30e26b272dae6b2a2baf4e002600560003373ffffffffffffffffffffffffffffffffffffffff1673ffffffffffffffffffffffffffffffffffffffff1681526020019081526020016000205460405161111991906125ab565b60405180910390a2505050505050565b60008060009054906101000a900473ffffffffffffffffffffffffffffffffffffffff16905090565b6060600360009054906101000a900473ffffffffffffffffffffffffffffffffffffffff1673ffffffffffffffffffffffffffffffffffffffff16639d4a2255836040518263ffffffff1660e01b81526004016111af91906125ab565b600060405180830381865afa1580156111cc573d6000803e3d6000fd5b505050506040513d6000823e3d601f19601f820116820180604052508101906111f59190613f02565b9050919050565b6112046118fd565b600160009054906101000a900473ffffffffffffffffffffffffffffffffffffffff1673ffffffffffffffffffffffffffffffffffffffff1663b9db15b4836040518263ffffffff1660e01b815260040161125f91906125ab565b600060405180830381865afa15801561127c573d6000803e3d6000fd5b505050506040513d6000823e3d601f19601f820116820180604052508101906112a59190613d44565b9050919050565b6000600260009054906101000a900473ffffffffffffffffffffffffffffffffffffffff1673ffffffffffffffffffffffffffffffffffffffff1663bf4f31b084846040518363ffffffff1660e01b815260040161130b9291906134d8565b602060405180830381865afa158015611328573d6000803e3d6000fd5b505050506040513d601f19601f8201168201806040525081019061134c9190613fb7565b905092915050565b6000600360009054906101000a900473ffffffffffffffffffffffffffffffffffffffff1673ffffffffffffffffffffffffffffffffffffffff1663dcfe3e08836040518263ffffffff1660e01b81526004016113b191906125ab565b602060405180830381865afa1580156113ce573d6000803e3d6000fd5b505050506040513d601f19601f820116820180604052508101906113f2919061354a565b9050919050565b61140161192c565b8282600360009054906101000a900473ffffffffffffffffffffffffffffffffffffffff1673ffffffffffffffffffffffffffffffffffffffff16639d4a2255836040518263ffffffff1660e01b815260040161145e91906125ab565b600060405180830381865afa15801561147b573d6000803e3d6000fd5b505050506040513d6000823e3d601f19601f820116820180604052508101906114a49190613f02565b5181106114e6576040517f08c379a00000000000000000000000000000000000000000000000000000000081526004016114dd90613f97565b60405180910390fd5b600360009054906101000a900473ffffffffffffffffffffffffffffffffffffffff1673ffffffffffffffffffffffffffffffffffffffff1663dfa505ed86866040518363ffffffff1660e01b81526004016115439291906134d8565b600060405180830381865afa158015611560573d6000803e3d6000fd5b505050506040513d6000823e3d601f19601f820116820180604052508101906115899190614108565b9250505092915050565b60056020528060005260406000206000915090505481565b6060600160009054906101000a900473ffffffffffffffffffffffffffffffffffffffff1673ffffffffffffffffffffffffffffffffffffffff1663e66f7f466040518163ffffffff1660e01b8152600401600060405180830381865afa15801561161a573d6000803e3d6000fd5b505050506040513d6000823e3d601f19601f820116820180604052508101906116439190613cd2565b905090565b6000600160009054906101000a900473ffffffffffffffffffffffffffffffffffffffff1673ffffffffffffffffffffffffffffffffffffffff1663f1c88b4b836040518263ffffffff1660e01b81526004016116a591906125ab565b602060405180830381865afa1580156116c2573d6000803e3d6000fd5b505050506040513d601f19601f820116820180604052508101906116e69190614151565b9050919050565b6116f5611773565b600073ffffffffffffffffffffffffffffffffffffffff168173ffffffffffffffffffffffffffffffffffffffff16036117675760006040517f1e4fbdf700000000000000000000000000000000000000000000000000000000815260040161175e9190612b2a565b60405180910390fd5b611770816117fa565b50565b61177b6118be565b73ffffffffffffffffffffffffffffffffffffffff16611799611129565b73ffffffffffffffffffffffffffffffffffffffff16146117f8576117bc6118be565b6040517f118cdaa70000000000000000000000000000000000000000000000000000000081526004016117ef9190612b2a565b60405180910390fd5b565b60008060009054906101000a900473ffffffffffffffffffffffffffffffffffffffff169050816000806101000a81548173ffffffffffffffffffffffffffffffffffffffff021916908373ffffffffffffffffffffffffffffffffffffffff1602179055508173ffffffffffffffffffffffffffffffffffffffff168173ffffffffffffffffffffffffffffffffffffffff167f8be0079c531659141344cd1fd0a4f28419497f9722a3daafe3b4186f6b6457e060405160405180910390a35050565b600033905090565b6040518060600160405280600073ffffffffffffffffffffffffffffffffffffffff16815260200160608152602001600081525090565b604051806060016040528061191061196a565b815260200161191d6119be565b81526020016000151581525090565b6040518060800160405280600073ffffffffffffffffffffffffffffffffffffffff1681526020016060815260200160008152602001600081525090565b6040518060c0016040528060008152602001600073ffffffffffffffffffffffffffffffffffffffff1681526020016119a16119fb565b815260200160008152602001600015158152602001600081525090565b6040518060e00160405280606081526020016000815260200160608152602001606081526020016000815260200160008152602001606081525090565b6040518061022001604052806060815260200160608152602001606081526020016060815260200160608152602001600015158152602001606081526020016060815260200160608152602001606081526020016000151581526020016060815260200160608152602001606081526020016060815260200160608152602001606081525090565b6000604051905090565b600080fd5b600080fd5b600073ffffffffffffffffffffffffffffffffffffffff82169050919050565b6000611ac282611a97565b9050919050565b611ad281611ab7565b8114611add57600080fd5b50565b600081359050611aef81611ac9565b92915050565b600080fd5b6000601f19601f8301169050919050565b7f4e487b7100000000000000000000000000000000000000000000000000000000600052604160045260246000fd5b611b4382611afa565b810181811067ffffffffffffffff82111715611b6257611b61611b0b565b5b80604052505050565b6000611b75611a83565b9050611b818282611b3a565b919050565b600080fd5b600080fd5b600080fd5b600067ffffffffffffffff821115611bb057611baf611b0b565b5b611bb982611afa565b9050602081019050919050565b82818337600083830152505050565b6000611be8611be384611b95565b611b6b565b905082815260208101848484011115611c0457611c03611b90565b5b611c0f848285611bc6565b509392505050565b600082601f830112611c2c57611c2b611b8b565b5b8135611c3c848260208601611bd5565b91505092915050565b60008115159050919050565b611c5a81611c45565b8114611c6557600080fd5b50565b600081359050611c7781611c51565b92915050565b60006102208284031215611c9457611c93611af5565b5b611c9f610220611b6b565b9050600082013567ffffffffffffffff811115611cbf57611cbe611b86565b5b611ccb84828501611c17565b600083015250602082013567ffffffffffffffff811115611cef57611cee611b86565b5b611cfb84828501611c17565b602083015250604082013567ffffffffffffffff811115611d1f57611d1e611b86565b5b611d2b84828501611c17565b604083015250606082013567ffffffffffffffff811115611d4f57611d4e611b86565b5b611d5b84828501611c17565b606083015250608082013567ffffffffffffffff811115611d7f57611d7e611b86565b5b611d8b84828501611c17565b60808301525060a0611d9f84828501611c68565b60a08301525060c082013567ffffffffffffffff811115611dc357611dc2611b86565b5b611dcf84828501611c17565b60c08301525060e082013567ffffffffffffffff811115611df357611df2611b86565b5b611dff84828501611c17565b60e08301525061010082013567ffffffffffffffff811115611e2457611e23611b86565b5b611e3084828501611c17565b6101008301525061012082013567ffffffffffffffff811115611e5657611e55611b86565b5b611e6284828501611c17565b61012083015250610140611e7884828501611c68565b6101408301525061016082013567ffffffffffffffff811115611e9e57611e9d611b86565b5b611eaa84828501611c17565b6101608301525061018082013567ffffffffffffffff811115611ed057611ecf611b86565b5b611edc84828501611c17565b610180830152506101a082013567ffffffffffffffff811115611f0257611f01611b86565b5b611f0e84828501611c17565b6101a0830152506101c082013567ffffffffffffffff811115611f3457611f33611b86565b5b611f4084828501611c17565b6101c0830152506101e082013567ffffffffffffffff811115611f6657611f65611b86565b5b611f7284828501611c17565b6101e08301525061020082013567ffffffffffffffff811115611f9857611f97611b86565b5b611fa484828501611c17565b6102008301525092915050565b6000819050919050565b611fc481611fb1565b8114611fcf57600080fd5b50565b600081359050611fe181611fbb565b92915050565b600067ffffffffffffffff82111561200257612001611b0b565b5b602082029050602081019050919050565b600080fd5b600061202b61202684611fe7565b611b6b565b9050808382526020820190506020840283018581111561204e5761204d612013565b5b835b8181101561209557803567ffffffffffffffff81111561207357612072611b8b565b5b8086016120808982611c17565b85526020850194505050602081019050612050565b5050509392505050565b600082601f8301126120b4576120b3611b8b565b5b81356120c4848260208601612018565b91505092915050565b600060e082840312156120e3576120e2611af5565b5b6120ed60e0611b6b565b9050600082013567ffffffffffffffff81111561210d5761210c611b86565b5b61211984828501611c17565b600083015250602061212d84828501611fd2565b602083015250604082013567ffffffffffffffff81111561215157612150611b86565b5b61215d84828501611c17565b604083015250606082013567ffffffffffffffff81111561218157612180611b86565b5b61218d8482850161209f565b60608301525060806121a184828501611fd2565b60808301525060a06121b584828501611fd2565b60a08301525060c082013567ffffffffffffffff8111156121d9576121d8611b86565b5b6121e584828501611c17565b60c08301525092915050565b6000806000806080858703121561220b5761220a611a8d565b5b600061221987828801611ae0565b945050602085013567ffffffffffffffff81111561223a57612239611a92565b5b61224687828801611c7d565b935050604061225787828801611c68565b925050606085013567ffffffffffffffff81111561227857612277611a92565b5b612284878288016120cd565b91505092959194509250565b6000602082840312156122a6576122a5611a8d565b5b60006122b484828501611fd2565b91505092915050565b600081519050919050565b600082825260208201905092915050565b6000819050602082019050919050565b6122f281611ab7565b82525050565b600081519050919050565b600082825260208201905092915050565b60005b83811015612332578082015181840152602081019050612317565b60008484015250505050565b6000612349826122f8565b6123538185612303565b9350612363818560208601612314565b61236c81611afa565b840191505092915050565b61238081611fb1565b82525050565b600060608301600083015161239e60008601826122e9565b50602083015184820360208601526123b6828261233e565b91505060408301516123cb6040860182612377565b508091505092915050565b60006123e28383612386565b905092915050565b6000602082019050919050565b6000612402826122bd565b61240c81856122c8565b93508360208202850161241e856122d9565b8060005b8581101561245a578484038952815161243b85826123d6565b9450612446836123ea565b925060208a01995050600181019050612422565b50829750879550505050505092915050565b6000602082019050818103600083015261248681846123f7565b905092915050565b600080604083850312156124a5576124a4611a8d565b5b60006124b385828601611fd2565b925050602083013567ffffffffffffffff8111156124d4576124d3611a92565b5b6124e085828601611c17565b9150509250929050565b6000806040838503121561250157612500611a8d565b5b600061250f85828601611fd2565b925050602061252085828601611fd2565b9150509250929050565b600060608301600083015161254260008601826122e9565b506020830151848203602086015261255a828261233e565b915050604083015161256f6040860182612377565b508091505092915050565b60006020820190508181036000830152612594818461252a565b905092915050565b6125a581611fb1565b82525050565b60006020820190506125c0600083018461259c565b92915050565b600081519050919050565b600082825260208201905092915050565b6000819050602082019050919050565b6125fb81611c45565b82525050565b600061022083016000830151848203600086015261261f828261233e565b91505060208301518482036020860152612639828261233e565b91505060408301518482036040860152612653828261233e565b9150506060830151848203606086015261266d828261233e565b91505060808301518482036080860152612687828261233e565b91505060a083015161269c60a08601826125f2565b5060c083015184820360c08601526126b4828261233e565b91505060e083015184820360e08601526126ce828261233e565b9150506101008301518482036101008601526126ea828261233e565b915050610120830151848203610120860152612706828261233e565b91505061014083015161271d6101408601826125f2565b50610160830151848203610160860152612737828261233e565b915050610180830151848203610180860152612753828261233e565b9150506101a08301518482036101a086015261276f828261233e565b9150506101c08301518482036101c086015261278b828261233e565b9150506101e08301518482036101e08601526127a7828261233e565b9150506102008301518482036102008601526127c3828261233e565b9150508091505092915050565b600060c0830160008301516127e86000860182612377565b5060208301516127fb60208601826122e9565b50604083015184820360408601526128138282612601565b91505060608301516128286060860182612377565b50608083015161283b60808601826125f2565b5060a083015161284e60a0860182612377565b508091505092915050565b600081519050919050565b600082825260208201905092915050565b6000819050602082019050919050565b6000612891838361233e565b905092915050565b6000602082019050919050565b60006128b182612859565b6128bb8185612864565b9350836020820285016128cd85612875565b8060005b8581101561290957848403895281516128ea8582612885565b94506128f583612899565b925060208a019950506001810190506128d1565b50829750879550505050505092915050565b600060e0830160008301518482036000860152612938828261233e565b915050602083015161294d6020860182612377565b5060408301518482036040860152612965828261233e565b9150506060830151848203606086015261297f82826128a6565b91505060808301516129946080860182612377565b5060a08301516129a760a0860182612377565b5060c083015184820360c08601526129bf828261233e565b9150508091505092915050565b600060608301600083015184820360008601526129e982826127d0565b91505060208301518482036020860152612a03828261291b565b9150506040830151612a1860408601826125f2565b508091505092915050565b6000612a2f83836129cc565b905092915050565b6000602082019050919050565b6000612a4f826125c6565b612a5981856125d1565b935083602082028501612a6b856125e2565b8060005b85811015612aa75784840389528151612a888582612a23565b9450612a9383612a37565b925060208a01995050600181019050612a6f565b50829750879550505050505092915050565b60006020820190508181036000830152612ad38184612a44565b905092915050565b60008060408385031215612af257612af1611a8d565b5b6000612b0085828601611fd2565b9250506020612b1185828601611ae0565b9150509250929050565b612b2481611ab7565b82525050565b6000602082019050612b3f6000830184612b1b565b92915050565b60008060008060808587031215612b5f57612b5e611a8d565b5b6000612b6d87828801611ae0565b9450506020612b7e87828801611fd2565b935050604085013567ffffffffffffffff811115612b9f57612b9e611a92565b5b612bab87828801611c17565b9250506060612bbc87828801611fd2565b91505092959194509250565b600081519050919050565b600082825260208201905092915050565b6000819050602082019050919050565b6000608083016000830151612c0c60008601826122e9565b5060208301518482036020860152612c24828261233e565b9150506040830151612c396040860182612377565b506060830151612c4c6060860182612377565b508091505092915050565b6000612c638383612bf4565b905092915050565b6000602082019050919050565b6000612c8382612bc8565b612c8d8185612bd3565b935083602082028501612c9f85612be4565b8060005b85811015612cdb5784840389528151612cbc8582612c57565b9450612cc783612c6b565b925060208a01995050600181019050612ca3565b50829750879550505050505092915050565b60006020820190508181036000830152612d078184612c78565b905092915050565b60006060830160008301518482036000860152612d2c82826127d0565b91505060208301518482036020860152612d46828261291b565b9150506040830151612d5b60408601826125f2565b508091505092915050565b60006020820190508181036000830152612d808184612d0f565b905092915050565b6000608083016000830151612da060008601826122e9565b5060208301518482036020860152612db8828261233e565b9150506040830151612dcd6040860182612377565b506060830151612de06060860182612377565b508091505092915050565b60006020820190508181036000830152612e058184612d88565b905092915050565b600060208284031215612e2357612e22611a8d565b5b6000612e3184828501611ae0565b91505092915050565b612e4381611c45565b82525050565b6000602082019050612e5e6000830184612e3a565b92915050565b6000610220830160008301518482036000860152612e82828261233e565b91505060208301518482036020860152612e9c828261233e565b91505060408301518482036040860152612eb6828261233e565b91505060608301518482036060860152612ed0828261233e565b91505060808301518482036080860152612eea828261233e565b91505060a0830151612eff60a08601826125f2565b5060c083015184820360c0860152612f17828261233e565b91505060e083015184820360e0860152612f31828261233e565b915050610100830151848203610100860152612f4d828261233e565b915050610120830151848203610120860152612f69828261233e565b915050610140830151612f806101408601826125f2565b50610160830151848203610160860152612f9a828261233e565b915050610180830151848203610180860152612fb6828261233e565b9150506101a08301518482036101a0860152612fd2828261233e565b9150506101c08301518482036101c0860152612fee828261233e565b9150506101e08301518482036101e086015261300a828261233e565b915050610200830151848203610200860152613026828261233e565b9150508091505092915050565b600060e0830160008301518482036000860152613050828261233e565b91505060208301516130656020860182612377565b506040830151848203604086015261307d828261233e565b9150506060830151848203606086015261309782826128a6565b91505060808301516130ac6080860182612377565b5060a08301516130bf60a0860182612377565b5060c083015184820360c08601526130d7828261233e565b9150508091505092915050565b60006080820190506130f96000830187612b1b565b818103602083015261310b8186612e64565b905061311a6040830185612e3a565b818103606083015261312c8184613033565b905095945050505050565b7f4e487b7100000000000000000000000000000000000000000000000000000000600052601160045260246000fd5b600061317182611fb1565b91507fffffffffffffffffffffffffffffffffffffffffffffffffffffffffffffffff82036131a3576131a2613137565b5b600182019050919050565b600067ffffffffffffffff8211156131c9576131c8611b0b565b5b602082029050602081019050919050565b6000815190506131e981611ac9565b92915050565b60006132026131fd84611b95565b611b6b565b90508281526020810184848401111561321e5761321d611b90565b5b613229848285612314565b509392505050565b600082601f83011261324657613245611b8b565b5b81516132568482602086016131ef565b91505092915050565b60008151905061326e81611fbb565b92915050565b60006060828403121561328a57613289611af5565b5b6132946060611b6b565b905060006132a4848285016131da565b600083015250602082015167ffffffffffffffff8111156132c8576132c7611b86565b5b6132d484828501613231565b60208301525060406132e88482850161325f565b60408301525092915050565b6000613307613302846131ae565b611b6b565b9050808382526020820190506020840283018581111561332a57613329612013565b5b835b8181101561337157805167ffffffffffffffff81111561334f5761334e611b8b565b5b80860161335c8982613274565b8552602085019450505060208101905061332c565b5050509392505050565b600082601f8301126133905761338f611b8b565b5b81516133a08482602086016132f4565b91505092915050565b6000602082840312156133bf576133be611a8d565b5b600082015167ffffffffffffffff8111156133dd576133dc611a92565b5b6133e98482850161337b565b91505092915050565b600082825260208201905092915050565b7f436f6d6d656e7420636f6e74656e742063616e6e6f7420626520656d70747900600082015250565b6000613439601f836133f2565b915061344482613403565b602082019050919050565b600060208201905081810360008301526134688161342c565b9050919050565b600061347a826122f8565b61348481856133f2565b9350613494818560208601612314565b61349d81611afa565b840191505092915050565b60006040820190506134bd600083018561259c565b81810360208301526134cf818461346f565b90509392505050565b60006040820190506134ed600083018561259c565b6134fa602083018461259c565b9392505050565b60006020828403121561351757613516611a8d565b5b600082015167ffffffffffffffff81111561353557613534611a92565b5b61354184828501613274565b91505092915050565b6000602082840312156135605761355f611a8d565b5b600061356e8482850161325f565b91505092915050565b600067ffffffffffffffff82111561359257613591611b0b565b5b602082029050602081019050919050565b6000815190506135b281611c51565b92915050565b600061022082840312156135cf576135ce611af5565b5b6135da610220611b6b565b9050600082015167ffffffffffffffff8111156135fa576135f9611b86565b5b61360684828501613231565b600083015250602082015167ffffffffffffffff81111561362a57613629611b86565b5b61363684828501613231565b602083015250604082015167ffffffffffffffff81111561365a57613659611b86565b5b61366684828501613231565b604083015250606082015167ffffffffffffffff81111561368a57613689611b86565b5b61369684828501613231565b606083015250608082015167ffffffffffffffff8111156136ba576136b9611b86565b5b6136c684828501613231565b60808301525060a06136da848285016135a3565b60a08301525060c082015167ffffffffffffffff8111156136fe576136fd611b86565b5b61370a84828501613231565b60c08301525060e082015167ffffffffffffffff81111561372e5761372d611b86565b5b61373a84828501613231565b60e08301525061010082015167ffffffffffffffff81111561375f5761375e611b86565b5b61376b84828501613231565b6101008301525061012082015167ffffffffffffffff81111561379157613790611b86565b5b61379d84828501613231565b610120830152506101406137b3848285016135a3565b6101408301525061016082015167ffffffffffffffff8111156137d9576137d8611b86565b5b6137e584828501613231565b6101608301525061018082015167ffffffffffffffff81111561380b5761380a611b86565b5b61381784828501613231565b610180830152506101a082015167ffffffffffffffff81111561383d5761383c611b86565b5b61384984828501613231565b6101a0830152506101c082015167ffffffffffffffff81111561386f5761386e611b86565b5b61387b84828501613231565b6101c0830152506101e082015167ffffffffffffffff8111156138a1576138a0611b86565b5b6138ad84828501613231565b6101e08301525061020082015167ffffffffffffffff8111156138d3576138d2611b86565b5b6138df84828501613231565b6102008301525092915050565b600060c0828403121561390257613901611af5565b5b61390c60c0611b6b565b9050600061391c8482850161325f565b6000830152506020613930848285016131da565b602083015250604082015167ffffffffffffffff81111561395457613953611b86565b5b613960848285016135b8565b60408301525060606139748482850161325f565b6060830152506080613988848285016135a3565b60808301525060a061399c8482850161325f565b60a08301525092915050565b60006139bb6139b684611fe7565b611b6b565b905080838252602082019050602084028301858111156139de576139dd612013565b5b835b81811015613a2557805167ffffffffffffffff811115613a0357613a02611b8b565b5b808601613a108982613231565b855260208501945050506020810190506139e0565b5050509392505050565b600082601f830112613a4457613a43611b8b565b5b8151613a548482602086016139a8565b91505092915050565b600060e08284031215613a7357613a72611af5565b5b613a7d60e0611b6b565b9050600082015167ffffffffffffffff811115613a9d57613a9c611b86565b5b613aa984828501613231565b6000830152506020613abd8482850161325f565b602083015250604082015167ffffffffffffffff811115613ae157613ae0611b86565b5b613aed84828501613231565b604083015250606082015167ffffffffffffffff811115613b1157613b10611b86565b5b613b1d84828501613a2f565b6060830152506080613b318482850161325f565b60808301525060a0613b458482850161325f565b60a08301525060c082015167ffffffffffffffff811115613b6957613b68611b86565b5b613b7584828501613231565b60c08301525092915050565b600060608284031215613b9757613b96611af5565b5b613ba16060611b6b565b9050600082015167ffffffffffffffff811115613bc157613bc0611b86565b5b613bcd848285016138ec565b600083015250602082015167ffffffffffffffff811115613bf157613bf0611b86565b5b613bfd84828501613a5d565b6020830152506040613c11848285016135a3565b60408301525092915050565b6000613c30613c2b84613577565b611b6b565b90508083825260208201905060208402830185811115613c5357613c52612013565b5b835b81811015613c9a57805167ffffffffffffffff811115613c7857613c77611b8b565b5b808601613c858982613b81565b85526020850194505050602081019050613c55565b5050509392505050565b600082601f830112613cb957613cb8611b8b565b5b8151613cc9848260208601613c1d565b91505092915050565b600060208284031215613ce857613ce7611a8d565b5b600082015167ffffffffffffffff811115613d0657613d05611a92565b5b613d1284828501613ca4565b91505092915050565b6000604082019050613d30600083018561259c565b613d3d6020830184612b1b565b9392505050565b600060208284031215613d5a57613d59611a8d565b5b600082015167ffffffffffffffff811115613d7857613d77611a92565b5b613d8484828501613b81565b91505092915050565b600067ffffffffffffffff821115613da857613da7611b0b565b5b602082029050602081019050919050565b600060808284031215613dcf57613dce611af5565b5b613dd96080611b6b565b90506000613de9848285016131da565b600083015250602082015167ffffffffffffffff811115613e0d57613e0c611b86565b5b613e1984828501613231565b6020830152506040613e2d8482850161325f565b6040830152506060613e418482850161325f565b60608301525092915050565b6000613e60613e5b84613d8d565b611b6b565b90508083825260208201905060208402830185811115613e8357613e82612013565b5b835b81811015613eca57805167ffffffffffffffff811115613ea857613ea7611b8b565b5b808601613eb58982613db9565b85526020850194505050602081019050613e85565b5050509392505050565b600082601f830112613ee957613ee8611b8b565b5b8151613ef9848260208601613e4d565b91505092915050565b600060208284031215613f1857613f17611a8d565b5b600082015167ffffffffffffffff811115613f3657613f35611a92565b5b613f4284828501613ed4565b91505092915050565b7f52657669657720646f6573206e6f742065786973740000000000000000000000600082015250565b6000613f816015836133f2565b9150613f8c82613f4b565b602082019050919050565b60006020820190508181036000830152613fb081613f74565b9050919050565b600060208284031215613fcd57613fcc611a8d565b5b6000613fdb848285016131da565b91505092915050565b7f52657669657720636f6e74656e742063616e6e6f7420626520656d7074790000600082015250565b600061401a601e836133f2565b915061402582613fe4565b602082019050919050565b600060208201905081810360008301526140498161400d565b9050919050565b7f526174696e67206d757374206265206265747765656e203120616e6420350000600082015250565b6000614086601e836133f2565b915061409182614050565b602082019050919050565b600060208201905081810360008301526140b581614079565b9050919050565b60006080820190506140d16000830187612b1b565b6140de602083018661259c565b81810360408301526140f0818561346f565b90506140ff606083018461259c565b95945050505050565b60006020828403121561411e5761411d611a8d565b5b600082015167ffffffffffffffff81111561413c5761413b611a92565b5b61414884828501613db9565b91505092915050565b60006020828403121561416757614166611a8d565b5b6000614175848285016135a3565b9150509291505056fea264697066735822122049740d1f1ffb4e6e28b8a0da74ad62fa0a417613f664c386831a2345745a1d8e64736f6c63430008180033",
  "linkReferences": {},
  "deployedLinkReferences": {}
}