{
  "_format": "hh-sol-artifact-1",
  "contractName": "ProductFindr",
  "sourceName": "contracts/ProductFindr.sol",
  "abi": [
    {
      "inputs": [],
      "name": "InvalidInitialization",
      "type": "error"
    },
    {
      "inputs": [],
      "name": "NotInitializing",
      "type": "error"
    },
    {
      "inputs": [
        {
          "internalType": "address",
          "name": "owner",
          "type": "address"
        }
      ],
      "name": "OwnableInvalidOwner",
      "type": "error"
    },
    {
      "inputs": [
        {
          "internalType": "address",
          "name": "account",
          "type": "address"
        }
      ],
      "name": "OwnableUnauthorizedAccount",
      "type": "error"
    },
    {
      "anonymous": false,
      "inputs": [
        {
          "indexed": false,
          "internalType": "uint64",
          "name": "version",
          "type": "uint64"
        }
      ],
      "name": "Initialized",
      "type": "event"
    },
    {
      "anonymous": false,
      "inputs": [
        {
          "indexed": true,
          "internalType": "address",
          "name": "previousOwner",
          "type": "address"
        },
        {
          "indexed": true,
          "internalType": "address",
          "name": "newOwner",
          "type": "address"
        }
      ],
      "name": "OwnershipTransferred",
      "type": "event"
    },
    {
      "anonymous": false,
      "inputs": [
        {
          "indexed": true,
          "internalType": "address",
          "name": "user",
          "type": "address"
        },
        {
          "indexed": false,
          "internalType": "uint256",
          "name": "reputation",
          "type": "uint256"
        }
      ],
      "name": "UserReputationUpdated",
      "type": "event"
    },
    {
      "inputs": [
        {
          "internalType": "address",
          "name": "_reviewer",
          "type": "address"
        },
        {
          "internalType": "uint256",
          "name": "_productId",
          "type": "uint256"
        },
        {
          "internalType": "string",
          "name": "_content",
          "type": "string"
        },
        {
          "internalType": "uint256",
          "name": "_rating",
          "type": "uint256"
        }
      ],
      "name": "addReview",
      "outputs": [],
      "stateMutability": "nonpayable",
      "type": "function"
    },
    {
      "inputs": [
        {
          "internalType": "uint256",
          "name": "_productId",
          "type": "uint256"
        }
      ],
      "name": "canBeListed",
      "outputs": [
        {
          "internalType": "bool",
          "name": "",
          "type": "bool"
        }
      ],
      "stateMutability": "view",
      "type": "function"
    },
    {
      "inputs": [
        {
          "internalType": "uint256",
          "name": "_productId",
          "type": "uint256"
        },
        {
          "internalType": "string",
          "name": "_content",
          "type": "string"
        }
      ],
      "name": "commentOnProduct",
      "outputs": [],
      "stateMutability": "nonpayable",
      "type": "function"
    },
    {
      "inputs": [
        {
          "internalType": "uint256",
          "name": "_productId",
          "type": "uint256"
        },
        {
          "internalType": "uint256",
          "name": "_commentId",
          "type": "uint256"
        }
      ],
      "name": "getComment",
      "outputs": [
        {
          "components": [
            {
              "internalType": "address",
              "name": "commenter",
              "type": "address"
            },
            {
              "internalType": "string",
              "name": "content",
              "type": "string"
            },
            {
              "internalType": "uint256",
              "name": "timestamp",
              "type": "uint256"
            }
          ],
          "internalType": "struct Comment.CommentInfo",
          "name": "",
          "type": "tuple"
        }
      ],
      "stateMutability": "view",
      "type": "function"
    },
    {
      "inputs": [
        {
          "internalType": "uint256",
          "name": "_productId",
          "type": "uint256"
        },
        {
          "internalType": "uint256",
          "name": "_commentId",
          "type": "uint256"
        }
      ],
      "name": "getCommenter",
      "outputs": [
        {
          "internalType": "address",
          "name": "",
          "type": "address"
        }
      ],
      "stateMutability": "view",
      "type": "function"
    },
    {
      "inputs": [
        {
          "internalType": "uint256",
          "name": "_productId",
          "type": "uint256"
        }
      ],
      "name": "getComments",
      "outputs": [
        {
          "components": [
            {
              "internalType": "address",
              "name": "commenter",
              "type": "address"
            },
            {
              "internalType": "string",
              "name": "content",
              "type": "string"
            },
            {
              "internalType": "uint256",
              "name": "timestamp",
              "type": "uint256"
            }
          ],
          "internalType": "struct Comment.CommentInfo[]",
          "name": "",
          "type": "tuple[]"
        }
      ],
      "stateMutability": "view",
      "type": "function"
    },
    {
      "inputs": [
        {
          "internalType": "uint256",
          "name": "_productId",
          "type": "uint256"
        }
      ],
      "name": "getCommentsCount",
      "outputs": [
        {
          "internalType": "uint256",
          "name": "",
          "type": "uint256"
        }
      ],
      "stateMutability": "view",
      "type": "function"
    },
    {
      "inputs": [],
      "name": "getListedProducts",
      "outputs": [
        {
          "components": [
            {
              "components": [
                {
                  "internalType": "uint256",
                  "name": "id",
                  "type": "uint256"
                },
                {
                  "internalType": "address",
                  "name": "owner",
                  "type": "address"
                },
                {
                  "components": [
                    {
                      "internalType": "string",
                      "name": "productName",
                      "type": "string"
                    },
                    {
                      "internalType": "string",
                      "name": "tagLine",
                      "type": "string"
                    },
                    {
                      "internalType": "string",
                      "name": "productLink",
                      "type": "string"
                    },
                    {
                      "internalType": "string",
                      "name": "twitterLink",
                      "type": "string"
                    },
                    {
                      "internalType": "string",
                      "name": "description",
                      "type": "string"
                    },
                    {
                      "internalType": "bool",
                      "name": "isOpenSource",
                      "type": "bool"
                    },
                    {
                      "internalType": "string",
                      "name": "category",
                      "type": "string"
                    },
                    {
                      "internalType": "string",
                      "name": "thumbNail",
                      "type": "string"
                    },
                    {
                      "internalType": "string",
                      "name": "mediaFile",
                      "type": "string"
                    },
                    {
                      "internalType": "string",
                      "name": "loomLink",
                      "type": "string"
                    },
                    {
                      "internalType": "bool",
                      "name": "workedWithTeam",
                      "type": "bool"
                    },
                    {
                      "internalType": "string",
                      "name": "teamMembersInput",
                      "type": "string"
                    },
                    {
                      "internalType": "string",
                      "name": "pricingOption",
                      "type": "string"
                    },
                    {
                      "internalType": "string",
                      "name": "offer",
                      "type": "string"
                    },
                    {
                      "internalType": "string",
                      "name": "promoCode",
                      "type": "string"
                    },
                    {
                      "internalType": "string",
                      "name": "expirationDate",
                      "type": "string"
                    },
                    {
                      "internalType": "string",
                      "name": "betaTestingLink",
                      "type": "string"
                    }
                  ],
                  "internalType": "struct ProductLibrary.ProductDetails",
                  "name": "details",
                  "type": "tuple"
                },
                {
                  "internalType": "uint256",
                  "name": "upvotes",
                  "type": "uint256"
                },
                {
                  "internalType": "bool",
                  "name": "betaTestingAvailable",
                  "type": "bool"
                },
                {
                  "internalType": "uint256",
                  "name": "timestamp",
                  "type": "uint256"
                }
              ],
              "internalType": "struct ProductLibrary.ProductInfo",
              "name": "product",
              "type": "tuple"
            },
            {
              "components": [
                {
                  "internalType": "string",
                  "name": "contractAddress",
                  "type": "string"
                },
                {
                  "internalType": "uint256",
                  "name": "targetNumbersOfTester",
                  "type": "uint256"
                },
                {
                  "internalType": "string",
                  "name": "testingGoal",
                  "type": "string"
                },
                {
                  "internalType": "string[]",
                  "name": "goals",
                  "type": "string[]"
                },
                {
                  "internalType": "uint256",
                  "name": "startingDate",
                  "type": "uint256"
                },
                {
                  "internalType": "uint256",
                  "name": "endingDate",
                  "type": "uint256"
                },
                {
                  "internalType": "string",
                  "name": "featureLoomLink",
                  "type": "string"
                }
              ],
              "internalType": "struct BetaTestingDetailsLibrary.BetaTestingDetails",
              "name": "betaTestingDetails",
              "type": "tuple"
            },
            {
              "internalType": "bool",
              "name": "hasBetaTestingDetails",
              "type": "bool"
            }
          ],
          "internalType": "struct ProductLibrary.ProductWithBetaTesting[]",
          "name": "",
          "type": "tuple[]"
        }
      ],
      "stateMutability": "view",
      "type": "function"
    },
    {
      "inputs": [],
      "name": "getListedProductsAvailable",
      "outputs": [
        {
          "components": [
            {
              "components": [
                {
                  "internalType": "uint256",
                  "name": "id",
                  "type": "uint256"
                },
                {
                  "internalType": "address",
                  "name": "owner",
                  "type": "address"
                },
                {
                  "components": [
                    {
                      "internalType": "string",
                      "name": "productName",
                      "type": "string"
                    },
                    {
                      "internalType": "string",
                      "name": "tagLine",
                      "type": "string"
                    },
                    {
                      "internalType": "string",
                      "name": "productLink",
                      "type": "string"
                    },
                    {
                      "internalType": "string",
                      "name": "twitterLink",
                      "type": "string"
                    },
                    {
                      "internalType": "string",
                      "name": "description",
                      "type": "string"
                    },
                    {
                      "internalType": "bool",
                      "name": "isOpenSource",
                      "type": "bool"
                    },
                    {
                      "internalType": "string",
                      "name": "category",
                      "type": "string"
                    },
                    {
                      "internalType": "string",
                      "name": "thumbNail",
                      "type": "string"
                    },
                    {
                      "internalType": "string",
                      "name": "mediaFile",
                      "type": "string"
                    },
                    {
                      "internalType": "string",
                      "name": "loomLink",
                      "type": "string"
                    },
                    {
                      "internalType": "bool",
                      "name": "workedWithTeam",
                      "type": "bool"
                    },
                    {
                      "internalType": "string",
                      "name": "teamMembersInput",
                      "type": "string"
                    },
                    {
                      "internalType": "string",
                      "name": "pricingOption",
                      "type": "string"
                    },
                    {
                      "internalType": "string",
                      "name": "offer",
                      "type": "string"
                    },
                    {
                      "internalType": "string",
                      "name": "promoCode",
                      "type": "string"
                    },
                    {
                      "internalType": "string",
                      "name": "expirationDate",
                      "type": "string"
                    },
                    {
                      "internalType": "string",
                      "name": "betaTestingLink",
                      "type": "string"
                    }
                  ],
                  "internalType": "struct ProductLibrary.ProductDetails",
                  "name": "details",
                  "type": "tuple"
                },
                {
                  "internalType": "uint256",
                  "name": "upvotes",
                  "type": "uint256"
                },
                {
                  "internalType": "bool",
                  "name": "betaTestingAvailable",
                  "type": "bool"
                },
                {
                  "internalType": "uint256",
                  "name": "timestamp",
                  "type": "uint256"
                }
              ],
              "internalType": "struct ProductLibrary.ProductInfo",
              "name": "product",
              "type": "tuple"
            },
            {
              "components": [
                {
                  "internalType": "string",
                  "name": "contractAddress",
                  "type": "string"
                },
                {
                  "internalType": "uint256",
                  "name": "targetNumbersOfTester",
                  "type": "uint256"
                },
                {
                  "internalType": "string",
                  "name": "testingGoal",
                  "type": "string"
                },
                {
                  "internalType": "string[]",
                  "name": "goals",
                  "type": "string[]"
                },
                {
                  "internalType": "uint256",
                  "name": "startingDate",
                  "type": "uint256"
                },
                {
                  "internalType": "uint256",
                  "name": "endingDate",
                  "type": "uint256"
                },
                {
                  "internalType": "string",
                  "name": "featureLoomLink",
                  "type": "string"
                }
              ],
              "internalType": "struct BetaTestingDetailsLibrary.BetaTestingDetails",
              "name": "betaTestingDetails",
              "type": "tuple"
            },
            {
              "internalType": "bool",
              "name": "hasBetaTestingDetails",
              "type": "bool"
            }
          ],
          "internalType": "struct ProductLibrary.ProductWithBetaTesting[]",
          "name": "",
          "type": "tuple[]"
        }
      ],
      "stateMutability": "view",
      "type": "function"
    },
    {
      "inputs": [
        {
          "internalType": "uint256",
          "name": "_productId",
          "type": "uint256"
        }
      ],
      "name": "getProduct",
      "outputs": [
        {
          "components": [
            {
              "components": [
                {
                  "internalType": "uint256",
                  "name": "id",
                  "type": "uint256"
                },
                {
                  "internalType": "address",
                  "name": "owner",
                  "type": "address"
                },
                {
                  "components": [
                    {
                      "internalType": "string",
                      "name": "productName",
                      "type": "string"
                    },
                    {
                      "internalType": "string",
                      "name": "tagLine",
                      "type": "string"
                    },
                    {
                      "internalType": "string",
                      "name": "productLink",
                      "type": "string"
                    },
                    {
                      "internalType": "string",
                      "name": "twitterLink",
                      "type": "string"
                    },
                    {
                      "internalType": "string",
                      "name": "description",
                      "type": "string"
                    },
                    {
                      "internalType": "bool",
                      "name": "isOpenSource",
                      "type": "bool"
                    },
                    {
                      "internalType": "string",
                      "name": "category",
                      "type": "string"
                    },
                    {
                      "internalType": "string",
                      "name": "thumbNail",
                      "type": "string"
                    },
                    {
                      "internalType": "string",
                      "name": "mediaFile",
                      "type": "string"
                    },
                    {
                      "internalType": "string",
                      "name": "loomLink",
                      "type": "string"
                    },
                    {
                      "internalType": "bool",
                      "name": "workedWithTeam",
                      "type": "bool"
                    },
                    {
                      "internalType": "string",
                      "name": "teamMembersInput",
                      "type": "string"
                    },
                    {
                      "internalType": "string",
                      "name": "pricingOption",
                      "type": "string"
                    },
                    {
                      "internalType": "string",
                      "name": "offer",
                      "type": "string"
                    },
                    {
                      "internalType": "string",
                      "name": "promoCode",
                      "type": "string"
                    },
                    {
                      "internalType": "string",
                      "name": "expirationDate",
                      "type": "string"
                    },
                    {
                      "internalType": "string",
                      "name": "betaTestingLink",
                      "type": "string"
                    }
                  ],
                  "internalType": "struct ProductLibrary.ProductDetails",
                  "name": "details",
                  "type": "tuple"
                },
                {
                  "internalType": "uint256",
                  "name": "upvotes",
                  "type": "uint256"
                },
                {
                  "internalType": "bool",
                  "name": "betaTestingAvailable",
                  "type": "bool"
                },
                {
                  "internalType": "uint256",
                  "name": "timestamp",
                  "type": "uint256"
                }
              ],
              "internalType": "struct ProductLibrary.ProductInfo",
              "name": "product",
              "type": "tuple"
            },
            {
              "components": [
                {
                  "internalType": "string",
                  "name": "contractAddress",
                  "type": "string"
                },
                {
                  "internalType": "uint256",
                  "name": "targetNumbersOfTester",
                  "type": "uint256"
                },
                {
                  "internalType": "string",
                  "name": "testingGoal",
                  "type": "string"
                },
                {
                  "internalType": "string[]",
                  "name": "goals",
                  "type": "string[]"
                },
                {
                  "internalType": "uint256",
                  "name": "startingDate",
                  "type": "uint256"
                },
                {
                  "internalType": "uint256",
                  "name": "endingDate",
                  "type": "uint256"
                },
                {
                  "internalType": "string",
                  "name": "featureLoomLink",
                  "type": "string"
                }
              ],
              "internalType": "struct BetaTestingDetailsLibrary.BetaTestingDetails",
              "name": "betaTestingDetails",
              "type": "tuple"
            },
            {
              "internalType": "bool",
              "name": "hasBetaTestingDetails",
              "type": "bool"
            }
          ],
          "internalType": "struct ProductLibrary.ProductWithBetaTesting",
          "name": "",
          "type": "tuple"
        }
      ],
      "stateMutability": "view",
      "type": "function"
    },
    {
      "inputs": [
        {
          "internalType": "uint256",
          "name": "_productId",
          "type": "uint256"
        },
        {
          "internalType": "uint256",
          "name": "_reviewId",
          "type": "uint256"
        }
      ],
      "name": "getReview",
      "outputs": [
        {
          "components": [
            {
              "internalType": "address",
              "name": "reviewer",
              "type": "address"
            },
            {
              "internalType": "string",
              "name": "content",
              "type": "string"
            },
            {
              "internalType": "uint256",
              "name": "rating",
              "type": "uint256"
            },
            {
              "internalType": "uint256",
              "name": "timestamp",
              "type": "uint256"
            }
          ],
          "internalType": "struct Review.ReviewInfo",
          "name": "",
          "type": "tuple"
        }
      ],
      "stateMutability": "view",
      "type": "function"
    },
    {
      "inputs": [
        {
          "internalType": "uint256",
          "name": "_productId",
          "type": "uint256"
        },
        {
          "internalType": "uint256",
          "name": "_reviewId",
          "type": "uint256"
        }
      ],
      "name": "getReviewer",
      "outputs": [
        {
          "internalType": "address",
          "name": "",
          "type": "address"
        }
      ],
      "stateMutability": "view",
      "type": "function"
    },
    {
      "inputs": [
        {
          "internalType": "uint256",
          "name": "_productId",
          "type": "uint256"
        }
      ],
      "name": "getReviews",
      "outputs": [
        {
          "components": [
            {
              "internalType": "address",
              "name": "reviewer",
              "type": "address"
            },
            {
              "internalType": "string",
              "name": "content",
              "type": "string"
            },
            {
              "internalType": "uint256",
              "name": "rating",
              "type": "uint256"
            },
            {
              "internalType": "uint256",
              "name": "timestamp",
              "type": "uint256"
            }
          ],
          "internalType": "struct Review.ReviewInfo[]",
          "name": "",
          "type": "tuple[]"
        }
      ],
      "stateMutability": "view",
      "type": "function"
    },
    {
      "inputs": [
        {
          "internalType": "uint256",
          "name": "_productId",
          "type": "uint256"
        }
      ],
      "name": "getReviewsCount",
      "outputs": [
        {
          "internalType": "uint256",
          "name": "",
          "type": "uint256"
        }
      ],
      "stateMutability": "view",
      "type": "function"
    },
    {
      "inputs": [
        {
          "internalType": "address",
          "name": "productAddress",
          "type": "address"
        },
        {
          "internalType": "address",
          "name": "commentAddress",
          "type": "address"
        },
        {
          "internalType": "address",
          "name": "reviewAddress",
          "type": "address"
        },
        {
          "internalType": "address",
          "name": "betaTestingManagerAddress",
          "type": "address"
        },
        {
          "internalType": "address",
          "name": "initialOwner",
          "type": "address"
        }
      ],
      "name": "initialize",
      "outputs": [],
      "stateMutability": "nonpayable",
      "type": "function"
    },
    {
      "inputs": [],
      "name": "owner",
      "outputs": [
        {
          "internalType": "address",
          "name": "",
          "type": "address"
        }
      ],
      "stateMutability": "view",
      "type": "function"
    },
    {
      "inputs": [
        {
          "internalType": "address",
          "name": "_owner",
          "type": "address"
        },
        {
          "components": [
            {
              "internalType": "string",
              "name": "productName",
              "type": "string"
            },
            {
              "internalType": "string",
              "name": "tagLine",
              "type": "string"
            },
            {
              "internalType": "string",
              "name": "productLink",
              "type": "string"
            },
            {
              "internalType": "string",
              "name": "twitterLink",
              "type": "string"
            },
            {
              "internalType": "string",
              "name": "description",
              "type": "string"
            },
            {
              "internalType": "bool",
              "name": "isOpenSource",
              "type": "bool"
            },
            {
              "internalType": "string",
              "name": "category",
              "type": "string"
            },
            {
              "internalType": "string",
              "name": "thumbNail",
              "type": "string"
            },
            {
              "internalType": "string",
              "name": "mediaFile",
              "type": "string"
            },
            {
              "internalType": "string",
              "name": "loomLink",
              "type": "string"
            },
            {
              "internalType": "bool",
              "name": "workedWithTeam",
              "type": "bool"
            },
            {
              "internalType": "string",
              "name": "teamMembersInput",
              "type": "string"
            },
            {
              "internalType": "string",
              "name": "pricingOption",
              "type": "string"
            },
            {
              "internalType": "string",
              "name": "offer",
              "type": "string"
            },
            {
              "internalType": "string",
              "name": "promoCode",
              "type": "string"
            },
            {
              "internalType": "string",
              "name": "expirationDate",
              "type": "string"
            },
            {
              "internalType": "string",
              "name": "betaTestingLink",
              "type": "string"
            }
          ],
          "internalType": "struct ProductLibrary.ProductDetails",
          "name": "details",
          "type": "tuple"
        },
        {
          "internalType": "bool",
          "name": "betaTestingAvailable",
          "type": "bool"
        },
        {
          "components": [
            {
              "internalType": "string",
              "name": "contractAddress",
              "type": "string"
            },
            {
              "internalType": "uint256",
              "name": "targetNumbersOfTester",
              "type": "uint256"
            },
            {
              "internalType": "string",
              "name": "testingGoal",
              "type": "string"
            },
            {
              "internalType": "string[]",
              "name": "goals",
              "type": "string[]"
            },
            {
              "internalType": "uint256",
              "name": "startingDate",
              "type": "uint256"
            },
            {
              "internalType": "uint256",
              "name": "endingDate",
              "type": "uint256"
            },
            {
              "internalType": "string",
              "name": "featureLoomLink",
              "type": "string"
            }
          ],
          "internalType": "struct BetaTestingDetailsLibrary.BetaTestingDetails",
          "name": "betaDetails",
          "type": "tuple"
        }
      ],
      "name": "registerProduct",
      "outputs": [],
      "stateMutability": "nonpayable",
      "type": "function"
    },
    {
      "inputs": [],
      "name": "renounceOwnership",
      "outputs": [],
      "stateMutability": "nonpayable",
      "type": "function"
    },
    {
      "inputs": [
        {
          "internalType": "address",
          "name": "newOwner",
          "type": "address"
        }
      ],
      "name": "transferOwnership",
      "outputs": [],
      "stateMutability": "nonpayable",
      "type": "function"
    },
    {
      "inputs": [
        {
          "internalType": "uint256",
          "name": "_productId",
          "type": "uint256"
        },
        {
          "internalType": "address",
          "name": "_upvoter",
          "type": "address"
        }
      ],
      "name": "upvoteProduct",
      "outputs": [],
      "stateMutability": "nonpayable",
      "type": "function"
    },
    {
      "inputs": [
        {
          "internalType": "address",
          "name": "",
          "type": "address"
        }
      ],
      "name": "userReputation",
      "outputs": [
        {
          "internalType": "uint256",
          "name": "",
          "type": "uint256"
        }
      ],
      "stateMutability": "view",
      "type": "function"
    }
  ],
  "bytecode": "0x608060405234801561001057600080fd5b506146c6806100206000396000f3fe608060405234801561001057600080fd5b50600436106101375760003560e01c806382bb560b116100b8578063dcfe3e081161007c578063dcfe3e081461035e578063dfa505ed1461038e578063e503bb05146103be578063e66f7f46146103ee578063f1c88b4b1461040c578063f2fde38b1461043c57610137565b806382bb560b146102945780638da5cb5b146102b05780639d4a2255146102ce578063b9db15b4146102fe578063bf4f31b01461032e57610137565b80634c9b78da116100ff5780634c9b78da146101f057806352cb26af1461022057806363283c841461023e578063715018a61461025a5780637376ccfd1461026457610137565b80631459457a1461013c5780632326af511461015857806323edf69714610174578063395e3f1e146101a457806348892753146101c0575b600080fd5b61015660048036038101906101519190611f18565b610458565b005b610172600480360381019061016d919061268f565b6106f7565b005b61018e6004803603810190610189919061272e565b610870565b60405161019b919061290a565b60405180910390f35b6101be60048036038101906101b9919061292c565b61091a565b005b6101da60048036038101906101d59190612988565b610ad5565b6040516101e79190612a18565b60405180910390f35b61020a6004803603810190610205919061272e565b610b88565b6040516102179190612a49565b60405180910390f35b610228610c2d565b6040516102359190612f57565b60405180910390f35b61025860048036038101906102539190612f79565b610cc8565b005b61026261102f565b005b61027e60048036038101906102799190612988565b611043565b60405161028b9190612fc8565b60405180910390f35b6102ae60048036038101906102a99190612fe3565b6111d2565b005b6102b86113e5565b6040516102c59190612fc8565b60405180910390f35b6102e860048036038101906102e3919061272e565b61141d565b6040516102f5919061318b565b60405180910390f35b6103186004803603810190610313919061272e565b6114c7565b6040516103259190613204565b60405180910390f35b61034860048036038101906103439190612988565b611575565b6040516103559190612fc8565b60405180910390f35b6103786004803603810190610373919061272e565b61161d565b6040516103859190612a49565b60405180910390f35b6103a860048036038101906103a39190612988565b6116c2565b6040516103b59190613289565b60405180910390f35b6103d860048036038101906103d391906132ab565b61185c565b6040516103e59190612a49565b60405180910390f35b6103f6611874565b6040516104039190612f57565b60405180910390f35b6104266004803603810190610421919061272e565b61190f565b60405161043391906132e7565b60405180910390f35b610456600480360381019061045191906132ab565b6119b3565b005b6000610462611a39565b905060008160000160089054906101000a900460ff1615905060008260000160009054906101000a900467ffffffffffffffff1690506000808267ffffffffffffffff161480156104b05750825b9050600060018367ffffffffffffffff161480156104e5575060003073ffffffffffffffffffffffffffffffffffffffff163b145b9050811580156104f3575080155b1561052a576040517ff92ee8a900000000000000000000000000000000000000000000000000000000815260040160405180910390fd5b60018560000160006101000a81548167ffffffffffffffff021916908367ffffffffffffffff160217905550831561057a5760018560000160086101000a81548160ff0219169083151502179055505b61058386611a61565b896000806101000a81548173ffffffffffffffffffffffffffffffffffffffff021916908373ffffffffffffffffffffffffffffffffffffffff16021790555088600160006101000a81548173ffffffffffffffffffffffffffffffffffffffff021916908373ffffffffffffffffffffffffffffffffffffffff16021790555087600260006101000a81548173ffffffffffffffffffffffffffffffffffffffff021916908373ffffffffffffffffffffffffffffffffffffffff16021790555086600360006101000a81548173ffffffffffffffffffffffffffffffffffffffff021916908373ffffffffffffffffffffffffffffffffffffffff16021790555061068f866119b3565b83156106eb5760008560000160086101000a81548160ff0219169083151502179055507fc7f505b2f371ae2175ee4913f4499e1f2633a7b5936321eed1cdaeb6115181d260016040516106e2919061335b565b60405180910390a15b50505050505050505050565b60008054906101000a900473ffffffffffffffffffffffffffffffffffffffff1673ffffffffffffffffffffffffffffffffffffffff16632326af51858585856040518563ffffffff1660e01b815260040161075694939291906135f6565b600060405180830381600087803b15801561077057600080fd5b505af1158015610784573d6000803e3d6000fd5b50505050600460003373ffffffffffffffffffffffffffffffffffffffff1673ffffffffffffffffffffffffffffffffffffffff16815260200190815260200160002060008154809291906107d890613678565b91905055503373ffffffffffffffffffffffffffffffffffffffff167f2ed0252b8901e5ebb800f47a9b16756f232137a30e26b272dae6b2a2baf4e002600460003373ffffffffffffffffffffffffffffffffffffffff1673ffffffffffffffffffffffffffffffffffffffff168152602001908152602001600020546040516108629190612a49565b60405180910390a250505050565b6060600160009054906101000a900473ffffffffffffffffffffffffffffffffffffffff1673ffffffffffffffffffffffffffffffffffffffff166323edf697836040518263ffffffff1660e01b81526004016108cd9190612a49565b600060405180830381865afa1580156108ea573d6000803e3d6000fd5b505050506040513d6000823e3d601f19601f8201168201806040525081019061091391906138bb565b9050919050565b80600081511161095f576040517f08c379a000000000000000000000000000000000000000000000000000000000815260040161095690613961565b60405180910390fd5b600160009054906101000a900473ffffffffffffffffffffffffffffffffffffffff1673ffffffffffffffffffffffffffffffffffffffff1663395e3f1e84846040518363ffffffff1660e01b81526004016109bc9291906139ba565b600060405180830381600087803b1580156109d657600080fd5b505af11580156109ea573d6000803e3d6000fd5b50505050600460003373ffffffffffffffffffffffffffffffffffffffff1673ffffffffffffffffffffffffffffffffffffffff1681526020019081526020016000206000815480929190610a3e90613678565b91905055503373ffffffffffffffffffffffffffffffffffffffff167f2ed0252b8901e5ebb800f47a9b16756f232137a30e26b272dae6b2a2baf4e002600460003373ffffffffffffffffffffffffffffffffffffffff1673ffffffffffffffffffffffffffffffffffffffff16815260200190815260200160002054604051610ac89190612a49565b60405180910390a2505050565b610add611ce9565b600160009054906101000a900473ffffffffffffffffffffffffffffffffffffffff1673ffffffffffffffffffffffffffffffffffffffff16634889275384846040518363ffffffff1660e01b8152600401610b3a9291906139ea565b600060405180830381865afa158015610b57573d6000803e3d6000fd5b505050506040513d6000823e3d601f19601f82011682018060405250810190610b809190613a13565b905092915050565b6000600160009054906101000a900473ffffffffffffffffffffffffffffffffffffffff1673ffffffffffffffffffffffffffffffffffffffff16634c9b78da836040518263ffffffff1660e01b8152600401610be59190612a49565b602060405180830381865afa158015610c02573d6000803e3d6000fd5b505050506040513d601f19601f82011682018060405250810190610c269190613a5c565b9050919050565b606060008054906101000a900473ffffffffffffffffffffffffffffffffffffffff1673ffffffffffffffffffffffffffffffffffffffff166352cb26af6040518163ffffffff1660e01b8152600401600060405180830381865afa158015610c9a573d6000803e3d6000fd5b505050506040513d6000823e3d601f19601f82011682018060405250810190610cc391906141e4565b905090565b60008054906101000a900473ffffffffffffffffffffffffffffffffffffffff1673ffffffffffffffffffffffffffffffffffffffff166363283c8483836040518363ffffffff1660e01b8152600401610d2392919061422d565b600060405180830381600087803b158015610d3d57600080fd5b505af1158015610d51573d6000803e3d6000fd5b50505050600460008060009054906101000a900473ffffffffffffffffffffffffffffffffffffffff1673ffffffffffffffffffffffffffffffffffffffff1663b9db15b4856040518263ffffffff1660e01b8152600401610db39190612a49565b600060405180830381865afa158015610dd0573d6000803e3d6000fd5b505050506040513d6000823e3d601f19601f82011682018060405250810190610df99190614256565b600001516020015173ffffffffffffffffffffffffffffffffffffffff1673ffffffffffffffffffffffffffffffffffffffff1681526020019081526020016000206000815480929190610e4c90613678565b919050555060008054906101000a900473ffffffffffffffffffffffffffffffffffffffff1673ffffffffffffffffffffffffffffffffffffffff1663b9db15b4836040518263ffffffff1660e01b8152600401610eaa9190612a49565b600060405180830381865afa158015610ec7573d6000803e3d6000fd5b505050506040513d6000823e3d601f19601f82011682018060405250810190610ef09190614256565b600001516020015173ffffffffffffffffffffffffffffffffffffffff167f2ed0252b8901e5ebb800f47a9b16756f232137a30e26b272dae6b2a2baf4e002600460008060009054906101000a900473ffffffffffffffffffffffffffffffffffffffff1673ffffffffffffffffffffffffffffffffffffffff1663b9db15b4876040518263ffffffff1660e01b8152600401610f8d9190612a49565b600060405180830381865afa158015610faa573d6000803e3d6000fd5b505050506040513d6000823e3d601f19601f82011682018060405250810190610fd39190614256565b600001516020015173ffffffffffffffffffffffffffffffffffffffff1673ffffffffffffffffffffffffffffffffffffffff168152602001908152602001600020546040516110239190612a49565b60405180910390a25050565b611037611a75565b6110416000611afc565b565b60008282600260009054906101000a900473ffffffffffffffffffffffffffffffffffffffff1673ffffffffffffffffffffffffffffffffffffffff16639d4a2255836040518263ffffffff1660e01b81526004016110a29190612a49565b600060405180830381865afa1580156110bf573d6000803e3d6000fd5b505050506040513d6000823e3d601f19601f820116820180604052508101906110e89190614414565b51811061112a576040517f08c379a0000000000000000000000000000000000000000000000000000000008152600401611121906144a9565b60405180910390fd5b600260009054906101000a900473ffffffffffffffffffffffffffffffffffffffff1673ffffffffffffffffffffffffffffffffffffffff16637376ccfd86866040518363ffffffff1660e01b81526004016111879291906139ea565b602060405180830381865afa1580156111a4573d6000803e3d6000fd5b505050506040513d601f19601f820116820180604052508101906111c891906144c9565b9250505092915050565b816000815111611217576040517f08c379a000000000000000000000000000000000000000000000000000000000815260040161120e90614542565b60405180910390fd5b81600081118015611229575060058111155b611268576040517f08c379a000000000000000000000000000000000000000000000000000000000815260040161125f906145ae565b60405180910390fd5b600260009054906101000a900473ffffffffffffffffffffffffffffffffffffffff1673ffffffffffffffffffffffffffffffffffffffff166382bb560b878787876040518563ffffffff1660e01b81526004016112c994939291906145ce565b600060405180830381600087803b1580156112e357600080fd5b505af11580156112f7573d6000803e3d6000fd5b50505050600460003373ffffffffffffffffffffffffffffffffffffffff1673ffffffffffffffffffffffffffffffffffffffff168152602001908152602001600020600081548092919061134b90613678565b91905055503373ffffffffffffffffffffffffffffffffffffffff167f2ed0252b8901e5ebb800f47a9b16756f232137a30e26b272dae6b2a2baf4e002600460003373ffffffffffffffffffffffffffffffffffffffff1673ffffffffffffffffffffffffffffffffffffffff168152602001908152602001600020546040516113d59190612a49565b60405180910390a2505050505050565b6000806113f0611bd3565b90508060000160009054906101000a900473ffffffffffffffffffffffffffffffffffffffff1691505090565b6060600260009054906101000a900473ffffffffffffffffffffffffffffffffffffffff1673ffffffffffffffffffffffffffffffffffffffff16639d4a2255836040518263ffffffff1660e01b815260040161147a9190612a49565b600060405180830381865afa158015611497573d6000803e3d6000fd5b505050506040513d6000823e3d601f19601f820116820180604052508101906114c09190614414565b9050919050565b6114cf611d20565b60008054906101000a900473ffffffffffffffffffffffffffffffffffffffff1673ffffffffffffffffffffffffffffffffffffffff1663b9db15b4836040518263ffffffff1660e01b81526004016115289190612a49565b600060405180830381865afa158015611545573d6000803e3d6000fd5b505050506040513d6000823e3d601f19601f8201168201806040525081019061156e9190614256565b9050919050565b6000600160009054906101000a900473ffffffffffffffffffffffffffffffffffffffff1673ffffffffffffffffffffffffffffffffffffffff1663bf4f31b084846040518363ffffffff1660e01b81526004016115d49291906139ea565b602060405180830381865afa1580156115f1573d6000803e3d6000fd5b505050506040513d601f19601f8201168201806040525081019061161591906144c9565b905092915050565b6000600260009054906101000a900473ffffffffffffffffffffffffffffffffffffffff1673ffffffffffffffffffffffffffffffffffffffff1663dcfe3e08836040518263ffffffff1660e01b815260040161167a9190612a49565b602060405180830381865afa158015611697573d6000803e3d6000fd5b505050506040513d601f19601f820116820180604052508101906116bb9190613a5c565b9050919050565b6116ca611d4f565b8282600260009054906101000a900473ffffffffffffffffffffffffffffffffffffffff1673ffffffffffffffffffffffffffffffffffffffff16639d4a2255836040518263ffffffff1660e01b81526004016117279190612a49565b600060405180830381865afa158015611744573d6000803e3d6000fd5b505050506040513d6000823e3d601f19601f8201168201806040525081019061176d9190614414565b5181106117af576040517f08c379a00000000000000000000000000000000000000000000000000000000081526004016117a6906144a9565b60405180910390fd5b600260009054906101000a900473ffffffffffffffffffffffffffffffffffffffff1673ffffffffffffffffffffffffffffffffffffffff1663dfa505ed86866040518363ffffffff1660e01b815260040161180c9291906139ea565b600060405180830381865afa158015611829573d6000803e3d6000fd5b505050506040513d6000823e3d601f19601f82011682018060405250810190611852919061461a565b9250505092915050565b60046020528060005260406000206000915090505481565b606060008054906101000a900473ffffffffffffffffffffffffffffffffffffffff1673ffffffffffffffffffffffffffffffffffffffff1663e66f7f466040518163ffffffff1660e01b8152600401600060405180830381865afa1580156118e1573d6000803e3d6000fd5b505050506040513d6000823e3d601f19601f8201168201806040525081019061190a91906141e4565b905090565b60008060009054906101000a900473ffffffffffffffffffffffffffffffffffffffff1673ffffffffffffffffffffffffffffffffffffffff1663f1c88b4b836040518263ffffffff1660e01b815260040161196b9190612a49565b602060405180830381865afa158015611988573d6000803e3d6000fd5b505050506040513d601f19601f820116820180604052508101906119ac9190614663565b9050919050565b6119bb611a75565b600073ffffffffffffffffffffffffffffffffffffffff168173ffffffffffffffffffffffffffffffffffffffff1603611a2d5760006040517f1e4fbdf7000000000000000000000000000000000000000000000000000000008152600401611a249190612fc8565b60405180910390fd5b611a3681611afc565b50565b60007ff0c57e16840df040f15088dc2f81fe391c3923bec73e23a9662efc9c229c6a00905090565b611a69611bfb565b611a7281611c3b565b50565b611a7d611cc1565b73ffffffffffffffffffffffffffffffffffffffff16611a9b6113e5565b73ffffffffffffffffffffffffffffffffffffffff1614611afa57611abe611cc1565b6040517f118cdaa7000000000000000000000000000000000000000000000000000000008152600401611af19190612fc8565b60405180910390fd5b565b6000611b06611bd3565b905060008160000160009054906101000a900473ffffffffffffffffffffffffffffffffffffffff169050828260000160006101000a81548173ffffffffffffffffffffffffffffffffffffffff021916908373ffffffffffffffffffffffffffffffffffffffff1602179055508273ffffffffffffffffffffffffffffffffffffffff168173ffffffffffffffffffffffffffffffffffffffff167f8be0079c531659141344cd1fd0a4f28419497f9722a3daafe3b4186f6b6457e060405160405180910390a3505050565b60007f9016d09d72d40fdae2fd8ceac6b6234c7706214fd39c1cd1e609a0528c199300905090565b611c03611cc9565b611c39576040517fd7e6bcf800000000000000000000000000000000000000000000000000000000815260040160405180910390fd5b565b611c43611bfb565b600073ffffffffffffffffffffffffffffffffffffffff168173ffffffffffffffffffffffffffffffffffffffff1603611cb55760006040517f1e4fbdf7000000000000000000000000000000000000000000000000000000008152600401611cac9190612fc8565b60405180910390fd5b611cbe81611afc565b50565b600033905090565b6000611cd3611a39565b60000160089054906101000a900460ff16905090565b6040518060600160405280600073ffffffffffffffffffffffffffffffffffffffff16815260200160608152602001600081525090565b6040518060600160405280611d33611d8d565b8152602001611d40611de1565b81526020016000151581525090565b6040518060800160405280600073ffffffffffffffffffffffffffffffffffffffff1681526020016060815260200160008152602001600081525090565b6040518060c0016040528060008152602001600073ffffffffffffffffffffffffffffffffffffffff168152602001611dc4611e1e565b815260200160008152602001600015158152602001600081525090565b6040518060e00160405280606081526020016000815260200160608152602001606081526020016000815260200160008152602001606081525090565b6040518061022001604052806060815260200160608152602001606081526020016060815260200160608152602001600015158152602001606081526020016060815260200160608152602001606081526020016000151581526020016060815260200160608152602001606081526020016060815260200160608152602001606081525090565b6000604051905090565b600080fd5b600080fd5b600073ffffffffffffffffffffffffffffffffffffffff82169050919050565b6000611ee582611eba565b9050919050565b611ef581611eda565b8114611f0057600080fd5b50565b600081359050611f1281611eec565b92915050565b600080600080600060a08688031215611f3457611f33611eb0565b5b6000611f4288828901611f03565b9550506020611f5388828901611f03565b9450506040611f6488828901611f03565b9350506060611f7588828901611f03565b9250506080611f8688828901611f03565b9150509295509295909350565b600080fd5b6000601f19601f8301169050919050565b7f4e487b7100000000000000000000000000000000000000000000000000000000600052604160045260246000fd5b611fe182611f98565b810181811067ffffffffffffffff8211171561200057611fff611fa9565b5b80604052505050565b6000612013611ea6565b905061201f8282611fd8565b919050565b600080fd5b600080fd5b600080fd5b600067ffffffffffffffff82111561204e5761204d611fa9565b5b61205782611f98565b9050602081019050919050565b82818337600083830152505050565b600061208661208184612033565b612009565b9050828152602081018484840111156120a2576120a161202e565b5b6120ad848285612064565b509392505050565b600082601f8301126120ca576120c9612029565b5b81356120da848260208601612073565b91505092915050565b60008115159050919050565b6120f8816120e3565b811461210357600080fd5b50565b600081359050612115816120ef565b92915050565b6000610220828403121561213257612131611f93565b5b61213d610220612009565b9050600082013567ffffffffffffffff81111561215d5761215c612024565b5b612169848285016120b5565b600083015250602082013567ffffffffffffffff81111561218d5761218c612024565b5b612199848285016120b5565b602083015250604082013567ffffffffffffffff8111156121bd576121bc612024565b5b6121c9848285016120b5565b604083015250606082013567ffffffffffffffff8111156121ed576121ec612024565b5b6121f9848285016120b5565b606083015250608082013567ffffffffffffffff81111561221d5761221c612024565b5b612229848285016120b5565b60808301525060a061223d84828501612106565b60a08301525060c082013567ffffffffffffffff81111561226157612260612024565b5b61226d848285016120b5565b60c08301525060e082013567ffffffffffffffff81111561229157612290612024565b5b61229d848285016120b5565b60e08301525061010082013567ffffffffffffffff8111156122c2576122c1612024565b5b6122ce848285016120b5565b6101008301525061012082013567ffffffffffffffff8111156122f4576122f3612024565b5b612300848285016120b5565b6101208301525061014061231684828501612106565b6101408301525061016082013567ffffffffffffffff81111561233c5761233b612024565b5b612348848285016120b5565b6101608301525061018082013567ffffffffffffffff81111561236e5761236d612024565b5b61237a848285016120b5565b610180830152506101a082013567ffffffffffffffff8111156123a05761239f612024565b5b6123ac848285016120b5565b6101a0830152506101c082013567ffffffffffffffff8111156123d2576123d1612024565b5b6123de848285016120b5565b6101c0830152506101e082013567ffffffffffffffff81111561240457612403612024565b5b612410848285016120b5565b6101e08301525061020082013567ffffffffffffffff81111561243657612435612024565b5b612442848285016120b5565b6102008301525092915050565b6000819050919050565b6124628161244f565b811461246d57600080fd5b50565b60008135905061247f81612459565b92915050565b600067ffffffffffffffff8211156124a05761249f611fa9565b5b602082029050602081019050919050565b600080fd5b60006124c96124c484612485565b612009565b905080838252602082019050602084028301858111156124ec576124eb6124b1565b5b835b8181101561253357803567ffffffffffffffff81111561251157612510612029565b5b80860161251e89826120b5565b855260208501945050506020810190506124ee565b5050509392505050565b600082601f83011261255257612551612029565b5b81356125628482602086016124b6565b91505092915050565b600060e0828403121561258157612580611f93565b5b61258b60e0612009565b9050600082013567ffffffffffffffff8111156125ab576125aa612024565b5b6125b7848285016120b5565b60008301525060206125cb84828501612470565b602083015250604082013567ffffffffffffffff8111156125ef576125ee612024565b5b6125fb848285016120b5565b604083015250606082013567ffffffffffffffff81111561261f5761261e612024565b5b61262b8482850161253d565b606083015250608061263f84828501612470565b60808301525060a061265384828501612470565b60a08301525060c082013567ffffffffffffffff81111561267757612676612024565b5b612683848285016120b5565b60c08301525092915050565b600080600080608085870312156126a9576126a8611eb0565b5b60006126b787828801611f03565b945050602085013567ffffffffffffffff8111156126d8576126d7611eb5565b5b6126e48782880161211b565b93505060406126f587828801612106565b925050606085013567ffffffffffffffff81111561271657612715611eb5565b5b6127228782880161256b565b91505092959194509250565b60006020828403121561274457612743611eb0565b5b600061275284828501612470565b91505092915050565b600081519050919050565b600082825260208201905092915050565b6000819050602082019050919050565b61279081611eda565b82525050565b600081519050919050565b600082825260208201905092915050565b60005b838110156127d05780820151818401526020810190506127b5565b60008484015250505050565b60006127e782612796565b6127f181856127a1565b93506128018185602086016127b2565b61280a81611f98565b840191505092915050565b61281e8161244f565b82525050565b600060608301600083015161283c6000860182612787565b506020830151848203602086015261285482826127dc565b91505060408301516128696040860182612815565b508091505092915050565b60006128808383612824565b905092915050565b6000602082019050919050565b60006128a08261275b565b6128aa8185612766565b9350836020820285016128bc85612777565b8060005b858110156128f857848403895281516128d98582612874565b94506128e483612888565b925060208a019950506001810190506128c0565b50829750879550505050505092915050565b600060208201905081810360008301526129248184612895565b905092915050565b6000806040838503121561294357612942611eb0565b5b600061295185828601612470565b925050602083013567ffffffffffffffff81111561297257612971611eb5565b5b61297e858286016120b5565b9150509250929050565b6000806040838503121561299f5761299e611eb0565b5b60006129ad85828601612470565b92505060206129be85828601612470565b9150509250929050565b60006060830160008301516129e06000860182612787565b50602083015184820360208601526129f882826127dc565b9150506040830151612a0d6040860182612815565b508091505092915050565b60006020820190508181036000830152612a3281846129c8565b905092915050565b612a438161244f565b82525050565b6000602082019050612a5e6000830184612a3a565b92915050565b600081519050919050565b600082825260208201905092915050565b6000819050602082019050919050565b612a99816120e3565b82525050565b6000610220830160008301518482036000860152612abd82826127dc565b91505060208301518482036020860152612ad782826127dc565b91505060408301518482036040860152612af182826127dc565b91505060608301518482036060860152612b0b82826127dc565b91505060808301518482036080860152612b2582826127dc565b91505060a0830151612b3a60a0860182612a90565b5060c083015184820360c0860152612b5282826127dc565b91505060e083015184820360e0860152612b6c82826127dc565b915050610100830151848203610100860152612b8882826127dc565b915050610120830151848203610120860152612ba482826127dc565b915050610140830151612bbb610140860182612a90565b50610160830151848203610160860152612bd582826127dc565b915050610180830151848203610180860152612bf182826127dc565b9150506101a08301518482036101a0860152612c0d82826127dc565b9150506101c08301518482036101c0860152612c2982826127dc565b9150506101e08301518482036101e0860152612c4582826127dc565b915050610200830151848203610200860152612c6182826127dc565b9150508091505092915050565b600060c083016000830151612c866000860182612815565b506020830151612c996020860182612787565b5060408301518482036040860152612cb18282612a9f565b9150506060830151612cc66060860182612815565b506080830151612cd96080860182612a90565b5060a0830151612cec60a0860182612815565b508091505092915050565b600081519050919050565b600082825260208201905092915050565b6000819050602082019050919050565b6000612d2f83836127dc565b905092915050565b6000602082019050919050565b6000612d4f82612cf7565b612d598185612d02565b935083602082028501612d6b85612d13565b8060005b85811015612da75784840389528151612d888582612d23565b9450612d9383612d37565b925060208a01995050600181019050612d6f565b50829750879550505050505092915050565b600060e0830160008301518482036000860152612dd682826127dc565b9150506020830151612deb6020860182612815565b5060408301518482036040860152612e0382826127dc565b91505060608301518482036060860152612e1d8282612d44565b9150506080830151612e326080860182612815565b5060a0830151612e4560a0860182612815565b5060c083015184820360c0860152612e5d82826127dc565b9150508091505092915050565b60006060830160008301518482036000860152612e878282612c6e565b91505060208301518482036020860152612ea18282612db9565b9150506040830151612eb66040860182612a90565b508091505092915050565b6000612ecd8383612e6a565b905092915050565b6000602082019050919050565b6000612eed82612a64565b612ef78185612a6f565b935083602082028501612f0985612a80565b8060005b85811015612f455784840389528151612f268582612ec1565b9450612f3183612ed5565b925060208a01995050600181019050612f0d565b50829750879550505050505092915050565b60006020820190508181036000830152612f718184612ee2565b905092915050565b60008060408385031215612f9057612f8f611eb0565b5b6000612f9e85828601612470565b9250506020612faf85828601611f03565b9150509250929050565b612fc281611eda565b82525050565b6000602082019050612fdd6000830184612fb9565b92915050565b60008060008060808587031215612ffd57612ffc611eb0565b5b600061300b87828801611f03565b945050602061301c87828801612470565b935050604085013567ffffffffffffffff81111561303d5761303c611eb5565b5b613049878288016120b5565b925050606061305a87828801612470565b91505092959194509250565b600081519050919050565b600082825260208201905092915050565b6000819050602082019050919050565b60006080830160008301516130aa6000860182612787565b50602083015184820360208601526130c282826127dc565b91505060408301516130d76040860182612815565b5060608301516130ea6060860182612815565b508091505092915050565b60006131018383613092565b905092915050565b6000602082019050919050565b600061312182613066565b61312b8185613071565b93508360208202850161313d85613082565b8060005b85811015613179578484038952815161315a85826130f5565b945061316583613109565b925060208a01995050600181019050613141565b50829750879550505050505092915050565b600060208201905081810360008301526131a58184613116565b905092915050565b600060608301600083015184820360008601526131ca8282612c6e565b915050602083015184820360208601526131e48282612db9565b91505060408301516131f96040860182612a90565b508091505092915050565b6000602082019050818103600083015261321e81846131ad565b905092915050565b600060808301600083015161323e6000860182612787565b506020830151848203602086015261325682826127dc565b915050604083015161326b6040860182612815565b50606083015161327e6060860182612815565b508091505092915050565b600060208201905081810360008301526132a38184613226565b905092915050565b6000602082840312156132c1576132c0611eb0565b5b60006132cf84828501611f03565b91505092915050565b6132e1816120e3565b82525050565b60006020820190506132fc60008301846132d8565b92915050565b6000819050919050565b600067ffffffffffffffff82169050919050565b6000819050919050565b600061334561334061333b84613302565b613320565b61330c565b9050919050565b6133558161332a565b82525050565b6000602082019050613370600083018461334c565b92915050565b600061022083016000830151848203600086015261339482826127dc565b915050602083015184820360208601526133ae82826127dc565b915050604083015184820360408601526133c882826127dc565b915050606083015184820360608601526133e282826127dc565b915050608083015184820360808601526133fc82826127dc565b91505060a083015161341160a0860182612a90565b5060c083015184820360c086015261342982826127dc565b91505060e083015184820360e086015261344382826127dc565b91505061010083015184820361010086015261345f82826127dc565b91505061012083015184820361012086015261347b82826127dc565b915050610140830151613492610140860182612a90565b506101608301518482036101608601526134ac82826127dc565b9150506101808301518482036101808601526134c882826127dc565b9150506101a08301518482036101a08601526134e482826127dc565b9150506101c08301518482036101c086015261350082826127dc565b9150506101e08301518482036101e086015261351c82826127dc565b91505061020083015184820361020086015261353882826127dc565b9150508091505092915050565b600060e083016000830151848203600086015261356282826127dc565b91505060208301516135776020860182612815565b506040830151848203604086015261358f82826127dc565b915050606083015184820360608601526135a98282612d44565b91505060808301516135be6080860182612815565b5060a08301516135d160a0860182612815565b5060c083015184820360c08601526135e982826127dc565b9150508091505092915050565b600060808201905061360b6000830187612fb9565b818103602083015261361d8186613376565b905061362c60408301856132d8565b818103606083015261363e8184613545565b905095945050505050565b7f4e487b7100000000000000000000000000000000000000000000000000000000600052601160045260246000fd5b60006136838261244f565b91507fffffffffffffffffffffffffffffffffffffffffffffffffffffffffffffffff82036136b5576136b4613649565b5b600182019050919050565b600067ffffffffffffffff8211156136db576136da611fa9565b5b602082029050602081019050919050565b6000815190506136fb81611eec565b92915050565b600061371461370f84612033565b612009565b9050828152602081018484840111156137305761372f61202e565b5b61373b8482856127b2565b509392505050565b600082601f83011261375857613757612029565b5b8151613768848260208601613701565b91505092915050565b60008151905061378081612459565b92915050565b60006060828403121561379c5761379b611f93565b5b6137a66060612009565b905060006137b6848285016136ec565b600083015250602082015167ffffffffffffffff8111156137da576137d9612024565b5b6137e684828501613743565b60208301525060406137fa84828501613771565b60408301525092915050565b6000613819613814846136c0565b612009565b9050808382526020820190506020840283018581111561383c5761383b6124b1565b5b835b8181101561388357805167ffffffffffffffff81111561386157613860612029565b5b80860161386e8982613786565b8552602085019450505060208101905061383e565b5050509392505050565b600082601f8301126138a2576138a1612029565b5b81516138b2848260208601613806565b91505092915050565b6000602082840312156138d1576138d0611eb0565b5b600082015167ffffffffffffffff8111156138ef576138ee611eb5565b5b6138fb8482850161388d565b91505092915050565b600082825260208201905092915050565b7f436f6d6d656e7420636f6e74656e742063616e6e6f7420626520656d70747900600082015250565b600061394b601f83613904565b915061395682613915565b602082019050919050565b6000602082019050818103600083015261397a8161393e565b9050919050565b600061398c82612796565b6139968185613904565b93506139a68185602086016127b2565b6139af81611f98565b840191505092915050565b60006040820190506139cf6000830185612a3a565b81810360208301526139e18184613981565b90509392505050565b60006040820190506139ff6000830185612a3a565b613a0c6020830184612a3a565b9392505050565b600060208284031215613a2957613a28611eb0565b5b600082015167ffffffffffffffff811115613a4757613a46611eb5565b5b613a5384828501613786565b91505092915050565b600060208284031215613a7257613a71611eb0565b5b6000613a8084828501613771565b91505092915050565b600067ffffffffffffffff821115613aa457613aa3611fa9565b5b602082029050602081019050919050565b600081519050613ac4816120ef565b92915050565b60006102208284031215613ae157613ae0611f93565b5b613aec610220612009565b9050600082015167ffffffffffffffff811115613b0c57613b0b612024565b5b613b1884828501613743565b600083015250602082015167ffffffffffffffff811115613b3c57613b3b612024565b5b613b4884828501613743565b602083015250604082015167ffffffffffffffff811115613b6c57613b6b612024565b5b613b7884828501613743565b604083015250606082015167ffffffffffffffff811115613b9c57613b9b612024565b5b613ba884828501613743565b606083015250608082015167ffffffffffffffff811115613bcc57613bcb612024565b5b613bd884828501613743565b60808301525060a0613bec84828501613ab5565b60a08301525060c082015167ffffffffffffffff811115613c1057613c0f612024565b5b613c1c84828501613743565b60c08301525060e082015167ffffffffffffffff811115613c4057613c3f612024565b5b613c4c84828501613743565b60e08301525061010082015167ffffffffffffffff811115613c7157613c70612024565b5b613c7d84828501613743565b6101008301525061012082015167ffffffffffffffff811115613ca357613ca2612024565b5b613caf84828501613743565b61012083015250610140613cc584828501613ab5565b6101408301525061016082015167ffffffffffffffff811115613ceb57613cea612024565b5b613cf784828501613743565b6101608301525061018082015167ffffffffffffffff811115613d1d57613d1c612024565b5b613d2984828501613743565b610180830152506101a082015167ffffffffffffffff811115613d4f57613d4e612024565b5b613d5b84828501613743565b6101a0830152506101c082015167ffffffffffffffff811115613d8157613d80612024565b5b613d8d84828501613743565b6101c0830152506101e082015167ffffffffffffffff811115613db357613db2612024565b5b613dbf84828501613743565b6101e08301525061020082015167ffffffffffffffff811115613de557613de4612024565b5b613df184828501613743565b6102008301525092915050565b600060c08284031215613e1457613e13611f93565b5b613e1e60c0612009565b90506000613e2e84828501613771565b6000830152506020613e42848285016136ec565b602083015250604082015167ffffffffffffffff811115613e6657613e65612024565b5b613e7284828501613aca565b6040830152506060613e8684828501613771565b6060830152506080613e9a84828501613ab5565b60808301525060a0613eae84828501613771565b60a08301525092915050565b6000613ecd613ec884612485565b612009565b90508083825260208201905060208402830185811115613ef057613eef6124b1565b5b835b81811015613f3757805167ffffffffffffffff811115613f1557613f14612029565b5b808601613f228982613743565b85526020850194505050602081019050613ef2565b5050509392505050565b600082601f830112613f5657613f55612029565b5b8151613f66848260208601613eba565b91505092915050565b600060e08284031215613f8557613f84611f93565b5b613f8f60e0612009565b9050600082015167ffffffffffffffff811115613faf57613fae612024565b5b613fbb84828501613743565b6000830152506020613fcf84828501613771565b602083015250604082015167ffffffffffffffff811115613ff357613ff2612024565b5b613fff84828501613743565b604083015250606082015167ffffffffffffffff81111561402357614022612024565b5b61402f84828501613f41565b606083015250608061404384828501613771565b60808301525060a061405784828501613771565b60a08301525060c082015167ffffffffffffffff81111561407b5761407a612024565b5b61408784828501613743565b60c08301525092915050565b6000606082840312156140a9576140a8611f93565b5b6140b36060612009565b9050600082015167ffffffffffffffff8111156140d3576140d2612024565b5b6140df84828501613dfe565b600083015250602082015167ffffffffffffffff81111561410357614102612024565b5b61410f84828501613f6f565b602083015250604061412384828501613ab5565b60408301525092915050565b600061414261413d84613a89565b612009565b90508083825260208201905060208402830185811115614165576141646124b1565b5b835b818110156141ac57805167ffffffffffffffff81111561418a57614189612029565b5b8086016141978982614093565b85526020850194505050602081019050614167565b5050509392505050565b600082601f8301126141cb576141ca612029565b5b81516141db84826020860161412f565b91505092915050565b6000602082840312156141fa576141f9611eb0565b5b600082015167ffffffffffffffff81111561421857614217611eb5565b5b614224848285016141b6565b91505092915050565b60006040820190506142426000830185612a3a565b61424f6020830184612fb9565b9392505050565b60006020828403121561426c5761426b611eb0565b5b600082015167ffffffffffffffff81111561428a57614289611eb5565b5b61429684828501614093565b91505092915050565b600067ffffffffffffffff8211156142ba576142b9611fa9565b5b602082029050602081019050919050565b6000608082840312156142e1576142e0611f93565b5b6142eb6080612009565b905060006142fb848285016136ec565b600083015250602082015167ffffffffffffffff81111561431f5761431e612024565b5b61432b84828501613743565b602083015250604061433f84828501613771565b604083015250606061435384828501613771565b60608301525092915050565b600061437261436d8461429f565b612009565b90508083825260208201905060208402830185811115614395576143946124b1565b5b835b818110156143dc57805167ffffffffffffffff8111156143ba576143b9612029565b5b8086016143c789826142cb565b85526020850194505050602081019050614397565b5050509392505050565b600082601f8301126143fb576143fa612029565b5b815161440b84826020860161435f565b91505092915050565b60006020828403121561442a57614429611eb0565b5b600082015167ffffffffffffffff81111561444857614447611eb5565b5b614454848285016143e6565b91505092915050565b7f52657669657720646f6573206e6f742065786973740000000000000000000000600082015250565b6000614493601583613904565b915061449e8261445d565b602082019050919050565b600060208201905081810360008301526144c281614486565b9050919050565b6000602082840312156144df576144de611eb0565b5b60006144ed848285016136ec565b91505092915050565b7f52657669657720636f6e74656e742063616e6e6f7420626520656d7074790000600082015250565b600061452c601e83613904565b9150614537826144f6565b602082019050919050565b6000602082019050818103600083015261455b8161451f565b9050919050565b7f526174696e67206d757374206265206265747765656e203120616e6420350000600082015250565b6000614598601e83613904565b91506145a382614562565b602082019050919050565b600060208201905081810360008301526145c78161458b565b9050919050565b60006080820190506145e36000830187612fb9565b6145f06020830186612a3a565b81810360408301526146028185613981565b90506146116060830184612a3a565b95945050505050565b6000602082840312156146305761462f611eb0565b5b600082015167ffffffffffffffff81111561464e5761464d611eb5565b5b61465a848285016142cb565b91505092915050565b60006020828403121561467957614678611eb0565b5b600061468784828501613ab5565b9150509291505056fea2646970667358221220344c3b67e0b53926e0ea56e993e8a2fd0bc111d207c1dfc4b9f0228ed33541dd64736f6c63430008180033",
  "linkReferences": {},
  "deployedLinkReferences": {}
}