{
  "_format": "hh-sol-artifact-1",
  "contractName": "ProductFindr",
  "sourceName": "contracts/ProductFindr.sol",
  "abi": [
    {
      "inputs": [
        {
          "internalType": "address",
          "name": "_productAddress",
          "type": "address"
        },
        {
          "internalType": "address",
          "name": "_commentAddress",
          "type": "address"
        },
        {
          "internalType": "address",
          "name": "_reviewAddress",
          "type": "address"
        },
        {
          "internalType": "address",
          "name": "_betaTestingManagerAddress",
          "type": "address"
        },
        {
          "internalType": "address",
          "name": "initialOwner",
          "type": "address"
        }
      ],
      "stateMutability": "nonpayable",
      "type": "constructor"
    },
    {
      "inputs": [
        {
          "internalType": "address",
          "name": "owner",
          "type": "address"
        }
      ],
      "name": "OwnableInvalidOwner",
      "type": "error"
    },
    {
      "inputs": [
        {
          "internalType": "address",
          "name": "account",
          "type": "address"
        }
      ],
      "name": "OwnableUnauthorizedAccount",
      "type": "error"
    },
    {
      "anonymous": false,
      "inputs": [
        {
          "indexed": true,
          "internalType": "address",
          "name": "previousOwner",
          "type": "address"
        },
        {
          "indexed": true,
          "internalType": "address",
          "name": "newOwner",
          "type": "address"
        }
      ],
      "name": "OwnershipTransferred",
      "type": "event"
    },
    {
      "anonymous": false,
      "inputs": [
        {
          "indexed": true,
          "internalType": "address",
          "name": "user",
          "type": "address"
        },
        {
          "indexed": false,
          "internalType": "uint256",
          "name": "reputation",
          "type": "uint256"
        }
      ],
      "name": "UserReputationUpdated",
      "type": "event"
    },
    {
      "inputs": [
        {
          "internalType": "address",
          "name": "_reviewer",
          "type": "address"
        },
        {
          "internalType": "uint256",
          "name": "_productId",
          "type": "uint256"
        },
        {
          "internalType": "string",
          "name": "_content",
          "type": "string"
        },
        {
          "internalType": "uint256",
          "name": "_rating",
          "type": "uint256"
        }
      ],
      "name": "addReview",
      "outputs": [],
      "stateMutability": "nonpayable",
      "type": "function"
    },
    {
      "inputs": [
        {
          "internalType": "uint256",
          "name": "_productId",
          "type": "uint256"
        },
        {
          "internalType": "string",
          "name": "_content",
          "type": "string"
        }
      ],
      "name": "commentOnProduct",
      "outputs": [],
      "stateMutability": "nonpayable",
      "type": "function"
    },
    {
      "inputs": [
        {
          "internalType": "uint256",
          "name": "_productId",
          "type": "uint256"
        },
        {
          "internalType": "uint256",
          "name": "_commentId",
          "type": "uint256"
        }
      ],
      "name": "getComment",
      "outputs": [
        {
          "components": [
            {
              "internalType": "address",
              "name": "commenter",
              "type": "address"
            },
            {
              "internalType": "string",
              "name": "content",
              "type": "string"
            },
            {
              "internalType": "uint256",
              "name": "timestamp",
              "type": "uint256"
            }
          ],
          "internalType": "struct Comment.CommentInfo",
          "name": "",
          "type": "tuple"
        }
      ],
      "stateMutability": "view",
      "type": "function"
    },
    {
      "inputs": [
        {
          "internalType": "uint256",
          "name": "_productId",
          "type": "uint256"
        },
        {
          "internalType": "uint256",
          "name": "_commentId",
          "type": "uint256"
        }
      ],
      "name": "getCommenter",
      "outputs": [
        {
          "internalType": "address",
          "name": "",
          "type": "address"
        }
      ],
      "stateMutability": "view",
      "type": "function"
    },
    {
      "inputs": [
        {
          "internalType": "uint256",
          "name": "_productId",
          "type": "uint256"
        }
      ],
      "name": "getComments",
      "outputs": [
        {
          "components": [
            {
              "internalType": "address",
              "name": "commenter",
              "type": "address"
            },
            {
              "internalType": "string",
              "name": "content",
              "type": "string"
            },
            {
              "internalType": "uint256",
              "name": "timestamp",
              "type": "uint256"
            }
          ],
          "internalType": "struct Comment.CommentInfo[]",
          "name": "",
          "type": "tuple[]"
        }
      ],
      "stateMutability": "view",
      "type": "function"
    },
    {
      "inputs": [
        {
          "internalType": "uint256",
          "name": "_productId",
          "type": "uint256"
        }
      ],
      "name": "getCommentsCount",
      "outputs": [
        {
          "internalType": "uint256",
          "name": "",
          "type": "uint256"
        }
      ],
      "stateMutability": "view",
      "type": "function"
    },
    {
      "inputs": [],
      "name": "getListedProducts",
      "outputs": [
        {
          "components": [
            {
              "internalType": "uint256",
              "name": "id",
              "type": "uint256"
            },
            {
              "internalType": "address",
              "name": "owner",
              "type": "address"
            },
            {
              "components": [
                {
                  "internalType": "string",
                  "name": "productName",
                  "type": "string"
                },
                {
                  "internalType": "string",
                  "name": "tagLine",
                  "type": "string"
                },
                {
                  "internalType": "string",
                  "name": "productLink",
                  "type": "string"
                },
                {
                  "internalType": "string",
                  "name": "twitterLink",
                  "type": "string"
                },
                {
                  "internalType": "string",
                  "name": "description",
                  "type": "string"
                },
                {
                  "internalType": "bool",
                  "name": "isOpenSource",
                  "type": "bool"
                },
                {
                  "internalType": "string",
                  "name": "category",
                  "type": "string"
                },
                {
                  "internalType": "string",
                  "name": "thumbNail",
                  "type": "string"
                },
                {
                  "internalType": "string",
                  "name": "mediaFile",
                  "type": "string"
                },
                {
                  "internalType": "string",
                  "name": "loomLink",
                  "type": "string"
                },
                {
                  "internalType": "bool",
                  "name": "workedWithTeam",
                  "type": "bool"
                },
                {
                  "internalType": "string",
                  "name": "teamMembersInput",
                  "type": "string"
                },
                {
                  "internalType": "string",
                  "name": "pricingOption",
                  "type": "string"
                },
                {
                  "internalType": "string",
                  "name": "offer",
                  "type": "string"
                },
                {
                  "internalType": "string",
                  "name": "promoCode",
                  "type": "string"
                },
                {
                  "internalType": "string",
                  "name": "expirationDate",
                  "type": "string"
                },
                {
                  "internalType": "string",
                  "name": "betaTestingLink",
                  "type": "string"
                }
              ],
              "internalType": "struct Product.ProductDetails",
              "name": "details",
              "type": "tuple"
            },
            {
              "internalType": "uint256",
              "name": "upvotes",
              "type": "uint256"
            },
            {
              "internalType": "bool",
              "name": "betaTestingAvailable",
              "type": "bool"
            },
            {
              "internalType": "uint256",
              "name": "timestamp",
              "type": "uint256"
            }
          ],
          "internalType": "struct Product.ProductInfo[]",
          "name": "",
          "type": "tuple[]"
        }
      ],
      "stateMutability": "view",
      "type": "function"
    },
    {
      "inputs": [],
      "name": "getListedProductsAvailable",
      "outputs": [
        {
          "components": [
            {
              "internalType": "uint256",
              "name": "id",
              "type": "uint256"
            },
            {
              "internalType": "address",
              "name": "owner",
              "type": "address"
            },
            {
              "components": [
                {
                  "internalType": "string",
                  "name": "productName",
                  "type": "string"
                },
                {
                  "internalType": "string",
                  "name": "tagLine",
                  "type": "string"
                },
                {
                  "internalType": "string",
                  "name": "productLink",
                  "type": "string"
                },
                {
                  "internalType": "string",
                  "name": "twitterLink",
                  "type": "string"
                },
                {
                  "internalType": "string",
                  "name": "description",
                  "type": "string"
                },
                {
                  "internalType": "bool",
                  "name": "isOpenSource",
                  "type": "bool"
                },
                {
                  "internalType": "string",
                  "name": "category",
                  "type": "string"
                },
                {
                  "internalType": "string",
                  "name": "thumbNail",
                  "type": "string"
                },
                {
                  "internalType": "string",
                  "name": "mediaFile",
                  "type": "string"
                },
                {
                  "internalType": "string",
                  "name": "loomLink",
                  "type": "string"
                },
                {
                  "internalType": "bool",
                  "name": "workedWithTeam",
                  "type": "bool"
                },
                {
                  "internalType": "string",
                  "name": "teamMembersInput",
                  "type": "string"
                },
                {
                  "internalType": "string",
                  "name": "pricingOption",
                  "type": "string"
                },
                {
                  "internalType": "string",
                  "name": "offer",
                  "type": "string"
                },
                {
                  "internalType": "string",
                  "name": "promoCode",
                  "type": "string"
                },
                {
                  "internalType": "string",
                  "name": "expirationDate",
                  "type": "string"
                },
                {
                  "internalType": "string",
                  "name": "betaTestingLink",
                  "type": "string"
                }
              ],
              "internalType": "struct Product.ProductDetails",
              "name": "details",
              "type": "tuple"
            },
            {
              "internalType": "uint256",
              "name": "upvotes",
              "type": "uint256"
            },
            {
              "internalType": "bool",
              "name": "betaTestingAvailable",
              "type": "bool"
            },
            {
              "internalType": "uint256",
              "name": "timestamp",
              "type": "uint256"
            }
          ],
          "internalType": "struct Product.ProductInfo[]",
          "name": "",
          "type": "tuple[]"
        }
      ],
      "stateMutability": "view",
      "type": "function"
    },
    {
      "inputs": [
        {
          "internalType": "uint256",
          "name": "_productId",
          "type": "uint256"
        }
      ],
      "name": "getProduct",
      "outputs": [
        {
          "components": [
            {
              "internalType": "uint256",
              "name": "id",
              "type": "uint256"
            },
            {
              "internalType": "address",
              "name": "owner",
              "type": "address"
            },
            {
              "components": [
                {
                  "internalType": "string",
                  "name": "productName",
                  "type": "string"
                },
                {
                  "internalType": "string",
                  "name": "tagLine",
                  "type": "string"
                },
                {
                  "internalType": "string",
                  "name": "productLink",
                  "type": "string"
                },
                {
                  "internalType": "string",
                  "name": "twitterLink",
                  "type": "string"
                },
                {
                  "internalType": "string",
                  "name": "description",
                  "type": "string"
                },
                {
                  "internalType": "bool",
                  "name": "isOpenSource",
                  "type": "bool"
                },
                {
                  "internalType": "string",
                  "name": "category",
                  "type": "string"
                },
                {
                  "internalType": "string",
                  "name": "thumbNail",
                  "type": "string"
                },
                {
                  "internalType": "string",
                  "name": "mediaFile",
                  "type": "string"
                },
                {
                  "internalType": "string",
                  "name": "loomLink",
                  "type": "string"
                },
                {
                  "internalType": "bool",
                  "name": "workedWithTeam",
                  "type": "bool"
                },
                {
                  "internalType": "string",
                  "name": "teamMembersInput",
                  "type": "string"
                },
                {
                  "internalType": "string",
                  "name": "pricingOption",
                  "type": "string"
                },
                {
                  "internalType": "string",
                  "name": "offer",
                  "type": "string"
                },
                {
                  "internalType": "string",
                  "name": "promoCode",
                  "type": "string"
                },
                {
                  "internalType": "string",
                  "name": "expirationDate",
                  "type": "string"
                },
                {
                  "internalType": "string",
                  "name": "betaTestingLink",
                  "type": "string"
                }
              ],
              "internalType": "struct Product.ProductDetails",
              "name": "details",
              "type": "tuple"
            },
            {
              "internalType": "uint256",
              "name": "upvotes",
              "type": "uint256"
            },
            {
              "internalType": "bool",
              "name": "betaTestingAvailable",
              "type": "bool"
            },
            {
              "internalType": "uint256",
              "name": "timestamp",
              "type": "uint256"
            }
          ],
          "internalType": "struct Product.ProductInfo",
          "name": "",
          "type": "tuple"
        }
      ],
      "stateMutability": "view",
      "type": "function"
    },
    {
      "inputs": [
        {
          "internalType": "uint256",
          "name": "_productId",
          "type": "uint256"
        },
        {
          "internalType": "uint256",
          "name": "_reviewId",
          "type": "uint256"
        }
      ],
      "name": "getReview",
      "outputs": [
        {
          "components": [
            {
              "internalType": "address",
              "name": "reviewer",
              "type": "address"
            },
            {
              "internalType": "string",
              "name": "content",
              "type": "string"
            },
            {
              "internalType": "uint256",
              "name": "rating",
              "type": "uint256"
            },
            {
              "internalType": "uint256",
              "name": "timestamp",
              "type": "uint256"
            }
          ],
          "internalType": "struct Review.ReviewInfo",
          "name": "",
          "type": "tuple"
        }
      ],
      "stateMutability": "view",
      "type": "function"
    },
    {
      "inputs": [
        {
          "internalType": "uint256",
          "name": "_productId",
          "type": "uint256"
        },
        {
          "internalType": "uint256",
          "name": "_reviewId",
          "type": "uint256"
        }
      ],
      "name": "getReviewer",
      "outputs": [
        {
          "internalType": "address",
          "name": "",
          "type": "address"
        }
      ],
      "stateMutability": "view",
      "type": "function"
    },
    {
      "inputs": [
        {
          "internalType": "uint256",
          "name": "_productId",
          "type": "uint256"
        }
      ],
      "name": "getReviews",
      "outputs": [
        {
          "components": [
            {
              "internalType": "address",
              "name": "reviewer",
              "type": "address"
            },
            {
              "internalType": "string",
              "name": "content",
              "type": "string"
            },
            {
              "internalType": "uint256",
              "name": "rating",
              "type": "uint256"
            },
            {
              "internalType": "uint256",
              "name": "timestamp",
              "type": "uint256"
            }
          ],
          "internalType": "struct Review.ReviewInfo[]",
          "name": "",
          "type": "tuple[]"
        }
      ],
      "stateMutability": "view",
      "type": "function"
    },
    {
      "inputs": [
        {
          "internalType": "uint256",
          "name": "_productId",
          "type": "uint256"
        }
      ],
      "name": "getReviewsCount",
      "outputs": [
        {
          "internalType": "uint256",
          "name": "",
          "type": "uint256"
        }
      ],
      "stateMutability": "view",
      "type": "function"
    },
    {
      "inputs": [],
      "name": "owner",
      "outputs": [
        {
          "internalType": "address",
          "name": "",
          "type": "address"
        }
      ],
      "stateMutability": "view",
      "type": "function"
    },
    {
      "inputs": [
        {
          "internalType": "address",
          "name": "_owner",
          "type": "address"
        },
        {
          "components": [
            {
              "internalType": "string",
              "name": "productName",
              "type": "string"
            },
            {
              "internalType": "string",
              "name": "tagLine",
              "type": "string"
            },
            {
              "internalType": "string",
              "name": "productLink",
              "type": "string"
            },
            {
              "internalType": "string",
              "name": "twitterLink",
              "type": "string"
            },
            {
              "internalType": "string",
              "name": "description",
              "type": "string"
            },
            {
              "internalType": "bool",
              "name": "isOpenSource",
              "type": "bool"
            },
            {
              "internalType": "string",
              "name": "category",
              "type": "string"
            },
            {
              "internalType": "string",
              "name": "thumbNail",
              "type": "string"
            },
            {
              "internalType": "string",
              "name": "mediaFile",
              "type": "string"
            },
            {
              "internalType": "string",
              "name": "loomLink",
              "type": "string"
            },
            {
              "internalType": "bool",
              "name": "workedWithTeam",
              "type": "bool"
            },
            {
              "internalType": "string",
              "name": "teamMembersInput",
              "type": "string"
            },
            {
              "internalType": "string",
              "name": "pricingOption",
              "type": "string"
            },
            {
              "internalType": "string",
              "name": "offer",
              "type": "string"
            },
            {
              "internalType": "string",
              "name": "promoCode",
              "type": "string"
            },
            {
              "internalType": "string",
              "name": "expirationDate",
              "type": "string"
            },
            {
              "internalType": "string",
              "name": "betaTestingLink",
              "type": "string"
            }
          ],
          "internalType": "struct Product.ProductDetails",
          "name": "details",
          "type": "tuple"
        },
        {
          "internalType": "bool",
          "name": "betaTestingAvailable",
          "type": "bool"
        },
        {
          "components": [
            {
              "internalType": "string",
              "name": "contractAddress",
              "type": "string"
            },
            {
              "internalType": "uint256",
              "name": "targetNumbersOfTester",
              "type": "uint256"
            },
            {
              "internalType": "string",
              "name": "testingGoal",
              "type": "string"
            },
            {
              "internalType": "string[]",
              "name": "goals",
              "type": "string[]"
            },
            {
              "internalType": "uint256",
              "name": "startingDate",
              "type": "uint256"
            },
            {
              "internalType": "uint256",
              "name": "endingDate",
              "type": "uint256"
            },
            {
              "internalType": "string",
              "name": "featureLoomLink",
              "type": "string"
            }
          ],
          "internalType": "struct BetaTestingDetailsManager.BetaTestingDetails",
          "name": "betaDetails",
          "type": "tuple"
        }
      ],
      "name": "registerProduct",
      "outputs": [],
      "stateMutability": "nonpayable",
      "type": "function"
    },
    {
      "inputs": [],
      "name": "renounceOwnership",
      "outputs": [],
      "stateMutability": "nonpayable",
      "type": "function"
    },
    {
      "inputs": [
        {
          "internalType": "address",
          "name": "newOwner",
          "type": "address"
        }
      ],
      "name": "transferOwnership",
      "outputs": [],
      "stateMutability": "nonpayable",
      "type": "function"
    },
    {
      "inputs": [
        {
          "internalType": "uint256",
          "name": "_productId",
          "type": "uint256"
        },
        {
          "internalType": "address",
          "name": "_upvoter",
          "type": "address"
        }
      ],
      "name": "upvoteProduct",
      "outputs": [],
      "stateMutability": "nonpayable",
      "type": "function"
    },
    {
      "inputs": [
        {
          "internalType": "address",
          "name": "",
          "type": "address"
        }
      ],
      "name": "userReputation",
      "outputs": [
        {
          "internalType": "uint256",
          "name": "",
          "type": "uint256"
        }
      ],
      "stateMutability": "view",
      "type": "function"
    }
  ],
  "bytecode": "0x60806040523480156200001157600080fd5b5060405162003e6938038062003e698339818101604052810190620000379190620002fc565b80600073ffffffffffffffffffffffffffffffffffffffff168173ffffffffffffffffffffffffffffffffffffffff1603620000ad5760006040517f1e4fbdf7000000000000000000000000000000000000000000000000000000008152600401620000a4919062000395565b60405180910390fd5b620000be81620001ce60201b60201c565b5084600160006101000a81548173ffffffffffffffffffffffffffffffffffffffff021916908373ffffffffffffffffffffffffffffffffffffffff16021790555083600260006101000a81548173ffffffffffffffffffffffffffffffffffffffff021916908373ffffffffffffffffffffffffffffffffffffffff16021790555082600360006101000a81548173ffffffffffffffffffffffffffffffffffffffff021916908373ffffffffffffffffffffffffffffffffffffffff16021790555081600460006101000a81548173ffffffffffffffffffffffffffffffffffffffff021916908373ffffffffffffffffffffffffffffffffffffffff1602179055505050505050620003b2565b60008060009054906101000a900473ffffffffffffffffffffffffffffffffffffffff169050816000806101000a81548173ffffffffffffffffffffffffffffffffffffffff021916908373ffffffffffffffffffffffffffffffffffffffff1602179055508173ffffffffffffffffffffffffffffffffffffffff168173ffffffffffffffffffffffffffffffffffffffff167f8be0079c531659141344cd1fd0a4f28419497f9722a3daafe3b4186f6b6457e060405160405180910390a35050565b600080fd5b600073ffffffffffffffffffffffffffffffffffffffff82169050919050565b6000620002c48262000297565b9050919050565b620002d681620002b7565b8114620002e257600080fd5b50565b600081519050620002f681620002cb565b92915050565b600080600080600060a086880312156200031b576200031a62000292565b5b60006200032b88828901620002e5565b95505060206200033e88828901620002e5565b94505060406200035188828901620002e5565b93505060606200036488828901620002e5565b92505060806200037788828901620002e5565b9150509295509295909350565b6200038f81620002b7565b82525050565b6000602082019050620003ac600083018462000384565b92915050565b613aa780620003c26000396000f3fe608060405234801561001057600080fd5b50600436106101215760003560e01c806382bb560b116100ad578063dcfe3e0811610071578063dcfe3e081461032c578063dfa505ed1461035c578063e503bb051461038c578063e66f7f46146103bc578063f2fde38b146103da57610121565b806382bb560b146102625780638da5cb5b1461027e5780639d4a22551461029c578063b9db15b4146102cc578063bf4f31b0146102fc57610121565b80634c9b78da116100f45780634c9b78da146101be57806352cb26af146101ee57806363283c841461020c578063715018a6146102285780637376ccfd1461023257610121565b80632326af511461012657806323edf69714610142578063395e3f1e14610172578063488927531461018e575b600080fd5b610140600480360381019061013b9190611fbb565b6103f6565b005b61015c6004803603810190610157919061205a565b610571565b6040516101699190612236565b60405180910390f35b61018c60048036038101906101879190612258565b61061b565b005b6101a860048036038101906101a391906122b4565b610790565b6040516101b59190612344565b60405180910390f35b6101d860048036038101906101d3919061205a565b610843565b6040516101e59190612375565b60405180910390f35b6101f66108e8565b60405161020391906126b9565b60405180910390f35b610226600480360381019061022191906126db565b610985565b005b610230610ce6565b005b61024c600480360381019061024791906122b4565b610cfa565b604051610259919061272a565b60405180910390f35b61027c60048036038101906102779190612745565b610e89565b005b610286611004565b604051610293919061272a565b60405180910390f35b6102b660048036038101906102b1919061205a565b61102d565b6040516102c391906128ed565b60405180910390f35b6102e660048036038101906102e1919061205a565b6110d7565b6040516102f39190612998565b60405180910390f35b610316600480360381019061031191906122b4565b611187565b604051610323919061272a565b60405180910390f35b6103466004803603810190610341919061205a565b61122f565b6040516103539190612375565b60405180910390f35b610376600480360381019061037191906122b4565b6112d4565b6040516103839190612a1d565b60405180910390f35b6103a660048036038101906103a19190612a3f565b61146e565b6040516103b39190612375565b60405180910390f35b6103c4611486565b6040516103d191906126b9565b60405180910390f35b6103f460048036038101906103ef9190612a3f565b611523565b005b600160009054906101000a900473ffffffffffffffffffffffffffffffffffffffff1673ffffffffffffffffffffffffffffffffffffffff16632326af51858585856040518563ffffffff1660e01b81526004016104579493929190612dbd565b600060405180830381600087803b15801561047157600080fd5b505af1158015610485573d6000803e3d6000fd5b50505050600560003373ffffffffffffffffffffffffffffffffffffffff1673ffffffffffffffffffffffffffffffffffffffff16815260200190815260200160002060008154809291906104d990612e3f565b91905055503373ffffffffffffffffffffffffffffffffffffffff167f2ed0252b8901e5ebb800f47a9b16756f232137a30e26b272dae6b2a2baf4e002600560003373ffffffffffffffffffffffffffffffffffffffff1673ffffffffffffffffffffffffffffffffffffffff168152602001908152602001600020546040516105639190612375565b60405180910390a250505050565b6060600260009054906101000a900473ffffffffffffffffffffffffffffffffffffffff1673ffffffffffffffffffffffffffffffffffffffff166323edf697836040518263ffffffff1660e01b81526004016105ce9190612375565b600060405180830381865afa1580156105eb573d6000803e3d6000fd5b505050506040513d6000823e3d601f19601f820116820180604052508101906106149190613082565b9050919050565b600260009054906101000a900473ffffffffffffffffffffffffffffffffffffffff1673ffffffffffffffffffffffffffffffffffffffff1663395e3f1e83836040518363ffffffff1660e01b8152600401610678929190613115565b600060405180830381600087803b15801561069257600080fd5b505af11580156106a6573d6000803e3d6000fd5b50505050600560003373ffffffffffffffffffffffffffffffffffffffff1673ffffffffffffffffffffffffffffffffffffffff16815260200190815260200160002060008154809291906106fa90612e3f565b91905055503373ffffffffffffffffffffffffffffffffffffffff167f2ed0252b8901e5ebb800f47a9b16756f232137a30e26b272dae6b2a2baf4e002600560003373ffffffffffffffffffffffffffffffffffffffff1673ffffffffffffffffffffffffffffffffffffffff168152602001908152602001600020546040516107849190612375565b60405180910390a25050565b6107986116fc565b600260009054906101000a900473ffffffffffffffffffffffffffffffffffffffff1673ffffffffffffffffffffffffffffffffffffffff16634889275384846040518363ffffffff1660e01b81526004016107f5929190613145565b600060405180830381865afa158015610812573d6000803e3d6000fd5b505050506040513d6000823e3d601f19601f8201168201806040525081019061083b919061316e565b905092915050565b6000600260009054906101000a900473ffffffffffffffffffffffffffffffffffffffff1673ffffffffffffffffffffffffffffffffffffffff16634c9b78da836040518263ffffffff1660e01b81526004016108a09190612375565b602060405180830381865afa1580156108bd573d6000803e3d6000fd5b505050506040513d601f19601f820116820180604052508101906108e191906131b7565b9050919050565b6060600160009054906101000a900473ffffffffffffffffffffffffffffffffffffffff1673ffffffffffffffffffffffffffffffffffffffff166352cb26af6040518163ffffffff1660e01b8152600401600060405180830381865afa158015610957573d6000803e3d6000fd5b505050506040513d6000823e3d601f19601f8201168201806040525081019061098091906136ca565b905090565b600160009054906101000a900473ffffffffffffffffffffffffffffffffffffffff1673ffffffffffffffffffffffffffffffffffffffff166363283c8483836040518363ffffffff1660e01b81526004016109e2929190613713565b600060405180830381600087803b1580156109fc57600080fd5b505af1158015610a10573d6000803e3d6000fd5b5050505060056000600160009054906101000a900473ffffffffffffffffffffffffffffffffffffffff1673ffffffffffffffffffffffffffffffffffffffff1663b9db15b4856040518263ffffffff1660e01b8152600401610a739190612375565b600060405180830381865afa158015610a90573d6000803e3d6000fd5b505050506040513d6000823e3d601f19601f82011682018060405250810190610ab9919061373c565b6020015173ffffffffffffffffffffffffffffffffffffffff1673ffffffffffffffffffffffffffffffffffffffff1681526020019081526020016000206000815480929190610b0890612e3f565b9190505550600160009054906101000a900473ffffffffffffffffffffffffffffffffffffffff1673ffffffffffffffffffffffffffffffffffffffff1663b9db15b4836040518263ffffffff1660e01b8152600401610b689190612375565b600060405180830381865afa158015610b85573d6000803e3d6000fd5b505050506040513d6000823e3d601f19601f82011682018060405250810190610bae919061373c565b6020015173ffffffffffffffffffffffffffffffffffffffff167f2ed0252b8901e5ebb800f47a9b16756f232137a30e26b272dae6b2a2baf4e00260056000600160009054906101000a900473ffffffffffffffffffffffffffffffffffffffff1673ffffffffffffffffffffffffffffffffffffffff1663b9db15b4876040518263ffffffff1660e01b8152600401610c489190612375565b600060405180830381865afa158015610c65573d6000803e3d6000fd5b505050506040513d6000823e3d601f19601f82011682018060405250810190610c8e919061373c565b6020015173ffffffffffffffffffffffffffffffffffffffff1673ffffffffffffffffffffffffffffffffffffffff16815260200190815260200160002054604051610cda9190612375565b60405180910390a25050565b610cee6115a9565b610cf86000611630565b565b60008282600360009054906101000a900473ffffffffffffffffffffffffffffffffffffffff1673ffffffffffffffffffffffffffffffffffffffff16639d4a2255836040518263ffffffff1660e01b8152600401610d599190612375565b600060405180830381865afa158015610d76573d6000803e3d6000fd5b505050506040513d6000823e3d601f19601f82011682018060405250810190610d9f91906138fa565b518110610de1576040517f08c379a0000000000000000000000000000000000000000000000000000000008152600401610dd89061398f565b60405180910390fd5b600360009054906101000a900473ffffffffffffffffffffffffffffffffffffffff1673ffffffffffffffffffffffffffffffffffffffff16637376ccfd86866040518363ffffffff1660e01b8152600401610e3e929190613145565b602060405180830381865afa158015610e5b573d6000803e3d6000fd5b505050506040513d601f19601f82011682018060405250810190610e7f91906139af565b9250505092915050565b600360009054906101000a900473ffffffffffffffffffffffffffffffffffffffff1673ffffffffffffffffffffffffffffffffffffffff166382bb560b858585856040518563ffffffff1660e01b8152600401610eea94939291906139dc565b600060405180830381600087803b158015610f0457600080fd5b505af1158015610f18573d6000803e3d6000fd5b50505050600560003373ffffffffffffffffffffffffffffffffffffffff1673ffffffffffffffffffffffffffffffffffffffff1681526020019081526020016000206000815480929190610f6c90612e3f565b91905055503373ffffffffffffffffffffffffffffffffffffffff167f2ed0252b8901e5ebb800f47a9b16756f232137a30e26b272dae6b2a2baf4e002600560003373ffffffffffffffffffffffffffffffffffffffff1673ffffffffffffffffffffffffffffffffffffffff16815260200190815260200160002054604051610ff69190612375565b60405180910390a250505050565b60008060009054906101000a900473ffffffffffffffffffffffffffffffffffffffff16905090565b6060600360009054906101000a900473ffffffffffffffffffffffffffffffffffffffff1673ffffffffffffffffffffffffffffffffffffffff16639d4a2255836040518263ffffffff1660e01b815260040161108a9190612375565b600060405180830381865afa1580156110a7573d6000803e3d6000fd5b505050506040513d6000823e3d601f19601f820116820180604052508101906110d091906138fa565b9050919050565b6110df611733565b600160009054906101000a900473ffffffffffffffffffffffffffffffffffffffff1673ffffffffffffffffffffffffffffffffffffffff1663b9db15b4836040518263ffffffff1660e01b815260040161113a9190612375565b600060405180830381865afa158015611157573d6000803e3d6000fd5b505050506040513d6000823e3d601f19601f82011682018060405250810190611180919061373c565b9050919050565b6000600260009054906101000a900473ffffffffffffffffffffffffffffffffffffffff1673ffffffffffffffffffffffffffffffffffffffff1663bf4f31b084846040518363ffffffff1660e01b81526004016111e6929190613145565b602060405180830381865afa158015611203573d6000803e3d6000fd5b505050506040513d601f19601f8201168201806040525081019061122791906139af565b905092915050565b6000600360009054906101000a900473ffffffffffffffffffffffffffffffffffffffff1673ffffffffffffffffffffffffffffffffffffffff1663dcfe3e08836040518263ffffffff1660e01b815260040161128c9190612375565b602060405180830381865afa1580156112a9573d6000803e3d6000fd5b505050506040513d601f19601f820116820180604052508101906112cd91906131b7565b9050919050565b6112dc611787565b8282600360009054906101000a900473ffffffffffffffffffffffffffffffffffffffff1673ffffffffffffffffffffffffffffffffffffffff16639d4a2255836040518263ffffffff1660e01b81526004016113399190612375565b600060405180830381865afa158015611356573d6000803e3d6000fd5b505050506040513d6000823e3d601f19601f8201168201806040525081019061137f91906138fa565b5181106113c1576040517f08c379a00000000000000000000000000000000000000000000000000000000081526004016113b89061398f565b60405180910390fd5b600360009054906101000a900473ffffffffffffffffffffffffffffffffffffffff1673ffffffffffffffffffffffffffffffffffffffff1663dfa505ed86866040518363ffffffff1660e01b815260040161141e929190613145565b600060405180830381865afa15801561143b573d6000803e3d6000fd5b505050506040513d6000823e3d601f19601f820116820180604052508101906114649190613a28565b9250505092915050565b60056020528060005260406000206000915090505481565b6060600160009054906101000a900473ffffffffffffffffffffffffffffffffffffffff1673ffffffffffffffffffffffffffffffffffffffff1663e66f7f466040518163ffffffff1660e01b8152600401600060405180830381865afa1580156114f5573d6000803e3d6000fd5b505050506040513d6000823e3d601f19601f8201168201806040525081019061151e91906136ca565b905090565b61152b6115a9565b600073ffffffffffffffffffffffffffffffffffffffff168173ffffffffffffffffffffffffffffffffffffffff160361159d5760006040517f1e4fbdf7000000000000000000000000000000000000000000000000000000008152600401611594919061272a565b60405180910390fd5b6115a681611630565b50565b6115b16116f4565b73ffffffffffffffffffffffffffffffffffffffff166115cf611004565b73ffffffffffffffffffffffffffffffffffffffff161461162e576115f26116f4565b6040517f118cdaa7000000000000000000000000000000000000000000000000000000008152600401611625919061272a565b60405180910390fd5b565b60008060009054906101000a900473ffffffffffffffffffffffffffffffffffffffff169050816000806101000a81548173ffffffffffffffffffffffffffffffffffffffff021916908373ffffffffffffffffffffffffffffffffffffffff1602179055508173ffffffffffffffffffffffffffffffffffffffff168173ffffffffffffffffffffffffffffffffffffffff167f8be0079c531659141344cd1fd0a4f28419497f9722a3daafe3b4186f6b6457e060405160405180910390a35050565b600033905090565b6040518060600160405280600073ffffffffffffffffffffffffffffffffffffffff16815260200160608152602001600081525090565b6040518060c0016040528060008152602001600073ffffffffffffffffffffffffffffffffffffffff16815260200161176a6117c5565b815260200160008152602001600015158152602001600081525090565b6040518060800160405280600073ffffffffffffffffffffffffffffffffffffffff1681526020016060815260200160008152602001600081525090565b6040518061022001604052806060815260200160608152602001606081526020016060815260200160608152602001600015158152602001606081526020016060815260200160608152602001606081526020016000151581526020016060815260200160608152602001606081526020016060815260200160608152602001606081525090565b6000604051905090565b600080fd5b600080fd5b600073ffffffffffffffffffffffffffffffffffffffff82169050919050565b600061188c82611861565b9050919050565b61189c81611881565b81146118a757600080fd5b50565b6000813590506118b981611893565b92915050565b600080fd5b6000601f19601f8301169050919050565b7f4e487b7100000000000000000000000000000000000000000000000000000000600052604160045260246000fd5b61190d826118c4565b810181811067ffffffffffffffff8211171561192c5761192b6118d5565b5b80604052505050565b600061193f61184d565b905061194b8282611904565b919050565b600080fd5b600080fd5b600080fd5b600067ffffffffffffffff82111561197a576119796118d5565b5b611983826118c4565b9050602081019050919050565b82818337600083830152505050565b60006119b26119ad8461195f565b611935565b9050828152602081018484840111156119ce576119cd61195a565b5b6119d9848285611990565b509392505050565b600082601f8301126119f6576119f5611955565b5b8135611a0684826020860161199f565b91505092915050565b60008115159050919050565b611a2481611a0f565b8114611a2f57600080fd5b50565b600081359050611a4181611a1b565b92915050565b60006102208284031215611a5e57611a5d6118bf565b5b611a69610220611935565b9050600082013567ffffffffffffffff811115611a8957611a88611950565b5b611a95848285016119e1565b600083015250602082013567ffffffffffffffff811115611ab957611ab8611950565b5b611ac5848285016119e1565b602083015250604082013567ffffffffffffffff811115611ae957611ae8611950565b5b611af5848285016119e1565b604083015250606082013567ffffffffffffffff811115611b1957611b18611950565b5b611b25848285016119e1565b606083015250608082013567ffffffffffffffff811115611b4957611b48611950565b5b611b55848285016119e1565b60808301525060a0611b6984828501611a32565b60a08301525060c082013567ffffffffffffffff811115611b8d57611b8c611950565b5b611b99848285016119e1565b60c08301525060e082013567ffffffffffffffff811115611bbd57611bbc611950565b5b611bc9848285016119e1565b60e08301525061010082013567ffffffffffffffff811115611bee57611bed611950565b5b611bfa848285016119e1565b6101008301525061012082013567ffffffffffffffff811115611c2057611c1f611950565b5b611c2c848285016119e1565b61012083015250610140611c4284828501611a32565b6101408301525061016082013567ffffffffffffffff811115611c6857611c67611950565b5b611c74848285016119e1565b6101608301525061018082013567ffffffffffffffff811115611c9a57611c99611950565b5b611ca6848285016119e1565b610180830152506101a082013567ffffffffffffffff811115611ccc57611ccb611950565b5b611cd8848285016119e1565b6101a0830152506101c082013567ffffffffffffffff811115611cfe57611cfd611950565b5b611d0a848285016119e1565b6101c0830152506101e082013567ffffffffffffffff811115611d3057611d2f611950565b5b611d3c848285016119e1565b6101e08301525061020082013567ffffffffffffffff811115611d6257611d61611950565b5b611d6e848285016119e1565b6102008301525092915050565b6000819050919050565b611d8e81611d7b565b8114611d9957600080fd5b50565b600081359050611dab81611d85565b92915050565b600067ffffffffffffffff821115611dcc57611dcb6118d5565b5b602082029050602081019050919050565b600080fd5b6000611df5611df084611db1565b611935565b90508083825260208201905060208402830185811115611e1857611e17611ddd565b5b835b81811015611e5f57803567ffffffffffffffff811115611e3d57611e3c611955565b5b808601611e4a89826119e1565b85526020850194505050602081019050611e1a565b5050509392505050565b600082601f830112611e7e57611e7d611955565b5b8135611e8e848260208601611de2565b91505092915050565b600060e08284031215611ead57611eac6118bf565b5b611eb760e0611935565b9050600082013567ffffffffffffffff811115611ed757611ed6611950565b5b611ee3848285016119e1565b6000830152506020611ef784828501611d9c565b602083015250604082013567ffffffffffffffff811115611f1b57611f1a611950565b5b611f27848285016119e1565b604083015250606082013567ffffffffffffffff811115611f4b57611f4a611950565b5b611f5784828501611e69565b6060830152506080611f6b84828501611d9c565b60808301525060a0611f7f84828501611d9c565b60a08301525060c082013567ffffffffffffffff811115611fa357611fa2611950565b5b611faf848285016119e1565b60c08301525092915050565b60008060008060808587031215611fd557611fd4611857565b5b6000611fe3878288016118aa565b945050602085013567ffffffffffffffff8111156120045761200361185c565b5b61201087828801611a47565b935050604061202187828801611a32565b925050606085013567ffffffffffffffff8111156120425761204161185c565b5b61204e87828801611e97565b91505092959194509250565b6000602082840312156120705761206f611857565b5b600061207e84828501611d9c565b91505092915050565b600081519050919050565b600082825260208201905092915050565b6000819050602082019050919050565b6120bc81611881565b82525050565b600081519050919050565b600082825260208201905092915050565b60005b838110156120fc5780820151818401526020810190506120e1565b60008484015250505050565b6000612113826120c2565b61211d81856120cd565b935061212d8185602086016120de565b612136816118c4565b840191505092915050565b61214a81611d7b565b82525050565b600060608301600083015161216860008601826120b3565b50602083015184820360208601526121808282612108565b91505060408301516121956040860182612141565b508091505092915050565b60006121ac8383612150565b905092915050565b6000602082019050919050565b60006121cc82612087565b6121d68185612092565b9350836020820285016121e8856120a3565b8060005b85811015612224578484038952815161220585826121a0565b9450612210836121b4565b925060208a019950506001810190506121ec565b50829750879550505050505092915050565b6000602082019050818103600083015261225081846121c1565b905092915050565b6000806040838503121561226f5761226e611857565b5b600061227d85828601611d9c565b925050602083013567ffffffffffffffff81111561229e5761229d61185c565b5b6122aa858286016119e1565b9150509250929050565b600080604083850312156122cb576122ca611857565b5b60006122d985828601611d9c565b92505060206122ea85828601611d9c565b9150509250929050565b600060608301600083015161230c60008601826120b3565b50602083015184820360208601526123248282612108565b91505060408301516123396040860182612141565b508091505092915050565b6000602082019050818103600083015261235e81846122f4565b905092915050565b61236f81611d7b565b82525050565b600060208201905061238a6000830184612366565b92915050565b600081519050919050565b600082825260208201905092915050565b6000819050602082019050919050565b6123c581611a0f565b82525050565b60006102208301600083015184820360008601526123e98282612108565b915050602083015184820360208601526124038282612108565b9150506040830151848203604086015261241d8282612108565b915050606083015184820360608601526124378282612108565b915050608083015184820360808601526124518282612108565b91505060a083015161246660a08601826123bc565b5060c083015184820360c086015261247e8282612108565b91505060e083015184820360e08601526124988282612108565b9150506101008301518482036101008601526124b48282612108565b9150506101208301518482036101208601526124d08282612108565b9150506101408301516124e76101408601826123bc565b506101608301518482036101608601526125018282612108565b91505061018083015184820361018086015261251d8282612108565b9150506101a08301518482036101a08601526125398282612108565b9150506101c08301518482036101c08601526125558282612108565b9150506101e08301518482036101e08601526125718282612108565b91505061020083015184820361020086015261258d8282612108565b9150508091505092915050565b600060c0830160008301516125b26000860182612141565b5060208301516125c560208601826120b3565b50604083015184820360408601526125dd82826123cb565b91505060608301516125f26060860182612141565b50608083015161260560808601826123bc565b5060a083015161261860a0860182612141565b508091505092915050565b600061262f838361259a565b905092915050565b6000602082019050919050565b600061264f82612390565b612659818561239b565b93508360208202850161266b856123ac565b8060005b858110156126a757848403895281516126888582612623565b945061269383612637565b925060208a0199505060018101905061266f565b50829750879550505050505092915050565b600060208201905081810360008301526126d38184612644565b905092915050565b600080604083850312156126f2576126f1611857565b5b600061270085828601611d9c565b9250506020612711858286016118aa565b9150509250929050565b61272481611881565b82525050565b600060208201905061273f600083018461271b565b92915050565b6000806000806080858703121561275f5761275e611857565b5b600061276d878288016118aa565b945050602061277e87828801611d9c565b935050604085013567ffffffffffffffff81111561279f5761279e61185c565b5b6127ab878288016119e1565b92505060606127bc87828801611d9c565b91505092959194509250565b600081519050919050565b600082825260208201905092915050565b6000819050602082019050919050565b600060808301600083015161280c60008601826120b3565b50602083015184820360208601526128248282612108565b91505060408301516128396040860182612141565b50606083015161284c6060860182612141565b508091505092915050565b600061286383836127f4565b905092915050565b6000602082019050919050565b6000612883826127c8565b61288d81856127d3565b93508360208202850161289f856127e4565b8060005b858110156128db57848403895281516128bc8582612857565b94506128c78361286b565b925060208a019950506001810190506128a3565b50829750879550505050505092915050565b600060208201905081810360008301526129078184612878565b905092915050565b600060c0830160008301516129276000860182612141565b50602083015161293a60208601826120b3565b506040830151848203604086015261295282826123cb565b91505060608301516129676060860182612141565b50608083015161297a60808601826123bc565b5060a083015161298d60a0860182612141565b508091505092915050565b600060208201905081810360008301526129b2818461290f565b905092915050565b60006080830160008301516129d260008601826120b3565b50602083015184820360208601526129ea8282612108565b91505060408301516129ff6040860182612141565b506060830151612a126060860182612141565b508091505092915050565b60006020820190508181036000830152612a3781846129ba565b905092915050565b600060208284031215612a5557612a54611857565b5b6000612a63848285016118aa565b91505092915050565b6000610220830160008301518482036000860152612a8a8282612108565b91505060208301518482036020860152612aa48282612108565b91505060408301518482036040860152612abe8282612108565b91505060608301518482036060860152612ad88282612108565b91505060808301518482036080860152612af28282612108565b91505060a0830151612b0760a08601826123bc565b5060c083015184820360c0860152612b1f8282612108565b91505060e083015184820360e0860152612b398282612108565b915050610100830151848203610100860152612b558282612108565b915050610120830151848203610120860152612b718282612108565b915050610140830151612b886101408601826123bc565b50610160830151848203610160860152612ba28282612108565b915050610180830151848203610180860152612bbe8282612108565b9150506101a08301518482036101a0860152612bda8282612108565b9150506101c08301518482036101c0860152612bf68282612108565b9150506101e08301518482036101e0860152612c128282612108565b915050610200830151848203610200860152612c2e8282612108565b9150508091505092915050565b612c4481611a0f565b82525050565b600081519050919050565b600082825260208201905092915050565b6000819050602082019050919050565b6000612c828383612108565b905092915050565b6000602082019050919050565b6000612ca282612c4a565b612cac8185612c55565b935083602082028501612cbe85612c66565b8060005b85811015612cfa5784840389528151612cdb8582612c76565b9450612ce683612c8a565b925060208a01995050600181019050612cc2565b50829750879550505050505092915050565b600060e0830160008301518482036000860152612d298282612108565b9150506020830151612d3e6020860182612141565b5060408301518482036040860152612d568282612108565b91505060608301518482036060860152612d708282612c97565b9150506080830151612d856080860182612141565b5060a0830151612d9860a0860182612141565b5060c083015184820360c0860152612db08282612108565b9150508091505092915050565b6000608082019050612dd2600083018761271b565b8181036020830152612de48186612a6c565b9050612df36040830185612c3b565b8181036060830152612e058184612d0c565b905095945050505050565b7f4e487b7100000000000000000000000000000000000000000000000000000000600052601160045260246000fd5b6000612e4a82611d7b565b91507fffffffffffffffffffffffffffffffffffffffffffffffffffffffffffffffff8203612e7c57612e7b612e10565b5b600182019050919050565b600067ffffffffffffffff821115612ea257612ea16118d5565b5b602082029050602081019050919050565b600081519050612ec281611893565b92915050565b6000612edb612ed68461195f565b611935565b905082815260208101848484011115612ef757612ef661195a565b5b612f028482856120de565b509392505050565b600082601f830112612f1f57612f1e611955565b5b8151612f2f848260208601612ec8565b91505092915050565b600081519050612f4781611d85565b92915050565b600060608284031215612f6357612f626118bf565b5b612f6d6060611935565b90506000612f7d84828501612eb3565b600083015250602082015167ffffffffffffffff811115612fa157612fa0611950565b5b612fad84828501612f0a565b6020830152506040612fc184828501612f38565b60408301525092915050565b6000612fe0612fdb84612e87565b611935565b9050808382526020820190506020840283018581111561300357613002611ddd565b5b835b8181101561304a57805167ffffffffffffffff81111561302857613027611955565b5b8086016130358982612f4d565b85526020850194505050602081019050613005565b5050509392505050565b600082601f83011261306957613068611955565b5b8151613079848260208601612fcd565b91505092915050565b60006020828403121561309857613097611857565b5b600082015167ffffffffffffffff8111156130b6576130b561185c565b5b6130c284828501613054565b91505092915050565b600082825260208201905092915050565b60006130e7826120c2565b6130f181856130cb565b93506131018185602086016120de565b61310a816118c4565b840191505092915050565b600060408201905061312a6000830185612366565b818103602083015261313c81846130dc565b90509392505050565b600060408201905061315a6000830185612366565b6131676020830184612366565b9392505050565b60006020828403121561318457613183611857565b5b600082015167ffffffffffffffff8111156131a2576131a161185c565b5b6131ae84828501612f4d565b91505092915050565b6000602082840312156131cd576131cc611857565b5b60006131db84828501612f38565b91505092915050565b600067ffffffffffffffff8211156131ff576131fe6118d5565b5b602082029050602081019050919050565b60008151905061321f81611a1b565b92915050565b6000610220828403121561323c5761323b6118bf565b5b613247610220611935565b9050600082015167ffffffffffffffff81111561326757613266611950565b5b61327384828501612f0a565b600083015250602082015167ffffffffffffffff81111561329757613296611950565b5b6132a384828501612f0a565b602083015250604082015167ffffffffffffffff8111156132c7576132c6611950565b5b6132d384828501612f0a565b604083015250606082015167ffffffffffffffff8111156132f7576132f6611950565b5b61330384828501612f0a565b606083015250608082015167ffffffffffffffff81111561332757613326611950565b5b61333384828501612f0a565b60808301525060a061334784828501613210565b60a08301525060c082015167ffffffffffffffff81111561336b5761336a611950565b5b61337784828501612f0a565b60c08301525060e082015167ffffffffffffffff81111561339b5761339a611950565b5b6133a784828501612f0a565b60e08301525061010082015167ffffffffffffffff8111156133cc576133cb611950565b5b6133d884828501612f0a565b6101008301525061012082015167ffffffffffffffff8111156133fe576133fd611950565b5b61340a84828501612f0a565b6101208301525061014061342084828501613210565b6101408301525061016082015167ffffffffffffffff81111561344657613445611950565b5b61345284828501612f0a565b6101608301525061018082015167ffffffffffffffff81111561347857613477611950565b5b61348484828501612f0a565b610180830152506101a082015167ffffffffffffffff8111156134aa576134a9611950565b5b6134b684828501612f0a565b6101a0830152506101c082015167ffffffffffffffff8111156134dc576134db611950565b5b6134e884828501612f0a565b6101c0830152506101e082015167ffffffffffffffff81111561350e5761350d611950565b5b61351a84828501612f0a565b6101e08301525061020082015167ffffffffffffffff8111156135405761353f611950565b5b61354c84828501612f0a565b6102008301525092915050565b600060c0828403121561356f5761356e6118bf565b5b61357960c0611935565b9050600061358984828501612f38565b600083015250602061359d84828501612eb3565b602083015250604082015167ffffffffffffffff8111156135c1576135c0611950565b5b6135cd84828501613225565b60408301525060606135e184828501612f38565b60608301525060806135f584828501613210565b60808301525060a061360984828501612f38565b60a08301525092915050565b6000613628613623846131e4565b611935565b9050808382526020820190506020840283018581111561364b5761364a611ddd565b5b835b8181101561369257805167ffffffffffffffff8111156136705761366f611955565b5b80860161367d8982613559565b8552602085019450505060208101905061364d565b5050509392505050565b600082601f8301126136b1576136b0611955565b5b81516136c1848260208601613615565b91505092915050565b6000602082840312156136e0576136df611857565b5b600082015167ffffffffffffffff8111156136fe576136fd61185c565b5b61370a8482850161369c565b91505092915050565b60006040820190506137286000830185612366565b613735602083018461271b565b9392505050565b60006020828403121561375257613751611857565b5b600082015167ffffffffffffffff8111156137705761376f61185c565b5b61377c84828501613559565b91505092915050565b600067ffffffffffffffff8211156137a05761379f6118d5565b5b602082029050602081019050919050565b6000608082840312156137c7576137c66118bf565b5b6137d16080611935565b905060006137e184828501612eb3565b600083015250602082015167ffffffffffffffff81111561380557613804611950565b5b61381184828501612f0a565b602083015250604061382584828501612f38565b604083015250606061383984828501612f38565b60608301525092915050565b600061385861385384613785565b611935565b9050808382526020820190506020840283018581111561387b5761387a611ddd565b5b835b818110156138c257805167ffffffffffffffff8111156138a05761389f611955565b5b8086016138ad89826137b1565b8552602085019450505060208101905061387d565b5050509392505050565b600082601f8301126138e1576138e0611955565b5b81516138f1848260208601613845565b91505092915050565b6000602082840312156139105761390f611857565b5b600082015167ffffffffffffffff81111561392e5761392d61185c565b5b61393a848285016138cc565b91505092915050565b7f52657669657720646f6573206e6f742065786973740000000000000000000000600082015250565b60006139796015836130cb565b915061398482613943565b602082019050919050565b600060208201905081810360008301526139a88161396c565b9050919050565b6000602082840312156139c5576139c4611857565b5b60006139d384828501612eb3565b91505092915050565b60006080820190506139f1600083018761271b565b6139fe6020830186612366565b8181036040830152613a1081856130dc565b9050613a1f6060830184612366565b95945050505050565b600060208284031215613a3e57613a3d611857565b5b600082015167ffffffffffffffff811115613a5c57613a5b61185c565b5b613a68848285016137b1565b9150509291505056fea26469706673582212203e43191206f75948eb900b3fe2aa8c4c658637015961f9747a3f15a6a74b9a3764736f6c63430008180033",
  "linkReferences": {},
  "deployedLinkReferences": {}
}