{
  "_format": "hh-sol-artifact-1",
  "contractName": "Review",
  "sourceName": "contracts/Review.sol",
  "abi": [
    {
      "inputs": [
        {
          "internalType": "address",
          "name": "_productAddress",
          "type": "address"
        }
      ],
      "stateMutability": "nonpayable",
      "type": "constructor"
    },
    {
      "anonymous": false,
      "inputs": [
        {
          "indexed": true,
          "internalType": "uint256",
          "name": "productId",
          "type": "uint256"
        },
        {
          "indexed": true,
          "internalType": "address",
          "name": "reviewer",
          "type": "address"
        },
        {
          "indexed": false,
          "internalType": "string",
          "name": "content",
          "type": "string"
        },
        {
          "indexed": false,
          "internalType": "uint256",
          "name": "rating",
          "type": "uint256"
        }
      ],
      "name": "ReviewAdded",
      "type": "event"
    },
    {
      "inputs": [
        {
          "internalType": "address",
          "name": "_reviewer",
          "type": "address"
        },
        {
          "internalType": "uint256",
          "name": "_productId",
          "type": "uint256"
        },
        {
          "internalType": "string",
          "name": "_content",
          "type": "string"
        },
        {
          "internalType": "uint256",
          "name": "_rating",
          "type": "uint256"
        }
      ],
      "name": "addReview",
      "outputs": [],
      "stateMutability": "nonpayable",
      "type": "function"
    },
    {
      "inputs": [
        {
          "internalType": "uint256",
          "name": "_productId",
          "type": "uint256"
        },
        {
          "internalType": "uint256",
          "name": "_reviewId",
          "type": "uint256"
        }
      ],
      "name": "getReview",
      "outputs": [
        {
          "components": [
            {
              "internalType": "address",
              "name": "reviewer",
              "type": "address"
            },
            {
              "internalType": "string",
              "name": "content",
              "type": "string"
            },
            {
              "internalType": "uint256",
              "name": "rating",
              "type": "uint256"
            },
            {
              "internalType": "uint256",
              "name": "timestamp",
              "type": "uint256"
            }
          ],
          "internalType": "struct Review.ReviewInfo",
          "name": "",
          "type": "tuple"
        }
      ],
      "stateMutability": "view",
      "type": "function"
    },
    {
      "inputs": [
        {
          "internalType": "uint256",
          "name": "_productId",
          "type": "uint256"
        },
        {
          "internalType": "uint256",
          "name": "_reviewId",
          "type": "uint256"
        }
      ],
      "name": "getReviewer",
      "outputs": [
        {
          "internalType": "address",
          "name": "",
          "type": "address"
        }
      ],
      "stateMutability": "view",
      "type": "function"
    },
    {
      "inputs": [
        {
          "internalType": "uint256",
          "name": "_productId",
          "type": "uint256"
        }
      ],
      "name": "getReviews",
      "outputs": [
        {
          "components": [
            {
              "internalType": "address",
              "name": "reviewer",
              "type": "address"
            },
            {
              "internalType": "string",
              "name": "content",
              "type": "string"
            },
            {
              "internalType": "uint256",
              "name": "rating",
              "type": "uint256"
            },
            {
              "internalType": "uint256",
              "name": "timestamp",
              "type": "uint256"
            }
          ],
          "internalType": "struct Review.ReviewInfo[]",
          "name": "",
          "type": "tuple[]"
        }
      ],
      "stateMutability": "view",
      "type": "function"
    },
    {
      "inputs": [
        {
          "internalType": "uint256",
          "name": "_productId",
          "type": "uint256"
        }
      ],
      "name": "getReviewsCount",
      "outputs": [
        {
          "internalType": "uint256",
          "name": "",
          "type": "uint256"
        }
      ],
      "stateMutability": "view",
      "type": "function"
    },
    {
      "inputs": [
        {
          "internalType": "uint256",
          "name": "",
          "type": "uint256"
        },
        {
          "internalType": "address",
          "name": "",
          "type": "address"
        }
      ],
      "name": "hasReviewed",
      "outputs": [
        {
          "internalType": "bool",
          "name": "",
          "type": "bool"
        }
      ],
      "stateMutability": "view",
      "type": "function"
    },
    {
      "inputs": [
        {
          "internalType": "uint256",
          "name": "",
          "type": "uint256"
        },
        {
          "internalType": "uint256",
          "name": "",
          "type": "uint256"
        }
      ],
      "name": "productReviews",
      "outputs": [
        {
          "internalType": "address",
          "name": "reviewer",
          "type": "address"
        },
        {
          "internalType": "string",
          "name": "content",
          "type": "string"
        },
        {
          "internalType": "uint256",
          "name": "rating",
          "type": "uint256"
        },
        {
          "internalType": "uint256",
          "name": "timestamp",
          "type": "uint256"
        }
      ],
      "stateMutability": "view",
      "type": "function"
    },
    {
      "inputs": [
        {
          "internalType": "address",
          "name": "_reviewer",
          "type": "address"
        },
        {
          "internalType": "uint256",
          "name": "_productId",
          "type": "uint256"
        },
        {
          "internalType": "string",
          "name": "_content",
          "type": "string"
        },
        {
          "internalType": "uint256",
          "name": "_rating",
          "type": "uint256"
        }
      ],
      "name": "updateReview",
      "outputs": [],
      "stateMutability": "nonpayable",
      "type": "function"
    }
  ],
  "bytecode": "0x60806040523480156200001157600080fd5b5060405162002a0938038062002a098339818101604052810190620000379190620000e8565b806000806101000a81548173ffffffffffffffffffffffffffffffffffffffff021916908373ffffffffffffffffffffffffffffffffffffffff160217905550506200011a565b600080fd5b600073ffffffffffffffffffffffffffffffffffffffff82169050919050565b6000620000b08262000083565b9050919050565b620000c281620000a3565b8114620000ce57600080fd5b50565b600081519050620000e281620000b7565b92915050565b6000602082840312156200010157620001006200007e565b5b60006200011184828501620000d1565b91505092915050565b6128df806200012a6000396000f3fe608060405234801561001057600080fd5b50600436106100885760003560e01c80639d4a22551161005b5780639d4a225514610125578063dcfe3e0814610155578063dfa505ed14610185578063f2943dce146101b557610088565b80635abbff2c1461008d5780637376ccfd146100a95780637c7198cc146100d957806382bb560b14610109575b600080fd5b6100a760048036038101906100a291906115c4565b6101e8565b005b6100c360048036038101906100be9190611647565b6105f9565b6040516100d09190611696565b60405180910390f35b6100f360048036038101906100ee91906116b1565b6107a0565b604051610100919061170c565b60405180910390f35b610123600480360381019061011e91906115c4565b6107cf565b005b61013f600480360381019061013a9190611727565b610cb1565b60405161014c9190611916565b60405180910390f35b61016f600480360381019061016a9190611727565b610f09565b60405161017c9190611947565b60405180910390f35b61019f600480360381019061019a9190611647565b611013565b6040516101ac91906119c5565b60405180910390f35b6101cf60048036038101906101ca9190611647565b6112a3565b6040516101df9493929190611a31565b60405180910390f35b828060008054906101000a900473ffffffffffffffffffffffffffffffffffffffff1673ffffffffffffffffffffffffffffffffffffffff1663b9db15b4836040518263ffffffff1660e01b81526004016102439190611947565b600060405180830381865afa158015610260573d6000803e3d6000fd5b505050506040513d6000823e3d601f19601f8201168201806040525081019061028991906121e3565b6000015160000151146102d1576040517f08c379a00000000000000000000000000000000000000000000000000000000081526004016102c890612278565b60405180910390fd5b816000811180156102e3575060058111155b610322576040517f08c379a0000000000000000000000000000000000000000000000000000000008152600401610319906122e4565b60405180910390fd5b836000815111610367576040517f08c379a000000000000000000000000000000000000000000000000000000000815260040161035e90612350565b60405180910390fd5b85878073ffffffffffffffffffffffffffffffffffffffff1660008054906101000a900473ffffffffffffffffffffffffffffffffffffffff1673ffffffffffffffffffffffffffffffffffffffff1663b9db15b4846040518263ffffffff1660e01b81526004016103d99190611947565b600060405180830381865afa1580156103f6573d6000803e3d6000fd5b505050506040513d6000823e3d601f19601f8201168201806040525081019061041f91906121e3565b600001516020015173ffffffffffffffffffffffffffffffffffffffff160361047d576040517f08c379a0000000000000000000000000000000000000000000000000000000008152600401610474906123e2565b60405180910390fd5b6000600160008a8152602001908152602001600020905060005b81805490508110156105b2578a73ffffffffffffffffffffffffffffffffffffffff168282815481106104cd576104cc612402565b5b906000526020600020906004020160000160009054906101000a900473ffffffffffffffffffffffffffffffffffffffff1673ffffffffffffffffffffffffffffffffffffffff16036105a5578882828154811061052e5761052d612402565b5b9060005260206000209060040201600101908161054b919061263d565b50878282815481106105605761055f612402565b5b9060005260206000209060040201600201819055504282828154811061058957610588612402565b5b90600052602060002090600402016003018190555050506105ee565b8080600101915050610497565b506040517f08c379a00000000000000000000000000000000000000000000000000000000081526004016105e59061275b565b60405180910390fd5b505050505050505050565b6000828060008054906101000a900473ffffffffffffffffffffffffffffffffffffffff1673ffffffffffffffffffffffffffffffffffffffff1663b9db15b4836040518263ffffffff1660e01b81526004016106569190611947565b600060405180830381865afa158015610673573d6000803e3d6000fd5b505050506040513d6000823e3d601f19601f8201168201806040525081019061069c91906121e3565b6000015160000151146106e4576040517f08c379a00000000000000000000000000000000000000000000000000000000081526004016106db90612278565b60405180910390fd5b83836001600083815260200190815260200160002080549050811061073e576040517f08c379a0000000000000000000000000000000000000000000000000000000008152600401610735906127c7565b60405180910390fd5b60016000878152602001908152602001600020858154811061076357610762612402565b5b906000526020600020906004020160000160009054906101000a900473ffffffffffffffffffffffffffffffffffffffff16935050505092915050565b60026020528160005260406000206020528060005260406000206000915091509054906101000a900460ff1681565b828060008054906101000a900473ffffffffffffffffffffffffffffffffffffffff1673ffffffffffffffffffffffffffffffffffffffff1663b9db15b4836040518263ffffffff1660e01b815260040161082a9190611947565b600060405180830381865afa158015610847573d6000803e3d6000fd5b505050506040513d6000823e3d601f19601f8201168201806040525081019061087091906121e3565b6000015160000151146108b8576040517f08c379a00000000000000000000000000000000000000000000000000000000081526004016108af90612278565b60405180910390fd5b816000811180156108ca575060058111155b610909576040517f08c379a0000000000000000000000000000000000000000000000000000000008152600401610900906122e4565b60405180910390fd5b83600081511161094e576040517f08c379a000000000000000000000000000000000000000000000000000000000815260040161094590612350565b60405180910390fd5b85878073ffffffffffffffffffffffffffffffffffffffff1660008054906101000a900473ffffffffffffffffffffffffffffffffffffffff1673ffffffffffffffffffffffffffffffffffffffff1663b9db15b4846040518263ffffffff1660e01b81526004016109c09190611947565b600060405180830381865afa1580156109dd573d6000803e3d6000fd5b505050506040513d6000823e3d601f19601f82011682018060405250810190610a0691906121e3565b600001516020015173ffffffffffffffffffffffffffffffffffffffff1603610a64576040517f08c379a0000000000000000000000000000000000000000000000000000000008152600401610a5b906123e2565b60405180910390fd5b87896002600083815260200190815260200160002060008273ffffffffffffffffffffffffffffffffffffffff1673ffffffffffffffffffffffffffffffffffffffff16815260200190815260200160002060009054906101000a900460ff1615610b04576040517f08c379a0000000000000000000000000000000000000000000000000000000008152600401610afb90612859565b60405180910390fd5b600160008b815260200190815260200160002060405180608001604052808d73ffffffffffffffffffffffffffffffffffffffff1681526020018b81526020018a815260200142815250908060018154018082558091505060019003906000526020600020906004020160009091909190915060008201518160000160006101000a81548173ffffffffffffffffffffffffffffffffffffffff021916908373ffffffffffffffffffffffffffffffffffffffff1602179055506020820151816001019081610bd3919061263d565b50604082015181600201556060820151816003015550506001600260008c815260200190815260200160002060008d73ffffffffffffffffffffffffffffffffffffffff1673ffffffffffffffffffffffffffffffffffffffff16815260200190815260200160002060006101000a81548160ff0219169083151502179055508a73ffffffffffffffffffffffffffffffffffffffff168a7ff5b48fcd3f5e0ef5f6f5a50588fc666bda623b19888849dd6149681e96b637358b8b604051610c9c929190612879565b60405180910390a35050505050505050505050565b6060818060008054906101000a900473ffffffffffffffffffffffffffffffffffffffff1673ffffffffffffffffffffffffffffffffffffffff1663b9db15b4836040518263ffffffff1660e01b8152600401610d0e9190611947565b600060405180830381865afa158015610d2b573d6000803e3d6000fd5b505050506040513d6000823e3d601f19601f82011682018060405250810190610d5491906121e3565b600001516000015114610d9c576040517f08c379a0000000000000000000000000000000000000000000000000000000008152600401610d9390612278565b60405180910390fd5b60016000848152602001908152602001600020805480602002602001604051908101604052809291908181526020016000905b82821015610efd57838290600052602060002090600402016040518060800160405290816000820160009054906101000a900473ffffffffffffffffffffffffffffffffffffffff1673ffffffffffffffffffffffffffffffffffffffff1673ffffffffffffffffffffffffffffffffffffffff168152602001600182018054610e5890612460565b80601f0160208091040260200160405190810160405280929190818152602001828054610e8490612460565b8015610ed15780601f10610ea657610100808354040283529160200191610ed1565b820191906000526020600020905b815481529060010190602001808311610eb457829003601f168201915b505050505081526020016002820154815260200160038201548152505081526020019060010190610dcf565b50505050915050919050565b6000818060008054906101000a900473ffffffffffffffffffffffffffffffffffffffff1673ffffffffffffffffffffffffffffffffffffffff1663b9db15b4836040518263ffffffff1660e01b8152600401610f669190611947565b600060405180830381865afa158015610f83573d6000803e3d6000fd5b505050506040513d6000823e3d601f19601f82011682018060405250810190610fac91906121e3565b600001516000015114610ff4576040517f08c379a0000000000000000000000000000000000000000000000000000000008152600401610feb90612278565b60405180910390fd5b6001600084815260200190815260200160002080549050915050919050565b61101b611398565b828060008054906101000a900473ffffffffffffffffffffffffffffffffffffffff1673ffffffffffffffffffffffffffffffffffffffff1663b9db15b4836040518263ffffffff1660e01b81526004016110769190611947565b600060405180830381865afa158015611093573d6000803e3d6000fd5b505050506040513d6000823e3d601f19601f820116820180604052508101906110bc91906121e3565b600001516000015114611104576040517f08c379a00000000000000000000000000000000000000000000000000000000081526004016110fb90612278565b60405180910390fd5b83836001600083815260200190815260200160002080549050811061115e576040517f08c379a0000000000000000000000000000000000000000000000000000000008152600401611155906127c7565b60405180910390fd5b60016000878152602001908152602001600020858154811061118357611182612402565b5b90600052602060002090600402016040518060800160405290816000820160009054906101000a900473ffffffffffffffffffffffffffffffffffffffff1673ffffffffffffffffffffffffffffffffffffffff1673ffffffffffffffffffffffffffffffffffffffff16815260200160018201805461120290612460565b80601f016020809104026020016040519081016040528092919081815260200182805461122e90612460565b801561127b5780601f106112505761010080835404028352916020019161127b565b820191906000526020600020905b81548152906001019060200180831161125e57829003601f168201915b5050505050815260200160028201548152602001600382015481525050935050505092915050565b600160205281600052604060002081815481106112bf57600080fd5b9060005260206000209060040201600091509150508060000160009054906101000a900473ffffffffffffffffffffffffffffffffffffffff169080600101805461130990612460565b80601f016020809104026020016040519081016040528092919081815260200182805461133590612460565b80156113825780601f1061135757610100808354040283529160200191611382565b820191906000526020600020905b81548152906001019060200180831161136557829003601f168201915b5050505050908060020154908060030154905084565b6040518060800160405280600073ffffffffffffffffffffffffffffffffffffffff1681526020016060815260200160008152602001600081525090565b6000604051905090565b600080fd5b600080fd5b600073ffffffffffffffffffffffffffffffffffffffff82169050919050565b6000611415826113ea565b9050919050565b6114258161140a565b811461143057600080fd5b50565b6000813590506114428161141c565b92915050565b6000819050919050565b61145b81611448565b811461146657600080fd5b50565b60008135905061147881611452565b92915050565b600080fd5b600080fd5b6000601f19601f8301169050919050565b7f4e487b7100000000000000000000000000000000000000000000000000000000600052604160045260246000fd5b6114d182611488565b810181811067ffffffffffffffff821117156114f0576114ef611499565b5b80604052505050565b60006115036113d6565b905061150f82826114c8565b919050565b600067ffffffffffffffff82111561152f5761152e611499565b5b61153882611488565b9050602081019050919050565b82818337600083830152505050565b600061156761156284611514565b6114f9565b90508281526020810184848401111561158357611582611483565b5b61158e848285611545565b509392505050565b600082601f8301126115ab576115aa61147e565b5b81356115bb848260208601611554565b91505092915050565b600080600080608085870312156115de576115dd6113e0565b5b60006115ec87828801611433565b94505060206115fd87828801611469565b935050604085013567ffffffffffffffff81111561161e5761161d6113e5565b5b61162a87828801611596565b925050606061163b87828801611469565b91505092959194509250565b6000806040838503121561165e5761165d6113e0565b5b600061166c85828601611469565b925050602061167d85828601611469565b9150509250929050565b6116908161140a565b82525050565b60006020820190506116ab6000830184611687565b92915050565b600080604083850312156116c8576116c76113e0565b5b60006116d685828601611469565b92505060206116e785828601611433565b9150509250929050565b60008115159050919050565b611706816116f1565b82525050565b600060208201905061172160008301846116fd565b92915050565b60006020828403121561173d5761173c6113e0565b5b600061174b84828501611469565b91505092915050565b600081519050919050565b600082825260208201905092915050565b6000819050602082019050919050565b6117898161140a565b82525050565b600081519050919050565b600082825260208201905092915050565b60005b838110156117c95780820151818401526020810190506117ae565b60008484015250505050565b60006117e08261178f565b6117ea818561179a565b93506117fa8185602086016117ab565b61180381611488565b840191505092915050565b61181781611448565b82525050565b60006080830160008301516118356000860182611780565b506020830151848203602086015261184d82826117d5565b9150506040830151611862604086018261180e565b506060830151611875606086018261180e565b508091505092915050565b600061188c838361181d565b905092915050565b6000602082019050919050565b60006118ac82611754565b6118b6818561175f565b9350836020820285016118c885611770565b8060005b8581101561190457848403895281516118e58582611880565b94506118f083611894565b925060208a019950506001810190506118cc565b50829750879550505050505092915050565b6000602082019050818103600083015261193081846118a1565b905092915050565b61194181611448565b82525050565b600060208201905061195c6000830184611938565b92915050565b600060808301600083015161197a6000860182611780565b506020830151848203602086015261199282826117d5565b91505060408301516119a7604086018261180e565b5060608301516119ba606086018261180e565b508091505092915050565b600060208201905081810360008301526119df8184611962565b905092915050565b600082825260208201905092915050565b6000611a038261178f565b611a0d81856119e7565b9350611a1d8185602086016117ab565b611a2681611488565b840191505092915050565b6000608082019050611a466000830187611687565b8181036020830152611a5881866119f8565b9050611a676040830185611938565b611a746060830184611938565b95945050505050565b600080fd5b600080fd5b600081519050611a9681611452565b92915050565b600081519050611aab8161141c565b92915050565b6000611ac4611abf84611514565b6114f9565b905082815260208101848484011115611ae057611adf611483565b5b611aeb8482856117ab565b509392505050565b600082601f830112611b0857611b0761147e565b5b8151611b18848260208601611ab1565b91505092915050565b611b2a816116f1565b8114611b3557600080fd5b50565b600081519050611b4781611b21565b92915050565b60006102208284031215611b6457611b63611a7d565b5b611b6f6102206114f9565b9050600082015167ffffffffffffffff811115611b8f57611b8e611a82565b5b611b9b84828501611af3565b600083015250602082015167ffffffffffffffff811115611bbf57611bbe611a82565b5b611bcb84828501611af3565b602083015250604082015167ffffffffffffffff811115611bef57611bee611a82565b5b611bfb84828501611af3565b604083015250606082015167ffffffffffffffff811115611c1f57611c1e611a82565b5b611c2b84828501611af3565b606083015250608082015167ffffffffffffffff811115611c4f57611c4e611a82565b5b611c5b84828501611af3565b60808301525060a0611c6f84828501611b38565b60a08301525060c082015167ffffffffffffffff811115611c9357611c92611a82565b5b611c9f84828501611af3565b60c08301525060e082015167ffffffffffffffff811115611cc357611cc2611a82565b5b611ccf84828501611af3565b60e08301525061010082015167ffffffffffffffff811115611cf457611cf3611a82565b5b611d0084828501611af3565b6101008301525061012082015167ffffffffffffffff811115611d2657611d25611a82565b5b611d3284828501611af3565b61012083015250610140611d4884828501611b38565b6101408301525061016082015167ffffffffffffffff811115611d6e57611d6d611a82565b5b611d7a84828501611af3565b6101608301525061018082015167ffffffffffffffff811115611da057611d9f611a82565b5b611dac84828501611af3565b610180830152506101a082015167ffffffffffffffff811115611dd257611dd1611a82565b5b611dde84828501611af3565b6101a0830152506101c082015167ffffffffffffffff811115611e0457611e03611a82565b5b611e1084828501611af3565b6101c0830152506101e082015167ffffffffffffffff811115611e3657611e35611a82565b5b611e4284828501611af3565b6101e08301525061020082015167ffffffffffffffff811115611e6857611e67611a82565b5b611e7484828501611af3565b6102008301525092915050565b600060c08284031215611e9757611e96611a7d565b5b611ea160c06114f9565b90506000611eb184828501611a87565b6000830152506020611ec584828501611a9c565b602083015250604082015167ffffffffffffffff811115611ee957611ee8611a82565b5b611ef584828501611b4d565b6040830152506060611f0984828501611a87565b6060830152506080611f1d84828501611b38565b60808301525060a0611f3184828501611a87565b60a08301525092915050565b600067ffffffffffffffff821115611f5857611f57611499565b5b602082029050602081019050919050565b600080fd5b6000611f81611f7c84611f3d565b6114f9565b90508083825260208201905060208402830185811115611fa457611fa3611f69565b5b835b81811015611feb57805167ffffffffffffffff811115611fc957611fc861147e565b5b808601611fd68982611af3565b85526020850194505050602081019050611fa6565b5050509392505050565b600082601f83011261200a5761200961147e565b5b815161201a848260208601611f6e565b91505092915050565b600060e0828403121561203957612038611a7d565b5b61204360e06114f9565b9050600082015167ffffffffffffffff81111561206357612062611a82565b5b61206f84828501611af3565b600083015250602061208384828501611a87565b602083015250604082015167ffffffffffffffff8111156120a7576120a6611a82565b5b6120b384828501611af3565b604083015250606082015167ffffffffffffffff8111156120d7576120d6611a82565b5b6120e384828501611ff5565b60608301525060806120f784828501611a87565b60808301525060a061210b84828501611a87565b60a08301525060c082015167ffffffffffffffff81111561212f5761212e611a82565b5b61213b84828501611af3565b60c08301525092915050565b60006060828403121561215d5761215c611a7d565b5b61216760606114f9565b9050600082015167ffffffffffffffff81111561218757612186611a82565b5b61219384828501611e81565b600083015250602082015167ffffffffffffffff8111156121b7576121b6611a82565b5b6121c384828501612023565b60208301525060406121d784828501611b38565b60408301525092915050565b6000602082840312156121f9576121f86113e0565b5b600082015167ffffffffffffffff811115612217576122166113e5565b5b61222384828501612147565b91505092915050565b7f50726f6475637420646f6573206e6f7420657869737400000000000000000000600082015250565b60006122626016836119e7565b915061226d8261222c565b602082019050919050565b6000602082019050818103600083015261229181612255565b9050919050565b7f526174696e67206d757374206265206265747765656e203120616e6420350000600082015250565b60006122ce601e836119e7565b91506122d982612298565b602082019050919050565b600060208201905081810360008301526122fd816122c1565b9050919050565b7f52657669657720636f6e74656e742063616e6e6f7420626520656d7074790000600082015250565b600061233a601e836119e7565b915061234582612304565b602082019050919050565b600060208201905081810360008301526123698161232d565b9050919050565b7f50726f64756374206f776e65722063616e6e6f7420726576696577207468656960008201527f72206f776e2070726f6475637400000000000000000000000000000000000000602082015250565b60006123cc602d836119e7565b91506123d782612370565b604082019050919050565b600060208201905081810360008301526123fb816123bf565b9050919050565b7f4e487b7100000000000000000000000000000000000000000000000000000000600052603260045260246000fd5b7f4e487b7100000000000000000000000000000000000000000000000000000000600052602260045260246000fd5b6000600282049050600182168061247857607f821691505b60208210810361248b5761248a612431565b5b50919050565b60008190508160005260206000209050919050565b60006020601f8301049050919050565b600082821b905092915050565b6000600883026124f37fffffffffffffffffffffffffffffffffffffffffffffffffffffffffffffffff826124b6565b6124fd86836124b6565b95508019841693508086168417925050509392505050565b6000819050919050565b600061253a61253561253084611448565b612515565b611448565b9050919050565b6000819050919050565b6125548361251f565b61256861256082612541565b8484546124c3565b825550505050565b600090565b61257d612570565b61258881848461254b565b505050565b5b818110156125ac576125a1600082612575565b60018101905061258e565b5050565b601f8211156125f1576125c281612491565b6125cb846124a6565b810160208510156125da578190505b6125ee6125e6856124a6565b83018261258d565b50505b505050565b600082821c905092915050565b6000612614600019846008026125f6565b1980831691505092915050565b600061262d8383612603565b9150826002028217905092915050565b6126468261178f565b67ffffffffffffffff81111561265f5761265e611499565b5b6126698254612460565b6126748282856125b0565b600060209050601f8311600181146126a75760008415612695578287015190505b61269f8582612621565b865550612707565b601f1984166126b586612491565b60005b828110156126dd578489015182556001820191506020850194506020810190506126b8565b868310156126fa57848901516126f6601f891682612603565b8355505b6001600288020188555050505b505050505050565b7f526576696577206e6f7420666f756e6400000000000000000000000000000000600082015250565b60006127456010836119e7565b91506127508261270f565b602082019050919050565b6000602082019050818103600083015261277481612738565b9050919050565b7f52657669657720646f6573206e6f742065786973740000000000000000000000600082015250565b60006127b16015836119e7565b91506127bc8261277b565b602082019050919050565b600060208201905081810360008301526127e0816127a4565b9050919050565b7f52657669657765722068617320616c726561647920726576696577656420746860008201527f69732070726f6475637400000000000000000000000000000000000000000000602082015250565b6000612843602a836119e7565b915061284e826127e7565b604082019050919050565b6000602082019050818103600083015261287281612836565b9050919050565b6000604082019050818103600083015261289381856119f8565b90506128a26020830184611938565b939250505056fea2646970667358221220c67a968fa123a3ac076c266e616b310bebf5f6da65c46881e1c9e4285f4cdbd964736f6c63430008180033",
  "linkReferences": {},
  "deployedLinkReferences": {}
}