{
  "_format": "hh-sol-artifact-1",
  "contractName": "Product",
  "sourceName": "contracts/Product.sol",
  "abi": [
    {
      "inputs": [
        {
          "internalType": "address",
          "name": "initialOwner",
          "type": "address"
        },
        {
          "internalType": "address",
          "name": "_betaTestingManager",
          "type": "address"
        }
      ],
      "stateMutability": "nonpayable",
      "type": "constructor"
    },
    {
      "inputs": [
        {
          "internalType": "address",
          "name": "owner",
          "type": "address"
        }
      ],
      "name": "OwnableInvalidOwner",
      "type": "error"
    },
    {
      "inputs": [
        {
          "internalType": "address",
          "name": "account",
          "type": "address"
        }
      ],
      "name": "OwnableUnauthorizedAccount",
      "type": "error"
    },
    {
      "anonymous": false,
      "inputs": [
        {
          "indexed": true,
          "internalType": "uint256",
          "name": "productId",
          "type": "uint256"
        },
        {
          "indexed": false,
          "internalType": "string",
          "name": "betaTestingLink",
          "type": "string"
        }
      ],
      "name": "BetaTestingLinkUpdated",
      "type": "event"
    },
    {
      "anonymous": false,
      "inputs": [
        {
          "indexed": true,
          "internalType": "address",
          "name": "previousOwner",
          "type": "address"
        },
        {
          "indexed": true,
          "internalType": "address",
          "name": "newOwner",
          "type": "address"
        }
      ],
      "name": "OwnershipTransferred",
      "type": "event"
    },
    {
      "anonymous": false,
      "inputs": [
        {
          "indexed": true,
          "internalType": "uint256",
          "name": "productId",
          "type": "uint256"
        },
        {
          "indexed": true,
          "internalType": "address",
          "name": "owner",
          "type": "address"
        },
        {
          "indexed": false,
          "internalType": "string",
          "name": "productName",
          "type": "string"
        },
        {
          "indexed": false,
          "internalType": "string",
          "name": "description",
          "type": "string"
        }
      ],
      "name": "ProductRegistered",
      "type": "event"
    },
    {
      "anonymous": false,
      "inputs": [
        {
          "indexed": true,
          "internalType": "uint256",
          "name": "productId",
          "type": "uint256"
        },
        {
          "indexed": true,
          "internalType": "address",
          "name": "user",
          "type": "address"
        }
      ],
      "name": "ProductUpvoted",
      "type": "event"
    },
    {
      "inputs": [],
      "name": "betaTestingManager",
      "outputs": [
        {
          "internalType": "contract BetaTestingDetailsManager",
          "name": "",
          "type": "address"
        }
      ],
      "stateMutability": "view",
      "type": "function"
    },
    {
      "inputs": [
        {
          "internalType": "uint256",
          "name": "_productId",
          "type": "uint256"
        }
      ],
      "name": "canBeListed",
      "outputs": [
        {
          "internalType": "bool",
          "name": "",
          "type": "bool"
        }
      ],
      "stateMutability": "view",
      "type": "function"
    },
    {
      "inputs": [],
      "name": "getListedProducts",
      "outputs": [
        {
          "components": [
            {
              "internalType": "uint256",
              "name": "id",
              "type": "uint256"
            },
            {
              "internalType": "address",
              "name": "owner",
              "type": "address"
            },
            {
              "components": [
                {
                  "internalType": "string",
                  "name": "productName",
                  "type": "string"
                },
                {
                  "internalType": "string",
                  "name": "tagLine",
                  "type": "string"
                },
                {
                  "internalType": "string",
                  "name": "productLink",
                  "type": "string"
                },
                {
                  "internalType": "string",
                  "name": "twitterLink",
                  "type": "string"
                },
                {
                  "internalType": "string",
                  "name": "description",
                  "type": "string"
                },
                {
                  "internalType": "bool",
                  "name": "isOpenSource",
                  "type": "bool"
                },
                {
                  "internalType": "string",
                  "name": "category",
                  "type": "string"
                },
                {
                  "internalType": "string",
                  "name": "thumbNail",
                  "type": "string"
                },
                {
                  "internalType": "string",
                  "name": "mediaFile",
                  "type": "string"
                },
                {
                  "internalType": "string",
                  "name": "loomLink",
                  "type": "string"
                },
                {
                  "internalType": "bool",
                  "name": "workedWithTeam",
                  "type": "bool"
                },
                {
                  "internalType": "string",
                  "name": "teamMembersInput",
                  "type": "string"
                },
                {
                  "internalType": "string",
                  "name": "pricingOption",
                  "type": "string"
                },
                {
                  "internalType": "string",
                  "name": "offer",
                  "type": "string"
                },
                {
                  "internalType": "string",
                  "name": "promoCode",
                  "type": "string"
                },
                {
                  "internalType": "string",
                  "name": "expirationDate",
                  "type": "string"
                },
                {
                  "internalType": "string",
                  "name": "betaTestingLink",
                  "type": "string"
                }
              ],
              "internalType": "struct Product.ProductDetails",
              "name": "details",
              "type": "tuple"
            },
            {
              "internalType": "uint256",
              "name": "upvotes",
              "type": "uint256"
            },
            {
              "internalType": "bool",
              "name": "betaTestingAvailable",
              "type": "bool"
            },
            {
              "internalType": "uint256",
              "name": "timestamp",
              "type": "uint256"
            }
          ],
          "internalType": "struct Product.ProductInfo[]",
          "name": "",
          "type": "tuple[]"
        }
      ],
      "stateMutability": "view",
      "type": "function"
    },
    {
      "inputs": [],
      "name": "getListedProductsAvailable",
      "outputs": [
        {
          "components": [
            {
              "internalType": "uint256",
              "name": "id",
              "type": "uint256"
            },
            {
              "internalType": "address",
              "name": "owner",
              "type": "address"
            },
            {
              "components": [
                {
                  "internalType": "string",
                  "name": "productName",
                  "type": "string"
                },
                {
                  "internalType": "string",
                  "name": "tagLine",
                  "type": "string"
                },
                {
                  "internalType": "string",
                  "name": "productLink",
                  "type": "string"
                },
                {
                  "internalType": "string",
                  "name": "twitterLink",
                  "type": "string"
                },
                {
                  "internalType": "string",
                  "name": "description",
                  "type": "string"
                },
                {
                  "internalType": "bool",
                  "name": "isOpenSource",
                  "type": "bool"
                },
                {
                  "internalType": "string",
                  "name": "category",
                  "type": "string"
                },
                {
                  "internalType": "string",
                  "name": "thumbNail",
                  "type": "string"
                },
                {
                  "internalType": "string",
                  "name": "mediaFile",
                  "type": "string"
                },
                {
                  "internalType": "string",
                  "name": "loomLink",
                  "type": "string"
                },
                {
                  "internalType": "bool",
                  "name": "workedWithTeam",
                  "type": "bool"
                },
                {
                  "internalType": "string",
                  "name": "teamMembersInput",
                  "type": "string"
                },
                {
                  "internalType": "string",
                  "name": "pricingOption",
                  "type": "string"
                },
                {
                  "internalType": "string",
                  "name": "offer",
                  "type": "string"
                },
                {
                  "internalType": "string",
                  "name": "promoCode",
                  "type": "string"
                },
                {
                  "internalType": "string",
                  "name": "expirationDate",
                  "type": "string"
                },
                {
                  "internalType": "string",
                  "name": "betaTestingLink",
                  "type": "string"
                }
              ],
              "internalType": "struct Product.ProductDetails",
              "name": "details",
              "type": "tuple"
            },
            {
              "internalType": "uint256",
              "name": "upvotes",
              "type": "uint256"
            },
            {
              "internalType": "bool",
              "name": "betaTestingAvailable",
              "type": "bool"
            },
            {
              "internalType": "uint256",
              "name": "timestamp",
              "type": "uint256"
            }
          ],
          "internalType": "struct Product.ProductInfo[]",
          "name": "",
          "type": "tuple[]"
        }
      ],
      "stateMutability": "view",
      "type": "function"
    },
    {
      "inputs": [
        {
          "internalType": "uint256",
          "name": "_productId",
          "type": "uint256"
        }
      ],
      "name": "getProduct",
      "outputs": [
        {
          "components": [
            {
              "internalType": "uint256",
              "name": "id",
              "type": "uint256"
            },
            {
              "internalType": "address",
              "name": "owner",
              "type": "address"
            },
            {
              "components": [
                {
                  "internalType": "string",
                  "name": "productName",
                  "type": "string"
                },
                {
                  "internalType": "string",
                  "name": "tagLine",
                  "type": "string"
                },
                {
                  "internalType": "string",
                  "name": "productLink",
                  "type": "string"
                },
                {
                  "internalType": "string",
                  "name": "twitterLink",
                  "type": "string"
                },
                {
                  "internalType": "string",
                  "name": "description",
                  "type": "string"
                },
                {
                  "internalType": "bool",
                  "name": "isOpenSource",
                  "type": "bool"
                },
                {
                  "internalType": "string",
                  "name": "category",
                  "type": "string"
                },
                {
                  "internalType": "string",
                  "name": "thumbNail",
                  "type": "string"
                },
                {
                  "internalType": "string",
                  "name": "mediaFile",
                  "type": "string"
                },
                {
                  "internalType": "string",
                  "name": "loomLink",
                  "type": "string"
                },
                {
                  "internalType": "bool",
                  "name": "workedWithTeam",
                  "type": "bool"
                },
                {
                  "internalType": "string",
                  "name": "teamMembersInput",
                  "type": "string"
                },
                {
                  "internalType": "string",
                  "name": "pricingOption",
                  "type": "string"
                },
                {
                  "internalType": "string",
                  "name": "offer",
                  "type": "string"
                },
                {
                  "internalType": "string",
                  "name": "promoCode",
                  "type": "string"
                },
                {
                  "internalType": "string",
                  "name": "expirationDate",
                  "type": "string"
                },
                {
                  "internalType": "string",
                  "name": "betaTestingLink",
                  "type": "string"
                }
              ],
              "internalType": "struct Product.ProductDetails",
              "name": "details",
              "type": "tuple"
            },
            {
              "internalType": "uint256",
              "name": "upvotes",
              "type": "uint256"
            },
            {
              "internalType": "bool",
              "name": "betaTestingAvailable",
              "type": "bool"
            },
            {
              "internalType": "uint256",
              "name": "timestamp",
              "type": "uint256"
            }
          ],
          "internalType": "struct Product.ProductInfo",
          "name": "",
          "type": "tuple"
        }
      ],
      "stateMutability": "view",
      "type": "function"
    },
    {
      "inputs": [
        {
          "internalType": "uint256",
          "name": "",
          "type": "uint256"
        },
        {
          "internalType": "address",
          "name": "",
          "type": "address"
        }
      ],
      "name": "hasUpvoted",
      "outputs": [
        {
          "internalType": "bool",
          "name": "",
          "type": "bool"
        }
      ],
      "stateMutability": "view",
      "type": "function"
    },
    {
      "inputs": [],
      "name": "owner",
      "outputs": [
        {
          "internalType": "address",
          "name": "",
          "type": "address"
        }
      ],
      "stateMutability": "view",
      "type": "function"
    },
    {
      "inputs": [
        {
          "internalType": "uint256",
          "name": "",
          "type": "uint256"
        }
      ],
      "name": "products",
      "outputs": [
        {
          "internalType": "uint256",
          "name": "id",
          "type": "uint256"
        },
        {
          "internalType": "address",
          "name": "owner",
          "type": "address"
        },
        {
          "components": [
            {
              "internalType": "string",
              "name": "productName",
              "type": "string"
            },
            {
              "internalType": "string",
              "name": "tagLine",
              "type": "string"
            },
            {
              "internalType": "string",
              "name": "productLink",
              "type": "string"
            },
            {
              "internalType": "string",
              "name": "twitterLink",
              "type": "string"
            },
            {
              "internalType": "string",
              "name": "description",
              "type": "string"
            },
            {
              "internalType": "bool",
              "name": "isOpenSource",
              "type": "bool"
            },
            {
              "internalType": "string",
              "name": "category",
              "type": "string"
            },
            {
              "internalType": "string",
              "name": "thumbNail",
              "type": "string"
            },
            {
              "internalType": "string",
              "name": "mediaFile",
              "type": "string"
            },
            {
              "internalType": "string",
              "name": "loomLink",
              "type": "string"
            },
            {
              "internalType": "bool",
              "name": "workedWithTeam",
              "type": "bool"
            },
            {
              "internalType": "string",
              "name": "teamMembersInput",
              "type": "string"
            },
            {
              "internalType": "string",
              "name": "pricingOption",
              "type": "string"
            },
            {
              "internalType": "string",
              "name": "offer",
              "type": "string"
            },
            {
              "internalType": "string",
              "name": "promoCode",
              "type": "string"
            },
            {
              "internalType": "string",
              "name": "expirationDate",
              "type": "string"
            },
            {
              "internalType": "string",
              "name": "betaTestingLink",
              "type": "string"
            }
          ],
          "internalType": "struct Product.ProductDetails",
          "name": "details",
          "type": "tuple"
        },
        {
          "internalType": "uint256",
          "name": "upvotes",
          "type": "uint256"
        },
        {
          "internalType": "bool",
          "name": "betaTestingAvailable",
          "type": "bool"
        },
        {
          "internalType": "uint256",
          "name": "timestamp",
          "type": "uint256"
        }
      ],
      "stateMutability": "view",
      "type": "function"
    },
    {
      "inputs": [
        {
          "internalType": "address",
          "name": "_owner",
          "type": "address"
        },
        {
          "components": [
            {
              "internalType": "string",
              "name": "productName",
              "type": "string"
            },
            {
              "internalType": "string",
              "name": "tagLine",
              "type": "string"
            },
            {
              "internalType": "string",
              "name": "productLink",
              "type": "string"
            },
            {
              "internalType": "string",
              "name": "twitterLink",
              "type": "string"
            },
            {
              "internalType": "string",
              "name": "description",
              "type": "string"
            },
            {
              "internalType": "bool",
              "name": "isOpenSource",
              "type": "bool"
            },
            {
              "internalType": "string",
              "name": "category",
              "type": "string"
            },
            {
              "internalType": "string",
              "name": "thumbNail",
              "type": "string"
            },
            {
              "internalType": "string",
              "name": "mediaFile",
              "type": "string"
            },
            {
              "internalType": "string",
              "name": "loomLink",
              "type": "string"
            },
            {
              "internalType": "bool",
              "name": "workedWithTeam",
              "type": "bool"
            },
            {
              "internalType": "string",
              "name": "teamMembersInput",
              "type": "string"
            },
            {
              "internalType": "string",
              "name": "pricingOption",
              "type": "string"
            },
            {
              "internalType": "string",
              "name": "offer",
              "type": "string"
            },
            {
              "internalType": "string",
              "name": "promoCode",
              "type": "string"
            },
            {
              "internalType": "string",
              "name": "expirationDate",
              "type": "string"
            },
            {
              "internalType": "string",
              "name": "betaTestingLink",
              "type": "string"
            }
          ],
          "internalType": "struct Product.ProductDetails",
          "name": "details",
          "type": "tuple"
        },
        {
          "internalType": "bool",
          "name": "betaTestingAvailable",
          "type": "bool"
        },
        {
          "components": [
            {
              "internalType": "uint256",
              "name": "targetNumbersOfTester",
              "type": "uint256"
            },
            {
              "internalType": "string",
              "name": "testingGoal",
              "type": "string"
            },
            {
              "internalType": "string[]",
              "name": "goals",
              "type": "string[]"
            },
            {
              "internalType": "uint256",
              "name": "startingDate",
              "type": "uint256"
            },
            {
              "internalType": "uint256",
              "name": "endingDate",
              "type": "uint256"
            }
          ],
          "internalType": "struct BetaTestingDetailsManager.BetaTestingDetails",
          "name": "betaDetails",
          "type": "tuple"
        }
      ],
      "name": "registerProduct",
      "outputs": [],
      "stateMutability": "nonpayable",
      "type": "function"
    },
    {
      "inputs": [],
      "name": "renounceOwnership",
      "outputs": [],
      "stateMutability": "nonpayable",
      "type": "function"
    },
    {
      "inputs": [
        {
          "internalType": "address",
          "name": "newOwner",
          "type": "address"
        }
      ],
      "name": "transferOwnership",
      "outputs": [],
      "stateMutability": "nonpayable",
      "type": "function"
    },
    {
      "inputs": [
        {
          "internalType": "uint256",
          "name": "_productId",
          "type": "uint256"
        },
        {
          "internalType": "string",
          "name": "_betaTestingLink",
          "type": "string"
        }
      ],
      "name": "updateBetaTestingLink",
      "outputs": [],
      "stateMutability": "nonpayable",
      "type": "function"
    },
    {
      "inputs": [
        {
          "internalType": "uint256",
          "name": "productId",
          "type": "uint256"
        },
        {
          "internalType": "address",
          "name": "upvoter",
          "type": "address"
        }
      ],
      "name": "upvoteProduct",
      "outputs": [],
      "stateMutability": "nonpayable",
      "type": "function"
    }
  ],
  "bytecode": "0x60806040523480156200001157600080fd5b5060405162005b7738038062005b77833981810160405281019062000037919062000236565b81600073ffffffffffffffffffffffffffffffffffffffff168173ffffffffffffffffffffffffffffffffffffffff1603620000ad5760006040517f1e4fbdf7000000000000000000000000000000000000000000000000000000008152600401620000a491906200028e565b60405180910390fd5b620000be816200010860201b60201c565b5080600460006101000a81548173ffffffffffffffffffffffffffffffffffffffff021916908373ffffffffffffffffffffffffffffffffffffffff1602179055505050620002ab565b60008060009054906101000a900473ffffffffffffffffffffffffffffffffffffffff169050816000806101000a81548173ffffffffffffffffffffffffffffffffffffffff021916908373ffffffffffffffffffffffffffffffffffffffff1602179055508173ffffffffffffffffffffffffffffffffffffffff168173ffffffffffffffffffffffffffffffffffffffff167f8be0079c531659141344cd1fd0a4f28419497f9722a3daafe3b4186f6b6457e060405160405180910390a35050565b600080fd5b600073ffffffffffffffffffffffffffffffffffffffff82169050919050565b6000620001fe82620001d1565b9050919050565b6200021081620001f1565b81146200021c57600080fd5b50565b600081519050620002308162000205565b92915050565b6000806040838503121562000250576200024f620001cc565b5b600062000260858286016200021f565b925050602062000273858286016200021f565b9150509250929050565b6200028881620001f1565b82525050565b6000602082019050620002a560008301846200027d565b92915050565b6158bc80620002bb6000396000f3fe608060405234801561001057600080fd5b50600436106100cf5760003560e01c80638ea0c0d11161008c578063b9db15b411610066578063b9db15b4146101f1578063e66f7f4614610221578063f1c88b4b1461023f578063f2fde38b1461026f576100cf565b80638ea0c0d114610187578063a52c8658146101a5578063b06742dc146101d5576100cf565b806352cb26af146100d457806355110f14146100f257806363283c841461010e578063715018a61461012a5780637acc0b20146101345780638da5cb5b14610169575b600080fd5b6100dc61028b565b6040516100e991906143d9565b60405180910390f35b61010c60048036038101906101079190614570565b610cc6565b005b610128600480360381019061012391906145f8565b610e5b565b005b6101326110dc565b005b61014e60048036038101906101499190614638565b6110f0565b60405161016096959493929190614861565b60405180910390f35b610171611a28565b60405161017e91906148c9565b60405180910390f35b61018f611a51565b60405161019c9190614943565b60405180910390f35b6101bf60048036038101906101ba91906145f8565b611a77565b6040516101cc919061495e565b60405180910390f35b6101ef60048036038101906101ea9190614e8d565b611aa6565b005b61020b60048036038101906102069190614638565b611e83565b6040516102189190614fb5565b60405180910390f35b610229612872565b60405161023691906143d9565b60405180910390f35b61025960048036038101906102549190614638565b613301565b604051610266919061495e565b60405180910390f35b61028960048036038101906102849190614fd7565b613d05565b005b60606000600154905060008167ffffffffffffffff8111156102b0576102af614445565b5b6040519080825280602002602001820160405280156102e957816020015b6102d6613ede565b8152602001906001900390816102ce5790505b5090506000600190505b828111610cbd57600260008281526020019081526020016000206040518060c0016040529081600082015481526020016001820160009054906101000a900473ffffffffffffffffffffffffffffffffffffffff1673ffffffffffffffffffffffffffffffffffffffff1673ffffffffffffffffffffffffffffffffffffffff168152602001600282016040518061022001604052908160008201805461039990615033565b80601f01602080910402602001604051908101604052809291908181526020018280546103c590615033565b80156104125780601f106103e757610100808354040283529160200191610412565b820191906000526020600020905b8154815290600101906020018083116103f557829003601f168201915b5050505050815260200160018201805461042b90615033565b80601f016020809104026020016040519081016040528092919081815260200182805461045790615033565b80156104a45780601f10610479576101008083540402835291602001916104a4565b820191906000526020600020905b81548152906001019060200180831161048757829003601f168201915b505050505081526020016002820180546104bd90615033565b80601f01602080910402602001604051908101604052809291908181526020018280546104e990615033565b80156105365780601f1061050b57610100808354040283529160200191610536565b820191906000526020600020905b81548152906001019060200180831161051957829003601f168201915b5050505050815260200160038201805461054f90615033565b80601f016020809104026020016040519081016040528092919081815260200182805461057b90615033565b80156105c85780601f1061059d576101008083540402835291602001916105c8565b820191906000526020600020905b8154815290600101906020018083116105ab57829003601f168201915b505050505081526020016004820180546105e190615033565b80601f016020809104026020016040519081016040528092919081815260200182805461060d90615033565b801561065a5780601f1061062f5761010080835404028352916020019161065a565b820191906000526020600020905b81548152906001019060200180831161063d57829003601f168201915b505050505081526020016005820160009054906101000a900460ff1615151515815260200160068201805461068e90615033565b80601f01602080910402602001604051908101604052809291908181526020018280546106ba90615033565b80156107075780601f106106dc57610100808354040283529160200191610707565b820191906000526020600020905b8154815290600101906020018083116106ea57829003601f168201915b5050505050815260200160078201805461072090615033565b80601f016020809104026020016040519081016040528092919081815260200182805461074c90615033565b80156107995780601f1061076e57610100808354040283529160200191610799565b820191906000526020600020905b81548152906001019060200180831161077c57829003601f168201915b505050505081526020016008820180546107b290615033565b80601f01602080910402602001604051908101604052809291908181526020018280546107de90615033565b801561082b5780601f106108005761010080835404028352916020019161082b565b820191906000526020600020905b81548152906001019060200180831161080e57829003601f168201915b5050505050815260200160098201805461084490615033565b80601f016020809104026020016040519081016040528092919081815260200182805461087090615033565b80156108bd5780601f10610892576101008083540402835291602001916108bd565b820191906000526020600020905b8154815290600101906020018083116108a057829003601f168201915b50505050508152602001600a820160009054906101000a900460ff16151515158152602001600b820180546108f190615033565b80601f016020809104026020016040519081016040528092919081815260200182805461091d90615033565b801561096a5780601f1061093f5761010080835404028352916020019161096a565b820191906000526020600020905b81548152906001019060200180831161094d57829003601f168201915b50505050508152602001600c8201805461098390615033565b80601f01602080910402602001604051908101604052809291908181526020018280546109af90615033565b80156109fc5780601f106109d1576101008083540402835291602001916109fc565b820191906000526020600020905b8154815290600101906020018083116109df57829003601f168201915b50505050508152602001600d82018054610a1590615033565b80601f0160208091040260200160405190810160405280929190818152602001828054610a4190615033565b8015610a8e5780601f10610a6357610100808354040283529160200191610a8e565b820191906000526020600020905b815481529060010190602001808311610a7157829003601f168201915b50505050508152602001600e82018054610aa790615033565b80601f0160208091040260200160405190810160405280929190818152602001828054610ad390615033565b8015610b205780601f10610af557610100808354040283529160200191610b20565b820191906000526020600020905b815481529060010190602001808311610b0357829003601f168201915b50505050508152602001600f82018054610b3990615033565b80601f0160208091040260200160405190810160405280929190818152602001828054610b6590615033565b8015610bb25780601f10610b8757610100808354040283529160200191610bb2565b820191906000526020600020905b815481529060010190602001808311610b9557829003601f168201915b50505050508152602001601082018054610bcb90615033565b80601f0160208091040260200160405190810160405280929190818152602001828054610bf790615033565b8015610c445780601f10610c1957610100808354040283529160200191610c44565b820191906000526020600020905b815481529060010190602001808311610c2757829003601f168201915b5050505050815250508152602001601382015481526020016014820160009054906101000a900460ff1615151515815260200160158201548152505082600183610c8e9190615093565b81518110610c9f57610c9e6150c7565b5b60200260200101819052508080610cb5906150f6565b9150506102f3565b50809250505090565b8180600260008381526020019081526020016000206000015414610d1f576040517f08c379a0000000000000000000000000000000000000000000000000000000008152600401610d169061519b565b60405180910390fd5b823373ffffffffffffffffffffffffffffffffffffffff166002600083815260200190815260200160002060010160009054906101000a900473ffffffffffffffffffffffffffffffffffffffff1673ffffffffffffffffffffffffffffffffffffffff1614610dc4576040517f08c379a0000000000000000000000000000000000000000000000000000000008152600401610dbb9061522d565b60405180910390fd5b82600260008681526020019081526020016000206002016010019081610dea91906153ef565b5060008351116002600086815260200190815260200160002060140160006101000a81548160ff021916908315150217905550837f60b68b8d9dde04a1c7a3c8b7c6631c84bca71372b9f129b0958fd4d901a57e5384604051610e4d91906154fa565b60405180910390a250505050565b8180600260008381526020019081526020016000206000015414610eb4576040517f08c379a0000000000000000000000000000000000000000000000000000000008152600401610eab9061519b565b60405180910390fd5b82828073ffffffffffffffffffffffffffffffffffffffff166002600084815260200190815260200160002060010160009054906101000a900473ffffffffffffffffffffffffffffffffffffffff1673ffffffffffffffffffffffffffffffffffffffff1603610f5a576040517f08c379a0000000000000000000000000000000000000000000000000000000008152600401610f519061558e565b60405180910390fd5b84846003600083815260200190815260200160002060008273ffffffffffffffffffffffffffffffffffffffff1673ffffffffffffffffffffffffffffffffffffffff16815260200190815260200160002060009054906101000a900460ff1615610ffa576040517f08c379a0000000000000000000000000000000000000000000000000000000008152600401610ff190615620565b60405180910390fd5b600260008881526020019081526020016000206013016000815480929190611021906150f6565b919050555060016003600089815260200190815260200160002060008873ffffffffffffffffffffffffffffffffffffffff1673ffffffffffffffffffffffffffffffffffffffff16815260200190815260200160002060006101000a81548160ff0219169083151502179055508573ffffffffffffffffffffffffffffffffffffffff16877f956f0f479292addd89f768b4b97612f546f78aae3d2b8a416a19c8b5b610b40560405160405180910390a350505050505050565b6110e4613d8b565b6110ee6000613e12565b565b60026020528060005260406000206000915090508060000154908060010160009054906101000a900473ffffffffffffffffffffffffffffffffffffffff1690806002016040518061022001604052908160008201805461115090615033565b80601f016020809104026020016040519081016040528092919081815260200182805461117c90615033565b80156111c95780601f1061119e576101008083540402835291602001916111c9565b820191906000526020600020905b8154815290600101906020018083116111ac57829003601f168201915b505050505081526020016001820180546111e290615033565b80601f016020809104026020016040519081016040528092919081815260200182805461120e90615033565b801561125b5780601f106112305761010080835404028352916020019161125b565b820191906000526020600020905b81548152906001019060200180831161123e57829003601f168201915b5050505050815260200160028201805461127490615033565b80601f01602080910402602001604051908101604052809291908181526020018280546112a090615033565b80156112ed5780601f106112c2576101008083540402835291602001916112ed565b820191906000526020600020905b8154815290600101906020018083116112d057829003601f168201915b5050505050815260200160038201805461130690615033565b80601f016020809104026020016040519081016040528092919081815260200182805461133290615033565b801561137f5780601f106113545761010080835404028352916020019161137f565b820191906000526020600020905b81548152906001019060200180831161136257829003601f168201915b5050505050815260200160048201805461139890615033565b80601f01602080910402602001604051908101604052809291908181526020018280546113c490615033565b80156114115780601f106113e657610100808354040283529160200191611411565b820191906000526020600020905b8154815290600101906020018083116113f457829003601f168201915b505050505081526020016005820160009054906101000a900460ff1615151515815260200160068201805461144590615033565b80601f016020809104026020016040519081016040528092919081815260200182805461147190615033565b80156114be5780601f10611493576101008083540402835291602001916114be565b820191906000526020600020905b8154815290600101906020018083116114a157829003601f168201915b505050505081526020016007820180546114d790615033565b80601f016020809104026020016040519081016040528092919081815260200182805461150390615033565b80156115505780601f1061152557610100808354040283529160200191611550565b820191906000526020600020905b81548152906001019060200180831161153357829003601f168201915b5050505050815260200160088201805461156990615033565b80601f016020809104026020016040519081016040528092919081815260200182805461159590615033565b80156115e25780601f106115b7576101008083540402835291602001916115e2565b820191906000526020600020905b8154815290600101906020018083116115c557829003601f168201915b505050505081526020016009820180546115fb90615033565b80601f016020809104026020016040519081016040528092919081815260200182805461162790615033565b80156116745780601f1061164957610100808354040283529160200191611674565b820191906000526020600020905b81548152906001019060200180831161165757829003601f168201915b50505050508152602001600a820160009054906101000a900460ff16151515158152602001600b820180546116a890615033565b80601f01602080910402602001604051908101604052809291908181526020018280546116d490615033565b80156117215780601f106116f657610100808354040283529160200191611721565b820191906000526020600020905b81548152906001019060200180831161170457829003601f168201915b50505050508152602001600c8201805461173a90615033565b80601f016020809104026020016040519081016040528092919081815260200182805461176690615033565b80156117b35780601f10611788576101008083540402835291602001916117b3565b820191906000526020600020905b81548152906001019060200180831161179657829003601f168201915b50505050508152602001600d820180546117cc90615033565b80601f01602080910402602001604051908101604052809291908181526020018280546117f890615033565b80156118455780601f1061181a57610100808354040283529160200191611845565b820191906000526020600020905b81548152906001019060200180831161182857829003601f168201915b50505050508152602001600e8201805461185e90615033565b80601f016020809104026020016040519081016040528092919081815260200182805461188a90615033565b80156118d75780601f106118ac576101008083540402835291602001916118d7565b820191906000526020600020905b8154815290600101906020018083116118ba57829003601f168201915b50505050508152602001600f820180546118f090615033565b80601f016020809104026020016040519081016040528092919081815260200182805461191c90615033565b80156119695780601f1061193e57610100808354040283529160200191611969565b820191906000526020600020905b81548152906001019060200180831161194c57829003601f168201915b5050505050815260200160108201805461198290615033565b80601f01602080910402602001604051908101604052809291908181526020018280546119ae90615033565b80156119fb5780601f106119d0576101008083540402835291602001916119fb565b820191906000526020600020905b8154815290600101906020018083116119de57829003601f168201915b505050505081525050908060130154908060140160009054906101000a900460ff16908060150154905086565b60008060009054906101000a900473ffffffffffffffffffffffffffffffffffffffff16905090565b600460009054906101000a900473ffffffffffffffffffffffffffffffffffffffff1681565b60036020528160005260406000206020528060005260406000206000915091509054906101000a900460ff1681565b60016000815480929190611ab9906150f6565b9190505550600060015490508215611ba45760008461020001515111611b14576040517f08c379a0000000000000000000000000000000000000000000000000000000008152600401611b0b9061568c565b60405180910390fd5b600460009054906101000a900473ffffffffffffffffffffffffffffffffffffffff1673ffffffffffffffffffffffffffffffffffffffff1663a5de975582846040518363ffffffff1660e01b8152600401611b719291906157eb565b600060405180830381600087803b158015611b8b57600080fd5b505af1158015611b9f573d6000803e3d6000fd5b505050505b6040518060c001604052808281526020018673ffffffffffffffffffffffffffffffffffffffff16815260200185815260200160008152602001841515815260200142815250600260008381526020019081526020016000206000820151816000015560208201518160010160006101000a81548173ffffffffffffffffffffffffffffffffffffffff021916908373ffffffffffffffffffffffffffffffffffffffff1602179055506040820151816002016000820151816000019081611c6c91906153ef565b506020820151816001019081611c8291906153ef565b506040820151816002019081611c9891906153ef565b506060820151816003019081611cae91906153ef565b506080820151816004019081611cc491906153ef565b5060a08201518160050160006101000a81548160ff02191690831515021790555060c0820151816006019081611cfa91906153ef565b5060e0820151816007019081611d1091906153ef565b50610100820151816008019081611d2791906153ef565b50610120820151816009019081611d3e91906153ef565b5061014082015181600a0160006101000a81548160ff02191690831515021790555061016082015181600b019081611d7691906153ef565b5061018082015181600c019081611d8d91906153ef565b506101a082015181600d019081611da491906153ef565b506101c082015181600e019081611dbb91906153ef565b506101e082015181600f019081611dd291906153ef565b50610200820151816010019081611de991906153ef565b5050506060820151816013015560808201518160140160006101000a81548160ff02191690831515021790555060a082015181601501559050508473ffffffffffffffffffffffffffffffffffffffff16817fb5744bf87060f3c128bd7ec7c73734981e2525b5958bd63d50320e2e282fb75786600001518760800151604051611e7492919061581b565b60405180910390a35050505050565b611e8b613ede565b8180600260008381526020019081526020016000206000015414611ee4576040517f08c379a0000000000000000000000000000000000000000000000000000000008152600401611edb9061519b565b60405180910390fd5b600260008481526020019081526020016000206040518060c0016040529081600082015481526020016001820160009054906101000a900473ffffffffffffffffffffffffffffffffffffffff1673ffffffffffffffffffffffffffffffffffffffff1673ffffffffffffffffffffffffffffffffffffffff1681526020016002820160405180610220016040529081600082018054611f8390615033565b80601f0160208091040260200160405190810160405280929190818152602001828054611faf90615033565b8015611ffc5780601f10611fd157610100808354040283529160200191611ffc565b820191906000526020600020905b815481529060010190602001808311611fdf57829003601f168201915b5050505050815260200160018201805461201590615033565b80601f016020809104026020016040519081016040528092919081815260200182805461204190615033565b801561208e5780601f106120635761010080835404028352916020019161208e565b820191906000526020600020905b81548152906001019060200180831161207157829003601f168201915b505050505081526020016002820180546120a790615033565b80601f01602080910402602001604051908101604052809291908181526020018280546120d390615033565b80156121205780601f106120f557610100808354040283529160200191612120565b820191906000526020600020905b81548152906001019060200180831161210357829003601f168201915b5050505050815260200160038201805461213990615033565b80601f016020809104026020016040519081016040528092919081815260200182805461216590615033565b80156121b25780601f10612187576101008083540402835291602001916121b2565b820191906000526020600020905b81548152906001019060200180831161219557829003601f168201915b505050505081526020016004820180546121cb90615033565b80601f01602080910402602001604051908101604052809291908181526020018280546121f790615033565b80156122445780601f1061221957610100808354040283529160200191612244565b820191906000526020600020905b81548152906001019060200180831161222757829003601f168201915b505050505081526020016005820160009054906101000a900460ff1615151515815260200160068201805461227890615033565b80601f01602080910402602001604051908101604052809291908181526020018280546122a490615033565b80156122f15780601f106122c6576101008083540402835291602001916122f1565b820191906000526020600020905b8154815290600101906020018083116122d457829003601f168201915b5050505050815260200160078201805461230a90615033565b80601f016020809104026020016040519081016040528092919081815260200182805461233690615033565b80156123835780601f1061235857610100808354040283529160200191612383565b820191906000526020600020905b81548152906001019060200180831161236657829003601f168201915b5050505050815260200160088201805461239c90615033565b80601f01602080910402602001604051908101604052809291908181526020018280546123c890615033565b80156124155780601f106123ea57610100808354040283529160200191612415565b820191906000526020600020905b8154815290600101906020018083116123f857829003601f168201915b5050505050815260200160098201805461242e90615033565b80601f016020809104026020016040519081016040528092919081815260200182805461245a90615033565b80156124a75780601f1061247c576101008083540402835291602001916124a7565b820191906000526020600020905b81548152906001019060200180831161248a57829003601f168201915b50505050508152602001600a820160009054906101000a900460ff16151515158152602001600b820180546124db90615033565b80601f016020809104026020016040519081016040528092919081815260200182805461250790615033565b80156125545780601f1061252957610100808354040283529160200191612554565b820191906000526020600020905b81548152906001019060200180831161253757829003601f168201915b50505050508152602001600c8201805461256d90615033565b80601f016020809104026020016040519081016040528092919081815260200182805461259990615033565b80156125e65780601f106125bb576101008083540402835291602001916125e6565b820191906000526020600020905b8154815290600101906020018083116125c957829003601f168201915b50505050508152602001600d820180546125ff90615033565b80601f016020809104026020016040519081016040528092919081815260200182805461262b90615033565b80156126785780601f1061264d57610100808354040283529160200191612678565b820191906000526020600020905b81548152906001019060200180831161265b57829003601f168201915b50505050508152602001600e8201805461269190615033565b80601f01602080910402602001604051908101604052809291908181526020018280546126bd90615033565b801561270a5780601f106126df5761010080835404028352916020019161270a565b820191906000526020600020905b8154815290600101906020018083116126ed57829003601f168201915b50505050508152602001600f8201805461272390615033565b80601f016020809104026020016040519081016040528092919081815260200182805461274f90615033565b801561279c5780601f106127715761010080835404028352916020019161279c565b820191906000526020600020905b81548152906001019060200180831161277f57829003601f168201915b505050505081526020016010820180546127b590615033565b80601f01602080910402602001604051908101604052809291908181526020018280546127e190615033565b801561282e5780601f106128035761010080835404028352916020019161282e565b820191906000526020600020905b81548152906001019060200180831161281157829003601f168201915b5050505050815250508152602001601382015481526020016014820160009054906101000a900460ff16151515158152602001601582015481525050915050919050565b606060006001549050600080600190505b8281116128ba5761289381613301565b156128a75781806128a3906150f6565b9250505b80806128b2906150f6565b915050612883565b5060008167ffffffffffffffff8111156128d7576128d6614445565b5b60405190808252806020026020018201604052801561291057816020015b6128fd613ede565b8152602001906001900390816128f55790505b509050600080600190505b8481116132f65761292b81613301565b156132e357600260008281526020019081526020016000206040518060c0016040529081600082015481526020016001820160009054906101000a900473ffffffffffffffffffffffffffffffffffffffff1673ffffffffffffffffffffffffffffffffffffffff1673ffffffffffffffffffffffffffffffffffffffff16815260200160028201604051806102200160405290816000820180546129cf90615033565b80601f01602080910402602001604051908101604052809291908181526020018280546129fb90615033565b8015612a485780601f10612a1d57610100808354040283529160200191612a48565b820191906000526020600020905b815481529060010190602001808311612a2b57829003601f168201915b50505050508152602001600182018054612a6190615033565b80601f0160208091040260200160405190810160405280929190818152602001828054612a8d90615033565b8015612ada5780601f10612aaf57610100808354040283529160200191612ada565b820191906000526020600020905b815481529060010190602001808311612abd57829003601f168201915b50505050508152602001600282018054612af390615033565b80601f0160208091040260200160405190810160405280929190818152602001828054612b1f90615033565b8015612b6c5780601f10612b4157610100808354040283529160200191612b6c565b820191906000526020600020905b815481529060010190602001808311612b4f57829003601f168201915b50505050508152602001600382018054612b8590615033565b80601f0160208091040260200160405190810160405280929190818152602001828054612bb190615033565b8015612bfe5780601f10612bd357610100808354040283529160200191612bfe565b820191906000526020600020905b815481529060010190602001808311612be157829003601f168201915b50505050508152602001600482018054612c1790615033565b80601f0160208091040260200160405190810160405280929190818152602001828054612c4390615033565b8015612c905780601f10612c6557610100808354040283529160200191612c90565b820191906000526020600020905b815481529060010190602001808311612c7357829003601f168201915b505050505081526020016005820160009054906101000a900460ff16151515158152602001600682018054612cc490615033565b80601f0160208091040260200160405190810160405280929190818152602001828054612cf090615033565b8015612d3d5780601f10612d1257610100808354040283529160200191612d3d565b820191906000526020600020905b815481529060010190602001808311612d2057829003601f168201915b50505050508152602001600782018054612d5690615033565b80601f0160208091040260200160405190810160405280929190818152602001828054612d8290615033565b8015612dcf5780601f10612da457610100808354040283529160200191612dcf565b820191906000526020600020905b815481529060010190602001808311612db257829003601f168201915b50505050508152602001600882018054612de890615033565b80601f0160208091040260200160405190810160405280929190818152602001828054612e1490615033565b8015612e615780601f10612e3657610100808354040283529160200191612e61565b820191906000526020600020905b815481529060010190602001808311612e4457829003601f168201915b50505050508152602001600982018054612e7a90615033565b80601f0160208091040260200160405190810160405280929190818152602001828054612ea690615033565b8015612ef35780601f10612ec857610100808354040283529160200191612ef3565b820191906000526020600020905b815481529060010190602001808311612ed657829003601f168201915b50505050508152602001600a820160009054906101000a900460ff16151515158152602001600b82018054612f2790615033565b80601f0160208091040260200160405190810160405280929190818152602001828054612f5390615033565b8015612fa05780601f10612f7557610100808354040283529160200191612fa0565b820191906000526020600020905b815481529060010190602001808311612f8357829003601f168201915b50505050508152602001600c82018054612fb990615033565b80601f0160208091040260200160405190810160405280929190818152602001828054612fe590615033565b80156130325780601f1061300757610100808354040283529160200191613032565b820191906000526020600020905b81548152906001019060200180831161301557829003601f168201915b50505050508152602001600d8201805461304b90615033565b80601f016020809104026020016040519081016040528092919081815260200182805461307790615033565b80156130c45780601f10613099576101008083540402835291602001916130c4565b820191906000526020600020905b8154815290600101906020018083116130a757829003601f168201915b50505050508152602001600e820180546130dd90615033565b80601f016020809104026020016040519081016040528092919081815260200182805461310990615033565b80156131565780601f1061312b57610100808354040283529160200191613156565b820191906000526020600020905b81548152906001019060200180831161313957829003601f168201915b50505050508152602001600f8201805461316f90615033565b80601f016020809104026020016040519081016040528092919081815260200182805461319b90615033565b80156131e85780601f106131bd576101008083540402835291602001916131e8565b820191906000526020600020905b8154815290600101906020018083116131cb57829003601f168201915b5050505050815260200160108201805461320190615033565b80601f016020809104026020016040519081016040528092919081815260200182805461322d90615033565b801561327a5780601f1061324f5761010080835404028352916020019161327a565b820191906000526020600020905b81548152906001019060200180831161325d57829003601f168201915b5050505050815250508152602001601382015481526020016014820160009054906101000a900460ff161515151581526020016015820154815250508383815181106132c9576132c86150c7565b5b602002602001018190525081806132df906150f6565b9250505b80806132ee906150f6565b91505061291b565b508194505050505090565b6000818060026000838152602001908152602001600020600001541461335c576040517f08c379a00000000000000000000000000000000000000000000000000000000081526004016133539061519b565b60405180910390fd5b6000600260008581526020019081526020016000206040518060c0016040529081600082015481526020016001820160009054906101000a900473ffffffffffffffffffffffffffffffffffffffff1673ffffffffffffffffffffffffffffffffffffffff1673ffffffffffffffffffffffffffffffffffffffff16815260200160028201604051806102200160405290816000820180546133fd90615033565b80601f016020809104026020016040519081016040528092919081815260200182805461342990615033565b80156134765780601f1061344b57610100808354040283529160200191613476565b820191906000526020600020905b81548152906001019060200180831161345957829003601f168201915b5050505050815260200160018201805461348f90615033565b80601f01602080910402602001604051908101604052809291908181526020018280546134bb90615033565b80156135085780601f106134dd57610100808354040283529160200191613508565b820191906000526020600020905b8154815290600101906020018083116134eb57829003601f168201915b5050505050815260200160028201805461352190615033565b80601f016020809104026020016040519081016040528092919081815260200182805461354d90615033565b801561359a5780601f1061356f5761010080835404028352916020019161359a565b820191906000526020600020905b81548152906001019060200180831161357d57829003601f168201915b505050505081526020016003820180546135b390615033565b80601f01602080910402602001604051908101604052809291908181526020018280546135df90615033565b801561362c5780601f106136015761010080835404028352916020019161362c565b820191906000526020600020905b81548152906001019060200180831161360f57829003601f168201915b5050505050815260200160048201805461364590615033565b80601f016020809104026020016040519081016040528092919081815260200182805461367190615033565b80156136be5780601f10613693576101008083540402835291602001916136be565b820191906000526020600020905b8154815290600101906020018083116136a157829003601f168201915b505050505081526020016005820160009054906101000a900460ff161515151581526020016006820180546136f290615033565b80601f016020809104026020016040519081016040528092919081815260200182805461371e90615033565b801561376b5780601f106137405761010080835404028352916020019161376b565b820191906000526020600020905b81548152906001019060200180831161374e57829003601f168201915b5050505050815260200160078201805461378490615033565b80601f01602080910402602001604051908101604052809291908181526020018280546137b090615033565b80156137fd5780601f106137d2576101008083540402835291602001916137fd565b820191906000526020600020905b8154815290600101906020018083116137e057829003601f168201915b5050505050815260200160088201805461381690615033565b80601f016020809104026020016040519081016040528092919081815260200182805461384290615033565b801561388f5780601f106138645761010080835404028352916020019161388f565b820191906000526020600020905b81548152906001019060200180831161387257829003601f168201915b505050505081526020016009820180546138a890615033565b80601f01602080910402602001604051908101604052809291908181526020018280546138d490615033565b80156139215780601f106138f657610100808354040283529160200191613921565b820191906000526020600020905b81548152906001019060200180831161390457829003601f168201915b50505050508152602001600a820160009054906101000a900460ff16151515158152602001600b8201805461395590615033565b80601f016020809104026020016040519081016040528092919081815260200182805461398190615033565b80156139ce5780601f106139a3576101008083540402835291602001916139ce565b820191906000526020600020905b8154815290600101906020018083116139b157829003601f168201915b50505050508152602001600c820180546139e790615033565b80601f0160208091040260200160405190810160405280929190818152602001828054613a1390615033565b8015613a605780601f10613a3557610100808354040283529160200191613a60565b820191906000526020600020905b815481529060010190602001808311613a4357829003601f168201915b50505050508152602001600d82018054613a7990615033565b80601f0160208091040260200160405190810160405280929190818152602001828054613aa590615033565b8015613af25780601f10613ac757610100808354040283529160200191613af2565b820191906000526020600020905b815481529060010190602001808311613ad557829003601f168201915b50505050508152602001600e82018054613b0b90615033565b80601f0160208091040260200160405190810160405280929190818152602001828054613b3790615033565b8015613b845780601f10613b5957610100808354040283529160200191613b84565b820191906000526020600020905b815481529060010190602001808311613b6757829003601f168201915b50505050508152602001600f82018054613b9d90615033565b80601f0160208091040260200160405190810160405280929190818152602001828054613bc990615033565b8015613c165780601f10613beb57610100808354040283529160200191613c16565b820191906000526020600020905b815481529060010190602001808311613bf957829003601f168201915b50505050508152602001601082018054613c2f90615033565b80601f0160208091040260200160405190810160405280929190818152602001828054613c5b90615033565b8015613ca85780601f10613c7d57610100808354040283529160200191613ca8565b820191906000526020600020905b815481529060010190602001808311613c8b57829003601f168201915b5050505050815250508152602001601382015481526020016014820160009054906101000a900460ff161515151581526020016015820154815250509050620151808160a00151613cf99190615852565b42101592505050919050565b613d0d613d8b565b600073ffffffffffffffffffffffffffffffffffffffff168173ffffffffffffffffffffffffffffffffffffffff1603613d7f5760006040517f1e4fbdf7000000000000000000000000000000000000000000000000000000008152600401613d7691906148c9565b60405180910390fd5b613d8881613e12565b50565b613d93613ed6565b73ffffffffffffffffffffffffffffffffffffffff16613db1611a28565b73ffffffffffffffffffffffffffffffffffffffff1614613e1057613dd4613ed6565b6040517f118cdaa7000000000000000000000000000000000000000000000000000000008152600401613e0791906148c9565b60405180910390fd5b565b60008060009054906101000a900473ffffffffffffffffffffffffffffffffffffffff169050816000806101000a81548173ffffffffffffffffffffffffffffffffffffffff021916908373ffffffffffffffffffffffffffffffffffffffff1602179055508173ffffffffffffffffffffffffffffffffffffffff168173ffffffffffffffffffffffffffffffffffffffff167f8be0079c531659141344cd1fd0a4f28419497f9722a3daafe3b4186f6b6457e060405160405180910390a35050565b600033905090565b6040518060c0016040528060008152602001600073ffffffffffffffffffffffffffffffffffffffff168152602001613f15613f32565b815260200160008152602001600015158152602001600081525090565b6040518061022001604052806060815260200160608152602001606081526020016060815260200160608152602001600015158152602001606081526020016060815260200160608152602001606081526020016000151581526020016060815260200160608152602001606081526020016060815260200160608152602001606081525090565b600081519050919050565b600082825260208201905092915050565b6000819050602082019050919050565b6000819050919050565b613ff981613fe6565b82525050565b600073ffffffffffffffffffffffffffffffffffffffff82169050919050565b600061402a82613fff565b9050919050565b61403a8161401f565b82525050565b600081519050919050565b600082825260208201905092915050565b60005b8381101561407a57808201518184015260208101905061405f565b60008484015250505050565b6000601f19601f8301169050919050565b60006140a282614040565b6140ac818561404b565b93506140bc81856020860161405c565b6140c581614086565b840191505092915050565b60008115159050919050565b6140e5816140d0565b82525050565b60006102208301600083015184820360008601526141098282614097565b915050602083015184820360208601526141238282614097565b9150506040830151848203604086015261413d8282614097565b915050606083015184820360608601526141578282614097565b915050608083015184820360808601526141718282614097565b91505060a083015161418660a08601826140dc565b5060c083015184820360c086015261419e8282614097565b91505060e083015184820360e08601526141b88282614097565b9150506101008301518482036101008601526141d48282614097565b9150506101208301518482036101208601526141f08282614097565b9150506101408301516142076101408601826140dc565b506101608301518482036101608601526142218282614097565b91505061018083015184820361018086015261423d8282614097565b9150506101a08301518482036101a08601526142598282614097565b9150506101c08301518482036101c08601526142758282614097565b9150506101e08301518482036101e08601526142918282614097565b9150506102008301518482036102008601526142ad8282614097565b9150508091505092915050565b600060c0830160008301516142d26000860182613ff0565b5060208301516142e56020860182614031565b50604083015184820360408601526142fd82826140eb565b91505060608301516143126060860182613ff0565b50608083015161432560808601826140dc565b5060a083015161433860a0860182613ff0565b508091505092915050565b600061434f83836142ba565b905092915050565b6000602082019050919050565b600061436f82613fba565b6143798185613fc5565b93508360208202850161438b85613fd6565b8060005b858110156143c757848403895281516143a88582614343565b94506143b383614357565b925060208a0199505060018101905061438f565b50829750879550505050505092915050565b600060208201905081810360008301526143f38184614364565b905092915050565b6000604051905090565b600080fd5b600080fd5b61441881613fe6565b811461442357600080fd5b50565b6000813590506144358161440f565b92915050565b600080fd5b600080fd5b7f4e487b7100000000000000000000000000000000000000000000000000000000600052604160045260246000fd5b61447d82614086565b810181811067ffffffffffffffff8211171561449c5761449b614445565b5b80604052505050565b60006144af6143fb565b90506144bb8282614474565b919050565b600067ffffffffffffffff8211156144db576144da614445565b5b6144e482614086565b9050602081019050919050565b82818337600083830152505050565b600061451361450e846144c0565b6144a5565b90508281526020810184848401111561452f5761452e614440565b5b61453a8482856144f1565b509392505050565b600082601f8301126145575761455661443b565b5b8135614567848260208601614500565b91505092915050565b6000806040838503121561458757614586614405565b5b600061459585828601614426565b925050602083013567ffffffffffffffff8111156145b6576145b561440a565b5b6145c285828601614542565b9150509250929050565b6145d58161401f565b81146145e057600080fd5b50565b6000813590506145f2816145cc565b92915050565b6000806040838503121561460f5761460e614405565b5b600061461d85828601614426565b925050602061462e858286016145e3565b9150509250929050565b60006020828403121561464e5761464d614405565b5b600061465c84828501614426565b91505092915050565b61466e81613fe6565b82525050565b61467d8161401f565b82525050565b60006102208301600083015184820360008601526146a18282614097565b915050602083015184820360208601526146bb8282614097565b915050604083015184820360408601526146d58282614097565b915050606083015184820360608601526146ef8282614097565b915050608083015184820360808601526147098282614097565b91505060a083015161471e60a08601826140dc565b5060c083015184820360c08601526147368282614097565b91505060e083015184820360e08601526147508282614097565b91505061010083015184820361010086015261476c8282614097565b9150506101208301518482036101208601526147888282614097565b91505061014083015161479f6101408601826140dc565b506101608301518482036101608601526147b98282614097565b9150506101808301518482036101808601526147d58282614097565b9150506101a08301518482036101a08601526147f18282614097565b9150506101c08301518482036101c086015261480d8282614097565b9150506101e08301518482036101e08601526148298282614097565b9150506102008301518482036102008601526148458282614097565b9150508091505092915050565b61485b816140d0565b82525050565b600060c0820190506148766000830189614665565b6148836020830188614674565b81810360408301526148958187614683565b90506148a46060830186614665565b6148b16080830185614852565b6148be60a0830184614665565b979650505050505050565b60006020820190506148de6000830184614674565b92915050565b6000819050919050565b60006149096149046148ff84613fff565b6148e4565b613fff565b9050919050565b600061491b826148ee565b9050919050565b600061492d82614910565b9050919050565b61493d81614922565b82525050565b60006020820190506149586000830184614934565b92915050565b60006020820190506149736000830184614852565b92915050565b600080fd5b600080fd5b61498c816140d0565b811461499757600080fd5b50565b6000813590506149a981614983565b92915050565b600061022082840312156149c6576149c5614979565b5b6149d16102206144a5565b9050600082013567ffffffffffffffff8111156149f1576149f061497e565b5b6149fd84828501614542565b600083015250602082013567ffffffffffffffff811115614a2157614a2061497e565b5b614a2d84828501614542565b602083015250604082013567ffffffffffffffff811115614a5157614a5061497e565b5b614a5d84828501614542565b604083015250606082013567ffffffffffffffff811115614a8157614a8061497e565b5b614a8d84828501614542565b606083015250608082013567ffffffffffffffff811115614ab157614ab061497e565b5b614abd84828501614542565b60808301525060a0614ad18482850161499a565b60a08301525060c082013567ffffffffffffffff811115614af557614af461497e565b5b614b0184828501614542565b60c08301525060e082013567ffffffffffffffff811115614b2557614b2461497e565b5b614b3184828501614542565b60e08301525061010082013567ffffffffffffffff811115614b5657614b5561497e565b5b614b6284828501614542565b6101008301525061012082013567ffffffffffffffff811115614b8857614b8761497e565b5b614b9484828501614542565b61012083015250610140614baa8482850161499a565b6101408301525061016082013567ffffffffffffffff811115614bd057614bcf61497e565b5b614bdc84828501614542565b6101608301525061018082013567ffffffffffffffff811115614c0257614c0161497e565b5b614c0e84828501614542565b610180830152506101a082013567ffffffffffffffff811115614c3457614c3361497e565b5b614c4084828501614542565b6101a0830152506101c082013567ffffffffffffffff811115614c6657614c6561497e565b5b614c7284828501614542565b6101c0830152506101e082013567ffffffffffffffff811115614c9857614c9761497e565b5b614ca484828501614542565b6101e08301525061020082013567ffffffffffffffff811115614cca57614cc961497e565b5b614cd684828501614542565b6102008301525092915050565b600067ffffffffffffffff821115614cfe57614cfd614445565b5b602082029050602081019050919050565b600080fd5b6000614d27614d2284614ce3565b6144a5565b90508083825260208201905060208402830185811115614d4a57614d49614d0f565b5b835b81811015614d9157803567ffffffffffffffff811115614d6f57614d6e61443b565b5b808601614d7c8982614542565b85526020850194505050602081019050614d4c565b5050509392505050565b600082601f830112614db057614daf61443b565b5b8135614dc0848260208601614d14565b91505092915050565b600060a08284031215614ddf57614dde614979565b5b614de960a06144a5565b90506000614df984828501614426565b600083015250602082013567ffffffffffffffff811115614e1d57614e1c61497e565b5b614e2984828501614542565b602083015250604082013567ffffffffffffffff811115614e4d57614e4c61497e565b5b614e5984828501614d9b565b6040830152506060614e6d84828501614426565b6060830152506080614e8184828501614426565b60808301525092915050565b60008060008060808587031215614ea757614ea6614405565b5b6000614eb5878288016145e3565b945050602085013567ffffffffffffffff811115614ed657614ed561440a565b5b614ee2878288016149af565b9350506040614ef38782880161499a565b925050606085013567ffffffffffffffff811115614f1457614f1361440a565b5b614f2087828801614dc9565b91505092959194509250565b600060c083016000830151614f446000860182613ff0565b506020830151614f576020860182614031565b5060408301518482036040860152614f6f82826140eb565b9150506060830151614f846060860182613ff0565b506080830151614f9760808601826140dc565b5060a0830151614faa60a0860182613ff0565b508091505092915050565b60006020820190508181036000830152614fcf8184614f2c565b905092915050565b600060208284031215614fed57614fec614405565b5b6000614ffb848285016145e3565b91505092915050565b7f4e487b7100000000000000000000000000000000000000000000000000000000600052602260045260246000fd5b6000600282049050600182168061504b57607f821691505b60208210810361505e5761505d615004565b5b50919050565b7f4e487b7100000000000000000000000000000000000000000000000000000000600052601160045260246000fd5b600061509e82613fe6565b91506150a983613fe6565b92508282039050818111156150c1576150c0615064565b5b92915050565b7f4e487b7100000000000000000000000000000000000000000000000000000000600052603260045260246000fd5b600061510182613fe6565b91507fffffffffffffffffffffffffffffffffffffffffffffffffffffffffffffffff820361513357615132615064565b5b600182019050919050565b600082825260208201905092915050565b7f50726f6475637420646f6573206e6f7420657869737400000000000000000000600082015250565b600061518560168361513e565b91506151908261514f565b602082019050919050565b600060208201905081810360008301526151b481615178565b9050919050565b7f4f6e6c79207468652070726f64756374206f776e65722063616e20706572666f60008201527f726d207468697320616374696f6e000000000000000000000000000000000000602082015250565b6000615217602e8361513e565b9150615222826151bb565b604082019050919050565b600060208201905081810360008301526152468161520a565b9050919050565b60008190508160005260206000209050919050565b60006020601f8301049050919050565b600082821b905092915050565b6000600883026152af7fffffffffffffffffffffffffffffffffffffffffffffffffffffffffffffffff82615272565b6152b98683615272565b95508019841693508086168417925050509392505050565b60006152ec6152e76152e284613fe6565b6148e4565b613fe6565b9050919050565b6000819050919050565b615306836152d1565b61531a615312826152f3565b84845461527f565b825550505050565b600090565b61532f615322565b61533a8184846152fd565b505050565b5b8181101561535e57615353600082615327565b600181019050615340565b5050565b601f8211156153a3576153748161524d565b61537d84615262565b8101602085101561538c578190505b6153a061539885615262565b83018261533f565b50505b505050565b600082821c905092915050565b60006153c6600019846008026153a8565b1980831691505092915050565b60006153df83836153b5565b9150826002028217905092915050565b6153f882614040565b67ffffffffffffffff81111561541157615410614445565b5b61541b8254615033565b615426828285615362565b600060209050601f8311600181146154595760008415615447578287015190505b61545185826153d3565b8655506154b9565b601f1984166154678661524d565b60005b8281101561548f5784890151825560018201915060208501945060208101905061546a565b868310156154ac57848901516154a8601f8916826153b5565b8355505b6001600288020188555050505b505050505050565b60006154cc82614040565b6154d6818561513e565b93506154e681856020860161405c565b6154ef81614086565b840191505092915050565b6000602082019050818103600083015261551481846154c1565b905092915050565b7f50726f64756374206f776e65722063616e6e6f74207570766f7465207468656960008201527f72206f776e2070726f6475637400000000000000000000000000000000000000602082015250565b6000615578602d8361513e565b91506155838261551c565b604082019050919050565b600060208201905081810360008301526155a78161556b565b9050919050565b7f557365722068617320616c7265616479207570766f746564207468697320707260008201527f6f64756374000000000000000000000000000000000000000000000000000000602082015250565b600061560a60258361513e565b9150615615826155ae565b604082019050919050565b60006020820190508181036000830152615639816155fd565b9050919050565b7f426574612074657374696e67206c696e6b207265717569726564000000000000600082015250565b6000615676601a8361513e565b915061568182615640565b602082019050919050565b600060208201905081810360008301526156a581615669565b9050919050565b600081519050919050565b600082825260208201905092915050565b6000819050602082019050919050565b60006156e48383614097565b905092915050565b6000602082019050919050565b6000615704826156ac565b61570e81856156b7565b935083602082028501615720856156c8565b8060005b8581101561575c578484038952815161573d85826156d8565b9450615748836156ec565b925060208a01995050600181019050615724565b50829750879550505050505092915050565b600060a0830160008301516157866000860182613ff0565b506020830151848203602086015261579e8282614097565b915050604083015184820360408601526157b882826156f9565b91505060608301516157cd6060860182613ff0565b5060808301516157e06080860182613ff0565b508091505092915050565b60006040820190506158006000830185614665565b8181036020830152615812818461576e565b90509392505050565b6000604082019050818103600083015261583581856154c1565b9050818103602083015261584981846154c1565b90509392505050565b600061585d82613fe6565b915061586883613fe6565b92508282019050808211156158805761587f615064565b5b9291505056fea26469706673582212200b13c9bb4243c55e651d33df40cfe1afeeff4b17029174a8793af034a8f5011564736f6c63430008180033",
  "linkReferences": {},
  "deployedLinkReferences": {}
}