{
  "_format": "hh-sol-artifact-1",
  "contractName": "Review",
  "sourceName": "contracts/Review.sol",
  "abi": [
    {
      "inputs": [],
      "name": "InvalidInitialization",
      "type": "error"
    },
    {
      "inputs": [],
      "name": "NotInitializing",
      "type": "error"
    },
    {
      "anonymous": false,
      "inputs": [
        {
          "indexed": false,
          "internalType": "uint64",
          "name": "version",
          "type": "uint64"
        }
      ],
      "name": "Initialized",
      "type": "event"
    },
    {
      "anonymous": false,
      "inputs": [
        {
          "indexed": true,
          "internalType": "uint256",
          "name": "productId",
          "type": "uint256"
        },
        {
          "indexed": true,
          "internalType": "address",
          "name": "reviewer",
          "type": "address"
        },
        {
          "indexed": false,
          "internalType": "string",
          "name": "content",
          "type": "string"
        },
        {
          "indexed": false,
          "internalType": "uint256",
          "name": "rating",
          "type": "uint256"
        }
      ],
      "name": "ReviewAdded",
      "type": "event"
    },
    {
      "inputs": [
        {
          "internalType": "address",
          "name": "_reviewer",
          "type": "address"
        },
        {
          "internalType": "uint256",
          "name": "_productId",
          "type": "uint256"
        },
        {
          "internalType": "string",
          "name": "_content",
          "type": "string"
        },
        {
          "internalType": "uint256",
          "name": "_rating",
          "type": "uint256"
        }
      ],
      "name": "addReview",
      "outputs": [],
      "stateMutability": "nonpayable",
      "type": "function"
    },
    {
      "inputs": [
        {
          "internalType": "uint256",
          "name": "_productId",
          "type": "uint256"
        },
        {
          "internalType": "uint256",
          "name": "_reviewId",
          "type": "uint256"
        }
      ],
      "name": "getReview",
      "outputs": [
        {
          "components": [
            {
              "internalType": "address",
              "name": "reviewer",
              "type": "address"
            },
            {
              "internalType": "string",
              "name": "content",
              "type": "string"
            },
            {
              "internalType": "uint256",
              "name": "rating",
              "type": "uint256"
            },
            {
              "internalType": "uint256",
              "name": "timestamp",
              "type": "uint256"
            }
          ],
          "internalType": "struct Review.ReviewInfo",
          "name": "",
          "type": "tuple"
        }
      ],
      "stateMutability": "view",
      "type": "function"
    },
    {
      "inputs": [
        {
          "internalType": "uint256",
          "name": "_productId",
          "type": "uint256"
        },
        {
          "internalType": "uint256",
          "name": "_reviewId",
          "type": "uint256"
        }
      ],
      "name": "getReviewer",
      "outputs": [
        {
          "internalType": "address",
          "name": "",
          "type": "address"
        }
      ],
      "stateMutability": "view",
      "type": "function"
    },
    {
      "inputs": [
        {
          "internalType": "uint256",
          "name": "_productId",
          "type": "uint256"
        }
      ],
      "name": "getReviews",
      "outputs": [
        {
          "components": [
            {
              "internalType": "address",
              "name": "reviewer",
              "type": "address"
            },
            {
              "internalType": "string",
              "name": "content",
              "type": "string"
            },
            {
              "internalType": "uint256",
              "name": "rating",
              "type": "uint256"
            },
            {
              "internalType": "uint256",
              "name": "timestamp",
              "type": "uint256"
            }
          ],
          "internalType": "struct Review.ReviewInfo[]",
          "name": "",
          "type": "tuple[]"
        }
      ],
      "stateMutability": "view",
      "type": "function"
    },
    {
      "inputs": [
        {
          "internalType": "uint256",
          "name": "_productId",
          "type": "uint256"
        }
      ],
      "name": "getReviewsCount",
      "outputs": [
        {
          "internalType": "uint256",
          "name": "",
          "type": "uint256"
        }
      ],
      "stateMutability": "view",
      "type": "function"
    },
    {
      "inputs": [
        {
          "internalType": "uint256",
          "name": "",
          "type": "uint256"
        },
        {
          "internalType": "address",
          "name": "",
          "type": "address"
        }
      ],
      "name": "hasReviewed",
      "outputs": [
        {
          "internalType": "bool",
          "name": "",
          "type": "bool"
        }
      ],
      "stateMutability": "view",
      "type": "function"
    },
    {
      "inputs": [
        {
          "internalType": "address",
          "name": "productAddress",
          "type": "address"
        }
      ],
      "name": "initialize",
      "outputs": [],
      "stateMutability": "nonpayable",
      "type": "function"
    },
    {
      "inputs": [
        {
          "internalType": "uint256",
          "name": "",
          "type": "uint256"
        },
        {
          "internalType": "uint256",
          "name": "",
          "type": "uint256"
        }
      ],
      "name": "productReviews",
      "outputs": [
        {
          "internalType": "address",
          "name": "reviewer",
          "type": "address"
        },
        {
          "internalType": "string",
          "name": "content",
          "type": "string"
        },
        {
          "internalType": "uint256",
          "name": "rating",
          "type": "uint256"
        },
        {
          "internalType": "uint256",
          "name": "timestamp",
          "type": "uint256"
        }
      ],
      "stateMutability": "view",
      "type": "function"
    },
    {
      "inputs": [
        {
          "internalType": "address",
          "name": "_reviewer",
          "type": "address"
        },
        {
          "internalType": "uint256",
          "name": "_productId",
          "type": "uint256"
        },
        {
          "internalType": "string",
          "name": "_content",
          "type": "string"
        },
        {
          "internalType": "uint256",
          "name": "_rating",
          "type": "uint256"
        }
      ],
      "name": "updateReview",
      "outputs": [],
      "stateMutability": "nonpayable",
      "type": "function"
    }
  ],
  "bytecode": "0x608060405234801561001057600080fd5b50612b8b806100206000396000f3fe608060405234801561001057600080fd5b50600436106100935760003560e01c80639d4a2255116100665780639d4a225514610130578063c4d66de814610160578063dcfe3e081461017c578063dfa505ed146101ac578063f2943dce146101dc57610093565b80635abbff2c146100985780637376ccfd146100b45780637c7198cc146100e457806382bb560b14610114575b600080fd5b6100b260048036038101906100ad91906117d9565b61020f565b005b6100ce60048036038101906100c9919061185c565b610620565b6040516100db91906118ab565b60405180910390f35b6100fe60048036038101906100f991906118c6565b6107c7565b60405161010b9190611921565b60405180910390f35b61012e600480360381019061012991906117d9565b6107f6565b005b61014a6004803603810190610145919061193c565b610cd8565b6040516101579190611b2b565b60405180910390f35b61017a60048036038101906101759190611b4d565b610f30565b005b6101966004803603810190610191919061193c565b6110f6565b6040516101a39190611b89565b60405180910390f35b6101c660048036038101906101c1919061185c565b611200565b6040516101d39190611c07565b60405180910390f35b6101f660048036038101906101f1919061185c565b611490565b6040516102069493929190611c73565b60405180910390f35b828060008054906101000a900473ffffffffffffffffffffffffffffffffffffffff1673ffffffffffffffffffffffffffffffffffffffff1663b9db15b4836040518263ffffffff1660e01b815260040161026a9190611b89565b600060405180830381865afa158015610287573d6000803e3d6000fd5b505050506040513d6000823e3d601f19601f820116820180604052508101906102b09190612425565b6000015160000151146102f8576040517f08c379a00000000000000000000000000000000000000000000000000000000081526004016102ef906124ba565b60405180910390fd5b8160008111801561030a575060058111155b610349576040517f08c379a000000000000000000000000000000000000000000000000000000000815260040161034090612526565b60405180910390fd5b83600081511161038e576040517f08c379a000000000000000000000000000000000000000000000000000000000815260040161038590612592565b60405180910390fd5b85878073ffffffffffffffffffffffffffffffffffffffff1660008054906101000a900473ffffffffffffffffffffffffffffffffffffffff1673ffffffffffffffffffffffffffffffffffffffff1663b9db15b4846040518263ffffffff1660e01b81526004016104009190611b89565b600060405180830381865afa15801561041d573d6000803e3d6000fd5b505050506040513d6000823e3d601f19601f820116820180604052508101906104469190612425565b600001516020015173ffffffffffffffffffffffffffffffffffffffff16036104a4576040517f08c379a000000000000000000000000000000000000000000000000000000000815260040161049b90612624565b60405180910390fd5b6000600160008a8152602001908152602001600020905060005b81805490508110156105d9578a73ffffffffffffffffffffffffffffffffffffffff168282815481106104f4576104f3612644565b5b906000526020600020906004020160000160009054906101000a900473ffffffffffffffffffffffffffffffffffffffff1673ffffffffffffffffffffffffffffffffffffffff16036105cc578882828154811061055557610554612644565b5b90600052602060002090600402016001019081610572919061287f565b508782828154811061058757610586612644565b5b906000526020600020906004020160020181905550428282815481106105b0576105af612644565b5b9060005260206000209060040201600301819055505050610615565b80806001019150506104be565b506040517f08c379a000000000000000000000000000000000000000000000000000000000815260040161060c9061299d565b60405180910390fd5b505050505050505050565b6000828060008054906101000a900473ffffffffffffffffffffffffffffffffffffffff1673ffffffffffffffffffffffffffffffffffffffff1663b9db15b4836040518263ffffffff1660e01b815260040161067d9190611b89565b600060405180830381865afa15801561069a573d6000803e3d6000fd5b505050506040513d6000823e3d601f19601f820116820180604052508101906106c39190612425565b60000151600001511461070b576040517f08c379a0000000000000000000000000000000000000000000000000000000008152600401610702906124ba565b60405180910390fd5b838360016000838152602001908152602001600020805490508110610765576040517f08c379a000000000000000000000000000000000000000000000000000000000815260040161075c90612a09565b60405180910390fd5b60016000878152602001908152602001600020858154811061078a57610789612644565b5b906000526020600020906004020160000160009054906101000a900473ffffffffffffffffffffffffffffffffffffffff16935050505092915050565b60026020528160005260406000206020528060005260406000206000915091509054906101000a900460ff1681565b828060008054906101000a900473ffffffffffffffffffffffffffffffffffffffff1673ffffffffffffffffffffffffffffffffffffffff1663b9db15b4836040518263ffffffff1660e01b81526004016108519190611b89565b600060405180830381865afa15801561086e573d6000803e3d6000fd5b505050506040513d6000823e3d601f19601f820116820180604052508101906108979190612425565b6000015160000151146108df576040517f08c379a00000000000000000000000000000000000000000000000000000000081526004016108d6906124ba565b60405180910390fd5b816000811180156108f1575060058111155b610930576040517f08c379a000000000000000000000000000000000000000000000000000000000815260040161092790612526565b60405180910390fd5b836000815111610975576040517f08c379a000000000000000000000000000000000000000000000000000000000815260040161096c90612592565b60405180910390fd5b85878073ffffffffffffffffffffffffffffffffffffffff1660008054906101000a900473ffffffffffffffffffffffffffffffffffffffff1673ffffffffffffffffffffffffffffffffffffffff1663b9db15b4846040518263ffffffff1660e01b81526004016109e79190611b89565b600060405180830381865afa158015610a04573d6000803e3d6000fd5b505050506040513d6000823e3d601f19601f82011682018060405250810190610a2d9190612425565b600001516020015173ffffffffffffffffffffffffffffffffffffffff1603610a8b576040517f08c379a0000000000000000000000000000000000000000000000000000000008152600401610a8290612624565b60405180910390fd5b87896002600083815260200190815260200160002060008273ffffffffffffffffffffffffffffffffffffffff1673ffffffffffffffffffffffffffffffffffffffff16815260200190815260200160002060009054906101000a900460ff1615610b2b576040517f08c379a0000000000000000000000000000000000000000000000000000000008152600401610b2290612a9b565b60405180910390fd5b600160008b815260200190815260200160002060405180608001604052808d73ffffffffffffffffffffffffffffffffffffffff1681526020018b81526020018a815260200142815250908060018154018082558091505060019003906000526020600020906004020160009091909190915060008201518160000160006101000a81548173ffffffffffffffffffffffffffffffffffffffff021916908373ffffffffffffffffffffffffffffffffffffffff1602179055506020820151816001019081610bfa919061287f565b50604082015181600201556060820151816003015550506001600260008c815260200190815260200160002060008d73ffffffffffffffffffffffffffffffffffffffff1673ffffffffffffffffffffffffffffffffffffffff16815260200190815260200160002060006101000a81548160ff0219169083151502179055508a73ffffffffffffffffffffffffffffffffffffffff168a7ff5b48fcd3f5e0ef5f6f5a50588fc666bda623b19888849dd6149681e96b637358b8b604051610cc3929190612abb565b60405180910390a35050505050505050505050565b6060818060008054906101000a900473ffffffffffffffffffffffffffffffffffffffff1673ffffffffffffffffffffffffffffffffffffffff1663b9db15b4836040518263ffffffff1660e01b8152600401610d359190611b89565b600060405180830381865afa158015610d52573d6000803e3d6000fd5b505050506040513d6000823e3d601f19601f82011682018060405250810190610d7b9190612425565b600001516000015114610dc3576040517f08c379a0000000000000000000000000000000000000000000000000000000008152600401610dba906124ba565b60405180910390fd5b60016000848152602001908152602001600020805480602002602001604051908101604052809291908181526020016000905b82821015610f2457838290600052602060002090600402016040518060800160405290816000820160009054906101000a900473ffffffffffffffffffffffffffffffffffffffff1673ffffffffffffffffffffffffffffffffffffffff1673ffffffffffffffffffffffffffffffffffffffff168152602001600182018054610e7f906126a2565b80601f0160208091040260200160405190810160405280929190818152602001828054610eab906126a2565b8015610ef85780601f10610ecd57610100808354040283529160200191610ef8565b820191906000526020600020905b815481529060010190602001808311610edb57829003601f168201915b505050505081526020016002820154815260200160038201548152505081526020019060010190610df6565b50505050915050919050565b6000610f3a611585565b905060008160000160089054906101000a900460ff1615905060008260000160009054906101000a900467ffffffffffffffff1690506000808267ffffffffffffffff16148015610f885750825b9050600060018367ffffffffffffffff16148015610fbd575060003073ffffffffffffffffffffffffffffffffffffffff163b145b905081158015610fcb575080155b15611002576040517ff92ee8a900000000000000000000000000000000000000000000000000000000815260040160405180910390fd5b60018560000160006101000a81548167ffffffffffffffff021916908367ffffffffffffffff16021790555083156110525760018560000160086101000a81548160ff0219169083151502179055505b856000806101000a81548173ffffffffffffffffffffffffffffffffffffffff021916908373ffffffffffffffffffffffffffffffffffffffff16021790555083156110ee5760008560000160086101000a81548160ff0219169083151502179055507fc7f505b2f371ae2175ee4913f4499e1f2633a7b5936321eed1cdaeb6115181d260016040516110e59190612b3a565b60405180910390a15b505050505050565b6000818060008054906101000a900473ffffffffffffffffffffffffffffffffffffffff1673ffffffffffffffffffffffffffffffffffffffff1663b9db15b4836040518263ffffffff1660e01b81526004016111539190611b89565b600060405180830381865afa158015611170573d6000803e3d6000fd5b505050506040513d6000823e3d601f19601f820116820180604052508101906111999190612425565b6000015160000151146111e1576040517f08c379a00000000000000000000000000000000000000000000000000000000081526004016111d8906124ba565b60405180910390fd5b6001600084815260200190815260200160002080549050915050919050565b6112086115ad565b828060008054906101000a900473ffffffffffffffffffffffffffffffffffffffff1673ffffffffffffffffffffffffffffffffffffffff1663b9db15b4836040518263ffffffff1660e01b81526004016112639190611b89565b600060405180830381865afa158015611280573d6000803e3d6000fd5b505050506040513d6000823e3d601f19601f820116820180604052508101906112a99190612425565b6000015160000151146112f1576040517f08c379a00000000000000000000000000000000000000000000000000000000081526004016112e8906124ba565b60405180910390fd5b83836001600083815260200190815260200160002080549050811061134b576040517f08c379a000000000000000000000000000000000000000000000000000000000815260040161134290612a09565b60405180910390fd5b6001600087815260200190815260200160002085815481106113705761136f612644565b5b90600052602060002090600402016040518060800160405290816000820160009054906101000a900473ffffffffffffffffffffffffffffffffffffffff1673ffffffffffffffffffffffffffffffffffffffff1673ffffffffffffffffffffffffffffffffffffffff1681526020016001820180546113ef906126a2565b80601f016020809104026020016040519081016040528092919081815260200182805461141b906126a2565b80156114685780601f1061143d57610100808354040283529160200191611468565b820191906000526020600020905b81548152906001019060200180831161144b57829003601f168201915b5050505050815260200160028201548152602001600382015481525050935050505092915050565b600160205281600052604060002081815481106114ac57600080fd5b9060005260206000209060040201600091509150508060000160009054906101000a900473ffffffffffffffffffffffffffffffffffffffff16908060010180546114f6906126a2565b80601f0160208091040260200160405190810160405280929190818152602001828054611522906126a2565b801561156f5780601f106115445761010080835404028352916020019161156f565b820191906000526020600020905b81548152906001019060200180831161155257829003601f168201915b5050505050908060020154908060030154905084565b60007ff0c57e16840df040f15088dc2f81fe391c3923bec73e23a9662efc9c229c6a00905090565b6040518060800160405280600073ffffffffffffffffffffffffffffffffffffffff1681526020016060815260200160008152602001600081525090565b6000604051905090565b600080fd5b600080fd5b600073ffffffffffffffffffffffffffffffffffffffff82169050919050565b600061162a826115ff565b9050919050565b61163a8161161f565b811461164557600080fd5b50565b60008135905061165781611631565b92915050565b6000819050919050565b6116708161165d565b811461167b57600080fd5b50565b60008135905061168d81611667565b92915050565b600080fd5b600080fd5b6000601f19601f8301169050919050565b7f4e487b7100000000000000000000000000000000000000000000000000000000600052604160045260246000fd5b6116e68261169d565b810181811067ffffffffffffffff82111715611705576117046116ae565b5b80604052505050565b60006117186115eb565b905061172482826116dd565b919050565b600067ffffffffffffffff821115611744576117436116ae565b5b61174d8261169d565b9050602081019050919050565b82818337600083830152505050565b600061177c61177784611729565b61170e565b90508281526020810184848401111561179857611797611698565b5b6117a384828561175a565b509392505050565b600082601f8301126117c0576117bf611693565b5b81356117d0848260208601611769565b91505092915050565b600080600080608085870312156117f3576117f26115f5565b5b600061180187828801611648565b94505060206118128782880161167e565b935050604085013567ffffffffffffffff811115611833576118326115fa565b5b61183f878288016117ab565b92505060606118508782880161167e565b91505092959194509250565b60008060408385031215611873576118726115f5565b5b60006118818582860161167e565b92505060206118928582860161167e565b9150509250929050565b6118a58161161f565b82525050565b60006020820190506118c0600083018461189c565b92915050565b600080604083850312156118dd576118dc6115f5565b5b60006118eb8582860161167e565b92505060206118fc85828601611648565b9150509250929050565b60008115159050919050565b61191b81611906565b82525050565b60006020820190506119366000830184611912565b92915050565b600060208284031215611952576119516115f5565b5b60006119608482850161167e565b91505092915050565b600081519050919050565b600082825260208201905092915050565b6000819050602082019050919050565b61199e8161161f565b82525050565b600081519050919050565b600082825260208201905092915050565b60005b838110156119de5780820151818401526020810190506119c3565b60008484015250505050565b60006119f5826119a4565b6119ff81856119af565b9350611a0f8185602086016119c0565b611a188161169d565b840191505092915050565b611a2c8161165d565b82525050565b6000608083016000830151611a4a6000860182611995565b5060208301518482036020860152611a6282826119ea565b9150506040830151611a776040860182611a23565b506060830151611a8a6060860182611a23565b508091505092915050565b6000611aa18383611a32565b905092915050565b6000602082019050919050565b6000611ac182611969565b611acb8185611974565b935083602082028501611add85611985565b8060005b85811015611b195784840389528151611afa8582611a95565b9450611b0583611aa9565b925060208a01995050600181019050611ae1565b50829750879550505050505092915050565b60006020820190508181036000830152611b458184611ab6565b905092915050565b600060208284031215611b6357611b626115f5565b5b6000611b7184828501611648565b91505092915050565b611b838161165d565b82525050565b6000602082019050611b9e6000830184611b7a565b92915050565b6000608083016000830151611bbc6000860182611995565b5060208301518482036020860152611bd482826119ea565b9150506040830151611be96040860182611a23565b506060830151611bfc6060860182611a23565b508091505092915050565b60006020820190508181036000830152611c218184611ba4565b905092915050565b600082825260208201905092915050565b6000611c45826119a4565b611c4f8185611c29565b9350611c5f8185602086016119c0565b611c688161169d565b840191505092915050565b6000608082019050611c88600083018761189c565b8181036020830152611c9a8186611c3a565b9050611ca96040830185611b7a565b611cb66060830184611b7a565b95945050505050565b600080fd5b600080fd5b600081519050611cd881611667565b92915050565b600081519050611ced81611631565b92915050565b6000611d06611d0184611729565b61170e565b905082815260208101848484011115611d2257611d21611698565b5b611d2d8482856119c0565b509392505050565b600082601f830112611d4a57611d49611693565b5b8151611d5a848260208601611cf3565b91505092915050565b611d6c81611906565b8114611d7757600080fd5b50565b600081519050611d8981611d63565b92915050565b60006102208284031215611da657611da5611cbf565b5b611db161022061170e565b9050600082015167ffffffffffffffff811115611dd157611dd0611cc4565b5b611ddd84828501611d35565b600083015250602082015167ffffffffffffffff811115611e0157611e00611cc4565b5b611e0d84828501611d35565b602083015250604082015167ffffffffffffffff811115611e3157611e30611cc4565b5b611e3d84828501611d35565b604083015250606082015167ffffffffffffffff811115611e6157611e60611cc4565b5b611e6d84828501611d35565b606083015250608082015167ffffffffffffffff811115611e9157611e90611cc4565b5b611e9d84828501611d35565b60808301525060a0611eb184828501611d7a565b60a08301525060c082015167ffffffffffffffff811115611ed557611ed4611cc4565b5b611ee184828501611d35565b60c08301525060e082015167ffffffffffffffff811115611f0557611f04611cc4565b5b611f1184828501611d35565b60e08301525061010082015167ffffffffffffffff811115611f3657611f35611cc4565b5b611f4284828501611d35565b6101008301525061012082015167ffffffffffffffff811115611f6857611f67611cc4565b5b611f7484828501611d35565b61012083015250610140611f8a84828501611d7a565b6101408301525061016082015167ffffffffffffffff811115611fb057611faf611cc4565b5b611fbc84828501611d35565b6101608301525061018082015167ffffffffffffffff811115611fe257611fe1611cc4565b5b611fee84828501611d35565b610180830152506101a082015167ffffffffffffffff81111561201457612013611cc4565b5b61202084828501611d35565b6101a0830152506101c082015167ffffffffffffffff81111561204657612045611cc4565b5b61205284828501611d35565b6101c0830152506101e082015167ffffffffffffffff81111561207857612077611cc4565b5b61208484828501611d35565b6101e08301525061020082015167ffffffffffffffff8111156120aa576120a9611cc4565b5b6120b684828501611d35565b6102008301525092915050565b600060c082840312156120d9576120d8611cbf565b5b6120e360c061170e565b905060006120f384828501611cc9565b600083015250602061210784828501611cde565b602083015250604082015167ffffffffffffffff81111561212b5761212a611cc4565b5b61213784828501611d8f565b604083015250606061214b84828501611cc9565b606083015250608061215f84828501611d7a565b60808301525060a061217384828501611cc9565b60a08301525092915050565b600067ffffffffffffffff82111561219a576121996116ae565b5b602082029050602081019050919050565b600080fd5b60006121c36121be8461217f565b61170e565b905080838252602082019050602084028301858111156121e6576121e56121ab565b5b835b8181101561222d57805167ffffffffffffffff81111561220b5761220a611693565b5b8086016122188982611d35565b855260208501945050506020810190506121e8565b5050509392505050565b600082601f83011261224c5761224b611693565b5b815161225c8482602086016121b0565b91505092915050565b600060e0828403121561227b5761227a611cbf565b5b61228560e061170e565b9050600082015167ffffffffffffffff8111156122a5576122a4611cc4565b5b6122b184828501611d35565b60008301525060206122c584828501611cc9565b602083015250604082015167ffffffffffffffff8111156122e9576122e8611cc4565b5b6122f584828501611d35565b604083015250606082015167ffffffffffffffff81111561231957612318611cc4565b5b61232584828501612237565b606083015250608061233984828501611cc9565b60808301525060a061234d84828501611cc9565b60a08301525060c082015167ffffffffffffffff81111561237157612370611cc4565b5b61237d84828501611d35565b60c08301525092915050565b60006060828403121561239f5761239e611cbf565b5b6123a9606061170e565b9050600082015167ffffffffffffffff8111156123c9576123c8611cc4565b5b6123d5848285016120c3565b600083015250602082015167ffffffffffffffff8111156123f9576123f8611cc4565b5b61240584828501612265565b602083015250604061241984828501611d7a565b60408301525092915050565b60006020828403121561243b5761243a6115f5565b5b600082015167ffffffffffffffff811115612459576124586115fa565b5b61246584828501612389565b91505092915050565b7f50726f6475637420646f6573206e6f7420657869737400000000000000000000600082015250565b60006124a4601683611c29565b91506124af8261246e565b602082019050919050565b600060208201905081810360008301526124d381612497565b9050919050565b7f526174696e67206d757374206265206265747765656e203120616e6420350000600082015250565b6000612510601e83611c29565b915061251b826124da565b602082019050919050565b6000602082019050818103600083015261253f81612503565b9050919050565b7f52657669657720636f6e74656e742063616e6e6f7420626520656d7074790000600082015250565b600061257c601e83611c29565b915061258782612546565b602082019050919050565b600060208201905081810360008301526125ab8161256f565b9050919050565b7f50726f64756374206f776e65722063616e6e6f7420726576696577207468656960008201527f72206f776e2070726f6475637400000000000000000000000000000000000000602082015250565b600061260e602d83611c29565b9150612619826125b2565b604082019050919050565b6000602082019050818103600083015261263d81612601565b9050919050565b7f4e487b7100000000000000000000000000000000000000000000000000000000600052603260045260246000fd5b7f4e487b7100000000000000000000000000000000000000000000000000000000600052602260045260246000fd5b600060028204905060018216806126ba57607f821691505b6020821081036126cd576126cc612673565b5b50919050565b60008190508160005260206000209050919050565b60006020601f8301049050919050565b600082821b905092915050565b6000600883026127357fffffffffffffffffffffffffffffffffffffffffffffffffffffffffffffffff826126f8565b61273f86836126f8565b95508019841693508086168417925050509392505050565b6000819050919050565b600061277c6127776127728461165d565b612757565b61165d565b9050919050565b6000819050919050565b61279683612761565b6127aa6127a282612783565b848454612705565b825550505050565b600090565b6127bf6127b2565b6127ca81848461278d565b505050565b5b818110156127ee576127e36000826127b7565b6001810190506127d0565b5050565b601f82111561283357612804816126d3565b61280d846126e8565b8101602085101561281c578190505b612830612828856126e8565b8301826127cf565b50505b505050565b600082821c905092915050565b600061285660001984600802612838565b1980831691505092915050565b600061286f8383612845565b9150826002028217905092915050565b612888826119a4565b67ffffffffffffffff8111156128a1576128a06116ae565b5b6128ab82546126a2565b6128b68282856127f2565b600060209050601f8311600181146128e957600084156128d7578287015190505b6128e18582612863565b865550612949565b601f1984166128f7866126d3565b60005b8281101561291f578489015182556001820191506020850194506020810190506128fa565b8683101561293c5784890151612938601f891682612845565b8355505b6001600288020188555050505b505050505050565b7f526576696577206e6f7420666f756e6400000000000000000000000000000000600082015250565b6000612987601083611c29565b915061299282612951565b602082019050919050565b600060208201905081810360008301526129b68161297a565b9050919050565b7f52657669657720646f6573206e6f742065786973740000000000000000000000600082015250565b60006129f3601583611c29565b91506129fe826129bd565b602082019050919050565b60006020820190508181036000830152612a22816129e6565b9050919050565b7f52657669657765722068617320616c726561647920726576696577656420746860008201527f69732070726f6475637400000000000000000000000000000000000000000000602082015250565b6000612a85602a83611c29565b9150612a9082612a29565b604082019050919050565b60006020820190508181036000830152612ab481612a78565b9050919050565b60006040820190508181036000830152612ad58185611c3a565b9050612ae46020830184611b7a565b9392505050565b6000819050919050565b600067ffffffffffffffff82169050919050565b6000612b24612b1f612b1a84612aeb565b612757565b612af5565b9050919050565b612b3481612b09565b82525050565b6000602082019050612b4f6000830184612b2b565b9291505056fea26469706673582212207546ddc473e630678b4343c799e503c3e19d157441753036f57372b4cd9f41bf64736f6c63430008180033",
  "linkReferences": {},
  "deployedLinkReferences": {}
}