{
  "_format": "hh-sol-artifact-1",
  "contractName": "Product",
  "sourceName": "contracts/Product.sol",
  "abi": [
    {
      "inputs": [
        {
          "internalType": "address",
          "name": "initialOwner",
          "type": "address"
        }
      ],
      "stateMutability": "nonpayable",
      "type": "constructor"
    },
    {
      "inputs": [
        {
          "internalType": "address",
          "name": "owner",
          "type": "address"
        }
      ],
      "name": "OwnableInvalidOwner",
      "type": "error"
    },
    {
      "inputs": [
        {
          "internalType": "address",
          "name": "account",
          "type": "address"
        }
      ],
      "name": "OwnableUnauthorizedAccount",
      "type": "error"
    },
    {
      "anonymous": false,
      "inputs": [
        {
          "indexed": true,
          "internalType": "uint256",
          "name": "productId",
          "type": "uint256"
        },
        {
          "indexed": false,
          "internalType": "string",
          "name": "betaTestingLink",
          "type": "string"
        }
      ],
      "name": "BetaTestingLinkUpdated",
      "type": "event"
    },
    {
      "anonymous": false,
      "inputs": [
        {
          "indexed": true,
          "internalType": "address",
          "name": "previousOwner",
          "type": "address"
        },
        {
          "indexed": true,
          "internalType": "address",
          "name": "newOwner",
          "type": "address"
        }
      ],
      "name": "OwnershipTransferred",
      "type": "event"
    },
    {
      "anonymous": false,
      "inputs": [
        {
          "indexed": true,
          "internalType": "uint256",
          "name": "productId",
          "type": "uint256"
        },
        {
          "indexed": true,
          "internalType": "address",
          "name": "owner",
          "type": "address"
        },
        {
          "indexed": false,
          "internalType": "string",
          "name": "productName",
          "type": "string"
        },
        {
          "indexed": false,
          "internalType": "string",
          "name": "description",
          "type": "string"
        }
      ],
      "name": "ProductRegistered",
      "type": "event"
    },
    {
      "anonymous": false,
      "inputs": [
        {
          "indexed": true,
          "internalType": "uint256",
          "name": "productId",
          "type": "uint256"
        },
        {
          "indexed": true,
          "internalType": "address",
          "name": "user",
          "type": "address"
        }
      ],
      "name": "ProductUpvoted",
      "type": "event"
    },
    {
      "inputs": [
        {
          "internalType": "uint256",
          "name": "_productId",
          "type": "uint256"
        }
      ],
      "name": "canBeListed",
      "outputs": [
        {
          "internalType": "bool",
          "name": "",
          "type": "bool"
        }
      ],
      "stateMutability": "view",
      "type": "function"
    },
    {
      "inputs": [],
      "name": "getListedProducts",
      "outputs": [
        {
          "components": [
            {
              "internalType": "uint256",
              "name": "id",
              "type": "uint256"
            },
            {
              "internalType": "address",
              "name": "owner",
              "type": "address"
            },
            {
              "components": [
                {
                  "internalType": "string",
                  "name": "productName",
                  "type": "string"
                },
                {
                  "internalType": "string",
                  "name": "tagLine",
                  "type": "string"
                },
                {
                  "internalType": "string",
                  "name": "productLink",
                  "type": "string"
                },
                {
                  "internalType": "string",
                  "name": "twitterLink",
                  "type": "string"
                },
                {
                  "internalType": "string",
                  "name": "description",
                  "type": "string"
                },
                {
                  "internalType": "bool",
                  "name": "isOpenSource",
                  "type": "bool"
                },
                {
                  "internalType": "string",
                  "name": "category",
                  "type": "string"
                },
                {
                  "internalType": "string",
                  "name": "thumbNail",
                  "type": "string"
                },
                {
                  "internalType": "string",
                  "name": "mediaFile",
                  "type": "string"
                },
                {
                  "internalType": "string",
                  "name": "loomLink",
                  "type": "string"
                },
                {
                  "internalType": "bool",
                  "name": "workedWithTeam",
                  "type": "bool"
                },
                {
                  "internalType": "string",
                  "name": "teamMembersInput",
                  "type": "string"
                },
                {
                  "internalType": "string",
                  "name": "pricingOption",
                  "type": "string"
                },
                {
                  "internalType": "string",
                  "name": "offer",
                  "type": "string"
                },
                {
                  "internalType": "string",
                  "name": "promoCode",
                  "type": "string"
                },
                {
                  "internalType": "string",
                  "name": "expirationDate",
                  "type": "string"
                },
                {
                  "internalType": "string",
                  "name": "betaTestingLink",
                  "type": "string"
                }
              ],
              "internalType": "struct Product.ProductDetails",
              "name": "details",
              "type": "tuple"
            },
            {
              "internalType": "uint256",
              "name": "upvotes",
              "type": "uint256"
            },
            {
              "internalType": "bool",
              "name": "betaTestingAvailable",
              "type": "bool"
            },
            {
              "internalType": "uint256",
              "name": "timestamp",
              "type": "uint256"
            }
          ],
          "internalType": "struct Product.ProductInfo[]",
          "name": "",
          "type": "tuple[]"
        }
      ],
      "stateMutability": "view",
      "type": "function"
    },
    {
      "inputs": [],
      "name": "getListedProductsAvailable",
      "outputs": [
        {
          "components": [
            {
              "internalType": "uint256",
              "name": "id",
              "type": "uint256"
            },
            {
              "internalType": "address",
              "name": "owner",
              "type": "address"
            },
            {
              "components": [
                {
                  "internalType": "string",
                  "name": "productName",
                  "type": "string"
                },
                {
                  "internalType": "string",
                  "name": "tagLine",
                  "type": "string"
                },
                {
                  "internalType": "string",
                  "name": "productLink",
                  "type": "string"
                },
                {
                  "internalType": "string",
                  "name": "twitterLink",
                  "type": "string"
                },
                {
                  "internalType": "string",
                  "name": "description",
                  "type": "string"
                },
                {
                  "internalType": "bool",
                  "name": "isOpenSource",
                  "type": "bool"
                },
                {
                  "internalType": "string",
                  "name": "category",
                  "type": "string"
                },
                {
                  "internalType": "string",
                  "name": "thumbNail",
                  "type": "string"
                },
                {
                  "internalType": "string",
                  "name": "mediaFile",
                  "type": "string"
                },
                {
                  "internalType": "string",
                  "name": "loomLink",
                  "type": "string"
                },
                {
                  "internalType": "bool",
                  "name": "workedWithTeam",
                  "type": "bool"
                },
                {
                  "internalType": "string",
                  "name": "teamMembersInput",
                  "type": "string"
                },
                {
                  "internalType": "string",
                  "name": "pricingOption",
                  "type": "string"
                },
                {
                  "internalType": "string",
                  "name": "offer",
                  "type": "string"
                },
                {
                  "internalType": "string",
                  "name": "promoCode",
                  "type": "string"
                },
                {
                  "internalType": "string",
                  "name": "expirationDate",
                  "type": "string"
                },
                {
                  "internalType": "string",
                  "name": "betaTestingLink",
                  "type": "string"
                }
              ],
              "internalType": "struct Product.ProductDetails",
              "name": "details",
              "type": "tuple"
            },
            {
              "internalType": "uint256",
              "name": "upvotes",
              "type": "uint256"
            },
            {
              "internalType": "bool",
              "name": "betaTestingAvailable",
              "type": "bool"
            },
            {
              "internalType": "uint256",
              "name": "timestamp",
              "type": "uint256"
            }
          ],
          "internalType": "struct Product.ProductInfo[]",
          "name": "",
          "type": "tuple[]"
        }
      ],
      "stateMutability": "view",
      "type": "function"
    },
    {
      "inputs": [
        {
          "internalType": "uint256",
          "name": "_productId",
          "type": "uint256"
        }
      ],
      "name": "getProduct",
      "outputs": [
        {
          "components": [
            {
              "internalType": "uint256",
              "name": "id",
              "type": "uint256"
            },
            {
              "internalType": "address",
              "name": "owner",
              "type": "address"
            },
            {
              "components": [
                {
                  "internalType": "string",
                  "name": "productName",
                  "type": "string"
                },
                {
                  "internalType": "string",
                  "name": "tagLine",
                  "type": "string"
                },
                {
                  "internalType": "string",
                  "name": "productLink",
                  "type": "string"
                },
                {
                  "internalType": "string",
                  "name": "twitterLink",
                  "type": "string"
                },
                {
                  "internalType": "string",
                  "name": "description",
                  "type": "string"
                },
                {
                  "internalType": "bool",
                  "name": "isOpenSource",
                  "type": "bool"
                },
                {
                  "internalType": "string",
                  "name": "category",
                  "type": "string"
                },
                {
                  "internalType": "string",
                  "name": "thumbNail",
                  "type": "string"
                },
                {
                  "internalType": "string",
                  "name": "mediaFile",
                  "type": "string"
                },
                {
                  "internalType": "string",
                  "name": "loomLink",
                  "type": "string"
                },
                {
                  "internalType": "bool",
                  "name": "workedWithTeam",
                  "type": "bool"
                },
                {
                  "internalType": "string",
                  "name": "teamMembersInput",
                  "type": "string"
                },
                {
                  "internalType": "string",
                  "name": "pricingOption",
                  "type": "string"
                },
                {
                  "internalType": "string",
                  "name": "offer",
                  "type": "string"
                },
                {
                  "internalType": "string",
                  "name": "promoCode",
                  "type": "string"
                },
                {
                  "internalType": "string",
                  "name": "expirationDate",
                  "type": "string"
                },
                {
                  "internalType": "string",
                  "name": "betaTestingLink",
                  "type": "string"
                }
              ],
              "internalType": "struct Product.ProductDetails",
              "name": "details",
              "type": "tuple"
            },
            {
              "internalType": "uint256",
              "name": "upvotes",
              "type": "uint256"
            },
            {
              "internalType": "bool",
              "name": "betaTestingAvailable",
              "type": "bool"
            },
            {
              "internalType": "uint256",
              "name": "timestamp",
              "type": "uint256"
            }
          ],
          "internalType": "struct Product.ProductInfo",
          "name": "",
          "type": "tuple"
        }
      ],
      "stateMutability": "view",
      "type": "function"
    },
    {
      "inputs": [
        {
          "internalType": "uint256",
          "name": "",
          "type": "uint256"
        },
        {
          "internalType": "address",
          "name": "",
          "type": "address"
        }
      ],
      "name": "hasUpvoted",
      "outputs": [
        {
          "internalType": "bool",
          "name": "",
          "type": "bool"
        }
      ],
      "stateMutability": "view",
      "type": "function"
    },
    {
      "inputs": [],
      "name": "owner",
      "outputs": [
        {
          "internalType": "address",
          "name": "",
          "type": "address"
        }
      ],
      "stateMutability": "view",
      "type": "function"
    },
    {
      "inputs": [
        {
          "internalType": "uint256",
          "name": "",
          "type": "uint256"
        }
      ],
      "name": "products",
      "outputs": [
        {
          "internalType": "uint256",
          "name": "id",
          "type": "uint256"
        },
        {
          "internalType": "address",
          "name": "owner",
          "type": "address"
        },
        {
          "components": [
            {
              "internalType": "string",
              "name": "productName",
              "type": "string"
            },
            {
              "internalType": "string",
              "name": "tagLine",
              "type": "string"
            },
            {
              "internalType": "string",
              "name": "productLink",
              "type": "string"
            },
            {
              "internalType": "string",
              "name": "twitterLink",
              "type": "string"
            },
            {
              "internalType": "string",
              "name": "description",
              "type": "string"
            },
            {
              "internalType": "bool",
              "name": "isOpenSource",
              "type": "bool"
            },
            {
              "internalType": "string",
              "name": "category",
              "type": "string"
            },
            {
              "internalType": "string",
              "name": "thumbNail",
              "type": "string"
            },
            {
              "internalType": "string",
              "name": "mediaFile",
              "type": "string"
            },
            {
              "internalType": "string",
              "name": "loomLink",
              "type": "string"
            },
            {
              "internalType": "bool",
              "name": "workedWithTeam",
              "type": "bool"
            },
            {
              "internalType": "string",
              "name": "teamMembersInput",
              "type": "string"
            },
            {
              "internalType": "string",
              "name": "pricingOption",
              "type": "string"
            },
            {
              "internalType": "string",
              "name": "offer",
              "type": "string"
            },
            {
              "internalType": "string",
              "name": "promoCode",
              "type": "string"
            },
            {
              "internalType": "string",
              "name": "expirationDate",
              "type": "string"
            },
            {
              "internalType": "string",
              "name": "betaTestingLink",
              "type": "string"
            }
          ],
          "internalType": "struct Product.ProductDetails",
          "name": "details",
          "type": "tuple"
        },
        {
          "internalType": "uint256",
          "name": "upvotes",
          "type": "uint256"
        },
        {
          "internalType": "bool",
          "name": "betaTestingAvailable",
          "type": "bool"
        },
        {
          "internalType": "uint256",
          "name": "timestamp",
          "type": "uint256"
        }
      ],
      "stateMutability": "view",
      "type": "function"
    },
    {
      "inputs": [
        {
          "internalType": "address",
          "name": "_owner",
          "type": "address"
        },
        {
          "components": [
            {
              "internalType": "string",
              "name": "productName",
              "type": "string"
            },
            {
              "internalType": "string",
              "name": "tagLine",
              "type": "string"
            },
            {
              "internalType": "string",
              "name": "productLink",
              "type": "string"
            },
            {
              "internalType": "string",
              "name": "twitterLink",
              "type": "string"
            },
            {
              "internalType": "string",
              "name": "description",
              "type": "string"
            },
            {
              "internalType": "bool",
              "name": "isOpenSource",
              "type": "bool"
            },
            {
              "internalType": "string",
              "name": "category",
              "type": "string"
            },
            {
              "internalType": "string",
              "name": "thumbNail",
              "type": "string"
            },
            {
              "internalType": "string",
              "name": "mediaFile",
              "type": "string"
            },
            {
              "internalType": "string",
              "name": "loomLink",
              "type": "string"
            },
            {
              "internalType": "bool",
              "name": "workedWithTeam",
              "type": "bool"
            },
            {
              "internalType": "string",
              "name": "teamMembersInput",
              "type": "string"
            },
            {
              "internalType": "string",
              "name": "pricingOption",
              "type": "string"
            },
            {
              "internalType": "string",
              "name": "offer",
              "type": "string"
            },
            {
              "internalType": "string",
              "name": "promoCode",
              "type": "string"
            },
            {
              "internalType": "string",
              "name": "expirationDate",
              "type": "string"
            },
            {
              "internalType": "string",
              "name": "betaTestingLink",
              "type": "string"
            }
          ],
          "internalType": "struct Product.ProductDetails",
          "name": "details",
          "type": "tuple"
        }
      ],
      "name": "registerProduct",
      "outputs": [],
      "stateMutability": "nonpayable",
      "type": "function"
    },
    {
      "inputs": [],
      "name": "renounceOwnership",
      "outputs": [],
      "stateMutability": "nonpayable",
      "type": "function"
    },
    {
      "inputs": [
        {
          "internalType": "address",
          "name": "newOwner",
          "type": "address"
        }
      ],
      "name": "transferOwnership",
      "outputs": [],
      "stateMutability": "nonpayable",
      "type": "function"
    },
    {
      "inputs": [
        {
          "internalType": "uint256",
          "name": "_productId",
          "type": "uint256"
        },
        {
          "internalType": "string",
          "name": "_betaTestingLink",
          "type": "string"
        }
      ],
      "name": "updateBetaTestingLink",
      "outputs": [],
      "stateMutability": "nonpayable",
      "type": "function"
    },
    {
      "inputs": [
        {
          "internalType": "uint256",
          "name": "productId",
          "type": "uint256"
        },
        {
          "internalType": "address",
          "name": "upvoter",
          "type": "address"
        }
      ],
      "name": "upvoteProduct",
      "outputs": [],
      "stateMutability": "nonpayable",
      "type": "function"
    }
  ],
  "bytecode": "0x60806040523480156200001157600080fd5b50604051620055b6380380620055b68339818101604052810190620000379190620001f4565b80600073ffffffffffffffffffffffffffffffffffffffff168173ffffffffffffffffffffffffffffffffffffffff1603620000ad5760006040517f1e4fbdf7000000000000000000000000000000000000000000000000000000008152600401620000a4919062000237565b60405180910390fd5b620000be81620000c660201b60201c565b505062000254565b60008060009054906101000a900473ffffffffffffffffffffffffffffffffffffffff169050816000806101000a81548173ffffffffffffffffffffffffffffffffffffffff021916908373ffffffffffffffffffffffffffffffffffffffff1602179055508173ffffffffffffffffffffffffffffffffffffffff168173ffffffffffffffffffffffffffffffffffffffff167f8be0079c531659141344cd1fd0a4f28419497f9722a3daafe3b4186f6b6457e060405160405180910390a35050565b600080fd5b600073ffffffffffffffffffffffffffffffffffffffff82169050919050565b6000620001bc826200018f565b9050919050565b620001ce81620001af565b8114620001da57600080fd5b50565b600081519050620001ee81620001c3565b92915050565b6000602082840312156200020d576200020c6200018a565b5b60006200021d84828501620001dd565b91505092915050565b6200023181620001af565b82525050565b60006020820190506200024e600083018462000226565b92915050565b61535280620002646000396000f3fe608060405234801561001057600080fd5b50600436106100b45760003560e01c80638da5cb5b116100715780638da5cb5b1461016a578063a52c865814610188578063b9db15b4146101b8578063e66f7f46146101e8578063f1c88b4b14610206578063f2fde38b14610236576100b4565b806352cb26af146100b957806355110f14146100d7578063577ac4af146100f357806363283c841461010f578063715018a61461012b5780637acc0b2014610135575b600080fd5b6100c1610252565b6040516100ce91906142a7565b60405180910390f35b6100f160048036038101906100ec919061443e565b610c8d565b005b61010d60048036038101906101089190614830565b610e22565b005b6101296004803603810190610124919061488c565b61112c565b005b6101336113ad565b005b61014f600480360381019061014a91906148cc565b6113c1565b60405161016196959493929190614af5565b60405180910390f35b610172611cf9565b60405161017f9190614b5d565b60405180910390f35b6101a2600480360381019061019d919061488c565b611d22565b6040516101af9190614b78565b60405180910390f35b6101d260048036038101906101cd91906148cc565b611d51565b6040516101df9190614c1c565b60405180910390f35b6101f0612740565b6040516101fd91906142a7565b60405180910390f35b610220600480360381019061021b91906148cc565b6131cf565b60405161022d9190614b78565b60405180910390f35b610250600480360381019061024b9190614c3e565b613bd3565b005b60606000600154905060008167ffffffffffffffff81111561027757610276614313565b5b6040519080825280602002602001820160405280156102b057816020015b61029d613dac565b8152602001906001900390816102955790505b5090506000600190505b828111610c8457600260008281526020019081526020016000206040518060c0016040529081600082015481526020016001820160009054906101000a900473ffffffffffffffffffffffffffffffffffffffff1673ffffffffffffffffffffffffffffffffffffffff1673ffffffffffffffffffffffffffffffffffffffff168152602001600282016040518061022001604052908160008201805461036090614c9a565b80601f016020809104026020016040519081016040528092919081815260200182805461038c90614c9a565b80156103d95780601f106103ae576101008083540402835291602001916103d9565b820191906000526020600020905b8154815290600101906020018083116103bc57829003601f168201915b505050505081526020016001820180546103f290614c9a565b80601f016020809104026020016040519081016040528092919081815260200182805461041e90614c9a565b801561046b5780601f106104405761010080835404028352916020019161046b565b820191906000526020600020905b81548152906001019060200180831161044e57829003601f168201915b5050505050815260200160028201805461048490614c9a565b80601f01602080910402602001604051908101604052809291908181526020018280546104b090614c9a565b80156104fd5780601f106104d2576101008083540402835291602001916104fd565b820191906000526020600020905b8154815290600101906020018083116104e057829003601f168201915b5050505050815260200160038201805461051690614c9a565b80601f016020809104026020016040519081016040528092919081815260200182805461054290614c9a565b801561058f5780601f106105645761010080835404028352916020019161058f565b820191906000526020600020905b81548152906001019060200180831161057257829003601f168201915b505050505081526020016004820180546105a890614c9a565b80601f01602080910402602001604051908101604052809291908181526020018280546105d490614c9a565b80156106215780601f106105f657610100808354040283529160200191610621565b820191906000526020600020905b81548152906001019060200180831161060457829003601f168201915b505050505081526020016005820160009054906101000a900460ff1615151515815260200160068201805461065590614c9a565b80601f016020809104026020016040519081016040528092919081815260200182805461068190614c9a565b80156106ce5780601f106106a3576101008083540402835291602001916106ce565b820191906000526020600020905b8154815290600101906020018083116106b157829003601f168201915b505050505081526020016007820180546106e790614c9a565b80601f016020809104026020016040519081016040528092919081815260200182805461071390614c9a565b80156107605780601f1061073557610100808354040283529160200191610760565b820191906000526020600020905b81548152906001019060200180831161074357829003601f168201915b5050505050815260200160088201805461077990614c9a565b80601f01602080910402602001604051908101604052809291908181526020018280546107a590614c9a565b80156107f25780601f106107c7576101008083540402835291602001916107f2565b820191906000526020600020905b8154815290600101906020018083116107d557829003601f168201915b5050505050815260200160098201805461080b90614c9a565b80601f016020809104026020016040519081016040528092919081815260200182805461083790614c9a565b80156108845780601f1061085957610100808354040283529160200191610884565b820191906000526020600020905b81548152906001019060200180831161086757829003601f168201915b50505050508152602001600a820160009054906101000a900460ff16151515158152602001600b820180546108b890614c9a565b80601f01602080910402602001604051908101604052809291908181526020018280546108e490614c9a565b80156109315780601f1061090657610100808354040283529160200191610931565b820191906000526020600020905b81548152906001019060200180831161091457829003601f168201915b50505050508152602001600c8201805461094a90614c9a565b80601f016020809104026020016040519081016040528092919081815260200182805461097690614c9a565b80156109c35780601f10610998576101008083540402835291602001916109c3565b820191906000526020600020905b8154815290600101906020018083116109a657829003601f168201915b50505050508152602001600d820180546109dc90614c9a565b80601f0160208091040260200160405190810160405280929190818152602001828054610a0890614c9a565b8015610a555780601f10610a2a57610100808354040283529160200191610a55565b820191906000526020600020905b815481529060010190602001808311610a3857829003601f168201915b50505050508152602001600e82018054610a6e90614c9a565b80601f0160208091040260200160405190810160405280929190818152602001828054610a9a90614c9a565b8015610ae75780601f10610abc57610100808354040283529160200191610ae7565b820191906000526020600020905b815481529060010190602001808311610aca57829003601f168201915b50505050508152602001600f82018054610b0090614c9a565b80601f0160208091040260200160405190810160405280929190818152602001828054610b2c90614c9a565b8015610b795780601f10610b4e57610100808354040283529160200191610b79565b820191906000526020600020905b815481529060010190602001808311610b5c57829003601f168201915b50505050508152602001601082018054610b9290614c9a565b80601f0160208091040260200160405190810160405280929190818152602001828054610bbe90614c9a565b8015610c0b5780601f10610be057610100808354040283529160200191610c0b565b820191906000526020600020905b815481529060010190602001808311610bee57829003601f168201915b5050505050815250508152602001601382015481526020016014820160009054906101000a900460ff1615151515815260200160158201548152505082600183610c559190614cfa565b81518110610c6657610c65614d2e565b5b60200260200101819052508080610c7c90614d5d565b9150506102ba565b50809250505090565b8180600260008381526020019081526020016000206000015414610ce6576040517f08c379a0000000000000000000000000000000000000000000000000000000008152600401610cdd90614e02565b60405180910390fd5b823373ffffffffffffffffffffffffffffffffffffffff166002600083815260200190815260200160002060010160009054906101000a900473ffffffffffffffffffffffffffffffffffffffff1673ffffffffffffffffffffffffffffffffffffffff1614610d8b576040517f08c379a0000000000000000000000000000000000000000000000000000000008152600401610d8290614e94565b60405180910390fd5b82600260008681526020019081526020016000206002016010019081610db19190615060565b5060008351116002600086815260200190815260200160002060140160006101000a81548160ff021916908315150217905550837f60b68b8d9dde04a1c7a3c8b7c6631c84bca71372b9f129b0958fd4d901a57e5384604051610e14919061516b565b60405180910390a250505050565b60016000815480929190610e3590614d5d565b919050555060006001549050600080836102000151511190506040518060c001604052808381526020018573ffffffffffffffffffffffffffffffffffffffff16815260200184815260200160008152602001821515815260200142815250600260008481526020019081526020016000206000820151816000015560208201518160010160006101000a81548173ffffffffffffffffffffffffffffffffffffffff021916908373ffffffffffffffffffffffffffffffffffffffff1602179055506040820151816002016000820151816000019081610f169190615060565b506020820151816001019081610f2c9190615060565b506040820151816002019081610f429190615060565b506060820151816003019081610f589190615060565b506080820151816004019081610f6e9190615060565b5060a08201518160050160006101000a81548160ff02191690831515021790555060c0820151816006019081610fa49190615060565b5060e0820151816007019081610fba9190615060565b50610100820151816008019081610fd19190615060565b50610120820151816009019081610fe89190615060565b5061014082015181600a0160006101000a81548160ff02191690831515021790555061016082015181600b0190816110209190615060565b5061018082015181600c0190816110379190615060565b506101a082015181600d01908161104e9190615060565b506101c082015181600e0190816110659190615060565b506101e082015181600f01908161107c9190615060565b506102008201518160100190816110939190615060565b5050506060820151816013015560808201518160140160006101000a81548160ff02191690831515021790555060a082015181601501559050508373ffffffffffffffffffffffffffffffffffffffff16827fb5744bf87060f3c128bd7ec7c73734981e2525b5958bd63d50320e2e282fb7578560000151866080015160405161111e92919061518d565b60405180910390a350505050565b8180600260008381526020019081526020016000206000015414611185576040517f08c379a000000000000000000000000000000000000000000000000000000000815260040161117c90614e02565b60405180910390fd5b82828073ffffffffffffffffffffffffffffffffffffffff166002600084815260200190815260200160002060010160009054906101000a900473ffffffffffffffffffffffffffffffffffffffff1673ffffffffffffffffffffffffffffffffffffffff160361122b576040517f08c379a000000000000000000000000000000000000000000000000000000000815260040161122290615236565b60405180910390fd5b84846003600083815260200190815260200160002060008273ffffffffffffffffffffffffffffffffffffffff1673ffffffffffffffffffffffffffffffffffffffff16815260200190815260200160002060009054906101000a900460ff16156112cb576040517f08c379a00000000000000000000000000000000000000000000000000000000081526004016112c2906152c8565b60405180910390fd5b6002600088815260200190815260200160002060130160008154809291906112f290614d5d565b919050555060016003600089815260200190815260200160002060008873ffffffffffffffffffffffffffffffffffffffff1673ffffffffffffffffffffffffffffffffffffffff16815260200190815260200160002060006101000a81548160ff0219169083151502179055508573ffffffffffffffffffffffffffffffffffffffff16877f956f0f479292addd89f768b4b97612f546f78aae3d2b8a416a19c8b5b610b40560405160405180910390a350505050505050565b6113b5613c59565b6113bf6000613ce0565b565b60026020528060005260406000206000915090508060000154908060010160009054906101000a900473ffffffffffffffffffffffffffffffffffffffff1690806002016040518061022001604052908160008201805461142190614c9a565b80601f016020809104026020016040519081016040528092919081815260200182805461144d90614c9a565b801561149a5780601f1061146f5761010080835404028352916020019161149a565b820191906000526020600020905b81548152906001019060200180831161147d57829003601f168201915b505050505081526020016001820180546114b390614c9a565b80601f01602080910402602001604051908101604052809291908181526020018280546114df90614c9a565b801561152c5780601f106115015761010080835404028352916020019161152c565b820191906000526020600020905b81548152906001019060200180831161150f57829003601f168201915b5050505050815260200160028201805461154590614c9a565b80601f016020809104026020016040519081016040528092919081815260200182805461157190614c9a565b80156115be5780601f10611593576101008083540402835291602001916115be565b820191906000526020600020905b8154815290600101906020018083116115a157829003601f168201915b505050505081526020016003820180546115d790614c9a565b80601f016020809104026020016040519081016040528092919081815260200182805461160390614c9a565b80156116505780601f1061162557610100808354040283529160200191611650565b820191906000526020600020905b81548152906001019060200180831161163357829003601f168201915b5050505050815260200160048201805461166990614c9a565b80601f016020809104026020016040519081016040528092919081815260200182805461169590614c9a565b80156116e25780601f106116b7576101008083540402835291602001916116e2565b820191906000526020600020905b8154815290600101906020018083116116c557829003601f168201915b505050505081526020016005820160009054906101000a900460ff1615151515815260200160068201805461171690614c9a565b80601f016020809104026020016040519081016040528092919081815260200182805461174290614c9a565b801561178f5780601f106117645761010080835404028352916020019161178f565b820191906000526020600020905b81548152906001019060200180831161177257829003601f168201915b505050505081526020016007820180546117a890614c9a565b80601f01602080910402602001604051908101604052809291908181526020018280546117d490614c9a565b80156118215780601f106117f657610100808354040283529160200191611821565b820191906000526020600020905b81548152906001019060200180831161180457829003601f168201915b5050505050815260200160088201805461183a90614c9a565b80601f016020809104026020016040519081016040528092919081815260200182805461186690614c9a565b80156118b35780601f10611888576101008083540402835291602001916118b3565b820191906000526020600020905b81548152906001019060200180831161189657829003601f168201915b505050505081526020016009820180546118cc90614c9a565b80601f01602080910402602001604051908101604052809291908181526020018280546118f890614c9a565b80156119455780601f1061191a57610100808354040283529160200191611945565b820191906000526020600020905b81548152906001019060200180831161192857829003601f168201915b50505050508152602001600a820160009054906101000a900460ff16151515158152602001600b8201805461197990614c9a565b80601f01602080910402602001604051908101604052809291908181526020018280546119a590614c9a565b80156119f25780601f106119c7576101008083540402835291602001916119f2565b820191906000526020600020905b8154815290600101906020018083116119d557829003601f168201915b50505050508152602001600c82018054611a0b90614c9a565b80601f0160208091040260200160405190810160405280929190818152602001828054611a3790614c9a565b8015611a845780601f10611a5957610100808354040283529160200191611a84565b820191906000526020600020905b815481529060010190602001808311611a6757829003601f168201915b50505050508152602001600d82018054611a9d90614c9a565b80601f0160208091040260200160405190810160405280929190818152602001828054611ac990614c9a565b8015611b165780601f10611aeb57610100808354040283529160200191611b16565b820191906000526020600020905b815481529060010190602001808311611af957829003601f168201915b50505050508152602001600e82018054611b2f90614c9a565b80601f0160208091040260200160405190810160405280929190818152602001828054611b5b90614c9a565b8015611ba85780601f10611b7d57610100808354040283529160200191611ba8565b820191906000526020600020905b815481529060010190602001808311611b8b57829003601f168201915b50505050508152602001600f82018054611bc190614c9a565b80601f0160208091040260200160405190810160405280929190818152602001828054611bed90614c9a565b8015611c3a5780601f10611c0f57610100808354040283529160200191611c3a565b820191906000526020600020905b815481529060010190602001808311611c1d57829003601f168201915b50505050508152602001601082018054611c5390614c9a565b80601f0160208091040260200160405190810160405280929190818152602001828054611c7f90614c9a565b8015611ccc5780601f10611ca157610100808354040283529160200191611ccc565b820191906000526020600020905b815481529060010190602001808311611caf57829003601f168201915b505050505081525050908060130154908060140160009054906101000a900460ff16908060150154905086565b60008060009054906101000a900473ffffffffffffffffffffffffffffffffffffffff16905090565b60036020528160005260406000206020528060005260406000206000915091509054906101000a900460ff1681565b611d59613dac565b8180600260008381526020019081526020016000206000015414611db2576040517f08c379a0000000000000000000000000000000000000000000000000000000008152600401611da990614e02565b60405180910390fd5b600260008481526020019081526020016000206040518060c0016040529081600082015481526020016001820160009054906101000a900473ffffffffffffffffffffffffffffffffffffffff1673ffffffffffffffffffffffffffffffffffffffff1673ffffffffffffffffffffffffffffffffffffffff1681526020016002820160405180610220016040529081600082018054611e5190614c9a565b80601f0160208091040260200160405190810160405280929190818152602001828054611e7d90614c9a565b8015611eca5780601f10611e9f57610100808354040283529160200191611eca565b820191906000526020600020905b815481529060010190602001808311611ead57829003601f168201915b50505050508152602001600182018054611ee390614c9a565b80601f0160208091040260200160405190810160405280929190818152602001828054611f0f90614c9a565b8015611f5c5780601f10611f3157610100808354040283529160200191611f5c565b820191906000526020600020905b815481529060010190602001808311611f3f57829003601f168201915b50505050508152602001600282018054611f7590614c9a565b80601f0160208091040260200160405190810160405280929190818152602001828054611fa190614c9a565b8015611fee5780601f10611fc357610100808354040283529160200191611fee565b820191906000526020600020905b815481529060010190602001808311611fd157829003601f168201915b5050505050815260200160038201805461200790614c9a565b80601f016020809104026020016040519081016040528092919081815260200182805461203390614c9a565b80156120805780601f1061205557610100808354040283529160200191612080565b820191906000526020600020905b81548152906001019060200180831161206357829003601f168201915b5050505050815260200160048201805461209990614c9a565b80601f01602080910402602001604051908101604052809291908181526020018280546120c590614c9a565b80156121125780601f106120e757610100808354040283529160200191612112565b820191906000526020600020905b8154815290600101906020018083116120f557829003601f168201915b505050505081526020016005820160009054906101000a900460ff1615151515815260200160068201805461214690614c9a565b80601f016020809104026020016040519081016040528092919081815260200182805461217290614c9a565b80156121bf5780601f10612194576101008083540402835291602001916121bf565b820191906000526020600020905b8154815290600101906020018083116121a257829003601f168201915b505050505081526020016007820180546121d890614c9a565b80601f016020809104026020016040519081016040528092919081815260200182805461220490614c9a565b80156122515780601f1061222657610100808354040283529160200191612251565b820191906000526020600020905b81548152906001019060200180831161223457829003601f168201915b5050505050815260200160088201805461226a90614c9a565b80601f016020809104026020016040519081016040528092919081815260200182805461229690614c9a565b80156122e35780601f106122b8576101008083540402835291602001916122e3565b820191906000526020600020905b8154815290600101906020018083116122c657829003601f168201915b505050505081526020016009820180546122fc90614c9a565b80601f016020809104026020016040519081016040528092919081815260200182805461232890614c9a565b80156123755780601f1061234a57610100808354040283529160200191612375565b820191906000526020600020905b81548152906001019060200180831161235857829003601f168201915b50505050508152602001600a820160009054906101000a900460ff16151515158152602001600b820180546123a990614c9a565b80601f01602080910402602001604051908101604052809291908181526020018280546123d590614c9a565b80156124225780601f106123f757610100808354040283529160200191612422565b820191906000526020600020905b81548152906001019060200180831161240557829003601f168201915b50505050508152602001600c8201805461243b90614c9a565b80601f016020809104026020016040519081016040528092919081815260200182805461246790614c9a565b80156124b45780601f10612489576101008083540402835291602001916124b4565b820191906000526020600020905b81548152906001019060200180831161249757829003601f168201915b50505050508152602001600d820180546124cd90614c9a565b80601f01602080910402602001604051908101604052809291908181526020018280546124f990614c9a565b80156125465780601f1061251b57610100808354040283529160200191612546565b820191906000526020600020905b81548152906001019060200180831161252957829003601f168201915b50505050508152602001600e8201805461255f90614c9a565b80601f016020809104026020016040519081016040528092919081815260200182805461258b90614c9a565b80156125d85780601f106125ad576101008083540402835291602001916125d8565b820191906000526020600020905b8154815290600101906020018083116125bb57829003601f168201915b50505050508152602001600f820180546125f190614c9a565b80601f016020809104026020016040519081016040528092919081815260200182805461261d90614c9a565b801561266a5780601f1061263f5761010080835404028352916020019161266a565b820191906000526020600020905b81548152906001019060200180831161264d57829003601f168201915b5050505050815260200160108201805461268390614c9a565b80601f01602080910402602001604051908101604052809291908181526020018280546126af90614c9a565b80156126fc5780601f106126d1576101008083540402835291602001916126fc565b820191906000526020600020905b8154815290600101906020018083116126df57829003601f168201915b5050505050815250508152602001601382015481526020016014820160009054906101000a900460ff16151515158152602001601582015481525050915050919050565b606060006001549050600080600190505b82811161278857612761816131cf565b1561277557818061277190614d5d565b9250505b808061278090614d5d565b915050612751565b5060008167ffffffffffffffff8111156127a5576127a4614313565b5b6040519080825280602002602001820160405280156127de57816020015b6127cb613dac565b8152602001906001900390816127c35790505b509050600080600190505b8481116131c4576127f9816131cf565b156131b157600260008281526020019081526020016000206040518060c0016040529081600082015481526020016001820160009054906101000a900473ffffffffffffffffffffffffffffffffffffffff1673ffffffffffffffffffffffffffffffffffffffff1673ffffffffffffffffffffffffffffffffffffffff168152602001600282016040518061022001604052908160008201805461289d90614c9a565b80601f01602080910402602001604051908101604052809291908181526020018280546128c990614c9a565b80156129165780601f106128eb57610100808354040283529160200191612916565b820191906000526020600020905b8154815290600101906020018083116128f957829003601f168201915b5050505050815260200160018201805461292f90614c9a565b80601f016020809104026020016040519081016040528092919081815260200182805461295b90614c9a565b80156129a85780601f1061297d576101008083540402835291602001916129a8565b820191906000526020600020905b81548152906001019060200180831161298b57829003601f168201915b505050505081526020016002820180546129c190614c9a565b80601f01602080910402602001604051908101604052809291908181526020018280546129ed90614c9a565b8015612a3a5780601f10612a0f57610100808354040283529160200191612a3a565b820191906000526020600020905b815481529060010190602001808311612a1d57829003601f168201915b50505050508152602001600382018054612a5390614c9a565b80601f0160208091040260200160405190810160405280929190818152602001828054612a7f90614c9a565b8015612acc5780601f10612aa157610100808354040283529160200191612acc565b820191906000526020600020905b815481529060010190602001808311612aaf57829003601f168201915b50505050508152602001600482018054612ae590614c9a565b80601f0160208091040260200160405190810160405280929190818152602001828054612b1190614c9a565b8015612b5e5780601f10612b3357610100808354040283529160200191612b5e565b820191906000526020600020905b815481529060010190602001808311612b4157829003601f168201915b505050505081526020016005820160009054906101000a900460ff16151515158152602001600682018054612b9290614c9a565b80601f0160208091040260200160405190810160405280929190818152602001828054612bbe90614c9a565b8015612c0b5780601f10612be057610100808354040283529160200191612c0b565b820191906000526020600020905b815481529060010190602001808311612bee57829003601f168201915b50505050508152602001600782018054612c2490614c9a565b80601f0160208091040260200160405190810160405280929190818152602001828054612c5090614c9a565b8015612c9d5780601f10612c7257610100808354040283529160200191612c9d565b820191906000526020600020905b815481529060010190602001808311612c8057829003601f168201915b50505050508152602001600882018054612cb690614c9a565b80601f0160208091040260200160405190810160405280929190818152602001828054612ce290614c9a565b8015612d2f5780601f10612d0457610100808354040283529160200191612d2f565b820191906000526020600020905b815481529060010190602001808311612d1257829003601f168201915b50505050508152602001600982018054612d4890614c9a565b80601f0160208091040260200160405190810160405280929190818152602001828054612d7490614c9a565b8015612dc15780601f10612d9657610100808354040283529160200191612dc1565b820191906000526020600020905b815481529060010190602001808311612da457829003601f168201915b50505050508152602001600a820160009054906101000a900460ff16151515158152602001600b82018054612df590614c9a565b80601f0160208091040260200160405190810160405280929190818152602001828054612e2190614c9a565b8015612e6e5780601f10612e4357610100808354040283529160200191612e6e565b820191906000526020600020905b815481529060010190602001808311612e5157829003601f168201915b50505050508152602001600c82018054612e8790614c9a565b80601f0160208091040260200160405190810160405280929190818152602001828054612eb390614c9a565b8015612f005780601f10612ed557610100808354040283529160200191612f00565b820191906000526020600020905b815481529060010190602001808311612ee357829003601f168201915b50505050508152602001600d82018054612f1990614c9a565b80601f0160208091040260200160405190810160405280929190818152602001828054612f4590614c9a565b8015612f925780601f10612f6757610100808354040283529160200191612f92565b820191906000526020600020905b815481529060010190602001808311612f7557829003601f168201915b50505050508152602001600e82018054612fab90614c9a565b80601f0160208091040260200160405190810160405280929190818152602001828054612fd790614c9a565b80156130245780601f10612ff957610100808354040283529160200191613024565b820191906000526020600020905b81548152906001019060200180831161300757829003601f168201915b50505050508152602001600f8201805461303d90614c9a565b80601f016020809104026020016040519081016040528092919081815260200182805461306990614c9a565b80156130b65780601f1061308b576101008083540402835291602001916130b6565b820191906000526020600020905b81548152906001019060200180831161309957829003601f168201915b505050505081526020016010820180546130cf90614c9a565b80601f01602080910402602001604051908101604052809291908181526020018280546130fb90614c9a565b80156131485780601f1061311d57610100808354040283529160200191613148565b820191906000526020600020905b81548152906001019060200180831161312b57829003601f168201915b5050505050815250508152602001601382015481526020016014820160009054906101000a900460ff1615151515815260200160158201548152505083838151811061319757613196614d2e565b5b602002602001018190525081806131ad90614d5d565b9250505b80806131bc90614d5d565b9150506127e9565b508194505050505090565b6000818060026000838152602001908152602001600020600001541461322a576040517f08c379a000000000000000000000000000000000000000000000000000000000815260040161322190614e02565b60405180910390fd5b6000600260008581526020019081526020016000206040518060c0016040529081600082015481526020016001820160009054906101000a900473ffffffffffffffffffffffffffffffffffffffff1673ffffffffffffffffffffffffffffffffffffffff1673ffffffffffffffffffffffffffffffffffffffff16815260200160028201604051806102200160405290816000820180546132cb90614c9a565b80601f01602080910402602001604051908101604052809291908181526020018280546132f790614c9a565b80156133445780601f1061331957610100808354040283529160200191613344565b820191906000526020600020905b81548152906001019060200180831161332757829003601f168201915b5050505050815260200160018201805461335d90614c9a565b80601f016020809104026020016040519081016040528092919081815260200182805461338990614c9a565b80156133d65780601f106133ab576101008083540402835291602001916133d6565b820191906000526020600020905b8154815290600101906020018083116133b957829003601f168201915b505050505081526020016002820180546133ef90614c9a565b80601f016020809104026020016040519081016040528092919081815260200182805461341b90614c9a565b80156134685780601f1061343d57610100808354040283529160200191613468565b820191906000526020600020905b81548152906001019060200180831161344b57829003601f168201915b5050505050815260200160038201805461348190614c9a565b80601f01602080910402602001604051908101604052809291908181526020018280546134ad90614c9a565b80156134fa5780601f106134cf576101008083540402835291602001916134fa565b820191906000526020600020905b8154815290600101906020018083116134dd57829003601f168201915b5050505050815260200160048201805461351390614c9a565b80601f016020809104026020016040519081016040528092919081815260200182805461353f90614c9a565b801561358c5780601f106135615761010080835404028352916020019161358c565b820191906000526020600020905b81548152906001019060200180831161356f57829003601f168201915b505050505081526020016005820160009054906101000a900460ff161515151581526020016006820180546135c090614c9a565b80601f01602080910402602001604051908101604052809291908181526020018280546135ec90614c9a565b80156136395780601f1061360e57610100808354040283529160200191613639565b820191906000526020600020905b81548152906001019060200180831161361c57829003601f168201915b5050505050815260200160078201805461365290614c9a565b80601f016020809104026020016040519081016040528092919081815260200182805461367e90614c9a565b80156136cb5780601f106136a0576101008083540402835291602001916136cb565b820191906000526020600020905b8154815290600101906020018083116136ae57829003601f168201915b505050505081526020016008820180546136e490614c9a565b80601f016020809104026020016040519081016040528092919081815260200182805461371090614c9a565b801561375d5780601f106137325761010080835404028352916020019161375d565b820191906000526020600020905b81548152906001019060200180831161374057829003601f168201915b5050505050815260200160098201805461377690614c9a565b80601f01602080910402602001604051908101604052809291908181526020018280546137a290614c9a565b80156137ef5780601f106137c4576101008083540402835291602001916137ef565b820191906000526020600020905b8154815290600101906020018083116137d257829003601f168201915b50505050508152602001600a820160009054906101000a900460ff16151515158152602001600b8201805461382390614c9a565b80601f016020809104026020016040519081016040528092919081815260200182805461384f90614c9a565b801561389c5780601f106138715761010080835404028352916020019161389c565b820191906000526020600020905b81548152906001019060200180831161387f57829003601f168201915b50505050508152602001600c820180546138b590614c9a565b80601f01602080910402602001604051908101604052809291908181526020018280546138e190614c9a565b801561392e5780601f106139035761010080835404028352916020019161392e565b820191906000526020600020905b81548152906001019060200180831161391157829003601f168201915b50505050508152602001600d8201805461394790614c9a565b80601f016020809104026020016040519081016040528092919081815260200182805461397390614c9a565b80156139c05780601f10613995576101008083540402835291602001916139c0565b820191906000526020600020905b8154815290600101906020018083116139a357829003601f168201915b50505050508152602001600e820180546139d990614c9a565b80601f0160208091040260200160405190810160405280929190818152602001828054613a0590614c9a565b8015613a525780601f10613a2757610100808354040283529160200191613a52565b820191906000526020600020905b815481529060010190602001808311613a3557829003601f168201915b50505050508152602001600f82018054613a6b90614c9a565b80601f0160208091040260200160405190810160405280929190818152602001828054613a9790614c9a565b8015613ae45780601f10613ab957610100808354040283529160200191613ae4565b820191906000526020600020905b815481529060010190602001808311613ac757829003601f168201915b50505050508152602001601082018054613afd90614c9a565b80601f0160208091040260200160405190810160405280929190818152602001828054613b2990614c9a565b8015613b765780601f10613b4b57610100808354040283529160200191613b76565b820191906000526020600020905b815481529060010190602001808311613b5957829003601f168201915b5050505050815250508152602001601382015481526020016014820160009054906101000a900460ff161515151581526020016015820154815250509050620151808160a00151613bc791906152e8565b42101592505050919050565b613bdb613c59565b600073ffffffffffffffffffffffffffffffffffffffff168173ffffffffffffffffffffffffffffffffffffffff1603613c4d5760006040517f1e4fbdf7000000000000000000000000000000000000000000000000000000008152600401613c449190614b5d565b60405180910390fd5b613c5681613ce0565b50565b613c61613da4565b73ffffffffffffffffffffffffffffffffffffffff16613c7f611cf9565b73ffffffffffffffffffffffffffffffffffffffff1614613cde57613ca2613da4565b6040517f118cdaa7000000000000000000000000000000000000000000000000000000008152600401613cd59190614b5d565b60405180910390fd5b565b60008060009054906101000a900473ffffffffffffffffffffffffffffffffffffffff169050816000806101000a81548173ffffffffffffffffffffffffffffffffffffffff021916908373ffffffffffffffffffffffffffffffffffffffff1602179055508173ffffffffffffffffffffffffffffffffffffffff168173ffffffffffffffffffffffffffffffffffffffff167f8be0079c531659141344cd1fd0a4f28419497f9722a3daafe3b4186f6b6457e060405160405180910390a35050565b600033905090565b6040518060c0016040528060008152602001600073ffffffffffffffffffffffffffffffffffffffff168152602001613de3613e00565b815260200160008152602001600015158152602001600081525090565b6040518061022001604052806060815260200160608152602001606081526020016060815260200160608152602001600015158152602001606081526020016060815260200160608152602001606081526020016000151581526020016060815260200160608152602001606081526020016060815260200160608152602001606081525090565b600081519050919050565b600082825260208201905092915050565b6000819050602082019050919050565b6000819050919050565b613ec781613eb4565b82525050565b600073ffffffffffffffffffffffffffffffffffffffff82169050919050565b6000613ef882613ecd565b9050919050565b613f0881613eed565b82525050565b600081519050919050565b600082825260208201905092915050565b60005b83811015613f48578082015181840152602081019050613f2d565b60008484015250505050565b6000601f19601f8301169050919050565b6000613f7082613f0e565b613f7a8185613f19565b9350613f8a818560208601613f2a565b613f9381613f54565b840191505092915050565b60008115159050919050565b613fb381613f9e565b82525050565b6000610220830160008301518482036000860152613fd78282613f65565b91505060208301518482036020860152613ff18282613f65565b9150506040830151848203604086015261400b8282613f65565b915050606083015184820360608601526140258282613f65565b9150506080830151848203608086015261403f8282613f65565b91505060a083015161405460a0860182613faa565b5060c083015184820360c086015261406c8282613f65565b91505060e083015184820360e08601526140868282613f65565b9150506101008301518482036101008601526140a28282613f65565b9150506101208301518482036101208601526140be8282613f65565b9150506101408301516140d5610140860182613faa565b506101608301518482036101608601526140ef8282613f65565b91505061018083015184820361018086015261410b8282613f65565b9150506101a08301518482036101a08601526141278282613f65565b9150506101c08301518482036101c08601526141438282613f65565b9150506101e08301518482036101e086015261415f8282613f65565b91505061020083015184820361020086015261417b8282613f65565b9150508091505092915050565b600060c0830160008301516141a06000860182613ebe565b5060208301516141b36020860182613eff565b50604083015184820360408601526141cb8282613fb9565b91505060608301516141e06060860182613ebe565b5060808301516141f36080860182613faa565b5060a083015161420660a0860182613ebe565b508091505092915050565b600061421d8383614188565b905092915050565b6000602082019050919050565b600061423d82613e88565b6142478185613e93565b93508360208202850161425985613ea4565b8060005b8581101561429557848403895281516142768582614211565b945061428183614225565b925060208a0199505060018101905061425d565b50829750879550505050505092915050565b600060208201905081810360008301526142c18184614232565b905092915050565b6000604051905090565b600080fd5b600080fd5b6142e681613eb4565b81146142f157600080fd5b50565b600081359050614303816142dd565b92915050565b600080fd5b600080fd5b7f4e487b7100000000000000000000000000000000000000000000000000000000600052604160045260246000fd5b61434b82613f54565b810181811067ffffffffffffffff8211171561436a57614369614313565b5b80604052505050565b600061437d6142c9565b90506143898282614342565b919050565b600067ffffffffffffffff8211156143a9576143a8614313565b5b6143b282613f54565b9050602081019050919050565b82818337600083830152505050565b60006143e16143dc8461438e565b614373565b9050828152602081018484840111156143fd576143fc61430e565b5b6144088482856143bf565b509392505050565b600082601f83011261442557614424614309565b5b81356144358482602086016143ce565b91505092915050565b60008060408385031215614455576144546142d3565b5b6000614463858286016142f4565b925050602083013567ffffffffffffffff811115614484576144836142d8565b5b61449085828601614410565b9150509250929050565b6144a381613eed565b81146144ae57600080fd5b50565b6000813590506144c08161449a565b92915050565b600080fd5b600080fd5b6144d981613f9e565b81146144e457600080fd5b50565b6000813590506144f6816144d0565b92915050565b60006102208284031215614513576145126144c6565b5b61451e610220614373565b9050600082013567ffffffffffffffff81111561453e5761453d6144cb565b5b61454a84828501614410565b600083015250602082013567ffffffffffffffff81111561456e5761456d6144cb565b5b61457a84828501614410565b602083015250604082013567ffffffffffffffff81111561459e5761459d6144cb565b5b6145aa84828501614410565b604083015250606082013567ffffffffffffffff8111156145ce576145cd6144cb565b5b6145da84828501614410565b606083015250608082013567ffffffffffffffff8111156145fe576145fd6144cb565b5b61460a84828501614410565b60808301525060a061461e848285016144e7565b60a08301525060c082013567ffffffffffffffff811115614642576146416144cb565b5b61464e84828501614410565b60c08301525060e082013567ffffffffffffffff811115614672576146716144cb565b5b61467e84828501614410565b60e08301525061010082013567ffffffffffffffff8111156146a3576146a26144cb565b5b6146af84828501614410565b6101008301525061012082013567ffffffffffffffff8111156146d5576146d46144cb565b5b6146e184828501614410565b610120830152506101406146f7848285016144e7565b6101408301525061016082013567ffffffffffffffff81111561471d5761471c6144cb565b5b61472984828501614410565b6101608301525061018082013567ffffffffffffffff81111561474f5761474e6144cb565b5b61475b84828501614410565b610180830152506101a082013567ffffffffffffffff811115614781576147806144cb565b5b61478d84828501614410565b6101a0830152506101c082013567ffffffffffffffff8111156147b3576147b26144cb565b5b6147bf84828501614410565b6101c0830152506101e082013567ffffffffffffffff8111156147e5576147e46144cb565b5b6147f184828501614410565b6101e08301525061020082013567ffffffffffffffff811115614817576148166144cb565b5b61482384828501614410565b6102008301525092915050565b60008060408385031215614847576148466142d3565b5b6000614855858286016144b1565b925050602083013567ffffffffffffffff811115614876576148756142d8565b5b614882858286016144fc565b9150509250929050565b600080604083850312156148a3576148a26142d3565b5b60006148b1858286016142f4565b92505060206148c2858286016144b1565b9150509250929050565b6000602082840312156148e2576148e16142d3565b5b60006148f0848285016142f4565b91505092915050565b61490281613eb4565b82525050565b61491181613eed565b82525050565b60006102208301600083015184820360008601526149358282613f65565b9150506020830151848203602086015261494f8282613f65565b915050604083015184820360408601526149698282613f65565b915050606083015184820360608601526149838282613f65565b9150506080830151848203608086015261499d8282613f65565b91505060a08301516149b260a0860182613faa565b5060c083015184820360c08601526149ca8282613f65565b91505060e083015184820360e08601526149e48282613f65565b915050610100830151848203610100860152614a008282613f65565b915050610120830151848203610120860152614a1c8282613f65565b915050610140830151614a33610140860182613faa565b50610160830151848203610160860152614a4d8282613f65565b915050610180830151848203610180860152614a698282613f65565b9150506101a08301518482036101a0860152614a858282613f65565b9150506101c08301518482036101c0860152614aa18282613f65565b9150506101e08301518482036101e0860152614abd8282613f65565b915050610200830151848203610200860152614ad98282613f65565b9150508091505092915050565b614aef81613f9e565b82525050565b600060c082019050614b0a60008301896148f9565b614b176020830188614908565b8181036040830152614b298187614917565b9050614b3860608301866148f9565b614b456080830185614ae6565b614b5260a08301846148f9565b979650505050505050565b6000602082019050614b726000830184614908565b92915050565b6000602082019050614b8d6000830184614ae6565b92915050565b600060c083016000830151614bab6000860182613ebe565b506020830151614bbe6020860182613eff565b5060408301518482036040860152614bd68282613fb9565b9150506060830151614beb6060860182613ebe565b506080830151614bfe6080860182613faa565b5060a0830151614c1160a0860182613ebe565b508091505092915050565b60006020820190508181036000830152614c368184614b93565b905092915050565b600060208284031215614c5457614c536142d3565b5b6000614c62848285016144b1565b91505092915050565b7f4e487b7100000000000000000000000000000000000000000000000000000000600052602260045260246000fd5b60006002820490506001821680614cb257607f821691505b602082108103614cc557614cc4614c6b565b5b50919050565b7f4e487b7100000000000000000000000000000000000000000000000000000000600052601160045260246000fd5b6000614d0582613eb4565b9150614d1083613eb4565b9250828203905081811115614d2857614d27614ccb565b5b92915050565b7f4e487b7100000000000000000000000000000000000000000000000000000000600052603260045260246000fd5b6000614d6882613eb4565b91507fffffffffffffffffffffffffffffffffffffffffffffffffffffffffffffffff8203614d9a57614d99614ccb565b5b600182019050919050565b600082825260208201905092915050565b7f50726f6475637420646f6573206e6f7420657869737400000000000000000000600082015250565b6000614dec601683614da5565b9150614df782614db6565b602082019050919050565b60006020820190508181036000830152614e1b81614ddf565b9050919050565b7f4f6e6c79207468652070726f64756374206f776e65722063616e20706572666f60008201527f726d207468697320616374696f6e000000000000000000000000000000000000602082015250565b6000614e7e602e83614da5565b9150614e8982614e22565b604082019050919050565b60006020820190508181036000830152614ead81614e71565b9050919050565b60008190508160005260206000209050919050565b60006020601f8301049050919050565b600082821b905092915050565b600060088302614f167fffffffffffffffffffffffffffffffffffffffffffffffffffffffffffffffff82614ed9565b614f208683614ed9565b95508019841693508086168417925050509392505050565b6000819050919050565b6000614f5d614f58614f5384613eb4565b614f38565b613eb4565b9050919050565b6000819050919050565b614f7783614f42565b614f8b614f8382614f64565b848454614ee6565b825550505050565b600090565b614fa0614f93565b614fab818484614f6e565b505050565b5b81811015614fcf57614fc4600082614f98565b600181019050614fb1565b5050565b601f82111561501457614fe581614eb4565b614fee84614ec9565b81016020851015614ffd578190505b61501161500985614ec9565b830182614fb0565b50505b505050565b600082821c905092915050565b600061503760001984600802615019565b1980831691505092915050565b60006150508383615026565b9150826002028217905092915050565b61506982613f0e565b67ffffffffffffffff81111561508257615081614313565b5b61508c8254614c9a565b615097828285614fd3565b600060209050601f8311600181146150ca57600084156150b8578287015190505b6150c28582615044565b86555061512a565b601f1984166150d886614eb4565b60005b82811015615100578489015182556001820191506020850194506020810190506150db565b8683101561511d5784890151615119601f891682615026565b8355505b6001600288020188555050505b505050505050565b600061513d82613f0e565b6151478185614da5565b9350615157818560208601613f2a565b61516081613f54565b840191505092915050565b600060208201905081810360008301526151858184615132565b905092915050565b600060408201905081810360008301526151a78185615132565b905081810360208301526151bb8184615132565b90509392505050565b7f50726f64756374206f776e65722063616e6e6f74207570766f7465207468656960008201527f72206f776e2070726f6475637400000000000000000000000000000000000000602082015250565b6000615220602d83614da5565b915061522b826151c4565b604082019050919050565b6000602082019050818103600083015261524f81615213565b9050919050565b7f557365722068617320616c7265616479207570766f746564207468697320707260008201527f6f64756374000000000000000000000000000000000000000000000000000000602082015250565b60006152b2602583614da5565b91506152bd82615256565b604082019050919050565b600060208201905081810360008301526152e1816152a5565b9050919050565b60006152f382613eb4565b91506152fe83613eb4565b925082820190508082111561531657615315614ccb565b5b9291505056fea26469706673582212206ee92fb3f4ffb2e99a6b10da9dd0afc7d414671de718020b09ecf79046f9873264736f6c63430008180033",
  "linkReferences": {},
  "deployedLinkReferences": {}
}