{
  "_format": "hh-sol-artifact-1",
  "contractName": "Product",
  "sourceName": "contracts/Product.sol",
  "abi": [
    {
      "inputs": [],
      "name": "InvalidInitialization",
      "type": "error"
    },
    {
      "inputs": [],
      "name": "NotInitializing",
      "type": "error"
    },
    {
      "inputs": [
        {
          "internalType": "address",
          "name": "owner",
          "type": "address"
        }
      ],
      "name": "OwnableInvalidOwner",
      "type": "error"
    },
    {
      "inputs": [
        {
          "internalType": "address",
          "name": "account",
          "type": "address"
        }
      ],
      "name": "OwnableUnauthorizedAccount",
      "type": "error"
    },
    {
      "anonymous": false,
      "inputs": [
        {
          "indexed": true,
          "internalType": "uint256",
          "name": "productId",
          "type": "uint256"
        },
        {
          "indexed": false,
          "internalType": "string",
          "name": "betaTestingLink",
          "type": "string"
        }
      ],
      "name": "BetaTestingLinkUpdated",
      "type": "event"
    },
    {
      "anonymous": false,
      "inputs": [
        {
          "indexed": false,
          "internalType": "uint64",
          "name": "version",
          "type": "uint64"
        }
      ],
      "name": "Initialized",
      "type": "event"
    },
    {
      "anonymous": false,
      "inputs": [
        {
          "indexed": true,
          "internalType": "address",
          "name": "previousOwner",
          "type": "address"
        },
        {
          "indexed": true,
          "internalType": "address",
          "name": "newOwner",
          "type": "address"
        }
      ],
      "name": "OwnershipTransferred",
      "type": "event"
    },
    {
      "anonymous": false,
      "inputs": [
        {
          "indexed": true,
          "internalType": "uint256",
          "name": "productId",
          "type": "uint256"
        },
        {
          "indexed": true,
          "internalType": "address",
          "name": "owner",
          "type": "address"
        },
        {
          "indexed": false,
          "internalType": "string",
          "name": "productName",
          "type": "string"
        },
        {
          "indexed": false,
          "internalType": "string",
          "name": "description",
          "type": "string"
        }
      ],
      "name": "ProductRegistered",
      "type": "event"
    },
    {
      "anonymous": false,
      "inputs": [
        {
          "indexed": true,
          "internalType": "uint256",
          "name": "productId",
          "type": "uint256"
        },
        {
          "indexed": true,
          "internalType": "address",
          "name": "user",
          "type": "address"
        }
      ],
      "name": "ProductUpvoted",
      "type": "event"
    },
    {
      "inputs": [
        {
          "internalType": "uint256",
          "name": "",
          "type": "uint256"
        }
      ],
      "name": "betaTestingDetails",
      "outputs": [
        {
          "internalType": "string",
          "name": "contractAddress",
          "type": "string"
        },
        {
          "internalType": "uint256",
          "name": "targetNumbersOfTester",
          "type": "uint256"
        },
        {
          "internalType": "string",
          "name": "testingGoal",
          "type": "string"
        },
        {
          "internalType": "uint256",
          "name": "startingDate",
          "type": "uint256"
        },
        {
          "internalType": "uint256",
          "name": "endingDate",
          "type": "uint256"
        },
        {
          "internalType": "string",
          "name": "featureLoomLink",
          "type": "string"
        }
      ],
      "stateMutability": "view",
      "type": "function"
    },
    {
      "inputs": [
        {
          "internalType": "uint256",
          "name": "_productId",
          "type": "uint256"
        }
      ],
      "name": "canBeListed",
      "outputs": [
        {
          "internalType": "bool",
          "name": "",
          "type": "bool"
        }
      ],
      "stateMutability": "view",
      "type": "function"
    },
    {
      "inputs": [
        {
          "internalType": "uint256",
          "name": "_productId",
          "type": "uint256"
        }
      ],
      "name": "deleteProduct",
      "outputs": [],
      "stateMutability": "nonpayable",
      "type": "function"
    },
    {
      "inputs": [],
      "name": "getListedProducts",
      "outputs": [
        {
          "components": [
            {
              "components": [
                {
                  "internalType": "uint256",
                  "name": "id",
                  "type": "uint256"
                },
                {
                  "internalType": "address",
                  "name": "owner",
                  "type": "address"
                },
                {
                  "components": [
                    {
                      "internalType": "string",
                      "name": "productName",
                      "type": "string"
                    },
                    {
                      "internalType": "string",
                      "name": "tagLine",
                      "type": "string"
                    },
                    {
                      "internalType": "string",
                      "name": "productLink",
                      "type": "string"
                    },
                    {
                      "internalType": "string",
                      "name": "twitterLink",
                      "type": "string"
                    },
                    {
                      "internalType": "string",
                      "name": "description",
                      "type": "string"
                    },
                    {
                      "internalType": "bool",
                      "name": "isOpenSource",
                      "type": "bool"
                    },
                    {
                      "internalType": "string",
                      "name": "category",
                      "type": "string"
                    },
                    {
                      "internalType": "string",
                      "name": "thumbNail",
                      "type": "string"
                    },
                    {
                      "internalType": "string",
                      "name": "mediaFile",
                      "type": "string"
                    },
                    {
                      "internalType": "string",
                      "name": "loomLink",
                      "type": "string"
                    },
                    {
                      "internalType": "bool",
                      "name": "workedWithTeam",
                      "type": "bool"
                    },
                    {
                      "internalType": "string",
                      "name": "teamMembersInput",
                      "type": "string"
                    },
                    {
                      "internalType": "string",
                      "name": "pricingOption",
                      "type": "string"
                    },
                    {
                      "internalType": "string",
                      "name": "offer",
                      "type": "string"
                    },
                    {
                      "internalType": "string",
                      "name": "promoCode",
                      "type": "string"
                    },
                    {
                      "internalType": "string",
                      "name": "expirationDate",
                      "type": "string"
                    },
                    {
                      "internalType": "string",
                      "name": "betaTestingLink",
                      "type": "string"
                    }
                  ],
                  "internalType": "struct ProductLibrary.ProductDetails",
                  "name": "details",
                  "type": "tuple"
                },
                {
                  "internalType": "uint256",
                  "name": "upvotes",
                  "type": "uint256"
                },
                {
                  "internalType": "bool",
                  "name": "betaTestingAvailable",
                  "type": "bool"
                },
                {
                  "internalType": "uint256",
                  "name": "timestamp",
                  "type": "uint256"
                }
              ],
              "internalType": "struct ProductLibrary.ProductInfo",
              "name": "product",
              "type": "tuple"
            },
            {
              "components": [
                {
                  "internalType": "string",
                  "name": "contractAddress",
                  "type": "string"
                },
                {
                  "internalType": "uint256",
                  "name": "targetNumbersOfTester",
                  "type": "uint256"
                },
                {
                  "internalType": "string",
                  "name": "testingGoal",
                  "type": "string"
                },
                {
                  "internalType": "string[]",
                  "name": "goals",
                  "type": "string[]"
                },
                {
                  "internalType": "uint256",
                  "name": "startingDate",
                  "type": "uint256"
                },
                {
                  "internalType": "uint256",
                  "name": "endingDate",
                  "type": "uint256"
                },
                {
                  "internalType": "string",
                  "name": "featureLoomLink",
                  "type": "string"
                }
              ],
              "internalType": "struct BetaTestingDetailsLibrary.BetaTestingDetails",
              "name": "betaTestingDetails",
              "type": "tuple"
            },
            {
              "internalType": "bool",
              "name": "hasBetaTestingDetails",
              "type": "bool"
            }
          ],
          "internalType": "struct ProductLibrary.ProductWithBetaTesting[]",
          "name": "",
          "type": "tuple[]"
        }
      ],
      "stateMutability": "view",
      "type": "function"
    },
    {
      "inputs": [],
      "name": "getListedProductsAvailable",
      "outputs": [
        {
          "components": [
            {
              "components": [
                {
                  "internalType": "uint256",
                  "name": "id",
                  "type": "uint256"
                },
                {
                  "internalType": "address",
                  "name": "owner",
                  "type": "address"
                },
                {
                  "components": [
                    {
                      "internalType": "string",
                      "name": "productName",
                      "type": "string"
                    },
                    {
                      "internalType": "string",
                      "name": "tagLine",
                      "type": "string"
                    },
                    {
                      "internalType": "string",
                      "name": "productLink",
                      "type": "string"
                    },
                    {
                      "internalType": "string",
                      "name": "twitterLink",
                      "type": "string"
                    },
                    {
                      "internalType": "string",
                      "name": "description",
                      "type": "string"
                    },
                    {
                      "internalType": "bool",
                      "name": "isOpenSource",
                      "type": "bool"
                    },
                    {
                      "internalType": "string",
                      "name": "category",
                      "type": "string"
                    },
                    {
                      "internalType": "string",
                      "name": "thumbNail",
                      "type": "string"
                    },
                    {
                      "internalType": "string",
                      "name": "mediaFile",
                      "type": "string"
                    },
                    {
                      "internalType": "string",
                      "name": "loomLink",
                      "type": "string"
                    },
                    {
                      "internalType": "bool",
                      "name": "workedWithTeam",
                      "type": "bool"
                    },
                    {
                      "internalType": "string",
                      "name": "teamMembersInput",
                      "type": "string"
                    },
                    {
                      "internalType": "string",
                      "name": "pricingOption",
                      "type": "string"
                    },
                    {
                      "internalType": "string",
                      "name": "offer",
                      "type": "string"
                    },
                    {
                      "internalType": "string",
                      "name": "promoCode",
                      "type": "string"
                    },
                    {
                      "internalType": "string",
                      "name": "expirationDate",
                      "type": "string"
                    },
                    {
                      "internalType": "string",
                      "name": "betaTestingLink",
                      "type": "string"
                    }
                  ],
                  "internalType": "struct ProductLibrary.ProductDetails",
                  "name": "details",
                  "type": "tuple"
                },
                {
                  "internalType": "uint256",
                  "name": "upvotes",
                  "type": "uint256"
                },
                {
                  "internalType": "bool",
                  "name": "betaTestingAvailable",
                  "type": "bool"
                },
                {
                  "internalType": "uint256",
                  "name": "timestamp",
                  "type": "uint256"
                }
              ],
              "internalType": "struct ProductLibrary.ProductInfo",
              "name": "product",
              "type": "tuple"
            },
            {
              "components": [
                {
                  "internalType": "string",
                  "name": "contractAddress",
                  "type": "string"
                },
                {
                  "internalType": "uint256",
                  "name": "targetNumbersOfTester",
                  "type": "uint256"
                },
                {
                  "internalType": "string",
                  "name": "testingGoal",
                  "type": "string"
                },
                {
                  "internalType": "string[]",
                  "name": "goals",
                  "type": "string[]"
                },
                {
                  "internalType": "uint256",
                  "name": "startingDate",
                  "type": "uint256"
                },
                {
                  "internalType": "uint256",
                  "name": "endingDate",
                  "type": "uint256"
                },
                {
                  "internalType": "string",
                  "name": "featureLoomLink",
                  "type": "string"
                }
              ],
              "internalType": "struct BetaTestingDetailsLibrary.BetaTestingDetails",
              "name": "betaTestingDetails",
              "type": "tuple"
            },
            {
              "internalType": "bool",
              "name": "hasBetaTestingDetails",
              "type": "bool"
            }
          ],
          "internalType": "struct ProductLibrary.ProductWithBetaTesting[]",
          "name": "",
          "type": "tuple[]"
        }
      ],
      "stateMutability": "view",
      "type": "function"
    },
    {
      "inputs": [
        {
          "internalType": "uint256",
          "name": "_productId",
          "type": "uint256"
        }
      ],
      "name": "getProduct",
      "outputs": [
        {
          "components": [
            {
              "components": [
                {
                  "internalType": "uint256",
                  "name": "id",
                  "type": "uint256"
                },
                {
                  "internalType": "address",
                  "name": "owner",
                  "type": "address"
                },
                {
                  "components": [
                    {
                      "internalType": "string",
                      "name": "productName",
                      "type": "string"
                    },
                    {
                      "internalType": "string",
                      "name": "tagLine",
                      "type": "string"
                    },
                    {
                      "internalType": "string",
                      "name": "productLink",
                      "type": "string"
                    },
                    {
                      "internalType": "string",
                      "name": "twitterLink",
                      "type": "string"
                    },
                    {
                      "internalType": "string",
                      "name": "description",
                      "type": "string"
                    },
                    {
                      "internalType": "bool",
                      "name": "isOpenSource",
                      "type": "bool"
                    },
                    {
                      "internalType": "string",
                      "name": "category",
                      "type": "string"
                    },
                    {
                      "internalType": "string",
                      "name": "thumbNail",
                      "type": "string"
                    },
                    {
                      "internalType": "string",
                      "name": "mediaFile",
                      "type": "string"
                    },
                    {
                      "internalType": "string",
                      "name": "loomLink",
                      "type": "string"
                    },
                    {
                      "internalType": "bool",
                      "name": "workedWithTeam",
                      "type": "bool"
                    },
                    {
                      "internalType": "string",
                      "name": "teamMembersInput",
                      "type": "string"
                    },
                    {
                      "internalType": "string",
                      "name": "pricingOption",
                      "type": "string"
                    },
                    {
                      "internalType": "string",
                      "name": "offer",
                      "type": "string"
                    },
                    {
                      "internalType": "string",
                      "name": "promoCode",
                      "type": "string"
                    },
                    {
                      "internalType": "string",
                      "name": "expirationDate",
                      "type": "string"
                    },
                    {
                      "internalType": "string",
                      "name": "betaTestingLink",
                      "type": "string"
                    }
                  ],
                  "internalType": "struct ProductLibrary.ProductDetails",
                  "name": "details",
                  "type": "tuple"
                },
                {
                  "internalType": "uint256",
                  "name": "upvotes",
                  "type": "uint256"
                },
                {
                  "internalType": "bool",
                  "name": "betaTestingAvailable",
                  "type": "bool"
                },
                {
                  "internalType": "uint256",
                  "name": "timestamp",
                  "type": "uint256"
                }
              ],
              "internalType": "struct ProductLibrary.ProductInfo",
              "name": "product",
              "type": "tuple"
            },
            {
              "components": [
                {
                  "internalType": "string",
                  "name": "contractAddress",
                  "type": "string"
                },
                {
                  "internalType": "uint256",
                  "name": "targetNumbersOfTester",
                  "type": "uint256"
                },
                {
                  "internalType": "string",
                  "name": "testingGoal",
                  "type": "string"
                },
                {
                  "internalType": "string[]",
                  "name": "goals",
                  "type": "string[]"
                },
                {
                  "internalType": "uint256",
                  "name": "startingDate",
                  "type": "uint256"
                },
                {
                  "internalType": "uint256",
                  "name": "endingDate",
                  "type": "uint256"
                },
                {
                  "internalType": "string",
                  "name": "featureLoomLink",
                  "type": "string"
                }
              ],
              "internalType": "struct BetaTestingDetailsLibrary.BetaTestingDetails",
              "name": "betaTestingDetails",
              "type": "tuple"
            },
            {
              "internalType": "bool",
              "name": "hasBetaTestingDetails",
              "type": "bool"
            }
          ],
          "internalType": "struct ProductLibrary.ProductWithBetaTesting",
          "name": "",
          "type": "tuple"
        }
      ],
      "stateMutability": "view",
      "type": "function"
    },
    {
      "inputs": [
        {
          "internalType": "uint256",
          "name": "",
          "type": "uint256"
        },
        {
          "internalType": "address",
          "name": "",
          "type": "address"
        }
      ],
      "name": "hasUpvoted",
      "outputs": [
        {
          "internalType": "bool",
          "name": "",
          "type": "bool"
        }
      ],
      "stateMutability": "view",
      "type": "function"
    },
    {
      "inputs": [
        {
          "internalType": "address",
          "name": "initialOwner",
          "type": "address"
        }
      ],
      "name": "initialize",
      "outputs": [],
      "stateMutability": "nonpayable",
      "type": "function"
    },
    {
      "inputs": [],
      "name": "owner",
      "outputs": [
        {
          "internalType": "address",
          "name": "",
          "type": "address"
        }
      ],
      "stateMutability": "view",
      "type": "function"
    },
    {
      "inputs": [
        {
          "internalType": "uint256",
          "name": "",
          "type": "uint256"
        }
      ],
      "name": "products",
      "outputs": [
        {
          "internalType": "uint256",
          "name": "id",
          "type": "uint256"
        },
        {
          "internalType": "address",
          "name": "owner",
          "type": "address"
        },
        {
          "components": [
            {
              "internalType": "string",
              "name": "productName",
              "type": "string"
            },
            {
              "internalType": "string",
              "name": "tagLine",
              "type": "string"
            },
            {
              "internalType": "string",
              "name": "productLink",
              "type": "string"
            },
            {
              "internalType": "string",
              "name": "twitterLink",
              "type": "string"
            },
            {
              "internalType": "string",
              "name": "description",
              "type": "string"
            },
            {
              "internalType": "bool",
              "name": "isOpenSource",
              "type": "bool"
            },
            {
              "internalType": "string",
              "name": "category",
              "type": "string"
            },
            {
              "internalType": "string",
              "name": "thumbNail",
              "type": "string"
            },
            {
              "internalType": "string",
              "name": "mediaFile",
              "type": "string"
            },
            {
              "internalType": "string",
              "name": "loomLink",
              "type": "string"
            },
            {
              "internalType": "bool",
              "name": "workedWithTeam",
              "type": "bool"
            },
            {
              "internalType": "string",
              "name": "teamMembersInput",
              "type": "string"
            },
            {
              "internalType": "string",
              "name": "pricingOption",
              "type": "string"
            },
            {
              "internalType": "string",
              "name": "offer",
              "type": "string"
            },
            {
              "internalType": "string",
              "name": "promoCode",
              "type": "string"
            },
            {
              "internalType": "string",
              "name": "expirationDate",
              "type": "string"
            },
            {
              "internalType": "string",
              "name": "betaTestingLink",
              "type": "string"
            }
          ],
          "internalType": "struct ProductLibrary.ProductDetails",
          "name": "details",
          "type": "tuple"
        },
        {
          "internalType": "uint256",
          "name": "upvotes",
          "type": "uint256"
        },
        {
          "internalType": "bool",
          "name": "betaTestingAvailable",
          "type": "bool"
        },
        {
          "internalType": "uint256",
          "name": "timestamp",
          "type": "uint256"
        }
      ],
      "stateMutability": "view",
      "type": "function"
    },
    {
      "inputs": [
        {
          "internalType": "address",
          "name": "_owner",
          "type": "address"
        },
        {
          "components": [
            {
              "internalType": "string",
              "name": "productName",
              "type": "string"
            },
            {
              "internalType": "string",
              "name": "tagLine",
              "type": "string"
            },
            {
              "internalType": "string",
              "name": "productLink",
              "type": "string"
            },
            {
              "internalType": "string",
              "name": "twitterLink",
              "type": "string"
            },
            {
              "internalType": "string",
              "name": "description",
              "type": "string"
            },
            {
              "internalType": "bool",
              "name": "isOpenSource",
              "type": "bool"
            },
            {
              "internalType": "string",
              "name": "category",
              "type": "string"
            },
            {
              "internalType": "string",
              "name": "thumbNail",
              "type": "string"
            },
            {
              "internalType": "string",
              "name": "mediaFile",
              "type": "string"
            },
            {
              "internalType": "string",
              "name": "loomLink",
              "type": "string"
            },
            {
              "internalType": "bool",
              "name": "workedWithTeam",
              "type": "bool"
            },
            {
              "internalType": "string",
              "name": "teamMembersInput",
              "type": "string"
            },
            {
              "internalType": "string",
              "name": "pricingOption",
              "type": "string"
            },
            {
              "internalType": "string",
              "name": "offer",
              "type": "string"
            },
            {
              "internalType": "string",
              "name": "promoCode",
              "type": "string"
            },
            {
              "internalType": "string",
              "name": "expirationDate",
              "type": "string"
            },
            {
              "internalType": "string",
              "name": "betaTestingLink",
              "type": "string"
            }
          ],
          "internalType": "struct ProductLibrary.ProductDetails",
          "name": "details",
          "type": "tuple"
        },
        {
          "internalType": "bool",
          "name": "betaTestingAvailable",
          "type": "bool"
        },
        {
          "components": [
            {
              "internalType": "string",
              "name": "contractAddress",
              "type": "string"
            },
            {
              "internalType": "uint256",
              "name": "targetNumbersOfTester",
              "type": "uint256"
            },
            {
              "internalType": "string",
              "name": "testingGoal",
              "type": "string"
            },
            {
              "internalType": "string[]",
              "name": "goals",
              "type": "string[]"
            },
            {
              "internalType": "uint256",
              "name": "startingDate",
              "type": "uint256"
            },
            {
              "internalType": "uint256",
              "name": "endingDate",
              "type": "uint256"
            },
            {
              "internalType": "string",
              "name": "featureLoomLink",
              "type": "string"
            }
          ],
          "internalType": "struct BetaTestingDetailsLibrary.BetaTestingDetails",
          "name": "betaDetails",
          "type": "tuple"
        }
      ],
      "name": "registerProduct",
      "outputs": [],
      "stateMutability": "nonpayable",
      "type": "function"
    },
    {
      "inputs": [],
      "name": "renounceOwnership",
      "outputs": [],
      "stateMutability": "nonpayable",
      "type": "function"
    },
    {
      "inputs": [
        {
          "internalType": "address",
          "name": "newOwner",
          "type": "address"
        }
      ],
      "name": "transferOwnership",
      "outputs": [],
      "stateMutability": "nonpayable",
      "type": "function"
    },
    {
      "inputs": [
        {
          "internalType": "uint256",
          "name": "_productId",
          "type": "uint256"
        },
        {
          "internalType": "string",
          "name": "_betaTestingLink",
          "type": "string"
        }
      ],
      "name": "updateBetaTestingLink",
      "outputs": [],
      "stateMutability": "nonpayable",
      "type": "function"
    },
    {
      "inputs": [
        {
          "internalType": "uint256",
          "name": "productId",
          "type": "uint256"
        },
        {
          "internalType": "address",
          "name": "upvoter",
          "type": "address"
        }
      ],
      "name": "upvoteProduct",
      "outputs": [],
      "stateMutability": "nonpayable",
      "type": "function"
    }
  ],
  "bytecode": "0x608060405234801561001057600080fd5b506155aa80620000216000396000f3fe608060405234801561001057600080fd5b50600436106100f55760003560e01c80639afaea2e11610097578063e66f7f4611610066578063e66f7f461461027a578063ed90c7b714610298578063f1c88b4b146102b4578063f2fde38b146102e4576100f5565b80639afaea2e146101c9578063a52c8658146101fe578063b9db15b41461022e578063c4d66de81461025e576100f5565b806363283c84116100d357806363283c8414610150578063715018a61461016c5780637acc0b20146101765780638da5cb5b146101ab576100f5565b80632326af51146100fa57806352cb26af1461011657806355110f1414610134575b600080fd5b610114600480360381019061010f91906141b3565b610300565b005b61011e6107ba565b60405161012b91906147e2565b60405180910390f35b61014e60048036038101906101499190614804565b610877565b005b61016a60048036038101906101659190614860565b610a0c565b005b610174610c8d565b005b610190600480360381019061018b91906148a0565b610ca1565b6040516101a296959493929190614ac9565b60405180910390f35b6101b36115d9565b6040516101c09190614b31565b60405180910390f35b6101e360048036038101906101de91906148a0565b611611565b6040516101f596959493929190614b96565b60405180910390f35b61021860048036038101906102139190614860565b6117e5565b6040516102259190614c0c565b60405180910390f35b610248600480360381019061024391906148a0565b611814565b6040516102559190614c7e565b60405180910390f35b61027860048036038101906102739190614ca0565b612526565b005b6102826126be565b60405161028f91906147e2565b60405180910390f35b6102b260048036038101906102ad91906148a0565b6127cf565b005b6102ce60048036038101906102c991906148a0565b612ac8565b6040516102db9190614c0c565b60405180910390f35b6102fe60048036038101906102f99190614ca0565b6134cc565b005b82600081600001515111610349576040517f08c379a000000000000000000000000000000000000000000000000000000000815260040161034090614d19565b60405180910390fd5b600081608001515111610391576040517f08c379a000000000000000000000000000000000000000000000000000000000815260040161038890614dab565b60405180910390fd5b6000816040015151116103d9576040517f08c379a00000000000000000000000000000000000000000000000000000000081526004016103d090614e17565b60405180910390fd5b6000808154809291906103eb90614e66565b91905055506000805490506040518060c001604052808281526020018773ffffffffffffffffffffffffffffffffffffffff16815260200186815260200160008152602001851515815260200142815250600160008381526020019081526020016000206000820151816000015560208201518160010160006101000a81548173ffffffffffffffffffffffffffffffffffffffff021916908373ffffffffffffffffffffffffffffffffffffffff16021790555060408201518160020160008201518160000190816104be91906150ba565b5060208201518160010190816104d491906150ba565b5060408201518160020190816104ea91906150ba565b50606082015181600301908161050091906150ba565b50608082015181600401908161051691906150ba565b5060a08201518160050160006101000a81548160ff02191690831515021790555060c082015181600601908161054c91906150ba565b5060e082015181600701908161056291906150ba565b5061010082015181600801908161057991906150ba565b5061012082015181600901908161059091906150ba565b5061014082015181600a0160006101000a81548160ff02191690831515021790555061016082015181600b0190816105c891906150ba565b5061018082015181600c0190816105df91906150ba565b506101a082015181600d0190816105f691906150ba565b506101c082015181600e01908161060d91906150ba565b506101e082015181600f01908161062491906150ba565b5061020082015181601001908161063b91906150ba565b5050506060820151816013015560808201518160140160006101000a81548160ff02191690831515021790555060a08201518160150155905050831561075957600085610200015151116106c4576040517f08c379a00000000000000000000000000000000000000000000000000000000081526004016106bb906151d8565b60405180910390fd5b826003600083815260200190815260200160002060008201518160000190816106ed91906150ba565b5060208201518160010155604082015181600201908161070d91906150ba565b50606082015181600301908051906020019061072a929190613802565b506080820151816004015560a0820151816005015560c082015181600601908161075491906150ba565b509050505b8573ffffffffffffffffffffffffffffffffffffffff16817fb5744bf87060f3c128bd7ec7c73734981e2525b5958bd63d50320e2e282fb757876000015188608001516040516107aa9291906151f8565b60405180910390a3505050505050565b606060008054905060008167ffffffffffffffff8111156107de576107dd613acd565b5b60405190808252806020026020018201604052801561081757816020015b61080461385b565b8152602001906001900390816107fc5790505b5090506000600190505b82811161086e5761083181611814565b8260018361083f919061522f565b815181106108505761084f615263565b5b6020026020010181905250808061086690614e66565b915050610821565b50809250505090565b81806001600083815260200190815260200160002060000154146108d0576040517f08c379a00000000000000000000000000000000000000000000000000000000081526004016108c7906152de565b60405180910390fd5b823373ffffffffffffffffffffffffffffffffffffffff166001600083815260200190815260200160002060010160009054906101000a900473ffffffffffffffffffffffffffffffffffffffff1673ffffffffffffffffffffffffffffffffffffffff1614610975576040517f08c379a000000000000000000000000000000000000000000000000000000000815260040161096c90615370565b60405180910390fd5b8260016000868152602001908152602001600020600201601001908161099b91906150ba565b5060008351116001600086815260200190815260200160002060140160006101000a81548160ff021916908315150217905550837f60b68b8d9dde04a1c7a3c8b7c6631c84bca71372b9f129b0958fd4d901a57e53846040516109fe9190615390565b60405180910390a250505050565b8180600160008381526020019081526020016000206000015414610a65576040517f08c379a0000000000000000000000000000000000000000000000000000000008152600401610a5c906152de565b60405180910390fd5b82828073ffffffffffffffffffffffffffffffffffffffff166001600084815260200190815260200160002060010160009054906101000a900473ffffffffffffffffffffffffffffffffffffffff1673ffffffffffffffffffffffffffffffffffffffff1603610b0b576040517f08c379a0000000000000000000000000000000000000000000000000000000008152600401610b0290615424565b60405180910390fd5b84846002600083815260200190815260200160002060008273ffffffffffffffffffffffffffffffffffffffff1673ffffffffffffffffffffffffffffffffffffffff16815260200190815260200160002060009054906101000a900460ff1615610bab576040517f08c379a0000000000000000000000000000000000000000000000000000000008152600401610ba2906154b6565b60405180910390fd5b600160008881526020019081526020016000206013016000815480929190610bd290614e66565b919050555060016002600089815260200190815260200160002060008873ffffffffffffffffffffffffffffffffffffffff1673ffffffffffffffffffffffffffffffffffffffff16815260200190815260200160002060006101000a81548160ff0219169083151502179055508573ffffffffffffffffffffffffffffffffffffffff16877f956f0f479292addd89f768b4b97612f546f78aae3d2b8a416a19c8b5b610b40560405160405180910390a350505050505050565b610c95613552565b610c9f60006135d9565b565b60016020528060005260406000206000915090508060000154908060010160009054906101000a900473ffffffffffffffffffffffffffffffffffffffff16908060020160405180610220016040529081600082018054610d0190614edd565b80601f0160208091040260200160405190810160405280929190818152602001828054610d2d90614edd565b8015610d7a5780601f10610d4f57610100808354040283529160200191610d7a565b820191906000526020600020905b815481529060010190602001808311610d5d57829003601f168201915b50505050508152602001600182018054610d9390614edd565b80601f0160208091040260200160405190810160405280929190818152602001828054610dbf90614edd565b8015610e0c5780601f10610de157610100808354040283529160200191610e0c565b820191906000526020600020905b815481529060010190602001808311610def57829003601f168201915b50505050508152602001600282018054610e2590614edd565b80601f0160208091040260200160405190810160405280929190818152602001828054610e5190614edd565b8015610e9e5780601f10610e7357610100808354040283529160200191610e9e565b820191906000526020600020905b815481529060010190602001808311610e8157829003601f168201915b50505050508152602001600382018054610eb790614edd565b80601f0160208091040260200160405190810160405280929190818152602001828054610ee390614edd565b8015610f305780601f10610f0557610100808354040283529160200191610f30565b820191906000526020600020905b815481529060010190602001808311610f1357829003601f168201915b50505050508152602001600482018054610f4990614edd565b80601f0160208091040260200160405190810160405280929190818152602001828054610f7590614edd565b8015610fc25780601f10610f9757610100808354040283529160200191610fc2565b820191906000526020600020905b815481529060010190602001808311610fa557829003601f168201915b505050505081526020016005820160009054906101000a900460ff16151515158152602001600682018054610ff690614edd565b80601f016020809104026020016040519081016040528092919081815260200182805461102290614edd565b801561106f5780601f106110445761010080835404028352916020019161106f565b820191906000526020600020905b81548152906001019060200180831161105257829003601f168201915b5050505050815260200160078201805461108890614edd565b80601f01602080910402602001604051908101604052809291908181526020018280546110b490614edd565b80156111015780601f106110d657610100808354040283529160200191611101565b820191906000526020600020905b8154815290600101906020018083116110e457829003601f168201915b5050505050815260200160088201805461111a90614edd565b80601f016020809104026020016040519081016040528092919081815260200182805461114690614edd565b80156111935780601f1061116857610100808354040283529160200191611193565b820191906000526020600020905b81548152906001019060200180831161117657829003601f168201915b505050505081526020016009820180546111ac90614edd565b80601f01602080910402602001604051908101604052809291908181526020018280546111d890614edd565b80156112255780601f106111fa57610100808354040283529160200191611225565b820191906000526020600020905b81548152906001019060200180831161120857829003601f168201915b50505050508152602001600a820160009054906101000a900460ff16151515158152602001600b8201805461125990614edd565b80601f016020809104026020016040519081016040528092919081815260200182805461128590614edd565b80156112d25780601f106112a7576101008083540402835291602001916112d2565b820191906000526020600020905b8154815290600101906020018083116112b557829003601f168201915b50505050508152602001600c820180546112eb90614edd565b80601f016020809104026020016040519081016040528092919081815260200182805461131790614edd565b80156113645780601f1061133957610100808354040283529160200191611364565b820191906000526020600020905b81548152906001019060200180831161134757829003601f168201915b50505050508152602001600d8201805461137d90614edd565b80601f01602080910402602001604051908101604052809291908181526020018280546113a990614edd565b80156113f65780601f106113cb576101008083540402835291602001916113f6565b820191906000526020600020905b8154815290600101906020018083116113d957829003601f168201915b50505050508152602001600e8201805461140f90614edd565b80601f016020809104026020016040519081016040528092919081815260200182805461143b90614edd565b80156114885780601f1061145d57610100808354040283529160200191611488565b820191906000526020600020905b81548152906001019060200180831161146b57829003601f168201915b50505050508152602001600f820180546114a190614edd565b80601f01602080910402602001604051908101604052809291908181526020018280546114cd90614edd565b801561151a5780601f106114ef5761010080835404028352916020019161151a565b820191906000526020600020905b8154815290600101906020018083116114fd57829003601f168201915b5050505050815260200160108201805461153390614edd565b80601f016020809104026020016040519081016040528092919081815260200182805461155f90614edd565b80156115ac5780601f10611581576101008083540402835291602001916115ac565b820191906000526020600020905b81548152906001019060200180831161158f57829003601f168201915b505050505081525050908060130154908060140160009054906101000a900460ff16908060150154905086565b6000806115e46136b0565b90508060000160009054906101000a900473ffffffffffffffffffffffffffffffffffffffff1691505090565b600360205280600052604060002060009150905080600001805461163490614edd565b80601f016020809104026020016040519081016040528092919081815260200182805461166090614edd565b80156116ad5780601f10611682576101008083540402835291602001916116ad565b820191906000526020600020905b81548152906001019060200180831161169057829003601f168201915b5050505050908060010154908060020180546116c890614edd565b80601f01602080910402602001604051908101604052809291908181526020018280546116f490614edd565b80156117415780601f1061171657610100808354040283529160200191611741565b820191906000526020600020905b81548152906001019060200180831161172457829003601f168201915b50505050509080600401549080600501549080600601805461176290614edd565b80601f016020809104026020016040519081016040528092919081815260200182805461178e90614edd565b80156117db5780601f106117b0576101008083540402835291602001916117db565b820191906000526020600020905b8154815290600101906020018083116117be57829003601f168201915b5050505050905086565b60026020528160005260406000206020528060005260406000206000915091509054906101000a900460ff1681565b61181c61385b565b8180600160008381526020019081526020016000206000015414611875576040517f08c379a000000000000000000000000000000000000000000000000000000000815260040161186c906152de565b60405180910390fd5b61187d61385b565b600160008581526020019081526020016000206040518060c0016040529081600082015481526020016001820160009054906101000a900473ffffffffffffffffffffffffffffffffffffffff1673ffffffffffffffffffffffffffffffffffffffff1673ffffffffffffffffffffffffffffffffffffffff168152602001600282016040518061022001604052908160008201805461191c90614edd565b80601f016020809104026020016040519081016040528092919081815260200182805461194890614edd565b80156119955780601f1061196a57610100808354040283529160200191611995565b820191906000526020600020905b81548152906001019060200180831161197857829003601f168201915b505050505081526020016001820180546119ae90614edd565b80601f01602080910402602001604051908101604052809291908181526020018280546119da90614edd565b8015611a275780601f106119fc57610100808354040283529160200191611a27565b820191906000526020600020905b815481529060010190602001808311611a0a57829003601f168201915b50505050508152602001600282018054611a4090614edd565b80601f0160208091040260200160405190810160405280929190818152602001828054611a6c90614edd565b8015611ab95780601f10611a8e57610100808354040283529160200191611ab9565b820191906000526020600020905b815481529060010190602001808311611a9c57829003601f168201915b50505050508152602001600382018054611ad290614edd565b80601f0160208091040260200160405190810160405280929190818152602001828054611afe90614edd565b8015611b4b5780601f10611b2057610100808354040283529160200191611b4b565b820191906000526020600020905b815481529060010190602001808311611b2e57829003601f168201915b50505050508152602001600482018054611b6490614edd565b80601f0160208091040260200160405190810160405280929190818152602001828054611b9090614edd565b8015611bdd5780601f10611bb257610100808354040283529160200191611bdd565b820191906000526020600020905b815481529060010190602001808311611bc057829003601f168201915b505050505081526020016005820160009054906101000a900460ff16151515158152602001600682018054611c1190614edd565b80601f0160208091040260200160405190810160405280929190818152602001828054611c3d90614edd565b8015611c8a5780601f10611c5f57610100808354040283529160200191611c8a565b820191906000526020600020905b815481529060010190602001808311611c6d57829003601f168201915b50505050508152602001600782018054611ca390614edd565b80601f0160208091040260200160405190810160405280929190818152602001828054611ccf90614edd565b8015611d1c5780601f10611cf157610100808354040283529160200191611d1c565b820191906000526020600020905b815481529060010190602001808311611cff57829003601f168201915b50505050508152602001600882018054611d3590614edd565b80601f0160208091040260200160405190810160405280929190818152602001828054611d6190614edd565b8015611dae5780601f10611d8357610100808354040283529160200191611dae565b820191906000526020600020905b815481529060010190602001808311611d9157829003601f168201915b50505050508152602001600982018054611dc790614edd565b80601f0160208091040260200160405190810160405280929190818152602001828054611df390614edd565b8015611e405780601f10611e1557610100808354040283529160200191611e40565b820191906000526020600020905b815481529060010190602001808311611e2357829003601f168201915b50505050508152602001600a820160009054906101000a900460ff16151515158152602001600b82018054611e7490614edd565b80601f0160208091040260200160405190810160405280929190818152602001828054611ea090614edd565b8015611eed5780601f10611ec257610100808354040283529160200191611eed565b820191906000526020600020905b815481529060010190602001808311611ed057829003601f168201915b50505050508152602001600c82018054611f0690614edd565b80601f0160208091040260200160405190810160405280929190818152602001828054611f3290614edd565b8015611f7f5780601f10611f5457610100808354040283529160200191611f7f565b820191906000526020600020905b815481529060010190602001808311611f6257829003601f168201915b50505050508152602001600d82018054611f9890614edd565b80601f0160208091040260200160405190810160405280929190818152602001828054611fc490614edd565b80156120115780601f10611fe657610100808354040283529160200191612011565b820191906000526020600020905b815481529060010190602001808311611ff457829003601f168201915b50505050508152602001600e8201805461202a90614edd565b80601f016020809104026020016040519081016040528092919081815260200182805461205690614edd565b80156120a35780601f10612078576101008083540402835291602001916120a3565b820191906000526020600020905b81548152906001019060200180831161208657829003601f168201915b50505050508152602001600f820180546120bc90614edd565b80601f01602080910402602001604051908101604052809291908181526020018280546120e890614edd565b80156121355780601f1061210a57610100808354040283529160200191612135565b820191906000526020600020905b81548152906001019060200180831161211857829003601f168201915b5050505050815260200160108201805461214e90614edd565b80601f016020809104026020016040519081016040528092919081815260200182805461217a90614edd565b80156121c75780601f1061219c576101008083540402835291602001916121c7565b820191906000526020600020905b8154815290600101906020018083116121aa57829003601f168201915b5050505050815250508152602001601382015481526020016014820160009054906101000a900460ff1615151515815260200160158201548152505081600001819052506001600085815260200190815260200160002060140160009054906101000a900460ff1681604001901515908115158152505080604001511561251c57600360008581526020019081526020016000206040518060e001604052908160008201805461227690614edd565b80601f01602080910402602001604051908101604052809291908181526020018280546122a290614edd565b80156122ef5780601f106122c4576101008083540402835291602001916122ef565b820191906000526020600020905b8154815290600101906020018083116122d257829003601f168201915b505050505081526020016001820154815260200160028201805461231290614edd565b80601f016020809104026020016040519081016040528092919081815260200182805461233e90614edd565b801561238b5780601f106123605761010080835404028352916020019161238b565b820191906000526020600020905b81548152906001019060200180831161236e57829003601f168201915b5050505050815260200160038201805480602002602001604051908101604052809291908181526020016000905b828210156124655783829060005260206000200180546123d890614edd565b80601f016020809104026020016040519081016040528092919081815260200182805461240490614edd565b80156124515780601f1061242657610100808354040283529160200191612451565b820191906000526020600020905b81548152906001019060200180831161243457829003601f168201915b5050505050815260200190600101906123b9565b505050508152602001600482015481526020016005820154815260200160068201805461249190614edd565b80601f01602080910402602001604051908101604052809291908181526020018280546124bd90614edd565b801561250a5780601f106124df5761010080835404028352916020019161250a565b820191906000526020600020905b8154815290600101906020018083116124ed57829003601f168201915b50505050508152505081602001819052505b8092505050919050565b60006125306136d8565b905060008160000160089054906101000a900460ff1615905060008260000160009054906101000a900467ffffffffffffffff1690506000808267ffffffffffffffff1614801561257e5750825b9050600060018367ffffffffffffffff161480156125b3575060003073ffffffffffffffffffffffffffffffffffffffff163b145b9050811580156125c1575080155b156125f8576040517ff92ee8a900000000000000000000000000000000000000000000000000000000815260040160405180910390fd5b60018560000160006101000a81548167ffffffffffffffff021916908367ffffffffffffffff16021790555083156126485760018560000160086101000a81548160ff0219169083151502179055505b61265186613700565b61265a866134cc565b83156126b65760008560000160086101000a81548160ff0219169083151502179055507fc7f505b2f371ae2175ee4913f4499e1f2633a7b5936321eed1cdaeb6115181d260016040516126ad9190615525565b60405180910390a15b505050505050565b6060600080549050600080600190505b828111612705576126de81612ac8565b156126f25781806126ee90614e66565b9250505b80806126fd90614e66565b9150506126ce565b5060008167ffffffffffffffff81111561272257612721613acd565b5b60405190808252806020026020018201604052801561275b57816020015b61274861385b565b8152602001906001900390816127405790505b509050600080600190505b8481116127c45761277681612ac8565b156127b15761278481611814565b83838151811061279757612796615263565b5b602002602001018190525081806127ad90614e66565b9250505b80806127bc90614e66565b915050612766565b508194505050505090565b8080600160008381526020019081526020016000206000015414612828576040517f08c379a000000000000000000000000000000000000000000000000000000000815260040161281f906152de565b60405180910390fd5b813373ffffffffffffffffffffffffffffffffffffffff166001600083815260200190815260200160002060010160009054906101000a900473ffffffffffffffffffffffffffffffffffffffff1673ffffffffffffffffffffffffffffffffffffffff16146128cd576040517f08c379a00000000000000000000000000000000000000000000000000000000081526004016128c490615370565b60405180910390fd5b600160008481526020019081526020016000206000808201600090556001820160006101000a81549073ffffffffffffffffffffffffffffffffffffffff02191690556002820160008082016000612925919061388a565b600182016000612935919061388a565b600282016000612945919061388a565b600382016000612955919061388a565b600482016000612965919061388a565b6005820160006101000a81549060ff0219169055600682016000612989919061388a565b600782016000612999919061388a565b6008820160006129a9919061388a565b6009820160006129b9919061388a565b600a820160006101000a81549060ff0219169055600b820160006129dd919061388a565b600c820160006129ed919061388a565b600d820160006129fd919061388a565b600e82016000612a0d919061388a565b600f82016000612a1d919061388a565b601082016000612a2d919061388a565b505060138201600090556014820160006101000a81549060ff0219169055601582016000905550506003600084815260200190815260200160002060008082016000612a79919061388a565b6001820160009055600282016000612a91919061388a565b600382016000612aa191906138ca565b60048201600090556005820160009055600682016000612ac1919061388a565b5050505050565b60008180600160008381526020019081526020016000206000015414612b23576040517f08c379a0000000000000000000000000000000000000000000000000000000008152600401612b1a906152de565b60405180910390fd5b6000600160008581526020019081526020016000206040518060c0016040529081600082015481526020016001820160009054906101000a900473ffffffffffffffffffffffffffffffffffffffff1673ffffffffffffffffffffffffffffffffffffffff1673ffffffffffffffffffffffffffffffffffffffff1681526020016002820160405180610220016040529081600082018054612bc490614edd565b80601f0160208091040260200160405190810160405280929190818152602001828054612bf090614edd565b8015612c3d5780601f10612c1257610100808354040283529160200191612c3d565b820191906000526020600020905b815481529060010190602001808311612c2057829003601f168201915b50505050508152602001600182018054612c5690614edd565b80601f0160208091040260200160405190810160405280929190818152602001828054612c8290614edd565b8015612ccf5780601f10612ca457610100808354040283529160200191612ccf565b820191906000526020600020905b815481529060010190602001808311612cb257829003601f168201915b50505050508152602001600282018054612ce890614edd565b80601f0160208091040260200160405190810160405280929190818152602001828054612d1490614edd565b8015612d615780601f10612d3657610100808354040283529160200191612d61565b820191906000526020600020905b815481529060010190602001808311612d4457829003601f168201915b50505050508152602001600382018054612d7a90614edd565b80601f0160208091040260200160405190810160405280929190818152602001828054612da690614edd565b8015612df35780601f10612dc857610100808354040283529160200191612df3565b820191906000526020600020905b815481529060010190602001808311612dd657829003601f168201915b50505050508152602001600482018054612e0c90614edd565b80601f0160208091040260200160405190810160405280929190818152602001828054612e3890614edd565b8015612e855780601f10612e5a57610100808354040283529160200191612e85565b820191906000526020600020905b815481529060010190602001808311612e6857829003601f168201915b505050505081526020016005820160009054906101000a900460ff16151515158152602001600682018054612eb990614edd565b80601f0160208091040260200160405190810160405280929190818152602001828054612ee590614edd565b8015612f325780601f10612f0757610100808354040283529160200191612f32565b820191906000526020600020905b815481529060010190602001808311612f1557829003601f168201915b50505050508152602001600782018054612f4b90614edd565b80601f0160208091040260200160405190810160405280929190818152602001828054612f7790614edd565b8015612fc45780601f10612f9957610100808354040283529160200191612fc4565b820191906000526020600020905b815481529060010190602001808311612fa757829003601f168201915b50505050508152602001600882018054612fdd90614edd565b80601f016020809104026020016040519081016040528092919081815260200182805461300990614edd565b80156130565780601f1061302b57610100808354040283529160200191613056565b820191906000526020600020905b81548152906001019060200180831161303957829003601f168201915b5050505050815260200160098201805461306f90614edd565b80601f016020809104026020016040519081016040528092919081815260200182805461309b90614edd565b80156130e85780601f106130bd576101008083540402835291602001916130e8565b820191906000526020600020905b8154815290600101906020018083116130cb57829003601f168201915b50505050508152602001600a820160009054906101000a900460ff16151515158152602001600b8201805461311c90614edd565b80601f016020809104026020016040519081016040528092919081815260200182805461314890614edd565b80156131955780601f1061316a57610100808354040283529160200191613195565b820191906000526020600020905b81548152906001019060200180831161317857829003601f168201915b50505050508152602001600c820180546131ae90614edd565b80601f01602080910402602001604051908101604052809291908181526020018280546131da90614edd565b80156132275780601f106131fc57610100808354040283529160200191613227565b820191906000526020600020905b81548152906001019060200180831161320a57829003601f168201915b50505050508152602001600d8201805461324090614edd565b80601f016020809104026020016040519081016040528092919081815260200182805461326c90614edd565b80156132b95780601f1061328e576101008083540402835291602001916132b9565b820191906000526020600020905b81548152906001019060200180831161329c57829003601f168201915b50505050508152602001600e820180546132d290614edd565b80601f01602080910402602001604051908101604052809291908181526020018280546132fe90614edd565b801561334b5780601f106133205761010080835404028352916020019161334b565b820191906000526020600020905b81548152906001019060200180831161332e57829003601f168201915b50505050508152602001600f8201805461336490614edd565b80601f016020809104026020016040519081016040528092919081815260200182805461339090614edd565b80156133dd5780601f106133b2576101008083540402835291602001916133dd565b820191906000526020600020905b8154815290600101906020018083116133c057829003601f168201915b505050505081526020016010820180546133f690614edd565b80601f016020809104026020016040519081016040528092919081815260200182805461342290614edd565b801561346f5780601f106134445761010080835404028352916020019161346f565b820191906000526020600020905b81548152906001019060200180831161345257829003601f168201915b5050505050815250508152602001601382015481526020016014820160009054906101000a900460ff161515151581526020016015820154815250509050620151808160a001516134c09190615540565b42101592505050919050565b6134d4613552565b600073ffffffffffffffffffffffffffffffffffffffff168173ffffffffffffffffffffffffffffffffffffffff16036135465760006040517f1e4fbdf700000000000000000000000000000000000000000000000000000000815260040161353d9190614b31565b60405180910390fd5b61354f816135d9565b50565b61355a613714565b73ffffffffffffffffffffffffffffffffffffffff166135786115d9565b73ffffffffffffffffffffffffffffffffffffffff16146135d75761359b613714565b6040517f118cdaa70000000000000000000000000000000000000000000000000000000081526004016135ce9190614b31565b60405180910390fd5b565b60006135e36136b0565b905060008160000160009054906101000a900473ffffffffffffffffffffffffffffffffffffffff169050828260000160006101000a81548173ffffffffffffffffffffffffffffffffffffffff021916908373ffffffffffffffffffffffffffffffffffffffff1602179055508273ffffffffffffffffffffffffffffffffffffffff168173ffffffffffffffffffffffffffffffffffffffff167f8be0079c531659141344cd1fd0a4f28419497f9722a3daafe3b4186f6b6457e060405160405180910390a3505050565b60007f9016d09d72d40fdae2fd8ceac6b6234c7706214fd39c1cd1e609a0528c199300905090565b60007ff0c57e16840df040f15088dc2f81fe391c3923bec73e23a9662efc9c229c6a00905090565b61370861371c565b6137118161375c565b50565b600033905090565b6137246137e2565b61375a576040517fd7e6bcf800000000000000000000000000000000000000000000000000000000815260040160405180910390fd5b565b61376461371c565b600073ffffffffffffffffffffffffffffffffffffffff168173ffffffffffffffffffffffffffffffffffffffff16036137d65760006040517f1e4fbdf70000000000000000000000000000000000000000000000000000000081526004016137cd9190614b31565b60405180910390fd5b6137df816135d9565b50565b60006137ec6136d8565b60000160089054906101000a900460ff16905090565b82805482825590600052602060002090810192821561384a579160200282015b8281111561384957825182908161383991906150ba565b5091602001919060010190613822565b5b50905061385791906138eb565b5090565b604051806060016040528061386e61390f565b815260200161387b613963565b81526020016000151581525090565b50805461389690614edd565b6000825580601f106138a857506138c7565b601f0160209004906000526020600020908101906138c691906139a0565b5b50565b50805460008255906000526020600020908101906138e891906138eb565b50565b5b8082111561390b5760008181613902919061388a565b506001016138ec565b5090565b6040518060c0016040528060008152602001600073ffffffffffffffffffffffffffffffffffffffff1681526020016139466139bd565b815260200160008152602001600015158152602001600081525090565b6040518060e00160405280606081526020016000815260200160608152602001606081526020016000815260200160008152602001606081525090565b5b808211156139b95760008160009055506001016139a1565b5090565b6040518061022001604052806060815260200160608152602001606081526020016060815260200160608152602001600015158152602001606081526020016060815260200160608152602001606081526020016000151581526020016060815260200160608152602001606081526020016060815260200160608152602001606081525090565b6000604051905090565b600080fd5b600080fd5b600073ffffffffffffffffffffffffffffffffffffffff82169050919050565b6000613a8482613a59565b9050919050565b613a9481613a79565b8114613a9f57600080fd5b50565b600081359050613ab181613a8b565b92915050565b600080fd5b6000601f19601f8301169050919050565b7f4e487b7100000000000000000000000000000000000000000000000000000000600052604160045260246000fd5b613b0582613abc565b810181811067ffffffffffffffff82111715613b2457613b23613acd565b5b80604052505050565b6000613b37613a45565b9050613b438282613afc565b919050565b600080fd5b600080fd5b600080fd5b600067ffffffffffffffff821115613b7257613b71613acd565b5b613b7b82613abc565b9050602081019050919050565b82818337600083830152505050565b6000613baa613ba584613b57565b613b2d565b905082815260208101848484011115613bc657613bc5613b52565b5b613bd1848285613b88565b509392505050565b600082601f830112613bee57613bed613b4d565b5b8135613bfe848260208601613b97565b91505092915050565b60008115159050919050565b613c1c81613c07565b8114613c2757600080fd5b50565b600081359050613c3981613c13565b92915050565b60006102208284031215613c5657613c55613ab7565b5b613c61610220613b2d565b9050600082013567ffffffffffffffff811115613c8157613c80613b48565b5b613c8d84828501613bd9565b600083015250602082013567ffffffffffffffff811115613cb157613cb0613b48565b5b613cbd84828501613bd9565b602083015250604082013567ffffffffffffffff811115613ce157613ce0613b48565b5b613ced84828501613bd9565b604083015250606082013567ffffffffffffffff811115613d1157613d10613b48565b5b613d1d84828501613bd9565b606083015250608082013567ffffffffffffffff811115613d4157613d40613b48565b5b613d4d84828501613bd9565b60808301525060a0613d6184828501613c2a565b60a08301525060c082013567ffffffffffffffff811115613d8557613d84613b48565b5b613d9184828501613bd9565b60c08301525060e082013567ffffffffffffffff811115613db557613db4613b48565b5b613dc184828501613bd9565b60e08301525061010082013567ffffffffffffffff811115613de657613de5613b48565b5b613df284828501613bd9565b6101008301525061012082013567ffffffffffffffff811115613e1857613e17613b48565b5b613e2484828501613bd9565b61012083015250610140613e3a84828501613c2a565b6101408301525061016082013567ffffffffffffffff811115613e6057613e5f613b48565b5b613e6c84828501613bd9565b6101608301525061018082013567ffffffffffffffff811115613e9257613e91613b48565b5b613e9e84828501613bd9565b610180830152506101a082013567ffffffffffffffff811115613ec457613ec3613b48565b5b613ed084828501613bd9565b6101a0830152506101c082013567ffffffffffffffff811115613ef657613ef5613b48565b5b613f0284828501613bd9565b6101c0830152506101e082013567ffffffffffffffff811115613f2857613f27613b48565b5b613f3484828501613bd9565b6101e08301525061020082013567ffffffffffffffff811115613f5a57613f59613b48565b5b613f6684828501613bd9565b6102008301525092915050565b6000819050919050565b613f8681613f73565b8114613f9157600080fd5b50565b600081359050613fa381613f7d565b92915050565b600067ffffffffffffffff821115613fc457613fc3613acd565b5b602082029050602081019050919050565b600080fd5b6000613fed613fe884613fa9565b613b2d565b905080838252602082019050602084028301858111156140105761400f613fd5565b5b835b8181101561405757803567ffffffffffffffff81111561403557614034613b4d565b5b8086016140428982613bd9565b85526020850194505050602081019050614012565b5050509392505050565b600082601f83011261407657614075613b4d565b5b8135614086848260208601613fda565b91505092915050565b600060e082840312156140a5576140a4613ab7565b5b6140af60e0613b2d565b9050600082013567ffffffffffffffff8111156140cf576140ce613b48565b5b6140db84828501613bd9565b60008301525060206140ef84828501613f94565b602083015250604082013567ffffffffffffffff81111561411357614112613b48565b5b61411f84828501613bd9565b604083015250606082013567ffffffffffffffff81111561414357614142613b48565b5b61414f84828501614061565b606083015250608061416384828501613f94565b60808301525060a061417784828501613f94565b60a08301525060c082013567ffffffffffffffff81111561419b5761419a613b48565b5b6141a784828501613bd9565b60c08301525092915050565b600080600080608085870312156141cd576141cc613a4f565b5b60006141db87828801613aa2565b945050602085013567ffffffffffffffff8111156141fc576141fb613a54565b5b61420887828801613c3f565b935050604061421987828801613c2a565b925050606085013567ffffffffffffffff81111561423a57614239613a54565b5b6142468782880161408f565b91505092959194509250565b600081519050919050565b600082825260208201905092915050565b6000819050602082019050919050565b61428781613f73565b82525050565b61429681613a79565b82525050565b600081519050919050565b600082825260208201905092915050565b60005b838110156142d65780820151818401526020810190506142bb565b60008484015250505050565b60006142ed8261429c565b6142f781856142a7565b93506143078185602086016142b8565b61431081613abc565b840191505092915050565b61432481613c07565b82525050565b600061022083016000830151848203600086015261434882826142e2565b9150506020830151848203602086015261436282826142e2565b9150506040830151848203604086015261437c82826142e2565b9150506060830151848203606086015261439682826142e2565b915050608083015184820360808601526143b082826142e2565b91505060a08301516143c560a086018261431b565b5060c083015184820360c08601526143dd82826142e2565b91505060e083015184820360e08601526143f782826142e2565b91505061010083015184820361010086015261441382826142e2565b91505061012083015184820361012086015261442f82826142e2565b91505061014083015161444661014086018261431b565b5061016083015184820361016086015261446082826142e2565b91505061018083015184820361018086015261447c82826142e2565b9150506101a08301518482036101a086015261449882826142e2565b9150506101c08301518482036101c08601526144b482826142e2565b9150506101e08301518482036101e08601526144d082826142e2565b9150506102008301518482036102008601526144ec82826142e2565b9150508091505092915050565b600060c083016000830151614511600086018261427e565b506020830151614524602086018261428d565b506040830151848203604086015261453c828261432a565b9150506060830151614551606086018261427e565b506080830151614564608086018261431b565b5060a083015161457760a086018261427e565b508091505092915050565b600081519050919050565b600082825260208201905092915050565b6000819050602082019050919050565b60006145ba83836142e2565b905092915050565b6000602082019050919050565b60006145da82614582565b6145e4818561458d565b9350836020820285016145f68561459e565b8060005b85811015614632578484038952815161461385826145ae565b945061461e836145c2565b925060208a019950506001810190506145fa565b50829750879550505050505092915050565b600060e083016000830151848203600086015261466182826142e2565b9150506020830151614676602086018261427e565b506040830151848203604086015261468e82826142e2565b915050606083015184820360608601526146a882826145cf565b91505060808301516146bd608086018261427e565b5060a08301516146d060a086018261427e565b5060c083015184820360c08601526146e882826142e2565b9150508091505092915050565b6000606083016000830151848203600086015261471282826144f9565b9150506020830151848203602086015261472c8282614644565b9150506040830151614741604086018261431b565b508091505092915050565b600061475883836146f5565b905092915050565b6000602082019050919050565b600061477882614252565b614782818561425d565b9350836020820285016147948561426e565b8060005b858110156147d057848403895281516147b1858261474c565b94506147bc83614760565b925060208a01995050600181019050614798565b50829750879550505050505092915050565b600060208201905081810360008301526147fc818461476d565b905092915050565b6000806040838503121561481b5761481a613a4f565b5b600061482985828601613f94565b925050602083013567ffffffffffffffff81111561484a57614849613a54565b5b61485685828601613bd9565b9150509250929050565b6000806040838503121561487757614876613a4f565b5b600061488585828601613f94565b925050602061489685828601613aa2565b9150509250929050565b6000602082840312156148b6576148b5613a4f565b5b60006148c484828501613f94565b91505092915050565b6148d681613f73565b82525050565b6148e581613a79565b82525050565b600061022083016000830151848203600086015261490982826142e2565b9150506020830151848203602086015261492382826142e2565b9150506040830151848203604086015261493d82826142e2565b9150506060830151848203606086015261495782826142e2565b9150506080830151848203608086015261497182826142e2565b91505060a083015161498660a086018261431b565b5060c083015184820360c086015261499e82826142e2565b91505060e083015184820360e08601526149b882826142e2565b9150506101008301518482036101008601526149d482826142e2565b9150506101208301518482036101208601526149f082826142e2565b915050610140830151614a0761014086018261431b565b50610160830151848203610160860152614a2182826142e2565b915050610180830151848203610180860152614a3d82826142e2565b9150506101a08301518482036101a0860152614a5982826142e2565b9150506101c08301518482036101c0860152614a7582826142e2565b9150506101e08301518482036101e0860152614a9182826142e2565b915050610200830151848203610200860152614aad82826142e2565b9150508091505092915050565b614ac381613c07565b82525050565b600060c082019050614ade60008301896148cd565b614aeb60208301886148dc565b8181036040830152614afd81876148eb565b9050614b0c60608301866148cd565b614b196080830185614aba565b614b2660a08301846148cd565b979650505050505050565b6000602082019050614b4660008301846148dc565b92915050565b600082825260208201905092915050565b6000614b688261429c565b614b728185614b4c565b9350614b828185602086016142b8565b614b8b81613abc565b840191505092915050565b600060c0820190508181036000830152614bb08189614b5d565b9050614bbf60208301886148cd565b8181036040830152614bd18187614b5d565b9050614be060608301866148cd565b614bed60808301856148cd565b81810360a0830152614bff8184614b5d565b9050979650505050505050565b6000602082019050614c216000830184614aba565b92915050565b60006060830160008301518482036000860152614c4482826144f9565b91505060208301518482036020860152614c5e8282614644565b9150506040830151614c73604086018261431b565b508091505092915050565b60006020820190508181036000830152614c988184614c27565b905092915050565b600060208284031215614cb657614cb5613a4f565b5b6000614cc484828501613aa2565b91505092915050565b7f50726f64756374206e616d652063616e6e6f7420626520656d70747900000000600082015250565b6000614d03601c83614b4c565b9150614d0e82614ccd565b602082019050919050565b60006020820190508181036000830152614d3281614cf6565b9050919050565b7f50726f64756374206465736372697074696f6e2063616e6e6f7420626520656d60008201527f7074790000000000000000000000000000000000000000000000000000000000602082015250565b6000614d95602383614b4c565b9150614da082614d39565b604082019050919050565b60006020820190508181036000830152614dc481614d88565b9050919050565b7f50726f64756374206c696e6b2063616e6e6f7420626520656d70747900000000600082015250565b6000614e01601c83614b4c565b9150614e0c82614dcb565b602082019050919050565b60006020820190508181036000830152614e3081614df4565b9050919050565b7f4e487b7100000000000000000000000000000000000000000000000000000000600052601160045260246000fd5b6000614e7182613f73565b91507fffffffffffffffffffffffffffffffffffffffffffffffffffffffffffffffff8203614ea357614ea2614e37565b5b600182019050919050565b7f4e487b7100000000000000000000000000000000000000000000000000000000600052602260045260246000fd5b60006002820490506001821680614ef557607f821691505b602082108103614f0857614f07614eae565b5b50919050565b60008190508160005260206000209050919050565b60006020601f8301049050919050565b600082821b905092915050565b600060088302614f707fffffffffffffffffffffffffffffffffffffffffffffffffffffffffffffffff82614f33565b614f7a8683614f33565b95508019841693508086168417925050509392505050565b6000819050919050565b6000614fb7614fb2614fad84613f73565b614f92565b613f73565b9050919050565b6000819050919050565b614fd183614f9c565b614fe5614fdd82614fbe565b848454614f40565b825550505050565b600090565b614ffa614fed565b615005818484614fc8565b505050565b5b818110156150295761501e600082614ff2565b60018101905061500b565b5050565b601f82111561506e5761503f81614f0e565b61504884614f23565b81016020851015615057578190505b61506b61506385614f23565b83018261500a565b50505b505050565b600082821c905092915050565b600061509160001984600802615073565b1980831691505092915050565b60006150aa8383615080565b9150826002028217905092915050565b6150c38261429c565b67ffffffffffffffff8111156150dc576150db613acd565b5b6150e68254614edd565b6150f182828561502d565b600060209050601f8311600181146151245760008415615112578287015190505b61511c858261509e565b865550615184565b601f19841661513286614f0e565b60005b8281101561515a57848901518255600182019150602085019450602081019050615135565b868310156151775784890151615173601f891682615080565b8355505b6001600288020188555050505b505050505050565b7f426574612074657374696e67206c696e6b207265717569726564000000000000600082015250565b60006151c2601a83614b4c565b91506151cd8261518c565b602082019050919050565b600060208201905081810360008301526151f1816151b5565b9050919050565b600060408201905081810360008301526152128185614b5d565b905081810360208301526152268184614b5d565b90509392505050565b600061523a82613f73565b915061524583613f73565b925082820390508181111561525d5761525c614e37565b5b92915050565b7f4e487b7100000000000000000000000000000000000000000000000000000000600052603260045260246000fd5b7f50726f6475637420646f6573206e6f7420657869737400000000000000000000600082015250565b60006152c8601683614b4c565b91506152d382615292565b602082019050919050565b600060208201905081810360008301526152f7816152bb565b9050919050565b7f4f6e6c79207468652070726f64756374206f776e65722063616e20706572666f60008201527f726d207468697320616374696f6e000000000000000000000000000000000000602082015250565b600061535a602e83614b4c565b9150615365826152fe565b604082019050919050565b600060208201905081810360008301526153898161534d565b9050919050565b600060208201905081810360008301526153aa8184614b5d565b905092915050565b7f50726f64756374206f776e65722063616e6e6f74207570766f7465207468656960008201527f72206f776e2070726f6475637400000000000000000000000000000000000000602082015250565b600061540e602d83614b4c565b9150615419826153b2565b604082019050919050565b6000602082019050818103600083015261543d81615401565b9050919050565b7f557365722068617320616c7265616479207570766f746564207468697320707260008201527f6f64756374000000000000000000000000000000000000000000000000000000602082015250565b60006154a0602583614b4c565b91506154ab82615444565b604082019050919050565b600060208201905081810360008301526154cf81615493565b9050919050565b6000819050919050565b600067ffffffffffffffff82169050919050565b600061550f61550a615505846154d6565b614f92565b6154e0565b9050919050565b61551f816154f4565b82525050565b600060208201905061553a6000830184615516565b92915050565b600061554b82613f73565b915061555683613f73565b925082820190508082111561556e5761556d614e37565b5b9291505056fea2646970667358221220093e068174df40dc2a868117621d898cb2925dff342c71b105f0deff69bd45d764736f6c63430008180033",
  "linkReferences": {},
  "deployedLinkReferences": {}
}