{
  "_format": "hh-sol-artifact-1",
  "contractName": "UserInfo",
  "sourceName": "contracts/UserInfo.sol",
  "abi": [
    {
      "inputs": [],
      "name": "InvalidInitialization",
      "type": "error"
    },
    {
      "inputs": [],
      "name": "NotInitializing",
      "type": "error"
    },
    {
      "inputs": [
        {
          "internalType": "address",
          "name": "owner",
          "type": "address"
        }
      ],
      "name": "OwnableInvalidOwner",
      "type": "error"
    },
    {
      "inputs": [
        {
          "internalType": "address",
          "name": "account",
          "type": "address"
        }
      ],
      "name": "OwnableUnauthorizedAccount",
      "type": "error"
    },
    {
      "anonymous": false,
      "inputs": [
        {
          "indexed": false,
          "internalType": "uint64",
          "name": "version",
          "type": "uint64"
        }
      ],
      "name": "Initialized",
      "type": "event"
    },
    {
      "anonymous": false,
      "inputs": [
        {
          "indexed": true,
          "internalType": "address",
          "name": "previousOwner",
          "type": "address"
        },
        {
          "indexed": true,
          "internalType": "address",
          "name": "newOwner",
          "type": "address"
        }
      ],
      "name": "OwnershipTransferred",
      "type": "event"
    },
    {
      "anonymous": false,
      "inputs": [
        {
          "indexed": true,
          "internalType": "address",
          "name": "userAddress",
          "type": "address"
        },
        {
          "indexed": false,
          "internalType": "string",
          "name": "username",
          "type": "string"
        }
      ],
      "name": "UserAdded",
      "type": "event"
    },
    {
      "anonymous": false,
      "inputs": [
        {
          "indexed": true,
          "internalType": "address",
          "name": "userAddress",
          "type": "address"
        }
      ],
      "name": "UserDeleted",
      "type": "event"
    },
    {
      "anonymous": false,
      "inputs": [
        {
          "indexed": true,
          "internalType": "address",
          "name": "userAddress",
          "type": "address"
        },
        {
          "indexed": false,
          "internalType": "string[]",
          "name": "interests",
          "type": "string[]"
        }
      ],
      "name": "UserInterestsUpdated",
      "type": "event"
    },
    {
      "anonymous": false,
      "inputs": [
        {
          "indexed": true,
          "internalType": "address",
          "name": "userAddress",
          "type": "address"
        },
        {
          "indexed": false,
          "internalType": "string",
          "name": "username",
          "type": "string"
        }
      ],
      "name": "UserUpdated",
      "type": "event"
    },
    {
      "inputs": [
        {
          "internalType": "address",
          "name": "userAddress",
          "type": "address"
        },
        {
          "internalType": "string",
          "name": "username",
          "type": "string"
        },
        {
          "internalType": "string",
          "name": "email",
          "type": "string"
        },
        {
          "internalType": "string",
          "name": "bio",
          "type": "string"
        },
        {
          "internalType": "string[]",
          "name": "interests",
          "type": "string[]"
        }
      ],
      "name": "addUser",
      "outputs": [],
      "stateMutability": "nonpayable",
      "type": "function"
    },
    {
      "inputs": [
        {
          "internalType": "address",
          "name": "userAddress",
          "type": "address"
        }
      ],
      "name": "deleteUser",
      "outputs": [],
      "stateMutability": "nonpayable",
      "type": "function"
    },
    {
      "inputs": [],
      "name": "getAllUsernamesAddressesAndEmails",
      "outputs": [
        {
          "internalType": "string[]",
          "name": "usernames",
          "type": "string[]"
        },
        {
          "internalType": "address[]",
          "name": "addresses",
          "type": "address[]"
        },
        {
          "internalType": "string[]",
          "name": "emails",
          "type": "string[]"
        }
      ],
      "stateMutability": "view",
      "type": "function"
    },
    {
      "inputs": [],
      "name": "getAllUsers",
      "outputs": [
        {
          "components": [
            {
              "internalType": "string",
              "name": "username",
              "type": "string"
            },
            {
              "internalType": "string",
              "name": "email",
              "type": "string"
            },
            {
              "internalType": "string",
              "name": "bio",
              "type": "string"
            },
            {
              "internalType": "string[]",
              "name": "interests",
              "type": "string[]"
            }
          ],
          "internalType": "struct UserInfo.User[]",
          "name": "",
          "type": "tuple[]"
        }
      ],
      "stateMutability": "view",
      "type": "function"
    },
    {
      "inputs": [
        {
          "internalType": "address",
          "name": "userAddress",
          "type": "address"
        }
      ],
      "name": "getUser",
      "outputs": [
        {
          "internalType": "string",
          "name": "username",
          "type": "string"
        },
        {
          "internalType": "string",
          "name": "email",
          "type": "string"
        },
        {
          "internalType": "string",
          "name": "bio",
          "type": "string"
        },
        {
          "internalType": "string[]",
          "name": "interests",
          "type": "string[]"
        }
      ],
      "stateMutability": "view",
      "type": "function"
    },
    {
      "inputs": [
        {
          "internalType": "address",
          "name": "userAddress",
          "type": "address"
        }
      ],
      "name": "getUserByAddress",
      "outputs": [
        {
          "internalType": "string",
          "name": "username",
          "type": "string"
        },
        {
          "internalType": "string",
          "name": "email",
          "type": "string"
        },
        {
          "internalType": "string",
          "name": "bio",
          "type": "string"
        },
        {
          "internalType": "string[]",
          "name": "interests",
          "type": "string[]"
        }
      ],
      "stateMutability": "view",
      "type": "function"
    },
    {
      "inputs": [
        {
          "internalType": "string",
          "name": "userEmail",
          "type": "string"
        }
      ],
      "name": "getUserByEmail",
      "outputs": [
        {
          "internalType": "string",
          "name": "username",
          "type": "string"
        },
        {
          "internalType": "string",
          "name": "email",
          "type": "string"
        },
        {
          "internalType": "string",
          "name": "bio",
          "type": "string"
        },
        {
          "internalType": "string[]",
          "name": "interests",
          "type": "string[]"
        }
      ],
      "stateMutability": "view",
      "type": "function"
    },
    {
      "inputs": [
        {
          "internalType": "address",
          "name": "userAddress",
          "type": "address"
        }
      ],
      "name": "getUserInterests",
      "outputs": [
        {
          "internalType": "string[]",
          "name": "interests",
          "type": "string[]"
        }
      ],
      "stateMutability": "view",
      "type": "function"
    },
    {
      "inputs": [
        {
          "internalType": "address",
          "name": "initialOwner",
          "type": "address"
        }
      ],
      "name": "initialize",
      "outputs": [],
      "stateMutability": "nonpayable",
      "type": "function"
    },
    {
      "inputs": [],
      "name": "owner",
      "outputs": [
        {
          "internalType": "address",
          "name": "",
          "type": "address"
        }
      ],
      "stateMutability": "view",
      "type": "function"
    },
    {
      "inputs": [],
      "name": "renounceOwnership",
      "outputs": [],
      "stateMutability": "nonpayable",
      "type": "function"
    },
    {
      "inputs": [
        {
          "internalType": "address",
          "name": "newOwner",
          "type": "address"
        }
      ],
      "name": "transferOwnership",
      "outputs": [],
      "stateMutability": "nonpayable",
      "type": "function"
    },
    {
      "inputs": [
        {
          "internalType": "address",
          "name": "userAddress",
          "type": "address"
        },
        {
          "internalType": "string",
          "name": "username",
          "type": "string"
        },
        {
          "internalType": "string",
          "name": "email",
          "type": "string"
        },
        {
          "internalType": "string",
          "name": "bio",
          "type": "string"
        }
      ],
      "name": "updateUser",
      "outputs": [],
      "stateMutability": "nonpayable",
      "type": "function"
    },
    {
      "inputs": [
        {
          "internalType": "address",
          "name": "userAddress",
          "type": "address"
        },
        {
          "internalType": "string[]",
          "name": "interests",
          "type": "string[]"
        }
      ],
      "name": "updateUserInterests",
      "outputs": [],
      "stateMutability": "nonpayable",
      "type": "function"
    },
    {
      "inputs": [
        {
          "internalType": "address",
          "name": "userAddress",
          "type": "address"
        }
      ],
      "name": "userExists",
      "outputs": [
        {
          "internalType": "bool",
          "name": "",
          "type": "bool"
        }
      ],
      "stateMutability": "view",
      "type": "function"
    }
  ],
  "bytecode": "0x608060405234801561001057600080fd5b50613cf1806100206000396000f3fe608060405234801561001057600080fd5b50600436106100f55760003560e01c8063715018a611610097578063e2842d7911610066578063e2842d791461028f578063ef0c886d146102ad578063f2fde38b146102c9578063f78ca672146102e5576100f5565b8063715018a61461021b5780637d8494bc146102255780638da5cb5b14610255578063c4d66de814610273576100f5565b80632030e8c2116100d35780632030e8c2146101795780635c60f2261461019957806369c212f6146101b55780636f77926b146101e8576100f5565b80630da4578b146100fa5780630e666e491461011657806318046ae114610146575b600080fd5b610114600480360381019061010f9190612bed565b610301565b005b610130600480360381019061012b9190612ca8565b610702565b60405161013d9190612cf0565b60405180910390f35b610160600480360381019061015b9190612d0b565b61075b565b6040516101709493929190612edf565b60405180910390f35b610181610aed565b60405161019093929190612ffe565b60405180910390f35b6101b360048036038101906101ae9190612ca8565b610e31565b005b6101cf60048036038101906101ca9190612ca8565b611192565b6040516101df9493929190612edf565b60405180910390f35b61020260048036038101906101fd9190612ca8565b611501565b6040516102129493929190612edf565b60405180910390f35b610223611872565b005b61023f600480360381019061023a9190612ca8565b611886565b60405161024c919061304a565b60405180910390f35b61025d611a32565b60405161026a919061307b565b60405180910390f35b61028d60048036038101906102889190612ca8565b611a6a565b005b610297611bf9565b6040516102a49190613256565b60405180910390f35b6102c760048036038101906102c2919061335e565b611fb8565b005b6102e360048036038101906102de9190612ca8565b612402565b005b6102ff60048036038101906102fa9190613449565b612488565b005b8360008060008373ffffffffffffffffffffffffffffffffffffffff1673ffffffffffffffffffffffffffffffffffffffff1681526020019081526020016000206000018054610350906134d4565b905011610392576040517f08c379a000000000000000000000000000000000000000000000000000000000815260040161038990613551565b60405180910390fd5b82600581511180156103a5575060648151105b6103e4576040517f08c379a00000000000000000000000000000000000000000000000000000000081526004016103db906135bd565b60405180910390fd5b6103ed816125c8565b61042c576040517f08c379a000000000000000000000000000000000000000000000000000000000815260040161042390613629565b60405180910390fd5b846002815111801561043f575060328151105b61047e576040517f08c379a000000000000000000000000000000000000000000000000000000000815260040161047590613695565b60405180910390fd5b836101f48151106104c4576040517f08c379a00000000000000000000000000000000000000000000000000000000081526004016104bb90613701565b60405180910390fd5b85600073ffffffffffffffffffffffffffffffffffffffff166001826040516104ed919061375d565b908152602001604051809103902060009054906101000a900473ffffffffffffffffffffffffffffffffffffffff1673ffffffffffffffffffffffffffffffffffffffff1614610572576040517f08c379a0000000000000000000000000000000000000000000000000000000008152600401610569906137c0565b60405180910390fd5b60008060008b73ffffffffffffffffffffffffffffffffffffffff1673ffffffffffffffffffffffffffffffffffffffff168152602001908152602001600020905060006001826001016040516105c99190613878565b908152602001604051809103902060006101000a81548173ffffffffffffffffffffffffffffffffffffffff021916908373ffffffffffffffffffffffffffffffffffffffff160217905550888160000190816106269190613a30565b50878160010190816106389190613a30565b508681600201908161064a9190613a30565b508960018960405161065c919061375d565b908152602001604051809103902060006101000a81548173ffffffffffffffffffffffffffffffffffffffff021916908373ffffffffffffffffffffffffffffffffffffffff1602179055508973ffffffffffffffffffffffffffffffffffffffff167fd6136f3cad7c60bfc24bbf1548f39f766ca8bce104bf9adde3deb6237dec51df8a6040516106ee9190613b02565b60405180910390a250505050505050505050565b6000806000808473ffffffffffffffffffffffffffffffffffffffff1673ffffffffffffffffffffffffffffffffffffffff1681526020019081526020016000206000018054610751906134d4565b9050119050919050565b6060806060806000600186604051610773919061375d565b908152602001604051809103902060009054906101000a900473ffffffffffffffffffffffffffffffffffffffff169050600073ffffffffffffffffffffffffffffffffffffffff168173ffffffffffffffffffffffffffffffffffffffff1603610813576040517f08c379a000000000000000000000000000000000000000000000000000000000815260040161080a90613551565b60405180910390fd5b60008060008373ffffffffffffffffffffffffffffffffffffffff1673ffffffffffffffffffffffffffffffffffffffff168152602001908152602001600020905080600001816001018260020183600301838054610871906134d4565b80601f016020809104026020016040519081016040528092919081815260200182805461089d906134d4565b80156108ea5780601f106108bf576101008083540402835291602001916108ea565b820191906000526020600020905b8154815290600101906020018083116108cd57829003601f168201915b505050505093508280546108fd906134d4565b80601f0160208091040260200160405190810160405280929190818152602001828054610929906134d4565b80156109765780601f1061094b57610100808354040283529160200191610976565b820191906000526020600020905b81548152906001019060200180831161095957829003601f168201915b50505050509250818054610989906134d4565b80601f01602080910402602001604051908101604052809291908181526020018280546109b5906134d4565b8015610a025780601f106109d757610100808354040283529160200191610a02565b820191906000526020600020905b8154815290600101906020018083116109e557829003601f168201915b5050505050915080805480602002602001604051908101604052809291908181526020016000905b82821015610ad6578382906000526020600020018054610a49906134d4565b80601f0160208091040260200160405190810160405280929190818152602001828054610a75906134d4565b8015610ac25780601f10610a9757610100808354040283529160200191610ac2565b820191906000526020600020905b815481529060010190602001808311610aa557829003601f168201915b505050505081526020019060010190610a2a565b505050509050955095509550955050509193509193565b6060806060600060028054905090508067ffffffffffffffff811115610b1657610b15612ac2565b5b604051908082528060200260200182016040528015610b4957816020015b6060815260200190600190039081610b345790505b5093508067ffffffffffffffff811115610b6657610b65612ac2565b5b604051908082528060200260200182016040528015610b945781602001602082028036833780820191505090505b5092508067ffffffffffffffff811115610bb157610bb0612ac2565b5b604051908082528060200260200182016040528015610be457816020015b6060815260200190600190039081610bcf5790505b50915060005b81811015610e2a57600060028281548110610c0857610c07613b24565b5b9060005260206000200160009054906101000a900473ffffffffffffffffffffffffffffffffffffffff16905060008060008373ffffffffffffffffffffffffffffffffffffffff1673ffffffffffffffffffffffffffffffffffffffff1681526020019081526020016000209050806000018054610c86906134d4565b80601f0160208091040260200160405190810160405280929190818152602001828054610cb2906134d4565b8015610cff5780601f10610cd457610100808354040283529160200191610cff565b820191906000526020600020905b815481529060010190602001808311610ce257829003601f168201915b5050505050878481518110610d1757610d16613b24565b5b602002602001018190525081868481518110610d3657610d35613b24565b5b602002602001019073ffffffffffffffffffffffffffffffffffffffff16908173ffffffffffffffffffffffffffffffffffffffff1681525050806001018054610d7f906134d4565b80601f0160208091040260200160405190810160405280929190818152602001828054610dab906134d4565b8015610df85780601f10610dcd57610100808354040283529160200191610df8565b820191906000526020600020905b815481529060010190602001808311610ddb57829003601f168201915b5050505050858481518110610e1057610e0f613b24565b5b602002602001018190525050508080600101915050610bea565b5050909192565b8060008060008373ffffffffffffffffffffffffffffffffffffffff1673ffffffffffffffffffffffffffffffffffffffff1681526020019081526020016000206000018054610e80906134d4565b905011610ec2576040517f08c379a0000000000000000000000000000000000000000000000000000000008152600401610eb990613551565b60405180910390fd5b60016000808473ffffffffffffffffffffffffffffffffffffffff1673ffffffffffffffffffffffffffffffffffffffff168152602001908152602001600020600101604051610f129190613878565b908152602001604051809103902060006101000a81549073ffffffffffffffffffffffffffffffffffffffff02191690556000808373ffffffffffffffffffffffffffffffffffffffff1673ffffffffffffffffffffffffffffffffffffffff16815260200190815260200160002060008082016000610f929190612912565b600182016000610fa29190612912565b600282016000610fb29190612912565b600382016000610fc29190612952565b505060005b60028054905081101561114a578273ffffffffffffffffffffffffffffffffffffffff1660028281548110610fff57610ffe613b24565b5b9060005260206000200160009054906101000a900473ffffffffffffffffffffffffffffffffffffffff1673ffffffffffffffffffffffffffffffffffffffff160361113d57600260016002805490506110599190613b82565b8154811061106a57611069613b24565b5b9060005260206000200160009054906101000a900473ffffffffffffffffffffffffffffffffffffffff16600282815481106110a9576110a8613b24565b5b9060005260206000200160006101000a81548173ffffffffffffffffffffffffffffffffffffffff021916908373ffffffffffffffffffffffffffffffffffffffff160217905550600280548061110357611102613bb6565b5b6001900381819060005260206000200160006101000a81549073ffffffffffffffffffffffffffffffffffffffff0219169055905561114a565b8080600101915050610fc7565b508173ffffffffffffffffffffffffffffffffffffffff167f4bc56f1321288dfb5b416cb3a7fd188723979f9e866c91d88eccf7fca039d03960405160405180910390a25050565b60608060608060008060008773ffffffffffffffffffffffffffffffffffffffff1673ffffffffffffffffffffffffffffffffffffffff16815260200190815260200160002060000180546111e6906134d4565b905011611228576040517f08c379a000000000000000000000000000000000000000000000000000000000815260040161121f90613551565b60405180910390fd5b60008060008773ffffffffffffffffffffffffffffffffffffffff1673ffffffffffffffffffffffffffffffffffffffff168152602001908152602001600020905080600001816001018260020183600301838054611286906134d4565b80601f01602080910402602001604051908101604052809291908181526020018280546112b2906134d4565b80156112ff5780601f106112d4576101008083540402835291602001916112ff565b820191906000526020600020905b8154815290600101906020018083116112e257829003601f168201915b50505050509350828054611312906134d4565b80601f016020809104026020016040519081016040528092919081815260200182805461133e906134d4565b801561138b5780601f106113605761010080835404028352916020019161138b565b820191906000526020600020905b81548152906001019060200180831161136e57829003601f168201915b5050505050925081805461139e906134d4565b80601f01602080910402602001604051908101604052809291908181526020018280546113ca906134d4565b80156114175780601f106113ec57610100808354040283529160200191611417565b820191906000526020600020905b8154815290600101906020018083116113fa57829003601f168201915b5050505050915080805480602002602001604051908101604052809291908181526020016000905b828210156114eb57838290600052602060002001805461145e906134d4565b80601f016020809104026020016040519081016040528092919081815260200182805461148a906134d4565b80156114d75780601f106114ac576101008083540402835291602001916114d7565b820191906000526020600020905b8154815290600101906020018083116114ba57829003601f168201915b50505050508152602001906001019061143f565b5050505090509450945094509450509193509193565b6060806060808460008060008373ffffffffffffffffffffffffffffffffffffffff1673ffffffffffffffffffffffffffffffffffffffff1681526020019081526020016000206000018054611556906134d4565b905011611598576040517f08c379a000000000000000000000000000000000000000000000000000000000815260040161158f90613551565b60405180910390fd5b60008060008873ffffffffffffffffffffffffffffffffffffffff1673ffffffffffffffffffffffffffffffffffffffff1681526020019081526020016000209050806000018160010182600201836003018380546115f6906134d4565b80601f0160208091040260200160405190810160405280929190818152602001828054611622906134d4565b801561166f5780601f106116445761010080835404028352916020019161166f565b820191906000526020600020905b81548152906001019060200180831161165257829003601f168201915b50505050509350828054611682906134d4565b80601f01602080910402602001604051908101604052809291908181526020018280546116ae906134d4565b80156116fb5780601f106116d0576101008083540402835291602001916116fb565b820191906000526020600020905b8154815290600101906020018083116116de57829003601f168201915b5050505050925081805461170e906134d4565b80601f016020809104026020016040519081016040528092919081815260200182805461173a906134d4565b80156117875780601f1061175c57610100808354040283529160200191611787565b820191906000526020600020905b81548152906001019060200180831161176a57829003601f168201915b5050505050915080805480602002602001604051908101604052809291908181526020016000905b8282101561185b5783829060005260206000200180546117ce906134d4565b80601f01602080910402602001604051908101604052809291908181526020018280546117fa906134d4565b80156118475780601f1061181c57610100808354040283529160200191611847565b820191906000526020600020905b81548152906001019060200180831161182a57829003601f168201915b5050505050815260200190600101906117af565b505050509050955095509550955050509193509193565b61187a612662565b61188460006126e9565b565b60608160008060008373ffffffffffffffffffffffffffffffffffffffff1673ffffffffffffffffffffffffffffffffffffffff16815260200190815260200160002060000180546118d7906134d4565b905011611919576040517f08c379a000000000000000000000000000000000000000000000000000000000815260040161191090613551565b60405180910390fd5b6000808473ffffffffffffffffffffffffffffffffffffffff1673ffffffffffffffffffffffffffffffffffffffff168152602001908152602001600020600301805480602002602001604051908101604052809291908181526020016000905b82821015611a26578382906000526020600020018054611999906134d4565b80601f01602080910402602001604051908101604052809291908181526020018280546119c5906134d4565b8015611a125780601f106119e757610100808354040283529160200191611a12565b820191906000526020600020905b8154815290600101906020018083116119f557829003601f168201915b50505050508152602001906001019061197a565b50505050915050919050565b600080611a3d6127c0565b90508060000160009054906101000a900473ffffffffffffffffffffffffffffffffffffffff1691505090565b6000611a746127e8565b905060008160000160089054906101000a900460ff1615905060008260000160009054906101000a900467ffffffffffffffff1690506000808267ffffffffffffffff16148015611ac25750825b9050600060018367ffffffffffffffff16148015611af7575060003073ffffffffffffffffffffffffffffffffffffffff163b145b905081158015611b05575080155b15611b3c576040517ff92ee8a900000000000000000000000000000000000000000000000000000000815260040160405180910390fd5b60018560000160006101000a81548167ffffffffffffffff021916908367ffffffffffffffff1602179055508315611b8c5760018560000160086101000a81548160ff0219169083151502179055505b611b9586612810565b8315611bf15760008560000160086101000a81548160ff0219169083151502179055507fc7f505b2f371ae2175ee4913f4499e1f2633a7b5936321eed1cdaeb6115181d26001604051611be89190613c34565b60405180910390a15b505050505050565b60606000600280549050905060008167ffffffffffffffff811115611c2157611c20612ac2565b5b604051908082528060200260200182016040528015611c5a57816020015b611c47612973565b815260200190600190039081611c3f5790505b50905060005b82811015611faf57600060028281548110611c7e57611c7d613b24565b5b9060005260206000200160009054906101000a900473ffffffffffffffffffffffffffffffffffffffff1690506000808273ffffffffffffffffffffffffffffffffffffffff1673ffffffffffffffffffffffffffffffffffffffff168152602001908152602001600020604051806080016040529081600082018054611d04906134d4565b80601f0160208091040260200160405190810160405280929190818152602001828054611d30906134d4565b8015611d7d5780601f10611d5257610100808354040283529160200191611d7d565b820191906000526020600020905b815481529060010190602001808311611d6057829003601f168201915b50505050508152602001600182018054611d96906134d4565b80601f0160208091040260200160405190810160405280929190818152602001828054611dc2906134d4565b8015611e0f5780601f10611de457610100808354040283529160200191611e0f565b820191906000526020600020905b815481529060010190602001808311611df257829003601f168201915b50505050508152602001600282018054611e28906134d4565b80601f0160208091040260200160405190810160405280929190818152602001828054611e54906134d4565b8015611ea15780601f10611e7657610100808354040283529160200191611ea1565b820191906000526020600020905b815481529060010190602001808311611e8457829003601f168201915b5050505050815260200160038201805480602002602001604051908101604052809291908181526020016000905b82821015611f7b578382906000526020600020018054611eee906134d4565b80601f0160208091040260200160405190810160405280929190818152602001828054611f1a906134d4565b8015611f675780601f10611f3c57610100808354040283529160200191611f67565b820191906000526020600020905b815481529060010190602001808311611f4a57829003601f168201915b505050505081526020019060010190611ecf565b5050505081525050838381518110611f9657611f95613b24565b5b6020026020010181905250508080600101915050611c60565b50809250505090565b8260058151118015611fcb575060648151105b61200a576040517f08c379a0000000000000000000000000000000000000000000000000000000008152600401612001906135bd565b60405180910390fd5b612013816125c8565b612052576040517f08c379a000000000000000000000000000000000000000000000000000000000815260040161204990613629565b60405180910390fd5b8460028151118015612065575060328151105b6120a4576040517f08c379a000000000000000000000000000000000000000000000000000000000815260040161209b90613695565b60405180910390fd5b836101f48151106120ea576040517f08c379a00000000000000000000000000000000000000000000000000000000081526004016120e190613701565b60405180910390fd5b85600073ffffffffffffffffffffffffffffffffffffffff16600182604051612113919061375d565b908152602001604051809103902060009054906101000a900473ffffffffffffffffffffffffffffffffffffffff1673ffffffffffffffffffffffffffffffffffffffff1614612198576040517f08c379a000000000000000000000000000000000000000000000000000000000815260040161218f906137c0565b60405180910390fd5b60008060008b73ffffffffffffffffffffffffffffffffffffffff1673ffffffffffffffffffffffffffffffffffffffff16815260200190815260200160002060000180546121e6906134d4565b905014612228576040517f08c379a000000000000000000000000000000000000000000000000000000000815260040161221f90613c9b565b60405180910390fd5b6040518060800160405280898152602001888152602001878152602001868152506000808b73ffffffffffffffffffffffffffffffffffffffff1673ffffffffffffffffffffffffffffffffffffffff168152602001908152602001600020600082015181600001908161229c9190613a30565b5060208201518160010190816122b29190613a30565b5060408201518160020190816122c89190613a30565b5060608201518160030190805190602001906122e592919061299b565b50905050886001886040516122fa919061375d565b908152602001604051809103902060006101000a81548173ffffffffffffffffffffffffffffffffffffffff021916908373ffffffffffffffffffffffffffffffffffffffff1602179055506002899080600181540180825580915050600190039060005260206000200160009091909190916101000a81548173ffffffffffffffffffffffffffffffffffffffff021916908373ffffffffffffffffffffffffffffffffffffffff1602179055508873ffffffffffffffffffffffffffffffffffffffff167fa56e21173460286ea98fc3defc7671b9b8e2ff0c6acea8d6ed30b343724e23fa896040516123ef9190613b02565b60405180910390a2505050505050505050565b61240a612662565b600073ffffffffffffffffffffffffffffffffffffffff168173ffffffffffffffffffffffffffffffffffffffff160361247c5760006040517f1e4fbdf7000000000000000000000000000000000000000000000000000000008152600401612473919061307b565b60405180910390fd5b612485816126e9565b50565b8160008060008373ffffffffffffffffffffffffffffffffffffffff1673ffffffffffffffffffffffffffffffffffffffff16815260200190815260200160002060000180546124d7906134d4565b905011612519576040517f08c379a000000000000000000000000000000000000000000000000000000000815260040161251090613551565b60405180910390fd5b60008060008573ffffffffffffffffffffffffffffffffffffffff1673ffffffffffffffffffffffffffffffffffffffff16815260200190815260200160002090508281600301908051906020019061257392919061299b565b508373ffffffffffffffffffffffffffffffffffffffff167f10d4a05fe562c87eeb724c04dacfc6b6a0e63b80cd3ddf42d58bb51058aaacda846040516125ba919061304a565b60405180910390a250505050565b6000808290506000805b8251811015612657577f400000000000000000000000000000000000000000000000000000000000000083828151811061260f5761260e613b24565b5b602001015160f81c60f81b7effffffffffffffffffffffffffffffffffffffffffffffffffffffffffffff19160361264a5760019150612657565b80806001019150506125d2565b508092505050919050565b61266a612824565b73ffffffffffffffffffffffffffffffffffffffff16612688611a32565b73ffffffffffffffffffffffffffffffffffffffff16146126e7576126ab612824565b6040517f118cdaa70000000000000000000000000000000000000000000000000000000081526004016126de919061307b565b60405180910390fd5b565b60006126f36127c0565b905060008160000160009054906101000a900473ffffffffffffffffffffffffffffffffffffffff169050828260000160006101000a81548173ffffffffffffffffffffffffffffffffffffffff021916908373ffffffffffffffffffffffffffffffffffffffff1602179055508273ffffffffffffffffffffffffffffffffffffffff168173ffffffffffffffffffffffffffffffffffffffff167f8be0079c531659141344cd1fd0a4f28419497f9722a3daafe3b4186f6b6457e060405160405180910390a3505050565b60007f9016d09d72d40fdae2fd8ceac6b6234c7706214fd39c1cd1e609a0528c199300905090565b60007ff0c57e16840df040f15088dc2f81fe391c3923bec73e23a9662efc9c229c6a00905090565b61281861282c565b6128218161286c565b50565b600033905090565b6128346128f2565b61286a576040517fd7e6bcf800000000000000000000000000000000000000000000000000000000815260040160405180910390fd5b565b61287461282c565b600073ffffffffffffffffffffffffffffffffffffffff168173ffffffffffffffffffffffffffffffffffffffff16036128e65760006040517f1e4fbdf70000000000000000000000000000000000000000000000000000000081526004016128dd919061307b565b60405180910390fd5b6128ef816126e9565b50565b60006128fc6127e8565b60000160089054906101000a900460ff16905090565b50805461291e906134d4565b6000825580601f10612930575061294f565b601f01602090049060005260206000209081019061294e91906129f4565b5b50565b50805460008255906000526020600020908101906129709190612a11565b50565b6040518060800160405280606081526020016060815260200160608152602001606081525090565b8280548282559060005260206000209081019282156129e3579160200282015b828111156129e25782518290816129d29190613a30565b50916020019190600101906129bb565b5b5090506129f09190612a11565b5090565b5b80821115612a0d5760008160009055506001016129f5565b5090565b5b80821115612a315760008181612a289190612912565b50600101612a12565b5090565b6000604051905090565b600080fd5b600080fd5b600073ffffffffffffffffffffffffffffffffffffffff82169050919050565b6000612a7482612a49565b9050919050565b612a8481612a69565b8114612a8f57600080fd5b50565b600081359050612aa181612a7b565b92915050565b600080fd5b600080fd5b6000601f19601f8301169050919050565b7f4e487b7100000000000000000000000000000000000000000000000000000000600052604160045260246000fd5b612afa82612ab1565b810181811067ffffffffffffffff82111715612b1957612b18612ac2565b5b80604052505050565b6000612b2c612a35565b9050612b388282612af1565b919050565b600067ffffffffffffffff821115612b5857612b57612ac2565b5b612b6182612ab1565b9050602081019050919050565b82818337600083830152505050565b6000612b90612b8b84612b3d565b612b22565b905082815260208101848484011115612bac57612bab612aac565b5b612bb7848285612b6e565b509392505050565b600082601f830112612bd457612bd3612aa7565b5b8135612be4848260208601612b7d565b91505092915050565b60008060008060808587031215612c0757612c06612a3f565b5b6000612c1587828801612a92565b945050602085013567ffffffffffffffff811115612c3657612c35612a44565b5b612c4287828801612bbf565b935050604085013567ffffffffffffffff811115612c6357612c62612a44565b5b612c6f87828801612bbf565b925050606085013567ffffffffffffffff811115612c9057612c8f612a44565b5b612c9c87828801612bbf565b91505092959194509250565b600060208284031215612cbe57612cbd612a3f565b5b6000612ccc84828501612a92565b91505092915050565b60008115159050919050565b612cea81612cd5565b82525050565b6000602082019050612d056000830184612ce1565b92915050565b600060208284031215612d2157612d20612a3f565b5b600082013567ffffffffffffffff811115612d3f57612d3e612a44565b5b612d4b84828501612bbf565b91505092915050565b600081519050919050565b600082825260208201905092915050565b60005b83811015612d8e578082015181840152602081019050612d73565b60008484015250505050565b6000612da582612d54565b612daf8185612d5f565b9350612dbf818560208601612d70565b612dc881612ab1565b840191505092915050565b600081519050919050565b600082825260208201905092915050565b6000819050602082019050919050565b600082825260208201905092915050565b6000612e1b82612d54565b612e258185612dff565b9350612e35818560208601612d70565b612e3e81612ab1565b840191505092915050565b6000612e558383612e10565b905092915050565b6000602082019050919050565b6000612e7582612dd3565b612e7f8185612dde565b935083602082028501612e9185612def565b8060005b85811015612ecd5784840389528151612eae8582612e49565b9450612eb983612e5d565b925060208a01995050600181019050612e95565b50829750879550505050505092915050565b60006080820190508181036000830152612ef98187612d9a565b90508181036020830152612f0d8186612d9a565b90508181036040830152612f218185612d9a565b90508181036060830152612f358184612e6a565b905095945050505050565b600081519050919050565b600082825260208201905092915050565b6000819050602082019050919050565b612f7581612a69565b82525050565b6000612f878383612f6c565b60208301905092915050565b6000602082019050919050565b6000612fab82612f40565b612fb58185612f4b565b9350612fc083612f5c565b8060005b83811015612ff1578151612fd88882612f7b565b9750612fe383612f93565b925050600181019050612fc4565b5085935050505092915050565b600060608201905081810360008301526130188186612e6a565b9050818103602083015261302c8185612fa0565b905081810360408301526130408184612e6a565b9050949350505050565b600060208201905081810360008301526130648184612e6a565b905092915050565b61307581612a69565b82525050565b6000602082019050613090600083018461306c565b92915050565b600081519050919050565b600082825260208201905092915050565b6000819050602082019050919050565b600082825260208201905092915050565b60006130de82612dd3565b6130e881856130c2565b9350836020820285016130fa85612def565b8060005b8581101561313657848403895281516131178582612e49565b945061312283612e5d565b925060208a019950506001810190506130fe565b50829750879550505050505092915050565b600060808301600083015184820360008601526131658282612e10565b9150506020830151848203602086015261317f8282612e10565b915050604083015184820360408601526131998282612e10565b915050606083015184820360608601526131b382826130d3565b9150508091505092915050565b60006131cc8383613148565b905092915050565b6000602082019050919050565b60006131ec82613096565b6131f681856130a1565b935083602082028501613208856130b2565b8060005b85811015613244578484038952815161322585826131c0565b9450613230836131d4565b925060208a0199505060018101905061320c565b50829750879550505050505092915050565b6000602082019050818103600083015261327081846131e1565b905092915050565b600067ffffffffffffffff82111561329357613292612ac2565b5b602082029050602081019050919050565b600080fd5b60006132bc6132b784613278565b612b22565b905080838252602082019050602084028301858111156132df576132de6132a4565b5b835b8181101561332657803567ffffffffffffffff81111561330457613303612aa7565b5b8086016133118982612bbf565b855260208501945050506020810190506132e1565b5050509392505050565b600082601f83011261334557613344612aa7565b5b81356133558482602086016132a9565b91505092915050565b600080600080600060a0868803121561337a57613379612a3f565b5b600061338888828901612a92565b955050602086013567ffffffffffffffff8111156133a9576133a8612a44565b5b6133b588828901612bbf565b945050604086013567ffffffffffffffff8111156133d6576133d5612a44565b5b6133e288828901612bbf565b935050606086013567ffffffffffffffff81111561340357613402612a44565b5b61340f88828901612bbf565b925050608086013567ffffffffffffffff8111156134305761342f612a44565b5b61343c88828901613330565b9150509295509295909350565b600080604083850312156134605761345f612a3f565b5b600061346e85828601612a92565b925050602083013567ffffffffffffffff81111561348f5761348e612a44565b5b61349b85828601613330565b9150509250929050565b7f4e487b7100000000000000000000000000000000000000000000000000000000600052602260045260246000fd5b600060028204905060018216806134ec57607f821691505b6020821081036134ff576134fe6134a5565b5b50919050565b7f5573657220646f6573206e6f7420657869737400000000000000000000000000600082015250565b600061353b601383612d5f565b915061354682613505565b602082019050919050565b6000602082019050818103600083015261356a8161352e565b9050919050565b7f496e76616c696420656d61696c206c656e677468000000000000000000000000600082015250565b60006135a7601483612d5f565b91506135b282613571565b602082019050919050565b600060208201905081810360008301526135d68161359a565b9050919050565b7f496e76616c696420656d61696c20666f726d6174000000000000000000000000600082015250565b6000613613601483612d5f565b915061361e826135dd565b602082019050919050565b6000602082019050818103600083015261364281613606565b9050919050565b7f496e76616c696420757365726e616d65206c656e677468000000000000000000600082015250565b600061367f601783612d5f565b915061368a82613649565b602082019050919050565b600060208201905081810360008301526136ae81613672565b9050919050565b7f42696f20746f6f206c6f6e670000000000000000000000000000000000000000600082015250565b60006136eb600c83612d5f565b91506136f6826136b5565b602082019050919050565b6000602082019050818103600083015261371a816136de565b9050919050565b600081905092915050565b600061373782612d54565b6137418185613721565b9350613751818560208601612d70565b80840191505092915050565b6000613769828461372c565b915081905092915050565b7f456d61696c20616c726561647920757365640000000000000000000000000000600082015250565b60006137aa601283612d5f565b91506137b582613774565b602082019050919050565b600060208201905081810360008301526137d98161379d565b9050919050565b60008190508160005260206000209050919050565b60008154613802816134d4565b61380c8186613721565b94506001821660008114613827576001811461383c5761386f565b60ff198316865281151582028601935061386f565b613845856137e0565b60005b8381101561386757815481890152600182019150602081019050613848565b838801955050505b50505092915050565b600061388482846137f5565b915081905092915050565b60006020601f8301049050919050565b600082821b905092915050565b6000600883026138dc7fffffffffffffffffffffffffffffffffffffffffffffffffffffffffffffffff8261389f565b6138e6868361389f565b95508019841693508086168417925050509392505050565b6000819050919050565b6000819050919050565b600061392d613928613923846138fe565b613908565b6138fe565b9050919050565b6000819050919050565b61394783613912565b61395b61395382613934565b8484546138ac565b825550505050565b600090565b613970613963565b61397b81848461393e565b505050565b5b8181101561399f57613994600082613968565b600181019050613981565b5050565b601f8211156139e4576139b5816137e0565b6139be8461388f565b810160208510156139cd578190505b6139e16139d98561388f565b830182613980565b50505b505050565b600082821c905092915050565b6000613a07600019846008026139e9565b1980831691505092915050565b6000613a2083836139f6565b9150826002028217905092915050565b613a3982612d54565b67ffffffffffffffff811115613a5257613a51612ac2565b5b613a5c82546134d4565b613a678282856139a3565b600060209050601f831160018114613a9a5760008415613a88578287015190505b613a928582613a14565b865550613afa565b601f198416613aa8866137e0565b60005b82811015613ad057848901518255600182019150602085019450602081019050613aab565b86831015613aed5784890151613ae9601f8916826139f6565b8355505b6001600288020188555050505b505050505050565b60006020820190508181036000830152613b1c8184612d9a565b905092915050565b7f4e487b7100000000000000000000000000000000000000000000000000000000600052603260045260246000fd5b7f4e487b7100000000000000000000000000000000000000000000000000000000600052601160045260246000fd5b6000613b8d826138fe565b9150613b98836138fe565b9250828203905081811115613bb057613baf613b53565b5b92915050565b7f4e487b7100000000000000000000000000000000000000000000000000000000600052603160045260246000fd5b6000819050919050565b600067ffffffffffffffff82169050919050565b6000613c1e613c19613c1484613be5565b613908565b613bef565b9050919050565b613c2e81613c03565b82525050565b6000602082019050613c496000830184613c25565b92915050565b7f5573657220616c72656164792065786973747300000000000000000000000000600082015250565b6000613c85601383612d5f565b9150613c9082613c4f565b602082019050919050565b60006020820190508181036000830152613cb481613c78565b905091905056fea264697066735822122051ae06645f003a86b9cf45966aa512175823146ae6fcc9b138e12913fe4d51cd64736f6c63430008180033",
  "linkReferences": {},
  "deployedLinkReferences": {}
}