{
  "_format": "hh-sol-artifact-1",
  "contractName": "Comment",
  "sourceName": "contracts/Comment.sol",
  "abi": [
    {
      "inputs": [],
      "name": "InvalidInitialization",
      "type": "error"
    },
    {
      "inputs": [],
      "name": "NotInitializing",
      "type": "error"
    },
    {
      "anonymous": false,
      "inputs": [
        {
          "indexed": true,
          "internalType": "uint256",
          "name": "productId",
          "type": "uint256"
        },
        {
          "indexed": true,
          "internalType": "address",
          "name": "commenter",
          "type": "address"
        },
        {
          "indexed": false,
          "internalType": "string",
          "name": "content",
          "type": "string"
        }
      ],
      "name": "CommentAdded",
      "type": "event"
    },
    {
      "anonymous": false,
      "inputs": [
        {
          "indexed": false,
          "internalType": "uint64",
          "name": "version",
          "type": "uint64"
        }
      ],
      "name": "Initialized",
      "type": "event"
    },
    {
      "inputs": [
        {
          "internalType": "uint256",
          "name": "_productId",
          "type": "uint256"
        },
        {
          "internalType": "string",
          "name": "_content",
          "type": "string"
        }
      ],
      "name": "commentOnProduct",
      "outputs": [],
      "stateMutability": "nonpayable",
      "type": "function"
    },
    {
      "inputs": [
        {
          "internalType": "uint256",
          "name": "_productId",
          "type": "uint256"
        },
        {
          "internalType": "uint256",
          "name": "_commentId",
          "type": "uint256"
        }
      ],
      "name": "getComment",
      "outputs": [
        {
          "components": [
            {
              "internalType": "address",
              "name": "commenter",
              "type": "address"
            },
            {
              "internalType": "string",
              "name": "content",
              "type": "string"
            },
            {
              "internalType": "uint256",
              "name": "timestamp",
              "type": "uint256"
            }
          ],
          "internalType": "struct Comment.CommentInfo",
          "name": "",
          "type": "tuple"
        }
      ],
      "stateMutability": "view",
      "type": "function"
    },
    {
      "inputs": [
        {
          "internalType": "uint256",
          "name": "_productId",
          "type": "uint256"
        },
        {
          "internalType": "uint256",
          "name": "_commentId",
          "type": "uint256"
        }
      ],
      "name": "getCommenter",
      "outputs": [
        {
          "internalType": "address",
          "name": "",
          "type": "address"
        }
      ],
      "stateMutability": "view",
      "type": "function"
    },
    {
      "inputs": [
        {
          "internalType": "uint256",
          "name": "_productId",
          "type": "uint256"
        }
      ],
      "name": "getComments",
      "outputs": [
        {
          "components": [
            {
              "internalType": "address",
              "name": "commenter",
              "type": "address"
            },
            {
              "internalType": "string",
              "name": "content",
              "type": "string"
            },
            {
              "internalType": "uint256",
              "name": "timestamp",
              "type": "uint256"
            }
          ],
          "internalType": "struct Comment.CommentInfo[]",
          "name": "",
          "type": "tuple[]"
        }
      ],
      "stateMutability": "view",
      "type": "function"
    },
    {
      "inputs": [
        {
          "internalType": "uint256",
          "name": "_productId",
          "type": "uint256"
        }
      ],
      "name": "getCommentsCount",
      "outputs": [
        {
          "internalType": "uint256",
          "name": "",
          "type": "uint256"
        }
      ],
      "stateMutability": "view",
      "type": "function"
    },
    {
      "inputs": [
        {
          "internalType": "address",
          "name": "productAddress",
          "type": "address"
        }
      ],
      "name": "initialize",
      "outputs": [],
      "stateMutability": "nonpayable",
      "type": "function"
    },
    {
      "inputs": [
        {
          "internalType": "uint256",
          "name": "",
          "type": "uint256"
        },
        {
          "internalType": "uint256",
          "name": "",
          "type": "uint256"
        }
      ],
      "name": "productComments",
      "outputs": [
        {
          "internalType": "address",
          "name": "commenter",
          "type": "address"
        },
        {
          "internalType": "string",
          "name": "content",
          "type": "string"
        },
        {
          "internalType": "uint256",
          "name": "timestamp",
          "type": "uint256"
        }
      ],
      "stateMutability": "view",
      "type": "function"
    }
  ],
  "bytecode": "0x608060405234801561001057600080fd5b5061216f806100206000396000f3fe608060405234801561001057600080fd5b506004361061007d5760003560e01c8063488927531161005b57806348892753146101005780634c9b78da14610130578063bf4f31b014610160578063c4d66de8146101905761007d565b806323edf69714610082578063395e3f1e146100b25780634091e119146100ce575b600080fd5b61009c60048036038101906100979190610ee8565b6101ac565b6040516100a99190611107565b60405180910390f35b6100cc60048036038101906100c7919061125e565b6103fa565b005b6100e860048036038101906100e391906112ba565b610653565b6040516100f793929190611362565b60405180910390f35b61011a600480360381019061011591906112ba565b610742565b60405161012791906113f0565b60405180910390f35b61014a60048036038101906101459190610ee8565b6109c8565b6040516101579190611412565b60405180910390f35b61017a600480360381019061017591906112ba565b610ad2565b604051610187919061142d565b60405180910390f35b6101aa60048036038101906101a59190611474565b610c79565b005b6060818060008054906101000a900473ffffffffffffffffffffffffffffffffffffffff1673ffffffffffffffffffffffffffffffffffffffff1663b9db15b4836040518263ffffffff1660e01b81526004016102099190611412565b600060405180830381865afa158015610226573d6000803e3d6000fd5b505050506040513d6000823e3d601f19601f8201168201806040525081019061024f9190611c13565b600001516000015114610297576040517f08c379a000000000000000000000000000000000000000000000000000000000815260040161028e90611ca8565b60405180910390fd5b60016000848152602001908152602001600020805480602002602001604051908101604052809291908181526020016000905b828210156103ee57838290600052602060002090600302016040518060600160405290816000820160009054906101000a900473ffffffffffffffffffffffffffffffffffffffff1673ffffffffffffffffffffffffffffffffffffffff1673ffffffffffffffffffffffffffffffffffffffff16815260200160018201805461035390611cf7565b80601f016020809104026020016040519081016040528092919081815260200182805461037f90611cf7565b80156103cc5780601f106103a1576101008083540402835291602001916103cc565b820191906000526020600020905b8154815290600101906020018083116103af57829003601f168201915b50505050508152602001600282015481525050815260200190600101906102ca565b50505050915050919050565b818060008054906101000a900473ffffffffffffffffffffffffffffffffffffffff1673ffffffffffffffffffffffffffffffffffffffff1663b9db15b4836040518263ffffffff1660e01b81526004016104559190611412565b600060405180830381865afa158015610472573d6000803e3d6000fd5b505050506040513d6000823e3d601f19601f8201168201806040525081019061049b9190611c13565b6000015160000151146104e3576040517f08c379a00000000000000000000000000000000000000000000000000000000081526004016104da90611ca8565b60405180910390fd5b816000815111610528576040517f08c379a000000000000000000000000000000000000000000000000000000000815260040161051f90611d74565b60405180910390fd5b6001600085815260200190815260200160002060405180606001604052803373ffffffffffffffffffffffffffffffffffffffff16815260200185815260200142815250908060018154018082558091505060019003906000526020600020906003020160009091909190915060008201518160000160006101000a81548173ffffffffffffffffffffffffffffffffffffffff021916908373ffffffffffffffffffffffffffffffffffffffff16021790555060208201518160010190816105f19190611f40565b506040820151816002015550503373ffffffffffffffffffffffffffffffffffffffff16847fcc2d7dd2085ae6644799a42c0174adf9afc10a43f26db5eac3ddd1f96d1d64be856040516106459190612012565b60405180910390a350505050565b6001602052816000526040600020818154811061066f57600080fd5b9060005260206000209060030201600091509150508060000160009054906101000a900473ffffffffffffffffffffffffffffffffffffffff16908060010180546106b990611cf7565b80601f01602080910402602001604051908101604052809291908181526020018280546106e590611cf7565b80156107325780601f1061070757610100808354040283529160200191610732565b820191906000526020600020905b81548152906001019060200180831161071557829003601f168201915b5050505050908060020154905083565b61074a610e67565b828060008054906101000a900473ffffffffffffffffffffffffffffffffffffffff1673ffffffffffffffffffffffffffffffffffffffff1663b9db15b4836040518263ffffffff1660e01b81526004016107a59190611412565b600060405180830381865afa1580156107c2573d6000803e3d6000fd5b505050506040513d6000823e3d601f19601f820116820180604052508101906107eb9190611c13565b600001516000015114610833576040517f08c379a000000000000000000000000000000000000000000000000000000000815260040161082a90611ca8565b60405180910390fd5b83836001600083815260200190815260200160002080549050811061088d576040517f08c379a000000000000000000000000000000000000000000000000000000000815260040161088490612080565b60405180910390fd5b6001600087815260200190815260200160002085815481106108b2576108b16120a0565b5b90600052602060002090600302016040518060600160405290816000820160009054906101000a900473ffffffffffffffffffffffffffffffffffffffff1673ffffffffffffffffffffffffffffffffffffffff1673ffffffffffffffffffffffffffffffffffffffff16815260200160018201805461093190611cf7565b80601f016020809104026020016040519081016040528092919081815260200182805461095d90611cf7565b80156109aa5780601f1061097f576101008083540402835291602001916109aa565b820191906000526020600020905b81548152906001019060200180831161098d57829003601f168201915b50505050508152602001600282015481525050935050505092915050565b6000818060008054906101000a900473ffffffffffffffffffffffffffffffffffffffff1673ffffffffffffffffffffffffffffffffffffffff1663b9db15b4836040518263ffffffff1660e01b8152600401610a259190611412565b600060405180830381865afa158015610a42573d6000803e3d6000fd5b505050506040513d6000823e3d601f19601f82011682018060405250810190610a6b9190611c13565b600001516000015114610ab3576040517f08c379a0000000000000000000000000000000000000000000000000000000008152600401610aaa90611ca8565b60405180910390fd5b6001600084815260200190815260200160002080549050915050919050565b6000828060008054906101000a900473ffffffffffffffffffffffffffffffffffffffff1673ffffffffffffffffffffffffffffffffffffffff1663b9db15b4836040518263ffffffff1660e01b8152600401610b2f9190611412565b600060405180830381865afa158015610b4c573d6000803e3d6000fd5b505050506040513d6000823e3d601f19601f82011682018060405250810190610b759190611c13565b600001516000015114610bbd576040517f08c379a0000000000000000000000000000000000000000000000000000000008152600401610bb490611ca8565b60405180910390fd5b838360016000838152602001908152602001600020805490508110610c17576040517f08c379a0000000000000000000000000000000000000000000000000000000008152600401610c0e90612080565b60405180910390fd5b600160008781526020019081526020016000208581548110610c3c57610c3b6120a0565b5b906000526020600020906003020160000160009054906101000a900473ffffffffffffffffffffffffffffffffffffffff16935050505092915050565b6000610c83610e3f565b905060008160000160089054906101000a900460ff1615905060008260000160009054906101000a900467ffffffffffffffff1690506000808267ffffffffffffffff16148015610cd15750825b9050600060018367ffffffffffffffff16148015610d06575060003073ffffffffffffffffffffffffffffffffffffffff163b145b905081158015610d14575080155b15610d4b576040517ff92ee8a900000000000000000000000000000000000000000000000000000000815260040160405180910390fd5b60018560000160006101000a81548167ffffffffffffffff021916908367ffffffffffffffff1602179055508315610d9b5760018560000160086101000a81548160ff0219169083151502179055505b856000806101000a81548173ffffffffffffffffffffffffffffffffffffffff021916908373ffffffffffffffffffffffffffffffffffffffff1602179055508315610e375760008560000160086101000a81548160ff0219169083151502179055507fc7f505b2f371ae2175ee4913f4499e1f2633a7b5936321eed1cdaeb6115181d26001604051610e2e919061211e565b60405180910390a15b505050505050565b60007ff0c57e16840df040f15088dc2f81fe391c3923bec73e23a9662efc9c229c6a00905090565b6040518060600160405280600073ffffffffffffffffffffffffffffffffffffffff16815260200160608152602001600081525090565b6000604051905090565b600080fd5b600080fd5b6000819050919050565b610ec581610eb2565b8114610ed057600080fd5b50565b600081359050610ee281610ebc565b92915050565b600060208284031215610efe57610efd610ea8565b5b6000610f0c84828501610ed3565b91505092915050565b600081519050919050565b600082825260208201905092915050565b6000819050602082019050919050565b600073ffffffffffffffffffffffffffffffffffffffff82169050919050565b6000610f6c82610f41565b9050919050565b610f7c81610f61565b82525050565b600081519050919050565b600082825260208201905092915050565b60005b83811015610fbc578082015181840152602081019050610fa1565b60008484015250505050565b6000601f19601f8301169050919050565b6000610fe482610f82565b610fee8185610f8d565b9350610ffe818560208601610f9e565b61100781610fc8565b840191505092915050565b61101b81610eb2565b82525050565b60006060830160008301516110396000860182610f73565b50602083015184820360208601526110518282610fd9565b91505060408301516110666040860182611012565b508091505092915050565b600061107d8383611021565b905092915050565b6000602082019050919050565b600061109d82610f15565b6110a78185610f20565b9350836020820285016110b985610f31565b8060005b858110156110f557848403895281516110d68582611071565b94506110e183611085565b925060208a019950506001810190506110bd565b50829750879550505050505092915050565b600060208201905081810360008301526111218184611092565b905092915050565b600080fd5b600080fd5b7f4e487b7100000000000000000000000000000000000000000000000000000000600052604160045260246000fd5b61116b82610fc8565b810181811067ffffffffffffffff8211171561118a57611189611133565b5b80604052505050565b600061119d610e9e565b90506111a98282611162565b919050565b600067ffffffffffffffff8211156111c9576111c8611133565b5b6111d282610fc8565b9050602081019050919050565b82818337600083830152505050565b60006112016111fc846111ae565b611193565b90508281526020810184848401111561121d5761121c61112e565b5b6112288482856111df565b509392505050565b600082601f83011261124557611244611129565b5b81356112558482602086016111ee565b91505092915050565b6000806040838503121561127557611274610ea8565b5b600061128385828601610ed3565b925050602083013567ffffffffffffffff8111156112a4576112a3610ead565b5b6112b085828601611230565b9150509250929050565b600080604083850312156112d1576112d0610ea8565b5b60006112df85828601610ed3565b92505060206112f085828601610ed3565b9150509250929050565b61130381610f61565b82525050565b600082825260208201905092915050565b600061132582610f82565b61132f8185611309565b935061133f818560208601610f9e565b61134881610fc8565b840191505092915050565b61135c81610eb2565b82525050565b600060608201905061137760008301866112fa565b8181036020830152611389818561131a565b90506113986040830184611353565b949350505050565b60006060830160008301516113b86000860182610f73565b50602083015184820360208601526113d08282610fd9565b91505060408301516113e56040860182611012565b508091505092915050565b6000602082019050818103600083015261140a81846113a0565b905092915050565b60006020820190506114276000830184611353565b92915050565b600060208201905061144260008301846112fa565b92915050565b61145181610f61565b811461145c57600080fd5b50565b60008135905061146e81611448565b92915050565b60006020828403121561148a57611489610ea8565b5b60006114988482850161145f565b91505092915050565b600080fd5b600080fd5b6000815190506114ba81610ebc565b92915050565b6000815190506114cf81611448565b92915050565b60006114e86114e3846111ae565b611193565b9050828152602081018484840111156115045761150361112e565b5b61150f848285610f9e565b509392505050565b600082601f83011261152c5761152b611129565b5b815161153c8482602086016114d5565b91505092915050565b60008115159050919050565b61155a81611545565b811461156557600080fd5b50565b60008151905061157781611551565b92915050565b60006102208284031215611594576115936114a1565b5b61159f610220611193565b9050600082015167ffffffffffffffff8111156115bf576115be6114a6565b5b6115cb84828501611517565b600083015250602082015167ffffffffffffffff8111156115ef576115ee6114a6565b5b6115fb84828501611517565b602083015250604082015167ffffffffffffffff81111561161f5761161e6114a6565b5b61162b84828501611517565b604083015250606082015167ffffffffffffffff81111561164f5761164e6114a6565b5b61165b84828501611517565b606083015250608082015167ffffffffffffffff81111561167f5761167e6114a6565b5b61168b84828501611517565b60808301525060a061169f84828501611568565b60a08301525060c082015167ffffffffffffffff8111156116c3576116c26114a6565b5b6116cf84828501611517565b60c08301525060e082015167ffffffffffffffff8111156116f3576116f26114a6565b5b6116ff84828501611517565b60e08301525061010082015167ffffffffffffffff811115611724576117236114a6565b5b61173084828501611517565b6101008301525061012082015167ffffffffffffffff811115611756576117556114a6565b5b61176284828501611517565b6101208301525061014061177884828501611568565b6101408301525061016082015167ffffffffffffffff81111561179e5761179d6114a6565b5b6117aa84828501611517565b6101608301525061018082015167ffffffffffffffff8111156117d0576117cf6114a6565b5b6117dc84828501611517565b610180830152506101a082015167ffffffffffffffff811115611802576118016114a6565b5b61180e84828501611517565b6101a0830152506101c082015167ffffffffffffffff811115611834576118336114a6565b5b61184084828501611517565b6101c0830152506101e082015167ffffffffffffffff811115611866576118656114a6565b5b61187284828501611517565b6101e08301525061020082015167ffffffffffffffff811115611898576118976114a6565b5b6118a484828501611517565b6102008301525092915050565b600060c082840312156118c7576118c66114a1565b5b6118d160c0611193565b905060006118e1848285016114ab565b60008301525060206118f5848285016114c0565b602083015250604082015167ffffffffffffffff811115611919576119186114a6565b5b6119258482850161157d565b6040830152506060611939848285016114ab565b606083015250608061194d84828501611568565b60808301525060a0611961848285016114ab565b60a08301525092915050565b600067ffffffffffffffff82111561198857611987611133565b5b602082029050602081019050919050565b600080fd5b60006119b16119ac8461196d565b611193565b905080838252602082019050602084028301858111156119d4576119d3611999565b5b835b81811015611a1b57805167ffffffffffffffff8111156119f9576119f8611129565b5b808601611a068982611517565b855260208501945050506020810190506119d6565b5050509392505050565b600082601f830112611a3a57611a39611129565b5b8151611a4a84826020860161199e565b91505092915050565b600060e08284031215611a6957611a686114a1565b5b611a7360e0611193565b9050600082015167ffffffffffffffff811115611a9357611a926114a6565b5b611a9f84828501611517565b6000830152506020611ab3848285016114ab565b602083015250604082015167ffffffffffffffff811115611ad757611ad66114a6565b5b611ae384828501611517565b604083015250606082015167ffffffffffffffff811115611b0757611b066114a6565b5b611b1384828501611a25565b6060830152506080611b27848285016114ab565b60808301525060a0611b3b848285016114ab565b60a08301525060c082015167ffffffffffffffff811115611b5f57611b5e6114a6565b5b611b6b84828501611517565b60c08301525092915050565b600060608284031215611b8d57611b8c6114a1565b5b611b976060611193565b9050600082015167ffffffffffffffff811115611bb757611bb66114a6565b5b611bc3848285016118b1565b600083015250602082015167ffffffffffffffff811115611be757611be66114a6565b5b611bf384828501611a53565b6020830152506040611c0784828501611568565b60408301525092915050565b600060208284031215611c2957611c28610ea8565b5b600082015167ffffffffffffffff811115611c4757611c46610ead565b5b611c5384828501611b77565b91505092915050565b7f50726f6475637420646f6573206e6f7420657869737400000000000000000000600082015250565b6000611c92601683611309565b9150611c9d82611c5c565b602082019050919050565b60006020820190508181036000830152611cc181611c85565b9050919050565b7f4e487b7100000000000000000000000000000000000000000000000000000000600052602260045260246000fd5b60006002820490506001821680611d0f57607f821691505b602082108103611d2257611d21611cc8565b5b50919050565b7f436f6d6d656e7420636f6e74656e742063616e6e6f7420626520656d70747900600082015250565b6000611d5e601f83611309565b9150611d6982611d28565b602082019050919050565b60006020820190508181036000830152611d8d81611d51565b9050919050565b60008190508160005260206000209050919050565b60006020601f8301049050919050565b600082821b905092915050565b600060088302611df67fffffffffffffffffffffffffffffffffffffffffffffffffffffffffffffffff82611db9565b611e008683611db9565b95508019841693508086168417925050509392505050565b6000819050919050565b6000611e3d611e38611e3384610eb2565b611e18565b610eb2565b9050919050565b6000819050919050565b611e5783611e22565b611e6b611e6382611e44565b848454611dc6565b825550505050565b600090565b611e80611e73565b611e8b818484611e4e565b505050565b5b81811015611eaf57611ea4600082611e78565b600181019050611e91565b5050565b601f821115611ef457611ec581611d94565b611ece84611da9565b81016020851015611edd578190505b611ef1611ee985611da9565b830182611e90565b50505b505050565b600082821c905092915050565b6000611f1760001984600802611ef9565b1980831691505092915050565b6000611f308383611f06565b9150826002028217905092915050565b611f4982610f82565b67ffffffffffffffff811115611f6257611f61611133565b5b611f6c8254611cf7565b611f77828285611eb3565b600060209050601f831160018114611faa5760008415611f98578287015190505b611fa28582611f24565b86555061200a565b601f198416611fb886611d94565b60005b82811015611fe057848901518255600182019150602085019450602081019050611fbb565b86831015611ffd5784890151611ff9601f891682611f06565b8355505b6001600288020188555050505b505050505050565b6000602082019050818103600083015261202c818461131a565b905092915050565b7f436f6d6d656e7420646f6573206e6f7420657869737400000000000000000000600082015250565b600061206a601683611309565b915061207582612034565b602082019050919050565b600060208201905081810360008301526120998161205d565b9050919050565b7f4e487b7100000000000000000000000000000000000000000000000000000000600052603260045260246000fd5b6000819050919050565b600067ffffffffffffffff82169050919050565b60006121086121036120fe846120cf565b611e18565b6120d9565b9050919050565b612118816120ed565b82525050565b6000602082019050612133600083018461210f565b9291505056fea26469706673582212209d3e573399c7cf1e40ff84d16a068e4d594d81543f734f61f84c7a7959091cda64736f6c63430008180033",
  "linkReferences": {},
  "deployedLinkReferences": {}
}